:1000000014C1000043C1000041C100003FC1000015
:100010003DC100003BC1000039C1000037C10000F4
:1000200035C1000033C1000031C100002FC1000004
:100030002DC100002BC1000029C1000027C1000014
:1000400025C1000023C1000021C100001FC1000024
:1000500087C600001BC1000019C1000037C60000A0
:1000600015C1000063C5000038C500000FC10000C5
:100070000DC100000BC1000009C1000007C1000054
:1000800005C1000003C1000001C10000FFC0000065
:10009000FDC00000FBC00000F9C000000C94E408A3
:1000A000F5C00000F3C00000F1C00000EFC0000088
:1000B000EDC00000EBC00000E9C00000E7C0000098
:1000C000E5C00000E3C00000E1C00000DFC00000A8
:1000D000DDC00000DBC00000D9C00000D7C00000B8
:1000E000D5C00000E705EA05D905DD05E3052106D1
:1000F000EE05F205F805FC05000606060A060E06E2
:100100002106140618061C06000021002400270002
:100110002A002D0030003300010100000401070116
:100120000A01000020002300260029002C002F00D7
:100130003200000100000301060109010000220055
:10014000250028002B002E003100340002010000A1
:10015000050108010B010505050507050808080844
:10016000020202020A0A080804040404010101014F
:10017000010101010303030303030303040707074A
:100180000C0C0C0C0C0C0C0C0202020206060606EF
:10019000060606060B0B0B0B0B0B0B0B01021020BC
:1001A00020080810204010204080020102010804AD
:1001B0000201010204081020408080402010080441
:1001C000020180040201804020100804020108049A
:1001D00002010102040810204080010204081020DE
:1001E000408000000A0B02090C0D0E0807030401F1
:1001F00000000000000000000000000000000000FF
:1002000000000000000000000000000000001211CB
:1002100010000000000000000000000000000000CE
:100220000000000000000000C81511241FBECFEF21
:10023000D1E2DEBFCDBF00E00CBF24E0ACEBB2E00A
:1002400001C01D92A939B207E1F712E0A0E0B2E0C7
:10025000E2E2F3E300E00BBF02C007900D92AC3B7B
:10026000B107D9F711E0C5E1D1E000E006C0219760
:100270000109802FFE010E946217C431D10780E07E
:100280000807A9F70E94B10F0C948F19B9CEFC0191
:10029000918D828D981761F0828DDF01A80FB11DBD
:1002A0005D968C91928D9F5F9F73928F90E00895E1
:1002B0008FEF9FEF0895FC01918D828D981731F09B
:1002C000828DE80FF11D858D90E008958FEF9FEFEF
:1002D0000895FC01918D228D892F90E0805C9F4FC5
:1002E000821B91098F739927089580EB93E0F1DFCA
:1002F00021E0892B09F420E0822F0895FC01848DF0
:10030000DF01A80FB11DA35ABF4F2C91848D90E03F
:1003100001968F739927848FA689B7892C93A0891A
:10032000B1898C9180648C93938D848D981306C0D1
:100330000288F389E02D80818F7D80830895EF927C
:10034000FF920F931F93CF93DF93EC0181E0888F8F
:100350009B8D8C8D981305C0E889F989808185FD76
:1003600023C0F62E0B8D10E00F5F1F4F0F73112768
:10037000E02E8C8DE8120BC00FB607FCFACFE8898F
:10038000F989808185FFF5CFCE01B8DFF2CF8B8D63
:10039000FE01E80FF11DE35AFF4FF0820B8FEA894F
:1003A000FB898081806207C0EE89FF896083E889CC
:1003B000F98980818064808381E090E0DF91CF9132
:1003C0001F910F91FF90EF900895CF93DF93EC0171
:1003D000888D8823C1F0EA89FB89808185FD05C06D
:1003E000A889B9898C9186FD0EC00FB607FCF5CFA0
:1003F000808185FFF2CFA889B9898C9185FFEDCFE7
:10040000CE017CDFE8CFDF91CF91089580E090E0CE
:10041000892B19F06ADF811125C080E090E0892BDB
:1004200041F080E090E0892B21F00E9400008111D2
:100430001CC080E090E0892B41F080E090E0892BA7
:1004400021F00E940000811113C080E090E0892B10
:10045000A1F080E090E0892B81F00E9400008111E2
:100460000AC008950E940000D8CF0E940000E1CF8A
:100470000E940000EACF0C94000008953FB7F89462
:100480008091080390910903A0910A03B0910B0396
:1004900026B5A89B05C02F3F19F00196A11DB11DDF
:1004A0003FBFBA2FA92F982F8827820F911DA11D1A
:1004B000B11DBC01CD0142E0660F771F881F991F57
:1004C0004A95D1F7089581E090E0089580E090E0AA
:1004D0000895089585ED8093BC008091BC0084FD53
:1004E000FCCF10928D0308954091DE02262F30E05C
:1004F000240F311D21323105DCF420918D0324308D
:10050000C9F4FC0180E090E0861758F43091DE02D7
:100510002191DC01A454BD4FA30FB11D2C93019672
:10052000F3CF8091DE02680F6093DE0280E00895D1
:1005300081E0089582E008950895E0917C0480911F
:100540007B04E81730F4F0E0E05FFC4F808190E03E
:1005500008958FEF9FEF089590917C0480917B0424
:10056000981750F4E92FF0E0E05FFC4F208130E075
:100570009F5F90937C0402C02FEF3FEFC901089565
:1005800080917B0490E020917C04821B9109089566
:10059000CF92DF92EF92FF920F931F93CF93DF934F
:1005A0007C01262F972F8A0180918E03882391F05A
:1005B000C62FD72F6E01C40ED51ECC15DD0569F0F0
:1005C0006991D701ED91FC910190F081E02DC70177
:1005D0001995F3CF642F822F87DFC801DF91CF9168
:1005E0001F910F91FF90EF90DF90CF900895CF93E0
:1005F000DF931F92CDB7DEB7698320918E0322234C
:10060000D1F020917904203240F021E030E0FC016B
:100610003383228380E090E014C080917A04E82F35
:10062000F0E0E157FC4F998190838F5F80937A04CB
:100630008093790404C061E0CE01019655DF81E02A
:1006400090E00F90DF91CF9108950E947B1922E2F4
:1006500032E0FC013183208306960C94630E2CE279
:1006600032E0FC0131832083F2CFCF93DF93EC01A2
:10067000F6DFCE01DF91CF910C94FF17CF93DF937C
:10068000EC0188E192E0998388838C859D850097B1
:1006900039F0DC01ED91FC910280F381E02D199598
:1006A000CE01DF91CF91D3CFCF93DF93EC01E6DF83
:1006B000CE01DF91CF910C94FF17CF93DF93EC0124
:1006C000C6DFCE01DF91CF910C94FF17CF93DF935C
:1006D000EC0106960E944E0E81E08B83DF91CF9154
:1006E0000895CF92DF92EF92FF920F931F93CF93D3
:1006F000DF937C018B01FC01C480C394C482D12CA4
:10070000C601880F991F0E946A17EC0140E0F1E0D2
:10071000CF1AD108242F30E0F701828193812C1564
:100720003D0574F4220F331FFC01E20FF31F80819B
:100730009181FE01E20FF31F918380834F5FEACF27
:10074000009711F00E94FF17F701D383C283248121
:10075000CE01820F911D820F911DFC0132971183F2
:100760000083DF91CF911F910F91FF90EF90DF9069
:10077000CF900895CF93DF93CDB7DEB7A4970FB690
:10078000F894DEBF0FBECDBF4AE060913403CE01C6
:100790000D960E94250F4AE060913503CE01079621
:1007A0000E94250F6091360370E06F3171051CF0D7
:1007B0006E51710906C08EE190E09C01261B370B3B
:1007C000B9014AE0CE014F960E94EF0E6AE672E050
:1007D000CE0143960E948F0FBE016D5E7F4FCE010A
:1007E00049960E94870FBE01615E7F4FCE014996F8
:1007F0000E941E0EBC01CE0101960E94870FCE0101
:1008000049960E94630ECE0143960E94630ECE016C
:100810004F960E94630E89899A89019709F560E8CD
:1008200072E0CE0143960E948F0FBE016D5E7F4F36
:10083000CE0149960E94870FBE01635F7F4FCE01B4
:1008400049960E941E0EBC01CE010D960E944E0ECE
:10085000CE0149960E94630ECE0143960E94630E1C
:100860008B859C85019709F560E872E0CE0143967F
:100870000E948F0FBE016D5E7F4FCE0149960E9490
:10088000870FBE01695F7F4FCE0149960E941E0E01
:10089000BC01CE0107960E944E0ECE0149960E94E1
:1008A000630ECE0143960E94630EBE01635F7F4FCD
:1008B000CE0143960E94870F6DE672E0CE0143960B
:1008C0000E94070EBE01695F7F4F0E941E0E6DE6FB
:1008D00072E00E94070EBE016F5F7F4F0E941E0EE6
:1008E000BC01CE0149960E94870FBE01675E7F4F13
:1008F00080910E0390910F03E9DECE0149960E948C
:10090000630ECE0143960E94630ECE0101960E94B3
:10091000630ECE0107960E94630ECE010D960E94D3
:10092000630EA4960FB6F894DEBF0FBECDBFDF9165
:10093000CF910895CF93DF93CDB7DEB76E970FB603
:10094000F894DEBF0FBECDBF4AE060913203CE0106
:100950000D960E94250F4AE060913103CE01079663
:100960000E94250F4AE060913003CE0101960E945B
:10097000250F89899A89019709F560E872E0CE010F
:1009800043960E948F0FBE016D5E7F4FCE01499648
:100990000E94870FBE01635F7F4FCE0149960E9480
:1009A0001E0EBC01CE010D960E944E0ECE01499640
:1009B0000E94630ECE0143960E94630E8B859C8538
:1009C000019709F560E872E0CE0143960E948F0F0F
:1009D000BE016D5E7F4FCE0149960E94870FBE011A
:1009E000695F7F4FCE0149960E941E0EBC01CE0169
:1009F00007960E944E0ECE0149960E94630ECE01CC
:100A000043960E94630E8D819E81019709F560E8EF
:100A100072E0CE0143960E948F0FBE016D5E7F4F44
:100A2000CE0149960E94870FBE016F5F7F4FCE01B6
:100A300049960E941E0EBC01CE0101960E944E0EE8
:100A4000CE0149960E94630ECE0143960E94630E2A
:100A5000BE01635F7F4FCE0143960E94870F6FE612
:100A600072E0CE0143960E94070EBE01695F7F4F80
:100A70000E941E0E6FE672E00E94070EBE016F5FBD
:100A80007F4F0E941E0EBC01CE0149960E94870F27
:100A9000BE01675E7F4F80910C0390910D0316DEBF
:100AA000CE0149960E94630ECE0143960E94630ECA
:100AB000CE0101960E94630ECE0107960E94630E3E
:100AC000CE010D960E94630E6E960FB6F894DEBFAF
:100AD0000FBECDBFDF91CF9108951F920F920FB639
:100AE0000F9211240BB60F922F933F934F935F9366
:100AF0006F937F938F939F93AF93BF93EF93FF93E6
:100B000080EB93E0FBDBFF91EF91BF91AF919F9161
:100B10008F917F916F915F914F913F912F910F90A6
:100B20000BBE0F900FBE0F901F9018951F920F9243
:100B30000FB60F9211240BB60F922F938F939F93A2
:100B4000EF93FF93E091C003F091C1038081E091A6
:100B5000C603F091C70382FD12C090818091C90342
:100B60008F5F8F732091CA03821751F0E091C90300
:100B7000F0E0E055FC4F958F8093C90301C0808160
:100B8000FF91EF919F918F912F910F900BBE0F903E
:100B90000FBE0F901F90189590E0FC013197E23145
:100BA000F10508F04EC08827EE58FF4F8F4F0C9488
:100BB0006217809180008F7703C0809180008F7DC5
:100BC00080938000089580918000877FF9CF84B55D
:100BD0008F7702C084B58F7D84BD08958091B00069
:100BE0008F7703C08091B0008F7D8093B00008950F
:100BF000809190008F7707C0809190008F7D03C017
:100C000080919000877F8093900008958091A0004C
:100C10008F7707C08091A0008F7D03C08091A000D6
:100C2000877F8093A0000895809120018F7707C06F
:100C3000809120018F7D03C080912001877F809368
:100C4000200108958F929F92AF92BF92CF92DF9230
:100C5000EF92FF926B017C0111DC4B015C01C1142E
:100C6000D104E104F104E9F009DCDC01CB018819CD
:100C70009909AA09BB09883E9340A105B10578F3FB
:100C800021E0C21AD108E108F10888EE880E83E05D
:100C9000981EA11CB11CC114D104E104F10421F778
:100CA000DECFFF90EF90DF90CF90BF90AF909F90FE
:100CB0008F9008952FB7F894609104037091050305
:100CC00080910603909107032FBF08951F920F9202
:100CD0000FB60F9211242F933F938F939F93AF934F
:100CE000BF938091040390910503A0910603B091F6
:100CF00007033091030323E0230F2D3720F40196DF
:100D0000A11DB11D05C026E8230F0296A11DB11D2E
:100D1000209303038093040390930503A093060399
:100D2000B09307038091080390910903A0910A03EF
:100D3000B0910B030196A11DB11D80930803909300
:100D40000903A0930A03B0930B03BF91AF919F9146
:100D50008F913F912F910F900FBE0F901F9018957C
:100D60001F920F920FB60F9211240BB60F922F9372
:100D70003F934F935F936F937F938F939F93AF9323
:100D8000BF93CF93DF93EF93FF9386E09FEF909312
:100D900085008093840080914F04882309F470C0FB
:100DA0008091520490915304019690935304809340
:100DB000520420915404309155048217930708F48B
:100DC0005FC0109253041092520480915604E09137
:100DD0004D04F0914E0427E0829FE00DF11D112497
:100DE0008681882321F00190F081E02D1995609192
:100DF0004F04A0915404B0915504E0914D04F0913A
:100E00004E0420E0CF01261749F0448155814A1B4A
:100E10005B0B558344832F5F3796F5CF20915604A3
:100E2000FC0137E0239FE00DF11D11242281338165
:100E30003583248310925604FC0121E0309156043E
:100E4000261790F4EC0147E0349FC00DD11D11240A
:100E5000A385B4854C815D81A417B50710F4209358
:100E600056042F5F3796EACFFC0127E0329FE00D52
:100E7000F11D11248481958190935504809354042D
:100E8000FF91EF91DF91CF91BF91AF919F918F91A2
:100E90007F916F915F914F913F912F910F900BBE7A
:100EA0000F900FBE0F901F901895AF92BF92CF92E8
:100EB000DF92EF92FF920F931F93CF93DF93CDB703
:100EC000DEB72D970FB6F894DEBF0FBECDBF7C0105
:100ED0005B01BA01CE0107962D870E94870F82E23F
:100EE00092E0F7019183808311E0128313826701FE
:100EF000F6E0CF0ED11C68E772E0C6010E948F0FAA
:100F0000B701C501EEDBBE01695F7F4FCE010196DF
:100F1000FED7BE016F5F7F4FC601C0D6F7011383B6
:100F2000CE010196D0D62D85F70124830583CE010D
:100F30000796C9D68CE292E0F701918380832D96C3
:100F40000FB6F894DEBF0FBECDBFDF91CF911F91DA
:100F50000F91FF90EF90DF90CF90BF90AF900895EA
:100F6000AF92BF92CF92DF92EF92FF920F931F93B7
:100F7000CF93DF93CDB7DEB72D970FB6F894DEBFD2
:100F80000FBECDBF7C015B01BA01CE0107962D8754
:100F9000BED782E292E0D70111969C938E9311E026
:100FA00012961C93129713961C926701B6E0CB0E13
:100FB000D11C68E772E0C601B2D7B701C50191DB69
:100FC000BE01695F7F4FCE010196A1D7BE016F5F61
:100FD0007F4FC60163D6F7011383CE01019673D606
:100FE0002D85D70114962C93149715960C93CE014A
:100FF000079669D688E192E0F7019183808386E0C5
:1010000090E00E946A17FC0186E0DF011D928A953C
:10101000E9F7148215828EE392E091838083D701F1
:101020001D96FC93EE931C972D960FB6F894DEBF99
:101030000FBECDBFDF91CF911F910F91FF90EF9029
:10104000DF90CF90BF90AF9008950F931F93CF93F1
:101050008C0186E392E0D8018D939C93C0E0F80167
:1010600084810280F381E02DC81788F4EC0FF11D14
:10107000EC0FF11D80819181009739F0DC01ED9139
:10108000FC910280F381E02D1995CF5FE8CF309776
:1010900031F0CF01CF911F910F910C94FF17CF9199
:1010A0001F910F910895CF93DF93EC01CEDFCE0116
:1010B000DF91CF910C94FF17FC01248131E0309334
:1010C0008E032093AF0310927A04109279048385E3
:1010D000682B8DE794E08BDA81E09DC20F931F931C
:1010E000CF938C01C62FE8DF6C2F6460C801E4DF6A
:1010F0006C2F6B7FC801E0DF83EC90E00197F1F784
:10110000CF911F910F9108950F931F93CF938C014F
:10111000C62F607F6160E2DF80E1C89FB0011124CB
:101120006160C801DBDF81E090E0CF911F910F91FA
:1011300008950F931F93CF938C01C62F607FCEDF4E
:1011400080E1C89FB0011124C801CF911F910F9178
:10115000C5CFFC016681262F226026836A60E9CF15
:10116000CF93DF93CDB7DEB728970FB6F894DEBFE5
:101170000FBECDBF9C0188E0ECE0F2E0DE011196ED
:1011800001900D928A95E1F7F9018085841710F49A
:101190004FEF480FFE013196E40FF11DE40FF11DF2
:1011A0009081690F6068C90128960FB6F894DEBF78
:1011B0000FBECDBFDF91CF91BCCF61E0BADF8BE333
:1011C0009FE10197F1F708951F920F920FB60F92CA
:1011D00011240BB60F922F933F934F935F936F930E
:1011E0007F938F939F93AF93BF93EF93FF938091E0
:1011F000B900887F803609F49CC068F5883209F40C
:101200005BC090F4803109F454C038F4882309F4A9
:10121000F6C0883009F44DC0F5C0883109F44CC0DF
:10122000803209F45DC0EEC0803409F468C048F42F
:10123000803309F455C0883309F0E4C080938B03F0
:10124000D8C0803509F44FC0883509F45DC08834B2
:1012500009F0D8C0D6C0883909F4C7C0A8F48837C7
:1012600009F467C038F4883609F463C0803709F49C
:1012700060C0C8C0883809F4B8C0803909F45FC0BC
:10128000803809F0BFC05BC0803B09F486C038F4E9
:10129000803A09F466C0883A09F47FC0B3C0803C44
:1012A00009F4A7C0883C09F4A4C0883B09F48AC0AB
:1012B000A9C08091680310C090918A03809189032E
:1012C000981770F5E0918A0381E08E0F80938A036E
:1012D000F0E0E759FC4F80818093BB0085EC86C02D
:1012E00080938B038EC0E0918A0381E08E0F809300
:1012F0008A038091BB00F0E0E759FC4F8083909116
:101300008A03809189036EC0E0918A0381E08E0F89
:1013100080938A038091BB00F0E0E759FC4F808303
:1013200080918C0381116DC081E08093670384EA12
:1013300061C083E080938D0310920203CFCF809130
:101340000203803208F051C0E091020381E08E0F69
:10135000809302038091BB00F0E0EE51FD4F80834B
:10136000BDCF85EC8093BC0010928D038091020369
:10137000803230F4E0910203F0E0EE51FD4F108234
:101380006091020370E0E091E002F091E10282EEF0
:1013900092E019951092020335C084E080938D038A
:1013A0001092DF021092DE02E091DC02F091DD0289
:1013B00019958091DE02811105C081E08093DE02E3
:1013C0001092BC02E091DF0281E08E0F8093DF0279
:1013D000F0E0E454FD4F80818093BB009091DF02E8
:1013E0008091DE02981708F479CF85E88093BC00DD
:1013F00009C085EC8093BC0010928D0303C010924D
:101400008B0368D8FF91EF91BF91AF919F918F911E
:101410007F916F915F914F913F912F910F900BBEF4
:101420000F900FBE0F901F90189510928D0381E0C2
:1014300080938C031092670384E155D285E153D2E7
:10144000E9EBF0E080818E7F808380818D7F8083D7
:1014500088E48093B80085E48093BC0008952EE36F
:1014600032E0FC0131832083F0CDCF93DF93EC0198
:10147000F6DFCE01DF91CF910C94FF17CF93DF936E
:10148000EC0188819981009711F00E94FF17198261
:1014900018821D821C821B821A82DF91CF910895CF
:1014A0000F931F93CF93DF93EC018881998100976D
:1014B00029F02A813B812617370788F48B016F5F5B
:1014C0007F4F0E949718009761F0998388831B8350
:1014D0000A832C813D81232B11F4FC01108281E0D1
:1014E00001C080E0DF91CF911F910F910895EF929D
:1014F000FF920F931F93CF93DF93FC0124813581DB
:101500006115710511F480E018C041155105A1F075
:101510007B01EC018A01020F131FB801C1DF882390
:1015200091F3288139818C819D81B701820F931FAE
:101530000E9488191D830C8381E0DF91CF911F9158
:101540000F91FF90EF900895EF92FF920F931F93EA
:10155000CF93DF938C0190914F0481E0890F8093AA
:101560004F04E82EF12C27E0829FC00111240E9435
:101570006A17EC01FC01A70181E0E114F10461F0BC
:10158000118210821382128215821482868337960A
:1015900061E0E61AF108F1CF90E04150510987E08F
:1015A000292F30E0E0914D04F0914E0424173507C7
:1015B00084F467E0969F90011124DE01A20FB31F0F
:1015C000E20FF31F282F01900D922A95E1F79F5FFC
:1015D000E7CF309719F0CF010E94FF17D0934E0448
:1015E000C0934D0480914F0497E0899FC00DD11D99
:1015F000112427971983088388EE93E09B838A83BD
:101600001D821C8281E08E83DF91CF911F910F910B
:10161000FF90EF900895382F209179049091AF03B7
:10162000213208F049C080918D038111FCCF42E046
:1016300040938D0330938C033FEF30938B031092D4
:101640008A0320938903AFE8B3E049E653E0FA0147
:101650003E2F341B321718F43D913193F9CF10927D
:10166000680320916803990F922B909368039091DF
:101670006703913061F4109267039091680390932F
:10168000BB009091BC0093FDF8CF95EC01C095EEA6
:101690009093BC0090918D039230E1F390918B0375
:1016A0009F3F79F080918B03803241F080918B03D2
:1016B000803331F084E005C081E003C082E001C0E6
:1016C00083E010927A041092790410928E030895A8
:1016D000FF920F931F93CF93DF93909376048093A1
:1016E0007504C0E0D1E0E0917504F0917604848146
:1016F000C817D0F492818381E92FF82FEC0FF11DE8
:10170000EC0FF11D80819181DC01ED91FC91048051
:10171000F581E02D1995019729F0E0917504F0917C
:101720007604D583CF5FDFCF809173048F3F41F084
:1017300024818091570490915804211118C01AC037
:1017400020915E04A0915C04B0915D0480E090E083
:10175000821751F04D915D914E175F0719F48093F8
:10176000740491E08F5FF4CF9111E2CF6FC02581B7
:1017700021110FC010925B04FC0166816D7F6683AE
:101780006860D7DCA0917504B091760480E021E018
:1017900046C021E020935B04DCDCD4E684E6F82E2E
:1017A000C0E0E0917504F09176048481C81790F54B
:1017B00092818381E92FF82FEC0FF11DEC0FF11DC1
:1017C00000811181D801ED91FC910480F581E02D1B
:1017D000C80119950197E1F0F8012581422F50E0E9
:1017E0008D2F0D2E000C990B4817590751F4848149
:1017F00090E04F2D0F2C000C550B8417950724F00B
:1018000007C04817590724F4D8011496FC90D22F2A
:10181000CF5FC7CFF0925904D0935A04B3CF149638
:101820009C911497891790F412963C9112971396F5
:101830009C911397E32FF92FE80FF11DE80FF11D8D
:101840000190F081E02D23838F5FE9CFDF91CF916D
:101850001F910F91FF900895EF92FF920F931F93A6
:10186000CF93DF937C0100915E040F5F00935E04D1
:1018700010E0C801880F991F0E946A17EC0180913F
:101880005C0490915D0440E001501109242F30E088
:101890002017310774F4220F331FFC01E20FF31FEE
:1018A00060817181FE01E20FF31F718360834F5FDE
:1018B000EDCF009711F00E94FF17D0935D04C09305
:1018C0005C0480915E049E01280F311D280F311D9C
:1018D000F9013297F182E082DF91CF911F910F9150
:1018E000FF90EF900895CF93DF93282F30E0F90118
:1018F000EE51FE4F8491F901E456FE4FD491F90167
:10190000EA5AFE4FC491CC2381F0811145D9EC2FC6
:10191000F0E0EE0FFF1FE45CFE4FA591B4918FB78E
:10192000F894EC91ED2BEC938FBFDF91CF9108955C
:101930000F931F93CF93DF938C0189E894E09093EA
:1019400058048093570481E080935B048FEF809369
:10195000590480935A0410927C0410927B041092D4
:101960007A041092790461DD10928E0480919304C0
:10197000823018F098E090938E048093910462E393
:1019800070E080E090E05ED96091940489E894E092
:1019900093DB68EE73E080E090E054D960E389E87F
:1019A00094E09CDBCBE4D6E4CE010197F1F760E351
:1019B00089E894E093DB2197F1F760E389E894E00C
:1019C0008DDB83E592E00197F1F760E289E894E02E
:1019D00085DB90918E04692F606289E894E0A9DB31
:1019E00084E080938F046CE089E894E0A2DB89E8CE
:1019F00094E0E3DB82E08093900466E089E894E081
:101A000098DB62E089E894E094DBEBE3FFE1319757
:101A1000F1F7E0915704F091580488E0838760E083
:101A2000CF014ADB809157049091580492DB40E04B
:101A300060E0809157049091580492DBB801809146
:101A40005704909158047FD268EE73E080E090E0F4
:101A5000F9D88091570490915804AFDB8FEF8093B1
:101A60007404DF91CF911F910F9108958F929F92EF
:101A7000AF92BF92EF92FF920F931F93CF93DF939A
:101A800090915E0320915F033091600300E009179D
:101A900009F465C02D5F3F4FF90133974081481726
:101AA00011F00F5FF4CF282F30E0F901EE51FE4F17
:101AB0008491F901E456FE4FD491F901EA5AFE4FA0
:101AC000C49110E0CC2371F0811166D8EC2FF0E0C6
:101AD000EE0FFF1FEE5DFE4FA591B491EC91ED234B
:101AE00009F064C0E7D87801EE0CFF1CEE0CFF1C77
:101AF000E0916303F09164039801220F331FE20F1A
:101B0000F31FA0916103B0916203AE0DBF1D8D90D4
:101B10009D90AD90BC909B01AC01281939094A09F0
:101B20005B0949015A014081518160E070E0809178
:101B3000650390916603481559056A057B0548F4CD
:101B400021E0DC01A00FB11F2C9324E630E03183AB
:101B50002083FC01E00FF11FC081C11102C0C0E071
:101B60004AC0A8D82091610330916203E20EF31EAF
:101B7000F70180809180A280B380DC01CB018819BD
:101B80009909AA09BB094497A105B10540F392D868
:101B9000F7016083718382839383809165039091C1
:101BA0006603FC01E00FF11F108225C0C801880FF9
:101BB000991F880F991FC0916103D0916203C80FCC
:101BC000D91F78D8688379838A839B83E0916503E2
:101BD000F0916603E00FF11F81E08083000F111F79
:101BE000E0916303F0916403E00FF11F88EE93E04E
:101BF00091838083B4CF8C2FDF91CF911F910F9170
:101C0000FF90EF90BF90AF909F908F900895CF93EB
:101C1000DF93EC016115710559F0FB010190002083
:101C2000E9F73197AF01461B570B61DC811102C008
:101C3000CE0124DCCE01DF91CF910895CF93DF93C5
:101C4000EC01FB01448155816081718150DC81117F
:101C500002C0CE0113DCCE01DF91CF910895EF9247
:101C6000FF920F931F93CF93DF93EC017B018A01C7
:101C7000BA0116DC811103C0CE0100DC07C01D8350
:101C80000C83B701888199810E948819CE01DF9168
:101C9000CF911F910F91FF90EF900895CF93DF9315
:101CA000EC01FB018617970751F060817181611586
:101CB000710521F044815581D2DF01C0DFDBCE0107
:101CC000DF91CF910895FC01808191810C94FF17E1
:101CD000EF92FF920F931F93CF93DF9300D000D02A
:101CE000CDB7DEB7809174048F3F79F480915704AB
:101CF00090915804DC01ED91FC910280F381E02D7C
:101D000047E050E063EB72E01995F12CE091750427
:101D1000F09176048481F81608F04BC0928183819B
:101D2000E92FF82FEF0DF11DEF0DF11D008111814D
:101D3000F8018381882309F43AC045816481809148
:101D40005704909158040CDAD80112968C918111A5
:101D500023C068E772E0CE010196E1D0E12C8E2D20
:101D600090E0F801228533852817390748F041E0D3
:101D700050E067E772E0CE010196B9DBE394EFCF64
:101D8000BE016F5F7F4F8091570490915804DBD064
:101D9000CE01019698DF08C0B8016A5F7F4F80913D
:101DA000570490915804CFD0D80113961C92F39405
:101DB000ADCF40915A04609159048091570490919D
:101DC0005804CED926960FB6F894DEBF0FBECDBF0D
:101DD000DF91CF911F910F91FF90EF900895EF92B7
:101DE000FF920F931F93CF93DF93CDB7DEB7629728
:101DF0000FB6F894DEBF0FBECDBF8C01CB01F8014A
:101E000011821082138212821582148250E09E0188
:101E10002F5F3F4F7901B90127D7F70101900020CB
:101E2000E9F73197AF014E195F09B701C80117DF14
:101E300062960FB6F894DEBF0FBECDBFDF91CF9193
:101E40001F910F91FF90EF900895EF92FF920F93E3
:101E50001F93CF93DF93CDB7DEB729970FB6F894D2
:101E6000DEBF0FBECDBF8C01862FF801118210821C
:101E7000138212821582148250E09E012F5F3F4F21
:101E80007901B90190E004D7F70101900020E9F74A
:101E90003197AF014E195F09B701C801E0DE2996FD
:101EA0000FB6F894DEBF0FBECDBFDF91CF911F916B
:101EB0000F91FF90EF900895CF92DF92EF92FF92F3
:101EC0000F931F93CF93DF936C017A018B01C0E0D6
:101ED000D0E0CE15DF0589F0D8016D918D01D601D6
:101EE000ED91FC910190F081E02DC6011995892BAF
:101EF00011F47E0102C02196ECCFC701DF91CF9192
:101F00001F910F91FF90EF90DF90CF900895FC010B
:101F1000118210821382128215821482BFCEFC01BC
:101F2000118210821382128215821482611571054A
:101F300049F0FB0101900020E9F73197AF01461B02
:101F4000570B8DCE0895DC01ED91FC91DB011496C9
:101F50004D915C9115976D917C910280F381E02DFC
:101F60001994CF93DF93CDB7DEB728970FB6F894C7
:101F7000DEBF0FBECDBF789484B5826084BD84B5CA
:101F8000816084BD85B5826085BD85B5816085BD74
:101F900080916E00816080936E001092810080912C
:101FA00081008260809381008091810081608093B4
:101FB0008100809180008160809380008091B100D9
:101FC00084608093B1008091B00081608093B00004
:101FD0008091910082608093910080919100816056
:101FE0008093910080919000816080939000809117
:101FF000A10082608093A1008091A1008160809304
:10200000A1008091A00081608093A00080912101B7
:102010008260809321018091210181608093210160
:102020008091200181608093200180917A008460FA
:1020300080937A0080917A00826080937A00809108
:102040007A00816080937A0080917A008068809322
:102050007A001092C100E091C003F091C10382E0C8
:102060008083E091BC03F091BD031082E091BE0338
:10207000F091BF038FEC80831092C803E091C403FA
:10208000F091C50316E01083E091C203F091C30301
:10209000808180618083E091C203F091C3038081DD
:1020A00088608083E091C203F091C30380818068DF
:1020B0008083E091C203F091C30380818F7D808390
:1020C00086E090E007D77C01DC01E12F1D92EA95C4
:1020D000E9F7DC0114961C92149715961C9215973B
:1020E0000EE3C02E02E0D02ECD92DC9290934403FA
:1020F0008093430361E772E0CE01019610DF8CE02C
:1021000090E0E8D65C0100E020E0AE014F5F5F4F59
:10211000B7010E945507B0924203A0924103CE013D
:102120000196D1DD68E772E0CE010196F8DE8CE021
:1021300090E0D0D65C0128E0AE014F5F5F4FB70161
:102140000E945507B0920F03A0920E03CE01019694
:10215000BADD69E772E0CE010196E1DE8CE090E045
:10216000B9D65C0101E028E0AE014F5F5F4FB701D7
:102170000E945507B0920D03A0920C03CE01019668
:10218000A2DD86E090E0A6D67C01FC0111921A95B2
:10219000E9F7DC0114961C92149715961C9215977A
:1021A000CD92DC929093400380933F0362E872E00B
:1021B000CE010196B4DE8CE090E08CD66C0100E09C
:1021C00027E0AE014F5F5F4FB7010E945507D092E5
:1021D0003E03C0923D03CE01019675DD6BE872E0CF
:1021E000CE0101969CDE8EE090E074D66C0102E098
:1021F00020E0AE014F5F5F4FB7010E94B007D09261
:102200003C03C0923B03CE0101965DDD62E972E0C2
:10221000CE01019684DE8EE090E05CD66C0127E072
:10222000AE014F5F5F4FB7010E94B007D0923A03F3
:10223000C0923903CE01019646DD69E972E0CE0114
:1022400001966DDE8EE090E045D66C012EE0AE0189
:102250004F5F5F4FB7010E94B007D0923803C09222
:102260003703CE0101962FDD60EA72E0CE010196C0
:1022700056DECE0101965CDBCE01019624DD009195
:10228000430310914403C801E7DA80913F03909122
:102290004003E2DAC8011CDA1BDD80915F039091F4
:1022A0006003009709F0ABD68091630390916403BB
:1022B000009709F0A4D6809165039091660300977A
:1022C00009F09DD68091610390916203009709F017
:1022D00096D686E080935E0382E190E0FBD5FC0118
:1022E0009C012E5E3F4F128211823396E217F30754
:1022F000D1F79093600380935F038CE090E0EAD580
:10230000909364038093630386E090E0E3D5909319
:1023100066038093650388E190E0DCD590936203C7
:102320008093610370E048EE53E0A1E080915E038A
:10233000781708F05FC0272F30E0B3E07B9FC00123
:102340001124F901E050FE4F6081E0915F03F091AC
:102350006003E80FF91F6083E0915F03F091600371
:10236000E80FF91F808190E0FC01E456FE4F649174
:10237000FC01EA5AFE4F84918823D1F090E0880F47
:10238000991FFC01E85FFE4F05911491FC01E45C8C
:10239000FE4FE590F4909FB7F894F801B081862F36
:1023A00080958B238083F7018081682B60839FBF9A
:1023B000C901880F991FE0916303F0916403E80F4E
:1023C000F91F51834083E0916503F0916603E20FAA
:1023D000F31FA083220F331F220F331FE0916103ED
:1023E000F0916203E20FF31F1082118212821382B6
:1023F0007F5F9CCFF8941092800010928100109221
:102400006F008091810083608093810086E09FEF60
:10241000909385008093840081E080936F008AE927
:1024200094E092D88AEB93E08FD840E057E0242FD5
:1024300030E080914F0490E00197281739070CF0A5
:1024400040C0B7E04B9F8001112421E080914F04F0
:102450002817A8F580914D0490914E04DC01A00F3F
:10246000B11F12966D917C911397F7E02F9F800D0D
:10247000911D1124FC01E280F380E616F706E8F4D2
:10248000CD90DC9011971496ED90FC9015971696D0
:102490003C911697B52E01900D92BA94E1F7DC01AC
:1024A0001196DC92CE9213967C936E9312971596AA
:1024B000FC92EE92149716963C932F5FC7CF4F5F16
:1024C000B6CF789411E088E6782E0FEF96E0B92E1B
:1024D00020E1C22E23E0D22E35EEA32E45EC942E21
:1024E00010938E037092AF0310927A0410927904C5
:1024F00060E08DE794E00E94F70281E08CD88823A9
:1025000019F010924503B1C01093450380918D03DB
:102510008111FCCF10938D0310938C0300938B03D8
:1025200010928A03B0928903109368038091680324
:10253000806D8093680380916703813069F4109205
:102540006703809168038093BB008091BC0083FD8A
:10255000F8CF9092BC0002C0A092BC0080918D0385
:102560008130E1F380918A03873018F480918A03E7
:1025700001C087E0A9E6B3E0E0E1F3E09E2F9C19FB
:10258000981718F49D919193F9CF10927C04809341
:102590007B04873008F469C08DE794E00E94AC02A8
:1025A000982F9695969596959E70292F220F220F1B
:1025B000920F8F70890F809330038DE794E00E9413
:1025C000AC02982F92959F708F70EAE09E9F800DCD
:1025D0001124809331038DE794E00E94AC02982F80
:1025E0009695969596959670292F220F220F920F09
:1025F0008F70890F809332038DE794E00E94AC02C4
:10260000982F92959F708F70FAE09F9F800D1124F4
:10261000809333038DE794E00E94AC02982F92954B
:102620009F708F702AE0929F800D11248093340355
:102630008DE794E00E94AC02982F92959F708F7066
:102640003AE0939F800D1124809335038DE794E049
:102650000E94AC02982F9F70925E82958F706AE004
:10266000869F900D11249093360389E0FFD988232B
:1026700009F469C08091770490917804892B09F05E
:1026800062C04FEF6FEF812CE0917504F0917604FA
:102690008481881608F04BC092818381E92FF82F3E
:1026A000E80DF11DE80DF11DE080F180D701ED91FD
:1026B000FC910480F581E02DC7014F83688719954F
:1026C0004F816885019789F1F7015581852F90E049
:1026D00020915A04022E000C330B821793076CF0E2
:1026E0008217930711F5E481F0E020915904022E3E
:1026F000000C330BE217F307C4F4242F042E000C54
:10270000330B2817390774F08217930771F4D70138
:1027100014968C9190E0262F062E000C330B281770
:1027200039071CF4F7016481452F8394ADCF6F3FC7
:1027300051F06093590440935A048091570490914A
:1027400058040E94B0088BE091D9882309F469C02D
:102750008091770490917804892B09F062C04DE74D
:102760006DE7812CE0917504F091760484818816E0
:1027700008F04BC092818381E92FF82FE80DF11DFD
:10278000E80DF11DE080F180D701ED91FC9104800E
:10279000F581E02DC7014F83688719954F816885C2
:1027A000019789F1F7015581852F90E020915A0416
:1027B000022E000C330B281739076CF08217930791
:1027C00011F5E481F0E020915904022E000C330B46
:1027D0002E173F07C4F4242F042E000C330B82174E
:1027E000930774F08217930771F4D70114968C91B4
:1027F00090E0262F062E000C330B821793071CF453
:10280000F7016481452F8394ADCF6D3751F060930C
:10281000590440935A0480915704909158040E949F
:10282000B0088CE023D9882371F1E0907704F09010
:102830007804E114F10439F1D7011C962D913D91F2
:102840004D915C911F9750966D917D918D919C91CA
:102850005397A3D2F701608B718B828B938B01D33B
:102860004AE0CE010196BBDABE016F5F7F4FC70120
:10287000069614DAD70113961C93CE01019623DA3B
:10288000F701138325DA8AE0F1D8882371F1E0900B
:102890007704F0907804E114F10439F1D7011C9623
:1028A0002D913D914D915C911F9750966D917D9129
:1028B0008D919C91539770D2F701608B718B828BB5
:1028C000938BCFD24AE0CE01019689DABE016F5FC9
:1028D0007F4FC7010696E2D9D70113961C93CE010C
:1028E0000196F1D9F7011383F3D987E0BFD8882384
:1028F000E9F18091770490917804892BB9F5809162
:102900005704909158040E94DD08E0917304EF3F52
:10291000F9F4809174048F5F8093740420915E04B5
:1029200030E0082E000C990B2817390711F410928B
:102930007404E0917404EE0FFF0B80915C0490919D
:102940005D04E80FF91F808191810E94680B0DC022
:10295000EE0FFF0BE15AFB4F808191810E94680BC3
:1029600080917304815080937304B2D988E07ED83B
:10297000882309F474C0812CE0917504F0917604E9
:102980008481881608F06BC092818381E92FF82F2B
:10299000E80DF11DE80DF11DE080F1802091590452
:1029A000022E000C330BD70114968C91149790E0F3
:1029B0002817390709F051C020915A04022E000C43
:1029C000330B15968C91159790E02817390709F06D
:1029D00044C0ED91FC910480F581E02DC70119956B
:1029E0008230910509F18330910529F1892BA9F5F0
:1029F00080915704909158040E94DD08E09173047F
:102A0000EF5FE0937304EE0FFF0BE15AFB4F8091F1
:102A100075049091760491838083F7018485958570
:102A20000E94680B55D91BC0D7011C96ED91FC91F3
:102A30001D97199512C0F0927804E0927704F7017F
:102A40008489811102C0148B08C0148A12831383F5
:102A50003FD9109278041092770483948DCFE0913F
:102A60007504F09176048481882309F44CC0858133
:102A7000882309F448C08091560381110CC00E943C
:102A80005A066093520370935303809354039093B8
:102A90005503109356030E945A0620915203309119
:102AA00053034091540350915503DC01CB01821B29
:102AB000930BA40BB50B853F9140A105B10518F10F
:102AC0000E945A06609352037093530380935403F9
:102AD0009093550320915B04809157049091580482
:102AE000211105C010935B040E94A9080CC010922C
:102AF0005B04DC0116966C9116976D7F16966C93AD
:102B000068600E9499088091770490917804892BDD
:102B1000D9F180914A0381110CC00E945A0660933A
:102B2000460370934703809348039093490310939F
:102B30004A030E945A062091460330914703409170
:102B4000480350914903DC01CB01821B930BA40B7A
:102B5000B50B893C9105A105B105B0F00E945A065C
:102B6000609346037093470380934803909349030F
:102B7000E0917704F091780413838281811102C07F
:102B8000128301C01282A4D8A3D80E940602A8CC46
:102B9000CF92DF92EF92FF92E0EBF3E0138212828A
:102BA00088EEC82E83E0D82EE12CF12CC482D58289
:102BB000E682F78286E492E09183808385EC90E060
:102BC0009587848784EC90E09787868780EC90E0F7
:102BD000918B808B81EC90E0938B828B82EC90E0E8
:102BE000958B848B86EC90E0978B868B118E128E62
:102BF000138E148EEDE4F4E0128214821382168296
:102C00001582108617821186E7E5F4E017828FEFB0
:102C1000848F858F10927C0410927B0410927A042A
:102C2000109279040E94150AEDE7F4E013821282F3
:102C3000C482D582E682F78286E592E09183808322
:102C4000E9E8F4E01382128286E692E091838083C1
:102C500087E2848380E1818784E082871386FF9006
:102C6000EF90DF90CF9008954532510518F442302F
:102C700008F004C0FB011082CB010895BB274A3045
:102C800031F4992322F4BDE2909581959F4F0BC0BA
:102C90004532510518F4423008F004C0FB0110829F
:102CA000CB010895BB27FB015527AA27880F991F41
:102CB000AA1FA41710F0A41B83955051B9F7A05D6B
:102CC000AA3308F0A95DA193009779F7B111B193E8
:102CD0001192CB0100C0DC01FC01672F71917723B9
:102CE000E1F7329704C07C916D9370836291AE17C7
:102CF000BF07C8F3089597F99F6780E870E060E028
:102D000008959FEF80EC089500240A941616170684
:102D100018060906089500240A94121613061406CC
:102D200005060895092E0394000C11F4882352F02F
:102D3000BB0F40F4BF2B11F460FF04C06F5F7F4FE7
:102D40008F4F9F4F089557FD9058440F551F59F0CE
:102D50005F3F71F04795880F97FB991F61F09F3F88
:102D600079F087950895121613061406551FF2CFB1
:102D70004695F1DF08C0161617061806991FF1CF01
:102D800086957105610508940895E894BB27662728
:102D90007727CB0197F908955058BB27AA270ED063
:102DA000C1CFB2DF30F0B7DF20F031F49F3F11F434
:102DB0001EF4A7CF0EF4E095E7FB9DCFE92FC3DF0C
:102DC00080F3BA17620773078407950718F071F448
:102DD0009EF5DBCF0EF4E0950B2EBA2FA02D0B0144
:102DE000B90190010C01CA01A0011124FF27591B50
:102DF00099F0593F50F4503E68F11A16F040A22F56
:102E0000232F342F4427585FF3CF469537952795C6
:102E1000A795F0405395C9F77EF41F16BA0B620BC5
:102E2000730B840BBAF09150A1F0FF0FBB1F661F0C
:102E3000771F881FC2F70EC0BA0F621F731F841F4F
:102E400048F4879577956795B795F7959E3F08F075
:102E5000B3CF9395880F08F09927EE0F9795879534
:102E6000089504D06894B11191CF089574DF88F06B
:102E70009F5790F0B92F9927B751A0F0D1F0660F66
:102E8000771F881F991F1AF0BA95C9F712C0B13081
:102E900081F07BDFB1E0089578CF672F782F882706
:102EA000B85F39F0B93FCCF3869577956795B395C0
:102EB000D9F73EF490958095709561957F4F8F4F2F
:102EC0009F4F0895EE0FFF1F881F8BBF0790F6914D
:102ED000E02D1994CF93DF938230910510F482E0B6
:102EE00090E0E0919704F091980420E030E0C0E099
:102EF000D0E0309711F14081518148175907C0F057
:102F00004817590761F482819381209719F09B83B8
:102F10008A832BC0909398048093970426C0211530
:102F2000310519F04217530718F49A01BE01DF0169
:102F3000EF010280F381E02DDCCF2115310509F18D
:102F4000281B390B2430310590F412968D919C91F9
:102F500013976115710521F0FB019383828304C0EF
:102F60009093980480939704FD01329644C0FD012C
:102F7000E20FF31F81939193225031092D933C93DB
:102F80003AC02091950430919604232B41F420916E
:102F90000802309109023093960420939504209101
:102FA0000602309107022115310541F42DB73EB7D5
:102FB00040910A0250910B02241B350BE0919504BD
:102FC000F0919604E217F307A0F42E1B3F0B28178D
:102FD000390778F0AC014E5F5F4F2417350748F092
:102FE0004E0F5F1F509396044093950481939193E5
:102FF00002C0E0E0F0E0CF01DF91CF9108950F93A0
:103000001F93CF93DF93009709F48CC0FC01329794
:1030100013821282009197041091980401151105F2
:1030200081F420813181820F931F2091950430918A
:1030300096042817390779F5F0939604E0939504E0
:1030400071C0D80140E050E0AE17BF0750F41296AF
:103050002D913C911397AD012115310509F1D9014D
:10306000F3CF9D01DA013383228360817181860F62
:10307000971F8217930769F4EC0128813981260F85
:10308000371F2E5F3F4F318320838A819B8193833B
:103090008283452B29F4F0939804E093970442C06F
:1030A0001396FC93EE931297ED01499159919E016D
:1030B000240F351FE217F30771F480819181840F8B
:1030C000951F029611969C938E93828193811396FD
:1030D0009C938E931297E0E0F0E0D80112968D91C8
:1030E0009C911397009719F0F8018C01F6CF8D9100
:1030F0009C9198012E5F3F4F820F931F2091950462
:10310000309196042817390769F4309729F4109202
:1031100098041092970402C01382128210939604AE
:1031200000939504DF91CF911F910F9108956F92B5
:103130007F928F929F92AF92BF92CF92DF92EF9247
:10314000FF920F931F93CF93DF93EC01009781F4CD
:10315000CB01DF91CF911F910F91FF90EF90DF9006
:10316000CF90BF90AF909F908F907F906F90B2CE96
:10317000FC01E60FF71F9C0122503109E217F3070B
:1031800008F4A8C0D9010D911C91119706171707D3
:10319000A8F00530110508F49BC0C80104978617F4
:1031A000970708F495C002501109061B170B0193ED
:1031B00011936D937C93CF0122DF8AC05B01A01A2B
:1031C000B10A4C01800E911EA0919704B091980411
:1031D00040E050E0E12CF12C109709F44AC0A8150A
:1031E000B905D1F56D907C901197630182E0C80E0E
:1031F000D11CCA14DB0480F1A3014A195B096A01DE
:1032000082E0C80ED11C1296BC9012971396AC9116
:10321000B5E0CB16D10440F0B282A3835183408342
:10322000D9016D937C930AC00E5F1F4FC301800FBD
:10323000911FF90191838083EB2DFA2FE114F104A2
:1032400031F0D7011396FC93EE93129741C0F0939F
:103250009804E09397043CC08D919C911197481776
:10326000590708F4AC017D0112960D90BC91A02D78
:10327000B3CF809195049091960488159905E1F457
:1032800046175707C8F480910602909107020097ED
:1032900041F48DB79EB740910A0250910B02841BF6
:1032A000950BE817F907B0F4F0939604E0939504B2
:1032B000F901718360830CC0CB010CDE7C010097A7
:1032C00049F0A801BE011BD0CE0199DEC70104C0A0
:1032D000CE0102C080E090E0DF91CF911F910F916D
:1032E000FF90EF90DF90CF90BF90AF909F908F9026
:1032F0007F906F90089581E090E0F89410C0FB01FA
:10330000DC0102C001900D9241505040D8F7089561
:10331000FB01DC0101900D920020E1F70895F89483
:02332000FFCFDD
:1033220007090B0C0A080000990480000000400005
:1033320014005400000000003E0354036602000023
:10334200000027035D036902000000002F0335031C
:1033520063020000000025085308000000002F0A45
:10336200350A000000009F015C0F690147015B0103
:10337200E50100000000F702C802C002AC029D0293
:103382009C020000000084085C0F3230002F003ADB
:1033920000546F6461793A200030373A33333A315E
:1033A2003000536561736F6E203100547265652081
:1033B2003100547265652032005472656520330015
:1033C2004661726D426F7420436F6E74726F6C6CE3
:0C33D2006572004E6F206D656E75000086
:00000001FF
