:1000000014C1000043C1000041C100003FC1000015
:100010003DC100003BC1000039C1000037C10000F4
:1000200035C1000033C1000031C100002FC1000004
:100030002DC100002BC1000029C1000027C1000014
:1000400025C1000023C1000021C100001FC1000024
:1000500040C500001BC1000019C10000F0C4000031
:1000600015C100001CC40000F1C300000FC1000056
:100070000DC100000BC1000009C1000007C1000054
:1000800005C1000003C1000001C10000FFC0000065
:10009000FDC00000FBC00000F9C000001AC700004E
:1000A000F5C00000F3C00000F1C00000EFC0000088
:1000B000EDC00000EBC00000E9C00000E7C0000098
:1000C000E5C00000E3C00000E1C00000DFC00000A8
:1000D000DDC00000DBC00000D9C00000D7C00000B8
:1000E000D5C00000A004A304920496049C04DA0482
:1000F000A704AB04B104B504B904BF04C304C70426
:10010000DA04CD04D104D504000021002400270026
:100110002A002D0030003300010100000401070116
:100120000A01000020002300260029002C002F00D7
:100130003200000100000301060109010000220055
:10014000250028002B002E003100340002010000A1
:10015000050108010B010505050507050808080844
:10016000020202020A0A080804040404010101014F
:10017000010101010303030303030303040707074A
:100180000C0C0C0C0C0C0C0C0202020206060606EF
:10019000060606060B0B0B0B0B0B0B0B01021020BC
:1001A00020080810204010204080020102010804AD
:1001B0000201010204081020408080402010080441
:1001C000020180040201804020100804020108049A
:1001D00002010102040810204080010204081020DE
:1001E000408000000A0B02090C0D0E0807030401F1
:1001F00000000000000000000000000000000000FF
:1002000000000000000000000000000000001211CB
:1002100010000000000000000000000000000000CE
:100220000000000000000000BB1311241FBECFEF30
:10023000D1E2DEBFCDBF00E00CBF24E0AEE9B2E00A
:1002400001C01D92A137B207E1F712E0A0E0B2E0D1
:10025000E8E0FFE200E00BBF02C007900D92AE396C
:10026000B107D9F711E0C5E1D1E000E006C0219760
:100270000109802FFE010E945515C431D10780E08D
:100280000807A9F70E94E00D0C948217B9CEFC0173
:10029000918D828D981761F0828DDF01A80FB11DBD
:1002A0005D968C91928D9F5F9F73928F90E00895E1
:1002B0008FEF9FEF0895FC01918D828D981731F09B
:1002C000828DE80FF11D858D90E008958FEF9FEFEF
:1002D0000895FC01918D228D892F90E0805C9F4FC5
:1002E000821B91098F739927089588E893E0F1DFC5
:1002F00021E0892B09F420E0822F0895FC01848DF0
:10030000DF01A80FB11DA35ABF4F2C91848D90E03F
:1003100001968F739927848FA689B7892C93A0891A
:10032000B1898C9180648C93938D848D981306C0D1
:100330000288F389E02D80818F7D80830895EF927C
:10034000FF920F931F93CF93DF93EC0181E0888F8F
:100350009B8D8C8D981305C0E889F989808185FD76
:1003600023C0F62E0B8D10E00F5F1F4F0F73112768
:10037000E02E8C8DE8120BC00FB607FCFACFE8898F
:10038000F989808185FFF5CFCE01B8DFF2CF8B8D63
:10039000FE01E80FF11DE35AFF4FF0820B8FEA894F
:1003A000FB898081806207C0EE89FF896083E889CC
:1003B000F98980818064808381E090E0DF91CF9132
:1003C0001F910F91FF90EF900895CF93DF93EC0171
:1003D000888D8823C1F0EA89FB89808185FD05C06D
:1003E000A889B9898C9186FD0EC00FB607FCF5CFA0
:1003F000808185FFF2CFA889B9898C9185FFEDCFE7
:10040000CE017CDFE8CFDF91CF91089580E090E0CE
:10041000892B19F06ADF811125C080E090E0892BDB
:1004200041F080E090E0892B21F00E9400008111D2
:100430001CC080E090E0892B41F080E090E0892BA7
:1004400021F00E940000811113C080E090E0892B10
:10045000A1F080E090E0892B81F00E9400008111E2
:100460000AC008950E940000D8CF0E940000E1CF8A
:100470000E940000EACF0C94000008953FB7F89462
:100480008091EA029091EB02A091EC02B091ED0212
:1004900026B5A89B05C02F3F19F00196A11DB11DDF
:1004A0003FBFBA2FA92F982F8827820F911DA11D1A
:1004B000B11DBC01CD0142E0660F771F881F991F57
:1004C0004A95D1F7089581E090E00895089585ED6B
:1004D0008093BC008091BC0084FDFCCF109265032A
:1004E00008954091C002262F30E0240F311D2132A3
:1004F0003105DCF4209165032430C9F4FC0180E06F
:1005000090E0861758F43091C0022191DC01A25688
:10051000BD4FA30FB11D2C930196F3CF8091C00264
:10052000680F6093C00280E0089581E0089582E042
:1005300008950895E091540480915304E81730F42D
:10054000F0E0EE50FD4F808190E008958FEF9FEF37
:1005500008959091540480915304981750F4E92F12
:10056000F0E0EE50FD4F208130E09F5F9093540407
:1005700002C02FEF3FEFC90108958091530490E02E
:1005800020915404821B91090895CF92DF92EF923B
:10059000FF920F931F93CF93DF937C01262F972F0A
:1005A0008A0180916603882391F0C62FD72F6E01B0
:1005B000C40ED51ECC15DD0569F06991D701ED910A
:1005C000FC910190F081E02DC7011995F3CF642FC4
:1005D000822F87DFC801DF91CF911F910F91FF908C
:1005E000EF90DF90CF900895CF93DF931F92CDB718
:1005F000DEB76983209166032223D1F02091510454
:10060000203240F021E030E0FC013383228380E09F
:1006100090E014C080915204E82FF0E0E959FC4FBB
:10062000998190838F5F809352048093510404C01A
:1006300061E0CE01019655DF81E090E00F90DF91FF
:10064000CF9108950E946E1728E132E0FC013183BA
:10065000208306960C94760C22E232E0FC01318372
:100660002083F2CFCF93DF93EC01F6DFCE01DF9151
:10067000CF910C94F215CF93DF93EC01E5DFCE011F
:10068000DF91CF910C94F215CF93DF93EC01069696
:100690000E94610C81E08B83DF91CF9108950F93CD
:1006A0001F93CF93DF93CDB7DEB76E970FB6F89455
:1006B000DEBF0FBECDBF02E113E04AE0F80160816A
:1006C000CE0143960E94540D4AE0F8016181CE01AB
:1006D0000D960E94540D4AE0F8016281CE01019608
:1006E0000E94540DBE016F5F7F4FCE0107960E949E
:1006F000B60D60E672E0CE0107960E941A0CBE01AC
:10070000635F7F4F0E94310C60E672E00E941A0C1A
:10071000BE016D5E7F4F0E94310CBC01CE01499637
:100720000E94B60DBE01675E7F4F8091EE029091F0
:10073000EF02AADFCE0149960E94760CCE01079601
:100740000E94760CCE0101960E94760CCE010D9689
:100750000E94760CCE0143960E94760C6E960FB6E0
:10076000F894DEBF0FBECDBFDF91CF911F910F91E7
:1007700008950F931F93CF93DF93CDB7DEB76E9796
:100780000FB6F894DEBF0FBECDBF02E113E0F80153
:10079000668170E06E5171094AE0CE0143960E9475
:1007A0001E0D4AE0F8016581CE010D960E94540DA0
:1007B0004AE0F8016481CE0101960E94540DBE0109
:1007C0006F5F7F4FCE0107960E94B60D62E672E022
:1007D000CE0107960E941A0CBE01635F7F4F0E94F4
:1007E000310C64E672E00E941A0CBE016D5E7F4F10
:1007F0000E94310CBC01CE0149960E94B60DBE018B
:10080000675E7F4F8091F0029091F1023DDFCE0153
:1008100049960E94760CCE0107960E94760CCE0176
:1008200001960E94760CCE010D960E94760CCE01A8
:1008300043960E94760C6E960FB6F894DEBF0FBEFC
:10084000CDBFDF91CF911F910F9108951F920F920D
:100850000FB60F9211240BB60F922F933F934F9325
:100860005F936F937F938F939F93AF93BF93EF9318
:10087000FF9388E893E042DDFF91EF91BF91AF9144
:100880009F918F917F916F915F914F913F912F91A8
:100890000F900BBE0F900FBE0F901F9018951F92D8
:1008A0000F920FB60F9211240BB60F922F938F93C6
:1008B0009F93EF93FF93E0919803F09199038081C8
:1008C000E0919E03F0919F0382FD12C09081809180
:1008D000A1038F5F8F732091A203821751F0E091E3
:1008E000A103F0E0E857FC4F958F8093A10301C06E
:1008F0008081FF91EF919F918F912F910F900BBE6F
:100900000F900FBE0F901F90189590E0FC0131974B
:10091000E231F10508F04EC08827EE58FF4F8F4FA7
:100920000C945515809180008F7703C080918000D2
:100930008F7D80938000089580918000877FF9CF1C
:1009400084B58F7702C084B58F7D84BD0895809172
:10095000B0008F7703C08091B0008F7D8093B0008E
:100960000895809190008F7707C0809190008F7DCF
:1009700003C080919000877F8093900008958091BC
:10098000A0008F7707C08091A0008F7D03C0809169
:10099000A000877F8093A0000895809120018F7729
:1009A00007C0809120018F7D03C080912001877F47
:1009B0008093200108958F929F92AF92BF92CF9221
:1009C000DF92EF92FF926B017C0158DD4B015C01DD
:1009D000C114D104E104F104E9F050DDDC01CB01E4
:1009E00088199909AA09BB09883E9340A105B10558
:1009F00078F321E0C21AD108E108F10888EE880EE8
:100A000083E0981EA11CB11CC114D104E104F104BF
:100A100021F7DECFFF90EF90DF90CF90BF90AF90A7
:100A20009F908F9008952FB7F8946091E60270918F
:100A3000E7028091E8029091E9022FBF08951F928A
:100A40000F920FB60F9211242F933F938F939F9382
:100A5000AF93BF938091E6029091E702A091E802E4
:100A6000B091E9023091E50223E0230F2D3720F405
:100A70000196A11DB11D05C026E8230F0296A11DF8
:100A8000B11D2093E5028093E6029093E702A093C4
:100A9000E802B093E9028091EA029091EB02A09102
:100AA000EC02B091ED020196A11DB11D8093EA0206
:100AB0009093EB02A093EC02B093ED02BF91AF9143
:100AC0009F918F913F912F910F900FBE0F901F908C
:100AD00018951F920F920FB60F9211240BB60F921A
:100AE0002F933F934F935F936F937F938F939F9336
:100AF000AF93BF93CF93DF93EF93FF9386E09FEF86
:100B0000909385008093840080912704882309F4C2
:100B100070C080912A0490912B04019690932B042D
:100B200080932A0420912C0430912D04821793077E
:100B300008F45FC010922B0410922A0480912E04B6
:100B4000E0912504F091260427E0829FE00DF11D3D
:100B500011248681882321F00190F081E02D1995E0
:100B600060912704A0912C04B0912D04E0912504FC
:100B7000F091260420E0CF01261749F044815581E9
:100B80004A1B5B0B558344832F5F3796F5CF20912B
:100B90002E04FC0137E0239FE00DF11D112422817A
:100BA00033813583248310922E04FC0121E030919F
:100BB0002E04261790F4EC0147E0349FC00DD11DA0
:100BC0001124A385B4854C815D81A417B50710F469
:100BD00020932E042F5F3796EACFFC0127E0329F47
:100BE000E00DF11D11248481958190932D04809353
:100BF0002C04FF91EF91DF91CF91BF91AF919F9125
:100C00008F917F916F915F914F913F912F910F90B5
:100C10000BBE0F900FBE0F901F9018956F927F9292
:100C20008F929F92AF92BF92CF92DF92EF92FF92FC
:100C30000F931F93CF93DF93CDB7DEB72C970FB6EB
:100C4000F894DEBF0FBECDBF6C014B01122FBA016D
:100C5000CE0107968BD788E192E0F60191838083DD
:100C6000FF24F394F28213825601F6E0AF0EB11C1A
:100C70006FE672E0C50182D7F401F5826480639467
:100C80006482712CC301880F991F0E945D157C013D
:100C900020E0F1E06F1A7108422F50E0F4018281E8
:100CA00093814615570574F4440F551FFC01E40F5A
:100CB000F51F80819181F701E40FF51F91838083F7
:100CC0002F5FEACF009711F00E94F215F401F38232
:100CD000E2828481A701480F511D480F511DFA017E
:100CE0003297D182C082BE01695F7F4FCE010196EB
:100CF0003DD7BE016F5F7F4FC501E3D581E0F601AF
:100D00008383CE010196F2D5F60114830583CE01CB
:100D10000796ECD582E292E0F601918380832C96CF
:100D20000FB6F894DEBF0FBECDBFDF91CF911F91FC
:100D30000F91FF90EF90DF90CF90BF90AF909F907A
:100D40008F907F906F9008950F931F93CF938C0196
:100D50008CE292E0D8018D939C93C0E0F8018481ED
:100D60000280F381E02DC81788F4EC0FF11DEC0F21
:100D7000F11D80819181009739F0DC01ED91FC91AA
:100D80000280F381E02D1995CF5FE8CF309731F0E5
:100D9000CF01CF911F910F910C94F215CF911F911C
:100DA0000F910895CF93DF93EC01CEDFCE01DF9159
:100DB000CF910C94F215FC01248131E0309366034D
:100DC0002093870310925204109251048385682B5C
:100DD00085E594E009DC81E0A3C20F931F93CF93D4
:100DE0008C01C62FE8DF6C2F6460C801E4DF6C2F34
:100DF0006B7FC801E0DF83EC90E00197F1F7CF91C2
:100E00001F910F9108950F931F93CF938C01C62FBD
:100E1000607F6160E2DF80E1C89FB0011124616002
:100E2000C801DBDF81E090E0CF911F910F91089521
:100E30000F931F93CF938C01C62F607FCEDF80E18D
:100E4000C89FB0011124C801CF911F910F91C5CF48
:100E5000FC016681262F226026836A60E9CFFC01AF
:100E600066816D7F66836860E3CFCF93DF93CDB7F4
:100E7000DEB728970FB6F894DEBF0FBECDBF9C013A
:100E800088E0ECE0F2E0DE01119601900D928A9587
:100E9000E1F7F9018085841710F44FEF480FFE0148
:100EA0003196E40FF11DE40FF11D9081690F606828
:100EB000C90128960FB6F894DEBF0FBECDBFDF91F3
:100EC000CF91B6CF61E0B4DF8BE39FE10197F1F7FB
:100ED00008951F920F920FB60F9211240BB60F9226
:100EE0002F933F934F935F936F937F938F939F9332
:100EF000AF93BF93EF93FF938091B900887F8036C3
:100F000009F49CC068F5883209F45BC090F4803124
:100F100009F454C038F4882309F4F6C0883009F481
:100F20004DC0F5C0883109F44CC0803209F45DC071
:100F3000EEC0803409F468C048F4803309F455C029
:100F4000883309F0E4C080936303D8C0803509F486
:100F50004FC0883509F45DC0883409F0D8C0D6C0C8
:100F6000883909F4C7C0A8F4883709F467C038F491
:100F7000883609F463C0803709F460C0C8C0883877
:100F800009F4B8C0803909F45FC0803809F0BFC0E7
:100F90005BC0803B09F486C038F4803A09F466C02F
:100FA000883A09F47FC0B3C0803C09F4A7C0883CEC
:100FB00009F4A4C0883B09F48AC0A9C08091400309
:100FC00010C09091620380916103981770F5E091D1
:100FD000620381E08E0F80936203F0E0EF5BFC4FD1
:100FE00080818093BB0085EC86C0809363038EC0B4
:100FF000E091620381E08E0F809362038091BB00D9
:10100000F0E0EF5BFC4F808390916203809161037D
:101010006EC0E091620381E08E0F80936203809145
:10102000BB00F0E0EF5BFC4F808380916403811193
:101030006DC081E080933F0384EA61C083E08093C8
:1010400065031092E402CFCF8091E402803208F071
:1010500051C0E091E40281E08E0F8093E402809120
:10106000BB00F0E0EC53FD4F8083BDCF85EC809357
:10107000BC00109265038091E402803230F4E0916C
:10108000E402F0E0EC53FD4F10826091E40270E066
:10109000E091C202F091C30284EC92E019951092A3
:1010A000E40235C084E0809365031092C10210927F
:1010B000C002E091BE02F091BF0219958091C0027A
:1010C000811105C081E08093C00210929E02E091E0
:1010D000C10281E08E0F8093C102F0E0E256FD4F25
:1010E00080818093BB009091C1028091C0029817CB
:1010F00008F479CF85E88093BC0009C085EC809323
:10110000BC001092650303C010926303E0D9FF9105
:10111000EF91BF91AF919F918F917F916F915F916F
:101120004F913F912F910F900BBE0F900FBE0F90DC
:101130001F9018951092650381E0809364031092CC
:101140003F0384E1E3D185E1E1D1E9EBF0E0808187
:101150008E7F808380818D7F808388E48093B80038
:1011600085E48093BC00089524E332E0FC013183E0
:101170002083EACDCF93DF93EC01F6DFCE01DF9140
:10118000CF910C94F215CF93DF93EC018881998174
:10119000009711F00E94F215198218821D821C829C
:1011A0001B821A82DF91CF9108950F931F93CF93E3
:1011B000DF93EC0188819981009729F02A813B8196
:1011C0002617370788F48B016F5F7F4F0E948A16BE
:1011D000009761F0998388831B830A832C813D816A
:1011E000232B11F4FC01108281E001C080E0DF912B
:1011F000CF911F910F910895EF92FF920F931F933C
:10120000CF93DF93FC01248135816115710511F4C1
:1012100080E018C041155105A1F07B01EC018A0165
:10122000020F131FB801C1DF882391F32881398190
:101230008C819D81B701820F931F0E947B171D83B4
:101240000C8381E0DF91CF911F910F91FF90EF9080
:101250000895EF92FF920F931F93CF93DF938C012A
:101260009091270481E0890F80932704E82EF12CC8
:1012700027E0829FC00111240E945D15EC01FC0152
:10128000A70181E0E114F10461F011821082138260
:101290001282158214828683379661E0E61AF1087D
:1012A000F1CF90E04150510987E0292F30E0E091E3
:1012B0002504F09126042417350784F467E0969FEF
:1012C00090011124DE01A20FB31FE20FF31F282F9C
:1012D00001900D922A95E1F79F5FE7CF309719F0C3
:1012E000CF010E94F215D0932604C093250480916B
:1012F000270497E0899FC00DD11D112427971983DA
:10130000088388EE93E09B838A831D821C8281E0A0
:101310008E83DF91CF911F910F91FF90EF900895F1
:10132000382F2091510490918703213208F049C051
:10133000809165038111FCCF42E0409365033093B7
:1013400064033FEF309363031092620320936103C1
:10135000A7E6B3E041E453E0FA013E2F341B321715
:1013600018F43D913193F9CF10924003209140033E
:10137000990F922B9093400390913F03913061F429
:1013800010923F03909140039093BB009091BC005A
:1013900093FDF8CF95EC01C095EE9093BC00909131
:1013A00065039230E1F3909163039F3F79F0809160
:1013B0006303803241F080916303803331F084E035
:1013C00005C081E003C082E001C083E010925204B6
:1013D00010925104109266030895FF920F931F9389
:1013E000CF93DF9390934E0480934D0420914B0450
:1013F0002F3F61F0FC01248180912F0490913004F3
:1014000021111BC0109233042ADD2AC040913604FA
:10141000E0913404F091350420E030E0241751F0DD
:10142000619171916817790719F420934C0431E0A8
:101430002F5FF4CF3111DECF63C021E0209333045E
:1014400007DDD4E684E6F82EC0E0E0914D04F0918B
:101450004E048481C81758F0F0923104D0933204BE
:10146000A0914D04B0914E0480E021E032C0928101
:101470008381E92FF82FEC0FF11DEC0FF11D008196
:101480001181D801ED91FC910480F581E02DC80116
:1014900019950197E1F0F8012581422F50E08D2F39
:1014A0000D2E000C990B4817590751F4848190E0D8
:1014B0004F2D0F2C000C550B8417950724F007C0F7
:1014C0004817590724F4D8011496FC90D22FCF5F07
:1014D000BCCF14969C911497891790F412963C9166
:1014E000129713969C911397E32FF92FE80FF11D94
:1014F000E80FF11D0190F081E02D23838F5FE9CF8C
:10150000DF91CF911F910F91FF900895CF93DF93BB
:10151000282F30E0F901EE51FE4F8491F901E45695
:10152000FE4FD491F901EA5AFE4FC491CC2381F0C9
:101530008111EBD9EC2FF0E0EE0FFF1FE45CFE4FC2
:10154000A591B4918FB7F894EC91ED2BEC938FBFEC
:10155000DF91CF9108950F931F93CF93DF938C0169
:1015600081E694E09093300480932F0481E080938F
:1015700033048FEF8093310480933204109254042B
:10158000109253041092520410925104D3DD109221
:10159000660480916B04823018F098E090936604A2
:1015A0008093690462E370E080E090E004DA609187
:1015B0006C0481E694E0FFDB68EE73E080E090E08D
:1015C000FAD960E381E694E008DCCBE4D6E4CE010E
:1015D0000197F1F760E381E694E0FFDB2197F1F7F3
:1015E00060E381E694E0F9DB83E592E00197F1F7AF
:1015F00060E281E694E0F1DB90916604692F60621D
:1016000081E694E015DC84E0809367046CE081E679
:1016100094E00EDC81E694E055DC82E0809368047F
:1016200066E081E694E004DC62E081E694E000DCC0
:10163000EBE3FFE13197F1F7E0912F04F0913004F3
:1016400088E0838760E0CF01B6DB80912F04909122
:101650003004FEDB40E060E080912F049091300484
:1016600004DCB80180912F04909130049BD268EE85
:1016700073E080E090E09FD980912F049091300436
:1016800021DC8FEF80934C04DF91CF911F910F915C
:1016900008958F929F92AF92BF92EF92FF920F9315
:1016A0001F93CF93DF9390913603209137033091AE
:1016B000380300E0091709F465C02D5F3F4FF901B9
:1016C00033974081481711F00F5FF4CF282F30E097
:1016D000F901EE51FE4F8491F901E456FE4FD49189
:1016E000F901EA5AFE4FC49110E0CC2371F0811148
:1016F0000CD9EC2FF0E0EE0FFF1FEE5DFE4FA59131
:10170000B491EC91ED2309F064C08DD97801EE0C11
:10171000FF1CEE0CFF1CE0913B03F0913C03980191
:10172000220F331FE20FF31FA0913903B0913A0348
:10173000AE0DBF1D8D909D90AD90BC909B01AC01F6
:10174000281939094A095B0949015A014081518127
:1017500060E070E080913D0390913E03481559058B
:101760006A057B0548F421E0DC01A00FB11F2C9332
:1017700024E630E031832083FC01E00FF11FC081BB
:10178000C11102C0C0E04AC04ED920913903309146
:101790003A03E20EF31EF70180809180A280B380AD
:1017A000DC01CB0188199909AA09BB094497A10555
:1017B000B10540F338D9F701608371838283938345
:1017C00080913D0390913E03FC01E00FF11F1082D8
:1017D00025C0C801880F991F880F991FC091390330
:1017E000D0913A03C80FD91F1ED9688379838A83A1
:1017F0009B83E0913D03F0913E03E00FF11F81E0F8
:101800008083000F111FE0913B03F0913C03E00F38
:10181000F11F88EE93E091838083B4CF8C2FDF910A
:10182000CF911F910F91FF90EF90BF90AF909F903D
:101830008F900895CF93DF93EC016115710559F0F6
:10184000FB0101900020E9F73197AF01461B570BD0
:10185000D3DC811102C0CE0196DCCE01DF91CF91A5
:101860000895CF93DF93EC01FB01448155816081A2
:101870007181C2DC811102C0CE0185DCCE01DF9115
:10188000CF910895EF92FF920F931F93CF93DF9321
:10189000EC017B018A01BA0188DC811103C0CE0111
:1018A00072DC07C01D830C83B701888199810E9477
:1018B0007B17CE01DF91CF911F910F91FF90EF9099
:1018C0000895CF93DF93EC01FB018617970751F042
:1018D000608171816115710521F044815581D2DFEC
:1018E00001C051DCCE01DF91CF910895FC018081D0
:1018F00091810C94F215EF92FF920F931F93CF9367
:10190000DF9300D000D0CDB7DEB780914C048F3F7D
:1019100079F480912F0490913004DC01ED91FC91D9
:101920000280F381E02D47E050E066E972E019950E
:10193000E0914D04F0914E048581811107C0109211
:10194000330480912F049091300489DAF12CE091D6
:101950004D04F0914E048481F81608F059C092812C
:101960008381E92FF82FEF0DF11DEF0DF11D00819F
:101970001181D801ED91FC910480F581E02DC80121
:101980001995019729F0F8018381882309F43EC055
:10199000D80115964C91159714966C9180912F044F
:1019A0009091300462DAF8018281811125C06FE6DE
:1019B00072E0CE010196E2D0E12C8E2D90E0D801AC
:1019C0001A962D913C911B972817390748F041E052
:1019D00050E06EE672E0CE0101960EDCE394EDCFAE
:1019E000BE016F5F7F4F80912F0490913004DAD059
:1019F000CE0101967BDF08C0B8016A5F7F4F8091FE
:101A00002F0490913004CED0F8011382F3949FCF2D
:101A1000409132046091310480912F049091300400
:101A200024DA26960FB6F894DEBF0FBECDBFDF9145
:101A3000CF911F910F91FF90EF900895EF92FF9239
:101A40000F931F93CF93DF93CDB7DEB762970FB697
:101A5000F894DEBF0FBECDBF8C01CB01F80111821F
:101A60001082138212821582148250E09E012F5F31
:101A70003F4F7901B901EBD6F70101900020E9F75A
:101A80003197AF014E195F09B701C801FBDE6296BD
:101A90000FB6F894DEBF0FBECDBFDF91CF911F917F
:101AA0000F91FF90EF900895EF92FF920F931F9385
:101AB000CF93DF93CDB7DEB729970FB6F894DEBF8B
:101AC0000FBECDBF8C01862FF801118210821382C8
:101AD00012821582148250E09E012F5F3F4F7901E0
:101AE000B90190E0C8D6F70101900020E9F73197DD
:101AF000AF014E195F09B701C801C4DE29960FB6C0
:101B0000F894DEBF0FBECDBFDF91CF911F910F9133
:101B1000FF90EF900895CF92DF92EF92FF920F9394
:101B20001F93CF93DF936C017A018B01C0E0D0E06B
:101B3000CE15DF0589F0D8016D918D01D601ED91AB
:101B4000FC910190F081E02DC6011995892B11F4CB
:101B50007E0102C02196ECCFC701DF91CF911F918A
:101B60000F91FF90EF90DF90CF900895FC011182CC
:101B700010821382128215821482A3CEFC0111827C
:101B8000108213821282158214826115710549F048
:101B9000FB0101900020E9F73197AF01461B570B7D
:101BA00071CE0895DC01ED91FC91DB0114964D910D
:101BB0005C9115976D917C910280F381E02D1994D1
:101BC000CF93DF93CDB7DEB728970FB6F894DEBF7B
:101BD0000FBECDBF789484B5826084BD84B581602A
:101BE00084BD85B5826085BD85B5816085BD8091E8
:101BF0006E00816080936E00109281008091810060
:101C00008260809381008091810081608093810057
:101C1000809180008160809380008091B100846019
:101C20008093B1008091B00081608093B00080917A
:101C300091008260809391008091910081608093F7
:101C40009100809190008160809390008091A1002C
:101C500082608093A1008091A10081608093A100A7
:101C60008091A00081608093A0008091210182601A
:101C700080932101809121018160809321018091D5
:101C8000200181608093200180917A00846080939C
:101C90007A0080917A00826080937A0080917A0045
:101CA000816080937A0080917A00806880937A00C6
:101CB0001092C10086E090E000D77C0116E0DC01C4
:101CC000E12F1D92EA95E9F7DC0114961C92149716
:101CD00015961C92159784E392E08D939C93F09255
:101CE0001C03E0921B0368E672E0CE01019646DF1A
:101CF0008CE090E0E2D66C0100E020E0AE014F5FA6
:101D00005F4FB7010E940E06D0921A03C0921903CA
:101D1000CE010196EBDD60E772E0CE0101962EDF89
:101D20008CE090E0CAD66C0128E0AE014F5F5F4FB7
:101D3000B7010E940E06D092F102C092F002CE01CD
:101D40000196D4DD6AE772E0CE01019617DF8CE0E0
:101D500090E0B3D66C0101E028E0AE014F5F5F4F29
:101D6000B7010E940E06D092EF02C092EE02CE01A1
:101D70000196BCDDE0919803F091990382E08083A5
:101D8000E0919403F09195031082E0919603F09115
:101D900097038FEC80831092A003E0919C03F09155
:101DA0009D031083E0919A03F0919B0380818061F1
:101DB0008083E0919A03F0919B0380818860808307
:101DC000E0919A03F0919B03808180688083E09189
:101DD0009A03F0919B0380818F7D808363E872E09A
:101DE000CE010196CBDECE010196B5DBCE01019688
:101DF0007DDDC0901B03D0901C03E0903604E3947B
:101E0000E0923604F12CC701880F991F56D68C0139
:101E1000809134049091350440E0B1E0EB1AF10870
:101E2000242F30E02E153F0574F4220F331FFC01E0
:101E3000E20FF31F60817181F801E20FF31F7183DC
:101E400060834F5FEDCF009709F0CCD61093350437
:101E500000933404809136049801280F311D280F17
:101E6000311DF9013297D182C082C601B6DA43DD55
:101E70008091370390913803009709F0B3D6809191
:101E80003B0390913C03009709F0ACD680913D0351
:101E900090913E03009709F0A5D680913903909167
:101EA0003A03009709F09ED686E08093360382E1DC
:101EB00090E003D6FC019C012E5E3F4F12821182FE
:101EC0003396E217F307D1F79093380380933703E3
:101ED0008CE090E0F2D590933C0380933B0386E046
:101EE00090E0EBD590933E0380933D0388E190E032
:101EF000E4D590933A038093390370E048EE53E0C1
:101F0000A1E080913603781708F05FC0272F30E0FA
:101F1000E3E07E9FC0011124F901E050FE4F608193
:101F2000E0913703F0913803E80FF91F6083E091E7
:101F30003703F0913803E80FF91F808190E0FC012E
:101F4000E456FE4F6491FC01EA5AFE4F84918823C7
:101F5000D1F090E0880F991FFC01E85FFE4F0591DA
:101F60001491FC01E45CFE4FE590F4909FB7F89467
:101F7000F801B081862F80958B238083F7018081C3
:101F8000682B60839FBFC901880F991FE0913B03B5
:101F9000F0913C03E80FF91F51834083E0913D032A
:101FA000F0913E03E20FF31FA083220F331F220F95
:101FB000331FE0913903F0913A03E20FF31F1082CF
:101FC0001182128213827F5F9CCFF894109280005E
:101FD0001092810010926F00809181008360809345
:101FE000810086E09FEF909385008093840081E0DC
:101FF00080936F008FE493E02CD989EB93E029D98B
:1020000040E057E0242F30E08091270490E00197D2
:10201000281739070CF040C0B7E04B9F800111240E
:1020200021E0809127042817A8F58091250490913C
:102030002604DC01A00FB11F12966D917C911397BD
:10204000F7E02F9F800D911D1124FC01E280F380A9
:10205000E616F706E8F4CD90DC9011971496ED9013
:10206000FC90159716963C911697B52E01900D92FF
:10207000BA94E1F7DC011196DC92CE9213967C9330
:102080006E9312971596FC92EE92149716963C93C7
:102090002F5FC7CF4F5FB6CF789411E088E6782ED8
:1020A0000FEF96E0B92E22EFC22E22E0D22E35EEAF
:1020B000A32E45EC942E1093660370928703109222
:1020C00052041092510460E085E594E00E94F4020D
:1020D00081E026D9882319F010921D03B1C0109316
:1020E0001D03809165038111FCCF1093650310934C
:1020F00064030093630310926203B0926103109330
:10210000400380914003806D8093400380913F03A2
:10211000813069F410923F03809140038093BB00AB
:102120008091BC0083FDF8CF9092BC0002C0A092C9
:10213000BC00809165038130E1F3809162038730B8
:1021400018F48091620301C087E0A1E4B3E0E2EFFC
:10215000F2E09E2F9C19981718F49D919193F9CF56
:102160001092540480935304873008F469C085E5C5
:1021700094E00E94A902982F9695969596959E7048
:10218000292F220F220F920F8F70890F8093120335
:1021900085E594E00E94A902982F92959F708F7018
:1021A000EAE09E9F800D11248093130385E594E05F
:1021B0000E94A902982F9695969596959670292F2C
:1021C000220F220F920F8F70890F8093140385E5E1
:1021D00094E00E94A902982F92959F708F70FAE068
:1021E0009F9F800D11248093150385E594E00E9444
:1021F000A902982F92959F708F702AE0929F800D70
:1022000011248093160385E594E00E94A902982F7B
:1022100092959F708F703AE0939F800D1124809368
:10222000170385E594E00E94A902982F9F70925EA3
:1022300082958F706AE0869F900D11249093180309
:1022400089E027DA882309F471C080914F049091C6
:102250005004892B09F06AC04FEF6FEF812CE09199
:102260004D04F0914E048481881608F04BC0928191
:102270008381E92FF82FE80DF11DE80DF11DE080B5
:10228000F180D701ED91FC910480F581E02DC7012B
:102290004F83688719954F816885019789F1F70108
:1022A0005581852F90E020913204022E000C330BD3
:1022B000821793076CF08217930711F5E481F0E021
:1022C00020913104022E000C330BE217F307C4F403
:1022D000242F042E000C330B2817390774F08217B3
:1022E000930771F4D70114968C9190E0262F062E57
:1022F000000C330B281739071CF4F7016481452FB4
:102300008394ADCF6F3F91F06093310440933204DA
:1023100080912F04909130040E943507109333046C
:1023200080912F04909130040E9428078BE0B1D94E
:10233000882309F471C080914F0490915004892B37
:1023400009F06AC04DE76DE7812CE0914D04F091F2
:102350004E048481881608F04BC092818381E92F56
:10236000F82FE80DF11DE80DF11DE080F180D70197
:10237000ED91FC910480F581E02DC7014F836887C2
:1023800019954F816885019789F1F7015581852F4E
:1023900090E020913204022E000C330B28173907ED
:1023A0006CF08217930711F5E481F0E0209131047D
:1023B000022E000C330B2E173F07C4F4242F042EDB
:1023C000000C330B8217930774F08217930771F494
:1023D000D70114968C9190E0262F062E000C330B1B
:1023E000821793071CF4F7016481452F8394ADCFC6
:1023F0006D3791F0609331044093320480912F0443
:10240000909130040E9435071093330480912F047B
:10241000909130040E9428078CE03BD9882371F109
:10242000E0904F04F0905004E114F10439F1D70129
:102430001C962D913D914D915C911F9750966D91F9
:102440007D918D919C9153979BD2F701608B718BFD
:10245000828B938BF9D24AE0CE010196EFDABE016E
:102460006F5F7F4FC70106962CDAD70113961C9336
:10247000CE0101963BDAF70113833DDA8AE009D9F0
:10248000882371F1E0904F04F0905004E114F104BE
:1024900039F1D7011C962D913D914D915C911F977B
:1024A00050966D917D918D919C91539768D2F701D3
:1024B000608B718B828B938BC7D24AE0CE010196E1
:1024C000BDDABE016F5F7F4FC7010696FAD9D7010B
:1024D00013961C93CE01019609DAF70113830BDAE8
:1024E00087E0D7D88823E9F180914F049091500478
:1024F000892BB9F580912F04909130040E946207D6
:10250000E0914B04EF3FF9F480914C048F5F80938E
:102510004C042091360430E0082E000C990B28174B
:10252000390711F410924C04E0914C04EE0FFF0BAC
:102530008091340490913504E80FF91F80819181D6
:102540000E94ED090DC0EE0FFF0BE95CFB4F80818F
:1025500091810E94ED0980914B04815080934B043E
:10256000CAD988E096D8882309F474C0812CE091F8
:102570004D04F0914E048481881608F06BC092815E
:102580008381E92FF82FE80DF11DE80DF11DE080A2
:10259000F18020913104022E000C330BD7011496E8
:1025A0008C91149790E02817390709F051C02091B9
:1025B0003204022E000C330B15968C91159790E087
:1025C0002817390709F044C0ED91FC910480F5818A
:1025D000E02DC70119958230910509F183309105ED
:1025E00029F1892BA9F580912F04909130040E9444
:1025F0006207E0914B04EF5FE0934B04EE0FFF0B9B
:10260000E95CFB4F80914D0490914E04918380834F
:10261000F701848595850E94ED096DD91BC0D7010E
:102620001C96ED91FC911D97199512C0F0925004E3
:10263000E0924F04F7018489811102C0148B08C015
:10264000148A1283138357D91092500410924F04A6
:1026500083948DCFE0914D04F0914E0484818823C2
:1026600009F444C08581882309F440C080912E0379
:1026700081110CC00E94130560932A0370932B03F1
:1026800080932C0390932D0310932E030E94130527
:1026900020912A0330912B0340912C0350912D035C
:1026A000DC01CB01821B930BA40BB50B853F914042
:1026B000A105B105D8F00E94130560932A03709319
:1026C0002B0380932C0390932D032091330480914E
:1026D0002F0490913004211105C0109333040E94FF
:1026E000280704C0109233040E942F0780914F04E2
:1026F00090915004892BD9F18091220381110CC053
:102700000E94130560931E0370931F0380932003A0
:1027100090932103109322030E94130520911E031E
:1027200030911F034091200350912103DC01CB0124
:10273000821B930BA40BB50B893C9105A105B10538
:10274000B0F00E94130560931E0370931F038093E3
:10275000200390932103E0914F04F09150041383E0
:102760008281811102C0128301C01282C4D8C3D8F1
:102770000E940602A0CCCF92DF92EF92FF92E8E88F
:10278000F3E01382128288EEC82E83E0D82EE12C6B
:10279000F12CC482D582E682F7828CE392E09183A9
:1027A000808385EC90E09587848784EC90E0978720
:1027B000868780EC90E0918B808B81EC90E0938B0E
:1027C000828B82EC90E0958B848B86EC90E0978BEB
:1027D000868B118E128E138E148EE5E2F4E0128237
:1027E0001482138216821582108617821186EFE2F8
:1027F000F4E017828FEF848F858F1092540410922B
:10280000530410925204109251040E949A08E5E574
:10281000F4E013821282C482D582E682F7828CE4CD
:1028200092E091838083E1E6F4E0138212828CE5EA
:1028300092E09183808387E2848380E1818784E0D2
:1028400082871386FF90EF90DF90CF9008954532F6
:10285000510518F4423008F004C0FB011082CB018E
:102860000895BB274A3031F4992322F4BDE29095B4
:1028700081959F4F0BC04532510518F4423008F046
:1028800004C0FB011082CB010895BB27FB01552733
:10289000AA27880F991FAA1FA41710F0A41B8395BD
:1028A0005051B9F7A05DAA3308F0A95DA193009734
:1028B00079F7B111B1931192CB0100C0DC01FC0199
:1028C000672F71917723E1F7329704C07C916D9364
:1028D00070836291AE17BF07C8F3089597F99F6799
:1028E00080E870E060E008959FEF80EC0895002498
:1028F0000A941616170618060906089500240A9465
:1029000012161306140605060895092E0394000CEA
:1029100011F4882352F0BB0F40F4BF2B11F460FF79
:1029200004C06F5F7F4F8F4F9F4F089557FD9058A2
:10293000440F551F59F05F3F71F04795880F97FB83
:10294000991F61F09F3F79F087950895121613063D
:102950001406551FF2CF4695F1DF08C0161617066C
:102960001806991FF1CF86957105610508940895A1
:10297000E894BB2766277727CB0197F9089550582D
:10298000BB27AA270ED0C1CFB2DF30F0B7DF20F0CF
:1029900031F49F3F11F41EF4A7CF0EF4E095E7FB4E
:1029A0009DCFE92FC3DF80F3BA176207730784074F
:1029B000950718F071F49EF5DBCF0EF4E0950B2E21
:1029C000BA2FA02D0B01B90190010C01CA01A00181
:1029D0001124FF27591B99F0593F50F4503E68F1DC
:1029E0001A16F040A22F232F342F4427585FF3CF1D
:1029F000469537952795A795F0405395C9F77EF4EE
:102A00001F16BA0B620B730B840BBAF09150A1F036
:102A1000FF0FBB1F661F771F881FC2F70EC0BA0FBC
:102A2000621F731F841F48F4879577956795B79544
:102A3000F7959E3F08F0B3CF9395880F08F099273C
:102A4000EE0F97958795089504D06894B11191CFB2
:102A5000089574DF88F09F5790F0B92F9927B751E8
:102A6000A0F0D1F0660F771F881F991F1AF0BA9552
:102A7000C9F712C0B13081F07BDFB1E0089578CFA3
:102A8000672F782F8827B85F39F0B93FCCF3869548
:102A900077956795B395D9F73EF4909580957095A5
:102AA00061957F4F8F4F9F4F0895EE0FFF1F881F37
:102AB0008BBF0790F691E02D1994CF93DF9382306E
:102AC000910510F482E090E0E0916F04F0917004C1
:102AD00020E030E0C0E0D0E0309711F1408151813A
:102AE00048175907C0F04817590761F4828193814C
:102AF000209719F09B838A832BC090937004809356
:102B00006F0426C02115310519F04217530718F438
:102B10009A01BE01DF01EF010280F381E02DDCCFDD
:102B20002115310509F1281B390B2430310590F4AA
:102B300012968D919C9113976115710521F0FB01FF
:102B40009383828304C09093700480936F04FD018B
:102B5000329644C0FD01E20FF31F819391932250FE
:102B600031092D933C933AC020916D0430916E044D
:102B7000232B41F4209108023091090230936E0416
:102B800020936D0420910602309107022115310532
:102B900041F42DB73EB740910A0250910B02241B1D
:102BA000350BE0916D04F0916E04E217F307A0F489
:102BB0002E1B3F0B2817390778F0AC014E5F5F4F93
:102BC0002417350748F04E0F5F1F50936E04409353
:102BD0006D048193919302C0E0E0F0E0CF01DF91BA
:102BE000CF9108950F931F93CF93DF93009709F42C
:102BF0008CC0FC0132971382128200916F041091F5
:102C000070040115110581F420813181820F931F19
:102C100020916D0430916E042817390779F5F093EF
:102C20006E04E0936D0471C0D80140E050E0AE172F
:102C3000BF0750F412962D913C911397AD012115C9
:102C4000310509F1D901F3CF9D01DA0133832283E4
:102C500060817181860F971F8217930769F4EC01D9
:102C600028813981260F371F2E5F3F4F3183208304
:102C70008A819B8193838283452B29F4F09370048E
:102C8000E0936F0442C01396FC93EE931297ED010C
:102C9000499159919E01240F351FE217F30771F4F2
:102CA00080819181840F951F029611969C938E933B
:102CB0008281938113969C938E931297E0E0F0E0CB
:102CC000D80112968D919C911397009719F0F801F5
:102CD0008C01F6CF8D919C9198012E5F3F4F820F12
:102CE000931F20916D0430916E042817390769F401
:102CF000309729F41092700410926F0402C013826E
:102D0000128210936E0400936D04DF91CF911F9196
:102D10000F9108956F927F928F929F92AF92BF9280
:102D2000CF92DF92EF92FF920F931F93CF93DF9397
:102D3000EC01009781F4CB01DF91CF911F910F91AE
:102D4000FF90EF90DF90CF90BF90AF909F908F90CB
:102D50007F906F90B2CEFC01E60FF71F9C012250CE
:102D60003109E217F30708F4A8C0D9010D911C91AD
:102D7000119706171707A8F00530110508F49BC036
:102D8000C80104978617970708F495C002501109E7
:102D9000061B170B019311936D937C93CF0122DFD8
:102DA0008AC05B01A01AB10A4C01800E911EA0914D
:102DB0006F04B091700440E050E0E12CF12C1097CA
:102DC00009F44AC0A815B905D1F56D907C9011970A
:102DD000630182E0C80ED11CCA14DB0480F1A30198
:102DE0004A195B096A0182E0C80ED11C1296BC9098
:102DF00012971396AC91B5E0CB16D10440F0B28295
:102E0000A38351834083D9016D937C930AC00E5FE5
:102E10001F4FC301800F911FF90191838083EB2D18
:102E2000FA2FE114F10431F0D7011396FC93EE93DD
:102E3000129741C0F0937004E0936F043CC08D91F1
:102E40009C9111974817590708F4AC017D0112961F
:102E50000D90BC91A02DB3CF80916D0490916E0424
:102E600088159905E1F446175707C8F480910602C2
:102E700090910702009741F48DB79EB740910A02E6
:102E800050910B02841B950BE817F907B0F4F093EF
:102E90006E04E0936D04F901718360830CC0CB0173
:102EA0000CDE7C01009749F0A801BE011BD0CE01C9
:102EB00099DEC70104C0CE0102C080E090E0DF913E
:102EC000CF911F910F91FF90EF90DF90CF90BF9027
:102ED000AF909F908F907F906F90089581E090E0E9
:102EE000F89410C0FB01DC0102C001900D9241502A
:102EF0005040D8F70895FB01DC0101900D920020AD
:082F0000E1F70895F894FFCFFA
:102F080007090B0C0A08000071048000000040004B
:102F1800140054000000000024033B036602000074
:102F280000002C033203630200000000A406D2064E
:102F380000000000B408BA08000000009F018B0DD3
:102F4800690147015B01E50100000000F402C502C8
:102F5800BD02A9029A0299020000000003078B0D26
:102F68003A002F002F323000546F6461793A200004
:102F780032372F342F323031370032303A33333A48
:102F88003233004661726D426F7420436F6E747203
:0E2F98006F6C6C6572004E6F206D656E75007B
:00000001FF
