:10000000B0C10000DFC10000DDC10000DBC10000A5
:10001000D9C10000D7C10000D5C10000D3C1000084
:10002000D1C10000CFC10000CDC10000CBC1000094
:10003000C9C10000C7C10000C5C10000C3C10000A4
:10004000C1C10000BFC10000BDC10000BBC10000B4
:1000500011C50000B7C10000B5C10000C1C4000057
:10006000B1C10000FAC30000CFC30000ABC1000063
:10007000A9C10000A7C10000A5C10000A3C10000E4
:10008000A1C100009FC100009DC100009BC10000F4
:1000900092C3000067C3000095C100000C94BF1517
:1000A00091C100008FC100008DC100008BC1000014
:1000B00089C1000087C1000085C1000083C1000024
:1000C00081C100007FC100007DC100007BC1000034
:1000D00079C1000077C1000075C1000073C1000044
:1000E00071C1000071047404630467046D04AB04FF
:1000F00078047C04820486048A049004940498049E
:10010000AB049E04A204A6044E414E494E495459E4
:10011000494E46CDCCCC3D0AD7233C17B7D13877D2
:10012000CC2B329595E6241FB14F0A0000204100E8
:1001300000C84200401C4620BCBE4CCA1B0E5AAE32
:10014000C59D7400407A10F35A00A0724E18090041
:1001500010A5D4E80000E87648170000E40B54022C
:100160000000CA9A3B000000E1F505000080969867
:1001700000000040420F000000A0860100000010B7
:100180002700000000E803000000006400000000F9
:10019000000A00000000000100000000002C76D8DA
:1001A00088DC674F0823DFC1DFAE59E1B1B796E5C0
:1001B000E3E453C63AE651997696E8E6C28426EB24
:1001C000898C9B62ED407C6FFCEFBC9C9F40F2BA37
:1001D000A56FA5F490055A2AF75C936B6CF9676DCF
:1001E000C11BFCE0E40D47FEF520E6B500D0ED9024
:1001F0002E0300943577050080841E080000204EF1
:100200000A000000C80C333333330F986E12831189
:1002100041EF8D2114893BE65516CFFEE6DB18D160
:10022000844B381BF77C1D901DA4BBE42420328432
:10023000725E228100C9F124ECA1E53D2700002176
:1002400000240027002A002D0030003300010100A7
:1002500000040107010A01000020002300260029F4
:10026000002C002F003200000100000301060109EC
:100270000100002200250028002B002E0031003450
:100280000002010000050108010B01050505050735
:100290000508080808020202020A0A080804040401
:1002A000040101010101010101030303030303032D
:1002B00003040707070C0C0C0C0C0C0C0C020202BC
:1002C0000206060606060606060B0B0B0B0B0B0BAF
:1002D0000B0102102020080810204010204080024E
:1002E000010201080402010102040810204080807C
:1002F0004020100804020180040201804020100800
:1003000004020108040201010204081020408001D7
:100310000204081020408000000A0B02090C0D0E98
:1003200008070304010000000000000000000000B6
:1003300000000000000000000000000000000000BD
:10034000000000121110000000000000000000007A
:1003500000000000000000000000000000006E200F
:10036000152111241FBECFEFD1E2DEBFCDBF00E0CB
:100370000CBF26E0ACEFB2E001C01D92A23AB2077A
:10038000E1F712E0A0E0B2E0E0E7F4E500E00BBF47
:1003900002C007900D92AC3FB107D9F711E0C0EB56
:1003A000D1E000E006C021970109802FFE010E94E4
:1003B000DD27CF3AD10780E00807A9F70E9472171E
:1003C0000C94272A1DCEFC01A089B1898C91A689A5
:1003D000B78982FD0FC09C91818D8F5F8F73228DB5
:1003E000821749F0218DDF01A20FB11D5D969C930C
:1003F000818F08958C910895FC01918D828D9817BD
:1004000061F0828DDF01A80FB11D5D968C91928DF8
:100410009F5F9F73928F90E008958FEF9FEF0895F5
:10042000FC01918D828D981731F0828DE80FF11DBE
:10043000858D90E008958FEF9FEF0895FC01918DD9
:10044000228D892F90E0805C9F4F821B91098F73D2
:10045000992708958CE694E0F1DF21E0892B09F4D7
:1004600020E0822F089587E195E0E8DF21E0892BE5
:1004700009F420E0822F0895FC01848DDF01A80F8C
:10048000B11DA35ABF4F2C91848D90E001968F73BC
:100490009927848FA689B7892C93A089B1898C91DB
:1004A00080648C93938D848D981306C00288F389A1
:1004B000E02D80818F7D80830895EF92FF920F93CE
:1004C0001F93CF93DF93EC0181E0888F9B8D8C8D00
:1004D000981305C0E889F989808185FD23C0F62E2F
:1004E0000B8D10E00F5F1F4F0F731127E02E8C8DC7
:1004F000E8120BC00FB607FCFACFE889F9898081B2
:1005000085FFF5CFCE01B8DFF2CF8B8DFE01E80F6E
:10051000F11DE35AFF4FF0820B8FEA89FB8980813E
:10052000806207C0EE89FF896083E889F98980814C
:100530008064808381E090E0DF91CF911F910F91E3
:10054000FF90EF900895CF93DF93EC01888D88237F
:10055000C1F0EA89FB89808185FD05C0A889B98938
:100560008C9186FD0EC00FB607FCF5CF808185FF0C
:10057000F2CFA889B9898C9185FFEDCFCE017CDFC0
:10058000E8CFDF91CF91089580E090E0892B19F0BA
:100590006ADF811120C080E090E0892B19F05ADFDA
:1005A00081111CC080E090E0892B41F080E090E058
:1005B000892B21F00E940000811113C080E090E09F
:1005C000892BA1F080E090E0892B81F00E9400004F
:1005D00081110AC008950E940000DDCF0E94000032
:1005E000E1CF0E940000EACF0C94000008953FB7CD
:1005F000F8948091770390917803A0917903B0915A
:100600007A0326B5A89B05C02F3F19F00196A11DBE
:10061000B11D3FBFBA2FA92F982F8827820F911D98
:10062000A11DB11DBC01CD0142E0660F771F881FDF
:10063000991F4A95D1F7089582E090E0089583E0EC
:1006400090E0089581E090E0089580E090E00895C2
:1006500008950E940A2A0F931F93CF938C0180E183
:1006600092E0D8018D939C93C0E0F80184810280D0
:10067000F381E02DC81788F4EC0FF11DEC0FF11D8C
:1006800080819181009739F0DC01ED91FC9102802D
:10069000F381E02D1995CF5FE8CF309731F0CF018E
:1006A000CF911F910F910C948E28CF911F910F9194
:1006B0000895CF93DF93EC01CEDFCE01DF91CF9190
:1006C0000C948E2826E432E0FC01318320830C94C4
:1006D0005F11CF93DF93EC01F5DFCE01DF91CF9176
:1006E0000C948E282CE332E0FC01318320830C949F
:1006F0005F11CF93DF93EC01F5DFCE01DF91CF9156
:100700000C948E2822E332E0FC01318320830C9488
:100710005F11CF93DF93EC01F5DFCE01DF91CF9135
:100720000C948E28CF93DF93EC0188E292E09983BA
:1007300088838A899B89009739F0DC01ED91FC91CF
:100740000280F381E02D1995CE01DF91CF910C94B9
:100750005F11CF93DF93EC01E5DFCE01DF91CF9105
:100760000C948E281F920F920FB60F9211240BB685
:100770000F922F933F934F935F936F937F938F933A
:100780009F93AF93BF93EF93FF938CE694E074DE57
:10079000FF91EF91BF91AF919F918F917F916F9159
:1007A0005F914F913F912F910F900BBE0F900FBE15
:1007B0000F901F9018951F920F920FB60F92112451
:1007C0000BB60F922F933F934F935F936F937F934B
:1007D0008F939F93AF93BF93EF93FF938CE694E037
:1007E000F2DDFF91EF91BF91AF919F918F917F913A
:1007F0006F915F914F913F912F910F900BBE0F9092
:100800000FBE0F901F9018951F920F920FB60F9268
:1008100011240BB60F922F933F934F935F936F93D7
:100820007F938F939F93AF93BF93EF93FF9387E152
:1008300095E022DEFF91EF91BF91AF919F918F9153
:100840007F916F915F914F913F912F910F900BBED0
:100850000F900FBE0F901F9018951F920F920FB61A
:100860000F9211240BB60F922F933F934F935F93E8
:100870006F937F938F939F93AF93BF93EF93FF9368
:1008800087E195E0A0DDFF91EF91BF91AF919F913E
:100890008F917F916F915F914F913F912F910F9029
:1008A0000BBE0F900FBE0F901F90189590E0FC01AB
:1008B0003197E231F10508F04EC08827EE58FF4F1E
:1008C0008F4F0C94DD27809180008F7703C080913B
:1008D00080008F7D80938000089580918000877FC5
:1008E000F9CF84B58F7702C084B58F7D84BD08951C
:1008F0008091B0008F7703C08091B0008F7D80938E
:10090000B0000895809190008F7707C0809190008B
:100910008F7D03C080919000877F80939000089521
:100920008091A0008F7707C08091A0008F7D03C0C9
:100930008091A000877F8093A0000895809120017E
:100940008F7707C0809120018F7D03C080912001A7
:10095000877F8093200108958F929F92AF92BF92DC
:10096000CF92DF92EF92FF926B017C0140DE4B0150
:100970005C01C114D104E104F104E9F038DEDC01CA
:10098000CB0188199909AA09BB09883E9340A105A2
:10099000B10578F321E0C21AD108E108F10888EE28
:1009A000880E83E0981EA11CB11CC114D104E1047F
:1009B000F10421F7DECFFF90EF90DF90CF90BF9052
:1009C000AF909F908F9008952FB7F8946091730324
:1009D0007091740380917503909176032FBF0895F1
:1009E0001F920F920FB60F9211242F933F938F9364
:1009F0009F93AF93BF938091730390917403A091E1
:100A00007503B09176033091720323E0230F2D37E5
:100A100020F40196A11DB11D05C026E8230F029602
:100A2000A11DB11D209372038093730390937403EF
:100A3000A0937503B0937603809177039091780328
:100A4000A0917903B0917A030196A11DB11D809305
:100A5000770390937803A0937903B0937A03BF91BF
:100A6000AF919F918F913F912F910F900FBE0F905B
:100A70001F9018951F920F920FB60F9211240BB66C
:100A80000F922F933F934F935F936F937F938F9327
:100A90009F93AF93BF93CF93DF93EF93FF9386E042
:100AA0009FEF90938500809384008091CF038823EB
:100AB00009F470C08091D2039091D3030196909372
:100AC000D3038093D2032091D4033091D5038217AE
:100AD000930708F45FC01092D3031092D203809161
:100AE000D603E091CD03F091CE0327E0829FE00D85
:100AF000F11D11248681882321F00190F081E02DE1
:100B000019956091CF03A091D403B091D503E091E2
:100B1000CD03F091CE0320E0CF01261749F04481A8
:100B200055814A1B5B0B558344832F5F3796F5CF66
:100B30002091D603FC0137E0239FE00DF11D112425
:100B400022813381358324831092D603FC0121E076
:100B50003091D603261790F4EC0147E0349FC00D86
:100B6000D11D1124A385B4854C815D81A417B507DF
:100B700010F42093D6032F5F3796EACFFC0127E0CD
:100B8000329FE00DF11D1124848195819093D5034E
:100B90008093D403FF91EF91DF91CF91BF91AF91FB
:100BA0009F918F917F916F915F914F913F912F9185
:100BB0000F900BBE0F900FBE0F901F9018959F9235
:100BC000AF92BF92CF92DF92EF92FF920F931F935B
:100BD000CF93DF93CDB7DEB72C970FB6F894DEBF77
:100BE0000FBECDBF8C016C0188E0C80ED11CD801AE
:100BF0008D919C91DC01ED91FC910480F581E02DBB
:100C00001995892B51F1D8018D919C91DC01ED91C1
:100C1000FC910680F781E02D1995F82EF80182816C
:100C20009381009741F0DC01ED91FC910190F081FE
:100C3000E02D6F2D1995BAE0FB1204C081E0F80198
:100C400087830BC0F9821A8241E050E0BE016F5FDA
:100C50007F4FC6010E94880ECACFF801A780AA2044
:100C600009F4A0C065EE72E0CE0107960E944F170E
:100C7000B12CC80108966C01D80116968C91B81653
:100C800008F085C09AE0B99E70011124D80114962D
:100C9000ED91FC911597EE0DFF1D2481358140E00B
:100CA00050E0B601CE0101960E94110FD8011496B2
:100CB000ED91FC911597EE0DFF1D248135818D81FD
:100CC0009E812817390739F58081918169817A8160
:100CD000009719F061157105C1F46115710561F096
:100CE0002115310549F0FB018081282F30E088274C
:100CF0009927821B930B0BC0009779F0232B69F087
:100D0000DC019C91892F90E002C00E94172A99244F
:100D10009394892B19F0912C01C09A2CCE01019645
:100D20000E946B0F992089F1D8011496ED91FC91E6
:100D30001597EE0DFF1DE084F184E114F10409F133
:100D40001C962D913C911D97448155814F5F5F4FBB
:100D5000B601CE0101960E94110F89819A810097F8
:100D600019F00E943C2103C060E070E0CB01F70164
:100D70006083718382839383CE0101960E946B0FFF
:100D800004C00680F781E02D1995B39475CF65E80E
:100D900072E0C6010E94FC0EF8011782CE01079690
:100DA0000E946B0F2C960FB6F894DEBF0FBECDBF1E
:100DB000DF91CF911F910F91FF90EF90DF90CF9037
:100DC000BF90AF909F9008950F931F93CF93DF93A1
:100DD0008C01FC01C481D5812097D9F0FE013297A6
:100DE000808191814AE0489F9001499F300D1124F4
:100DF000C20FD31FCE01F801248135812A978217B3
:100E0000930721F0CE010E946B0FF4CF02970E944E
:100E10008E28C8010896DF91CF911F910F910C94F5
:100E20006B0FAF92BF92CF92DF92EF92FF920F9330
:100E30001F93CF93DF9300D000D0CDB7DEB78C01E6
:100E40006B015A01FC011382128216827C01F8E0C8
:100E5000EF0EF11C65E872E0C7010E944F17F80120
:100E6000D182C082A50160E070E0C60155D364E67E
:100E700070E0C70126D765E872E0CE0101960E94B6
:100E80004F17F801168215821482CE0101960E9436
:100E90006B0F26960FB6F894DEBF0FBECDBFDF9165
:100EA000CF911F910F91FF90EF90DF90CF90BF9067
:100EB000AF900895FC01248131E03093AB0320937F
:100EC000CC031092FA031092F9038385682B8DEFFF
:100ED00093E00E94311181E0EDC30F931F93CF93F4
:100EE0008C01C62FE7DF6C2F6460C801E3DF6C2F35
:100EF0006B7FC801DFDF83EC90E00197F1F7CF91C2
:100F00001F910F9108950F931F93CF938C01C62FBC
:100F1000607F6160E2DF80E1C89FB0011124616001
:100F2000C801DBDF81E090E0CF911F910F91089520
:100F30000F931F93CF938C01C62F607FCEDF80E18C
:100F4000C89FB0011124C801CF911F910F91C5CF47
:100F5000FC016681262F226026836A60E9CFCF9349
:100F6000DF93CDB7DEB728970FB6F894DEBF0FBE7C
:100F7000CDBF9C0188E0ECE1F2E0DE01119601902A
:100F80000D928A95E1F7F9018085841710F44FEFEF
:100F9000480FFE013196E40FF11DE40FF11D908121
:100FA000690F6068C90128960FB6F894DEBF0FBEBE
:100FB000CDBFDF91CF91BCCF61E0BADF8BE39FE182
:100FC0000197F1F70895CF92DF92EF92FF920F937E
:100FD000CF93DF93CDB7DEB727970FB6F894DEBF78
:100FE0000FBECDBF7C016B01BA01CE0101962F83EC
:100FF0000E9447172F81AE014F5F5F4FB601C701B7
:101000000E943D15CE01019666D782E392E0F7017A
:1010100091838083138A128A27960FB6F894DEBFD5
:101020000FBECDBFDF91CF910F91FF90EF90DF907A
:10103000CF900895AF92BF92DF92EF92FF920F93FD
:101040001F93CF93DF93CDB7DEB72C970FB6F894ED
:10105000DEBF0FBECDBF8C015B0165E872E0CE0143
:1010600001960E944F17F801278D30A141A152A18E
:10107000638D748D858D968D0E94A42718167CF142
:101080007801F6E0EF0EF11CB701C8010C960ED7FF
:10109000BE016F5F7F4FCE0107960E944717B501D3
:1010A000CE01079679D6BC01C70100D7CE010796BD
:1010B00012D781E0F8018383CE0101960CD72C96DC
:1010C0000FB6F894DEBF0FBECDBFDF91CF911F9159
:1010D0000F91FF90EF90DF90BF90AF900895D12CCB
:1010E000F801638D748D858D968D0E9473274AE07B
:1010F000CE010796D2D7EB84FC84F50184819581DB
:10110000E81AF90ACE010796E6D68D2D90E08E15E5
:101110009F0508F0B5CFBE016F5F7F4FCE010796E8
:101120000E9447176DE872E0CE0107961ED6BC01FB
:10113000CE010196BBD6CE010796CDD6D394D0CFA3
:101140004F925F926F927F928F929F92AF92BF92D7
:10115000CF92DF92EF920F93CF93DF93CDB7DEB7AD
:101160002B970FB6F894DEBF0FBECDBF6C013B01CD
:1011700049015A01202F0E2D65E872E0CE0101963B
:101180002B870E944F172B85AE014F5F5F4FB30136
:10119000C6010E943D15CE0101969DD68CE392E0DA
:1011A000F60191838083138E148E158E168E178E02
:1011B00010A211A212A2C501B4010E9473276F836D
:1011C000788789879A872F813885B901330F880BF3
:1011D000990B0E9477259B01AC01C501B4010E94C7
:1011E000A62620E030E0A9010E947125811105C0EA
:1011F00080E090E0A0E8BFE31AC02AE037ED43E2C8
:101200005CE3C501B4010E940B270E947327CB0148
:101210006AE070E00E94A827811105C08DEC9CEC6B
:10122000ACECBDE304C08AE097EDA3E2BCE3F601B9
:10123000828B938BA48BB58BF601868A978AA08EBE
:10124000B18E4288538864887588C301B2010E94B8
:101250007327072E000C880B990B0E9477259B01A2
:10126000AC01C301B2010E94A62620E030E0A90132
:101270000E947125811107C04AE06F817885CE01F7
:1012800001960BD706C022E0B501A401CE0101965C
:10129000D5D6BE016F5F7F4FC601CCDECE01019671
:1012A0001AD6F601128E2B960FB6F894DEBF0FBE3B
:1012B000CDBFDF91CF910F91EF90DF90CF90BF9096
:1012C000AF909F908F907F906F905F904F90089518
:1012D000CF92DF92EF92FF920F93CF93DF93CDB730
:1012E000DEB727970FB6F894DEBF0FBECDBF7C01E7
:1012F0006B01BA01CE0101962F830E9447172F81FF
:10130000AE014F5F5F4FB601C7010E943D15CE0190
:101310000196E1D586E492E0F701918380832796D8
:101320000FB6F894DEBF0FBECDBFDF91CF910F9106
:10133000FF90EF90DF90CF900895CF92DF92EF92E1
:10134000FF920F93CF93DF93CDB7DEB727970FB6FA
:10135000F894DEBF0FBECDBF7C016B01BA01CE0198
:1013600001962F830E9447172F81AE014F5F5F4F79
:10137000B601C7010E943D15CE010196ACD588E2A9
:1013800092E0D7018D939C9386E090E00E94F9272C
:10139000FC0186E0DF011D928A95E9F7148215822F
:1013A00088E192E091838083D7015396FC93EE937A
:1013B000529727960FB6F894DEBF0FBECDBFDF91D0
:1013C000CF910F91FF90EF90DF90CF900895AF9263
:1013D000BF92CF92DF92EF92FF920F931F93CF9322
:1013E000DF93EC019C8120E030E0EE24EA94FE2CB7
:1013F000291780F4EA81FB81A901440F551FE40FEE
:10140000F51F408151814617570709F479012F5F75
:101410003F4FEECF8FEFE816F80609F446C0992348
:1014200011F091509C838B01CC80D12CC601880F88
:10143000991F0E94F9275C0150E040E0252F30E021
:10144000C216D306ACF02E153F0581F0220F331FD4
:10145000EA81FB81E20FF31F80819181F501E40FA6
:10146000F11DE40FF11D918380834F5F5F5FE6CF35
:101470008A819B81009711F00E948E28AA82BB82EC
:101480000115110591F0D801ED91FC910280F381D5
:10149000E02DC801DF91CF911F910F91FF90EF9048
:1014A000DF90CF90BF90AF901994DF91CF911F91B3
:1014B0000F91FF90EF90DF90CF90BF90AF90089585
:1014C000EF92FF920F931F93CF93DF93EC017B0179
:1014D0008C010A5F1F4FB8010C96E8D4B701C80110
:1014E000E5D481E08B83DF91CF911F910F91FF9025
:1014F000EF900895CF93DF93EC0188819981009755
:1015000011F00E948E28198218821D821C821B8273
:101510001A82DF91CF910895CF92DF92EF92FF92DE
:101520000F931F93CF93DF93EC016A017B01E8894E
:10153000F98982E080834115514E61057105B1F052
:1015400060E079E08DE390E0A70196010E94BB275F
:1015500089019A0101501109210931093695279510
:1015600017950795980101151041A8F0E889F989A8
:10157000108260E874E88EE190E0A70196010E9475
:10158000BB27DA01C9010197A109B109B695A79551
:10159000979587959C01EC85FD853083EE85FF85C9
:1015A0002083188EEC89FD8986E08083EA89FB8997
:1015B000808180618083EA89FB8980818860808363
:1015C000EA89FB89808180688083EA89FB89808140
:1015D0008F7D8083DF91CF911F910F91FF90EF90CE
:1015E000DF90CF900895EF92FF920F931F93CF93C8
:1015F000DF938C019091CF0381E0890F8093CF031B
:10160000E82EF12C27E0829FC00111240E94F927C7
:10161000EC01FC01A70181E0E114F10461F0118209
:10162000108213821282158214828683379661E0BB
:10163000E61AF108F1CF90E04150510987E0292FD7
:1016400030E0E091CD03F091CE032417350784F408
:1016500067E0969F90011124DE01A20FB31FE20FF5
:10166000F31F282F01900D922A95E1F79F5FE7CF96
:10167000309719F0CF010E948E28D093CE03C093EB
:10168000CD038091CF0397E0899FC00DD11D112418
:1016900027971983088388EE93E09B838A831D82B2
:1016A0001C8281E08E83DF91CF911F910F91FF907B
:1016B000EF900895382F2091F9039091CC032132B7
:1016C00008F049C08091AA038111FCCF42E0409309
:1016D000AA033093A9033FEF3093A8031092A70306
:1016E0002093A603ACEAB3E046E853E0FA013E2FAC
:1016F000341B321718F43D913193F9CF10928503C2
:1017000020918503990F922B9093850390918403E8
:10171000913061F410928403909185039093BB0003
:101720009091BC0093FDF8CF95EC01C095EE90939D
:10173000BC009091AA039230E1F39091A8039F3FDF
:1017400079F08091A803803241F08091A803803322
:1017500031F084E005C081E003C082E001C083E095
:101760001092FA031092F9031092AB030895FF92BE
:101770000F931F93CF93DF939093F6038093F5031A
:10178000C0E0D1E0E091F503F091F6038481C81741
:10179000D0F492818381E92FF82FEC0FF11DEC0F2B
:1017A000F11D80819181DC01ED91FC910480F58136
:1017B000E02D1995019729F0E091F503F091F603DA
:1017C000D583CF5FDFCF8091F3038F3F41F024813A
:1017D0008091D7039091D803211118C01AC020918D
:1017E000DE03A091DC03B091DD0380E090E082177E
:1017F00051F04D915D914E175F0719F48093F403FA
:1018000091E08F5FF4CF9111E2CF6FC0258121115C
:101810000FC01092DB03FC0166816D7F66836860F8
:1018200087DBA091F503B091F60380E021E046C08C
:1018300021E02093DB038CDBD4E684E6F82EC0E0C5
:10184000E091F503F091F6038481C81790F5928139
:101850008381E92FF82FEC0FF11DEC0FF11D0081B2
:101860001181D801ED91FC910480F581E02DC80132
:1018700019950197E1F0F8012581422F50E08D2F55
:101880000D2E000C990B4817590751F4848190E0F4
:101890004F2D0F2C000C550B8417950724F007C013
:1018A0004817590724F4D8011496FC90D22FCF5F23
:1018B000C7CFF092D903D093DA03B3CF14969C919B
:1018C0001497891790F412963C91129713969C9155
:1018D0001397E32FF92FE80FF11DE80FF11D019089
:1018E000F081E02D23838F5FE9CFDF91CF911F91AE
:1018F0000F91FF900895EF92FF920F931F93CF9354
:10190000DF937C010091DE030F5F0093DE0310E0A4
:10191000C801880F991F0E94F927EC018091DC0310
:101920009091DD0340E001501109242F30E0201791
:10193000310774F4220F331FFC01E20FF31F6081A3
:101940007181FE01E20FF31F718360834F5FEDCF62
:10195000009711F00E948E28D093DD03C093DC0322
:101960008091DE039E01280F311D280F311DF901E2
:101970003297F182E082DF91CF911F910F91FF901A
:10198000EF900895CF93DF93282F30E0F901E95EBF
:10199000FC4F8491F901EF52FD4FD491F901E557C5
:1019A000FD4FC491CC2389F081110E945604EC2F85
:1019B000F0E0EE0FFF1FEF58FD4FA591B4918FB7E8
:1019C000F894EC91ED2BEC938FBFDF91CF910895BC
:1019D0000F931F93CF93DF938C0180E694E0909355
:1019E000D8038093D70381E08093DB038FEF80934C
:1019F000D9038093DA031092FC031092FB03109238
:101A0000FA031092F9030E94F01610926504809177
:101A10006A04823018F098E090936504809368041B
:101A200062E370E080E090E00E94AC0460916B049F
:101A300080E694E03FDA68EE73E080E090E00E9498
:101A4000AC0460E380E694E048DACBE4D6E4CE016F
:101A50000197F1F760E380E694E03FDA2197F1F730
:101A600060E380E694E039DA83E592E00197F1F7EC
:101A700060E280E694E031DA90916504692F60625B
:101A800080E694E055DA84E0809366046CE080E6BA
:101A900094E04EDA80E694E08FDA82E08093670487
:101AA00066E080E694E044DA62E080E694E040DAC2
:101AB000EBE3FFE13197F1F7E091D703F091D80321
:101AC00088E0838760E0CF01F5D98091D7039091BA
:101AD000D8033EDA40E060E08091D7039091D803CC
:101AE0003EDAB8018091D7039091D8030E94641721
:101AF00068EE73E080E090E00E94AC048091D70330
:101B00009091D80359DA8FEF8093F403DF91CF914E
:101B10001F910F9108958F929F92AF92BF92EF9273
:101B2000FF920F931F93CF93DF9390917B032091AC
:101B30007C0330917D0300E0091709F467C02D5F35
:101B40003F4FF90133974081481711F00F5FF4CFF1
:101B5000282F30E0F901E95EFC4F8491F901EF5242
:101B6000FD4FD491F901E557FD4FC49110E0CC230E
:101B700079F081110E945604EC2FF0E0EE0FFF1F68
:101B8000E95AFD4FA591B491EC91ED2309F067C09E
:101B90000E94E4047801EE0CFF1CEE0CFF1CE091A7
:101BA0008003F09181039801220F331FE20FF31F8E
:101BB000A0917E03B0917F03AE0DBF1D8D909D90CF
:101BC000AD90BC909B01AC01281939094A095B0909
:101BD00049015A014081518160E070E080918203A7
:101BE00090918303481559056A057B0548F421E067
:101BF000DC01A00FB11F2C9324E630E03183208359
:101C0000FC01E00FF11FC081C11102C0C0E04DC056
:101C10000E94E40420917E0330917F03E20EF31EC4
:101C2000F70180809180A280B380DC01CB0188190C
:101C30009909AA09BB094497A105B10538F30E9487
:101C4000E404F7016083718382839383809182032C
:101C500090918303FC01E00FF11F108226C0C801A0
:101C6000880F991F880F991FC0917E03D0917F0321
:101C7000C80FD91F0E94E404688379838A839B83F9
:101C8000E0918203F0918303E00FF11F81E08083F4
:101C9000000F111FE0918003F0918103E00FF11F0D
:101CA00088EE93E091838083B1CF8C2FDF91CF9129
:101CB0001F910F91FF90EF90BF90AF909F908F90EA
:101CC00008950F931F93CF93DF93EC01888199813F
:101CD000009729F02A813B812617370788F48B016A
:101CE0006F5F7F4F0E942629009761F09983888358
:101CF0001B830A832C813D81232B11F4FC0110826C
:101D000081E001C080E0DF91CF911F910F91089594
:101D1000EF92FF920F931F93CF93DF93FC012481E7
:101D200035816115710511F480E018C04115510528
:101D3000A1F07B01EC018A01020F131FB801C1DF82
:101D4000882391F3288139818C819D81B701820F8D
:101D5000931F0E94202A1D830C8381E0DF91CF9185
:101D60001F910F91FF90EF900895CF93DF93EC01B7
:101D70006115710559F0FB0101900020E9F73197D9
:101D8000AF01461B570BC4DF811102C0CE01B2DB8D
:101D9000CE01DF91CF910895CF93DF93EC01FB014A
:101DA0004481558160817181B3DF811102C0CE0110
:101DB000A1DBCE01DF91CF910895EF92FF920F93B7
:101DC0001F93CF93DF93EC017B018A01BA0179DF86
:101DD000811103C0CE018EDB07C01D830C83B701C8
:101DE000888199810E94202ACE01DF91CF911F9195
:101DF0000F91FF90EF900895CF93DF93EC01611561
:101E0000710551F0FB0101900020E9F73197AF0116
:101E1000461B570BD2DF01C06DDBCE01DF91CF91A6
:101E20000895BF92CF92DF92EF92FF920F931F938C
:101E3000CF93DF937C016B018A01E90124173507F9
:101E400020F4812F8901C42FD82F65E872E0C701E3
:101E50000E944F17D60114968D919C9115970817E3
:101E60001907C8F48C179D0708F4EC01D601ED9111
:101E7000FC911197EC0FFD1FB08010824D915C9189
:101E8000BA01600F711FC701B7DFD601ED91FC9158
:101E9000EC0FFD1FB082C701DF91CF911F910F9111
:101EA000FF90EF90DF90CF90BF900895CF93DF9396
:101EB000EC01FB018617970751F060817181611574
:101EC000710521F04481558178DF01C013DBCE011B
:101ED000DF91CF910895FC01808191810C948E282F
:101EE000EF92FF920F931F93CF93DF93CDB7DEB79F
:101EF0002C970FB6F894DEBF0FBECDBF7C0165E80E
:101F000072E0CE010796CBD7F701208931892115E0
:101F1000310511F4128501C0122F00E00117A1F064
:101F2000BE01695F7F4FCE010196B1D764E872E0D0
:101F3000CE0101961ADFBC01CE010796B7DFCE01B4
:101F40000196C9DF0F5FEACFF70145816481809177
:101F5000D7039091D80303D8BE01695F7F4F80916A
:101F6000D7039091D803B0D7CE010796B4DF2C9653
:101F70000FB6F894DEBF0FBECDBFDF91CF911F919A
:101F80000F91FF90EF9008951F93CF93DF9380916F
:101F9000F4038F3F79F48091D7039091D803DC014B
:101FA000ED91FC910280F381E02D47E050E06BEE73
:101FB00072E0199510E0E091F503F091F603848149
:101FC000181778F592818381E92FF82FE10FF11D21
:101FD000E10FF11DC081D1818B81882301F18A81BC
:101FE000811103C0CE017CDF19C0288939898A8517
:101FF0009B858217930710F4CE0172DF4D816C81AF
:102000008091D7039091D8030E94AF07BE016A5F09
:102010007F4F8091D7039091D80356D71B821F5FC3
:10202000CACF4091DA036091D9038091D703909190
:10203000D803DF91CF911F910C94AF07EF92FF92DD
:102040000F931F93CF93DF93CDB7DEB7A1970FB652
:10205000F894DEBF0FBECDBF7C01CB01BA01F70102
:1020600011821082138212821582148242E0420F82
:102070008E010F5F1F4F0E941D21BC01C701BCDEF6
:10208000A1960FB6F894DEBF0FBECDBFDF91CF9102
:102090001F910F91FF90EF9008950F931F93CF938F
:1020A000DF93CDB7DEB762970FB6F894DEBF0FBEF1
:1020B000CDBF8C01CB01F8011182108213821282F4
:1020C0001582148250E0BE016F5F7F4F0E943F2156
:1020D000BE016F5F7F4FC8018FDE62960FB6F89426
:1020E000DEBF0FBECDBFDF91CF911F910F9108953D
:1020F0000F931F93CF93DF93CDB7DEB729970FB61A
:10210000F894DEBF0FBECDBF8C01862FF80111827F
:102110001082138212821582148250E0BE016F5F1A
:102120007F4F90E00E945321BE016F5F7F4FC80137
:1021300063DE29960FB6F894DEBF0FBECDBFDF91E8
:10214000CF911F910F91089585ED8093BC008091F0
:10215000BC0084FDFCCF1092AA030895409177063D
:10216000262F30E0240F311D21323105DCF420917F
:10217000AA032430C9F4FC0180E090E0861758F4EB
:10218000309177062191DC01AB5AB94FA30FB11DF5
:102190002C930196F3CF80917706680F60937706B2
:1021A00080E0089581E0089582E008950895E09127
:1021B000FC038091FB03E81730F4F0E0EA5FFC4F8A
:1021C000808190E008958FEF9FEF08959091FC0338
:1021D0008091FB03981750F4E92FF0E0EA5FFC4F81
:1021E000208130E09F5F9093FC0302C02FEF3FEF10
:1021F000C90108958091FB0390E02091FC03821BAC
:1022000091090895CF92DF92EF92FF920F931F935F
:10221000CF93DF937C01262F972F8A018091AB0308
:10222000882391F0C62FD72F6E01C40ED51ECC1572
:10223000DD0569F06991D701ED91FC910190F08184
:10224000E02DC7011995F3CF642F822F87DFC801D6
:10225000DF91CF911F910F91FF90EF90DF90CF9082
:102260000895CF93DF931F92CDB7DEB76983209196
:10227000AB032223D1F02091F903203240F021E07A
:1022800030E0FC013383228380E090E014C0809131
:10229000FA03E82FF0E0E455FC4F998190838F5FBB
:1022A0008093FA038093F90304C061E0CE010196A4
:1022B00055DF81E090E00F90DF91CF910895CF93AB
:1022C000DF93EC0188E792E099838883CE010C9636
:1022D00002DECE010696DF91CF91FDCDCF93DF9345
:1022E000EC01EDDFCE01DF91CF910C948E28CF93DE
:1022F000DF93CDB7DEB7A4970FB6F894DEBF0FBE5D
:10230000CDBF4AE060912A03CE010D96F1DE4AE08E
:1023100060912B03CE010796EBDE60912C0370E0F9
:102320006F3171051CF06E51710906C08EE190E0AD
:102330009C01261B370BB9014AE0CE014F96ADDE5A
:1023400063EF72E0CE014396AAD5BE016D5E7F4F6A
:10235000CE0149969CD5BE01615E7F4FCE01499664
:102360001BDDBC01CE01019692D5CE014996B3DDAD
:10237000CE014396B0DDCE014F96ADDD89899A89B5
:102380000197D9F46DE872E0CE01439688D5BE017D
:102390006D5E7F4FCE0149967AD5BE01635F7F4F58
:1023A000CE014996F9DCBC01CE010D967FDDCE0150
:1023B000499691DDCE0143968EDD8B859C850197F4
:1023C000D9F46DE872E0CE01439669D5BE016D5E29
:1023D0007F4FCE0149965BD5BE01695F7F4FCE012D
:1023E0004996DADCBC01CE01079660DDCE01499644
:1023F00072DDCE0143966FDDBE01635F7F4FCE017C
:10240000439645D566EF72E0CE014396AEDCBE0141
:10241000695F7F4FC1DC66EF72E0A7DCBE016F5FD2
:102420007F4FBADCBC01CE01499631D5BE01675E53
:102430007F4F809104039091050342D8CE014996C5
:102440004ADDCE01439647DDCE01019644DDCE0143
:10245000079641DDCE010D963EDDA4960FB6F894A9
:10246000DEBF0FBECDBFDF91CF910895CF93DF9335
:10247000CDB7DEB76E970FB6F894DEBF0FBECDBFF7
:102480004AE060912803CE010D9632DE4AE0609169
:102490002703CE0107962CDE4AE060912603CE0189
:1024A000019626DE89899A890197D9F46DE872E050
:1024B000CE014396F4D4BE016D5E7F4FCE014996A6
:1024C000E6D4BE01635F7F4FCE01499665DCBC0157
:1024D000CE010D96EBDCCE014996FDDCCE01439694
:1024E000FADC8B859C850197D9F46DE872E0CE010A
:1024F0004396D5D4BE016D5E7F4FCE014996C7D4B9
:10250000BE01695F7F4FCE01499646DCBC01CE011A
:102510000796CCDCCE014996DEDCCE014396DBDCAF
:102520008D819E810197D9F46DE872E0CE014396CA
:10253000B6D4BE016D5E7F4FCE014996A8D4BE01D0
:102540006F5F7F4FCE01499627DCBC01CE0101961B
:10255000ADDCCE014996BFDCCE014396BCDCBE01AA
:10256000635F7F4FCE01439692D468EF72E0CE0155
:102570004396FBDBBE01695F7F4F0EDC68EF72E0C4
:10258000F4DBBE016F5F7F4F07DCBC01CE014996D3
:102590007ED4BE01675E7F4F80910203909103035A
:1025A0000E94600ACE01499696DCCE01439693DCE8
:1025B000CE01019690DCCE0107968DDCCE010D9602
:1025C0008ADC6E960FB6F894DEBF0FBECDBFDF91EA
:1025D000CF9108952F923F924F925F926F927F9288
:1025E0008F929F92AF92BF92CF92DF92EF92FF9223
:1025F0000F931F93CF93DF93482F2091D903022E7F
:10260000000C330BC90106976AE070E00E94A8270E
:102610008090DA03880C8A948A94860EC42FD0E0C6
:1026200026E0429FC0011124FC01E80DF11DA3E04A
:10263000EE0FFF1FAA95E1F7EB53FA4F608171810E
:10264000E280F380A480B580668077808E010E538F
:102650001A4FF8012080312CF1E02F1A3108982C04
:10266000E92DF0E0E215F3050CF04DC0292D2170A5
:10267000522E550C252D220F220F520E492C469416
:102680004394DF011196A80FB91F23E0AA0FBB1FC7
:102690002A95E1F7AB53BA4FCD90DC901197E80F34
:1026A000F91F33E0EE0FFF1F3A95E1F7EB53FA4FB6
:1026B000D182C08212964D915C91139753834283CD
:1026C00014962D913C9115973583248316960D9081
:1026D000BC91A02DB783A683F60154824582E2E027
:1026E000DE2ED50CFA01D482458243E0450DF90176
:1026F0004483458226E0250D14962C931497159655
:102700004C929394ADCFE0910003F0910103828944
:1027100093890E94E709E0910003F0910103B7015A
:10272000828993890E94E709E0910003F0910103F7
:10273000B501828993890E94E709E0910003F09135
:102740000103B301828993890E94E7098091D7032D
:102750009091D8030E94DC078091F5039091F603D5
:1027600006D8F8018081815080838DE18C9F900193
:102770008D9F300D1124F901E75FFB4F6081462FDB
:1027800050E041505109882D90E0841795070CF5D1
:10279000DC011196AA0FBB1FAA0FBB1FA20FB31F0C
:1027A000A75FBB4F11960D911C911297FC01EE0F84
:1027B000FF1FEE0FFF1FE20FF31FE75FFB4F1283B8
:1027C000018313968D919C911497948383838394B2
:1027D000DACF8DE18C9FF0018D9FF00D1124E75F22
:1027E000FB4F61506083DF91CF911F910F91FF905C
:1027F000EF90DF90CF90BF90AF909F908F907F90A1
:102800006F905F904F903F902F90089582E0E2CEBE
:1028100081E0E0CE80E0DECE2F923F924F925F9239
:102820006F927F928F929F92AF92BF92CF92DF92E0
:10283000EF92FF920F931F93CF93DF93CDB7DEB745
:1028400027970FB6F894DEBF0FBECDBF882E912C10
:1028500094012E533A4F3901F9011081163009F4D1
:10286000EDC0912F9170F92EFF0C2F2D220F220F0A
:10287000F20E16951F5F813069F038F0823081F4D6
:10288000E091FC02F091FD0209C0E0910003F0919B
:10289000010304C0E091FE02F091FF02C288D388D8
:1028A0008F8383E290E00E94F9272C01E12E0F2D07
:1028B00020E030E040E451E4B6010E94A008F301BA
:1028C000808196E0989D5001999DB00C112495014E
:1028D000280F311DC90123E0880F991F2A95E1F7C0
:1028E000FC01EB53FA4F1F015182408280E090E0DF
:1028F000A0E4B1E4F201838F948FA58FB68F68EFC7
:1029000072E0CE010196CBD282E190E00E94F927DD
:102910002C0122E02F0D012FAE014F5F5F4FB6015A
:102920000E946809F10153824282CE010196D3DAF6
:1029300083E290E00E94F9272C0103E00F0D20E0D4
:1029400030E040E751E4B6010E94A008F301E080C6
:10295000AE0CB11CC50133E0880F991F3A95E1F721
:102960009C012B533A4F1901F9015582448280E0B2
:1029700090E0ACE6B2E4F201838F948FA58FB68F1E
:102980006AEF72E0CE0101968AD284E190E00E9463
:10299000F9275C0126E02F0D012FAE014F5F5F4F3D
:1029A000B6010E94E307F101B782A682CE0101962B
:1029B00092DAFF81F13049F028F0F23059F486E0E4
:1029C00094E105C08AE094E102C088E094E1F50159
:1029D000938B828BE394F301E0828DE1889DD0019B
:1029E000899DB00D1124FD01E75FFB4F808191E0CF
:1029F000980F9083F4E08F9FA00DB11D1124A75F65
:102A0000BB4F96E0989DF001999DF00D1124E80FC1
:102A1000F11D83E0EE0FFF1F8A95E1F7EB53FA4FAC
:102A200080819181469612969C938E931197848112
:102A30009581469614969C938E93139727960FB67E
:102A4000F894DEBF0FBECDBFDF91CF911F910F91E4
:102A5000FF90EF90DF90CF90BF90AF909F908F90BE
:102A60007F906F905F904F903F902F90089582E0FD
:102A7000D3CE81E0D1CE80E0CFCE6F927F928F9285
:102A80009F92AF92BF92CF92DF92EF92FF920F93FD
:102A90001F93CF93DF9300D000D0CDB7DEB76C018A
:102AA0004B015A01122F88E792E0F601918380834F
:102AB00081E08283138265E872E0C6010696EFD159
:102AC00065E872E0C6010C96EAD1F4016480639473
:102AD0006482712CC301880F991F0E94F9277C0121
:102AE00020E0F1E06F1A7108422F50E0F40182817A
:102AF00093814615570574F4440F551FFC01E40FEC
:102B0000F51F80819181F701E40FF51F9183808388
:102B10002F5FEACF009711F00E948E28F401F38214
:102B2000E2828481F701E80FF11DE80FF11D329771
:102B3000D182C082B501CE010196A9D1BE016F5FDD
:102B40007F4FC6010E94600ACE010196C4D9F601EA
:102B50001483058326960FB6F894DEBF0FBECDBF53
:102B6000DF91CF911F910F91FF90EF90DF90CF9069
:102B7000BF90AF909F908F907F906F9008951F921D
:102B80000F920FB60F9211240BB60F922F933F9313
:102B90004F935F936F937F938F939F93AF93BF9365
:102BA000EF93FF938091B900887F803609F49CC031
:102BB00068F5883209F45BC090F4803109F454C0A0
:102BC00038F4882309F4F6C0883009F44DC0F5C004
:102BD000883109F44CC0803209F45DC0EEC0803405
:102BE00009F468C048F4803309F455C0883309F00B
:102BF000E4C08093A803D8C0803509F44FC088355D
:102C000009F45DC0883409F0D8C0D6C0883909F409
:102C1000C7C0A8F4883709F467C038F4883609F4C7
:102C200063C0803709F460C0C8C0883809F4B8C0F0
:102C3000803909F45FC0803809F0BFC05BC0803BB9
:102C400009F486C038F4803A09F466C0883A09F479
:102C50007FC0B3C0803C09F4A7C0883C09F4A4C07D
:102C6000883B09F48AC0A9C08091850310C0909167
:102C7000A7038091A603981770F5E091A70381E060
:102C80008E0F8093A703F0E0EA57FC4F808180937A
:102C9000BB0085EC86C08093A8038EC0E091A7039B
:102CA00081E08E0F8093A7038091BB00F0E0EA578C
:102CB000FC4F80839091A7038091A6036EC0E091A2
:102CC000A70381E08E0F8093A7038091BB00F0E003
:102CD000EA57FC4F80838091A90381116DC081E088
:102CE0008093840384EA61C083E08093AA031092F6
:102CF0009B06CFCF80919B06803208F051C0E091B7
:102D00009B0681E08E0F80939B068091BB00F0E0D4
:102D1000E558F94F8083BDCF85EC8093BC001092BD
:102D2000AA0380919B06803230F4E0919B06F0E08C
:102D3000E558F94F108260919B0670E0E0917906AA
:102D4000F0917A068BE796E0199510929B0635C0B4
:102D500084E08093AA031092780610927706E0919F
:102D60007506F0917606199580917706811105C058
:102D700081E08093770610925506E091780681E015
:102D80008E0F80937806F0E0EB5AF94F80818093A4
:102D9000BB009091780680917706981708F479CF58
:102DA00085E88093BC0009C085EC8093BC0010923C
:102DB000AA0303C01092A803C7D9FF91EF91BF9156
:102DC000AF919F918F917F916F915F914F913F91C3
:102DD0002F910F900BBE0F900FBE0F901F90189564
:102DE0001092AA0381E08093A9031092840384E1E6
:102DF0000E94C20C85E10E94C20CE9EBF0E08081E8
:102E00008E7F808380818D7F808388E48093B8006B
:102E100085E48093BC00089528E132E0FC01318311
:102E200020830C942B03CF93DF93EC01F5DFCE01CD
:102E3000DF91CF910C948E28CF92DF92EF92FF9288
:102E40000F931F93CF93DF936C017A018B01C0E046
:102E5000D0E0CE15DF0589F0D8016D918D01D60146
:102E6000ED91FC910190F081E02DC6011995892B1F
:102E700011F47E0102C02196ECCFC701DF91CF9102
:102E80001F910F91FF90EF90DF90CF900895FC017C
:102E900011821082138212821582148207C8FC01EB
:102EA00011821082138212821582148261157105BB
:102EB00051F0FB0101900020E9F73197AF01461B6B
:102EC000570B0C94DD0E0895DC01ED91FC91DB01B4
:102ED00014964D915C9115976D917C910280F381D0
:102EE000E02D1994CF93DF93CDB7DEB72C970FB6B3
:102EF000F894DEBF0FBECDBF789484B5826084BDE8
:102F000084B5816084BD85B5826085BD85B58160ED
:102F100085BD80916E00816080936E00109281006B
:102F20008091810082608093810080918100816026
:102F300080938100809180008160809380008091E7
:102F4000B10084608093B1008091B0008160809373
:102F5000B0008091910082608093910080919100F7
:102F600081608093910080919000816080939000B7
:102F70008091A10082608093A1008091A100816076
:102F80008093A1008091A00081608093A000809137
:102F900021018260809321018091210181608093D1
:102FA00021018091200181608093200180917A002D
:102FB000846080937A0080917A00826080937A00A6
:102FC00080917A00816080937A0080917A00806895
:102FD00080937A001092C10040E855E260E070E012
:102FE00087E195E00E948C0A8CE694E09093B70507
:102FF0008093B60540E855E260E070E00E948C0ADC
:1030000087E195E090930C0580930B0540E855E22D
:1030100060E070E00E948C0A86E090E00E94F92750
:103020007C0116E0DC01E12F1D92EA95E9F7DC0155
:1030300014961C92149715961C92159708E1C02EB1
:1030400002E0D02ECD92DC929093580380935703E8
:103050006EE772E0CE01019622DF82E190E00E94ED
:10306000F9275C0100E020E0AE014F5F5F4FB70140
:103070000E946809B0925603A0925503CE010196B2
:103080000E946B0F65E872E0CE01019608DF82E1D5
:1030900090E00E94F9275C0128E0AE014F5F5F4F8E
:1030A000B7010E946809B0920503A0920403CE0103
:1030B00001960E946B0F66E872E0CE010196EFDE8A
:1030C00082E190E00E94F9275C0101E028E0AE0176
:1030D0004F5F5F4FB7010E946809B0920303A0924F
:1030E0000203CE0101960E946B0F86E090E00E94E1
:1030F000F9277C01FC0111921A95E9F7DC0114967D
:103100001C92149715961C921597CD92DC92909371
:103110005403809353036FE872E0CE010196BFDE43
:1031200082E190E00E94F9276C0100E027E0AE0107
:103130004F5F5F4FB7010E946809D0925203C0925F
:103140005103CE0101960E946B0F68E972E0CE0137
:103150000196A5DE84E190E00E94F9275C0102E07F
:1031600020E0AE014F5F5F4FB7010E949D09B09212
:103170005003A0924F03CE0101960E946B0F6FE99E
:1031800072E0CE0101968BDE84E190E00E94F92787
:103190006C01F5016289738900E023E0AE014F5FA5
:1031A0005F4F0E949D09D0920103C0920003CE019F
:1031B00001960E946B0F6EEA72E0CE0101966FDEFF
:1031C00084E190E00E94F9277C01D60152966D912E
:1031D0007C91539720E0AE014F5F5F4F0E94E30761
:1031E000F0924E03E0924D03CE0101960E946B0FC8
:1031F0008BE395E1F701938B828B62EB72E0CE015A
:1032000001964DDE82E190E00E94F9277C01D50114
:1032100052966D917C91539701E020E0AE014F5F93
:103220005F4F0E946809F0924C03E0924B03CE017D
:1032300001960E946B0F83E290E00E94F9276C01D7
:10324000F50162897389EE24E3940AE02AE037ED00
:1032500044E052E40E94A008D0924A03C09249037D
:10326000F6E1CF0ED11CD0922304C09222046BEB66
:1032700072E0CE01019613DE82E190E00E94F92710
:103280006C01E0904F03F0905003D70152966D917E
:103290007C91539702E020E0AE014F5F5F4F0E94A8
:1032A0006809D0924803C0924703CE0101960E945C
:1032B0006B0F83E290E00E94F9276C01F7016289AD
:1032C000738982E0E82E0AE02DEC3CEC40E752E402
:1032D000C6010E94A008D0924603C0924503F6E1C1
:1032E000CF0ED11CD0922504C092240464EC72E06D
:1032F000CE010196D4DD84E190E00E94F9277C01A3
:10330000609153037091540302E027E0AE014F5FD8
:103310005F4F0E949D09F0924403E0924303CE0167
:1033200001960E946B0F6FE972E0CE010196B7DD46
:1033300084E190E00E94F9275C01D70152966D91DB
:103340007C91539700E023E0AE014F5F5F4F0E94F6
:103350009D09B092FF02A092FE02CE0101960E944A
:103360006B0F6EEA72E0CE01019699DD84E190E088
:103370000E94F9276C01F5016289738920E0AE0192
:103380004F5F5F4F0E94E307D0924203C092410318
:10339000CE0101960E946B0F89E395E1D601539609
:1033A0009C938E93529762EB72E0CE01019677DD8B
:1033B00082E190E00E94F9276C01F701628973892C
:1033C00001E020E0AE014F5F5F4F0E946809D0929C
:1033D0004003C0923F03CE0101960E946B0F83E22F
:1033E00090E00E94F9276C01D70152966D917C9173
:1033F0005397EE24E3940AE020E030E044E052E406
:103400000E94A008D0923E03C0923D03B6E1CB0ECD
:10341000D11CD0924004C0923F046BEB72E0CE010D
:1034200001963DDD82E190E00E94F9276C01E09079
:103430004303F0904403F7016289738902E020E0BE
:10344000AE014F5F5F4F0E946809D0923C03C0926B
:103450003B03CE0101960E946B0F83E290E00E9435
:10346000F9276C01D70152966D917C91539792E0A8
:10347000E92E0AE020E030E040E752E4C6010E9475
:10348000A008D0923A03C0923903B6E1CB0ED11C0A
:10349000D0924204C09241046BEC72E0CE010196DE
:1034A000FEDC84E190E00E94F9277C0160915303E7
:1034B0007091540302E02EE0AE014F5F5F4F0E9417
:1034C0009D09F0923803E0923703CE0101960E94E5
:1034D0006B0F6FE972E0CE010196E1DC84E190E0D0
:1034E0000E94F9275C01F7016289738900E023E0FB
:1034F000AE014F5F5F4F0E949D09B092FD02A09206
:10350000FC02CE0101960E946B0F6EEA72E0CE01C2
:103510000196C5DC84E190E00E94F9276C01D50199
:1035200052966D917C91539720E0AE014F5F5F4FB3
:103530000E94E307D0923603C0923503CE01019674
:103540000E946B0F87E395E1F601938B828B62EB10
:1035500072E0CE010196A3DC82E190E00E94F9279F
:103560006C01D70152966D917C91539701E020E058
:10357000AE014F5F5F4F0E946809D0923403C09242
:103580003303CE0101960E946B0F83E290E00E940C
:10359000F9276C01F70162897389EE24E3940AE04C
:1035A00020E030E044E052E40E94A008D0923203D0
:1035B000C0923103F6E1CF0ED11CD0925D04C092CF
:1035C0005C046BEB72E0CE01019669DC82E190E075
:1035D0000E94F9276C01E0903703F0903803D7017F
:1035E00052966D917C91539702E020E0AE014F5FBF
:1035F0005F4F0E946809D0923003C0922F03CE0122
:1036000001960E946B0F83E290E00E94F9276C0103
:10361000F7016289738922E0E22E0AE020E030E0BF
:1036200040E752E40E94A008D0922E03C0922D03DE
:10363000F6E1CF0ED11CD0925F04C0925E0462ED21
:1036400072E0CE0101962BDCCE0101960E94E80CBF
:10365000CE0101960E946B0F009157031091580301
:10366000C8010E947B0C80915303909154030E94E7
:103670007B0CC8010E94B70B0E94C40F80917C0391
:1036800090917D03009711F00E948E288091800315
:1036900090918103009711F00E948E2880918203FF
:1036A00090918303009711F00E948E2880917E03F1
:1036B00090917F03009711F00E948E2886E08093FE
:1036C0007B0382E190E00E94F927FC019C012E5EC1
:1036D0003F4F128211823396E217F307D1F790938E
:1036E0007D0380937C038CE090E00E94F927909307
:1036F00081038093800386E090E00E94F9279093F5
:1037000083038093820388E190E00E94F9279093DD
:103710007F0380937E0370E048EE53E0A1E0809148
:103720007B03781708F05FC0272F30E063E0769FB7
:10373000C0011124F901E050FE4F6081E0917C034B
:10374000F0917D03E80FF91F6083E0917C03F09115
:103750007D03E80FF91F808190E0FC01EF52FD4FDF
:103760006491FC01E557FD4F84918823D1F090E0EE
:10377000880F991FFC01E35CFD4F05911491FC013A
:10378000EF58FD4FE590F4909FB7F894F801B081A1
:10379000862F80958B238083F7018081682B60833F
:1037A0009FBFC901880F991FE0918003F0918103A9
:1037B000E80FF91F51834083E0918203F091830366
:1037C000E20FF31FA083220F331F220F331FE0915C
:1037D0007E03F0917F03E20FF31F108211821282A9
:1037E00013827F5F9CCFF89410928000109281002A
:1037F00010926F008091810083608093810086E049
:103800009FEF909385008093840081E080936F0008
:1038100086E392E10E94F30A87E791E10E94F30AAE
:1038200040E057E0242F30E08091CF0390E00197F3
:10383000281739070CF040C0B7E04B9F80011124D6
:1038400021E08091CF032817A8F58091CD039091B6
:10385000CE03DC01A00FB11F12966D917C911397DE
:10386000F7E02F9F800D911D1124FC01E280F38071
:10387000E616F706E8F4CD90DC9011971496ED90DB
:10388000FC90159716963C911697B52E01900D92C7
:10389000BA94E1F7DC011196DC92CE9213967C93F8
:1038A0006E9312971596FC92EE92149716963C938F
:1038B0002F5FC7CF4F5FB6CF789411E086E0282EF8
:1038C00096E0C92E93E0D92E25EE322E05EC10930A
:1038D000AB03E8E6E093CC031092FA031092F903ED
:1038E00060E08DEF93E00E94311181E00E945A0B5D
:1038F000882319F010925903B2C010935903809194
:10390000AA038111FCCF1093AA031093A903FFEF20
:10391000F093A8031092A7032092A60310938503A7
:1039200080918503806D809385038091840381302D
:1039300069F410928403809185038093BB00809189
:10394000BC0083FDF8CF0093BC0002C03092BC00E5
:103950008091AA038130E1F38091A703873018F4A6
:103960008091A70301C087E0A6E8B3E0E6E0F3E0BA
:103970009E2F9C19981718F49D919193F9CF10924E
:10398000FC038093FB03873008F469C08DEF93E05C
:103990000E94E610982F9695969596959E70292FE1
:1039A000220F220F920F8F70890F809326038DEFC5
:1039B00093E00E94E610982F92959F708F702AE0F6
:1039C000929F800D1124809327038DEF93E00E9436
:1039D000E610982F9695969596959670292F220F1A
:1039E000220F920F8F70890F809328038DEF93E041
:1039F0000E94E610982F92959F708F703AE0939FE7
:103A0000800D1124809329038DEF93E00E94E6102E
:103A1000982F92959F708F704AE0949F800D11248B
:103A200080932A038DEF93E00E94E610982F9295E1
:103A30009F708F705AE0959F800D112480932B0307
:103A40008DEF93E00E94E610982F9F70925E829512
:103A50008F706AE0869F900D112490932C0389E06B
:103A60000E948B0D882309F469C08091F70390911F
:103A7000F803892B09F062C04FEF6FEFB12CE09192
:103A8000F503F091F6038481B81608F04BC09281DB
:103A90008381E92FF82FEB0DF11DEB0DF11DE08077
:103AA000F180D701ED91FC910480F581E02DC701F3
:103AB0004B876C8719954B856C85019789F1F701C8
:103AC0005581852F90E02091DA03022E000C330BF4
:103AD000821793076CF08217930711F5E481F0E0E9
:103AE0002091D903022E000C330BE217F307C4F424
:103AF000242F042E000C330B2817390774F082177B
:103B0000930771F4D70114968C9190E0262F062E1E
:103B1000000C330B281739071CF4F7016481452F7B
:103B2000B394ADCF6F3F51F06093D9034093DA0364
:103B30008091D7039091D8030E94AF078BE00E9439
:103B40008B0D882309F469C08091F7039091F803E5
:103B5000892B09F062C04DE76DE7B12CE091F503C8
:103B6000F091F6038481B81608F04BC092818381EE
:103B7000E92FF82FEB0DF11DEB0DF11DE080F18029
:103B8000D701ED91FC910480F581E02DC7014B87B1
:103B90006C8719954B856C85019789F1F7015581E3
:103BA000852F90E02091DA03022E000C330B2817AA
:103BB00039076CF08217930711F5E481F0E020914A
:103BC000D903022E000C330B2E173F07C4F4242F09
:103BD000042E000C330B8217930774F0821793079F
:103BE00071F4D70114968C9190E0262F062E000CCC
:103BF000330B821793071CF4F7016481452FB394AC
:103C0000ADCF6D3751F06093D9034093DA038091C3
:103C1000D7039091D8030E94AF078CE00E948B0DD0
:103C2000882309F47BC0E090F703F090F803E114D7
:103C3000F10409F473C0D70152968D909D90AD9018
:103C4000BC90559756962D913D914D915C91599709
:103C5000C501B4010E94A726F701668B778B808F80
:103C6000918F238D348D458D568D2F8338874987CD
:103C70005A870E94A4271816ACF4F701478C50A06D
:103C800061A072A02F81388549855A85C301B20190
:103C900028D787FF07C0D70156964D925D926D9247
:103CA0007C925997C501B4010E947327072E000C1E
:103CB000880B990B1CD79B01AC01C501B4010E9474
:103CC000A62620E030E0A9010CD781110DC0F70134
:103CD00066897789808D918D0E9473274AE0CE0195
:103CE00001960E944D100CC0D70156964D915D91E2
:103CF0006D917C91599722E0CE0101960E941E1091
:103D0000BE016F5F7F4FC7010E941A08CE01019666
:103D10000E946B0FF70113830E94C40F8AE00E9478
:103D20008B0D882309F478C0E090F703F090F80336
:103D3000E114F10409F470C0D70152968D909D9062
:103D4000AD90BC905597A501940156966D917D91CB
:103D50008D919C915997FAD7F701668B778B808F5D
:103D6000918F278D30A141A152A12F833887498798
:103D70005A87B7D687FF15C0F701438C548C658CE2
:103D8000768CA30192016F81788589859A85A9D661
:103D900087FF07C0D70156964D925D926D927C9237
:103DA0005997C501B4010E947327072E000C880B98
:103DB000990B9DD69B01AC01C501B401C7D720E08A
:103DC00030E0A9018ED681110DC0F701668977898F
:103DD000808D918D0E9473274AE0CE0101960E944A
:103DE0004D100CC0D70156964D915D916D917C910F
:103DF000599722E0CE0101960E941E10BE016F5F0E
:103E00007F4FC7010E941A08CE0101960E946B0FD6
:103E1000F70113830E94C40F87E00E948B0D882353
:103E2000F1F18091F7039091F803892BC1F580910E
:103E3000D7039091D8030E94DC07E091F303EF3F92
:103E4000F9F48091F4038F5F8093F4032091DE03F3
:103E500030E0082E000C990B2817390711F4109246
:103E6000F403E091F403EE0FFF0B8091DC039091DB
:103E7000DD03E80FF91F808191810E94B70B0DC00F
:103E8000EE0FFF0BE152FC4F808191810E94B70B36
:103E90008091F30381508093F3030E94C40F88E064
:103EA0000E948B0D882309F476C0B12CE091F503B4
:103EB000F091F6038481B81608F06DC09281838179
:103EC000E92FF82FEB0DF11DEB0DF11DE080F180D6
:103ED0002091D903022E000C330BD70114968C913C
:103EE000149790E02817390709F053C02091DA039E
:103EF000022E000C330B15968C91159790E0281725
:103F0000390709F046C0ED91FC910480F581E02D60
:103F1000C70119958230910511F18330910531F176
:103F2000892BB9F58091D7039091D8030E94DC07C3
:103F3000E091F303EF5FE093F303EE0FFF0BE15229
:103F4000FC4F8091F5039091F60391838083F701F4
:103F5000828993890E94B70B0E94C40F1CC0D701AD
:103F60005296ED91FC915397199513C0F092F80376
:103F7000E092F703F701828D811102C0128F09C010
:103F8000128E128313830E94C40F1092F8031092B2
:103F9000F703B3948BCFE091F503F091F60384819E
:103FA000882309F44CC08581882309F448C0809196
:103FB0006A0381110CC00E94E4046093660370934D
:103FC0006703809368039093690310936A030E94C8
:103FD000E4048090660390906703A0906803B0901B
:103FE0006903DC01CB0188199909AA09BB09853F3E
:103FF0009140A105B10518F10E94E40460936603A5
:104000007093670380936803909369032091DB03A7
:104010008091D7039091D803211105C01093DB0341
:104020000E94A8070CC01092DB03DC0116966C916D
:1040300016976D7F16966C9368600E949807809122
:10404000F7039091F803892BE1F180915E038111D0
:104050000CC00E94E40460935A0370935B03809346
:104060005C0390935D0310935E030E94E4048090D0
:104070005A0390905B03A0905C03B0905D03DC0159
:10408000CB0188199909AA09BB09893C9105A105A9
:10409000B105B8F00E94E40460935A0370935B0387
:1040A00080935C0390935D03E091F703F091F80334
:1040B00013838281811102C0128301C012820E9487
:1040C000C40F0E94C40F84EB95E00E94DF0589E0D5
:1040D00095E00E94DF050E94C402F9CBCF92DF92E7
:1040E000EF92FF92ECE6F4E01382128288EEC82E83
:1040F00083E0D82EE12CF12CC482D582E682F782AF
:1041000080E592E0918380832DEC30E03587248731
:104110002CEC30E03787268728EC30E0318B208B81
:1041200029EC30E0338B228B2AEC30E0358B248B6A
:104130002EEC30E0378B268B118E128E138E148E60
:10414000E7E1F5E013821282C482D582E682F7822B
:104150009183808385EC90E09587848784EC90E060
:104160009787868780EC90E0918B808B81EC90E044
:10417000938B828B82EC90E0958B848B86EC90E025
:10418000978B868B118E128E138E148EEDECF3E0CE
:10419000128214821382168215821086178211866B
:1041A000E7EDF3E017828FEF848F858F1092FC0389
:1041B0001092FB031092FA031092F9030E94F0167A
:1041C000EDEFF3E013821282C482D582E682F78299
:1041D00080E692E09183808340E855E267E175E0F4
:1041E00084EB95E00E94110740E855E26CE674E02C
:1041F00089E095E00E941107E0E6F4E01382128264
:1042000080E792E09183808387E2848380E18187E5
:1042100084E082871386E9E0F4E01082158E12AE06
:10422000FF90EF90DF90CF90089589E095E00E9495
:10423000E40684EB95E00C94E406EF920F931F9351
:10424000CF93DF93E80147FD02C034E001C034E1C1
:10425000E42F440FFF0BF7FF03C0F195E195F1093F
:10426000E32E022F2E2FAE0141D0CE01DF91CF9150
:104270001F910F91EF90089566277727C4C14532AB
:10428000510518F4423008F004C0FB011082CB0144
:104290000895BB274A3031F4992322F4BDE290956A
:1042A00081959F4F0BC04532510518F4423008F0FC
:1042B00004C0FB011082CB010895BB27FB015527E9
:1042C000AA27880F991FAA1FA41710F0A41B839573
:1042D0005051B9F7A05DAA3308F0A95DA1930097EA
:1042E00079F7B111B1931192CB01EBC34F925F9269
:1042F0006F927F929F92AF92BF92CF92DF92EF9296
:10430000FF920F931F93CF93DF93CDB7DEB729971B
:104310000FB6F894DEBF0FBECDBF6A01122FB02ECC
:104320002BE3201720F0FF24F394F00E02C0BCE32F
:10433000FB2E0F2D27E0AE014F5F5F4FCAD2AC01BD
:104340008981982F9970913031F0E1FC06C0E0FE30
:1043500006C090E205C09DE203C09BE201C090E070
:10436000EE2DE07183FF3CC0911102C083E001C0DB
:1043700084E0811718F4212F281B01C020E0E111EF
:104380000BC0F601822F30E2882319F0319381505F
:10439000FBCFC20ED11C20E0992329F0D6019C93BB
:1043A000F60131966F01C6010396E2FE0AC03EE4B3
:1043B000D6013C9341E411964C93119712963C938D
:1043C00006C03EE6F601308341E641833283FC01BC
:1043D000322F40E2332309F442C041933150FACFE7
:1043E00082FF44C0911102C083E001C084E08117C4
:1043F00018F4212F281B01C020E0E1110BC0F601A9
:10440000822F30E2882319F031938150FBCFC20E06
:10441000D11C20E0992329F0D6019C93F601319616
:104420006F01C6010396E2FE0BC039E4D6013C934E
:104430003EE411963C93119736E412963C9307C0E4
:1044400039E6F60130833EE6318336E63283FC01FD
:10445000322F40E2332319F041933150FBCFFC015E
:10446000E20FF11D10828EEF9FEFB7C0F1E09111C6
:1044700001C0F0E06F2F70E01416150624F49A01C5
:104480002F5F3F4F02C021E030E0260F371FBB20D7
:1044900029F06B2D70E06F5F7F4F02C060E070E02D
:1044A000260F371F612F70E0261737071CF4121BE9
:1044B000212F01C020E03E2D387159F4D601322F52
:1044C00060E2332319F06D933150FBCFC20ED11C43
:1044D00020E0FF2331F0D6019C93B6016F5F7F4F40
:1044E0006B01E1110BC0F601922F30E3992319F013
:1044F00031939150FBCFC20ED11C20E09F2D940F21
:104500003A81782F7071A72E84FF03C0313309F4EC
:104510009150191624F4993018F098E001C091E0F8
:10452000E42F852F57FF02C0E0E080E06E2F782F48
:10453000E0E0F0E0AEE29A2E3A01691A71082A0131
:10454000461A570A0B2D10E01195019511096F3F7E
:104550008FEF780729F4D6019C92C60101966C0171
:104560004617570784F0661677066CF47F01E40C53
:10457000F51CA1E0B0E0AC0FBD1FEA0EFB1ED70199
:104580001196BC9002C090E3B92E6150710931962A
:10459000C60101967C016017710724F0D601BC9218
:1045A0006C01D5CF6417750741F4363320F43533E9
:1045B00021F4A11002C081E3B82EF601B082F70108
:1045C000822F90E2882319F091938150FBCFF7015D
:1045D000E20FF11D108280E090E029960FB6F8946A
:1045E000DEBF0FBECDBFDF91CF911F910F91FF9026
:1045F000EF90DF90CF90BF90AF909F907F906F90A3
:104600005F904F9008956F927F928F929F92AF929A
:10461000BF92CF92DF92EF92FF920F931F93CF93AF
:10462000DF93EC017B016115710519F0DB018D93BE
:104630009C938E010F5F1F4F7880872D90E021D2D1
:10464000892B11F0E801F5CFBDE27B1205C00F5FA9
:104650001F4F7980C1E008C0EBE27E1204C08E01DA
:104660000E5F1F4F7980C0E06801F1E0CF1AD108DA
:1046700043E050E060E171E0C6010BD2892BE9F420
:10468000680122E0C20ED11C45E050E06BE071E011
:10469000C601FFD1892B21F4680187E0C80ED11C27
:1046A000E114F10419F0D701CD92DC92C111F9C0E7
:1046B00060E070E080E89FE7FDC043E050E068E024
:1046C00071E0C601E6D1892B51F4E114F10409F43B
:1046D000EDC00E5F1F4FF70111830083E7C0680133
:1046E00060E070E0CB0100E010E0F601D0EDD70D06
:1046F000DA3050F52C2F2260622E2C2F2870C2FF4A
:1047000005C0211127C00F5F1F4F24C0222311F0C5
:1047100001501109A5E0B0E09B01AC01FED24B01B4
:104720005C01880C991CAA1CBB1CC501B4016D0F4F
:10473000711D811D911D6839A9E97A078A07A9E1D0
:104740009A0740F0C66005C0DE3F51F4C3FD44C087
:10475000C8606C2EBFEFCB1ADB0A7080C62DC5CFA8
:104760002D2F2F7D2531C1F540814D3211F4C061CF
:1047700006C04B3221F0319621E030E006C032967F
:10478000D60111964C9122E030E0A0EDA40FAA30A2
:1047900018F0E21BF30B20C040E050E04038BCE0D2
:1047A0005B075CF49A01220F331F220F331F420F65
:1047B000531F440F551F4A0F511D3196DF011197AA
:1047C0002C91A0EDA20FAA3048F3C4FF03C051956D
:1047D00041955109040F151FC1FF07C0E114F104F1
:1047E00021F03197D701ED93FC937FD1C370C33093
:1047F00019F06B017C0106C06B017C01F7FAF094A3
:10480000F7F8F09420E030E0A901C701B60169D1C2
:10481000882309F443C017FF06C0119501951109BB
:10482000C7E2D1E002C0CFE3D1E05E01B8E1AB1A4C
:10483000B1084601BE2DAF2D90E2E92EF12C0E15E8
:104840001F057CF0FE012591359145915491B401ED
:104850008B2F9A2FABD14B01B82FA92F0E191F09FF
:10486000EECF2497F594E794CA15DB0541F7640170
:10487000EB2EFA2E8E2D880F8F2D881F8F3F41F043
:1048800020E030E0A901C701B6012BD1811106C09B
:1048900082E290E090939D0680939C06C701B6014A
:1048A00009C060E070E080E89FEF04C060E070E065
:1048B00080EC9FE7DF91CF911F910F91FF90EF90D8
:1048C000DF90CF90BF90AF909F908F907F906F9030
:1048D0000895283008F027E03327DA01990F311DB9
:1048E00087FD916000966105710539F432602E5F95
:1048F0003D9330E32A95E1F708959F3F30F08038EB
:104900007105610509F03C5F3C5F3D93913008F013
:104910008068911DDF93CF931F930F93FF92EF92C7
:10492000192F987F9695E92F96959695E90FFF2771
:10493000E356FE4F99273327EE24FF24A701E70112
:1049400005900894079428F4360FE71EF81E491FB7
:10495000511D660F771F881F991F0694A1F70590B8
:10496000079428F4E70EF81E491F561FC11D770F44
:10497000881F991F661F0694A1F70590079428F4D5
:10498000F80E491F561FC71FD11D880F991F661F9C
:10499000771F0694A1F70590079420F4490F561F3E
:1049A000C71FD81F990F661F771F881F0694A9F786
:1049B00084911095177041F0D695C79557954795F6
:1049C000F794E7941A95C1F7E3E4F1E06894159041
:1049D000159135916591959105907FE27395E11858
:1049E000F10A430B560BC90BD009C0F7E10CF11EBD
:1049F000431F561FC91FD01D7EF4703311F48A95D2
:104A0000E6CFE894015030F0080F0AF400270217AF
:104A100008F4202F2395022F7A3328F079E37D9331
:104A20002A95E9F710C07D932A9589F60694979503
:104A30006795379517951794E118F10A430B560BB4
:104A4000C90BD00998F023957E9173957A3308F0BD
:104A500070E37C932013B8F77E9170617D9330F002
:104A6000839571E37D9370E32A95E1F71124EF902C
:104A7000FF900F911F91CF91DF91992787FD90951E
:104A800008959111F6C0803219F089508550D0F701
:104A90000895FB01DC014150504088F08D91813434
:104AA0001CF08B350CF4805E659161341CF06B3525
:104AB0000CF4605E861B611171F3990B0895881BDD
:104AC000FCCFDC01FC01672F71917723E1F732976E
:104AD00004C07C916D9370836291AE17BF07C8F3D9
:104AE000089540D008F481E00895E89409C097FB48
:104AF0003EF490958095709561957F4F8F4F9F4FB5
:104B00009923A9F0F92F96E9BB279395F6958795F8
:104B100077956795B795F111F8CFFAF4BB0F11F4BB
:104B200060FF1BC06F5F7F4F8F4F9F4F16C0882362
:104B300011F096E911C0772321F09EE8872F762F98
:104B400005C0662371F096E8862F70E060E02AF0D9
:104B50009A95660F771F881FDAF7880F96958795C5
:104B600097F90895990F0008550FAA0BE0E8FEEF9A
:104B700016161706E807F907C0F012161306E40721
:104B8000F50798F0621B730B840B950B39F40A261A
:104B900061F0232B242B252B21F408950A2609F4F8
:104BA000A140A6958FEF811D811D08950BD07BC07C
:104BB0006CD028F071D018F0952309F05DC062C068
:104BC0001124A5C081D0A0F3959FD1F3950F50E09B
:104BD000551F629FF001729FBB27F00DB11D639FAF
:104BE000AA27F00DB11DAA1F649F6627B00DA11D55
:104BF000661F829F2227B00DA11D621F739FB00DFB
:104C0000A11D621F839FA00D611D221F749F33276A
:104C1000A00D611D231F849F600D211D822F762F03
:104C20006A2F11249F5750408AF0E1F088234AF000
:104C3000EE0FFF1FBB1F661F771F881F915050404C
:104C4000A9F79E3F510570F017C061C05F3FECF3BC
:104C5000983EDCF3869577956795B795F795E79538
:104C60009F5FC1F7FE2B880F911D9695879597F949
:104C7000089599278827089597F99F6780E870E03D
:104C800060E008959FEF80EC089500240A941616C2
:104C9000170618060906089500240A94121613062A
:104CA000140605060895092E0394000C11F48823B8
:104CB00052F0BB0F40F4BF2B11F460FF04C06F5FD4
:104CC0007F4F8F4F9F4F089557FD9058440F551FAA
:104CD00059F05F3F71F04795880F97FB991F61F07E
:104CE0009F3F79F087950895121613061406551FF5
:104CF000F2CF4695F1DF08C0161617061806991F61
:104D0000F1CF86957105610508940895E894BB2755
:104D100066277727CB0197F9089509D0A59F900DB5
:104D2000B49F900DA49F800D911D11240895A29F02
:104D3000B001B39FC001A39F700D811D1124911D6F
:104D4000B29F700D811D1124911D08955058BB27ED
:104D5000AA270ED0A8CF99DF30F09EDF20F031F4E3
:104D60009F3F11F41EF48ECF0EF4E095E7FB84CF45
:104D7000E92FAADF80F3BA17620773078407950744
:104D800018F071F49EF5C2CF0EF4E0950B2EBA2FF9
:104D9000A02D0B01B90190010C01CA01A001112441
:104DA000FF27591B99F0593F50F4503E68F11A16ED
:104DB000F040A22F232F342F4427585FF3CF46957E
:104DC00037952795A795F0405395C9F77EF41F16A0
:104DD000BA0B620B730B840BBAF09150A1F0FF0F6A
:104DE000BB1F661F771F881FC2F70EC0BA0F621F56
:104DF000731F841F48F4879577956795B795F79546
:104E00009E3F08F0B3CF9395880F08F09927EE0FD7
:104E10009795879508950CD046CF3EDF40F035DF5B
:104E200030F021F45F3F19F027CF511170CF2ACF16
:104E30004BDF98F39923C9F35523B1F3951B550B19
:104E4000BB27AA2762177307840738F09F5F5F4F5D
:104E5000220F331F441FAA1FA9F333D00E2E3AF09E
:104E6000E0E830D091505040E695001CCAF729D0B8
:104E7000FE2F27D0660F771F881FBB1F2617370707
:104E80004807AB07B0E809F0BB0B802DBF01FF2737
:104E900093585F4F2AF09E3F510568F0EDCE37CF13
:104EA0005F3FECF3983EDCF3869577956795B79571
:104EB000F7959F5FC9F7880F911D9695879597F98C
:104EC0000895E1E0660F771F881FBB1F6217730705
:104ED0008407BA0720F0621B730B840BBA0BEE1F1A
:104EE00088F7E095089504D06894B11110CF089523
:104EF000F3DE88F09F5790F0B92F9927B751A0F0B3
:104F0000D1F0660F771F881F991F1AF0BA95C9F75D
:104F100012C0B13081F0FADEB1E00895F7CE672F0C
:104F2000782F8827B85F39F0B93FCCF3869577950D
:104F30006795B395D9F73EF49095809570956195F6
:104F40007F4F8F4F9F4F08950DDE08F48FEF089528
:104F500097FB072E16F4009406D077FD08D035D0C5
:104F600007FC05D03EF4909581959F4F089570956C
:104F700061957F4F0895A1E21A2EAA1BBB1BFD016C
:104F80000DC0AA1FBB1FEE1FFF1FA217B307E40728
:104F9000F50720F0A21BB30BE40BF50B661F771F80
:104FA000881F991F1A9469F7609570958095909560
:104FB0009B01AC01BD01CF010895EE0FFF1F881FBB
:104FC0008BBF0790F691E02D1994AA1BBB1B51E1F2
:104FD00007C0AA1FBB1FA617B70710F0A61BB70B69
:104FE000881F991F5A95A9F780959095BC01CD010E
:104FF0000895CF93DF938230910510F482E090E022
:10500000E091A006F091A10620E030E0C0E0D0E001
:10501000309711F14081518148175907C0F0481766
:10502000590761F482819381209719F09B838A83C9
:105030002BC09093A1068093A00626C021153105B0
:1050400019F04217530718F49A01BE01DF01EF016E
:105050000280F381E02DDCCF2115310509F1281BF9
:10506000390B2430310590F412968D919C91139751
:105070006115710521F0FB019383828304C0909335
:10508000A1068093A006FD01329644C0FD01E20F07
:10509000F31F81939193225031092D933C933AC091
:1050A00020919E0630919F06232B41F42091080207
:1050B0003091090230939F0620939E0620910602AC
:1050C000309107022115310541F42DB73EB74091CB
:1050D0000A0250910B02241B350BE0919E06F091C1
:1050E0009F06E217F307A0F42E1B3F0B2817390782
:1050F00078F0AC014E5F5F4F2417350748F04E0F34
:105100005F1F50939F0640939E068193919302C028
:10511000E0E0F0E0CF01DF91CF9108950F931F936E
:10512000CF93DF93009709F48CC0FC013297138270
:1051300012820091A0061091A1060115110581F4BB
:1051400020813181820F931F20919E0630919F060E
:105150002817390779F5F0939F06E0939E0671C0F2
:10516000D80140E050E0AE17BF0750F412962D91E1
:105170003C911397AD012115310509F1D901F3CF08
:105180009D01DA013383228360817181860F971F2D
:105190008217930769F4EC0128813981260F371FA4
:1051A0002E5F3F4F318320838A819B81938382834B
:1051B000452B29F4F093A106E093A00642C0139674
:1051C000FC93EE931297ED01499159919E01240FA2
:1051D000351FE217F30771F480819181840F951FC9
:1051E000029611969C938E938281938113969C9341
:1051F0008E931297E0E0F0E0D80112968D919C9189
:105200001397009719F0F8018C01F6CF8D919C91BE
:1052100098012E5F3F4F820F931F20919E06309181
:105220009F062817390769F4309729F41092A106D0
:105230001092A00602C01382128210939F06009360
:105240009E06DF91CF911F910F9108956F927F92EB
:105250008F929F92AF92BF92CF92DF92EF92FF9286
:105260000F931F93CF93DF93EC01009781F4CB0151
:10527000DF91CF911F910F91FF90EF90DF90CF9032
:10528000BF90AF909F908F907F906F90B2CEFC01B7
:10529000E60FF71F9C0122503109E217F30708F4CB
:1052A000A8C0D9010D911C91119706171707A8F0F6
:1052B0000530110508F49BC0C801049786179707AD
:1052C00008F495C002501109061B170B01931193A6
:1052D0006D937C93CF0122DF8AC05B01A01AB10AD3
:1052E0004C01800E911EA091A006B091A10640E055
:1052F00050E0E12CF12C109709F44AC0A815B9052B
:10530000D1F56D907C901197630182E0C80ED11C9D
:10531000CA14DB0480F1A3014A195B096A0182E027
:10532000C80ED11C1296BC9012971396AC91B5E0A2
:10533000CB16D10440F0B282A38351834083D901BC
:105340006D937C930AC00E5F1F4FC301800F911FA6
:10535000F90191838083EB2DFA2FE114F10431F0F0
:10536000D7011396FC93EE93129741C0F093A106D8
:10537000E093A0063CC08D919C9111974817590766
:1053800008F4AC017D0112960D90BC91A02DB3CF15
:1053900080919E0690919F0688159905E1F4461725
:1053A0005707C8F48091060290910702009741F4D4
:1053B0008DB79EB740910A0250910B02841B950B4A
:1053C000E817F907B0F4F0939F06E0939E06F90101
:1053D000718360830CC0CB010CDE7C01009749F027
:1053E000A801BE011BD0CE0199DEC70104C0CE01C9
:1053F00002C080E090E0DF91CF911F910F91FF906C
:10540000EF90DF90CF90BF90AF909F908F907F9064
:105410006F90089581E090E0F89419C0FB01DC01E1
:1054200002C001900D9241505040D8F70895FB0101
:10543000DC018D91019080190110D9F3990B089529
:10544000FB01DC0101900D920020E1F7089511E0CD
:10545000C0EBD1E000E005C0802FFE01AEDD21965B
:10546000011DC13BD10780E00807B1F7F894FFCFD9
:1054700007090B0C0A080000A206800000000000CB
:105480002B035903000000000C1713170000400005
:1054900014005400000000009203A903250300003B
:1054A0000000820389031C030000000072037903DB
:1054B0001F030000000062036903220300000000D4
:1054C0005D021C171E02FC011002A3020000000076
:1054D00031110211FA10E610D710D61000000000AA
:1054E00083071C17000000005F116E112803546F22
:1054F0006461793A200030373A33333A313000531F
:105500006561736F6E2031005472656520310054FF
:10551000696D6520666F7220776174657200416401
:1055200064004D61782074656D70004D617820686D
:10553000756D69005472656520320054726565208E
:1055400033004661726D426F7420436F6E74726FE8
:105550006C6C6572007370656564004E6F206D65DC
:0C5560006E75003230002F003A00780019
:00000001FF
