:1000000091C10000C0C10000BEC10000BCC1000021
:10001000BAC10000B8C10000B6C10000B4C1000000
:10002000B2C10000B0C10000AEC10000ACC1000010
:10003000AAC10000A8C10000A6C10000A4C1000020
:10004000A2C10000A0C100009EC100009CC1000030
:100050007EC7000098C1000096C100002EC70000B6
:1000600092C100005AC600002FC600008CC10000DB
:100070008AC1000088C1000086C1000084C1000060
:1000800082C1000080C100007EC100007CC1000070
:100090007AC1000078C1000076C100000C94070C02
:1000A00072C1000070C100006EC100006CC1000090
:1000B0006AC1000068C1000066C1000064C10000A0
:1000C00062C1000060C100005EC100005CC10000B0
:1000D0005AC1000058C1000056C1000054C10000C0
:1000E00052C10000DE06E106D006D406DA06180783
:1000F000E506E906EF06F306F706FD060107050724
:1001000018070B070F07130700407A10F35A00A0D7
:10011000724E18090010A5D4E80000E876481700D0
:1001200000E40B54020000CA9A3B000000E1F50510
:10013000000080969800000040420F000000A0865A
:1001400001000000102700000000E803000000008C
:100150006400000000000A00000000000100000030
:1001600000002C76D888DC674F0823DFC1DFAE594A
:10017000E1B1B796E5E3E453C63AE651997696E8DD
:10018000E6C28426EB898C9B62ED407C6FFCEFBC61
:100190009C9F40F2BAA56FA5F490055A2AF75C938C
:1001A0006B6CF9676DC11BFCE0E40D47FEF520E6C2
:1001B000B500D0ED902E0300943577050080841EA5
:1001C000080000204E0A000000C80C333333330F00
:1001D000986E12831141EF8D2114893BE65516CF9D
:1001E000FEE6DB18D1844B381BF77C1D901DA4BBA9
:1001F000E424203284725E228100C9F124ECA1E55E
:100200003D2700002100240027002A002D00300097
:10021000330001010000040107010A010000200071
:100220002300260029002C002F00320000010000CE
:1002300003010601090100002200250028002B000F
:100240002E003100340002010000050108010B01FD
:1002500005050505070508080808020202020A0A42
:100260000808040404040101010101010101030360
:10027000030303030303040707070C0C0C0C0C0C0B
:100280000C0C0202020206060606060606060B0B08
:100290000B0B0B0B0B0B0102102020080810204049
:1002A000102040800201020108040201010204083A
:1002B00010204080804020100804020180040201C8
:1002C0008040201008040201080402010102040811
:1002D00010204080010204081020408000000A0B1A
:1002E00002090C0D0E0807030401000000000000C5
:1002F00000000000000000000000000000000000FE
:1003000000000000000000001211100000000000BA
:1003100000000000000000000000000000000000DD
:100320000000101C11241FBECFEFD1E2DEBFCDBFF5
:1003300000E00CBF25E0A6EFB2E001C01D92AD3396
:10034000B207E1F712E0A0E0B2E0E4EBF6E400E08F
:100350000BBF02C007900D92A63FB107D9F711E07D
:10036000C2E9D1E000E006C021970109802FFE011B
:100370000E941721C139D10780E00807A9F70E9420
:1003800034130C9458233CCEFC01918D828D981728
:1003900061F0828DDF01A80FB11D5D968C91928D69
:1003A0009F5F9F73928F90E008958FEF9FEF089566
:1003B000FC01918D828D981731F0828DE80FF11D2F
:1003C000858D90E008958FEF9FEF0895FC01918D4A
:1003D000228D892F90E0805C9F4F821B91098F7343
:1003E000992708958FE394E0F1DF21E0892B09F448
:1003F00020E0822F0895FC01848DDF01A80FB11D3C
:10040000A35ABF4F2C91848D90E001968F7399274A
:10041000848FA689B7892C93A089B1898C91806437
:100420008C93938D848D981306C00288F389E02DF8
:1004300080818F7D80830895EF92FF920F931F93A9
:10044000CF93DF93EC0181E0888F9B8D8C8D981387
:1004500005C0E889F989808185FD23C0F62E0B8DC2
:1004600010E00F5F1F4F0F731127E02E8C8DE812E5
:100470000BC00FB607FCFACFE889F989808185FFA8
:10048000F5CFCE01B8DFF2CF8B8DFE01E80FF11D65
:10049000E35AFF4FF0820B8FEA89FB8980818062EB
:1004A00007C0EE89FF896083E889F98980818064CB
:1004B000808381E090E0DF91CF911F910F91FF90B9
:1004C000EF900895CF93DF93EC01888D8823C1F0DE
:1004D000EA89FB89808185FD05C0A889B9898C914D
:1004E00086FD0EC00FB607FCF5CF808185FFF2CFE9
:1004F000A889B9898C9185FFEDCFCE017CDFE8CF4B
:10050000DF91CF91089580E090E0892B19F06ADFA8
:10051000811125C080E090E0892B41F080E090E0DF
:10052000892B21F00E94000081111CC080E090E026
:10053000892B41F080E090E0892B21F00E9400009F
:10054000811113C080E090E0892BA1F080E090E061
:10055000892B81F00E94000081110AC008950E9439
:100560000000D8CF0E940000E1CF0E940000EACF37
:100570000C94000008953FB7F89480917303909114
:100580007403A0917503B091760326B5A89B05C0AE
:100590002F3F19F00196A11DB11D3FBFBA2FA92F02
:1005A000982F8827820F911DA11DB11DBC01CD017F
:1005B00042E0660F771F881F991F4A95D1F708956B
:1005C00082E090E0089583E090E0089581E090E07B
:1005D000089580E090E00895089585ED8093BC0033
:1005E0008091BC0084FDFCCF10921C0408954091C2
:1005F0004903262F30E0240F311D21323105DCF470
:1006000020911C042430C9F4FC0180E090E086179E
:1006100058F4309149032191DC01A95DBC4FA30F2F
:10062000B11D2C930196F3CF80914903680F60931D
:10063000490380E0089581E0089582E008950895D7
:10064000E0910B0580910A05E81730F4F0E0E358DB
:10065000FC4F808190E008958FEF9FEF0895909177
:100660000B0580910A05981750F4E92FF0E0E35844
:10067000FC4F208130E09F5F90930B0502C02FEF6D
:100680003FEFC901089580910A0590E020910B0584
:10069000821B91090895CF92DF92EF92FF920F9300
:1006A0001F93CF93DF937C01262F972F8A01809190
:1006B0001D04882391F0C62FD72F6E01C40ED51EBE
:1006C000CC15DD0569F06991D701ED91FC910190A0
:1006D000F081E02DC7011995F3CF642F822F87DFBA
:1006E000C801DF91CF911F910F91FF90EF90DF90A4
:1006F000CF900895CF93DF931F92CDB7DEB7698374
:1007000020911D042223D1F020910805203240F0D1
:1007100021E030E0FC013383228380E090E014C0CC
:1007200080910905E82FF0E0E25EFB4F998190830C
:100730008F5F809309058093080504C061E0CE01B6
:10074000019655DF81E090E00F90DF91CF91089501
:100750000E944423CF93DF93EC0188E192E09983D8
:100760008883CE010C960E94A511CE010696DF91DA
:10077000CF910C94A51120E432E0FC013183208359
:10078000E9CFCF93DF93EC01F6DFCE01DF91CF917C
:100790000C94C82126E332E0FC0131832083DACFB8
:1007A000CF93DF93EC01F6DFCE01DF91CF910C9474
:1007B000C8212CE232E0FC0131832083CBCFCF93E0
:1007C000DF93EC01F6DFCE01DF91CF910C94C821CD
:1007D000CF93DF93EC0182E292E0998388838A8948
:1007E0009B89009739F0DC01ED91FC910280F38147
:1007F000E02D1995CE01DF91CF91ACCFCF93DF9350
:10080000EC01E6DFCE01DF91CF910C94C821CF93AC
:10081000DF93EC019FDFCE01DF91CF910C94C821D3
:10082000EF92FF920F931F93CF93DF93EC017B0125
:100830008C010A5F1F4FB8010C960E949011B701FE
:10084000C8010E94901181E08B83DF91CF911F91AD
:100850000F91FF90EF9008956F927F928F929F92E9
:10086000AF92BF92CF92DF92EF92FF920F931F93BE
:10087000CF93DF9300D000D0CDB7DEB76C014B0132
:100880005A01122F88E192E0F6019183808381E082
:10089000828313826EE872E0C60106960E941213EC
:1008A0006EE872E0C6010C960E941213F401648097
:1008B00063946482712CC301880F991F0E943321B5
:1008C0007C0120E0F1E06F1A7108422F50E0F40142
:1008D000828193814615570574F4440F551FFC011E
:1008E000E40FF51F80819181F701E40FF51F9183DB
:1008F00080832F5FEACF009711F00E94C821F40196
:10090000F382E2828481F701E80FF11DE80FF11D07
:100910003297D182C082B501CE0101960E94301279
:10092000BE016F5F7F4FC6017BDFCE0101960E9443
:10093000A511F6011483058326960FB6F894DEBF41
:100940000FBECDBFDF91CF911F910F91FF90EF9020
:10095000DF90CF90BF90AF909F908F907F906F90DF
:100960000895CF93DF93CDB7DEB7A4970FB6F89471
:10097000DEBF0FBECDBF4AE06091A103CE010D9650
:100980000E9404124AE06091A203CE0107960E94E1
:1009900004126091A30370E06F3171051CF06E5179
:1009A000710906C08EE190E09C01261B370BB9014E
:1009B0004AE0CE014F960E94D9116EE772E0CE0157
:1009C00043960E941213BE016D5E7F4FCE01499681
:1009D0000E943012BE01615E7F4FCE0149960E9497
:1009E0004B11BC01CE0101960E943012CE014996F6
:1009F0000E94A511CE0143960E94A511CE014F96EB
:100A00000E94A51189899A89019709F566E972E022
:100A1000CE0143960E941213BE016D5E7F4FCE0140
:100A200049960E943012BE01635F7F4FCE01499606
:100A30000E944B11BC01CE010D960E949011CE0177
:100A400049960E94A511CE0143960E94A5118B855F
:100A50009C85019709F566E972E0CE0143960E94F4
:100A60001213BE016D5E7F4FCE0149960E94301277
:100A7000BE01695F7F4FCE0149960E944B11BC01B8
:100A8000CE0107960E949011CE0149960E94A511B1
:100A9000CE0143960E94A511BE01635F7F4FCE0138
:100AA00043960E94301261E872E0CE0143960E94A4
:100AB0003411BE01695F7F4F0E944B1161E872E003
:100AC0000E943411BE016F5F7F4F0E944B11BC0129
:100AD000CE0149960E943012BE01675E7F4F809121
:100AE0007B0390917C039CDECE0149960E94A51168
:100AF000CE0143960E94A511CE0101960E94A51138
:100B0000CE0107960E94A511CE010D960E94A51157
:100B1000A4960FB6F894DEBF0FBECDBFDF91CF9184
:100B20000895CF93DF93CDB7DEB76E970FB6F894E5
:100B3000DEBF0FBECDBF4AE060919F03CE010D9690
:100B40000E9404124AE060919E03CE0107960E9423
:100B500004124AE060919D03CE0101960E940412A6
:100B600089899A89019709F566E972E0CE01439671
:100B70000E941213BE016D5E7F4FCE0149960E9406
:100B80003012BE01635F7F4FCE0149960E944B1128
:100B9000BC01CE010D960E949011CE0149960E9493
:100BA000A511CE0143960E94A5118B859C850197C6
:100BB00009F566E972E0CE0143960E941213BE0168
:100BC0006D5E7F4FCE0149960E943012BE01695F73
:100BD0007F4FCE0149960E944B11BC01CE01079672
:100BE0000E949011CE0149960E94A511CE01439614
:100BF0000E94A5118D819E81019709F566E972E039
:100C0000CE0143960E941213BE016D5E7F4FCE014E
:100C100049960E943012BE016F5F7F4FCE01499608
:100C20000E944B11BC01CE0101960E949011CE0191
:100C300049960E94A511CE0143960E94A511BE01BE
:100C4000635F7F4FCE0143960E94301263E872E0EB
:100C5000CE0143960E943411BE01695F7F4F0E940E
:100C60004B1163E872E00E943411BE016F5F7F4F49
:100C70000E944B11BC01CE0149960E943012BE0168
:100C8000675E7F4F8091790390917A03C9DDCE0131
:100C900049960E94A511CE0143960E94A511CE014E
:100CA00001960E94A511CE0107960E94A511CE01C2
:100CB0000D960E94A5116E960FB6F894DEBF0FBE7A
:100CC000CDBFDF91CF9108951F920F920FB60F9273
:100CD00011240BB60F922F933F934F935F936F9313
:100CE0007F938F939F93AF93BF93EF93FF938FE384
:100CF00094E081DBFF91EF91BF91AF919F918F9134
:100D00007F916F915F914F913F912F910F900BBE0B
:100D10000F900FBE0F901F9018951F920F920FB655
:100D20000F9211240BB60F922F938F939F93EF93F3
:100D3000FF93E0914F04F09150048081E0915504BD
:100D4000F091560482FD12C09081809158048F5F0B
:100D50008F7320915904821751F0E0915804F0E00C
:100D6000E15CFB4F958F8093580401C08081FF9117
:100D7000EF919F918F912F910F900BBE0F900FBE0F
:100D80000F901F90189590E0FC013197E231F1052A
:100D900008F04EC08827EE58FF4F8F4F0C94172154
:100DA000809180008F7703C0809180008F7D809339
:100DB0008000089580918000877FF9CF84B58F7778
:100DC00002C084B58F7D84BD08958091B0008F7777
:100DD00003C08091B0008F7D8093B0000895809112
:100DE00090008F7707C0809190008F7D03C0809125
:100DF0009000877F8093900008958091A0008F7766
:100E000007C08091A0008F7D03C08091A000877FE4
:100E10008093A0000895809120018F7707C0809172
:100E200020018F7D03C080912001877F8093200166
:100E300008958F929F92AF92BF92CF92DF92EF92DE
:100E4000FF926B017C0197DB4B015C01C114D10463
:100E5000E104F104E9F08FDBDC01CB018819990989
:100E6000AA09BB09883E9340A105B10578F321E0AA
:100E7000C21AD108E108F10888EE880E83E0981EB6
:100E8000A11CB11CC114D104E104F10421F7DECF8F
:100E9000FF90EF90DF90CF90BF90AF909F908F909A
:100EA00008952FB7F89460916F037091700380914B
:100EB0007103909172032FBF08951F920F920FB686
:100EC0000F9211242F933F938F939F93AF93BF93D0
:100ED00080916F0390917003A0917103B0917203A0
:100EE00030916E0323E0230F2D3720F40196A11DCE
:100EF000B11D05C026E8230F0296A11DB11D209348
:100F00006E0380936F0390937003A0937103B0936B
:100F100072038091730390917403A0917503B09153
:100F200076030196A11DB11D809373039093740302
:100F3000A0937503B0937603BF91AF919F918F916A
:100F40003F912F910F900FBE0F901F9018951F92F9
:100F50000F920FB60F9211240BB60F922F933F935F
:100F60004F935F936F937F938F939F93AF93BF93B1
:100F7000CF93DF93EF93FF9386E09FEF90938500ED
:100F8000809384008091DE04882309F470C08091EE
:100F9000E1049091E20401969093E2048093E104CD
:100FA0002091E3043091E4048217930708F45FC0B2
:100FB0001092E2041092E1048091E504E091DC04D7
:100FC000F091DD0427E0829FE00DF11D1124868160
:100FD000882321F00190F081E02D19956091DE04C5
:100FE000A091E304B091E404E091DC04F091DD040D
:100FF00020E0CF01261749F0448155814A1B5B0B45
:10100000558344832F5F3796F5CF2091E504FC018B
:1010100037E0239FE00DF11D1124228133813583B8
:1010200024831092E504FC0121E03091E5042617A9
:1010300090F4EC0147E0349FC00DD11D1124A3852D
:10104000B4854C815D81A417B50710F42093E504A5
:101050002F5F3796EACFFC0127E0329FE00DF11DAC
:101060001124848195819093E4048093E304FF919B
:10107000EF91DF91CF91BF91AF919F918F917F9130
:101080006F915F914F913F912F910F900BBE0F90F9
:101090000FBE0F901F901895FC01248131E0309312
:1010A0001D0420933E0410920905109208058385C3
:1010B000682B8CE095E01EDB81E0D1C50F931F9378
:1010C000CF938C01C62FE8DF6C2F6460C801E4DF8A
:1010D0006C2F6B7FC801E0DF83EC90E00197F1F7A4
:1010E000CF911F910F9108950F931F93CF938C0170
:1010F000C62F607F6160E2DF80E1C89FB0011124EC
:101100006160C801DBDF81E090E0CF911F910F911A
:1011100008950F931F93CF938C01C62F607FCEDF6E
:1011200080E1C89FB0011124C801CF911F910F9198
:10113000C5CFFC016681262F226026836A60E9CF35
:10114000CF93DF93CDB7DEB728970FB6F894DEBF05
:101150000FBECDBF9C0188E0ECE0F2E0DE0111960D
:1011600001900D928A95E1F7F9018085841710F4BA
:101170004FEF480FFE013196E40FF11DE40FF11D12
:101180009081690F6068C90128960FB6F894DEBF98
:101190000FBECDBFDF91CF91BCCF61E0BADF8BE353
:1011A0009FE10197F1F70895CF92DF92EF92FF92BE
:1011B0000F93CF93DF93CDB7DEB727970FB6F89491
:1011C000DEBF0FBECDBF7C016B01BA01CE0101961F
:1011D0002F830E9430122F81AE014F5F5F4FB60107
:1011E000C7013ADBCE0101960E94A5118CE292E084
:1011F000F70191838083138A128A27960FB6F89499
:10120000DEBF0FBECDBFDF91CF910F91FF90EF906A
:10121000DF90CF900895AF92BF92DF92EF92FF924E
:101220000F931F93CF93DF93CDB7DEB72C970FB6F5
:10123000F894DEBF0FBECDBF8C015B016EE872E09B
:10124000CE0101960E941213F801278D30A141A111
:1012500052A1638D748D858D968D0E940021181684
:10126000A4F17801F6E0EF0EF11CB701C8010C966D
:101270000E949011BE016F5F7F4FCE0107960E94C2
:101280003012B501CE0107960E944B11BC01C70177
:101290000E949011CE0107960E94A51181E0F801ED
:1012A0008383CE0101960E94A5112C960FB6F89467
:1012B000DEBF0FBECDBFDF91CF911F910F91FF9089
:1012C000EF90DF90BF90AF900895D12CF801638D1F
:1012D000748D858D968D0E94CF204AE0CE010796B1
:1012E0000E94D911EB84FC84F50184819581E81A70
:1012F000F90ACE0107960E94A5118D2D90E08E155A
:101300009F0508F0AECFBE016F5F7F4FCE010796FD
:101310000E94301266E972E0CE010796A5D7BC01A3
:10132000CE010196FDD7CE0107960E94A511D39458
:10133000CDCF4F925F926F927F928F929F92AF929A
:10134000BF92CF92DF92EF920F93CF93DF93CDB7FF
:10135000DEB72B970FB6F894DEBF0FBECDBF6C0182
:101360003B0149015A01202F0E2D6EE872E0CE019B
:1013700001962B870E9412132B85AE014F5F5F4FA2
:10138000B301C60169DACE010196DFD786E392E0A8
:10139000F60191838083138E148E158E168E178E10
:1013A00010A211A212A2C501B4010E94CF206F8326
:1013B000788789879A872F813885B901330F880B01
:1013C000990B0E94521F9B01AC01C501B4010E9400
:1013D000022020E030E0A9010E944C1F811105C0CD
:1013E00080E090E0A0E8BFE31AC02AE037ED43E2D6
:1013F0005CE3C501B4010E9467200E94CF20CB01AD
:101400006AE070E00E940421811105C08DEC9CEC23
:10141000ACECBDE304C08AE097EDA3E2BCE3F601C7
:10142000828B938BA48BB58BF601868A978AA08ECC
:10143000B18E4288538864887588C301B2010E94C6
:10144000CF20072E000C880B990B0E94521F9B0186
:10145000AC01C301B2010E94022020E030E0A901EA
:101460000E944C1F811107C04AE06F817885CE0130
:1014700001969FD706C022E0B501A401CE010196D6
:1014800069D7BE016F5F7F4FC601C5DECE010196F1
:101490005CD7F601128E2B960FB6F894DEBF0FBE06
:1014A000CDBFDF91CF910F91EF90DF90CF90BF90A4
:1014B000AF909F908F907F906F905F904F90089526
:1014C000CF92DF92EF92FF920F93CF93DF93CDB73E
:1014D000DEB727970FB6F894DEBF0FBECDBF7C01F5
:1014E0006B01BA01CE0101962F83BAD72F81AE01CD
:1014F0004F5F5F4FB601C701AFD9CE01019625D727
:1015000080E492E0F7019183808327960FB6F894E8
:10151000DEBF0FBECDBFDF91CF910F91FF90EF9057
:10152000DF90CF9008958F929F92AF92BF92DF92FB
:10153000EF92FF920F931F93CF93DF9300D000D0D1
:10154000CDB7DEB7F090260326E0F21609F4CEC040
:10155000009118050F5F0093180510E0C80153E0D3
:10156000880F991F5A95E1F70E9433215C0180E0B2
:101570000150110998E0282F30E0E0911905F09111
:101580001A05201731078CF443E0220F331F4A95C8
:10159000E1F7D501A20FB31FE20FF31F292F01902E
:1015A0000D922A95E1F78F5FE6CF309719F0CF01C2
:1015B0000E94C821B0921A05A09219052F2D217002
:1015C000220FD22EDD0CDD0CD20E1F2D16951F5FC3
:1015D00083E290E00E9433215C01E0917703F09177
:1015E000780362897389E12E0D2D20E030E040E41C
:1015F00051E49FDEE090260338E0E39EC001112411
:10160000FC01EA50FD4F7F01B182A08280E090E0B2
:10161000A0E4B1E4F501838F948FA58FB68F63E8C2
:1016200072E0CE010196FED782E190E00E94332164
:101630005C0122E02D0DE0917703F091780362893F
:101640007389012FAE014F5F5F4F3ADFF701B3821D
:10165000A282CE01019679D683E290E00E943321E6
:101660004C0103E00D0DE0917703F091780362895E
:101670007389E12E20E030E040E751E45ADEF0903B
:101680002603F8E0FF9EC00111249C012A503D4F23
:101690005901F9019582848280E090E0ACE6B2E4E1
:1016A000F401838F948FA58FB68F65E872E0CE0129
:1016B0000196B8D784E190E00E9433214C0126E0E6
:1016C0002D0DE0917703F091780362897389012FE2
:1016D000AE014F5F5F4F68DDF50197828682CE01D4
:1016E000019633D681E08F0D8093260326960FB6A0
:1016F000F894DEBF0FBECDBFDF91CF911F910F9148
:10170000FF90EF90DF90BF90AF909F908F900895E3
:10171000CF92DF92EF92FF920F93CF93DF93CDB7EB
:10172000DEB727970FB6F894DEBF0FBECDBF7C01A2
:101730006B01BA01CE0101962F8392D62F81AE01A3
:101740004F5F5F4FB601C70187D8CE010196FDD527
:1017500082E292E0D7018D939C9386E090E00E9414
:101760003321FC0186E0DF011D928A95E9F714829E
:10177000158282E592E091838083D7015396FC9392
:10178000EE93529727960FB6F894DEBF0FBECDBFEB
:10179000DF91CF910F91FF90EF90DF90CF90089560
:1017A0000F931F93CF938C018AE492E0D8018D931D
:1017B0009C93C0E0F80184810280F381E02DC8177A
:1017C00088F4EC0FF11DEC0FF11D808191810097E1
:1017D00039F0DC01ED91FC910280F381E02D199547
:1017E000CF5FE8CF309731F0CF01CF911F910F91AC
:1017F0000C94C821CF911F910F910895CF93DF933F
:10180000EC01CEDFCE01DF91CF910C94C8211F9265
:101810000F920FB60F9211240BB60F922F933F9396
:101820004F935F936F937F938F939F93AF93BF93E8
:10183000EF93FF938091B900887F803609F49CC0B4
:1018400068F5883209F45BC090F4803109F454C023
:1018500038F4882309F4F6C0883009F44DC0F6C086
:10186000883109F44CC0803209F45DC0EFC0803487
:1018700009F468C048F4803309F455C0883309F08E
:10188000E5C080931A04D8C0803509F44FC088356C
:1018900009F45DC0883409F0D9C0D6C0883909F48C
:1018A000C7C0A8F4883709F467C038F4883609F44B
:1018B00063C0803709F460C0C9C0883809F4B8C073
:1018C000803909F45FC0803809F0C0C05BC0803B3C
:1018D00009F486C038F4803A09F466C0883A09F4FD
:1018E0007FC0B4C0803C09F4A7C0883C09F4A4C000
:1018F000883B09F48AC0AAC08091F70310C0909178
:10190000190480911804981770F5E091190481E08A
:101910008E0F80931904F0E0E850FC4F8081809393
:10192000BB0085EC86C080931A048EC0E091190438
:1019300081E08E0F809319048091BB00F0E0E850A5
:10194000FC4F808390911904809118046EC0E0913F
:10195000190481E08E0F809319048091BB00F0E0A0
:10196000E850FC4F808380911B0481116DC081E0A1
:101970008093F60384EA61C083E080931C04109294
:101980006D03CFCF80916D03803208F051C0E0919C
:101990006D0381E08E0F80936D038091BB00F0E0BA
:1019A000E35BFC4F8083BDCF85EC8093BC0010923D
:1019B0001C0480916D03803230F4E0916D03F0E0FF
:1019C000E35BFC4F108260916D0370E0E0914B038C
:1019D000F0914C038DE493E0199510926D0336C09D
:1019E00084E080931C0410924A0310924903E09112
:1019F0004703F0914803199580914903811105C06F
:101A000081E08093490310922703E0914A0381E02B
:101A10008E0F80934A03F0E0E95DFC4F8081809354
:101A2000BB0090914A0380914903981708F479CF3D
:101A300085E88093BC000AC085EC8093BC001092BE
:101A40001C0404C010921A040E94ED02FF91EF9151
:101A5000BF91AF919F918F917F916F915F914F91C6
:101A60003F912F910F900BBE0F900FBE0F901F90C4
:101A7000189510921C0481E080931B041092F603C9
:101A800084E155D285E153D2E9EBF0E080818E7F8D
:101A9000808380818D7F808388E48093B80085E493
:101AA0008093BC00089522E532E0FC01318320835D
:101AB00077CECF93DF93EC01F6DFCE01DF91CF91AC
:101AC0000C94C821CF93DF93EC0188819981009712
:101AD00011F00E94C821198218821D821C821B826B
:101AE0001A82DF91CF9108950F931F93CF93DF93C5
:101AF000EC0188819981009729F02A813B81261782
:101B0000370788F48B016F5F7F4F0E946022009738
:101B100061F0998388831B830A832C813D81232B69
:101B200011F4FC01108281E001C080E0DF91CF91CF
:101B30001F910F910895EF92FF920F931F93CF93F0
:101B4000DF93FC01248135816115710511F480E07A
:101B500018C041155105A1F07B01EC018A01020F6B
:101B6000131FB801C1DF882391F3288139818C814B
:101B70009D81B701820F931F0E9451231D830C8307
:101B800081E0DF91CF911F910F91FF90EF90089529
:101B9000EF92FF920F931F93CF93DF938C0190915D
:101BA000DE0481E0890F8093DE04E82EF12C27E02B
:101BB000829FC00111240E943321EC01FC01A70186
:101BC00081E0E114F10461F011821082138212822B
:101BD000158214828683379661E0E61AF108F1CF08
:101BE00090E04150510987E0292F30E0E091DC047A
:101BF000F091DD042417350784F467E0969F900187
:101C00001124DE01A20FB31FE20FF31F282F019052
:101C10000D922A95E1F79F5FE7CF309719F0CF013A
:101C20000E94C821D093DD04C093DC048091DE04BF
:101C300097E0899FC00DD11D112427971983088330
:101C400088EE93E09B838A831D821C8281E08E83D1
:101C5000DF91CF911F910F91FF90EF900895382F52
:101C60002091080590913E04213208F049C08091EE
:101C70001C048111FCCF42E040931C0430931B04F0
:101C80003FEF30931A041092190420931804AEE128
:101C9000B4E048EF53E0FA013E2F341B321718F43A
:101CA0003D913193F9CF1092F7032091F703990FEB
:101CB000922B9093F7039091F603913061F4109278
:101CC000F6039091F7039093BB009091BC0093FDB5
:101CD000F8CF95EC01C095EE9093BC0090911C0458
:101CE0009230E1F390911A049F3F79F080911A04A9
:101CF000803241F080911A04803331F084E005C0D5
:101D000081E003C082E001C083E0109209051092D7
:101D1000080510921D040895FF920F931F93CF930F
:101D2000DF939093050580930405C0E0D1E0E09136
:101D30000405F09105058481C817D0F49281838150
:101D4000E92FF82FEC0FF11DEC0FF11D808191812F
:101D5000DC01ED91FC910480F581E02D199501974E
:101D600029F0E0910405F0910505D583CF5FDFCF21
:101D7000809102058F3F41F024818091E60490918B
:101D8000E704211118C01AC02091ED04A091EB04C2
:101D9000B091EC0480E090E0821751F04D915D919C
:101DA0004E175F0719F48093030591E08F5FF4CF1E
:101DB0009111E2CF6FC0258121110FC01092EA046A
:101DC000FC0166816D7F66836860A3D9A0910405DC
:101DD000B091050580E021E046C021E02093EA04AF
:101DE000A8D9D4E684E6F82EC0E0E0910405F0918D
:101DF00005058481C81790F592818381E92FF82F1A
:101E0000EC0FF11DEC0FF11D00811181D801ED9156
:101E1000FC910480F581E02DC80119950197E1F04E
:101E2000F8012581422F50E08D2F0D2E000C990BCB
:101E30004817590751F4848190E04F2D0F2C000C66
:101E4000550B8417950724F007C04817590724F449
:101E5000D8011496FC90D22FCF5FC7CFF092E80440
:101E6000D093E904B3CF14969C911497891790F4FA
:101E700012963C91129713969C911397E32FF92F8A
:101E8000E80FF11DE80FF11D0190F081E02D238393
:101E90008F5FE9CFDF91CF911F910F91FF90089550
:101EA000EF92FF920F931F93CF93DF937C010091EA
:101EB000ED040F5F0093ED0410E0C801880F991F37
:101EC0000E943321EC018091EB049091EC0440E0FE
:101ED00001501109242F30E02017310774F4220F2C
:101EE000331FFC01E20FF31F60817181FE01E20FDD
:101EF000F31F718360834F5FEDCF009711F00E9455
:101F0000C821D093EC04C093EB048091ED049E01B2
:101F1000280F311D280F311DF9013297F182E0821F
:101F2000DF91CF911F910F91FF90EF900895CF9384
:101F3000DF93282F30E0F901E452FD4F8491F9013D
:101F4000EA56FD4FD491F901E05BFD4FC491CC23DB
:101F500089F081110E94C306EC2FF0E0EE0FFF1F05
:101F6000EA5CFD4FA591B4918FB7F894EC91ED2BFD
:101F7000EC938FBFDF91CF9108950F931F93CF9371
:101F8000DF938C018DE295E09093E7048093E60463
:101F900081E08093EA048FEF8093E8048093E90462
:101FA00010920B0510920A0510920905109208056F
:101FB00060DD1092320580913705823018F098E08C
:101FC000909332058093350562E370E080E090E005
:101FD0000E941907609138058DE295E05DD868EEA2
:101FE00073E080E090E00E94190760E38DE295E0E5
:101FF00065D8CBE4D6E4CE010197F1F760E38DE23A
:1020000095E05CD82197F1F760E38DE295E056D832
:1020100083E592E00197F1F760E28DE295E04ED81A
:1020200090913205692F60628DE295E072D884E06C
:10203000809333056CE08DE295E06BD88DE295E0FE
:10204000ACD882E08093340566E08DE295E061D8FB
:1020500062E08DE295E05DD8EBE3FFE13197F1F7C7
:10206000E091E604F091E70488E0838760E0CF0127
:1020700013D88091E6049091E7045BD840E060E0DB
:102080008091E6049091E7045BD8B8018091E60462
:102090009091E704DBD268EE73E080E090E00E946C
:1020A00019078091E6049091E70477D88FEF809329
:1020B0000305DF91CF911F910F9108958F929F9209
:1020C000AF92BF92EF92FF920F931F93CF93DF9344
:1020D0009091ED032091EE033091EF0300E009179A
:1020E00009F467C02D5F3F4FF901339740814817CE
:1020F00011F00F5FF4CF282F30E0F901E452FD4FCB
:102100008491F901EA56FD4FD491F901E05BFD4F4E
:10211000C49110E0CC2379F081110E94C306EC2F0A
:10212000F0E0EE0FFF1FE45EFD4FA591B491EC913E
:10213000ED2309F067C00E9451077801EE0CFF1CE7
:10214000EE0CFF1CE091F203F091F3039801220FD3
:10215000331FE20FF31FA091F003B091F103AE0D16
:10216000BF1D8D909D90AD90BC909B01AC01281936
:1021700039094A095B0949015A014081518160E0EE
:1021800070E08091F4039091F503481559056A05B4
:102190007B0548F421E0DC01A00FB11F2C9324E65D
:1021A00030E031832083FC01E00FF11FC081C111B9
:1021B00002C0C0E04DC00E9451072091F003309151
:1021C000F103E20EF31EF70180809180A280B380BC
:1021D000DC01CB0188199909AA09BB094497A1051B
:1021E000B10538F30E945107F70160837183828340
:1021F00093838091F4039091F503FC01E00FF11FAC
:10220000108226C0C801880F991F880F991FC0919E
:10221000F003D091F103C80FD91F0E9451076883C2
:1022200079838A839B83E091F403F091F503E00FB7
:10223000F11F81E08083000F111FE091F203F09104
:10224000F303E00FF11F88EE93E091838083B1CF19
:102250008C2FDF91CF911F910F91FF90EF90BF9046
:10226000AF909F908F900895CF93DF93EC0161150D
:10227000710559F0FB0101900020E9F73197AF019A
:10228000461B570B58DC811102C0CE011BDCCE016E
:10229000DF91CF910895CF93DF93EC01FB0144814F
:1022A00055816081718147DC811102C0CE010ADC59
:1022B000CE01DF91CF910895EF92FF920F931F937C
:1022C000CF93DF93EC017B018A01BA010DDC811110
:1022D00003C0CE01F7DB07C01D830C83B7018881E3
:1022E00099810E945123CE01DF91CF911F910F91CF
:1022F000FF90EF900895CF93DF93EC016115710586
:1023000051F0FB0101900020E9F73197AF01461B26
:10231000570BD2DF01C0D6DBCE01DF91CF910895FC
:10232000CF93DF93EC01FB018617970751F0608193
:1023300071816115710521F044815581BDDF01C0B6
:10234000C1DBCE01DF91CF910895FC0180819181A5
:102350000C94C821EF92FF920F931F93CF93DF93BA
:10236000CDB7DEB7A1970FB6F894DEBF0FBECDBFD5
:102370007C01CB01BA01F701118210821382128213
:102380001582148242E0420F8E010F5F1F4F0E94A0
:10239000811CBC01C701AFDFA1960FB6F894DEBF68
:1023A0000FBECDBFDF91CF911F910F91FF90EF90A6
:1023B00008950F931F93CF93DF93CDB7DEB7629746
:1023C0000FB6F894DEBF0FBECDBF8C01CB01F80174
:1023D00011821082138212821582148250E0BE0193
:1023E0006F5F7F4F0E94A01CBE016F5F7F4FC801CF
:1023F00082DF62960FB6F894DEBF0FBECDBFDF91CD
:10240000CF911F910F9108950F931F93CF93DF9357
:10241000CDB7DEB729970FB6F894DEBF0FBECDBF9C
:102420008C01862FF801118210821382128215828C
:10243000148250E0BE016F5F7F4F90E00E94B41C99
:10244000BE016F5F7F4FC80156DF29960FB6F89423
:10245000DEBF0FBECDBFDF91CF911F910F910895C9
:10246000FC0111821082138212821582148258CFCD
:10247000EF92FF920F931F93CF93DF93CDB7DEB709
:102480002C970FB6F894DEBF0FBECDBF7C016EE86F
:1024900072E0CE010796C6D0F70120893189211557
:1024A000310511F4128501C0122F00E00117A1F0CF
:1024B000BE01695F7F4FCE010196D2DF6DE872E009
:1024C000CE010196D1DEBC01CE01079629DFCE01F7
:1024D00001963BDF0F5FEACFF70145816481809170
:1024E000E6049091E7040E94A008BE01695F7F4F57
:1024F0008091E6049091E704A9D0CE01079625DFEC
:102500002C960FB6F894DEBF0FBECDBFDF91CF91F2
:102510001F910F91FF90EF9008951F93CF93DF933A
:10252000809103058F3F79F48091E6049091E70450
:10253000DC01ED91FC910280F381E02D47E050E059
:102540006EEE72E0199510E0E0910405F09105053A
:102550008481181778F592818381E92FF82FE10F94
:10256000F11DE10FF11DC081D1818B81882301F123
:102570008A81811103C0CE017BDF19C02889398986
:102580008A859B858217930710F4CE0171DF4D81F8
:102590006C818091E6049091E7040E94A008BE013E
:1025A0006A5F7F4F8091E6049091E7044FD01B82D1
:1025B0001F5FCACF4091E9046091E8048091E6046E
:1025C0009091E704DF91CF911F910C94A008CF92D6
:1025D000DF92EF92FF920F931F93CF93DF936C01E3
:1025E0007A018B01C0E0D0E0CE15DF0589F0D8017B
:1025F0006D918D01D601ED91FC910190F081E02D5E
:10260000C6011995892B11F47E0102C02196ECCFE9
:10261000C701DF91CF911F910F91FF90EF90DF9055
:10262000CF900895FC0111821082138212821582CC
:1026300014826115710549F0FB0101900020E9F752
:102640003197AF01461B570B37CE0895DC01ED9152
:10265000FC91DB0114964D915C9115976D917C91E5
:102660000280F381E02D1994CF93DF93CDB7DEB7CD
:102670002C970FB6F894DEBF0FBECDBF789484B50B
:10268000826084BD84B5816084BD85B5826085BD6E
:1026900085B5816085BD80916E00816080936E00FC
:1026A00010928100809181008260809381008091EE
:1026B000810081608093810080918000816080939F
:1026C00080008091B10084608093B1008091B0005F
:1026D00081608093B000809191008260809391002E
:1026E0008091910081608093910080919000816041
:1026F000809390008091A10082608093A1008091DE
:10270000A10081608093A1008091A00081608093EE
:10271000A00080912101826080932101809121019C
:10272000816080932101809120018160809320014C
:1027300080917A00846080937A0080917A00826030
:1027400080937A0080917A00816080937A008091F2
:102750007A00806880937A001092C100E0914F0463
:10276000F091500482E08083E0914B04F0914C049E
:102770001082E0914D04F0914E048FEC8083109212
:102780005704E0915304F091540416E01083E09153
:102790005104F0915204808180618083E091510462
:1027A000F0915204808188608083E0915104F0911F
:1027B0005204808180688083E0915104F09152043A
:1027C00080818F7D808386E090E00E9433217C01B0
:1027D000DC01E12F1D92EA95E9F7DC0114961C92C9
:1027E000149715961C92159702E5C02E02E0D02E84
:1027F000CD92DC929093D3038093D20367E872E08A
:10280000CE0101960FDF82E190E00E9433215C014E
:1028100000E020E0AE014F5F5F4FB7010E94600A09
:10282000B092D103A092D003CE0101968EDD6EE866
:1028300072E0CE010196F6DE82E190E00E94332143
:102840005C0128E0AE014F5F5F4FB7010E94600A54
:10285000B0927C03A0927B03CE01019676DD6FE8F7
:1028600072E0CE010196DEDE82E190E00E9433212B
:102870005C0101E028E0AE014F5F5F4FB7010E94AD
:10288000600AB0927A03A0927903CE0101965DDDD1
:1028900086E090E00E9433217C01FC0111921A95A0
:1028A000E9F7DC0114961C92149715961C92159763
:1028B000CD92DC929093CF038093CE0368E972E0CF
:1028C000CE010196AFDE82E190E00E9433216C01DF
:1028D00000E027E0AE014F5F5F4FB7010E94600A42
:1028E000D092CD03C092CC03CE0101962EDD61EAD9
:1028F00072E0CE01019696DE84E190E00E943321E1
:102900005C0102E020E0AE014F5F5F4FB7010E9423
:10291000880BB092CB03A092CA03CE01019615DDBD
:1029200068EA72E0CE0101967DDE84E190E00E94CB
:1029300033216C01F5016289738900E023E0AE0167
:102940004F5F5F4F0E94880BD0927803C09277034D
:10295000CE010196FADC67EB72E0CE01019662DEF1
:1029600084E190E00E9433217C01D60152966D9162
:102970007C91539720E0AE014F5F5F4F0E94D408D7
:10298000F092C903E092C803CE010196DEDC83E930
:102990009AE0F701938B828B6BEB72E0CE0101968C
:1029A00041DE82E190E00E9433217C01D501529604
:1029B0006D917C91539701E020E0AE014F5F5F4F36
:1029C0000E94600AF092C703E092C603CE0101960E
:1029D000BCDC83E290E00E9433216C01F501628946
:1029E0007389EE24E3940AE02AE037ED44E052E4F0
:1029F0000E949909D092C503C092C403F6E1CF0E9C
:102A0000D11CD0921C05C0921B0564EC72E0CE0173
:102A1000019608DE82E190E00E9433216C01E09093
:102A2000CA03F090CB03D70152966D917C915397D6
:102A300002E020E0AE014F5F5F4F0E94600AD0923B
:102A4000C303C092C203CE0101967FDC83E290E013
:102A50000E9433216C01F7016289738982E0E82EBC
:102A60000AE02DEC3CEC40E752E4C6010E949909D3
:102A7000D092C103C092C003F6E1CF0ED11CD09218
:102A80001E05C0921D056DEC72E0CE010196CADDF7
:102A900084E190E00E9433217C016091CE0370912B
:102AA000CF0302E027E0AE014F5F5F4F0E94880B2B
:102AB000F092BF03E092BE03CE01019646DC68EAC5
:102AC00072E0CE010196AEDD84E190E00E943321F8
:102AD0006C01D70152966D917C91539700E023E0F1
:102AE000AE014F5F5F4F0E94880BD092BD03C09232
:102AF000BC03CE01019629DC67EB72E0CE010196A2
:102B000091DD84E190E00E9433215C01F60162894D
:102B1000738920E0AE014F5F5F4F0E94D408B092EE
:102B2000BB03A092BA03CE0101960FDC6BEB72E0FF
:102B3000CE01019677DD82E190E00E9433216C01A5
:102B4000D70152966D917C91539701E020E0AE0140
:102B50004F5F5F4F0E94600AD092B903C092B803E2
:102B6000CE010196F2DB83E290E00E9433216C01FA
:102B7000F70162897389EE24E3940AE020E030E0F3
:102B800044E052E40E949909D092B703C092B60380
:102B9000F6E1CF0ED11CD0922305C092220564EC41
:102BA00072E0CE0101963EDD82E190E00E94332189
:102BB0006C01E090BE03F090BF03D70152966D9177
:102BC0007C91539702E020E0AE014F5F5F4F0E947F
:102BD000600AD092B503C092B403CE010196B5DB72
:102BE00083E290E00E9433216C01F70162897389CE
:102BF00092E0E92E0AE020E030E040E752E4C6012E
:102C00000E949909D092B303C092B203F6E1CF0EAD
:102C1000D11CD0922505C092240564ED72E0CE014E
:102C2000019600DD84E190E00E9433217C016091F7
:102C3000CE037091CF0302E02EE0AE014F5F5F4FF5
:102C40000E94880BF092B103E092B003CE0101968E
:102C50007CDB68EA72E0CE010196E4DC84E190E07E
:102C60000E9433216C01D70152966D917C9153974C
:102C700000E023E0AE014F5F5F4F0E94880BD092CF
:102C8000AF03C092AE03CE0101965FDB67EB72E04B
:102C9000CE010196C7DC84E190E00E9433215C0103
:102CA000F6016289738920E0AE014F5F5F4F0E9499
:102CB000D408B092AD03A092AC03CE01019645DBDF
:102CC0006BEB72E0CE010196ADDC82E190E00E94F8
:102CD00033216C01D70152966D917C91539701E09D
:102CE00020E0AE014F5F5F4F0E94600AD092AB03BD
:102CF000C092AA03CE01019628DB83E290E00E94F5
:102D000033216C01F70162897389EE24E3940AE0B0
:102D100020E030E044E052E40E949909D092A903F7
:102D2000C092A803F6E1CF0ED11CD0922A05C09222
:102D3000290564EC72E0CE01019674DC82E190E03A
:102D40000E9433216C01E090B003F090B103D701F1
:102D500052966D917C91539702E020E0AE014F5F57
:102D60005F4F0E94600AD092A703C092A603CE01D3
:102D70000196EBDA83E290E00E9433216C01F701C7
:102D80006289738922E0E22E0AE020E030E040E729
:102D900052E40E949909D092A503C092A403F6E1DF
:102DA000CF0ED11CD0922C05C0922B056BED72E09A
:102DB000CE01019637DCCE010196DFD8CE01019617
:102DC000C4DA0091D2031091D303C80169D880916D
:102DD000CE039091CF0364D8C8010E948C0E9DDB76
:102DE0008091EE039091EF03009711F00E94C821AB
:102DF0008091F2039091F303009711F00E94C82193
:102E00008091F4039091F503009711F00E94C8217E
:102E10008091F0039091F103009711F00E94C82176
:102E200086E08093ED0382E190E00E943321FC0173
:102E30009C012E5E3F4F128211823396E217F307F8
:102E4000D1F79093EF038093EE038CE090E00E9423
:102E500033219093F3038093F20386E090E00E9485
:102E600033219093F5038093F40388E190E00E946E
:102E700033219093F1038093F00370E048EE53E028
:102E8000A1E08091ED03781708F05FC0272F30E0B4
:102E900063E0769FC0011124F901E050FE4F60818C
:102EA000E091EE03F091EF03E80FF91F6083E091EA
:102EB000EE03F091EF03E80FF91F808190E0FC0131
:102EC000EA56FD4F6491FC01E05BFD4F849188233D
:102ED000D1F090E0880F991FFC01EE5FFD4F059146
:102EE0001491FC01EA5CFD4FE590F4909FB7F894D3
:102EF000F801B081862F80958B238083F701808134
:102F0000682B60839FBFC901880F991FE091F2036E
:102F1000F091F303E80FF91F51834083E091F4032C
:102F2000F091F503E20FF31FA083220F331F220F4E
:102F3000331FE091F003F091F103E20FF31F1082D1
:102F40001182128213827F5F9CCFF89410928000CE
:102F50001092810010926F008091810083608093B5
:102F6000810086E09FEF909385008093840081E04C
:102F700080936F0081E995E00E94C80D81EB94E099
:102F80000E94C80D40E057E0242F30E08091DE041D
:102F900090E00197281739070CF040C0B7E04B9F2D
:102FA0008001112421E08091DE042817A8F580918A
:102FB000DC049091DD04DC01A00FB11F12966D912D
:102FC0007C911397F7E02F9F800D911D1124FC0138
:102FD000E280F380E616F706E8F4CD90DC901197D6
:102FE0001496ED90FC90159716963C911697B52E79
:102FF00001900D92BA94E1F7DC011196DC92CE9229
:1030000013967C936E9312971596FC92EE921497FA
:1030100016963C932F5FC7CF4F5FB6CF789411E0E1
:1030200086E0282E9DE7C92E93E0D92E25EE322E7C
:1030300005EC10931D04E8E6E0933E0410920905A8
:103040001092080560E08CE095E00E947A0381E030
:103050000E942F0E882319F01092D403B2C010934F
:10306000D40380911C048111FCCF10931C04109395
:103070001B04FFEFF0931A04109219042092180415
:103080001093F7038091F703806D8093F70380918D
:10309000F603813069F41092F6038091F703809370
:1030A000BB008091BC0083FDF8CF0093BC0002C040
:1030B0003092BC0080911C048130E1F380911904AE
:1030C000873018F48091190401C087E0A8EFB3E0BD
:1030D000EDE7F3E09E2F9C19981718F49D919193BA
:1030E000F9CF10920B0580930A05873008F469C068
:1030F0008CE095E00E942F03982F969596959695D3
:103100009E70292F220F220F920F8F70890F8093AC
:103110009D038CE095E00E942F03982F92959F705D
:103120008F702AE0929F800D112480939E038CE083
:1031300095E00E942F03982F9695969596959670F8
:10314000292F220F220F920F8F70890F80939F03D8
:103150008CE095E00E942F03982F92959F708F70BE
:103160003AE0939F800D11248093A0038CE095E0BA
:103170000E942F03982F92959F708F704AE0949F22
:10318000800D11248093A1038CE095E00E942F0311
:10319000982F92959F708F705AE0959F800D112403
:1031A0008093A2038CE095E00E942F03982F9F70DC
:1031B000925E82958F706AE0869F900D11249093A5
:1031C000A30389E00E945E10882309F469C08091FE
:1031D000060590910705892B09F062C04FEF6FEF4C
:1031E000B12CE0910405F09105058481B81608F032
:1031F0004BC092818381E92FF82FEB0DF11DEB0D70
:10320000F11DE080F180D701ED91FC910480F58102
:10321000E02DC7014B876C8719954B856C8501970D
:1032200089F1F7015581852F90E02091E904022E64
:10323000000C330B821793076CF08217930711F57C
:10324000E481F0E02091E804022E000C330BE21739
:10325000F307C4F4242F042E000C330B281739076E
:1032600074F08217930771F4D70114968C9190E053
:10327000262F062E000C330B281739071CF4F701F4
:103280006481452FB394ADCF6F3F51F06093E80454
:103290004093E9048091E6049091E7040E94A0081D
:1032A0008BE00E945E10882309F469C080910605B6
:1032B00090910705892B09F062C04DE76DE7B12CAD
:1032C000E0910405F09105058481B81608F04BC023
:1032D00092818381E92FF82FEB0DF11DEB0DF11D8C
:1032E000E080F180D701ED91FC910480F581E02D23
:1032F000C7014B876C8719954B856C85019789F1C0
:10330000F7015581852F90E02091E904022E000CF1
:10331000330B281739076CF08217930711F5E481F6
:10332000F0E02091E804022E000C330B2E173F072B
:10333000C4F4242F042E000C330B8217930774F06F
:103340008217930771F4D70114968C9190E0262F81
:10335000062E000C330B821793071CF4F7016481CF
:10336000452FB394ADCF6D3751F06093E80440938F
:10337000E9048091E6049091E7040E94A0088CE0A3
:103380000E945E10882309F475C0E0900605F09055
:103390000705E114F10409F46DC0D70152968D9030
:1033A0009D90AD90BC90559756962D913D914D9125
:1033B0005C915997C501B40126D6F701668B778BCE
:1033C000808F918F238D348D458D568D2F83388737
:1033D00049875A8715D71816ACF4F701478C50A0C7
:1033E00061A072A02F81388549855A85C301B20139
:1033F00053D587FF07C0D70156964D925D926D92C7
:103400007C925997C501B401CAD6072E000C880BCF
:10341000990B48D59B01AC01C501B401F3D520E05F
:1034200030E0A90139D581110CC0F701668977898F
:10343000808D918DB4D64AE0CE0101960E94D911BB
:103440000CC0D70156964D915D916D917C91599725
:1034500022E0CE0101960E94AA11BE016F5F7F4F4C
:10346000C7010E940B09CE0101960E94A511F70128
:10347000138353D88AE00E945E10882309F476C033
:10348000E0900605F0900705E114F10409F46EC020
:10349000D70152968D909D90AD90BC905597A50107
:1034A000940156966D917D918D919C915997AAD5D5
:1034B000F701668B778B808F918F278D30A141A18B
:1034C00052A12F83388749875A87E6D487FF15C0D2
:1034D000F701438C548C658C768CA30192016F812B
:1034E000788589859A85D8D487FF07C0D7015696F5
:1034F0004D925D926D927C925997C501B4014FD661
:10350000072E000C880B990BCDD49B01AC01C50193
:10351000B40178D520E030E0A901BED481110CC0FF
:10352000F70166897789808D918D39D64AE0CE0181
:1035300001960E94D9110CC0D70156964D915D910C
:103540006D917C91599722E0CE0101960E94AA11BB
:10355000BE016F5F7F4FC7010E940B09CE0101962C
:103560000E94A511F70113830E948D1287E00E942B
:103570005E108823F1F18091060590910705892B53
:10358000C1F58091E6049091E7040E94CD08E09196
:103590000205EF3FF9F4809103058F5F80930305E7
:1035A0002091ED0430E0082E000C990B2817390704
:1035B00011F410920305E0910305EE0FFF0B8091CB
:1035C000EB049091EC04E80FF91F808191810E9437
:1035D0008C0E0DC0EE0FFF0BE251FB4F80819181ED
:1035E0000E948C0E809102058150809302050E94FA
:1035F0008D1288E00E945E10882309F476C0B12CF9
:10360000E0910405F09105058481B81608F06DC0BD
:1036100092818381E92FF82FEB0DF11DEB0DF11D48
:10362000E080F1802091E804022E000C330BD701DA
:1036300014968C91149790E02817390709F053C01D
:103640002091E904022E000C330B15968C911597EE
:1036500090E02817390709F046C0ED91FC910480ED
:10366000F581E02DC70119958230910511F1833064
:10367000910531F1892BB9F58091E6049091E70429
:103680000E94CD08E0910205EF5FE0930205EE0F86
:10369000FF0BE251FB4F809104059091050591834A
:1036A0008083F701828993890E948C0E0E948D127B
:1036B0001CC0D7015296ED91FC915397199513C0F8
:1036C000F0920705E0920605F701828D811102C094
:1036D000128F09C0128E128313830E948D121092D2
:1036E000070510920605B3948BCFE0910405F09185
:1036F00005058481882309F44CC08581882309F459
:1037000048C08091E50381110CC00E94510760936D
:10371000E1037093E2038093E3039093E403109337
:10372000E5030E9451078090E1039090E203A0908E
:10373000E303B090E403DC01CB0188199909AA09DD
:10374000BB09853F9140A105B10518F10E945107C1
:103750006093E1037093E2038093E3039093E403A7
:103760002091EA048091E6049091E704211105C0BC
:103770001093EA040E9499080CC01092EA04DC013C
:1037800016966C9116976D7F16966C9368600E94E2
:1037900089088091060590910705892BE1F18091B8
:1037A000D90381110CC00E9451076093D503709317
:1037B000D6038093D7039093D8031093D9030E9424
:1037C00051078090D5039090D603A090D703B09076
:1037D000D803DC01CB0188199909AA09BB09893CE6
:1037E0009105A105B105B8F00E9451076093D5037A
:1037F0007093D6038093D7039093D803E091060586
:10380000F091070513838281811102C0128301C0E8
:1038100012820E948D120E948D120E94830209CC96
:10382000CF92DF92EF92FF92EFE3F4E013821282E5
:1038300088EEC82E83E0D82EE12CF12CC482D582EC
:10384000E682F7828AE592E09183808385EC90E0BE
:103850009587848784EC90E09787868780EC90E05A
:10386000918B808B81EC90E0938B828B82EC90E04B
:10387000958B848B86EC90E0978B868B118E128EC5
:10388000138E148EECEDF4E01282148213821682F1
:103890001582108617821186E6EEF4E017828FEF0C
:1038A000848F858F10920B0510920A0510920905DE
:1038B000109208050E94390DECE0F5E013821282A7
:1038C000C482D582E682F7828AE692E09183808381
:1038D000EDE2F5E0138212828AE792E09183808321
:1038E00087E2848380E1818784E082871386E8E130
:1038F000F5E0108217821686FF90EF90DF90CF9050
:103900000895EF920F931F93CF93DF93E80147FD44
:1039100002C034E001C034E1E42F440FFF0BF7FF95
:1039200003C0F195E195F109E32E022F2E2FAE0190
:103930003ED0CE01DF91CF911F910F91EF9008956E
:103940004532510518F4423008F004C0FB011082E2
:10395000CB010895BB274A3031F4992322F4BDE20C
:10396000909581959F4F0BC04532510518F4423018
:1039700008F004C0FB011082CB010895BB27FB01B6
:103980005527AA27880F991FAA1FA41710F0A41B58
:1039900083955051B9F7A05DAA3308F0A95DA193B2
:1039A000009779F7B111B1931192CB0165C24F9293
:1039B0005F926F927F929F92AF92BF92CF92DF926F
:1039C000EF92FF920F931F93CF93DF93CDB7DEB7A4
:1039D00029970FB6F894DEBF0FBECDBF6A01122F34
:1039E000B02E2BE3201720F0FF24F394F00E02C03A
:1039F000BCE3FB2E0F2D27E0AE014F5F5F4F64D17C
:103A0000AC018981982F9970913031F0E1FC06C0AA
:103A1000E0FE06C090E205C09DE203C09BE201C04B
:103A200090E0EE2DE07183FF3CC0911102C083E075
:103A300001C084E0811718F4212F281B01C020E069
:103A4000E1110BC0F601822F30E2882319F0319387
:103A50008150FBCFC20ED11C20E0992329F0D60162
:103A60009C93F60131966F01C6010396E2FE0AC0EF
:103A70003EE4D6013C9341E411964C931197129683
:103A80003C9306C03EE6F601308341E64183328333
:103A9000FC01322F40E2332309F442C041933150FC
:103AA000FACF82FF44C0911102C083E001C084E0DC
:103AB000811718F4212F281B01C020E0E1110BC051
:103AC000F601822F30E2882319F031938150FBCF29
:103AD000C20ED11C20E0992329F0D6019C93F60157
:103AE00031966F01C6010396E2FE0BC039E4D601A0
:103AF0003C933EE411963C93119736E412963C9326
:103B000007C039E6F60130833EE6318336E632837C
:103B1000FC01322F40E2332319F041933150FBCFA7
:103B2000FC01E20FF11D10828EEF9FEFB7C0F1E0B4
:103B3000911101C0F0E06F2F70E01416150624F407
:103B40009A012F5F3F4F02C021E030E0260F371F60
:103B5000BB2029F06B2D70E06F5F7F4F02C060E0EB
:103B600070E0260F371F612F70E0261737071CF40F
:103B7000121B212F01C020E03E2D387159F4D601CF
:103B8000322F60E2332319F06D933150FBCFC20E18
:103B9000D11C20E0FF2331F0D6019C93B6016F5F6A
:103BA0007F4F6B01E1110BC0F601922F30E3992397
:103BB00019F031939150FBCFC20ED11C20E09F2D04
:103BC000940F3A81782F7071A72E84FF03C0313390
:103BD00009F49150191624F4993018F098E001C0B6
:103BE00091E0E42F852F57FF02C0E0E080E06E2FC8
:103BF000782FE0E0F0E0AEE29A2E3A01691A7108FF
:103C00002A01461A570A0B2D10E01195019511094A
:103C10006F3F8FEF780729F4D6019C92C601019679
:103C20006C014617570784F0661677066CF47F011F
:103C3000E40CF51CA1E0B0E0AC0FBD1FEA0EFB1ECA
:103C4000D7011196BC9002C090E3B92E6150710962
:103C50003196C60101967C016017710724F0D601E8
:103C6000BC926C01D5CF6417750741F4363320F44C
:103C7000353321F4A11002C081E3B82EF601B082E1
:103C8000F701822F90E2882319F091938150FBCFA6
:103C9000F701E20FF11D108280E090E029960FB647
:103CA000F894DEBF0FBECDBFDF91CF911F910F9172
:103CB000FF90EF90DF90CF90BF90AF909F907F905C
:103CC0006F905F904F900895283008F027E03327D9
:103CD000DA01990F311D87FD91600096610571052C
:103CE00039F432602E5F3D9330E32A95E1F7089571
:103CF0009F3F30F080387105610509F03C5F3C5F03
:103D00003D93913008F08068911DDF93CF931F930E
:103D10000F93FF92EF92192F987F9695E92F969522
:103D20009695E90FFF27EE59FE4F99273327EE248A
:103D3000FF24A701E70105900894079428F4360FA3
:103D4000E71EF81E491F511D660F771F881F991F18
:103D50000694A1F70590079428F4E70EF81E491F72
:103D6000561FC11D770F881F991F661F0694A1F764
:103D70000590079428F4F80E491F561FC71FD11D40
:103D8000880F991F661F771F0694A1F70590079467
:103D900020F4490F561FC71FD81F990F661F771FA2
:103DA000881F0694A9F784911095177041F0D69555
:103DB000C79557954795F794E7941A95C1F7E8E0AA
:103DC000F1E0689415901591359165919591059064
:103DD0007FE27395E118F10A430B560BC90BD0092A
:103DE000C0F7E10CF11E431F561FC91FD01D7EF402
:103DF000703311F48A95E6CFE894015030F0080F43
:103E00000AF40027021708F4202F2395022F7A3393
:103E100028F079E37D932A95E9F710C07D932A95E0
:103E200089F6069497956795379517951794E11835
:103E3000F10A430B560BC90BD00998F023957E91DC
:103E400073957A3308F070E37C932013B8F77E9172
:103E500070617D9330F0839571E37D9370E32A95D3
:103E6000E1F71124EF90FF900F911F91CF91DF9117
:103E7000992787FD90950895DC01FC01672F7191CA
:103E80007723E1F7329704C07C916D937083629140
:103E9000AE17BF07C8F3089540D008F481E0089535
:103EA000E89409C097FB3EF49095809570956195D4
:103EB0007F4F8F4F9F4F9923A9F0F92F96E9BB278A
:103EC0009395F695879577956795B795F111F8CF06
:103ED000FAF4BB0F11F460FF1BC06F5F7F4F8F4F71
:103EE0009F4F16C0882311F096E911C0772321F067
:103EF0009EE8872F762F05C0662371F096E8862FFF
:103F000070E060E02AF09A95660F771F881FDAF755
:103F1000880F9695879597F90895990F0008550F82
:103F2000AA0BE0E8FEEF16161706E807F907C0F03F
:103F300012161306E407F50798F0621B730B840B47
:103F4000950B39F40A2661F0232B242B252B21F421
:103F500008950A2609F4A140A6958FEF811D811DC1
:103F6000089597F99F6780E870E060E008959FEFFB
:103F700080EC089500240A94161617061806090600
:103F8000089500240A9412161306140605060895CF
:103F9000092E0394000C11F4882352F0BB0F40F457
:103FA000BF2B11F460FF04C06F5F7F4F8F4F9F4F97
:103FB000089557FD9058440F551F59F05F3F71F019
:103FC0004795880F97FB991F61F09F3F79F0879580
:103FD0000895121613061406551FF2CF4695F1DF09
:103FE00008C0161617061806991FF1CF8695710599
:103FF000610508940895E894BB2766277727CB01CD
:1040000097F908955058BB27AA270ED0C1CFB2DF29
:1040100030F0B7DF20F031F49F3F11F41EF4A7CF4A
:104020000EF4E095E7FB9DCFE92FC3DF80F3BA17CD
:10403000620773078407950718F071F49EF5DBCFCC
:104040000EF4E0950B2EBA2FA02D0B01B9019001B3
:104050000C01CA01A0011124FF27591B99F0593FF7
:1040600050F4503E68F11A16F040A22F232F342F3F
:104070004427585FF3CF469537952795A795F0408D
:104080005395C9F77EF41F16BA0B620B730B840BA2
:10409000BAF09150A1F0FF0FBB1F661F771F881F5A
:1040A000C2F70EC0BA0F621F731F841F48F48795B2
:1040B00077956795B795F7959E3F08F0B3CF9395A1
:1040C000880F08F09927EE0F9795879508950CD0E3
:1040D0005FCF57DF40F04EDF30F021F45F3F19F043
:1040E00040CF511189CF43CF64DF98F39923C9F3AF
:1040F0005523B1F3951B550BBB27AA2762177307EE
:10410000840738F09F5F5F4F220F331F441FAA1FA1
:10411000A9F333D00E2E3AF0E0E830D09150504061
:10412000E695001CCAF729D0FE2F27D0660F771F0F
:10413000881FBB1F261737074807AB07B0E809F0F1
:10414000BB0B802DBF01FF2793585F4F2AF09E3F86
:10415000510568F006CF50CF5F3FECF3983EDCF39B
:10416000869577956795B795F7959F5FC9F7880FFF
:10417000911D9695879597F90895E1E0660F771F51
:10418000881FBB1F621773078407BA0720F0621BE2
:10419000730B840BBA0BEE1F88F7E095089504D0DB
:1041A0006894B11129CF08950CDF88F09F5790F0E3
:1041B000B92F9927B751A0F0D1F0660F771F881F4C
:1041C000991F1AF0BA95C9F712C0B13081F013DF08
:1041D000B1E0089510CF672F782F8827B85F39F0A6
:1041E000B93FCCF3869577956795B395D9F73EF4AB
:1041F00090958095709561957F4F8F4F9F4F089553
:104200008CDE08F48FEF089597FB072E16F40094C8
:1042100006D077FD08D013D007FC05D03EF490956A
:1042200081959F4F0895709561957F4F0895EE0F8A
:10423000FF1F881F8BBF0790F691E02D1994AA1BD2
:10424000BB1B51E107C0AA1FBB1FA617B70710F081
:10425000A61BB70B881F991F5A95A9F780959095B3
:10426000BC01CD010895CF93DF938230910510F406
:1042700082E090E0E0913B05F0913C0520E030E0E9
:10428000C0E0D0E0309711F14081518148175907C3
:10429000C0F04817590761F482819381209719F083
:1042A0009B838A832BC090933C0580933B0526C05B
:1042B0002115310519F04217530718F49A01BE0170
:1042C000DF01EF010280F381E02DDCCF2115310504
:1042D00009F1281B390B2430310590F412968D9189
:1042E0009C9113976115710521F0FB0193838283E3
:1042F00004C090933C0580933B05FD01329644C079
:10430000FD01E20FF31F81939193225031092D9308
:104310003C933AC02091390530913A05232B41F462
:10432000209108023091090230933A052093390513
:1043300020910602309107022115310541F42DB775
:104340003EB740910A0250910B02241B350BE091BD
:104350003905F0913A05E217F307A0F42E1B3F0B45
:104360002817390778F0AC014E5F5F4F24173507E7
:1043700048F04E0F5F1F50933A05409339058193E3
:10438000919302C0E0E0F0E0CF01DF91CF9108957A
:104390000F931F93CF93DF93009709F48CC0FC0118
:1043A00032971382128200913B0510913C05011552
:1043B000110581F420813181820F931F20913905ED
:1043C00030913A052817390779F5F0933A05E093CB
:1043D000390571C0D80140E050E0AE17BF0750F476
:1043E00012962D913C911397AD012115310509F1DC
:1043F000D901F3CF9D01DA0133832283608171817A
:10440000860F971F8217930769F4EC012881398181
:10441000260F371F2E5F3F4F318320838A819B8178
:1044200093838283452B29F4F0933C05E0933B056D
:1044300042C01396FC93EE931297ED014991599166
:104440009E01240F351FE217F30771F480819181DB
:10445000840F951F029611969C938E93828193816F
:1044600013969C938E931297E0E0F0E0D801129699
:104470008D919C911397009719F0F8018C01F6CF5C
:104480008D919C9198012E5F3F4F820F931F209139
:10449000390530913A052817390769F4309729F41E
:1044A00010923C0510923B0502C0138212821093B9
:1044B0003A0500933905DF91CF911F910F9108952F
:1044C0006F927F928F929F92AF92BF92CF92DF9224
:1044D000EF92FF920F931F93CF93DF93EC0100971E
:1044E00081F4CB01DF91CF911F910F91FF90EF905D
:1044F000DF90CF90BF90AF909F908F907F906F9004
:10450000B2CEFC01E60FF71F9C0122503109E217E1
:10451000F30708F4A8C0D9010D911C911197061753
:104520001707A8F00530110508F49BC0C8010497CF
:104530008617970708F495C002501109061B170B40
:10454000019311936D937C93CF0122DF8AC05B01AD
:10455000A01AB10A4C01800E911EA0913B05B091AA
:104560003C0540E050E0E12CF12C109709F44AC0E2
:10457000A815B905D1F56D907C901197630182E083
:10458000C80ED11CCA14DB0480F1A3014A195B09CF
:104590006A0182E0C80ED11C1296BC901297139645
:1045A000AC91B5E0CB16D10440F0B282A383518325
:1045B0004083D9016D937C930AC00E5F1F4FC301E6
:1045C000800F911FF90191838083EB2DFA2FE11465
:1045D000F10431F0D7011396FC93EE93129741C08A
:1045E000F0933C05E0933B053CC08D919C91119765
:1045F0004817590708F4AC017D0112960D90BC9143
:10460000A02DB3CF8091390590913A058815990571
:10461000E1F446175707C8F480910602909107020B
:10462000009741F48DB79EB740910A0250910B025A
:10463000841B950BE817F907B0F4F0933A05E09363
:104640003905F901718360830CC0CB010CDE7C015C
:10465000009749F0A801BE011BD0CE0199DEC70129
:1046600004C0CE0102C080E090E0DF91CF911F91A5
:104670000F91FF90EF90DF90CF90BF90AF909F9001
:104680008F907F906F90089581E090E0F89410C033
:10469000FB01DC0102C001900D9241505040D8F75F
:1046A0000895FB01DC0101900D920020E1F70895CF
:0446B000F894FFCFAC
:1046B40007090B0C0A0800003D05800000004000BB
:1046C4001400540000000000AA030704EC020000D8
:1046D4000000E803FE03E90200000000D903DF0341
:1046E400E00200000000CA03D003E302000000005F
:1046F400BB03C103E60200000000D00BFE0B000068
:104704000000530D590D000000001C02E712E601E1
:10471400C401D8016202000000007A034B03430382
:104724002F0320031F03000000007408E712323037
:10473400002F003A007800546F6461793A20003009
:10474400373A33333A313000536561736F6E203139
:10475400005472656520310054696D6520666F727E
:1047640020776174657200416464004D617820743F
:10477400656D70004D61782068756D6900547265CF
:1047840065203200547265652033004661726D42C3
:104794006F7420436F6E74726F6C6C6572004E6F31
:0647A400206D656E75003A
:00000001FF
