:1000000091C10000C0C10000BEC10000BCC1000021
:10001000BAC10000B8C10000B6C10000B4C1000000
:10002000B2C10000B0C10000AEC10000ACC1000010
:10003000AAC10000A8C10000A6C10000A4C1000020
:10004000A2C10000A0C100009EC100009CC1000030
:1000500021C5000098C1000096C10000D1C4000075
:1000600092C10000FDC30000D2C300008CC100009B
:100070008AC1000088C1000086C1000084C1000060
:1000800082C1000080C100007EC100007CC1000070
:100090007AC1000078C1000076C100000C940D0BFD
:1000A00072C1000070C100006EC100006CC1000090
:1000B0006AC1000068C1000066C1000064C10000A0
:1000C00062C1000060C100005EC100005CC10000B0
:1000D0005AC1000058C1000056C1000054C10000C0
:1000E00052C1000081048404730477047D04BB04BE
:1000F00088048C04920496049A04A004A404A8041E
:10010000BB04AE04B204B60400407A10F35A00A057
:10011000724E18090010A5D4E80000E876481700D0
:1001200000E40B54020000CA9A3B000000E1F50510
:10013000000080969800000040420F000000A0865A
:1001400001000000102700000000E803000000008C
:100150006400000000000A00000000000100000030
:1001600000002C76D888DC674F0823DFC1DFAE594A
:10017000E1B1B796E5E3E453C63AE651997696E8DD
:10018000E6C28426EB898C9B62ED407C6FFCEFBC61
:100190009C9F40F2BAA56FA5F490055A2AF75C938C
:1001A0006B6CF9676DC11BFCE0E40D47FEF520E6C2
:1001B000B500D0ED902E0300943577050080841EA5
:1001C000080000204E0A000000C80C333333330F00
:1001D000986E12831141EF8D2114893BE65516CF9D
:1001E000FEE6DB18D1844B381BF77C1D901DA4BBA9
:1001F000E424203284725E228100C9F124ECA1E55E
:100200003D2700002100240027002A002D00300097
:10021000330001010000040107010A010000200071
:100220002300260029002C002F00320000010000CE
:1002300003010601090100002200250028002B000F
:100240002E003100340002010000050108010B01FD
:1002500005050505070508080808020202020A0A42
:100260000808040404040101010101010101030360
:10027000030303030303040707070C0C0C0C0C0C0B
:100280000C0C0202020206060606060606060B0B08
:100290000B0B0B0B0B0B0102102020080810204049
:1002A000102040800201020108040201010204083A
:1002B00010204080804020100804020180040201C8
:1002C0008040201008040201080402010102040811
:1002D00010204080010204081020408000000A0B1A
:1002E00002090C0D0E0807030401000000000000C5
:1002F00000000000000000000000000000000000FE
:1003000000000000000000001211100000000000BA
:1003100000000000000000000000000000000000DD
:100320000000F51A11241FBECFEFD1E2DEBFCDBF12
:1003300000E00CBF25E0A6EFB2E001C01D92AD3396
:10034000B207E1F712E0A0E0B2E0E6E7F4E400E093
:100350000BBF02C007900D92A63FB107D9F711E07D
:10036000C2E9D1E000E006C021970109802FFE011B
:100370000E94F81FC139D10780E00807A9F70E9441
:1003800022120C9439223CCEFC01918D828D98175B
:1003900061F0828DDF01A80FB11D5D968C91928D69
:1003A0009F5F9F73928F90E008958FEF9FEF089566
:1003B000FC01918D828D981731F0828DE80FF11D2F
:1003C000858D90E008958FEF9FEF0895FC01918D4A
:1003D000228D892F90E0805C9F4F821B91098F7343
:1003E000992708958FE394E0F1DF21E0892B09F448
:1003F00020E0822F0895FC01848DDF01A80FB11D3C
:10040000A35ABF4F2C91848D90E001968F7399274A
:10041000848FA689B7892C93A089B1898C91806437
:100420008C93938D848D981306C00288F389E02DF8
:1004300080818F7D80830895EF92FF920F931F93A9
:10044000CF93DF93EC0181E0888F9B8D8C8D981387
:1004500005C0E889F989808185FD23C0F62E0B8DC2
:1004600010E00F5F1F4F0F731127E02E8C8DE812E5
:100470000BC00FB607FCFACFE889F989808185FFA8
:10048000F5CFCE01B8DFF2CF8B8DFE01E80FF11D65
:10049000E35AFF4FF0820B8FEA89FB8980818062EB
:1004A00007C0EE89FF896083E889F98980818064CB
:1004B000808381E090E0DF91CF911F910F91FF90B9
:1004C000EF900895CF93DF93EC01888D8823C1F0DE
:1004D000EA89FB89808185FD05C0A889B9898C914D
:1004E00086FD0EC00FB607FCF5CF808185FFF2CFE9
:1004F000A889B9898C9185FFEDCFCE017CDFE8CF4B
:10050000DF91CF91089580E090E0892B19F06ADFA8
:10051000811125C080E090E0892B41F080E090E0DF
:10052000892B21F00E94000081111CC080E090E026
:10053000892B41F080E090E0892B21F00E9400009F
:10054000811113C080E090E0892BA1F080E090E061
:10055000892B81F00E94000081110AC008950E9439
:100560000000D8CF0E940000E1CF0E940000EACF37
:100570000C94000008953FB7F8948091E90390919E
:10058000EA03A091EB03B091EC0326B5A89B05C04C
:100590002F3F19F00196A11DB11D3FBFBA2FA92F02
:1005A000982F8827820F911DA11DB11DBC01CD017F
:1005B00042E0660F771F881F991F4A95D1F708956B
:1005C00082E090E0089583E090E0089581E090E07B
:1005D000089580E090E00895089585ED8093BC0033
:1005E0008091BC0084FDFCCF10921C0408954091C2
:1005F000BF03262F30E0240F311D21323105DCF4FA
:1006000020911C042430C9F4FC0180E090E086179E
:1006100058F43091BF032191DC01A356BC4FA30FC6
:10062000B11D2C930196F3CF8091BF03680F6093A7
:10063000BF0380E0089581E0089582E00895089561
:10064000E0910B0580910A05E81730F4F0E0E450E2
:10065000FD4F808190E008958FEF9FEF0895909176
:100660000B0580910A05981750F4E92FF0E0E4504B
:10067000FD4F208130E09F5F90930B0502C02FEF6C
:100680003FEFC901089580910A0590E020910B0584
:10069000821B91090895CF92DF92EF92FF920F9300
:1006A0001F93CF93DF937C01262F972F8A01809190
:1006B0001D04882391F0C62FD72F6E01C40ED51EBE
:1006C000CC15DD0569F06991D701ED91FC910190A0
:1006D000F081E02DC7011995F3CF642F822F87DFBA
:1006E000C801DF91CF911F910F91FF90EF90DF90A4
:1006F000CF900895CF93DF931F92CDB7DEB7698374
:1007000020911D042223D1F020910805203240F0D1
:1007100021E030E0FC013383228380E090E014C0CC
:1007200080910905E82FF0E0E25EFB4F998190830C
:100730008F5F809309058093080504C061E0CE01B6
:10074000019655DF81E090E00F90DF91CF91089501
:100750000E94252228E232E0FC01318320830696A4
:100760000C94B91020E532E0FC0131832083F2CFF4
:10077000CF93DF93EC01F6DFCE01DF91CF910C94A4
:10078000A92026E432E0FC0131832083E3CFCF931C
:10079000DF93EC01F6DFCE01DF91CF910C94A9201D
:1007A0002CE332E0FC0131832083D4CFCF93DF935D
:1007B000EC01F6DFCE01DF91CF910C94A920CF930D
:1007C000DF93EC0182E392E0998388838C859D8599
:1007D000009739F0DC01ED91FC910280F381E02D6E
:1007E0001995CE01DF91CF91B5CFCF93DF93EC0177
:1007F000E6DFCE01DF91CF910C94A920CF93DF9358
:10080000EC01A8DFCE01DF91CF910C94A9201F92BB
:100810000F920FB60F9211240BB60F922F933F93A6
:100820004F935F936F937F938F939F93AF93BF93F8
:10083000EF93FF938FE394E0DEDDFF91EF91BF91A3
:10084000AF919F918F917F916F915F914F913F9168
:100850002F910F900BBE0F900FBE0F901F90189509
:100860001F920F920FB60F9211240BB60F922F9377
:100870008F939F93EF93FF93E0914F04F091500477
:100880008081E0915504F091560482FD12C0908160
:10089000809158048F5F8F7320915904821751F013
:1008A000E0915804F0E0E15CFB4F958F8093580491
:1008B00001C08081FF91EF919F918F912F910F90B7
:1008C0000BBE0F900FBE0F901F90189590E0FC018B
:1008D0003197E231F10508F04EC08827EE58FF4FFE
:1008E0008F4F0C94F81F809180008F7703C0809108
:1008F00080008F7D80938000089580918000877FA5
:10090000F9CF84B58F7702C084B58F7D84BD0895FB
:100910008091B0008F7703C08091B0008F7D80936D
:10092000B0000895809190008F7707C0809190006B
:100930008F7D03C080919000877F80939000089501
:100940008091A0008F7707C08091A0008F7D03C0A9
:100950008091A000877F8093A0000895809120015E
:100960008F7707C0809120018F7D03C08091200187
:10097000877F8093200108958F929F92AF92BF92BC
:10098000CF92DF92EF92FF926B017C01F4DD4B017D
:100990005C01C114D104E104F104E9F0ECDDDC01F7
:1009A000CB0188199909AA09BB09883E9340A10582
:1009B000B10578F321E0C21AD108E108F10888EE08
:1009C000880E83E0981EA11CB11CC114D104E1045F
:1009D000F10421F7DECFFF90EF90DF90CF90BF9032
:1009E000AF909F908F9008952FB7F8946091E50392
:1009F0007091E6038091E7039091E8032FBF08957B
:100A00001F920F920FB60F9211242F933F938F9343
:100A10009F93AF93BF938091E5039091E603A091DC
:100A2000E703B091E8033091E40323E0230F2D376F
:100A300020F40196A11DB11D05C026E8230F0296E2
:100A4000A11DB11D2093E4038093E5039093E60379
:100A5000A093E703B093E8038091E9039091EA0340
:100A6000A091EB03B091EC030196A11DB11D809301
:100A7000E9039093EA03A093EB03B093EC03BF91D7
:100A8000AF919F918F913F912F910F900FBE0F903B
:100A90001F9018951F920F920FB60F9211240BB64C
:100AA0000F922F933F934F935F936F937F938F9307
:100AB0009F93AF93BF93CF93DF93EF93FF9386E022
:100AC0009FEF90938500809384008091DE048823BB
:100AD00009F470C08091E1049091E2040196909332
:100AE000E2048093E1042091E3043091E40482174E
:100AF000930708F45FC01092E2041092E104809121
:100B0000E504E091DC04F091DD0427E0829FE00D34
:100B1000F11D11248681882321F00190F081E02DC0
:100B200019956091DE04A091E304B091E404E09192
:100B3000DC04F091DD0420E0CF01261749F0448168
:100B400055814A1B5B0B558344832F5F3796F5CF46
:100B50002091E504FC0137E0239FE00DF11D1124F5
:100B600022813381358324831092E504FC0121E046
:100B70003091E504261790F4EC0147E0349FC00D56
:100B8000D11D1124A385B4854C815D81A417B507BF
:100B900010F42093E5042F5F3796EACFFC0127E09D
:100BA000329FE00DF11D1124848195819093E4041E
:100BB0008093E304FF91EF91DF91CF91BF91AF91CB
:100BC0009F918F917F916F915F914F913F912F9165
:100BD0000F900BBE0F900FBE0F901F901895FC0149
:100BE000248131E030931D0420933E0410920905C6
:100BF000109208058385682B8CE095E07BDD81E011
:100C000034C70F931F93CF938C01C62FE8DF6C2F4F
:100C10006460C801E4DF6C2F6B7FC801E0DF83EC08
:100C200090E00197F1F7CF911F910F9108950F93E5
:100C30001F93CF938C01C62F607F6160E2DF80E15C
:100C4000C89FB00111246160C801DBDF81E090E042
:100C5000CF911F910F9108950F931F93CF938C0104
:100C6000C62F607FCEDF80E1C89FB0011124C8018C
:100C7000CF911F910F91C5CFFC016681262F226075
:100C800026836A60E9CFCF93DF93CDB7DEB728978D
:100C90000FB6F894DEBF0FBECDBF9C0188E0ECE13B
:100CA000F2E0DE01119601900D928A95E1F7F901CB
:100CB0008085841710F44FEF480FFE013196E40F42
:100CC000F11DE40FF11D9081690F6068C90128963C
:100CD0000FB6F894DEBF0FBECDBFDF91CF91BCCF72
:100CE00061E0BADF8BE39FE10197F1F708950F937D
:100CF0001F93CF938C0180E192E0D8018D939C9358
:100D0000C0E0F80184810280F381E02DC81788F4E7
:100D1000EC0FF11DEC0FF11D80819181009739F0EE
:100D2000DC01ED91FC910280F381E02D1995CF5FFC
:100D3000E8CF309731F0CF01CF911F910F910C94F4
:100D4000A920CF911F910F910895CF93DF93EC01CC
:100D5000CEDFCE01DF91CF910C94A920CF93DF930A
:100D6000EC0106960E94A41081E08B83DF91CF9165
:100D700008956F927F928F929F92AF92BF92CF927F
:100D8000DF92EF92FF920F931F93CF93DF9300D0E8
:100D900000D0CDB7DEB76C014B015A01122F88E2AB
:100DA00092E0F6019183808381E08283138265E87B
:100DB00072E0C60106960E940012F40164806394FA
:100DC0006482712CC301880F991F0E9414207C013A
:100DD00020E0F1E06F1A7108422F50E0F4018281A7
:100DE00093814615570574F4440F551FFC01E40F19
:100DF000F51F80819181F701E40FF51F91838083B6
:100E00002F5FEACF009711F00E94A920F401F3822E
:100E1000E2828481F701E80FF11DE80FF11D32979E
:100E2000D182C082B501CE0101960E94F811BE01A7
:100E30006F5F7F4FC60192DFCE0101960E94B9100D
:100E4000F6011483058326960FB6F894DEBF0FBE15
:100E5000CDBFDF91CF911F910F91FF90EF90DF9069
:100E6000CF90BF90AF909F908F907F906F9008959C
:100E7000CF92DF92EF92FF920F93CF93DF93CDB794
:100E8000DEB727970FB6F894DEBF0FBECDBF7C014B
:100E90006B01BA01CE0101962F830E94F8112F81B8
:100EA000AE014F5F5F4FB601C70163DFCE01019610
:100EB0000E94B9108CE392E0F7019183808315863C
:100EC000148627960FB6F894DEBF0FBECDBFDF9114
:100ED000CF910F91FF90EF90DF90CF9008954F92B8
:100EE0005F926F927F928F929F92AF92BF92CF92BA
:100EF000DF92EF920F93CF93DF93CDB7DEB72B97AF
:100F00000FB6F894DEBF0FBECDBF6C013B014901A7
:100F10005A01202F0E2D65E872E0CE0101962B8735
:100F20000E9400122B85AE014F5F5F4FB301C601D7
:100F300020DFCE0101960E94B91086E492E0F6010E
:100F400091838083C501B4010E94B41F6F837887A9
:100F500089879A872F813885B901330F880B990BC0
:100F60000E94371E9B01AC01C501B4010E94E71E1F
:100F700020E030E0A9010E94311E811105C080E00F
:100F800090E0A0E8BFE31AC02AE037ED43E25CE35B
:100F9000C501B4010E944C1F0E94B41FCB016AE03E
:100FA00070E00E94E51F811105C08DEC9CECACEC5B
:100FB000BDE304C08AE097EDA3E2BCE3F6018487B9
:100FC0009587A687B787F601808A918AA28AB38A15
:100FD0004484558466847784C301B2010E94B41F9F
:100FE000072E000C880B990B0E94371E9B01AC0149
:100FF000C301B2010E94E71E20E030E0A9010E9477
:10100000311E811108C04AE06F817885CE010196BA
:101010000E94761107C022E0B501A401CE0101961D
:101020000E944711BE016F5F7F4FC60197DECE0160
:1010300001960E94B910F601148A2B960FB6F89407
:10104000DEBF0FBECDBFDF91CF910F91EF90DF904C
:10105000CF90BF90AF909F908F907F906F905F9058
:101060004F900895CF92DF92EF92FF920F93CF931C
:10107000DF93CDB7DEB727970FB6F894DEBF0FBE6C
:10108000CDBF7C016B01BA01CE0101962F830E9476
:10109000F8112F81AE014F5F5F4FB601C70169DEC6
:1010A000CE0101960E94B91080E592E0F70191838C
:1010B000808327960FB6F894DEBF0FBECDBFDF91B9
:1010C000CF910F91FF90EF90DF90CF9008958F9286
:1010D0009F92AF92BF92DF92EF92FF920F931F9376
:1010E000CF93DF9300D000D0CDB7DEB7F0909C0354
:1010F00026E0F21609F4BDC0009118050F5F0093B9
:10110000180510E0C80153E0880F991F5A95E1F7C0
:101110000E9414205C0180E00150110998E0282F02
:1011200030E0E0911905F0911A05201731078CF491
:1011300043E0220F331F4A95E1F7D501A20FB31FF9
:10114000E20FF31F292F01900D922A95E1F78F5F8F
:10115000E6CF309719F0CF010E94A920B0921A056E
:10116000A09219052F2D2170220FD22EDD0CDD0C3F
:10117000D20E1F2D16951F5F85E190E00E9414206E
:101180005C01E091F602F091F70264857585E12E2D
:101190000D2D20E030E040E451E4A1DEE0909C031E
:1011A00088E0E89E90011124F901E459FC4F7F0189
:1011B000B182A08265EE72E0CE0101960E9400121B
:1011C0008CE090E00E9414205C0122E02D0DE09163
:1011D000F602F091F70264857585012FAE014F5F2D
:1011E0005F4F40DFF701B382A282CE010196C1D7E3
:1011F00085E190E00E9414204C0103E00D0DE09188
:10120000F602F091F70264857585E12E20E030E06A
:1012100040E751E464DEF0909C03F8E0FF9EC001DB
:1012200011249C0124593C4F5901F9019582848273
:1012300067EE72E0CE0101960E9400128EE090E00F
:101240000E9414204C0126E02D0DE091F602F09151
:10125000F70264857585012FAE014F5F5F4F08DE91
:10126000F50197828682CE01019683D7F394F0929E
:101270009C0326960FB6F894DEBF0FBECDBFDF915C
:10128000CF911F910F91FF90EF90DF90BF90AF90A3
:101290009F908F900895CF92DF92EF92FF920F93DD
:1012A000CF93DF93CDB7DEB727970FB6F894DEBFA5
:1012B0000FBECDBF7C016B01BA01CE0101962F8319
:1012C0000E94F8112F81AE014F5F5F4FB601C70139
:1012D00050DDCE0101964DD782E392E0D7018D9388
:1012E0009C9386E090E00E941420FC0186E0DF01E0
:1012F0001D928A95E9F71482158288E192E0918324
:101300008083D7011D96FC93EE931C9727960FB60A
:10131000F894DEBF0FBECDBFDF91CF910F91FF904C
:10132000EF90DF90CF900895CF93DF93CDB7DEB7E6
:10133000A4970FB6F894DEBF0FBECDBF4AE0609110
:101340002003CE010D960E94CC114AE0609121034A
:10135000CE0107960E94CC116091220370E06F319C
:1013600071051CF06E51710906C08EE190E09C0180
:10137000261B370BB9014AE0CE014F96B7D769EE6D
:1013800072E0CE0143960E940012BE016D5E7F4F57
:10139000CE0149960E94F811BE01615E7F4FCE01D9
:1013A00049968DD6BC01CE0101960E94F811CE015E
:1013B0004996DFD6CE014396DCD6CE014F96D9D6DC
:1013C00089899A890197E9F46DE872E0CE01439624
:1013D0000E940012BE016D5E7F4FCE0149960E94B1
:1013E000F811BE01635F7F4FCE01499668D6BC01FC
:1013F000CE010D96A9D6CE014996BBD6CE01439615
:10140000B8D68B859C850197D9F46DE872E0CE0142
:101410004396F6D7BE016D5E7F4FCE014996E8D761
:10142000BE01695F7F4FCE01499649D6BC01CE010E
:1014300007968AD6CE0149969CD6CE01439699D678
:10144000BE01635F7F4FCE014396D2D76CEE72E050
:10145000CE0143961DD6BE01695F7F4F30D66CEE3C
:1014600072E016D6BE016F5F7F4F29D6BC01CE0158
:101470004996BED7BE01675E7F4F8091FA02909178
:10148000FB026CDCCE01499674D6CE01439671D630
:10149000CE0101966ED6CE0107966BD6CE010D9683
:1014A00068D6A4960FB6F894DEBF0FBECDBFDF910D
:1014B000CF910895CF93DF93CDB7DEB76E970FB678
:1014C000F894DEBF0FBECDBF4AE060911E03CE018F
:1014D0000D9662D74AE060911D03CE0107965CD756
:1014E0004AE060911C03CE01019656D789899A89FA
:1014F0000197D9F46DE872E0CE01439681D7BE0121
:101500006D5E7F4FCE01499673D7BE01635F7F4FFB
:10151000CE014996D4D5BC01CE010D9615D6CE018B
:10152000499627D6CE01439624D68B859C85019774
:10153000D9F46DE872E0CE01439662D7BE016D5ECC
:101540007F4FCE01499654D7BE01695F7F4FCE01D0
:101550004996B5D5BC01CE010796F6D5CE01499680
:1015600008D6CE01439605D68D819E810197D9F488
:101570006DE872E0CE01439643D7BE016D5E7F4FAA
:10158000CE01499635D7BE016F5F7F4FCE01499698
:1015900096D5BC01CE010196D7D5CE014996E9D5A5
:1015A000CE014396E6D5BE01635F7F4FCE014396E1
:1015B0001FD765EE72E0CE0143966AD5BE01695F22
:1015C0007F4F7DD565EE72E063D5BE016F5F7F4FC3
:1015D00076D5BC01CE0149960BD7BE01675E7F4F21
:1015E0008091F8029091F902B9DBCE014996C1D5FC
:1015F000CE014396BED5CE010196BBD5CE0107964E
:10160000B8D5CE010D96B5D56E960FB6F894DEBF5F
:101610000FBECDBFDF91CF9108951F920F920FB6ED
:101620000F9211240BB60F922F933F934F935F931A
:101630006F937F938F939F93AF93BF93EF93FF939A
:101640008091B900887F803609F49CC068F58832A3
:1016500009F45BC090F4803109F454C038F4882355
:1016600009F4F6C0883009F44DC0F6C0883109F499
:101670004CC0803209F45DC0EFC0803409F468C00A
:1016800048F4803309F455C0883309F0E5C08093ED
:101690001A04D8C0803509F44FC0883509F45DC0FC
:1016A000883409F0D9C0D6C0883909F4C7C0A8F475
:1016B000883709F467C038F4883609F463C0803786
:1016C00009F460C0C9C0883809F4B8C0803909F489
:1016D0005FC0803809F0C0C05BC0803B09F486C0A1
:1016E00038F4803A09F466C0883A09F47FC0B4C07F
:1016F000803C09F4A7C0883C09F4A4C0883B09F4E5
:101700008AC0AAC08091F70310C0909119048091FB
:101710001804981770F5E091190481E08E0F8093FA
:101720001904F0E0E850FC4F80818093BB0085EC09
:1017300086C080931A048EC0E091190481E08E0F58
:10174000809319048091BB00F0E0E850FC4F808347
:1017500090911904809118046EC0E091190481E001
:101760008E0F809319048091BB00F0E0E850FC4F8D
:10177000808380911B0481116DC081E08093F6030A
:1017800084EA61C083E080931C041092E303CFCF0E
:101790008091E303803208F051C0E091E30381E0DF
:1017A0008E0F8093E3038091BB00F0E0ED53FC4F7C
:1017B0008083BDCF85EC8093BC0010921C04809187
:1017C000E303803230F4E091E303F0E0ED53FC4FAB
:1017D00010826091E30370E0E091C103F091C203D5
:1017E00083EC93E019951092E30336C084E0809374
:1017F0001C041092C0031092BF03E091BD03F0914E
:10180000BE0319958091BF03811105C081E08093CB
:10181000BF0310929D03E091C00381E08E0F80937F
:10182000C003F0E0E356FC4F80818093BB009091B1
:10183000C0038091BF03981708F479CF85E880939F
:10184000BC000AC085EC8093BC0010921C0404C04C
:1018500010921A040E94ED02FF91EF91BF91AF9197
:101860009F918F917F916F915F914F913F912F91B8
:101870000F900BBE0F900FBE0F901F9018951092F7
:101880001C0481E080931B041092F60384E155D27E
:1018900085E153D2E9EBF0E080818E7F8083808107
:1018A0008D7F808388E48093B80085E48093BC00BA
:1018B000089528E132E0FC013183208318CACF93D8
:1018C000DF93EC01F6DFCE01DF91CF910C94A920DC
:1018D000CF93DF93EC0188819981009711F00E94EA
:1018E000A920198218821D821C821B821A82DF9114
:1018F000CF9108950F931F93CF93DF93EC018881CD
:101900009981009729F02A813B812617370788F4AF
:101910008B016F5F7F4F0E944121009761F0998397
:1019200088831B830A832C813D81232B11F4FC01C6
:10193000108281E001C080E0DF91CF911F910F9173
:101940000895EF92FF920F931F93CF93DF93FC01C3
:10195000248135816115710511F480E018C04115AD
:101960005105A1F07B01EC018A01020F131FB801A0
:10197000C1DF882391F3288139818C819D81B70152
:10198000820F931F0E9432221D830C8381E0DF911E
:10199000CF911F910F91FF90EF900895EF92FF92DA
:1019A0000F931F93CF93DF938C019091DE0481E01E
:1019B000890F8093DE04E82EF12C27E0829FC0017E
:1019C00011240E941420EC01FC01A70181E0E11424
:1019D000F10461F011821082138212821582148246
:1019E0008683379661E0E61AF108F1CF90E0415026
:1019F000510987E0292F30E0E091DC04F091DD040B
:101A00002417350784F467E0969F90011124DE01C6
:101A1000A20FB31FE20FF31F282F01900D922A95FA
:101A2000E1F79F5FE7CF309719F0CF010E94A9201F
:101A3000D093DD04C093DC048091DE0497E0899F9D
:101A4000C00DD11D112427971983088388EE93E0D8
:101A50009B838A831D821C8281E08E83DF91CF91DC
:101A60001F910F91FF90EF900895382F2091080556
:101A700090913E04213208F049C080911C048111EC
:101A8000FCCF42E040931C0430931B043FEF3093A3
:101A90001A041092190420931804AEE1B4E048EF40
:101AA00053E0FA013E2F341B321718F43D91319365
:101AB000F9CF1092F7032091F703990F922B90938F
:101AC000F7039091F603913061F41092F603909130
:101AD000F7039093BB009091BC0093FDF8CF95EC79
:101AE00001C095EE9093BC0090911C049230E1F3FC
:101AF00090911A049F3F79F080911A04803241F04E
:101B000080911A04803331F084E005C081E003C085
:101B100082E001C083E0109209051092080510923E
:101B20001D040895FF920F931F93CF93DF9390931B
:101B3000050580930405C0E0D1E0E0910405F09133
:101B400005058481C817D0F492818381E92FF82F8D
:101B5000EC0FF11DEC0FF11D80819181DC01ED9105
:101B6000FC910480F581E02D1995019729F0E09111
:101B70000405F0910505D583CF5FDFCF8091020585
:101B80008F3F41F024818091E6049091E704211178
:101B900018C01AC02091ED04A091EB04B091EC04A0
:101BA00080E090E0821751F04D915D914E175F07F4
:101BB00019F48093030591E08F5FF4CF9111E2CF88
:101BC0006FC0258121110FC01092EA04FC016681CB
:101BD0006D7F6683686040D8A0910405B0910505CB
:101BE00080E021E046C021E02093EA0445D8D4E615
:101BF00084E6F82EC0E0E0910405F09105058481AB
:101C0000C81790F592818381E92FF82FEC0FF11D11
:101C1000EC0FF11D00811181D801ED91FC91048040
:101C2000F581E02DC80119950197E1F0F8012581B2
:101C3000422F50E08D2F0D2E000C990B481759079D
:101C400051F4848190E04F2D0F2C000C550B84171C
:101C5000950724F007C04817590724F4D8011496B3
:101C6000FC90D22FCF5FC7CFF092E804D093E90465
:101C7000B3CF14969C911497891790F412963C91C7
:101C8000129713969C911397E32FF92FE80FF11DEC
:101C9000E80FF11D0190F081E02D23838F5FE9CFE4
:101CA000DF91CF911F910F91FF900895EF92FF92D6
:101CB0000F931F93CF93DF937C010091ED040F5F8F
:101CC0000093ED0410E0C801880F991F0E941420B2
:101CD000EC018091EB049091EC0440E0015011097B
:101CE000242F30E02017310774F4220F331FFC013A
:101CF000E20FF31F60817181FE01E20FF31F718318
:101D000060834F5FEDCF009711F00E94A920D09320
:101D1000EC04C093EB048091ED049E01280F311D6B
:101D2000280F311DF9013297F182E082DF91CF91C6
:101D30001F910F91FF90EF900895CF93DF93282F7D
:101D400030E0F901E452FD4F8491F901EA56FD4F6C
:101D5000D491F901E05BFD4FC491CC2389F081114E
:101D60000E946604EC2FF0E0EE0FFF1FEA5CFD4FCF
:101D7000A591B4918FB7F894EC91ED2BEC938FBFB4
:101D8000DF91CF9108950F931F93CF93DF938C0131
:101D90008DE295E09093E7048093E60481E08093E0
:101DA000EA048FEF8093E8048093E90410920B0516
:101DB00010920A05109209051092080560DD109234
:101DC000320580913705823018F098E09093320503
:101DD0008093350562E370E080E090E00E94BC04EF
:101DE000609138058DE295E00E94EF0568EE73E0A2
:101DF00080E090E00E94BC0460E38DE295E00E94E8
:101E00000106CBE4D6E4CE010197F1F760E38DE261
:101E100095E00E9401062197F1F760E38DE295E0DD
:101E20000E94010683E592E00197F1F760E28DE2FE
:101E300095E00E94010690913205692F60628DE263
:101E400095E00E942C0684E0809333056CE08DE2DF
:101E500095E00E942C068DE295E00E94700682E0DB
:101E60008093340566E08DE295E00E942C0662E0E6
:101E70008DE295E00E942C06EBE3FFE13197F1F74C
:101E8000E091E604F091E70488E0838760E0CF0109
:101E90000E94EF058091E6049091E7040E943C06C1
:101EA00040E060E08091E6049091E7040E944306E0
:101EB000B8018091E6049091E704B6D268EE73E031
:101EC00080E090E00E94BC048091E6049091E704D9
:101ED0000E9470068FEF80930305DF91CF911F91D1
:101EE0000F9108958F929F92AF92BF92EF92FF92BF
:101EF0000F931F93CF93DF939091ED032091EE0307
:101F00003091EF0300E0091709F467C02D5F3F4FE0
:101F1000F90133974081481711F00F5FF4CF282F54
:101F200030E0F901E452FD4F8491F901EA56FD4F8A
:101F3000D491F901E05BFD4FC49110E0CC2379F01E
:101F400081110E946604EC2FF0E0EE0FFF1FE45EAB
:101F5000FD4FA591B491EC91ED2309F067C00E946B
:101F6000F4047801EE0CFF1CEE0CFF1CE091F20370
:101F7000F091F3039801220F331FE20FF31FA0919A
:101F8000F003B091F103AE0DBF1D8D909D90AD900B
:101F9000BC909B01AC01281939094A095B09490128
:101FA0005A014081518160E070E08091F40390918A
:101FB000F503481559056A057B0548F421E0DC0165
:101FC000A00FB11F2C9324E630E031832083FC0165
:101FD000E00FF11FC081C11102C0C0E04DC00E94DE
:101FE000F4042091F0033091F103E20EF31EF701A7
:101FF00080809180A280B380DC01CB01881999098F
:10200000AA09BB094497A105B10538F30E94F4045D
:10201000F70160837183828393838091F4039091AD
:10202000F503FC01E00FF11F108226C0C801880FE4
:10203000991F880F991FC091F003D091F103C80F29
:10204000D91F0E94F404688379838A839B83E0917B
:10205000F403F091F503E00FF11F81E08083000F9E
:10206000111FE091F203F091F303E00FF11F88EEEE
:1020700093E091838083B1CF8C2FDF91CF911F911B
:102080000F91FF90EF90BF90AF909F908F90089529
:10209000CF93DF93EC016115710559F0FB010190BD
:1020A0000020E9F73197AF01461B570B4ADC81113D
:1020B00002C0CE010DDCCE01DF91CF910895CF9308
:1020C000DF93EC01FB01448155816081718139DC32
:1020D000811102C0CE01FCDBCE01DF91CF910895CA
:1020E000EF92FF920F931F93CF93DF93EC017B014D
:1020F0008A01BA01FFDB811103C0CE01E9DB07C011
:102100001D830C83B701888199810E943222CE0100
:10211000DF91CF911F910F91FF90EF900895CF9392
:10212000DF93EC016115710551F0FB010190002076
:10213000E9F73197AF01461B570BD2DF01C0C8DB6F
:10214000CE01DF91CF910895CF93DF93EC01FB0196
:102150008617970751F0608171816115710521F033
:1021600044815581BDDF01C0B3DBCE01DF91CF914A
:102170000895FC01808191810C94A920EF92FF9237
:102180000F931F93CF93DF9300D000D0CDB7DEB76E
:10219000809103058F3F79F48091E6049091E704E4
:1021A000DC01ED91FC910280F381E02D47E050E0ED
:1021B0006EEE72E01995F12CE0910405F0910505A1
:1021C0008481F81608F04CC092818381E92FF82FA2
:1021D000EF0DF11DEF0DF11D00811181F8018381DB
:1021E000882309F43BC0458164818091E604909185
:1021F000E7040E944306D80112968C91811123C0F6
:1022000065E872E0CE010196FBD0E12C8E2D90E0C6
:10221000F801228533858217930748F441E050E0A6
:1022200064E872E0CE0101968CDBE394EFCFBE014F
:102230006F5F7F4F8091E6049091E704F5D0CE0167
:10224000019697DF08C0B8016A5F7F4F8091E6046E
:102250009091E704E9D0D80113961C92F394ACCF87
:102260004091E9046091E8048091E6049091E704CC
:102270000E94430626960FB6F894DEBF0FBECDBF70
:10228000DF91CF911F910F91FF90EF900895EF9202
:10229000FF920F931F93CF93DF93CDB7DEB7A19734
:1022A0000FB6F894DEBF0FBECDBF7C01CB01BA01E3
:1022B000F70111821082138212821582148242E089
:1022C000420F8E010F5F1F4F0E94661BBC01C701AA
:1022D00026DFA1960FB6F894DEBF0FBECDBFDF910B
:1022E000CF911F910F91FF90EF9008950F931F933F
:1022F000CF93DF93CDB7DEB762970FB6F894DEBF0A
:102300000FBECDBF8C01CB01F80111821082138268
:1023100012821582148250E0BE016F5F7F4F0E94CF
:10232000851BBE016F5F7F4FC801F9DE62960FB655
:10233000F894DEBF0FBECDBFDF91CF911F910F91FB
:102340000895CF92DF92EF92FF920F931F93CF9356
:10235000DF936C017A018B01C0E0D0E0CE15DF0580
:1023600089F0D8016D918D01D601ED91FC9101901C
:10237000F081E02DC6011995892B11F47E0102C070
:102380002196ECCFC701DF91CF911F910F91FF9064
:10239000EF90DF90CF9008950F931F93CF93DF932B
:1023A000CDB7DEB729970FB6F894DEBF0FBECDBF0D
:1023B0008C01862FF80111821082138212821582FD
:1023C000148250E0BE016F5F7F4F90E00E94991B26
:1023D000BE016F5F7F4FC801A2DE29960FB6F89449
:1023E000DEBF0FBECDBFDF91CF911F910F9108953A
:1023F000FC01118210821382128215821482A4CEF3
:10240000FC011182108213821282158214826115DE
:10241000710549F0FB0101900020E9F73197AF0108
:10242000461B570B5DCE0895DC01ED91FC91DB015D
:1024300014964D915C9115976D917C910280F3817A
:10244000E02D1994CF93DF93CDB7DEB76A970FB61F
:10245000F894DEBF0FBECDBF789484B5826084BD92
:1024600084B5816084BD85B5826085BD85B5816098
:1024700085BD80916E00816080936E001092810016
:1024800080918100826080938100809181008160D1
:102490008093810080918000816080938000809192
:1024A000B10084608093B1008091B000816080931E
:1024B000B0008091910082608093910080919100A2
:1024C0008160809391008091900081608093900062
:1024D0008091A10082608093A1008091A100816021
:1024E0008093A1008091A00081608093A0008091E2
:1024F000210182608093210180912101816080937C
:1025000021018091200181608093200180917A00D7
:10251000846080937A0080917A00826080937A0050
:1025200080917A00816080937A0080917A0080683F
:1025300080937A001092C100E0914F04F091500412
:1025400082E08083E0914B04F0914C041082E09192
:102550004D04F0914E048FEC808310925704E0916B
:102560005304F091540416E01083E0915104F0916B
:102570005204808180618083E0915104F091520483
:10258000808188608083E0915104F09152048081C1
:1025900080688083E0915104F091520480818F7DA6
:1025A000808386E090E00E9414207C01DC01E12F12
:1025B0001D92EA95E9F7DC0114961C921497159682
:1025C0001C92159708E1C02E02E0D02ECD92DC922D
:1025D00090935203809351036EE772E0CE0101960F
:1025E0000FDF8CE090E00E9414205C0100E020E00E
:1025F000AE014F5F5F4FB7010E943208B0925003A7
:10260000A0924F03CE010196B4DD65E872E0CE01E1
:102610000196F6DE8CE090E00E9414205C0128E038
:10262000AE014F5F5F4FB7010E943208B092FB02CC
:10263000A092FA02CE0101969CDD66E872E0CE011E
:102640000196DEDE8CE090E00E9414205C0101E047
:1026500028E0AE014F5F5F4FB7010E943208B09291
:10266000F902A092F802CE01019683DD86E090E0A7
:102670000E9414207C01FC0111921A95E9F7DC01FB
:1026800014961C92149715961C921597CD92DC9275
:1026900090934E0380934D036FE872E0CE01019654
:1026A000AFDE8CE090E00E9414206C0100E027E097
:1026B000AE014F5F5F4FB7010E943208D0924C03CA
:1026C000C0924B03CE01019654DD68E972E0CE0161
:1026D000019696DE8EE090E00E9414205C0102E0FC
:1026E00020E0AE014F5F5F4FB7010E944B09B092EF
:1026F0004A03A0924903CE0101963BDD6FE972E0E7
:10270000CE0101967DDE8EE090E00E9414206C01E7
:10271000F5016485758500E023E0AE014F5F5F4FF2
:102720000E944B09D092F702C092F602CE010196A8
:1027300020DD6EEA72E0CE01019662DE8EE090E06E
:102740000E9414207C01D6011C966D917C911D97EE
:1027500020E0AE014F5F5F4F0E943807F0924803C0
:10276000E0924703CE01019604DD87E698E0F70189
:102770009587848762EB72E0CE01019641DE8CE0A2
:1027800090E00E9414207C01D5011C966D917C91F3
:102790001D9701E020E0AE014F5F5F4F0E943208BD
:1027A000F0924603E0924503CE010196E2DC85E11A
:1027B00090E00E9414206C01F50164857585EE247B
:1027C000E3940AE02AE037ED44E052E40E946F0708
:1027D000D0924403C0924303F0E1CF0ED11CD092BB
:1027E0001C05C0921B056BEB72E0CE01019608DE62
:1027F0008CE090E00E9414206C01E0904903F0907E
:102800004A03D7011C966D917C911D9702E020E050
:10281000AE014F5F5F4F0E943208D0924203C092D8
:102820004103CE010196A5DC85E190E00E941420D1
:102830006C01F7016485758582E0E82E0AE02DECD5
:102840003CEC40E752E4C6010E946F07D09240037F
:10285000C0923F03F0E1CF0ED11CD0921E05C09272
:102860001D0564EC72E0CE010196CADD8EE090E0B9
:102870000E9414207C0160914D0370914E0302E090
:1028800027E0AE014F5F5F4F0E944B09F0923E037D
:10289000E0923D03CE0101966CDC6FE972E0CE015F
:1028A0000196AEDD8EE090E00E9414206C01D7010D
:1028B0001C966D917C911D9700E023E0AE014F5F67
:1028C0005F4F0E944B09D0923C03C0923B03CE0164
:1028D00001964FDC6EEA72E0CE01019691DD8EE04A
:1028E00090E00E9414205C01F6016485758520E06B
:1028F000AE014F5F5F4F0E943807B0923A03A0923B
:102900003903CE01019635DC62EB72E0CE0101960F
:1029100077DD8CE090E00E9414206C01D7011C96BA
:102920006D917C911D9701E020E0AE014F5F5F4FFC
:102930000E943208D0923803C0923703CE0101962C
:1029400018DC85E190E00E9414206C01F701648599
:102950007585EE24E3940AE020E030E044E052E4A0
:102960000E946F07D0923603C0923503F0E1CF0E7C
:10297000D11CD0922305C09222056BEB72E0CE01F0
:1029800001963EDD8CE090E00E9414206C01E09006
:102990003D03F0903E03D7011C966D917C911D97ED
:1029A00002E020E0AE014F5F5F4F0E943208D092FC
:1029B0003403C0923303CE010196DBDB85E190E066
:1029C0000E9414206C01F7016485758592E0E92E60
:1029D0000AE020E030E040E752E4C6010E946F07C1
:1029E000D0923203C0923103F0E1CF0ED11CD092CD
:1029F0002505C09224056BEC72E0CE01019600DD46
:102A00008EE090E00E9414207C0160914D03709153
:102A10004E0302E02EE0AE014F5F5F4F0E944B0974
:102A2000F0923003E0922F03CE010196A2DB6FE912
:102A300072E0CE010196E4DC8EE090E00E9414206A
:102A40006C01D7011C966D917C911D9700E023E0ED
:102A5000AE014F5F5F4F0E944B09D0922E03C09290
:102A60002D03CE01019685DB6EEA72E0CE01019660
:102A7000C7DC8EE090E00E9414205C01F6016485C2
:102A8000758520E0AE014F5F5F4F0E943807B0921E
:102A90002C03A0922B03CE0101966BDB62EB72E05C
:102AA000CE010196ADDC8CE090E00E9414206C0118
:102AB000D7011C966D917C911D9701E020E0AE013D
:102AC0004F5F5F4F0E943208D0922A03C0922903C1
:102AD000CE0101964EDB85E190E00E9414206C014E
:102AE000F70164857585EE24E3940AE020E030E088
:102AF00044E052E40E946F07D0922803C09227035B
:102B0000F0E1CF0ED11CD0922A05C09229056BEBC3
:102B100072E0CE01019674DC8CE090E00E941420FB
:102B20006C01E0902F03F0903003D7011C966D915B
:102B30007C911D9702E020E0AE014F5F5F4F0E9445
:102B40003208D0922603C0922503CE01019611DBF4
:102B500085E190E00E9414206C01F7016485758581
:102B600022E0E22E0AE020E030E040E752E40E945A
:102B70006F07D0922403C0922303F0E1CF0ED11C43
:102B8000D0922C05C0922B0562ED72E0CE01019629
:102B900037DCCE010196F7D8CE010196EADA009132
:102BA000510310915203C80181D880914D03909137
:102BB0004E037CD8C8010E94920DE0DA8091EE03AA
:102BC0009091EF03009711F00E94A9208091F203E9
:102BD0009091F303009711F00E94A9208091F403D3
:102BE0009091F503009711F00E94A9208091F003C5
:102BF0009091F103009711F00E94A92086E0809344
:102C0000ED0382E190E00E941420FC019C012E5E05
:102C10003F4F128211823396E217F307D1F7909358
:102C2000EF038093EE038CE090E00E9414209093D9
:102C3000F3038093F20386E090E00E9414209093C7
:102C4000F5038093F40388E190E00E9414209093B0
:102C5000F1038093F00370E048EE53E0A1E080912F
:102C6000ED03781708F05FC0272F30E063E0769F10
:102C7000C0011124F901E050FE4F6081E091EE03A4
:102C8000F091EF03E80FF91F6083E091EE03F091FC
:102C9000EF03E80FF91F808190E0FC01EA56FD4F39
:102CA0006491FC01E05BFD4F84918823D1F090E0BA
:102CB000880F991FFC01EE5FFD4F05911491FC01F7
:102CC000EA5CFD4FE590F4909FB7F894F801B0816D
:102CD000862F80958B238083F7018081682B60830A
:102CE0009FBFC901880F991FE091F203F091F30390
:102CF000E80FF91F51834083E091F403F091F5034D
:102D0000E20FF31FA083220F331F220F331FE09126
:102D1000F003F091F103E20FF31F1082118212828F
:102D200013827F5F9CCFF8941092800010928100F4
:102D300010926F008091810083608093810086E013
:102D40009FEF909385008093840081E080936F00D3
:102D50008AE59AE00E94CE0C84E999E00E94CE0CAC
:102D600040E057E0242F30E08091DE0490E00197AE
:102D7000281739070CF040C0B7E04B9F80011124A1
:102D800021E08091DE042817A8F58091DC04909161
:102D9000DD04DC01A00FB11F12966D917C91139799
:102DA000F7E02F9F800D911D1124FC01E280F3803C
:102DB000E616F706E8F4CD90DC9011971496ED90A6
:102DC000FC90159716963C911697B52E01900D9292
:102DD000BA94E1F7DC011196DC92CE9213967C93C3
:102DE0006E9312971596FC92EE92149716963C935A
:102DF0002F5FC7CF4F5FB6CF789411E08CEFC82E0E
:102E000082E0D82E05EE10931D04E8E6E0933E0420
:102E1000109209051092080560E08CE095E00E9490
:102E20007A0381E00E94350D882319F01092530334
:102E3000B4C01093530380911C048111FCCF1093F4
:102E40001C0410931B04FFEFF0931A041092190452
:102E500026E0209318041093F7038091F703806D08
:102E60008093F7038091F603813071F41092F6039A
:102E70008091F7038093BB008091BC0083FDF8CF65
:102E800035EC3093BC0002C00093BC0080911C0460
:102E90008130E1F380911904873018F4809119048E
:102EA00001C087E0A8EFB3E0ECEFF2E09E2F9C19A1
:102EB000981718F49D919193F9CF10920B05809378
:102EC0000A05873008F469C08CE095E00E942F0362
:102ED000982F9695969596959E70292F220F220FE2
:102EE000920F8F70890F80931C038CE095E00E94F5
:102EF0002F03982F92959F708F706AE0969F800D98
:102F0000112480931D038CE095E00E942F03982FDD
:102F10009695969596959670292F220F220F920FCF
:102F20008F70890F80931E038CE095E00E942F0321
:102F3000982F92959F708F70AAE09A9F800D112410
:102F400080931F038CE095E00E942F03982F9295A9
:102F50009F708F70BAE09B9F800D11248093200397
:102F60008CE095E00E942F03982F92959F708F70B0
:102F7000EAE09E9F800D1124809321038CE095E070
:102F80000E942F03982F9F70925E82958F70FAE0B7
:102F90008F9F900D11249093220389E00E94720F5D
:102FA000882309F469C08091060590910705892B53
:102FB00009F062C04FEF6FEF912CE0910405F091A2
:102FC00005058481981608F04BC092818381E92F12
:102FD000F82FE90DF11DE90DF11DE080F180D70119
:102FE000ED91FC910480F581E02DC701498F6A8F36
:102FF0001995498D6A8D019789F1F7015581852FC2
:1030000090E02091E904022E000C330B8217930705
:103010006CF08217930711F5E481F0E02091E80449
:10302000022E000C330BE217F307C4F4242F042EF6
:10303000000C330B2817390774F08217930771F4CB
:10304000D70114968C9190E0262F062E000C330B9E
:10305000281739071CF4F7016481452F9394ADCFED
:103060006F3F51F06093E8044093E9048091E604D7
:103070009091E7040E9443068BE00E94720F882320
:1030800009F469C08091060590910705892B09F024
:1030900062C04DE76DE7912CE0910405F0910505C4
:1030A0008481981608F04BC092818381E92FF82F14
:1030B000E90DF11DE90DF11DE080F180D701ED91E1
:1030C000FC910480F581E02DC701498F6A8F199525
:1030D000498D6A8D019789F1F7015581852F90E01F
:1030E0002091E904022E000C330B281739076CF0ED
:1030F0008217930711F5E481F0E02091E804022E95
:10310000000C330B2E173F07C4F4242F042E000CA1
:10311000330B8217930774F08217930771F4D7016A
:1031200014968C9190E0262F062E000C330B8217FC
:1031300093071CF4F7016481452F9394ADCF6D374D
:1031400051F06093E8044093E9048091E604909183
:10315000E7040E9443068CE00E94720F882309F462
:103160004FC0E0900605F0900705E114F10409F462
:1031700047C0D7011C968D909D90AD90BC901F9735
:1031800050962D913D914D915C915397C501B4019D
:103190001FD62B013C01F701608B718B828B938BC7
:1031A000C501B401E1D6072E000C880B990B5FD541
:1031B0009B01AC01C501B4010AD620E030E0A901B1
:1031C00050D5811108C0C301B201CED64AE0CE016C
:1031D00001968CD806C022E0B301A201CE0101966F
:1031E00056D8BE016F5F7F4FC7010E94AE06CE0169
:1031F00001960E94B910D70113961C930E94BE102D
:103200008AE00E94720F882309F496C0E0900605B8
:10321000F0900705E114F10409F48EC0F70124854C
:103220003585468557856089718982899389CFD58F
:103230001B012C0165E872E0CE014396E1D822E043
:10324000B201A101CE01019622D86D807E80D70106
:1032500050964D915D916D917C91539722E0CE01F6
:10326000079615D88B849C84CE0107960E94B910CE
:10327000CE0101960E94B9106814790430F464E814
:1032800072E0CE0143960E948F10F701208A318AA6
:10329000428A538A6484758486849784C401B30106
:1032A00063D6072E000C880B990BE1D49B01AC016F
:1032B000C401B3018CD520E030E0A901D2D4811142
:1032C00008C0C201B10150D64AE0CE010D960ED819
:1032D00007C022E0B201A101CE010D960E94471164
:1032E000BE01635F7F4FCE01079682D8BE016D5E3F
:1032F0007F4FCE0107960E945F10BC01CE01019660
:1033000077D8BE016F5F7F4FC7010E94AE06CE0126
:1033100001960E94B910CE0107960E94B910CE0105
:103320000D960E94B910D70113961C93CE014396B7
:103330000E94B9100E94BE1087E00E94720F88237D
:10334000F1F18091060590910705892BC1F58091D7
:10335000E6049091E7040E947006E0910205EF3FB9
:10336000F9F4809103058F5F809303052091ED04AC
:1033700030E0082E000C990B2817390711F4109231
:103380000305E0910305EE0FFF0B8091EB04909194
:10339000EC04E80FF91F808191810E94920D0DC00D
:1033A000EE0FFF0BE251FB4F808191810E94920D45
:1033B000809102058150809302050E94BE1088E032
:1033C0000E94720F882309F475C0912CE0910405C6
:1033D000F09105058481981608F06CC09281838174
:1033E000E92FF82FE90DF11DE90DF11DE080F180C5
:1033F0002091E804022E000C330BF701848190E049
:103400002817390709F054C02091E904022E000C56
:10341000330B858190E02817390709F049C00190E6
:10342000F081E02D0480F581E02DC70119958230EF
:10343000910521F18330910541F1892BC9F58091E6
:10344000E6049091E7040E947006E0910205EF5FA8
:10345000E0930205EE0FFF0BE251FB4F8091040554
:103460009091050591838083D7011C968D919C9145
:103470001D970E94920D0E94BE101CC0D7011C9681
:10348000ED91FC911D97199513C0F0920705E092FC
:103490000605F7018489811102C0148B09C0148AC2
:1034A000128313830E94BE10109207051092060526
:1034B00093948CCFE0910405F091050584818823D5
:1034C00009F44CC08581882309F448C080916403C5
:1034D00081110CC00E94F404609360037093610337
:1034E0008093620390936303109364030E94F40437
:1034F000409060035090610360906203709063039A
:10350000DC01CB0184199509A609B709853F9140D3
:10351000A105B10518F10E94F40460936003709353
:10352000610380936203909363032091EA04809186
:10353000E6049091E704211105C01093EA040E946B
:103540003C060CC01092EA04DC0116966C911697AA
:103550006D7F16966C9368600E942C06809106051C
:1035600090910705892BE1F18091580381110CC0DE
:103570000E94F404609354037093550380935603A0
:1035800090935703109358030E94F40440905403FF
:10359000509055036090560370905703DC01CB01A7
:1035A00084199509A609B709893C9105A105B105BA
:1035B000B8F00E94F4046093540370935503809311
:1035C000560390935703E0910605F0910705138386
:1035D0008281811102C0128301C012820E94BE103A
:1035E0000E94BE100E9483020ECCCF92DF92EF9217
:1035F000FF92EFE3F4E01382128288EEC82E83E09C
:10360000D82EE12CF12CC482D582E682F7828AE59D
:1036100092E09183808385EC90E09587848784ECA9
:1036200090E09787868780EC90E0918B808B81EC8F
:1036300090E0938B828B82EC90E0958B848B86EC70
:1036400090E0978B868B118E128E138E148EECED7C
:10365000F4E0128214821382168215821086178279
:103660001186E6EEF4E017828FEF848F858F10923B
:103670000B0510920A0510920905109208050E9488
:103680003F0CECE0F5E013821282C482D582E68220
:10369000F7828AE692E091838083EDE2F5E013827F
:1036A00012828AE792E09183808387E2848380E1BB
:1036B000818784E082871386E8E1F5E01082178233
:1036C0001686FF90EF90DF90CF900895EF920F93C2
:1036D0001F93CF93DF93E80147FD02C034E001C0A0
:1036E00034E1E42F440FFF0BF7FF03C0F195E195A0
:1036F000F109E32E022F2E2FAE013ED0CE01DF9135
:10370000CF911F910F91EF9008954532510518F414
:10371000423008F004C0FB011082CB010895BB27A2
:103720004A3031F4992322F4BDE2909581959F4F60
:103730000BC04532510518F4423008F004C0FB01BB
:103740001082CB010895BB27FB015527AA27880FBC
:10375000991FAA1FA41710F0A41B83955051B9F705
:10376000A05DAA3308F0A95DA193009779F7B11184
:10377000B1931192CB0165C24F925F926F927F928B
:103780009F92AF92BF92CF92DF92EF92FF920F93F0
:103790001F93CF93DF93CDB7DEB729970FB6F89479
:1037A000DEBF0FBECDBF6A01122FB02E2BE3201754
:1037B00020F0FF24F394F00E02C0BCE3FB2E0F2D8B
:1037C00027E0AE014F5F5F4F64D1AC018981982F34
:1037D0009970913031F0E1FC06C0E0FE06C090E245
:1037E00005C09DE203C09BE201C090E0EE2DE071B8
:1037F00083FF3CC0911102C083E001C084E08117C7
:1038000018F4212F281B01C020E0E1110BC0F601A4
:10381000822F30E2882319F031938150FBCFC20E02
:10382000D11C20E0992329F0D6019C93F601319612
:103830006F01C6010396E2FE0AC03EE4D6013C9346
:1038400041E411964C93119712963C9306C03EE6C4
:10385000F601308341E641833283FC01322F40E29E
:10386000332309F442C041933150FACF82FF44C060
:10387000911102C083E001C084E0811718F4212F68
:10388000281B01C020E0E1110BC0F601822F30E2BD
:10389000882319F031938150FBCFC20ED11C20E058
:1038A000992329F0D6019C93F60131966F01C60148
:1038B0000396E2FE0BC039E4D6013C933EE4119638
:1038C0003C93119736E412963C9307C039E6F60113
:1038D00030833EE6318336E63283FC01322F40E20C
:1038E000332319F041933150FBCFFC01E20FF11D5E
:1038F00010828EEF9FEFB7C0F1E0911101C0F0E0B0
:103900006F2F70E01416150624F49A012F5F3F4FB5
:1039100002C021E030E0260F371FBB2029F06B2DBD
:1039200070E06F5F7F4F02C060E070E0260F371FCE
:10393000612F70E0261737071CF4121B212F01C0DE
:1039400020E03E2D387159F4D601322F60E2332346
:1039500019F06D933150FBCFC20ED11C20E0FF2334
:1039600031F0D6019C93B6016F5F7F4F6B01E1117F
:103970000BC0F601922F30E3992319F03193915047
:10398000FBCFC20ED11C20E09F2D940F3A81782FDF
:103990007071A72E84FF03C0313309F491501916BA
:1039A00024F4993018F098E001C091E0E42F852FBD
:1039B00057FF02C0E0E080E06E2F782FE0E0F0E0FB
:1039C000AEE29A2E3A01691A71082A01461A570A7C
:1039D0000B2D10E01195019511096F3F8FEF7807BE
:1039E00029F4D6019C92C60101966C01461757072F
:1039F00084F0661677066CF47F01E40CF51CA1E0F8
:103A0000B0E0AC0FBD1FEA0EFB1ED7011196BC90B3
:103A100002C090E3B92E615071093196C60101963A
:103A20007C016017710724F0D601BC926C01D5CFE0
:103A30006417750741F4363320F4353321F4A110AF
:103A400002C081E3B82EF601B082F701822F90E226
:103A5000882319F091938150FBCFF701E20FF11DFC
:103A6000108280E090E029960FB6F894DEBF0FBE7A
:103A7000CDBFDF91CF911F910F91FF90EF90DF901D
:103A8000CF90BF90AF909F907F906F905F904F903E
:103A90000895283008F027E03327DA01990F311D07
:103AA00087FD916000966105710539F432602E5FE3
:103AB0003D9330E32A95E1F708959F3F30F0803839
:103AC0007105610509F03C5F3C5F3D93913008F062
:103AD0008068911DDF93CF931F930F93FF92EF9216
:103AE000192F987F9695E92F96959695E90FFF27C0
:103AF000EE59FE4F99273327EE24FF24A701E70153
:103B000005900894079428F4360FE71EF81E491F05
:103B1000511D660F771F881F991F0694A1F7059006
:103B2000079428F4E70EF81E491F561FC11D770F92
:103B3000881F991F661F0694A1F70590079428F423
:103B4000F80E491F561FC71FD11D880F991F661FEA
:103B5000771F0694A1F70590079420F4490F561F8C
:103B6000C71FD81F990F661F771F881F0694A9F7D4
:103B700084911095177041F0D695C7955795479544
:103B8000F794E7941A95C1F7E8E0F1E0689415908E
:103B9000159135916591959105907FE27395E118A6
:103BA000F10A430B560BC90BD009C0F7E10CF11E0B
:103BB000431F561FC91FD01D7EF4703311F48A9520
:103BC000E6CFE894015030F0080F0AF400270217FE
:103BD00008F4202F2395022F7A3328F079E37D9380
:103BE0002A95E9F710C07D932A9589F60694979552
:103BF0006795379517951794E118F10A430B560B03
:103C0000C90BD00998F023957E9173957A3308F00B
:103C100070E37C932013B8F77E9170617D9330F050
:103C2000839571E37D9370E32A95E1F71124EF907A
:103C3000FF900F911F91CF91DF91992787FD90956C
:103C40000895DC01FC01672F71917723E1F732972A
:103C500004C07C916D9370836291AE17BF07C8F367
:103C6000089540D008F481E00895E89409C097FBD6
:103C70003EF490958095709561957F4F8F4F9F4F43
:103C80009923A9F0F92F96E9BB279395F695879587
:103C900077956795B795F111F8CFFAF4BB0F11F44A
:103CA00060FF1BC06F5F7F4F8F4F9F4F16C08823F1
:103CB00011F096E911C0772321F09EE8872F762F27
:103CC00005C0662371F096E8862F70E060E02AF068
:103CD0009A95660F771F881FDAF7880F9695879554
:103CE00097F90895990F0008550FAA0BE0E8FEEF29
:103CF00016161706E807F907C0F012161306E407B0
:103D0000F50798F0621B730B840B950B39F40A26A8
:103D100061F0232B242B252B21F408950A2609F486
:103D2000A140A6958FEF811D811D089597F99F678A
:103D300080E870E060E008959FEF80EC0895002433
:103D40000A941616170618060906089500240A9400
:103D500012161306140605060895092E0394000C86
:103D600011F4882352F0BB0F40F4BF2B11F460FF15
:103D700004C06F5F7F4F8F4F9F4F089557FD90583E
:103D8000440F551F59F05F3F71F04795880F97FB1F
:103D9000991F61F09F3F79F08795089512161306D9
:103DA0001406551FF2CF4695F1DF08C01616170608
:103DB0001806991FF1CF869571056105089408953D
:103DC000E894BB2766277727CB0197F908955058C9
:103DD000BB27AA270ED0C1CFB2DF30F0B7DF20F06B
:103DE00031F49F3F11F41EF4A7CF0EF4E095E7FBEA
:103DF0009DCFE92FC3DF80F3BA17620773078407EB
:103E0000950718F071F49EF5DBCF0EF4E0950B2EBC
:103E1000BA2FA02D0B01B90190010C01CA01A0011C
:103E20001124FF27591B99F0593F50F4503E68F177
:103E30001A16F040A22F232F342F4427585FF3CFB8
:103E4000469537952795A795F0405395C9F77EF489
:103E50001F16BA0B620B730B840BBAF09150A1F0D2
:103E6000FF0FBB1F661F771F881FC2F70EC0BA0F58
:103E7000621F731F841F48F4879577956795B795E0
:103E8000F7959E3F08F0B3CF9395880F08F09927D8
:103E9000EE0F9795879508950CD05FCF57DF40F0D0
:103EA0004EDF30F021F45F3F19F040CF511189CF40
:103EB00043CF64DF98F39923C9F35523B1F3951BDE
:103EC000550BBB27AA2762177307840738F09F5F3B
:103ED0005F4F220F331F441FAA1FA9F333D00E2EAA
:103EE0003AF0E0E830D091505040E695001CCAF717
:103EF00029D0FE2F27D0660F771F881FBB1F2617DC
:103F000037074807AB07B0E809F0BB0B802DBF01AE
:103F1000FF2793585F4F2AF09E3F510568F006CF68
:103F200050CF5F3FECF3983EDCF38695779567952D
:103F3000B795F7959F5FC9F7880F911D969587955F
:103F400097F90895E1E0660F771F881FBB1F62177E
:103F500073078407BA0720F0621B730B840BBA0B3C
:103F6000EE1F88F7E095089504D06894B11129CF29
:103F700008950CDF88F09F5790F0B92F9927B7511B
:103F8000A0F0D1F0660F771F881F991F1AF0BA951D
:103F9000C9F712C0B13081F013DFB1E0089510CF3E
:103FA000672F782F8827B85F39F0B93FCCF3869513
:103FB00077956795B395D9F73EF490958095709570
:103FC00061957F4F8F4F9F4F089597FB072E16F4F3
:103FD000009406D077FD08D013D007FC05D03EF43E
:103FE000909581959F4F0895709561957F4F0895A5
:103FF000EE0FFF1F881F8BBF0790F691E02D1994DD
:10400000AA1BBB1B51E107C0AA1FBB1FA617B707FE
:1040100010F0A61BB70B881F991F5A95A9F780951A
:104020009095BC01CD010895CF93DF938230910527
:1040300010F482E090E0E0913B05F0913C0520E037
:1040400030E0C0E0D0E0309711F140815181481755
:104050005907C0F04817590761F48281938120976E
:1040600019F09B838A832BC090933C0580933B057A
:1040700026C02115310519F04217530718F49A018B
:10408000BE01DF01EF010280F381E02DDCCF2115BD
:10409000310509F1281B390B2430310590F41296B3
:1040A0008D919C9113976115710521F0FB0193830C
:1040B000828304C090933C0580933B05FD013296BA
:1040C00044C0FD01E20FF31F819391932250310907
:1040D0002D933C933AC02091390530913A05232B1A
:1040E00041F4209108023091090230933A0520935F
:1040F000390520910602309107022115310541F45E
:104100002DB73EB740910A0250910B02241B350B8C
:10411000E0913905F0913A05E217F307A0F42E1B60
:104120003F0B2817390778F0AC014E5F5F4F24171B
:10413000350748F04E0F5F1F50933A0540933905FD
:104140008193919302C0E0E0F0E0CF01DF91CF9145
:1041500008950F931F93CF93DF93009709F48CC0BA
:10416000FC0132971382128200913B0510913C05AD
:104170000115110581F420813181820F931F209157
:10418000390530913A052817390779F5F0933A0542
:10419000E093390571C0D80140E050E0AE17BF0789
:1041A00050F412962D913C911397AD0121153105D4
:1041B00009F1D901F3CF9D01DA01338322836081B4
:1041C0007181860F971F8217930769F4EC0128818C
:1041D0003981260F371F2E5F3F4F318320838A811D
:1041E0009B8193838283452B29F4F0933C05E093D4
:1041F0003B0542C01396FC93EE931297ED01499153
:1042000059919E01240F351FE217F30771F4808145
:104210009181840F951F029611969C938E938281B3
:10422000938113969C938E931297E0E0F0E0D8016F
:1042300012968D919C911397009719F0F8018C01BB
:10424000F6CF8D919C9198012E5F3F4F820F931F67
:104250002091390530913A052817390769F43097CC
:1042600029F410923C0510923B0502C01382128281
:1042700010933A0500933905DF91CF911F910F916B
:1042800008956F927F928F929F92AF92BF92CF923A
:10429000DF92EF92FF920F931F93CF93DF93EC0186
:1042A000009781F4CB01DF91CF911F910F91FF9087
:1042B000EF90DF90CF90BF90AF909F908F907F90C6
:1042C0006F90B2CEFC01E60FF71F9C01225031091E
:1042D000E217F30708F4A8C0D9010D911C911197BA
:1042E00006171707A8F00530110508F49BC0C80190
:1042F00004978617970708F495C002501109061B0A
:10430000170B019311936D937C93CF0122DF8AC029
:104310005B01A01AB10A4C01800E911EA0913B05D1
:10432000B0913C0540E050E0E12CF12C109709F4ED
:104330004AC0A815B905D1F56D907C90119763011D
:1043400082E0C80ED11CCA14DB0480F1A3014A1913
:104350005B096A0182E0C80ED11C1296BC901297CC
:104360001396AC91B5E0CB16D10440F0B282A38392
:1043700051834083D9016D937C930AC00E5F1F4F18
:10438000C301800F911FF90191838083EB2DFA2FD8
:10439000E114F10431F0D7011396FC93EE931297D8
:1043A00041C0F0933C05E0933B053CC08D919C914E
:1043B00011974817590708F4AC017D0112960D902A
:1043C000BC91A02DB3CF8091390590913A05881505
:1043D0009905E1F446175707C8F4809106029091B9
:1043E0000702009741F48DB79EB740910A025091A1
:1043F0000B02841B950BE817F907B0F4F0933A050C
:10440000E0933905F901718360830CC0CB010CDEA8
:104410007C01009749F0A801BE011BD0CE0199DEB6
:10442000C70104C0CE0102C080E090E0DF91CF91CF
:104430001F910F91FF90EF90DF90CF90BF90AF90C2
:104440009F908F907F906F90089581E090E0F89416
:1044500010C0FB01DC0102C001900D9241505040A0
:10446000D8F70895FB01DC0101900D920020E1F7DF
:064470000895F894FFCF4F
:1044760007090B0C0A0800003D058000000000003B
:104486007706A50600000000590C5F0C00004000EE
:104496001400540000000000AA03FE03EC02000012
:1044A6000000DF03F503E90200000000D003D60395
:1044B600E00200000000C103C703E30200000000A1
:1044C600B203B803E602000000001C02A111E601D7
:1044D600C401D8016202000000007A034B034303C3
:1044E6002F0320031F03000000001706A111546FBD
:1044F6006461793A200030373A33333A3130005329
:104506006561736F6E203100547265652031005409
:10451600696D6520666F722077617465720041640B
:1045260064004D61782074656D70004D6178206877
:10453600756D690054726565203200547265652098
:1045460033004661726D426F7420436F6E74726FF2
:104556006C6C6572003A0078003230002F004E6FA6
:06456600206D656E75007A
:00000001FF
