:10000000B6C10000E5C10000E3C10000E1C100008D
:10001000DFC10000DDC10000DBC10000D9C100006C
:10002000D7C10000D5C10000D3C10000D1C100007C
:10003000CFC10000CDC10000CBC100000C943B201B
:10004000C7C10000C5C10000C3C10000C1C100009C
:10005000BFC10000BDC10000BBC100000C947820EE
:10006000B7C100000C94DB230C941124B1C1000033
:10007000AFC10000ADC10000ABC10000A9C10000CC
:10008000A7C10000A5C10000A3C10000A1C10000DC
:100090000C9486240C94BC249BC100000C94A40FE7
:1000A00097C1000095C1000093C1000091C10000FC
:1000B0008FC100008DC100008BC1000089C100000C
:1000C00087C1000085C1000083C1000081C100001C
:1000D0007FC100007DC100007BC1000079C100002C
:1000E00077C100009C219F218E2192219821D62149
:1000F000A321A721AD21B121B521BB21BF21C3215E
:10010000D621C921CD21D12100000A0B02090C0DF5
:100110000E080703040100000000000000000000BA
:1001200000000000000000000000000000000000CF
:10013000000000001211100000000000000000008C
:1001400000000000000000000000000000000102AC
:1001500010202008081020401020408002010201D9
:100160000804020101020408102040808040201091
:1001700008040201800402018040201008040201EA
:100180000804020101020408102040800102040852
:10019000102040800505050507050808080802022B
:1001A00002020A0A08080404040401010101010111
:1001B00001010303030303030303040707070C0CF4
:1001C0000C0C0C0C0C0C02020202060606060606BB
:1001D00006060B0B0B0B0B0B0B0B00002000230078
:1001E000260029002C002F0032000001000003012E
:1001F0000601090100002200250028002B002E0026
:100200003100340002010000050108010B0100006B
:100210002100240027002A002D00300033000101B6
:100220000000040107010A014E414E494E4954594C
:10023000494E46CDCCCC3D0AD7233C17B7D13877B1
:10024000CC2B329595E6241FB14F0A0000204100C7
:1002500000C84200401C4620BCBE4CCA1B0E5AAE11
:10026000C59D7400407A10F35A00A0724E18090020
:1002700010A5D4E80000E87648170000E40B54020B
:100280000000CA9A3B000000E1F505000080969846
:1002900000000040420F000000A086010000001096
:1002A0002700000000E803000000006400000000D8
:1002B000000A00000000000100000000002C76D8B9
:1002C00088DC674F0823DFC1DFAE59E1B1B796E59F
:1002D000E3E453C63AE651997696E8E6C28426EB03
:1002E000898C9B62ED407C6FFCEFBC9C9F40F2BA16
:1002F000A56FA5F490055A2AF75C936B6CF9676DAE
:10030000C11BFCE0E40D47FEF520E6B500D0ED9002
:100310002E0300943577050080841E080000204ECF
:100320000A000000C80C333333330F986E12831168
:1003300041EF8D2114893BE65516CFFEE6DB18D13F
:10034000844B381BF77C1D901DA4BBE42420328411
:10035000725E228100C9F124ECA1E53D2700C90DA0
:10036000C30EDB10E91A67204324EE24F60D112496
:100370001FBECFEFD1E2DEBFCDBF00E00CBF13E068
:10038000A0E0B2E0ECECF1E600E00BBF02C00790A9
:100390000D92A834B107D9F726E0A8E4B3E001C074
:1003A0001D92A337B207E1F713E0CCE6D3E000E0FB
:1003B00006C022970109FE010BBF0E944F2ACE35CD
:1003C000D10780E00807A9F70E9432250C94D530A8
:1003D00017CE08950895089508950895CF93DF9353
:1003E000CDB7DEB76E970FB6F894DEBF0FBECDBFA8
:1003F0004AE06091EF03CE0149960E9468264AE0E8
:100400006091EE03CE0143960E9468264AE0609117
:10041000ED03CE010D960E9468268D8D9E8D01976D
:1004200009F564E572E0CE0107960E942026BE0120
:10043000695F7F4FCE0101960E944A26BE01675E2A
:100440007F4FCE0101960E942827BC01CE0149961C
:100450000E943526CE0101960E94B925CE0107964D
:100460000E94B9258F89988D019709F564E572E09E
:10047000CE0107960E942026BE01695F7F4FCE0104
:1004800001960E944A26BE016D5E7F4FCE01019605
:100490000E942827BC01CE0143960E943526CE013A
:1004A00001960E94B925CE0107960E94B925898937
:1004B0009A89019709F564E572E0CE0107960E94DA
:1004C0002026BE01695F7F4FCE0101960E944A2619
:1004D000BE01635F7F4FCE0101960E942827BC01B9
:1004E000CE010D960E943526CE0101960E94B925B7
:1004F000CE0107960E94B925BE01675E7F4FCE01EF
:1005000007960E944A266BE972E0CE0107960E9488
:100510003927BE016D5E7F4F0E9428276BE972E08C
:100520000E943927BE01635F7F4F0E942827BC01CC
:10053000CE0101960E944A26BE016F5F7F4F8091D7
:10054000E5039091E6030E941E16CE0101960E94DB
:10055000B925CE0107960E94B925CE010D960E94BD
:10056000B925CE0143960E94B925CE0149960E9435
:10057000B9256E960FB6F894DEBF0FBECDBFDF91E2
:10058000CF910895CF93DF93CDB7DEB7A4970FB681
:10059000F894DEBF0FBECDBF4AE06091F103CE01FB
:1005A0004F960E9468264AE06091F203CE01499678
:1005B0000E9468266091F30370E06E51710977FF25
:1005C00003C07195619571094AE0CE0107960E94BA
:1005D000932664E172E0CE010D960E942026BE01B2
:1005E000635F7F4FCE0101960E944A26BE01695F7C
:1005F0007F4FCE0101960E942827BC01CE01439671
:100600000E944A26CE0101960E94B925CE010D9680
:100610000E94B925CE0107960E94B9258BA19CA105
:10062000019709F564E572E0CE0107960E94202645
:10063000BE01695F7F4FCE0101960E944A26BE012E
:10064000615E7F4FCE0101960E942827BC01CE013A
:100650004F960E943526CE0101960E94B925CE0103
:1006600007960E94B9258D8D9E8D019709F564E549
:1006700072E0CE0107960E942026BE01695F7F4F7F
:10068000CE0101960E944A26BE01675E7F4FCE01D1
:1006900001960E942827BC01CE0149960E9435266A
:1006A000CE0101960E94B925CE0107960E94B92578
:1006B000BE01615E7F4FCE0107960E944A2667E128
:1006C00072E0CE0107960E943927BE01675E7F4F18
:1006D0000E94282767E172E00E943927BE016D5E03
:1006E0007F4F0E942827BC01CE0101960E944A2616
:1006F000BE016F5F7F4F8091E7039091E8030E94F6
:100700001E16CE0101960E94B925CE0107960E94C1
:10071000B925CE0143960E94B925CE0149960E9483
:10072000B925CE014F960E94B925A4960FB6F8942C
:10073000DEBF0FBECDBFDF91CF91089569E172E0BA
:1007400080ED95E00E94A9256FE172E080ED95E0D3
:100750000C94A92567E272E080ED95E00C94A92540
:100760006DE272E080ED95E00C94A92569E172E0FC
:1007700080ED95E00C94A925CF93DF93C091C3033E
:10078000D091C4038091CD039091CE030E94C817ED
:100790006A8B7B8B8C8B9D8BC091C103D091C203E4
:1007A0008091CD039091CE030E94C8176A8B7B8BFA
:1007B0008C8B9D8BC091BF03D091C0038091CD03E2
:1007C0009091CE030E94C8176A8B7B8B8C8B9D8B7C
:1007D000DF91CF910895CF93DF93CDB7DEB76897C0
:1007E0000FB6F894DEBF0FBECDBF8091C3039091CA
:1007F000C4030E94C8170E94B1284AE0CE010196A6
:100800000E94932669E373E0CE010D960E94202694
:10081000BE01635F7F4FCE0107960E944A2663E3C5
:1008200072E0CE0107960E943927BE016F5F7F4FAD
:100830000E942827BC01CE0143960E944A26CE0181
:1008400007960E94B925CE010D960E94B925CE01CA
:1008500001960E94B925BE016D5E7F4F80ED95E047
:100860000E949925CE0143960E94B92568960FB63D
:10087000F894DEBF0FBECDBFDF91CF910895CF9327
:10088000DF93CDB7DEB768970FB6F894DEBF0FBE23
:10089000CDBF8091C1039091C2030E94C8170E94EE
:1008A000B1284AE0CE0101960E94932669E373E0E5
:1008B000CE010D960E942026BE01635F7F4FCE01C0
:1008C00007960E944A2669E372E0CE0107960E94CD
:1008D0003927BE016F5F7F4F0E942827BC01CE01E0
:1008E00043960E944A26CE0107960E94B925CE0162
:1008F0000D960E94B925CE0101960E94B925BE0130
:100900006D5E7F4F80ED95E00E949925CE01439664
:100910000E94B92568960FB6F894DEBF0FBECDBF12
:10092000DF91CF910895CF93DF93CDB7DEB768976E
:100930000FB6F894DEBF0FBECDBF8091BF0390917C
:10094000C0030E94C8170E94B1284AE0CE01019658
:100950000E94932669E373E0CE010D960E94202643
:10096000BE01635F7F4FCE0107960E944A266FE368
:1009700072E0CE0107960E943927BE016F5F7F4F5C
:100980000E942827BC01CE0143960E944A26CE0130
:1009900007960E94B925CE010D960E94B925CE0179
:1009A00001960E94B925BE016D5E7F4F80ED95E0F6
:1009B0000E949925CE0143960E94B92568960FB6EC
:1009C000F894DEBF0FBECDBFDF91CF91089523EC29
:1009D00032E0FC01318320830C944111CF93DF93EB
:1009E000EC01F5DFCE01DF91CF910C944025CF9340
:1009F000DF93CDE5D3E02797888199810E94402538
:100A000083E0C834D807B9F780E094E00E94911CD5
:100A10008EE094E0DF91CF910C94911C2F923F9245
:100A20004F925F926F927F928F929F92AF92BF92FE
:100A3000CF92DF92EF92FF920F931F93CF93DF93AA
:100A4000CDB7DEB7E1970FB6F894DEBF0FBECDBFCE
:100A50008AEB9CE090936403809363038CEB9CE0AF
:100A600090936603809365038EEB9CE090936803FC
:100A70008093670380E79DE090935E0380935D031E
:100A800082E79DE09093600380935F0384E79DE09D
:100A9000909362038093610326E040E855E260E0B2
:100AA00070E083E395E00E947B2326E040E855E276
:100AB00060E070E080ED95E00E947B2340E855E225
:100AC00063E375E0CE0101965C010E94461C8981BA
:100AD0009A8190930F0480930E048B819C81909354
:100AE0001104809310048D819E8190931304809350
:100AF00012048F8180931404888580931504BE01AD
:100B0000675F7F4F86E194E00E943526C5010E9411
:100B1000911C40E855E260ED75E0C5010E94461C5D
:100B200089819A8190930104809300048B819C8138
:100B300090930304809302048D819E819093050419
:100B4000809304048F818093060488858093070432
:100B5000BE01675F7F4F88E094E00E943526C501A3
:100B60000E94911C40E855E260ED75E08EE094E053
:100B70000E94BE1C40E855E263E375E080E094E02B
:100B80000E94BE1C86E090E00E943E256C0116E0AB
:100B9000DC01E12F1D92EA95E9F70E943E1643EC35
:100BA000642E42E0742ED6016D927C92D092EC03BA
:100BB000C092EB0365E472E0C5010E94202682E149
:100BC00090E00E943E256C016091EB037091EC0374
:100BD00000E020E0A5010E949317D092EA03C092A2
:100BE000E903C5010E94B92569E373E0C5010E94CC
:100BF000202682E190E00E943E256C016091EB038B
:100C00007091EC0328E0A5010E949317D092E803AD
:100C1000C092E703C5010E94B9256DE472E0C501E9
:100C20000E94202682E190E00E943E256C016091A6
:100C3000EB037091EC0301E028E0A5010E949317FB
:100C4000D092E603C092E503C5010E94B92586E073
:100C500090E00E943E256C01FC0111921A95E9F783
:100C60000E943E16D6016D927C92D092E403C0920F
:100C7000E30366E572E0C5010E94202682E190E070
:100C80000E943E256C016091E3037091E40300E053
:100C900027E0A5010E949317D092E203C092E103DE
:100CA000C5010E94B9255BEDC52E53E0D52E65EA3E
:100CB000862E63E0962EEBE7F3E0FD8FEC8F83E664
:100CC00093E099A388A3A5E7B3E0BF8FAE8FEFE6CB
:100CD000F3E0FBA3EAA389E693E09DA38CA3AFE92D
:100CE000B3E0BFA3AEA3EDE8F3E0F9A7E8A789E975
:100CF00093E09BA78AA7A7E8B3E0BDA7ACA7E3E969
:100D0000F3E0FFA7EEA781E893E099AB88AB1B8ED9
:100D100022242394312CFA2C1B2D412C512CE8EB4E
:100D20006E2EE1E47E2E4AE0B101CE0145960E948E
:100D300093266FE572E0CE010F960E942026BE0139
:100D40006B5E7F4FCE010F960E942827BC018F2D2E
:100D5000912F0E944A2684E190E00E943E255C018A
:100D60006091E3037091E40302E02B8D4F2D512F2E
:100D70000E944917D601AD92BC928F2D912F0E94EF
:100D8000B925CE010F960E94B925CE0145960E9445
:100D9000B92564E672E08F2D912F0E94202684E110
:100DA00090E00E943E255C01D601ED91FC916289A4
:100DB000738900E023E04F2D512F0E944917F40161
:100DC000B182A0828F2D912F0E94B92563E772E036
:100DD0008F2D912F0E94202684E190E00E943E25D5
:100DE0005C01D401ED91FC916289738920E04F2D63
:100DF000512F0E94B21AEC8DFD8DB182A0828F2DF1
:100E0000912F0E94B925AC8DBD8DED91FD91BD8FC7
:100E1000AC8FA8A1B9A18D919D91B9A3A8A3938BE3
:100E2000828B87E290E00E943E255C01D401ED9127
:100E3000FC9162897389E12C0AE020E030E040E413
:100E400051E40E945E18EE8DFF8DB182A0826BE9A5
:100E500072E08F2D912F0E94202682E190E00E9467
:100E60003E255C01D401ED91FC916289738900E01B
:100E70002CE04F2D512F0E949317EAA1FBA1A192C4
:100E8000B192FBA3EAA38F2D912F0E94B92587E28F
:100E900090E00E943E255C01D401ED91FD914D0151
:100EA000628973890DE020E030E040E751E40E9460
:100EB0005E18ECA1FDA1A192B192FDA3ECA3AE8DB1
:100EC000BF8DED91FD91BF8FAE8F478A508E618EA1
:100ED000728E138E148E158E168E80E090E0ACE626
:100EE000B2E4F501878B908FA18FB28F138E148E91
:100EF000158E168E67E772E08F2D912F0E942026A7
:100F000082E190E00E943E255C01D601ED91FC91CA
:100F10006289738901E020E04F2D512F0E949317C1
:100F2000EEA1FFA1A192B192FFA3EEA38F2D912F6D
:100F30000E94B92587E290E00E943E255C01D6011F
:100F4000ED91FC9162897389EE24E3940AE020E03C
:100F500030E040E252E40E945E18E8A5F9A5A192B3
:100F6000B192F9A7E8A760E872E08F2D912F0E9457
:100F7000202682E190E00E943E255C01D601ED91A1
:100F8000FC916289738902E020E04F2D512F0E946D
:100F90009317EAA5FBA5A192B192FBA7EAA78F2D13
:100FA000912F0E94B92587E290E00E943E255C01C6
:100FB000D601ED91FC916289738922E0E22E0AE06C
:100FC00020E030E040E752E40E945E18ECA5FDA569
:100FD000A192B192FDA7ECA769E872E08F2D912F45
:100FE0000E94202682E190E00E943E255C01D6010D
:100FF000ED91FC916289738903E020E04F2D512F20
:101000000E949317EEA5FFA5A192B192FFA7EEA7AC
:101010008F2D912F0E94B92587E290E00E943E25F6
:101020005C01D601ED91FD916D016289738933E018
:10103000E32E0AE020E030E040E252E40E945E1835
:10104000E8A9F9A9A192B192F9ABE8ABFFEF2F1A89
:101050003F0A8B8D895F8B8F853109F064CE86E0E6
:1010600090E00E943E256C0186E0D6011D928A9593
:10107000E9F7C6010E943E1683EC92E0F6019183E7
:101080008083D092DA03C092D90362E972E08F2D97
:10109000912F0E94202684E190E00E943E256C0161
:1010A0006091D9037091DA0300E021E04F2D512FB8
:1010B0000E94B21AD092D803C092D7038F2D912FDD
:1010C0000E94B92567E372E08F2D912F0E942026A0
:1010D00084E190E00E943E256C016091D9037091FB
:1010E000DA0328E04F2D512F0E94B21AD092D60376
:1010F000C092D5038F2D912F0E94B9256DE372E028
:101100008F2D912F0E94202684E190E00E943E25A1
:101110006C016091D9037091DA032CE04F2D512FAF
:101120000E94B21AD092D403C092D3038F2D912F74
:101130000E94B92563E472E08F2D912F0E94202632
:1011400084E190E00E943E256C016091D90370918A
:10115000DA0320E14F2D512F0E94B21AD092D20310
:10116000C092D1038F2D912F0E94B92567E972E0BB
:101170008F2D912F0E94202682E190E00E943E2533
:101180006C016091D9037091DA0301E021E04F2DE9
:10119000512F0E949317D092D003C092CF038F2D6E
:1011A000912F0E94B92587E290E00E943E256C01B4
:1011B0006091D9037091DA03EE24E39408E020E013
:1011C00030E040E85FE30E945E18D092CE03C09208
:1011D000CD036DE972E08F2D912F0E94202682E1D0
:1011E00090E00E943E256C016091D9037091DA0372
:1011F00001E02BE04F2D512F0E949317D092CC038A
:10120000C092CB038F2D912F0E94B92567E372E026
:101210008F2D912F0E94202682E190E00E943E2592
:101220006C016091D9037091DA0302E020E04F2D48
:10123000512F0E949317D092CA03C092C9038F2DD9
:10124000912F0E94B92587E290E00E943E256C0113
:101250006091D9037091DA0382E0E82E01E020E08A
:1012600030E0A901C6010E945E18D092C403C0926A
:10127000C3036DE372E08F2D912F0E94202682E13F
:1012800090E00E943E256C016091D9037091DA03D1
:1012900002E027E04F2D512F0E949317D092C803F0
:1012A000C092C7038F2D912F0E94B92587E290E04D
:1012B0000E943E256C016091D9037091DA0308E029
:1012C00020E030E0A9010E945E18D092C203C092D3
:1012D000C10363E472E08F2D912F0E94202682E1EA
:1012E00090E00E943E256C016091D9037091DA0371
:1012F00002E02EE04F2D512F0E949317D092C6038B
:10130000C092C5038F2D912F0E94B92587E290E0EE
:101310000E943E256C016091D9037091DA030FE0C1
:1013200020E030E0A9010E945E18D092C003C09274
:10133000BF0360EA72E08F2D912F0E94202684E186
:1013400090E00E943E256C016091D9037091DA0310
:1013500003E020E04F2D512F0E94B21AD092BE031D
:10136000C092BD038F2D912F0E94B92587E290E096
:101370000E943E256C016091D9037091DA0393E0DD
:10138000E92E01E020E030E040E85FE3C6010E9482
:101390005E18D092BC03C092BB0362EA72E08F2D4C
:1013A000912F0E94202684E190E00E943E256C014E
:1013B0006091D9037091DA0303E026E04F2D512F9D
:1013C0000E94B21AD092BA03C092B9038F2D912F06
:1013D0000E94B92587E290E00E943E256C01609151
:1013E000D9037091DA0307E020E030E0A9010E9400
:1013F0005E18D092B803C092B70364EA72E08F2DF2
:10140000912F0E94202684E190E00E943E256C01ED
:101410006091D9037091DA0303E02AE04F2D512F38
:101420000E94B21AD092B203C092B1038F2D912FB5
:101430000E94B92587E290E00E943E256C016091F0
:10144000D9037091DA030BE020E030E0A9010E949B
:101450005E18D092B003C092AF0366EA72E08F2D9F
:10146000912F0E94202684E190E00E943E256C018D
:101470006091D9037091DA0303E02EE04F2D512FD4
:101480000E94B21AD092B603C092B5038F2D912F4D
:101490000E94B92587E290E00E943E256C01609190
:1014A000D9037091DA030FE020E030E0A9010E9437
:1014B0005E18D092B403C092B30368EA72E08F2D35
:1014C000912F0E94202684E190E00E943E256C012D
:1014D0006091D9037091DA0303E022E14F2D512F7F
:1014E0000E94B21AD092AE03C092AD038F2D912FFD
:1014F0000E94B92587E290E00E943E256C01609130
:10150000D9037091DA0303E120E030E044EB52E4C8
:101510000E945E18D092AC03C092AB03E091D70357
:10152000F091D8038EE993E0938B828BE091D50301
:10153000F091D6038AEA93E0938B828BE091D303F8
:10154000F091D40380EB93E0938B828BE091D103F5
:10155000F091D20386EB93E0938B828BE091CD03E5
:10156000F091CE0380E090E0A8ECB2E4878B908FFE
:10157000A18FB28F80E090E0A0E8BFE3838F948FCB
:10158000A58FB68F8CEB93E090A3878FE091C30378
:10159000F091C4038BEE93E090A3878FE091C10399
:1015A000F091C2038FE394E090A3878FE091BF0393
:1015B000F091C00383E994E090A3878FE091BD038D
:1015C000F091BE0389EE91E0938B828BE091B90399
:1015D000F091BA038AEE91E0938B828BE091B10394
:1015E000F091B2038BEE91E0938B828BE091B50387
:1015F000F091B6038CEE91E0938B828BE091AD037A
:10160000F091AE038DEE91E0938B828BE091BB0362
:10161000F091BC03178A108E118E128EE091B703E1
:10162000F091B803178A108E118E128EE091AF03DD
:10163000F091B003178A108E118E128EE091B303D1
:10164000F091B403178A108E118E128E40E050E094
:1016500064EB72E4D60157964D935D936D937C9342
:101660005A97F601428B538B648B758B6AEA72E052
:101670008F2D912F0E9420264F2D512F64EF73E064
:1016800085EE94E098D68F2D912F0E94B925609118
:10169000EB037091EC0385EE94E0C3D66091E30315
:1016A0007091E40385EE94E0BCD66091D90370910B
:1016B000DA0385EE94E0B5D66091EB037091EC030C
:1016C00085EE94E09FD785EE94E04AD746E066E049
:1016D00072E087E195E00E948F1D80E295E00E9414
:1016E000D21E48EE53E06EEE71E080E295E00E947B
:1016F000F41E48EE53E062EC72E080E295E00E9456
:10170000F41E80E295E00E94C61FE1960FB6F894A1
:10171000DEBF0FBECDBFDF91CF911F910F91FF9024
:10172000EF90DF90CF90BF90AF909F908F907F9081
:101730006F905F904F903F902F9008955F926F92BF
:101740007F928F929F92AF92BF92CF92DF92EF9251
:10175000FF920F931F93CF93DF93CDB7DEB72C97F4
:101760000FB6F894DEBF0FBECDBF882E912C97E048
:10177000899F70011124D701A85BBC4F7D0114968D
:101780008D919C9115978630910509F4DDC0282F25
:101790002170220F522E550C550C520E969587959E
:1017A00011E0180F880C991CF401E759FC4FC08018
:1017B000D180B6E0CB0ED11CF401EB58FC4F608118
:1017C00071816A5F7F4FCE0107960E944A266BE9BE
:1017D00072E0CE0107960E943927B6010E942827A1
:1017E000BC01CE0101960E944A2682E190E00E944F
:1017F0003E255C01F401EB55FC4F3F010190F08167
:10180000E02D62897389012F252DAE014F5F5F4F57
:101810000E949317CE0101960E94B925CE0107962A
:101820000E94B9256DEB72E0CE0101960E94202640
:1018300084E190E00E943E256C0126E0250DD30155
:10184000ED91FC9162897389AE014F5F5F4F0E94F9
:10185000B21ACE0101960E94B925F401E35AFC4F59
:1018600080819181F601938B828BD70114968D91A3
:101870009C9115978C010F5F1F4F8017910708F0FF
:101880005BC012964D915C91139740175107B0F5CC
:1018900009964817590790F58C9011969C901197CE
:1018A00013969C938E931297880F991F880F991FF8
:1018B0000E943E25F70180839183FC01340120E0E2
:1018C00030E0D70114968D919C9115972817390710
:1018D00090F4309749F0D3014D915D916D917C91D9
:1018E00040835183628373832F5F3F4F3496B4E00C
:1018F0006B0E711CE6CFC4010E944025F701848164
:1019000095819C01220F331F220F331F80179107EF
:1019100078F4D701ED91FC91E20FF31F309721F09D
:10192000B182A082D382C28201962C5F3F4FEECF5C
:10193000F7011583048308C00817190728F4D70195
:1019400015961C930E9314972C960FB6F894DEBF41
:101950000FBECDBFDF91CF911F910F91FF90EF9000
:10196000DF90CF90BF90AF909F908F907F906F90BF
:101970005F90089580E0E2CE81E0E0CE82E0DECEAE
:10198000DF92EF92FF920F931F93CF93DF93F12C8F
:1019900097E0899FE0011124C85BDC4F0F2D10E018
:1019A0008C819D810817190728F58F2D8170880F6C
:1019B000D82EDD0CDD0CD80EEF2CE694E394000F4E
:1019C000111F000F111FE881F981E00FF11F4E2D4B
:1019D0006D2D808191810E943A1666E06D0DE8813F
:1019E000F981E00FF11F4E2D828193810E943A16FA
:1019F000F394D4CFDF91CF911F910F91FF90EF908F
:101A0000DF900895DF92EF92FF920F931F93CF9391
:101A1000DF93D82E8091E704992787FD909506974C
:101A20006AE070E00E94FB29E090E804EE0CEA9482
:101A3000EA94E60E0D2D10E087E0D89EE001112417
:101A4000C85BDC4FA4E0EA9E70011124E881F981B3
:101A5000EE0DFF1D60817181000F111F0B551C4F92
:101A6000D801ED91FC91828993890E94D516E88175
:101A7000F981EE0DFF1D62817381D801ED91FC911A
:101A8000828993890E94D516E881F981D701B6959C
:101A9000A795B695A795EE0DFF1D8C819D819C01A4
:101AA00021503109A217B30750F411964481558192
:101AB000668177814193519361937193EECF28179B
:101AC000390710F43D832C838D2D5ADF85EE94E089
:101AD000DF91CF911F910F91FF90EF90DF9045C65E
:101AE00080E090CF81E08ECF82E08CCF8DEE93E0CE
:101AF00065C369E087E195E00E942A1E882319F0FA
:101B000085EE94E03ED66BE087E195E00E942A1EC8
:101B1000882319F085EE94E0BFD66CE087E195E06C
:101B20000E942A1E882321F085EE94E00E94A31AC9
:101B30006AE087E195E00E942A1E882321F085EE65
:101B400094E00E94E11967E087E195E00E942A1E77
:101B5000882321F085EE94E00E94E51568E087E196
:101B600095E00E942A1E882319F085EE94E0ADC707
:101B70000895BCDFBEDF85EE94E019D785EE94E0D2
:101B8000EFD48EE094E00E94C91C80E094E00C94B5
:101B9000C91C0F931F93CF93DF938EE094E00E94B4
:101BA000031C80E094E00E94031C24E044E167E20F
:101BB00084EF93E00E94F11AC8E4D3E008E010E05B
:101BC000198218821B830A831D821C8280E290E0A6
:101BD0000E943E2599838883279683E0CD35D807D8
:101BE00079F7DF91CF911F910F9108950C94F7042D
:101BF00080914C0490E020914D04821B910908953E
:101C000020914D0480914C04281750F4E22FF0E00D
:101C1000E25BFB4F808190E02F5F20934D0408959D
:101C20008FEF9FEF0895E0914D0480914C04E817E9
:101C300030F4F0E0E25BFB4F808190E008958FEF9D
:101C40009FEF08950895CF92DF92EF92FF920F9346
:101C50001F93CF93DF937C01CB018A01209128044D
:101C6000222389F0EB016B01C40ED51ECC15DD05D6
:101C700061F06991D701ED91FC910190F081E02D27
:101C8000C7011995F3CF642F36D1C801DF91CF91E9
:101C90001F910F91FF90EF90DF90CF900895CF9319
:101CA000DF931F92CDB7DEB76983209128042223EA
:101CB000D1F020912904203240F021E030E0FC01F5
:101CC0003383228380E090E014C080912A04E82FBF
:101CD000F0E0E55DFB4F998190838F5F80932A044C
:101CE0008093290404C061E0CE01019604D181E013
:101CF00090E00F90DF91CF910895FC011382128242
:101D000048EE53E060E070E0448355836683778358
:101D10008BEC92E091838083089510924D04109291
:101D20004C0410922A041092290430C0862F4132AC
:101D300008F040E26EE474E047D010924D048093C6
:101D40004C04089521E0F2CF81E080932804609351
:101D50004B0410922A04109229040895F5CF0F9392
:101D6000062F21E0409129046BE274E080914B043E
:101D70006FD010922A0410922904109228040F9117
:101D8000089561E0ECCF8CE194E0B7CF1092DB04D2
:101D900081E08093D9041092D80461E084E10E942C
:101DA000102261E085E10E941022E9EBF0E08081E1
:101DB0008E7F808380818D7F808388E48093B800CC
:101DC00085E48093BC000895413208F03FC09091B3
:101DD000DB049111FCCF91E09093DB042093D904B4
:101DE0002FEF20936E041092B304240F2093B204BB
:101DF0009093DA049091DA04880F892B8093DA04A7
:101E00008091D804813041F41092D8048091DA0492
:101E10008093BB0085EC01C085EE8093BC0080916F
:101E2000DB048130E1F38091B304841710F4409116
:101E3000B30424EB34E0FB01D9018A2F821B841701
:101E400018F48D918193F9CF842F089580E008953F
:101E50000F93413208F046C09091DB049111FCCF02
:101E600092E09093DB040093D9049FEF90936E046B
:101E70001092B3044093B204FB0164EB74E0DB0105
:101E80009A2F961B941718F491919D93F9CF109265
:101E9000DA049091DA04880F892B8093DA04809118
:101EA000D804813041F41092D8048091DA048093F0
:101EB000BB0085EC01C085EE8093BC00222321F09D
:101EC0008091DB048230E1F380916E048F3F61F0FA
:101ED00080916E04803251F080916E04803341F421
:101EE00083E007C081E005C080E003C082E001C05C
:101EF00084E00F910895613298F42091DB0424303E
:101F000089F460939004FC0182E994E0DC012A2FBB
:101F1000281B261718F421912D93F9CF80E00895FE
:101F200081E0089582E0089585ED8093BC00809162
:101F3000BC0084FDFCCF1092DB04089585EC8093F7
:101F4000BC001092DB0408951F920F920FB60F92FF
:101F500011240BB60F922F933F934F935F936F9380
:101F60007F938F939F93AF93BF93EF93FF93809152
:101F7000B900887F803609F49CC068F5883209F47E
:101F80005BC090F4803109F454C038F4882309F41C
:101F9000F3C0883009F44DC0F2C0883109F44CC058
:101FA000803209F45DC0EBC0803409F468C048F4A5
:101FB000803309F455C0883309F0E1C080936E0482
:101FC000A7C0803509F44FC0883509F45DC0883456
:101FD00009F0D5C0D3C0883909F4C4C0A8F4883743
:101FE00009F467C038F4883609F463C0803709F40F
:101FF00060C0C5C0883809F4B5C0803909F45FC035
:10200000803809F0BCC05BC0803B09F483C038F461
:10201000803A09F466C0883A09F47CC0B0C0803CBC
:1020200009F4A4C0883C09F4A1C0883B09F487C026
:10203000A6C08091DA0410C09091B3048091B204DC
:10204000981770F5E091B30481E08E0F8093B3048C
:10205000F0E0EC54FB4F80818093BB0085EC83C0A3
:1020600080936E048BC0E091B30481E08E0F809367
:10207000B3048091BB00F0E0EC54FB4F808390915F
:10208000B3048091B2046BC0E091B30481E08E0F81
:102090008093B3048091BB00F0E0EC54FB4F80834D
:1020A0008091D90481116AC081E08093D80484EAC8
:1020B0005EC083E08093DB0410926F04CFCF8091E9
:1020C0006F04803208F04EC0E0916F0481E08E0F03
:1020D00080936F048091BB00F0E0E059FB4F808358
:1020E000BDCF80916F04803230F4E0916F04F0E056
:1020F000E059FB4F108218DF60916F0470E0E091AF
:10210000D404F091D50480E794E0199510926F04FF
:1021100015DF35C084E08093DB04109291041092A7
:102120009004E091D604F091D70419958091900421
:10213000811105C081E08093900410929204E09197
:10214000910481E08E0F80939104F0E0EE56FB4FF6
:1021500080818093BB0090919104809190049817A6
:1021600008F47CCF85E88093BC0009C085EC80939F
:10217000BC001092DB0403C010926E04D5DEFF9108
:10218000EF91BF91AF919F918F917F916F915F91EF
:102190004F913F912F910F900BBE0F900FBE0F905C
:1021A0001F901895982F92959F708F702AE0929F9C
:1021B000800D112408958CE194E0AFCD1F93CF934F
:1021C000DF93EC0168E670E08CE194E0C7DD60E04D
:1021D0008CE194E064DD8CE194E0D3DD882319F098
:1021E0001092DC043CC081E08093DC0447E050E0C6
:1021F00068E670E08CE194E0A5DD8CE194E0F8DC29
:1022000007976CF18CE194E0FBDC182F8F77CADF25
:1022100088838CE194E0F4DCC5DF89838CE194E071
:10222000EFDC8F73BFDF8A838CE194E0E9DCBADFF7
:102230008B838CE194E0E4DCB5DF8C838CE194E06B
:10224000DFDCB0DF8D838CE194E0DADCABDF825E33
:102250008E83812F8095881F8827881F01C080E08A
:10226000DF91CF911F910895089580E090E0089547
:1022700081E090E0089583E090E0089582E090E0AE
:1022800008951F93CF93DF93EC018DEE92E0998335
:10229000888310E02C818A819B81121790F4FC01C5
:1022A000E10FF11DE10FF11D80819181009739F05F
:1022B000DC01ED91FC910280F381E02D19951F5F07
:1022C000E9CF009729F0DF91CF911F910C94412520
:1022D000DF91CF911F910895CF93DF93EC0183EEAF
:1022E00092E099838883CE010C960E94B925CE0195
:1022F0000696DF91CF910C94B925CF93DF93EC0133
:1023000085EF92E0998388838A899B89009739F0C9
:10231000DC01ED91FC910280F381E02D1995CE0155
:10232000DF91CF91D9CF23E133E0FC0131832083CA
:10233000D3CF29E033E0FC0131832083CDCF2FEFD1
:1023400032E0FC0131832083C7CFCF93DF93EC01D0
:10235000C3DFCE01DF91CF910C944025CF93DF9363
:10236000EC018FDFCE01DF91CF910C944025CF930C
:10237000DF93EC01C2DFCE01DF91CF910C944025B9
:10238000CF93DF93EC01CFDFCE01DF91CF910C949F
:102390004025CF93DF93EC01CCDFCE01DF91CF91CD
:1023A0000C944025CF93DF93EC01C9DFCE01DF9180
:1023B000CF910C944025FF920F931F93CF93DF93FF
:1023C000EC01CB018A017983688321E02C83FF240F
:1023D000FA94FA82FB820E94001C888199810E94F3
:1023E0001A1B888199810E94011C40E060E088816D
:1023F00099810E946C1BB801888199810E94802577
:1024000068EE73E080E090E00E94F120888199817D
:102410000E94621BFD8EDF91CF911F910F91FF9063
:102420000895EF92FF920F931F93CF93DF93EC01E8
:102430007B018F818F5F8F8390E0880F991F0E94AF
:102440003F258C0160E0462F50E02F8130E0215085
:1024500031098D819E814217530774F4440F551F33
:10246000FC01E40FF51F80819181F801E40FF51F55
:10247000918380836F5FE7CF009711F00E94412521
:102480001E830D838F81F801E80FF11DE80FF11D08
:102490003297F182E082DF91CF911F910F91FF90EF
:1024A000EF900895CF92DF92EF92FF920F931F93D8
:1024B000CF93DF93CDB7DEB72C970FB6F894DEBF7E
:1024C0000FBECDBF7C018B0169E373E0CE0107969F
:1024D0000E942026F80180899189009711F4C28416
:1024E00001C0C82ED12CDC14C1F0BE01695F7F4F42
:1024F000CE0101960E944A266BE472E0CE0101965D
:102500000E943927BC01CE0107960E943526CE01D4
:1025100001960E94B925D394E6CFF80145816481E4
:10252000F701808191810E946C1BBE01695F7F4F22
:10253000F701808191810E948025CE0107960E943B
:10254000B9252C960FB6F894DEBF0FBECDBFDF9134
:10255000CF911F910F91FF90EF90DF90CF90089552
:10256000FF920F931F93CF93DF93EC018D8D8F3FDD
:1025700031F467ED72E0888199810E948E25F12CFB
:10258000EE8DFF8D8481F81690F592818381E92F7D
:10259000F82FEF0DF11DEF0DF11D00811181F801F4
:1025A0008381882311F18281811104C0B801CE0199
:1025B00079DF19C0F80120893189828593858217D6
:1025C000930718F4B801CE016DDFF80145816481ED
:1025D000888199810E946C1BB8016A5F7F4F888156
:1025E00099810E948025F8011382F394C9CF4B8111
:1025F0006A8188819981DF91CF911F910F91FF901E
:102600000C946C1BDF92EF92FF920F931F93CF936A
:10261000DF93EC017F8F6E8F10E001E0EE8DFF8D78
:1026200084811817C0F492818381E92FF82FE10F7C
:10263000F11DE10FF11D80819181DC01ED91FC9193
:102640000480F581E02D1995019719F0EE8DFF8D2D
:1026500005831F5FE3CF8C8D8F3F31F0248188810C
:10266000998121111AC01CC05F8180E090E040E098
:10267000851780F4AD81BE819C01220F331FA20F0C
:10268000B31F2D913C912E173F0711F48D8F41E020
:102690000196EECF4111E2CF60C02581211104C027
:1026A0001C820E94021C3EC021E02C830E94011C5F
:1026B00044E6E42E54E6D52EF12CEE8DFF8D848178
:1026C000F81670F592818381E92FF82FEF0DF11D37
:1026D000EF0DF11D00811181D801ED91FC91048075
:1026E000F581E02DC80119950197C1F0F8014581E8
:1026F000242F30E08E2D992787FD909528173907D4
:1027000031F4248130E08D2D992787FD909528178D
:10271000390724F4D8011496DC90E42EF394CDCF3D
:10272000DA82EB82AE8DBF8D80E021E014969C9121
:102730001497891790F412963C91129713969C91D6
:102740001397E32FF92FE80FF11DE80FF11D01900A
:10275000F081E02D23838F5FE9CFDF91CF911F912F
:102760000F91FF90EF90DF900895CF93DF93EC01EE
:1027700088819981A7D76E8D7F8DCE01DF91CF9112
:1027800041CFCF92DF92FF920F931F93CF93DF93AE
:102790001F921F92CDB7DEB76C01DC0190968D9130
:1027A0009C919197892B09F06DC04FEF6FEFF12C41
:1027B000D6015E96ED91FC915F978481F81608F042
:1027C0004DC092818381E92FF82FEF0DF11DEF0DA0
:1027D000F11D00811181D801ED91FC910480F581FA
:1027E000E02DC80149836A83199549816A8101975F
:1027F00099F1F8015581852F90E0D60113962C911F
:102800001397332727FD3095821793076CF08217B3
:10281000930711F5E481F0E012962C91332727FD00
:102820003095E217F307C4F4242F332727FD3095A2
:10283000281739076CF08217930771F4F801248187
:1028400030E0862F992787FD90958217930724F40F
:10285000D80114966C91452FF394AACF6F3F91F055
:1028600012966C93129713964C9313978D919C919B
:102870000F900F90DF91CF911F910F91FF90DF90FC
:10288000CF902AC70F900F90DF91CF911F910F919A
:10289000FF90DF90CF900895CF92DF92FF920F9339
:1028A0001F93CF93DF931F921F92CDB7DEB76C01BA
:1028B000DC0190968D919C919197892B09F06DC0C8
:1028C0004DE76DE7F12CD6015E96ED91FC915F9797
:1028D0008481F81608F04DC092818381E92FF82F8A
:1028E000EF0DF11DEF0DF11D00811181D801ED916A
:1028F000FC910480F581E02DC80149836A83199514
:1029000049816A81019799F1F8015581852F90E0FD
:10291000D60113962C911397332727FD309528174E
:1029200039076CF08217930711F5E481F0E01296F5
:102930002C91332727FD30952E173F07C4F4242F01
:10294000332727FD3095821793076CF08217930782
:1029500071F4F801248130E0862F992787FD909546
:102960002817390724F4D80114966C91452FF39455
:10297000AACF6D3791F012966C93129713964C93E1
:1029800013978D919C910F900F90DF91CF911F9194
:102990000F91FF90DF90CF909FC60F900F90DF9127
:1029A000CF911F910F91FF90DF90CF9008950F93DB
:1029B0001F93CF93DF93EC01EE8DFF8D84818823ED
:1029C000E1F185818823C9F180910F0581110DC046
:1029D0000E94C2206093E1047093E2048093E304B8
:1029E0009093E40481E080930F050E94C22000913F
:1029F000E1041091E2042091E3043091E404601BAF
:102A0000710B820B930B653F714081059105A8F016
:102A10000E94C2206093E1047093E2048093E30477
:102A20009093E4042C8188819981211104C021E0D4
:102A30002C83E7D602C01C82E5D688A199A1892BF8
:102A400009F43EC08091070581110DC00E94C2208B
:102A50006093DD047093DE048093DF049093E004C0
:102A600081E0809307050E94C2200091DD0410914F
:102A7000DE042091DF043091E004601B710B820BB7
:102A8000930B693C710581059105D0F00E94C2202D
:102A90006093DD047093DE048093DF049093E00480
:102AA000E8A1F9A181E083839281911102C0828320
:102AB00001C01282CE01DF91CF911F910F9150CDB5
:102AC000DF91CF911F910F910895EF92FF920F9395
:102AD0001F93CF93DF93EC01E12CFF24F394EE8D51
:102AE000FF8D8481E81608F069C092818381E92F07
:102AF000F82FEE0DF11DEE0DF11D008111812A81DF
:102B0000332727FD3095D80114968C91149790E0C7
:102B10002817390709F050C02B81332727FD30953E
:102B200015968C91159790E02817390709F044C045
:102B3000ED91FC910480F581E02DC801199582305A
:102B4000910511F18330910541F1892BA9F5888117
:102B50009981B8D58C8D8F5F8C8FFE01B2E08B028E
:102B6000E00DF11D11248E8D9F8D91878087F801D6
:102B700062897389CE0146DDCE01DF91CF911F912D
:102B80000F91FF90EF90ECCCD8015296ED91FC9113
:102B90005397309789F019950FC019A308A3F8012E
:102BA0008689811102C0F68A07C0168AF282F382F2
:102BB000CE01D6DC19A218A2E39491CFDF91CF9178
:102BC0001F910F91FF90EF900895CF93DF93EC0149
:102BD00088A199A1892B79F58881998173D58C8DEC
:102BE0008F3FC1F48D8D8F5F8D8F2F8130E09927BE
:102BF00087FD90952817390709F41D8E8D8D880F54
:102C0000990BED81FE81E80FF91F60817181CE0182
:102C1000F9DC0DC0FE0192E08902E00DF11D1124E6
:102C200060857185CE01EEDC8C8D81508C8FCE015C
:102C3000DF91CF9195CCDF91CF910895EF92FF92E4
:102C40000F931F93CF93DF93EC017B018C010A5FFD
:102C50001F4FB8010C960E943526B701C8010E948B
:102C6000352681E08B83DF91CF911F910F91FF90EB
:102C7000EF900895FC01648345830895FC018DEE77
:102C800092E091838083148215820895EF92FF92DF
:102C90000F931F93CF93DF93EC017B018C818F5FA8
:102CA0008C8390E0880F991F0E943F258C0160E083
:102CB000462F50E02C8130E0215031098A819B81E0
:102CC0004217530774F4440F551FFC01E40FF51F1E
:102CD00080819181F801E40FF51F918380836F5FFC
:102CE000E7CF009711F00E9441251B830A838C8156
:102CF000F801E80FF11DE80FF11D3297F182E08233
:102D0000DF91CF911F910F91FF90EF900895AF92B7
:102D1000BF92CF92DF92EF92FF920F93CF93DF9308
:102D2000CDB7DEB727970FB6F894DEBF0FBECDBF85
:102D30007C016B015A0183EE92E0F701918380835D
:102D400081E08283138269E373E0C70106962F83D3
:102D50000E94202669E373E0C7010C960E9420269A
:102D6000B701C60193DFB501CE0101960E944A2644
:102D7000BE016F5F7F4FC70161DFCE0101960E94E8
:102D8000B9252F81F7012483058327960FB6F89480
:102D9000DEBF0FBECDBFDF91CF910F91FF90EF90BF
:102DA000DF90CF90BF90AF900895CF92DF92EF92D7
:102DB000FF920F931F93CF93DF93EC018B014C8114
:102DC00020E030E0EE24EA94FE2C241780F4EA811F
:102DD000FB81C901880F991FE80FF91F808191813C
:102DE0008017910709F479012F5F3F4FEECF8FEFE6
:102DF000E816F80609F444C0442311F041504C830E
:102E00008C8190E0880F991F0E943F256C0170E033
:102E100060E0272F30E04C8150E042175307ACF0C0
:102E20002E153F0581F0220F331FEA81FB81E20F4F
:102E3000F31F20813181F601E60FF11DE60FF11D30
:102E4000318320836F5F7F5FE4CF8A819B8100970E
:102E500011F00E944125CA82DB820115110581F023
:102E6000D801ED91FC910280F381E02DC801DF9142
:102E7000CF911F910F91FF90EF90DF90CF90199419
:102E8000DF91CF911F910F91FF90EF90DF90CF9046
:102E90000895CF92DF92EF92FF920F93CF93DF933B
:102EA000CDB7DEB727970FB6F894DEBF0FBECDBF04
:102EB0007C016B01BA01CE0101962F830E944A2644
:102EC0002F81AE014F5F5F4FB601C70120DFCE01FA
:102ED00001960E94B92585EF92E0D7018D939C93CE
:102EE00086E090E00E943E25FC0186E0DF011D9215
:102EF0008A95E9F71482158283EC92E091838083AE
:102F0000D7015396FC93EE93529727960FB6F894F9
:102F1000DEBF0FBECDBFDF91CF910F91FF90EF903D
:102F2000DF90CF900895CF92DF92EF92FF920F93B0
:102F3000CF93DF93CDB7DEB727970FB6F894DEBFF8
:102F40000FBECDBF7C016B01BA01CE0101962F836C
:102F50000E944A262F81AE014F5F5F4FB601C70125
:102F6000D6DECE0101960E94B9258FEF92E0F701DF
:102F70009183808327960FB6F894DEBF0FBECDBF36
:102F8000DF91CF910F91FF90EF90DF90CF90089558
:102F9000FC0163A174A185A196A10895BF92CF926F
:102FA000DF92EF92FF920F931F93CF93DF93CDB7F2
:102FB000DEB72C970FB6F894DEBF0FBECDBF8C01E5
:102FC0006B0169E373E0CE0107960E942026F801A9
:102FD000238D348D458D568D6789708D818D928DB1
:102FE0000E9494291816A4F17801F6E0EF0EF11C66
:102FF000B701C8010C960E943526BE01695F7F4F5C
:10300000CE0101960E944A26B601CE0101960E9489
:103010002827BC01C7010E943526CE0101960E94D7
:10302000B92581E0F8018383CE0107960E94B92576
:103030002C960FB6F894DEBF0FBECDBFDF91CF91B7
:103040001F910F91FF90EF90DF90CF90BF90089568
:10305000B12CF8016789708D818D928D0E94B12805
:103060004AE0CE0101960E949326ED80FE80F60193
:1030700084819581E81AF90ACE0101960E94B9254A
:103080008B2D90E08E159F0508F0AECFBE01695FD5
:103090007F4FCE0101960E944A2664E572E0CE0180
:1030A00001960E943927BC01CE0107960E94352661
:1030B000CE0101960E94B925B394CBCF4F925F9277
:1030C0006F927F928F929F92AF92BF92CF92DF9238
:1030D000EF920F93CF93DF93CDB7DEB72B970FB659
:1030E000F894DEBF0FBECDBF6C013B0149015A0110
:1030F000202F0E2D69E373E0CE0101962B870E94ED
:1031000020262B85AE014F5F5F4FB301C601FFDD67
:10311000CE0101960E94B92589E093E0F6019183E2
:103120008083178A108E118E128E138E148E158E38
:10313000168EC501B4010E94B1286F8378878987F4
:103140009A872F813885B901882777FD8095982F38
:103150000E94E4289B01AC01C501B4010E94E02754
:1031600020E030E0A9010E944528811105C080E0DF
:1031700090E0A0E8BFE31AC02AE037ED43E25CE349
:10318000C501B4010E9449280E94B128CB016AE020
:1031900070E00E94FB29811105C08DEC9CECACEC29
:1031A000BDE304C08AE097EDA3E2BCE3F601828BA5
:1031B000938BA48BB58BF60183A294A2A5A2B6A291
:1031C0004288538864887588C301B2010E94B1287F
:1031D000882777FD8095982F0E94E4289B01AC01F9
:1031E000C301B2010E94E02720E030E0A9010E9463
:1031F0004528811108C04AE06F817885CE0101968B
:103200000E94932607C022E0B501A401CE010196D9
:103210000E94BD26BE016F5F7F4FC601BFDECE019B
:1032200001960E94B925F601168A10A2178E12A2E5
:1032300011A22B960FB6F894DEBF0FBECDBFDF9163
:10324000CF910F91EF90DF90CF90BF90AF909F9074
:103250008F907F906F905F904F9008958F929F9284
:10326000AF92BF92CF92DF92EF92FF920F931F9394
:10327000CF93DF9300D000D0CDB7DEB78C01DC0157
:1032800052962D913D914D915C91559793966D91EC
:103290007D918D919C9196970E94E027F80163A300
:1032A00074A385A396A3838C948CA58CB68CA5015E
:1032B00094010E94452887FF14C0D8015796CD90ED
:1032C000DD90ED90FC905A97A7019601C501B401DD
:1032D0000E94452887FF05C0F801C3A2D4A2E5A239
:1032E000F6A2D80191962D913C9192972115310526
:1032F00059F093968D919D910D90BC91A02DF9015F
:1033000080839183A283B383D8015F96ED91FC9172
:103310009097309709F01995F801C288D388E4880E
:10332000F588C701B6010E94B128882777FD8095EE
:10333000982F0E94E4289B01AC01C701B6010E94AE
:10334000E02720E030E0A9010E94452881110FC04C
:10335000D80193966D917D918D919C9196970E9445
:10336000B1284AE0CE0101960E9493260AC0F801D6
:1033700043A154A165A176A122E0CE0101960E944D
:10338000BD26BE016F5F7F4FC80108DECE010196EA
:103390000E94B92581E0D80113968C9326960FB62A
:1033A000F894DEBF0FBECDBFDF91CF911F910F917B
:1033B000FF90EF90DF90CF90BF90AF909F908F9055
:1033C0000895CF93DF93EC0188A199A1009729F08C
:1033D00045DFCE01DF91CF91C3C8DF91CF91089532
:1033E0008F929F92AF92BF92CF92DF92EF92FF9215
:1033F0000F931F93CF93DF9300D000D0CDB7DEB7EC
:103400008C01DC0152962D913D914D915C91559727
:1034100093966D917D918D919C9196970E94E12755
:10342000F80163A374A385A396A38788908CA18CCD
:10343000B28CA50194010E9494291816A4F4D80115
:103440005B96CD90DD90ED90FC905E97A501940188
:10345000C701B6010E94452887FF05C0F801C3A235
:10346000D4A2E5A2F6A2D80191962D913C91929713
:103470002115310559F093968D919D910D90BC9138
:10348000A02DF90180839183A283B383D8015F9635
:10349000ED91FC919097309709F01995F801C28849
:1034A000D388E488F588C701B6010E94B12888272F
:1034B00077FD8095982F0E94E4289B01AC01C701FD
:1034C000B6010E94E02720E030E0A9010E944528D3
:1034D00081110FC0D80193966D917D918D919C9132
:1034E00096970E94B1284AE0CE0101960E94932649
:1034F0000AC0F80143A154A165A176A122E0CE0142
:1035000001960E94BD26BE016F5F7F4FC80146DD58
:10351000CE0101960E94B92581E0D80113968C93C3
:1035200026960FB6F894DEBF0FBECDBFDF91CF91C8
:103530001F910F91FF90EF90DF90CF90BF90AF90D1
:103540009F908F900895CF93DF93EC0188A199A16C
:10355000009729F045DFCE01DF91CF9101C8DF91BF
:10356000CF910895CF92DF92EF92FF920F93CF9376
:10357000DF93CDB7DEB727970FB6F894DEBF0FBE47
:10358000CDBF7C016B01BA01CE0101962F830E9451
:103590004A262F81AE014F5F5F4FB601C701B7DBEF
:1035A000CE0101960E94B92583E193E0F701918352
:1035B0008083138A128A27960FB6F894DEBF0FBE57
:1035C000CDBFDF91CF910F91FF90EF90DF90CF9023
:1035D00008951092EC048FEF80930105809302050B
:1035E0000895FC01138212828DE193E09183808320
:1035F000648341872287138608951F93CF93DF93B7
:10360000EC01162F6C818CE194E00E94A40EE091F5
:103610001C04F0911D046B85612B0190F081E02D5D
:103620008CE194E019958CE194E0DF91CF911F91AA
:103630000C94C10E28E0FC01238760E0DECF1F93CD
:10364000CF93DF93EC01162F6460D7DF81E090E029
:10365000EDD5612F6B7FCE01D0DF82E390E0DF916B
:10366000CF911F91E3C51F93CF93DF93EC01162FEA
:10367000C4DF612FCE01DF91CF911F91E0CFEF9298
:10368000FF921F93CF93DF931F92CDB7DEB77C01DC
:10369000162F607F642B4983E6DF80E1189FB0011D
:1036A00011244981642BC7010F90DF91CF911F91A5
:1036B000FF90EF90D8CF41E0E2DF81E090E0089505
:1036C00040E0DDCF61E0FCDF80ED97E0AFC562E078
:1036D000F7DF80ED97E0AAC5CF93DF93CDB7DEB7D4
:1036E00028970FB6F894DEBF0FBECDBF28E0ECE000
:1036F000F2E0DE01119601900D922A95E1F7FC01AE
:103700002085241710F44FEF420FFE013196E40F8D
:10371000F11DE40FF11D2081260F2068622F2896ED
:103720000FB6F894DEBF0FBECDBFDF91CF91C8CFEB
:10373000FC016681262F246026836C60C1CFFC01CA
:1037400066816D7F66836860BBCFFC016681262F32
:10375000226026836A60B4CFCF93DF93EC014230BE
:1037600018F08D8188608D834887222329F04130AD
:1037700019F48D8184608D8362E370E080E090E0D5
:1037800030D56B85CE0139DF68EE73E080E090E0E4
:1037900028D560E3CE0167DF84E991E147D560E396
:1037A000CE0161DF84E991E141D560E3CE015BDFC9
:1037B00086E990E03BD560E2CE0155DF6D81606225
:1037C000CE017EDF84E08E83CE01B2DFCE017ADFD0
:1037D00082E08F8366E0CE0173DFCE01DF91CF916F
:1037E00076CFCF93DF93EC018CE194E00E948D0EB5
:1037F0001D8220E04A856985CE01DF91CF91ACCF53
:10380000F0CFA3CF9CCFEF92FF920F931F93CF9354
:10381000DF9300D000D0CDB7DEB78C01FC0113825E
:10382000128216827C01F8E0EF0EF11C69E373E06E
:10383000C7010E94202683E395E0F80191838083ED
:1038400026E040E855E260E070E055D764E670E0BD
:10385000C7010E94E72569E373E0CE0101960E944B
:103860002026F801168215821482CE0101960E944C
:10387000B92526960FB6F894DEBF0FBECDBFDF91F7
:10388000CF911F910F91FF90EF900895AF92BF924B
:10389000CF92DF92EF92FF920F931F93CF93DF931C
:1038A00000D000D0CDB7DEB78C016B015A01FC010E
:1038B0001382128216827C01F8E0EF0EF11C69E39C
:1038C00073E0C7010E942026F801D182C082A501C1
:1038D00060E070E026E0C6010ED764E670E0C70144
:1038E0000E94E72569E373E0CE0101960E9420263D
:1038F000F801168215821482CE0101960E94B92524
:1039000026960FB6F894DEBF0FBECDBFDF91CF91E4
:103910001F910F91FF90EF90DF90CF90BF90AF90ED
:1039200008950F931F93CF93DF938C01FC01848143
:1039300095810097D9F0FC013297208131814AE0CE
:10394000429FE001439FD00D1124C80FD91FCE0123
:10395000F801248135812A978217930721F0CE013F
:103960000E94B925F4CF02970E944125C80108960C
:10397000DF91CF911F910F910C94B925FB01DC01D0
:1039800013967C936E93129760E070E026E0CF016F
:10399000B2C6AF92BF92CF92DF92EF92FF920F9397
:1039A0001F93CF93DF93CDB7DEB72C970FB6F89464
:1039B000DEBF0FBECDBF8C017C0188E0E80EF11C9C
:1039C000F80180819181DC01ED91FC910480F58109
:1039D000E02D1995892B01F1D8018D919C91DC0185
:1039E000ED91FC910680F781E02D1995D82EF80114
:1039F00082819381009719F06D2D0E948F25FAE046
:103A0000DF1205C081E0D80117968C9305C06D2D9B
:103A1000C7010E941527D4CFF8018781882309F4B4
:103A20006DC061E273E0CE0107960E942026B12CA2
:103A3000C80108967C01D80116968C91B81608F03A
:103A400052C09AE0B99E60011124D8011496ED91FC
:103A5000FC911597EC0DFD1D2481358140E050E06F
:103A6000B701CE0101960E949227F80184819581C9
:103A7000BE016F5F7F4F8C0D9D1D0E948027A82E79
:103A8000CE0101960E94B925AA2059F1D8011496B9
:103A9000ED91FC911597EC0DFD1DC084D184C114EE
:103AA000D104D9F01C962D913C911D9744815581EC
:103AB0004F5F5F4FB701CE0101960E949227CE0162
:103AC00001960E94D527F6016083718382839383D8
:103AD000CE0101960E94B92504C00680F781E02D31
:103AE0001995B394A8CF69E373E0C7010E945226E9
:103AF000F8011782CE0107960E94B9252C960FB6C1
:103B0000F894DEBF0FBECDBFDF91CF911F910F9113
:103B1000FF90EF90DF90CF90BF90AF900895AF925D
:103B2000BF92CF92DF92EF92FF920F931F93CF93AA
:103B3000DF93EC017B01D42E89819A81009709F0F3
:103B4000A0D78D819E81009709F09BD78F819885A2
:103B5000009709F096D78B819C81009709F091D747
:103B6000D8820D2D10E023E0D29EC001112487D70A
:103B7000FC0120E030E02F5F3F4FA801421B530BB8
:103B80004F3F5F4F21F0128211823396F4CF898329
:103B90009A83C801880F991F72D79E838D83C801AD
:103BA0006ED798878F83C801880F991F880F991F38
:103BB00066D79C838B83B12C68EEC62E63E0D62E2D
:103BC000AA24A3948881B81690F50B2D10E023E069
:103BD000B29EC0011124F701E00FF11F2081E9819D
:103BE000FA81E80FF91F2083E981FA81E80FF91FB4
:103BF00062E08081DCD3C801880F991FED81FE81CE
:103C0000E80FF91FD182C082EF81F885E00FF11F24
:103C1000A082000F111F000F111FEB81FC81E00F2C
:103C2000F11F1082118212821382B394CBCFDF91E5
:103C3000CF911F910F91FF90EF90DF90CF90BF90A9
:103C4000AF900895862F21D421E0892B09F020E040
:103C5000822F08957F928F929F92AF92BF92CF92C0
:103C6000DF92EF92FF920F931F93CF93DF93EC01BC
:103C7000288180E090E000E0021709F443C0E98168
:103C8000FA81E80FF91F30810396361711F00F5FA4
:103C9000F3CFCE01D7DF10E0882309F454C072D2ED
:103CA0007801EE0CFF1CEE0CFF1CED81FE819801EB
:103CB000220F331FE20FF31FAB81BC81AE0DBF1D7E
:103CC0008D909D90AD90BC90681979098A099B09E7
:103CD00080809180A12CB12C2F8138858616970683
:103CE000A806B90648F481E0D901A00FB11F8C9352
:103CF00084E690E091838083F901E00FF11F7080EA
:103D0000711002C0712C3FC03DD2CB80DC80CE0C44
:103D1000DF1CF60180809180A280B3806819790948
:103D20008A099B09643171058105910558F32AD2EE
:103D3000F6016083718382839383EF81F885E00FBE
:103D4000F11F108220C0C801880F991F880F991F8A
:103D5000EB80FC80E80EF91E15D2F70160837183B9
:103D600082839383EF81F885E00FF11F81E08083E8
:103D7000000F111FED81FE81E00FF11F88EE93E02F
:103D800091838083BFCF872DDF91CF911F910F91BA
:103D9000FF90EF90DF90CF90BF90AF909F908F906B
:103DA0007F900895CF93DF93FC01F8941092B000B8
:103DB000A1EBB0E01C92C0E7D0E018828C91846047
:103DC0008C938C918C7F8C9387E08093B20081E000
:103DD00088831282148213821682158210861782BB
:103DE0001186DF91CF910895AF92BF92CF92DF926B
:103DF000EF92FF920F931F93CF93DF93EC016B0130
:103E00008A018A818F5F8A83A82EB12C27E0829F46
:103E1000C001112434D67C01DC0180E090E041E057
:103E200001969501281B390B2F3F3F4F81F01196CA
:103E30001C921E9213961C921E92129715961C921B
:103E40001E92149716964C9316971796E9CF60E03A
:103E500077E0462F50E02A8130E0215031098881F7
:103E600099814217530784F427E0629FF0011124DF
:103E7000D701AE0FBF1FE80FF91F872F01900D92DA
:103E80008A95E1F76F5FE5CF009709F0FAD5F982DF
:103E9000E8828A81F70157E0859FE00DF11D11242A
:103EA0003797D182C082138302831583048381E014
:103EB00086838F819885009719F00817190710F4E9
:103EC00018870F83DF91CF911F910F91FF90EF9093
:103ED000DF90CF90BF90AF900895BF92CF92DF92C6
:103EE000EF92FF920F931F93CF93DF93F12C27E074
:103EF000E22E4F2D50E0FC01228130E021503109AB
:103F000042175307CCF5F7E0FF9EA0011124DD24F2
:103F1000D394FC012281D21668F5FC01C081D181C5
:103F2000DE01A40FB51F12962D913C911397F7E077
:103F3000DF9EC00DD11D11246A817B81621773073A
:103F4000B8F40D911C91119714966D917C91159771
:103F50001696CC901697FE01BE2C01900D92BA9445
:103F6000E1F7198308833B832A837D836C83CE82A8
:103F7000D394CFCFF394BDCFDF91CF911F910F9109
:103F8000FF90EF90DF90CF90BF900895A6DF7894D8
:103F90000895CF93DF93EC018A81882309F468C0E8
:103FA0008D819E8101969E838D832F813885821716
:103FB000930708F45DC01E821D828985E881F9811E
:103FC00027E0829FE00DF11D11248681882321F0D6
:103FD0000190F081E02D199540E02A818881998136
:103FE000421798F4FC0137E0439FE00DF11D1124C6
:103FF0008681882341F0848195812F813885821BB9
:10400000930B958384834F5FE8CF2985FC0137E0CC
:10401000239FE00DF11D11242281338135832483F8
:1040200019867A81FC0161E06717B8F4258522239F
:1040300089F02985DC0137E0239FA00DB11D1124F3
:104040004385548514962D913C911597421753073B
:1040500008F469876F5F3796E7CF2985FC0137E061
:10406000239FE00DF11D11248481958198878F8312
:10407000DF91CF9108951F920F920FB60F921124E6
:104080000BB60F922F933F934F935F936F937F9352
:104090008F939F93AF93BF93EF93FF9386E08093AB
:1040A000B20080E295E075DFFF91EF91BF91AF9193
:1040B0009F918F917F916F915F914F913F912F9140
:1040C0000F900BBE0F900FBE0F901F90189510927F
:1040D00022051092240510922305109226051092B5
:1040E000250510922805109227051092290508959C
:1040F0001F920F920FB60F9211242F933F938F931D
:104100009F93AF93BF9380912B0590912C05A09125
:104110002D05B0912E0530912A0523E0230F2D3770
:1041200020F40196A11DB11D05C026E8230F0296BB
:10413000A11DB11D20932A0580932B0590932C057A
:10414000A0932D05B0932E0580912F0590913005F9
:10415000A0913105B09132050196A11DB11D80934A
:104160002F0590933005A0933105B0933205BF9190
:10417000AF919F918F913F912F910F900FBE0F9014
:104180001F9018952FB7F89460912B0570912C050E
:1041900080912D0590912E052FBF08953FB7F8947B
:1041A00080912F0590913005A0913105B091320595
:1041B00026B5A89B05C02F3F19F00196A11DB11D82
:1041C0003FBF6627782F892F9A2F620F711D811D9F
:1041D000911D42E0660F771F881F991F4A95D1F7FE
:1041E0000895CF92DF92EF92FF92CF93DF936B010E
:1041F0007C01D4DFEB01C114D104E104F10479F0B6
:10420000DED6CCDF6C1B7D0B683E7340A0F381E0F3
:10421000C81AD108E108F108C851DC4FECCFDF9192
:10422000CF91FF90EF90DF90CF900895823091056D
:1042300038F0880F991F880F991F05970197F1F79C
:104240000895789484B5826084BD84B5816084BD0E
:1042500085B5826085BD85B5816085BDEEE6F0E0FF
:10426000808181608083E1E8F0E01082808182605B
:104270008083808181608083E0E8F0E080818160DC
:104280008083E1EBF0E0808184608083E0EBF0E00C
:10429000808181608083E1E9F0E0808182608083B9
:1042A000808181608083E0E9F0E0808181608083AB
:1042B000E1EAF0E080818260808380818160808398
:1042C000E0EAF0E0808181608083E1E2F1E08081DA
:1042D00082608083808181608083E0E2F1E0808180
:1042E00081608083EAE7F0E0808184608083808160
:1042F0008260808380818160808380818068808308
:104300001092C100089590E0FC013197E231F1056F
:1043100008F04CC0EE58FF4F0C94302A809180007A
:104320008F7703C0809180008F7D809380000895F7
:1043300080918000877FF9CF84B58F7702C084B5E4
:104340008F7D84BD08958091B0008F7703C08091E8
:10435000B0008F7D8093B0000895809190008F779A
:1043600007C0809190008F7D03C080919000877F6F
:104370008093900008958091A0008F7707C080916E
:10438000A0008F7D03C08091A000877F8093A00054
:104390000895809120018F7707C0809120018F7D43
:1043A00003C080912001877F809320010895CF93DF
:1043B000DF9390E0FC01E25BFE4F2491FC01EC56A0
:1043C000FE4F8491882349F190E0880F991FFC01EA
:1043D000E25FFD4FA591B4918C509E4FFC01C591B9
:1043E000D4919FB7611108C0F8948C9120958223D5
:1043F0008C93888182230AC0623051F4F8948C91A6
:10440000322F309583238C938881822B888304C03C
:10441000F8948C91822B8C939FBFDF91CF9108955C
:104420000F931F93CF93DF931F92CDB7DEB7282F43
:1044300030E0F901E85FFE4F8491F901E25BFE4F45
:104440001491F901EC56FE4F04910023C1F088232A
:1044500019F0698358DF6981E02FF0E0EE0FFF1F4C
:10446000EC50FE4FA591B4919FB7F8948C916111D7
:1044700003C01095812301C0812B8C939FBF0F90A7
:10448000DF91CF911F910F910895CF93DF93282F44
:1044900030E0F901E85FFE4F8491F901E25BFE4FE5
:1044A000D491F901EC56FE4FC491CC2389F08111CF
:1044B0002ADFEC2FF0E0EE0FFF1FE652FE4FA59132
:1044C000B4912C912D2381E090E021F480E002C092
:1044D00080E090E0DF91CF910895FC01818D228DE5
:1044E00090E0805C9F4F821B91098F7399270895FC
:1044F000FC01918D828D981731F0828DE80FF11DAE
:10450000858D90E008958FEF9FEF0895FC01918DC8
:10451000828D981761F0828DDF01A80FB11D5D9625
:104520008C91928D9F5F9F73928F90E008958FEF93
:104530009FEF08958AE394E2892B39F080E090E0C0
:10454000892B19F097D1811124C085EE94E2892B33
:1045500039F080E090E0892B19F037D281111CC02E
:1045600080E090E0892B41F080E090E0892B21F001
:104570000E940000811113C080E090E0892BA1F01F
:1045800080E090E0892B81F00E94000081110AC038
:1045900008950E940000D9CF0E940000E1CF0E9440
:1045A0000000EACF0C9400000895FC01848DDF0127
:1045B000A80FB11DA35ABF4F2C91848D90E0019696
:1045C0008F739927848FA689B7892C93A089B18985
:1045D0008C9180648C93938D848D981306C002888F
:1045E000F389E02D80818F7D80830895CF93DF93C1
:1045F000EC01888D8823C1F0EA89FB89808185FDE3
:1046000005C0A889B9898C9186FD0EC00FB607FC3C
:10461000F5CF808185FFF2CFA889B9898C9185FF7C
:10462000EDCFCE01C2DFE8CFDF91CF910895CF92D9
:10463000DF92FF920F931F93CF93DF931F92CDB71B
:10464000DEB76C0181E0D60158968C9358975B9643
:104650009C915B975C968C915C97981307C05096E1
:10466000ED91FC915197808185FD2DC0F601038D60
:1046700010E00F5F1F4F0F731127F02EF601848D8E
:10468000F81210C00FB607FCF9CFD6015096ED9185
:10469000FC915197808185FFF1CFC601698385DF49
:1046A0006981ECCF838DE80FF11DE35AFF4F6083E2
:1046B000D6015B960C935B975296ED91FC915397C4
:1046C000808180620CC0D6015696ED91FC9157977F
:1046D00060835096ED91FC91519780818064808336
:1046E00081E090E00F90DF91CF911F910F91FF90AB
:1046F000DF90CF900895BF92CF92DF92EF92FF921A
:10470000CF93DF93EC016A017B01B22EE889F9892E
:1047100082E08083411581EE58076105710599F0AB
:1047200060E079E08DE390E0A701960177D6215013
:104730003109410951095695479537952795211516
:1047400080E1380790F0E889F989108260E874E820
:104750008EE190E0A701960161D62150310941090F
:1047600051095695479537952795EC85FD853083FA
:10477000EE85FF852083188EEC89FD89B082EA8959
:10478000FB89808180618083EA89FB8980818860E0
:104790008083EA89FB89808180688083EA89FB893C
:1047A00080818F7D8083DF91CF91FF90EF90DF90AC
:1047B000CF90BF9008951F920F920FB60F921124C1
:1047C0000BB60F922F938F939F93EF93FF93E091EC
:1047D0004305F09144058081E0914905F0914A0537
:1047E00082FD12C0908180914C058F5F8F73209164
:1047F0004D05821751F0E0914C05F0E0ED5CFA4F69
:10480000958F80934C0501C08081FF91EF919F911E
:104810008F912F910F900BBE0F900FBE0F901F9096
:1048200018951F920F920FB60F9211240BB60F928C
:104830002F933F934F935F936F937F938F939F93A8
:10484000AF93BF93EF93FF9383E395E0AEDEFF91C9
:10485000EF91BF91AF919F918F917F916F915F91F8
:104860004F913F912F910F900BBE0F900FBE0F9065
:104870001F90189583E395E030DE21E0892B09F441
:1048800020E0822F0895109236051092350588EEAB
:1048900093E0A0E0B0E08093370590933805A093B3
:1048A0003905B0933A058BE293E0909334058093F9
:1048B000330585EC90E09093400580933F0584ECB0
:1048C00090E0909342058093410580EC90E09093B6
:1048D00044058093430581EC90E0909346058093D6
:1048E000450582EC90E0909348058093470586EC5F
:1048F00090E090934A058093490510924C051092E0
:104900004D0510924E0510924F0508951F920F927B
:104910000FB60F9211240BB60F922F938F939F9384
:10492000EF93FF93E091E005F091E1058081E09144
:10493000E605F091E70582FD12C090818091E905BE
:104940008F5F8F732091EA05821751F0E091E9059E
:10495000F0E0E053FA4F958F8093E90501C0808124
:10496000FF91EF919F918F912F910F900BBE0F9020
:104970000FBE0F901F9018951F920F920FB60F92B7
:1049800011240BB60F922F933F934F935F936F9326
:104990007F938F939F93AF93BF93EF93FF9380ED9C
:1049A00095E003DEFF91EF91BF91AF919F918F91C1
:1049B0007F916F915F914F913F912F910F900BBE1F
:1049C0000F900FBE0F901F90189580ED95E085DD3C
:1049D00021E0892B09F420E0822F08951092D3055D
:1049E0001092D20588EE93E0A0E0B0E08093D40569
:1049F0009093D505A093D605B093D7058BE293E0AD
:104A00009093D1058093D0058DEC90E09093DD05D7
:104A10008093DC058CEC90E09093DF058093DE05BD
:104A200088EC90E09093E1058093E00589EC90E0BC
:104A30009093E3058093E2058AEC90E09093E5057E
:104A40008093E4058EEC90E09093E7058093E60573
:104A50001092E9051092EA051092EB051092EC0510
:104A600008950895EEDBFDDF0E940E05CAE9D2E24B
:104A70000E94B90D2097E1F35DDDFACF48C547C527
:104A8000DEC5DDC5CF92DF92EF92FF920F931F93A9
:104A9000CF93DF936C017A01EB01E60EF71E00E085
:104AA00010E0CE15DF0561F06991D601ED91FC9122
:104AB0000190F081E02DC6011995080F191FF1CF63
:104AC000C801DF91CF911F910F91FF90EF90DF9080
:104AD000CF9008956115710581F0DB010D900020E4
:104AE000E9F7AD0141505109461B570BDC01ED912F
:104AF000FC910280F381E02D199480E090E008950C
:104B0000DC01ED91FC91DB0114964D915C911597C0
:104B10006D917C910280F381E02D1994DBCFDC0153
:104B2000ED91FC910190F081E02D199467E373E021
:104B3000D1CF0F931F93CF93DF93EC01E1DF8C0173
:104B4000CE01F4DF800F911FDF91CF911F910F9164
:104B500008950F931F93CF93DF93EC01BBDF8C017C
:104B6000CE01E4DF800F911FDF91CF911F910F9154
:104B70000895FC018081918162C5CF93DF93EC01A0
:104B800088819981009709F05AD5198218821D826F
:104B90001C821B821A82DF91CF9108950F931F937D
:104BA000CF93DF93EC018B016F5F7F4F88819981F9
:104BB000D5D5009731F0998388831B830A8381E0E0
:104BC00001C080E0DF91CF911F910F910895CF93A5
:104BD000DF93EC0188819981892B29F08A819B815F
:104BE0008617970758F4CE01D9DF882341F08C81CE
:104BF0009D81892B19F4E881F981108281E0DF9190
:104C0000CF910895EF92FF920F931F93CF93DF936D
:104C1000EC017B018A01BA01DADF811103C0CE0108
:104C2000ACDF06C01D830C83B7018881998197D6BC
:104C3000CE01DF91CF911F910F91FF90EF900895DA
:104C4000FC01118210821382128215821482611576
:104C5000710551F0FB0101900020E9F7AF014150CF
:104C60005109461B570BCECF0895CF93DF93EC012C
:104C7000FB018617970751F06081718161157105FD
:104C800021F044815581BEDF01C077DFCE01DF9185
:104C9000CF910895FC011182108213821282158235
:104CA0001482E3CFCF93DF93EC016115710559F0C6
:104CB000FB0101900020E9F7AF0141505109461B6B
:104CC000570BA0DF01C059DFCE01DF91CF910895CE
:104CD0000F931F93CF93DF93CDB7DEB729970FB60E
:104CE000F894DEBF0FBECDBF8C01862FF801118274
:104CF0001082138212821582148250E0BE016F5F0F
:104D00007F4F90E047D6BE016F5F7F4FC801CADF7B
:104D100029960FB6F894DEBF0FBECDBFDF91CF91BD
:104D20001F910F9108950F931F93CF93DF93CDB7EA
:104D3000DEB762970FB6F894DEBF0FBECDBF8C0111
:104D4000CB01F80111821082138212821582148223
:104D500050E0BE016F5F7F4F09D6BE016F5F7F4F8E
:104D6000C801A0DF62960FB6F894DEBF0FBECDBFBC
:104D7000DF91CF911F910F910895EF92FF920F93C2
:104D80001F93CF93DF93CDB7DEB7A1970FB6F894FB
:104D9000DEBF0FBECDBF7C01CB01BA01F70111828E
:104DA0001082138212821582148242E0420F8E0119
:104DB0000F5F1F4F8CD3BC01C70174DFA1960FB6E4
:104DC000F894DEBF0FBECDBFDF91CF911F910F9141
:104DD000FF90EF900895EF92FF920F931F93CF9360
:104DE000DF93EC017B010C811D816115710511F4CC
:104DF00080E014C04115510581F0040F151FB80162
:104E0000E6DE8823A9F3288139818C819D81B70151
:104E1000820F931FA4D51D830C8381E0DF91CF9176
:104E20001F910F91FF90EF900895CF93DF931F9202
:104E30001F92CDB7DEB769831A8241E050E0BE0110
:104E40006F5F7F4FC8DF0F900F90DF91CF91089574
:104E5000CF93DF93EC01FB01448155816081718127
:104E6000BADF811102C0CE0188DECE01DF91CF9181
:104E70000895CF93DF93EC016115710561F0FB019B
:104E800001900020E9F7AF0141505109461B570B33
:104E9000A2DF811102C0CE0170DECE01DF91CF9181
:104EA0000895CF93DF93DC01ED91FC91EB01A88194
:104EB000B981309711F01097C9F4109759F0EB01B0
:104EC0002C813D81232B31F08C9190E0919581953F
:104ED000910913C0309779F0DC0114968D919C9163
:104EE0001597892B41F0808190E007C0BD01CF016B
:104EF000DF91CF912BC580E090E0DF91CF910895B5
:104F0000FC0144815581FB012481358142175307FF
:104F100039F4C7DF21E0892B09F020E0822F0895C2
:104F200080E00895BF92CF92DF92EF92FF920F93AD
:104F30001F93CF93DF936C017B01EA018901241752
:104F4000350720F48D2FE901042F182F69E373E052
:104F5000C60176DED70114968D919C911597C817DE
:104F6000D907C0F48017910708F48C01D701ED919F
:104F7000FC911197E00FF11FB08010826D917C9130
:104F80006C0F7D1FC6018EDED701ED91FC91E00F05
:104F9000F11FB082C601DF91CF911F910F91FF9059
:104FA000EF90DF90CF90BF900895FC0180819181B8
:104FB000009709F0B7C460E070E0CB010895089550
:104FC0005058BB27AA270ED075C166D130F06BD1DF
:104FD00020F031F49F3F11F41EF45BC10EF4E09514
:104FE000E7FB51C1E92F77D180F3BA176207730746
:104FF0008407950718F071F49EF58FC10EF4E095C3
:105000000B2EBA2FA02D0B01B90190010C01CA0182
:10501000A0011124FF27591B99F0593F50F4503E2D
:1050200068F11A16F040A22F232F342F4427585F1F
:10503000F3CF469537952795A795F0405395C9F737
:105040007EF41F16BA0B620B730B840BBAF09150EF
:10505000A1F0FF0FBB1F661F771F881FC2F70EC08E
:10506000BA0F621F731F841F48F487957795679561
:10507000B795F7959E3F08F0B3CF9395880F08F04A
:105080009927EE0F979587950895D9D008F481E078
:1050900008950CD00FC107D140F0FED030F021F4BC
:1050A0005F3F19F0F0C0511139C1F3C014D198F32A
:1050B0009923C9F35523B1F3951B550BBB27AA2799
:1050C00062177307840738F09F5F5F4F220F331F0B
:1050D000441FAA1FA9F333D00E2E3AF0E0E830D0D7
:1050E00091505040E695001CCAF729D0FE2F27D0DA
:1050F000660F771F881FBB1F261737074807AB07A8
:10510000B0E809F0BB0B802DBF01FF2793585F4F1C
:105110002AF09E3F510568F0B6C000C15F3FECF336
:10512000983EDCF3869577956795B795F7959F5FE1
:10513000C9F7880F911D9695879597F90895E1E035
:10514000660F771F881FBB1F621773078407BA0794
:1051500020F0621B730B840BBA0BEE1F88F7E095EF
:10516000089504D06894B111D9C00895BCD088F0D6
:105170009F5790F0B92F9927B751A0F0D1F0660F43
:10518000771F881F991F1AF0BA95C9F712C0B1305E
:1051900081F0C3D0B1E00895C0C0672F782F882771
:1051A000B85F39F0B93FCCF3869577956795B3959D
:1051B000D9F73EF490958095709561957F4F8F4F0C
:1051C0009F4F0895E89409C097FB3EF49095809511
:1051D000709561957F4F8F4F9F4F9923A9F0F92FBD
:1051E00096E9BB279395F695879577956795B7953B
:1051F000F111F8CFFAF4BB0F11F460FF1BC06F5F21
:105200007F4F8F4F9F4F16C0882311F096E911C032
:10521000772321F09EE8872F762F05C0662371F053
:1052200096E8862F70E060E02AF09A95660F771F67
:10523000881FDAF7880F9695879597F90895990F43
:105240000008550FAA0BE0E8FEEF16161706E80750
:10525000F907C0F012161306E407F50798F0621B71
:10526000730B840B950B39F40A2661F0232B242B46
:10527000252B21F408950A2609F4A140A6958FEF65
:10528000811D811D089597F99F6780E870E060E0B7
:1052900008959FEF80EC089500240A9416161706CF
:1052A00018060906089500240A9412161306140617
:1052B00005060895092E0394000C11F4882352F07A
:1052C000BB0F40F4BF2B11F460FF04C06F5F7F4F32
:1052D0008F4F9F4F089557FD9058440F551F59F019
:1052E0005F3F71F04795880F97FB991F61F09F3FD3
:1052F00079F087950895121613061406551FF2CFFC
:105300004695F1DF08C0161617061806991FF1CF4B
:1053100086957105610508940895E894BB27662772
:105320007727CB0197F908958ADF08F48FEF089566
:105330000BD0C0CFB1DF28F0B6DF18F0952309F00D
:10534000A2CFA7CF1124EACFC6DFA0F3959FD1F358
:10535000950F50E0551F629FF001729FBB27F00D23
:10536000B11D639FAA27F00DB11DAA1F649F662778
:10537000B00DA11D661F829F2227B00DA11D621FC7
:10538000739FB00DA11D621F839FA00D611D221F81
:10539000749F3327A00D611D231F849F600D211D65
:1053A000822F762F6A2F11249F5750408AF0E1F008
:1053B00088234AF0EE0FFF1FBB1F661F771F881F51
:1053C00091505040A9F79E3F510570F05CCFA6CF99
:1053D0005F3FECF3983EDCF3869577956795B7953C
:1053E000F795E7959F5FC1F7FE2B880F911D969566
:1053F000879597F9089597FB072E16F4009406D029
:1054000077FD08D050D007FC05D03EF490958195EB
:105410009F4F0895709561957F4F0895A1E21A2ED0
:10542000AA1BBB1BFD010DC0AA1FBB1FEE1FFF1F48
:10543000A217B307E407F50720F0A21BB30BE40B98
:10544000F50B661F771F881F991F1A9469F76095DF
:105450007095809590959B01AC01BD01CF01089599
:10546000EE0FFF1F0590F491E02D1994A29FB0015B
:10547000B39FC001A39F700D811D1124911DB29F88
:10548000700D811D1124911D0895F0DFA59F900DD1
:10549000B49F900DA49F800D911D11240895079035
:1054A000F691E02D1994AA1BBB1B51E107C0AA1F5E
:1054B000BB1FA617B70710F0A61BB70B881F991FB5
:1054C0005A95A9F780959095BC01CD010895EF926A
:1054D0000F931F93CF93DF93E80147FF02C034E19E
:1054E00001C034E0E42FFF27E7FDF095F7FF03C08C
:1054F000F195E195F109E32E022F2E2FAE016DD229
:10550000CE01DF91CF911F910F91EF900895CF932E
:10551000DF938230910510F482E090E0E0916F0615
:10552000F091700620E030E0A0E0B0E0309739F173
:105530004081518148175907B8F04817590771F44D
:1055400082819381109729F013969C938E931297E2
:105550002CC09093700680936F0627C021153105EB
:1055600031F04217530718F0A901DB0101C0EF0128
:105570009A01BD01DF010280F381E02DD7CF211513
:105580003105F9F0281B390B2430310580F48A816C
:105590009B816115710521F0FB019383828304C017
:1055A0009093700680936F06FE01329644C0FE0110
:1055B000E20FF31F8193919322503109398328839D
:1055C0003AC020916D0630916E06232B41F4209154
:1055D00002023091030230936E0620936D062091F3
:1055E0000002309101022115310541F42DB73EB77B
:1055F0004091040250910502241B350BE0916D0689
:10560000F0916E06E217F307A0F42E1B3F0B28174C
:10561000390778F0AC014E5F5F4F2417350748F02B
:105620004E0F5F1F50936E0640936D0681939193CA
:1056300002C0E0E0F0E0CF01DF91CF910895CF9379
:10564000DF93009709F487C0FC013297138212821E
:10565000C0916F06D0917006209781F4208131812E
:10566000280F391F80916D0690916E06821793075F
:1056700079F5F0936E06E0936D066DC0DE0120E0D3
:1056800030E0AE17BF0750F412964D915C9113971E
:105690009D014115510509F1DA01F3CFB383A283CE
:1056A00040815181840F951F8A179B0771F48D915A
:1056B0009C911197840F951F029691838083129677
:1056C0008D919C911397938382832115310529F441
:1056D000F0937006E0936F063EC0D9011396FC93D9
:1056E000EE9312974D915D91A40FB51FEA17FB073A
:1056F00079F480819181840F951F0296D9011196CA
:105700009C938E938281938113969C938E93129790
:10571000E0E0F0E08A819B81009719F0FE01EC0146
:10572000F9CFCE01029628813981820F931F2091F3
:105730006D0630916E062817390769F4309729F401
:105740001092700610926F0602C013821282D093DC
:105750006E06C0936D06DF91CF9108956F927F9290
:105760008F929F92AF92BF92CF92DF92EF92FF9271
:105770000F931F93CF93DF93EC01CB01209779F424
:10578000DF91CF911F910F91FF90EF90DF90CF901D
:10579000BF90AF909F908F907F906F90B8CEFE019A
:1057A000E60FF71F9E0122503109E217F30708F4B4
:1057B000A8C0D9010D911C91119706171707B0F0D9
:1057C0000530110508F49BC0A80144505109461743
:1057D000570708F494C002501109061B170B0193D8
:1057E00011936D937C93CF012ADF89C05B01A01ACE
:1057F000B10A4E01800E911EA0916F06B091700605
:10580000612C712C60E070E0109709F449C0A81574
:10581000B905C9F5ED90FC901197670142E0C40EFF
:10582000D11CCA14DB0478F147018A189B08640173
:1058300042E0C40ED11C1296BC9012971396AC9104
:10584000B5E0CB16D10440F0B282A383918280826E
:10585000D9018D939C9309C00E5F1F4F0E0D1F1D24
:10586000F90111830083EB2DFA2F6115710531F0D9
:10587000DB011396FC93EE93129741C0F0937006F0
:10588000E0936F063CC06D917C9111976616770688
:1058900008F43B01BD0112960D90BC91A02DB4CF30
:1058A00060916D0670916E0668157905E9F46816C9
:1058B0007906D0F440910002509101024115510542
:1058C00041F44DB75EB76091040270910502461B2A
:1058D000570BE417F507A8F4F0936E06E0936D06F6
:1058E000F901918380830BC012DE7C01009749F09F
:1058F000A801BE0122D0CE01A2DEC70104C0CE01A4
:1059000002C080E090E0DF91CF911F910F91FF9056
:10591000EF90DF90CF90BF90AF909F908F907F904F
:105920006F90089566277727D5C1911113C48032EF
:1059300019F089508550D0F70895FB01DC0102C0B1
:1059400001900D9241505040D8F70895FB01DC01C1
:105950008D91019080190110D9F3990B0895FB01E5
:10596000DC0101900D920020E1F7089545325105C8
:1059700018F4423008F004C0FB011082CB010895F6
:10598000BB274A3031F4992322F4BDE290958195EA
:105990009F4F0BC04532510518F4423008F004C047
:1059A000FB011082CB010895BB27FB015527AA27D5
:1059B000880F991FAA1FA41710F0A41B839550519C
:1059C000B9F7A05DAA3308F0A95DA193009779F714
:1059D000B111B1931192CB01D8C36F927F929F9274
:1059E000AF92BF92CF92DF92EF92FF920F931F93ED
:1059F000CF93DF93CDB7DEB729970FB6F894DEBF0C
:105A00000FBECDBF6A01B22E102F0C3320F4FF243D
:105A1000F394F00E02C04CE3F42E0F2D27E0AE01FC
:105A20004F5F5F4FBFD27981272F2970213031F02E
:105A3000E1FC06C0E0FC06C060E005C06DE203C00A
:105A40006BE201C060E2AE2DA07173FF36C0662329
:105A500011F084E001C083E08B1510F4B81A01C086
:105A6000B12CA1110BC0F6018B2D90E2882319F007
:105A700091938150FBCFCB0CD11CB12C662331F01C
:105A8000F601608396012F5F3F4F6901C6010396BF
:105A9000E2FE05C02EE4F601208331E404C02EE6C8
:105AA000F601208331E631832283FC012B2D30E285
:105AB0002223F1F131932150FBCF72FF40C06623C6
:105AC00011F084E001C083E08B1510F4B81A01C016
:105AD000B12CA1110BC0F6018B2D90E2882319F097
