:10000000B6C10000E5C10000E3C10000E1C100008D
:10001000DFC10000DDC10000DBC10000D9C100006C
:10002000D7C10000D5C10000D3C10000D1C100007C
:10003000CFC10000CDC10000CBC100000C94342220
:10004000C7C10000C5C10000C3C10000C1C100009C
:10005000BFC10000BDC10000BBC100000C947122F3
:10006000B7C100000C94D4250C940A26B1C100003D
:10007000AFC10000ADC10000ABC10000A9C10000CC
:10008000A7C10000A5C10000A3C10000A1C10000DC
:100090000C947F260C94B5269BC100000C94A511EE
:1000A00097C1000095C1000093C1000091C10000FC
:1000B0008FC100008DC100008BC1000089C100000C
:1000C00087C1000085C1000083C1000081C100001C
:1000D0007FC100007DC100007BC1000079C100002C
:1000E00077C100009523982387238B239123CF2367
:1000F0009C23A023A623AA23AE23B423B823BC2386
:10010000CF23C223C623CA2300000A0B02090C0D09
:100110000E080703040100000000000000000000BA
:1001200000000000000000000000000000000000CF
:10013000000000001211100000000000000000008C
:1001400000000000000000000000000000000102AC
:1001500010202008081020401020408002010201D9
:100160000804020101020408102040808040201091
:1001700008040201800402018040201008040201EA
:100180000804020101020408102040800102040852
:10019000102040800505050507050808080802022B
:1001A00002020A0A08080404040401010101010111
:1001B00001010303030303030303040707070C0CF4
:1001C0000C0C0C0C0C0C02020202060606060606BB
:1001D00006060B0B0B0B0B0B0B0B00002000230078
:1001E000260029002C002F0032000001000003012E
:1001F0000601090100002200250028002B002E0026
:100200003100340002010000050108010B0100006B
:100210002100240027002A002D00300033000101B6
:100220000000040107010A014E414E494E4954594C
:10023000494E46CDCCCC3D0AD7233C17B7D13877B1
:10024000CC2B329595E6241FB14F0A0000204100C7
:1002500000C84200401C4620BCBE4CCA1B0E5AAE11
:10026000C59D7400407A10F35A00A0724E18090020
:1002700010A5D4E80000E87648170000E40B54020B
:100280000000CA9A3B000000E1F505000080969846
:1002900000000040420F000000A086010000001096
:1002A0002700000000E803000000006400000000D8
:1002B000000A00000000000100000000002C76D8B9
:1002C00088DC674F0823DFC1DFAE59E1B1B796E59F
:1002D000E3E453C63AE651997696E8E6C28426EB03
:1002E000898C9B62ED407C6FFCEFBC9C9F40F2BA16
:1002F000A56FA5F490055A2AF75C936B6CF9676DAE
:10030000C11BFCE0E40D47FEF520E6B500D0ED9002
:100310002E0300943577050080841E080000204ECF
:100320000A000000C80C333333330F986E12831168
:1003300041EF8D2114893BE65516CFFEE6DB18D13F
:10034000844B381BF77C1D901DA4BBE42420328411
:10035000725E228100C9F124ECA1E53D2700CA0F9D
:10036000C410DC12E21C60223C26E726F70F1124A1
:100370001FBECFEFD1E2DEBFCDBF00E00CBF13E068
:10038000A0E0B2E0EAEFF5E600E00BBF02C00790A4
:100390000D92A036B107D9F726E0A0E6B3E001C080
:1003A0001D92AB38B207E1F713E0CCE6D3E000E0F2
:1003B00006C022970109FE010BBF0E94662CCE35B4
:1003C000D10780E00807A9F70E942B270C94EC3294
:1003D00017CECF93DF93CDB7DEB76E970FB6F894F5
:1003E000DEBF0FBECDBF4AE060910704CE01499643
:1003F0000E9461284AE060910604CE0143960E9463
:1004000061284AE060910504CE010D960E946128A2
:100410008D8D9E8D019709F565E772E0CE010796F7
:100420000E941928BE01695F7F4FCE0101960E948C
:100430004328BE01675E7F4FCE0101960E942129AD
:10044000BC01CE0149960E942E28CE0101960E9441
:10045000B227CE0107960E94B2278F89988D019707
:1004600009F565E772E0CE0107960E941928BE01E2
:10047000695F7F4FCE0101960E944328BE016D5EE9
:100480007F4FCE0101960E942129BC01CE014396E7
:100490000E942E28CE0101960E94B227CE01079617
:1004A0000E94B22789899A89019709F565E772E068
:1004B000CE0107960E941928BE01695F7F4FCE01C9
:1004C00001960E944328BE01635F7F4FCE010196D3
:1004D0000E942129BC01CE010D960E942E28CE013A
:1004E00001960E94B227CE0107960E94B227BE0154
:1004F000675E7F4FCE0107960E9443286CEB72E047
:10050000CE0107960E943229BE016D5E7F4F0E9488
:1005100021296CEB72E00E943229BE01635F7F4F9C
:100520000E942129BC01CE0101960E944328BE01F0
:100530006F5F7F4F8091FD039091FE030E941F1813
:10054000CE0101960E94B227CE0107960E94B227E3
:10055000CE010D960E94B227CE0143960E94B2278B
:10056000CE0149960E94B2276E960FB6F894DEBF70
:100570000FBECDBFDF91CF910895CF93DF93CDB75D
:10058000DEB7A4970FB6F894DEBF0FBECDBF4AE02A
:1005900060910904CE014F960E9461284AE0609163
:1005A0000A04CE0149960E94612860910B0470E014
:1005B0006E51710977FF03C07195619571094AE029
:1005C000CE0107960E948C2864E172E0CE010D9660
:1005D0000E941928BE01635F7F4FCE0101960E94E1
:1005E0004328BE01695F7F4FCE0101960E942129F9
:1005F000BC01CE0143960E944328CE0101960E9481
:10060000B227CE010D960E94B227CE0107960E9416
:10061000B2278BA19CA1019709F565E772E0CE0195
:1006200007960E941928BE01695F7F4FCE0101968F
:100630000E944328BE01615E7F4FCE0101960E9459
:100640002129BC01CE014F960E942E28CE01019691
:100650000E94B227CE0107960E94B2278D8D9E8DF3
:10066000019709F565E772E0CE0107960E94192807
:10067000BE01695F7F4FCE0101960E944328BE01F3
:10068000675E7F4FCE0101960E942129BC01CE01F9
:1006900049960E942E28CE0101960E94B227CE01D3
:1006A00007960E94B227BE01615E7F4FCE0107967A
:1006B0000E94432867E172E0CE0107960E9432292A
:1006C000BE01675E7F4F0E94212967E172E00E94B0
:1006D0003229BE016D5E7F4F0E942129BC01CE01EF
:1006E00001960E944328BE016F5F7F4F8091FF03F8
:1006F000909100040E941F18CE0101960E94B2271B
:10070000CE0107960E94B227CE0143960E94B227DF
:10071000CE0149960E94B227CE014F960E94B22781
:10072000A4960FB6F894DEBF0FBECDBFDF91CF9178
:10073000089569E172E088EE95E00E94A2276FE1DA
:1007400072E088EE95E00C94A22767E272E088EEF2
:1007500095E00C94A2276DE272E088EE95E00C948F
:10076000A22769E172E088EE95E00C94A227CF936E
:10077000DF93C091DB03D091DC038091E50390917E
:10078000E6030E94C9196A8B7B8B8C8B9D8BC09171
:10079000D903D091DA038091E5039091E6030E949A
:1007A000C9196A8B7B8B8C8B9D8BC091D703D091A1
:1007B000D8038091E5039091E6030E94C9196A8BE2
:1007C0007B8B8C8B9D8BDF91CF910895CF93DF93A3
:1007D000CDB7DEB768970FB6F894DEBF0FBECDBFBA
:1007E0008091DB039091DC030E94C9190E94C82A02
:1007F0004AE0CE0101960E948C2860E573E0CE01AC
:100800000D960E941928BE01635F7F4FCE010796A7
:100810000E94432863E372E0CE0107960E943229CA
:10082000BE016F5F7F4F0E942129BC01CE0143961C
:100830000E944328CE0107960E94B227CE010D9652
:100840000E94B227CE0101960E94B227BE016D5EC2
:100850007F4F88EE95E00E949227CE0143960E943A
:10086000B22768960FB6F894DEBF0FBECDBFDF91FA
:10087000CF910895CF93DF93CDB7DEB768970FB6CA
:10088000F894DEBF0FBECDBF8091D9039091DA03FB
:100890000E94C9190E94C82A4AE0CE0101960E940E
:1008A0008C2860E573E0CE010D960E941928BE01E8
:1008B000635F7F4FCE0107960E94432869E372E091
:1008C000CE0107960E943229BE016F5F7F4F0E94C2
:1008D0002129BC01CE0143960E944328CE010796F0
:1008E0000E94B227CE010D960E94B227CE0101963A
:1008F0000E94B227BE016D5E7F4F88EE95E00E9498
:100900009227CE0143960E94B22768960FB6F894BC
:10091000DEBF0FBECDBFDF91CF910895CF93DF93A0
:10092000CDB7DEB768970FB6F894DEBF0FBECDBF68
:100930008091D7039091D8030E94C9190E94C82AB8
:100940004AE0CE0101960E948C2860E573E0CE015A
:100950000D960E941928BE01635F7F4FCE01079656
:100960000E9443286FE372E0CE0107960E9432296D
:10097000BE016F5F7F4F0E942129BC01CE014396CB
:100980000E944328CE0107960E94B227CE010D9601
:100990000E94B227CE0101960E94B227BE016D5E71
:1009A0007F4F88EE95E00E949227CE0143960E94E9
:1009B000B22768960FB6F894DEBF0FBECDBFDF91A9
:1009C000CF910895CF93DF93CDB7DEB768970FB679
:1009D000F894DEBF0FBECDBF8091D3039091D403B6
:1009E0000E94C9190E94C82A48EE53E0469F900110
:1009F000479F300D569F300D11244AE0B901CE01BA
:100A000001960E948C2860E573E0CE010D960E944D
:100A10001928BE01635F7F4FCE0107960E944328CD
:100A200065E472E0CE0107960E943229BE016F5F35
:100A30007F4F0E942129BC01CE0143960E9443288A
:100A4000CE0107960E94B227CE010D960E94B227D2
:100A5000CE0101960E94B227BE016D5E7F4F88EEE7
:100A600095E00E949227CE0143960E94B227689695
:100A70000FB6F894DEBF0FBECDBFDF91CF910895C2
:100A80000F931F93CF93DF93CDB7DEB762970FB667
:100A9000F894DEBF0FBECDBF8091CF039091D003FD
:100AA00065E772E006960E948B29882319F06EE7AD
:100AB00072E002C065E772E0CE0101960E9419283B
:100AC000BE016F5F7F4F8091CF039091D0030E9452
:100AD0001F18CE0101960E94B2270091CF031091FA
:100AE000D0030A5F1F4F60E573E0CE0107960E94B6
:100AF0001928BE01695F7F4FCE0101960E944328ED
:100B00006BE472E0CE0101960E943229B8010E9486
:100B10002129BC01CE010D960E944328CE010196E9
:100B20000E94B227CE0107960E94B227BE01635FE2
:100B30007F4F88EE95E00E949227CE010D960E948D
:100B4000B22762960FB6F894DEBF0FBECDBFDF911D
:100B5000CF911F910F9108950F931F93CF93DF9320
:100B6000CDB7DEB762970FB6F894DEBF0FBECDBF2C
:100B70008091C7039091C80365E772E006960E94D2
:100B80008B29882319F06EE772E002C065E772E0F6
:100B9000CE0101960E941928BE016F5F7F4F8091A0
:100BA000C7039091C8030E941F18CE0101960E94AE
:100BB000B2270091C7031091C8030A5F1F4F60E579
:100BC00073E0CE0107960E941928BE01695F7F4F2E
:100BD000CE0101960E94432861E572E0CE010196A4
:100BE0000E943229B8010E942129BC01CE010D9634
:100BF0000E944328CE0101960E94B227CE0107969B
:100C00000E94B227BE01635F7F4F88EE95E00E948D
:100C10009227CE010D960E94B22762960FB6F894E5
:100C2000DEBF0FBECDBFDF91CF911F910F91089511
:100C30000F931F93CF93DF93CDB7DEB762970FB6B5
:100C4000F894DEBF0FBECDBF8091CB039091CC0353
:100C500065E772E006960E948B29882319F06EE7FB
:100C600072E002C065E772E0CE0101960E94192889
:100C7000BE016F5F7F4F8091CB039091CC030E94A8
:100C80001F18CE0101960E94B2270091CB0310914C
:100C9000CC030A5F1F4F60E573E0CE0107960E9408
:100CA0001928BE01695F7F4FCE0101960E9443283B
:100CB00067E572E0CE0101960E943229B8010E94D8
:100CC0002129BC01CE010D960E944328CE01019638
:100CD0000E94B227CE0107960E94B227BE01635F31
:100CE0007F4F88EE95E00E949227CE010D960E94DC
:100CF000B22762960FB6F894DEBF0FBECDBFDF916C
:100D0000CF911F910F9108950F931F93CF93DF936E
:100D1000CDB7DEB762970FB6F894DEBF0FBECDBF7A
:100D20008091C3039091C40365E772E006960E9428
:100D30008B29882319F06DE572E002C065E772E047
:100D4000CE0101960E941928BE016F5F7F4F8091EE
:100D5000C3039091C4030E941F18CE0101960E9404
:100D6000B2270091C3031091C4030A5F1F4F60E5CF
:100D700073E0CE0107960E941928BE01695F7F4F7C
:100D8000CE0101960E94432860E672E0CE010196F2
:100D90000E943229B8010E942129BC01CE010D9682
:100DA0000E944328CE0101960E94B227CE010796E9
:100DB0000E94B227BE01635F7F4F88EE95E00E94DC
:100DC0009227CE010D960E94B22762960FB6F89434
:100DD000DEBF0FBECDBFDF91CF911F910F91089560
:100DE0002AED32E0FC01318320830C944213CF932F
:100DF000DF93EC01F5DFCE01DF91CF910C94392721
:100E0000CF93DF93C5E7D3E02797888199810E942C
:100E1000392783E0C036D807B9F788E194E00E940B
:100E20008A1E86E294E0DF91CF910C948A1E2F9265
:100E30003F924F925F926F927F928F929F92AF926A
:100E4000BF92CF92DF92EF92FF920F931F93CF93B7
:100E5000DF93CDB7DEB7E1970FB6F894DEBF0FBED4
:100E6000CDBF8BEB9EE090937C0380937B038DEB57
:100E70009EE090937E0380937D038FEB9EE09093A2
:100E8000800380937F0381E79FE0909376038093B4
:100E9000750383E79FE0909378038093770385E75A
:100EA0009FE090937A038093790326E040E855E22F
:100EB00060E070E08BE495E00E94742526E040E855
:100EC00055E260E070E088EE95E00E94742540E80D
:100ED00055E26BE475E0CE0101965C010E943F1E75
:100EE00089819A8190932704809326048B819C8129
:100EF00090932904809328048D819E8190932B04E4
:100F000080932A048F8180932C04888580932D04FC
:100F1000BE01675F7F4F8EE294E00E942E28C501DC
:100F20000E948A1E40E855E268EE75E0C5010E9405
:100F30003F1E89819A8190931904809318048B81B4
:100F40009C8190931B0480931A048D819E819093C1
:100F50001D0480931C048F8180931E0488858093D8
:100F60001F04BE01675F7F4F80E294E00E942E283D
:100F7000C5010E948A1E40E855E268EE75E086E2EF
:100F800094E00E94B71E40E855E26BE475E088E10A
:100F900094E00E94B71E86E090E00E9437276C0123
:100FA00016E0DC01E12F1D92EA95E9F70E943F1857
:100FB0004AED642E42E0742ED6016D927C92D0925E
:100FC0000404C092030466E672E0C5010E94192879
:100FD00082E190E00E9437276C01609103047091D8
:100FE000040400E020E0A5010E949419D0920204BC
:100FF000C0920104C5010E94B22760E573E0C501FB
:101000000E94192882E190E00E9437276C016091CC
:1010100003047091040428E0A5010E949419D09261
:101020000004C092FF03C5010E94B2276EE672E081
:10103000C5010E94192882E190E00E9437276C01C7
:10104000609103047091040401E028E0A5010E946E
:101050009419D092FE03C092FD03C5010E94B227ED
:1010600086E090E00E9437276C01FC0111921A95EE
:10107000E9F70E943F18D6016D927C92D092FC0352
:10108000C092FB0367E772E0C5010E94192882E164
:1010900090E00E9437276C016091FB037091FC0384
:1010A00000E027E0A5010E949419D092FA03C092B3
:1010B000F903C5010E94B22753EFC52E53E0D52E88
:1010C0006DEB862E63E0962EE3E9F3E0FD8FEC8F67
:1010D0008BE793E099A388A3ADE8B3E0BF8FAE8F11
:1010E000E7E8F3E0FBA3EAA381E893E09DA38CA3E8
:1010F000A7EBB3E0BFA3AEA3E5EAF3E0F9A7E8A747
:1011000081EB93E09BA78AA7AFE9B3E0BDA7ACA7AB
:10111000EBEAF3E0FFA7EEA789E993E099AB88AB90
:101120001B8E22242394312CFA2C1B2D412C512C64
:10113000E8EB6E2EE1E47E2E4AE0B101CE01459649
:101140000E948C2860E872E0CE010F960E94192858
:10115000BE016B5E7F4FCE010F960E942129BC011C
:101160008F2D912F0E94432884E190E00E94372721
:101170005C016091FB037091FC0302E02B8D4F2D0D
:10118000512F0E944A19D601AD92BC928F2D912FFA
:101190000E94B227CE010F960E94B227CE0145963B
:1011A0000E94B22765E872E08F2D912F0E941928C6
:1011B00084E190E00E9437275C01D601ED91FC911B
:1011C0006289738900E023E04F2D512F0E944A1954
:1011D000F401B182A0828F2D912F0E94B22764E981
:1011E00072E08F2D912F0E94192884E190E00E94D7
:1011F00037275C01D401ED91FC916289738920E06D
:101200004F2D512F0E94AB1CEC8DFD8DB182A08221
:101210008F2D912F0E94B227AC8DBD8DED91FD9148
:10122000BD8FAC8FA8A1B9A18D919D91B9A3A8A3A1
:10123000938B828B87E290E00E9437275C01D40178
:10124000ED91FC9162897389E12C0AE020E030E0A5
:1012500040E451E40E945F1AEE8DFF8DB182A082BE
:101260006CEB72E08F2D912F0E94192882E190E0A3
:101270000E9437275C01D401ED91FC91628973894A
:1012800000E02CE04F2D512F0E949419EAA1FBA100
:10129000A192B192FBA3EAA38F2D912F0E94B227B6
:1012A00087E290E00E9437275C01D401ED91FD9127
:1012B0004D01628973890DE020E030E040E751E4A0
:1012C0000E945F1AECA1FDA1A192B192FDA3ECA333
:1012D000AE8DBF8DED91FD91BF8FAE8F478A508E41
:1012E000618E728E138E148E158E168E80E090E0B5
:1012F000ACE6B2E4F501878B908FA18FB28F138E8D
:10130000148E158E168E68E972E08F2D912F0E9433
:10131000192882E190E00E9437275C01D601ED9107
:10132000FC916289738901E020E04F2D512F0E94CA
:101330009419EEA1FFA1A192B192FFA3EEA38F2D6C
:10134000912F0E94B22787E290E00E9437275C012C
:10135000D601ED91FC9162897389EE24E3940AE051
:1013600020E030E040E252E40E945F1AE8A5F9A5CF
:10137000A192B192F9A7E8A761EA72E08F2D912FAF
:101380000E94192882E190E00E9437275C01D60173
:10139000ED91FC916289738902E020E04F2D512F7D
:1013A0000E949419EAA5FBA5A192B192FBA7EAA716
:1013B0008F2D912F0E94B22787E290E00E9437275D
:1013C0005C01D601ED91FC916289738922E0E22EE5
:1013D0000AE020E030E040E752E40E945F1AECA50A
:1013E000FDA5A192B192FDA7ECA76AEA72E08F2D4C
:1013F000912F0E94192882E190E00E9437275C011A
:10140000D601ED91FC916289738903E020E04F2DB4
:10141000512F0E949419EEA5FFA5A192B192FFA7AA
:10142000EEA78F2D912F0E94B22787E290E00E94B5
:1014300037275C01D601ED91FD916D0162897389B9
:1014400033E0E32E0AE020E030E040E252E40E9484
:101450005F1AE8A9F9A9A192B192F9ABE8ABFFEF45
:101460002F1A3F0A8B8D895F8B8F853109F064CEEF
:1014700086E090E00E9437276C0186E0D6011D923D
:101480008A95E9F7C6010E943F188AED92E0F601BD
:1014900091838083D092F203C092F10363EB72E0F8
:1014A0008F2D912F0E94192884E190E00E94372708
:1014B0006C016091F1037091F20300E021E04F2D87
:1014C000512F0E94AB1CD092F003C092EF038F2DDE
:1014D000912F0E94B22767E372E08F2D912F0E9417
:1014E000192884E190E00E9437276C016091F10394
:1014F0007091F20328E04F2D512F0E94AB1CD09227
:10150000EE03C092ED038F2D912F0E94B2276DE361
:1015100072E08F2D912F0E94192884E190E00E94A3
:1015200037276C016091F1037091F2032CE04F2D8D
:10153000512F0E94AB1CD092EC03C092EB038F2D75
:10154000912F0E94B22763E472E08F2D912F0E94A9
:10155000192884E190E00E9437276C016091F10323
:101560007091F20320E14F2D512F0E94AB1CD092BD
:10157000EA03C092E9038F2D912F0E94B22768EBF6
:1015800072E08F2D912F0E94192882E190E00E9435
:1015900037276C016091F1037091F20301E021E0C3
:1015A0004F2D512F0E949419D092E803C092E70367
:1015B0008F2D912F0E94B22787E290E00E9437275B
:1015C0006C016091F1037091F203EE24E39408E062
:1015D00020E030E040E85FE30E945F1AD092E6032B
:1015E000C092E5036EEB72E08F2D912F0E941928B7
:1015F00082E190E00E9437276C016091F1037091C5
:10160000F20301E02CE04F2D512F0E949419D0924B
:10161000E403C092E3038F2D912F0E94B22767E36A
:1016200072E08F2D912F0E94192882E190E00E9494
:1016300037276C016091F1037091F20302E020E022
:101640004F2D512F0E949419D092E203C092E103D2
:101650008F2D912F0E94B22787E290E00E943727BA
:101660006C016091F1037091F20382E0E82E01E0D9
:1016700020E030E0A901C6010E945F1AD092DC038D
:10168000C092DB036DE372E08F2D912F0E94192829
:1016900082E190E00E9437276C016091F103709124
:1016A000F20302E027E04F2D512F0E949419D092AF
:1016B000E003C092DF038F2D912F0E94B22787E2B3
:1016C00090E00E9437276C016091F1037091F20362
:1016D00008E020E030E0A9010E945F1AD092DA030E
:1016E000C092D90363E472E08F2D912F0E941928D4
:1016F00082E190E00E9437276C016091F1037091C4
:10170000F20302E02EE04F2D512F0E949419D09247
:10171000DE03C092DD038F2D912F0E94B22787E256
:1017200090E00E9437276C016091F1037091F20301
:101730000FE020E030E0A9010E945F1AD092D803A8
:10174000C092D70369E472E08F2D912F0E9419286F
:1017500084E190E00E9437276C016091F103709161
:10176000F20303E020E04F2D512F0E94AB1CD092DA
:10177000D603C092D5038F2D912F0E94B22787E206
:1017800090E00E9437276C016091F1037091F203A1
:1017900093E0E92E01E020E030E040E85FE3C6019D
:1017A0000E945F1AD092D403C092D3036FE472E018
:1017B0008F2D912F0E94192884E190E00E943727F5
:1017C0006C016091F1037091F20303E024E04F2D6E
:1017D000512F0E94AB1CD092D203C092D1038F2D07
:1017E000912F0E94B22765E772E08F2D912F0E9402
:1017F000192882E190E00E9437276C016091F10383
:101800007091F20325E04F2D512F0E949419D09230
:10181000D003C092CF038F2D912F0E94B22765E590
:1018200072E08F2D912F0E94192884E190E00E9490
:1018300037276C016091F1037091F20328E04F2D7E
:10184000512F0E94AB1CD092CA03C092C9038F2DA6
:10185000912F0E94B22765E772E08F2D912F0E9491
:10186000192882E190E00E9437276C016091F10312
:101870007091F20329E04F2D512F0E949419D092BC
:10188000C803C092C7038F2D912F0E94B2276BE52A
:1018900072E08F2D912F0E94192884E190E00E9420
:1018A00037276C016091F1037091F2032CE04F2D0A
:1018B000512F0E94AB1CD092CE03C092CD038F2D2E
:1018C000912F0E94B22765E772E08F2D912F0E9421
:1018D000192882E190E00E9437276C016091F103A2
:1018E0007091F2032DE04F2D512F0E949419D09248
:1018F000CC03C092CB038F2D912F0E94B22764E6B8
:1019000072E08F2D912F0E94192884E190E00E94AF
:1019100037276C016091F1037091F20320E14F2DA4
:10192000512F0E94AB1CD092C603C092C5038F2DCD
:10193000912F0E94B22765E772E08F2D912F0E94B0
:10194000192882E190E00E9437276C016091F10331
:101950007091F20321E14F2D512F0E949419D092E2
:10196000C403C092C3038F2D912F0E94B227E09130
:10197000EF03F091F00389E993E0938B828BE09180
:10198000ED03F091EE0385EA93E0938B828BE09177
:10199000EB03F091EC038BEA93E0938B828BE09165
:1019A000E903F091EA0381EB93E0938B828BE09162
:1019B000E503F091E60380E090E0A8ECB2E4878BC9
:1019C000908FA18FB28F80E090E0A0E8BFE3838F7B
:1019D000948FA58FB68F87EB93E090A3878FE091CC
:1019E000DB03F091DC0386EE93E090A3878FE09118
:1019F000D903F091DA038AE394E090A3878FE09112
:101A0000D703F091D8038EE894E090A3878FE091FC
:101A1000D503F091D60382EE94E0938B828BE09114
:101A2000D103F091D20380E495E0938B828BE09117
:101A3000C903F091CA038CEA95E0938B828BE09105
:101A4000CD03F091CE0388E196E0938B828BE091F9
:101A5000C503F091C60384E896E0938B828BE091F6
:101A6000D303F091D403178A108E118E128E61EC7D
:101A700072E08F2D912F0E9419284F2D512F6CE06D
:101A800074E08DEF94E098D68F2D912F0E94B227AD
:101A900060910304709104048DEF94E0C3D66091CB
:101AA000FB037091FC038DEF94E0BCD66091F103D1
:101AB0007091F2038DEF94E0B5D6609103047091BC
:101AC00004048DEF94E09FD78DEF94E04AD746E071
:101AD00066E072E08FE295E00E94881F88E395E05F
:101AE0000E94CB2048EE53E069EE71E088E395E078
:101AF0000E94ED2048EE53E06DEB72E088E395E044
:101B00000E94ED2088E395E00E94BF21E1960FB688
:101B1000F894DEBF0FBECDBFDF91CF911F910F9123
:101B2000FF90EF90DF90CF90BF90AF909F908F90FD
:101B30007F906F905F904F903F902F9008955F92AD
:101B40006F927F928F929F92AF92BF92CF92DF92CD
:101B5000EF92FF920F931F93CF93DF93CDB7DEB732
:101B60002C970FB6F894DEBF0FBECDBF882E912CF8
:101B700097E0899F70011124D701A05ABC4F7D01C5
:101B800014968D919C9115978630910509F4DDC0CE
:101B9000282F2170220F522E550C550C520E96955F
:101BA000879511E0180F880C991CF401EF57FC4F32
:101BB000C080D180B6E0CB0ED11CF401E357FC4FBE
:101BC000608171816A5F7F4FCE0107960E94432832
:101BD0006CEB72E0CE0107960E943229B6010E949A
:101BE0002129BC01CE0101960E94432882E190E0A8
:101BF0000E9437275C01F401E354FC4F3F01019040
:101C0000F081E02D62897389012F252DAE014F5F90
:101C10005F4F0E949419CE0101960E94B227CE0117
:101C200007960E94B22764ED72E0CE0101960E94F1
:101C3000192884E190E00E9437276C0126E0250DE9
:101C4000D301ED91FC9162897389AE014F5F5F4FC3
:101C50000E94AB1CCE0101960E94B227F401EB5802
:101C6000FC4F80819181F601938B828BD701149672
:101C70008D919C9115978C010F5F1F4F80179107D5
:101C800008F05BC012964D915C9113974017510775
:101C9000B0F509964817590790F58C9011969C90CD
:101CA000119713969C938E931297880F991F880F04
:101CB000991F0E943727F70180839183FC0134012B
:101CC00020E030E0D70114968D919C91159728174C
:101CD000390790F4309749F0D3014D915D916D91A2
:101CE0007C9140835183628373832F5F3F4F34968F
:101CF000B4E06B0E711CE6CFC4010E943927F701D6
:101D0000848195819C01220F331F220F331F80177E
:101D1000910778F4D701ED91FC91E20FF31F309712
:101D200021F0B182A082D382C28201962C5F3F4F04
:101D3000EECFF7011583048308C00817190728F4AC
:101D4000D70115961C930E9314972C960FB6F89402
:101D5000DEBF0FBECDBFDF91CF911F910F91FF90DE
:101D6000EF90DF90CF90BF90AF909F908F907F903B
:101D70006F905F90089580E0E2CE81E0E0CE82E057
:101D8000DECEDF92EF92FF920F931F93CF93DF93FC
:101D9000F12C97E0899FE0011124C05ADC4F0F2DF0
:101DA00010E08C819D810817190728F58F2D81700F
:101DB000880FD82EDD0CDD0CD80EEF2CE694E394C2
:101DC000000F111F000F111FE881F981E00FF11FB3
:101DD0004E2D6D2D808191810E943B1866E06D0D26
:101DE000E881F981E00FF11F4E2D828193810E94DD
:101DF0003B18F394D4CFDF91CF911F910F91FF90B7
:101E0000EF90DF900895DF92EF92FF920F931F9370
:101E1000CF93DF93D82E8091FF04992787FD90956B
:101E200006976AE070E00E94122CE0900005EE0C2C
:101E3000EA94EA94E60E0D2D10E087E0D89EE001CA
:101E40001124C05ADC4FA4E0EA9E70011124E881FD
:101E5000F981EE0DFF1D60817181000F111F035488
:101E60001C4FD801ED91FC91828993890E94D6186C
:101E7000E881F981EE0DFF1D62817381D801ED913A
:101E8000FC91828993890E94D618E881F981D70153
:101E9000B695A795B695A795EE0DFF1D8C819D81F2
:101EA0009C0121503109A217B30750F411964481C7
:101EB0005581668177814193519361937193EECF00
:101EC0002817390710F43D832C838D2D5ADF8DEFB1
:101ED00094E0DF91CF911F910F91FF90EF90DF90F1
:101EE00045C680E090CF81E08ECF82E08CCF85E048
:101EF00094E065C369E08FE295E00E942320882387
:101F000019F08DEF94E03ED66BE08FE295E00E94F1
:101F10002320882319F08DEF94E0BFD66CE08FE288
:101F200095E00E942320882321F08DEF94E00E9409
:101F30009C1C6AE08FE295E00E942320882321F018
:101F40008DEF94E00E94DE1B67E08FE295E00E9437
:101F50002320882321F08DEF94E00E94E61768E0AB
:101F60008FE295E00E942320882319F08DEF94E002
:101F7000ADC70895BCDFBEDF8DEF94E019D78DEFBC
:101F800094E0EFD486E294E00E94C21E88E194E0DF
:101F90000C94C21E0F931F93CF93DF9386E294E0BD
:101FA0000E94FC1D88E194E00E94FC1D24E044E1B5
:101FB00067E28CE094E00E94EA1CC0E6D3E008E00F
:101FC00010E0198218821B830A831D821C8280E222
:101FD00090E00E94372799838883279683E0C5374E
:101FE000D80779F7DF91CF911F910F9108950C9445
:101FF00000078091640490E020916504821B9109A0
:1020000008952091650480916404281750F4E22F0C
:10201000F0E0EA59FB4F808190E02F5F2093650448
:1020200008958FEF9FEF0895E09165048091640417
:10203000E81730F4F0E0EA59FB4F808190E0089512
:102040008FEF9FEF08950895CF92DF92EF92FF9266
:102050000F931F93CF93DF937C01CB018A012091D3
:102060004004222389F0EB016B01C40ED51ECC1570
:10207000DD0561F06991D701ED91FC910190F0814E
:10208000E02DC7011995F3CF642F36D1C801DF9138
:10209000CF911F910F91FF90EF90DF90CF90089517
:1020A000CF93DF931F92CDB7DEB7698320914004B1
:1020B0002223D1F020914104203240F021E030E091
:1020C000FC013383228380E090E014C080914204BD
:1020D000E82FF0E0ED5BFB4F998190838F5F809359
:1020E00042048093410404C061E0CE01019604D112
:1020F00081E090E00F90DF91CF910895FC01138271
:10210000128248EE53E060E070E0448355836683BA
:10211000778382EE92E09183808308951092650424
:1021200010926404109242041092410430C0862F31
:10213000413208F040E266E674E047D01092650450
:1021400080936404089521E0F2CF81E080934004FD
:102150006093630410924204109241040895F5CFF5
:102160000F93062F21E04091410463E474E08091D5
:1021700063046FD010924204109241041092400404
:102180000F91089561E0ECCF84E394E0B7CF109213
:10219000F30481E08093F1041092F00461E084E1A3
:1021A0000E94092461E085E10E940924E9EBF0E046
:1021B00080818E7F808380818D7F808388E480937F
:1021C000B80085E48093BC000895413208F03FC018
:1021D0009091F3049111FCCF91E09093F30420933C
:1021E000F1042FEF209386041092CB04240F209348
:1021F000CA049093F2049091F204880F892B809383
:10220000F2048091F004813041F41092F004809146
:10221000F2048093BB0085EC01C085EE8093BC0086
:102220008091F3048130E1F38091CB04841710F4A2
:102230004091CB042CEC34E0FB01D9018A2F821BA6
:10224000841718F48D918193F9CF842F089580E03D
:1022500008950F93413208F046C09091F304911114
:10226000FCCF92E09093F3040093F1049FEF9093DE
:1022700086041092CB044093CA04FB016CEC74E01A
:10228000DB019A2F961B941718F491919D93F9CF27
:102290001092F2049091F204880F892B8093F2043B
:1022A0008091F004813041F41092F0048091F204A6
:1022B0008093BB0085EC01C085EE8093BC00222397
:1022C00021F08091F3048230E1F3809186048F3F06
:1022D00061F080918604803251F0809186048033D1
:1022E00041F483E007C081E005C080E003C082E0E4
:1022F00001C084E00F910895613298F42091F304B5
:10230000243089F46093A804FC018AEA94E0DC019B
:102310002A2F281B261718F421912D93F9CF80E03E
:10232000089581E0089582E0089585ED8093BC00D2
:102330008091BC0084FDFCCF1092F304089585ECDD
:102340008093BC001092F30408951F920F920FB671
:102350000F9211240BB60F922F933F934F935F93DD
:102360006F937F938F939F93AF93BF93EF93FF935D
:102370008091B900887F803609F49CC068F5883266
:1023800009F45BC090F4803109F454C038F4882318
:1023900009F4F3C0883009F44DC0F2C0883109F463
:1023A0004CC0803209F45DC0EBC0803409F468C0D1
:1023B00048F4803309F455C0883309F0E1C08093B4
:1023C0008604A7C0803509F44FC0883509F45DC084
:1023D000883409F0D5C0D3C0883909F4C4C0A8F442
:1023E000883709F467C038F4883609F463C0803749
:1023F00009F460C0C5C0883809F4B5C0803909F453
:102400005FC0803809F0BCC05BC0803B09F483C06A
:1024100038F4803A09F466C0883A09F47CC0B0C048
:10242000803C09F4A4C0883C09F4A1C0883B09F4AD
:1024300087C0A6C08091F20410C09091CB04809117
:10244000CA04981770F5E091CB0481E08E0F809359
:10245000CB04F0E0E453FB4F80818093BB0085EC1C
:1024600083C0809386048BC0E091CB0481E08E0F03
:102470008093CB048091BB00F0E0E453FB4F80835A
:102480009091CB048091CA046BC0E091CB0481E0B1
:102490008E0F8093CB048091BB00F0E0E453FB4FA0
:1024A00080838091F10481116AC081E08093F004FF
:1024B00084EA5EC083E08093F30410928704CFCF58
:1024C00080918704803208F04EC0E091870481E05B
:1024D0008E0F809387048091BB00F0E0E857FB4F9C
:1024E0008083BDCF80918704803230F4E0918704EF
:1024F000F0E0E857FB4F108218DF6091870470E02E
:10250000E091EC04F091ED0488E894E019951092C4
:10251000870415DF35C084E08093F3041092A9048A
:102520001092A804E091EE04F091EF0419958091C7
:10253000A804811105C081E08093A8041092AA0428
:10254000E091A90481E08E0F8093A904F0E0E655A4
:10255000FB4F80818093BB009091A9048091A804D7
:10256000981708F47CCF85E88093BC0009C085ECFF
:102570008093BC001092F30403C010928604D5DE51
:10258000FF91EF91BF91AF919F918F917F916F914B
:102590005F914F913F912F910F900BBE0F900FBE07
:1025A0000F901F901895982F92959F708F702AE02A
:1025B000929F800D1124089584E394E0AFCD1F9382
:1025C000CF93DF93EC0168E670E084E394E0C7DD2D
:1025D00060E084E394E064DD84E394E0D3DD882369
:1025E00019F01092F4043CC081E08093F40447E0B9
:1025F00050E068E670E084E394E0A5DD84E394E0D5
:10260000F8DC07976CF184E394E0FBDC182F8F77FC
:10261000CADF888384E394E0F4DCC5DF898384E344
:1026200094E0EFDC8F73BFDF8A8384E394E0E9DC1E
:10263000BADF8B8384E394E0E4DCB5DF8C8384E34E
:1026400094E0DFDCB0DF8D8384E394E0DADCABDFA1
:10265000825E8E83812F8095881F8827881F01C006
:1026600080E0DF91CF911F910895089580E090E080
:10267000089581E090E0089583E090E0089582E07D
:1026800090E008951F93CF93DF93EC0184E093E0F3
:102690009983888310E02C818A819B81121790F4A2
:1026A000FC01E10FF11DE10FF11D80819181009787
:1026B00039F0DC01ED91FC910280F381E02D199558
:1026C0001F5FE9CF009729F0DF91CF911F910C9404
:1026D0003A27DF91CF911F910895CF93DF93EC01BB
:1026E0008AEF92E099838883CE010C960E94B227EC
:1026F000CE010696DF91CF910C94B227CF93DF9352
:10270000EC018CE093E0998388838A899B89009708
:1027100039F0DC01ED91FC910280F381E02D1995F7
:10272000CE01DF91CF91D9CF2AE233E0FC01318392
:102730002083D3CF20E233E0FC0131832083CDCF4F
:1027400026E133E0FC0131832083C7CFCF93DF93B1
:10275000EC01C3DFCE01DF91CF910C943927CF93E9
:10276000DF93EC018FDFCE01DF91CF910C943927FD
:10277000CF93DF93EC01C2DFCE01DF91CF910C94B8
:102780003927CF93DF93EC01CFDFCE01DF91CF91DB
:102790000C943927CF93DF93EC01CCDFCE01DF918E
:1027A000CF910C943927CF93DF93EC01C9DFCE0191
:1027B000DF91CF910C943927FF920F931F93CF9302
:1027C000DF93EC01CB018A017983688321E02C83BC
:1027D000FF24FA94FA82FB820E94F91D8881998174
:1027E0000E94131D888199810E94FA1D40E060E0DB
:1027F000888199810E94651DB801888199810E9414
:10280000792768EE73E080E090E00E94EA228881F8
:1028100099810E945B1DFD8EDF91CF911F910F91D9
:10282000FF900895EF92FF920F931F93CF93DF9342
:10283000EC017B018F818F5F8F8390E0880F991F60
:102840000E9438278C0160E0462F50E02F8130E055
:10285000215031098D819E814217530774F4440F32
:10286000551FFC01E40FF51F80819181F801E40FF1
:10287000F51F918380836F5FE7CF009711F00E946F
:102880003A271E830D838F81F801E80FF11DE80FB1
:10289000F11D3297F182E082DF91CF911F910F916C
:1028A000FF90EF900895CF92DF92EF92FF920F93F7
:1028B0001F93CF93DF93CDB7DEB72C970FB6F89465
:1028C000DEBF0FBECDBF7C018B0160E573E0CE01A2
:1028D00007960E941928F80180899189009711F4C0
:1028E000C28401C0C82ED12CDC14C1F0BE01695FC6
:1028F0007F4FCE0101960E9443286CE672E0CE0124
:1029000001960E943229BC01CE0107960E942E2812
:10291000CE0101960E94B227D394E6CFF8014581FB
:102920006481F701808191810E94651DBE01695F0C
:102930007F4FF701808191810E947927CE01079610
:102940000E94B2272C960FB6F894DEBF0FBECDBF03
:10295000DF91CF911F910F91FF90EF90DF90CF907B
:102960000895FF920F931F93CF93DF93EC018D8D0A
:102970008F3F31F46EEE72E0888199810E94872743
:10298000F12CEE8DFF8D8481F81690F59281838174
:10299000E92FF82FEF0DF11DEF0DF11D00811181D1
:1029A000F8018381882311F18281811104C0B8016B
:1029B000CE0179DF19C0F80120893189828593859C
:1029C0008217930718F4B801CE016DDFF801458135
:1029D0006481888199810E94651DB8016A5F7F4F7B
:1029E000888199810E947927F8011382F394C9CFD5
:1029F0004B816A8188819981DF91CF911F910F91DD
:102A0000FF900C94651DDF92EF92FF920F931F933E
:102A1000CF93DF93EC017F8F6E8F10E001E0EE8D9E
:102A2000FF8D84811817C0F492818381E92FF82FDC
:102A3000E10FF11DE10FF11D80819181DC01ED912C
:102A4000FC910480F581E02D1995019719F0EE8D28
:102A5000FF8D05831F5FE3CF8C8D8F3F31F0248185
:102A60008881998121111AC01CC05F8180E090E0AB
:102A700040E0851780F4AD81BE819C01220F331F99
:102A8000A20FB31F2D913C912E173F0711F48D8F8C
:102A900041E00196EECF4111E2CF60C025812111C6
:102AA00004C01C820E94FB1D3EC021E02C830E94BA
:102AB000FA1D44E6E42E54E6D52EF12CEE8DFF8D62
:102AC0008481F81670F592818381E92FF82FEF0D3C
:102AD000F11DEF0DF11D00811181D801ED91FC91E7
:102AE0000480F581E02DC80119950197C1F0F80126
:102AF0004581242F30E08E2D992787FD909528174A
:102B0000390731F4248130E08D2D992787FD909588
:102B10002817390724F4D8011496DC90E42EF39496
:102B2000CDCFDA82EB82AE8DBF8D80E021E01496AE
:102B30009C911497891790F412963C9112971396D2
:102B40009C911397E32FF92FE80FF11DE80FF11D6A
:102B50000190F081E02D23838F5FE9CFDF91CF914A
:102B60001F910F91FF90EF90DF900895CF93DF9327
:102B7000EC01888199819FD76E8D7F8DCE01DF9189
:102B8000CF9141CFCF92DF92FF920F931F93CF93BC
:102B9000DF931F921F92CDB7DEB76C01DC019096D8
:102BA0008D919C919197892B09F06DC04FEF6FEF3C
:102BB000F12CD6015E96ED91FC915F978481F81619
:102BC00008F04DC092818381E92FF82FEF0DF11DA0
:102BD000EF0DF11D00811181D801ED91FC91048070
:102BE000F581E02DC80149836A83199549816A817D
:102BF000019799F1F8015581852F90E0D601139640
:102C00002C911397332727FD3095821793076CF08B
:102C10008217930711F5E481F0E012962C91332787
:102C200027FD3095E217F307C4F4242F332727FD3F
:102C30003095281739076CF08217930771F4F80163
:102C4000248130E0862F992787FD9095821793077E
:102C500024F4D80114966C91452FF394AACF6F3FBA
:102C600091F012966C93129713964C9313978D9143
:102C70009C910F900F90DF91CF911F910F91FF903A
:102C8000DF90CF9022C70F900F90DF91CF911F91CF
:102C90000F91FF90DF90CF900895CF92DF92FF9237
:102CA0000F931F93CF93DF931F921F92CDB7DEB781
:102CB0006C01DC0190968D919C919197892B09F084
:102CC0006DC04DE76DE7F12CD6015E96ED91FC915C
:102CD0005F978481F81608F04DC092818381E92FB7
:102CE000F82FEF0DF11DEF0DF11D00811181D801BD
:102CF000ED91FC910480F581E02DC80149836A8340
:102D0000199549816A81019799F1F8015581852FBB
:102D100090E0D60113962C911397332727FD309519
:102D2000281739076CF08217930711F5E481F0E05A
:102D300012962C91332727FD30952E173F07C4F4A8
:102D4000242F332727FD3095821793076CF08217C5
:102D5000930771F4F801248130E0862F992787FDCD
:102D600090952817390724F4D80114966C91452FB3
:102D7000F394AACF6D3791F012966C931297139635
:102D80004C9313978D919C910F900F90DF91CF9161
:102D90001F910F91FF90DF90CF9097C60F900F90EB
:102DA000DF91CF911F910F91FF90DF90CF90089509
:102DB0000F931F93CF93DF93EC01EE8DFF8D8481F2
:102DC0008823E1F185818823C9F18091270581114C
:102DD0000DC00E94BB226093F9047093FA048093A3
:102DE000FB049093FC0481E0809327050E94BB22A2
:102DF0000091F9041091FA042091FB043091FC0435
:102E0000601B710B820B930B653F7140810591052F
:102E1000A8F00E94BB226093F9047093FA04809397
:102E2000FB049093FC042C8188819981211104C0BA
:102E300021E02C83DFD602C01C82DDD688A199A1B7
:102E4000892B09F43EC080911F0581110DC00E949D
:102E5000BB226093F5047093F6048093F70490937B
:102E6000F80481E080931F050E94BB220091F504C5
:102E70001091F6042091F7043091F804601B710B57
:102E8000820B930B693C710581059105D0F00E947E
:102E9000BB226093F5047093F6048093F70490933B
:102EA000F804E8A1F9A181E083839281911102C025
:102EB000828301C01282CE01DF91CF911F910F91C9
:102EC00050CDDF91CF911F910F910895EF92FF9216
:102ED0000F931F93CF93DF93EC01E12CFF24F39426
:102EE000EE8DFF8D8481E81608F069C092818381A0
:102EF000E92FF82FEE0DF11DEE0DF11D008111816E
:102F00002A81332727FD3095D80114968C91149788
:102F100090E02817390709F050C02B81332727FD8F
:102F2000309515968C91159790E02817390709F080
:102F300044C0ED91FC910480F581E02DC801199504
:102F40008230910511F18330910541F1892BA9F56A
:102F500088819981B0D58C8D8F5F8C8FFE01B2E016
:102F60008B02E00DF11D11248E8D9F8D918780873E
:102F7000F80162897389CE0146DDCE01DF91CF91E0
:102F80001F910F91FF90EF90ECCCD8015296ED91EC
:102F9000FC915397309789F019950FC019A308A396
:102FA000F8018689811102C0F68A07C0168AF2826A
:102FB000F382CE01D6DC19A218A2E39491CFDF915F
:102FC000CF911F910F91FF90EF900895CF93DF93D2
:102FD000EC0188A199A1892B79F5888199816BD51C
:102FE0008C8D8F3FC1F48D8D8F5F8D8F2F8130E061
:102FF000992787FD90952817390709F41D8E8D8D27
:10300000880F990BED81FE81E80FF91F60817181B6
:10301000CE01F9DC0DC0FE0192E08902E00DF11D48
:10302000112460857185CE01EEDC8C8D81508C8FF2
:10303000CE01DF91CF9195CCDF91CF910895EF92A2
:10304000FF920F931F93CF93DF93EC017B018C01D1
:103050000A5F1F4FB8010C960E942E28B701C801C5
:103060000E942E2881E08B83DF91CF911F910F91D9
:10307000FF90EF900895FC01648345830895FC015F
:1030800084E093E091838083148215820895EF9207
:10309000FF920F931F93CF93DF93EC017B018C8101
:1030A0008F5F8C8390E0880F991F0E9438278C01D6
:1030B00060E0462F50E02C8130E0215031098A81B8
:1030C0009B814217530774F4440F551FFC01E40F12
:1030D000F51F80819181F801E40FF51F91838083B2
:1030E0006F5FE7CF009711F00E943A271B830A8396
:1030F0008C81F801E80FF11DE80FF11D3297F18284
:10310000E082DF91CF911F910F91FF90EF90089592
:10311000AF92BF92CF92DF92EF92FF920F93CF9335
:10312000DF93CDB7DEB727970FB6F894DEBF0FBE9B
:10313000CDBF7C016B015A018AEF92E0F7019183C8
:10314000808381E08283138260E573E0C701069685
:103150002F830E94192860E573E0C7010C960E9436
:103160001928B701C60193DFB501CE0101960E946F
:103170004328BE016F5F7F4FC70161DFCE0101961B
:103180000E94B2272F81F7012483058327960FB66B
:10319000F894DEBF0FBECDBFDF91CF910F91FF90AE
:1031A000EF90DF90CF90BF90AF900895CF92DF92D5
:1031B000EF92FF920F931F93CF93DF93EC018B015C
:1031C0004C8120E030E0EE24EA94FE2C241780F4B9
:1031D000EA81FB81C901880F991FE80FF91F8081DF
:1031E00091818017910709F479012F5F3F4FEECF4E
:1031F0008FEFE816F80609F444C0442311F041505B
:103200004C838C8190E0880F991F0E9438276C01B5
:1032100070E060E0272F30E04C8150E04217530708
:10322000ACF02E153F0581F0220F331FEA81FB81A0
:10323000E20FF31F20813181F601E60FF11DE60F49
:10324000F11D318320836F5F7F5FE4CF8A819B8193
:10325000009711F00E943A27CA82DB8201151105FE
:1032600081F0D801ED91FC910280F381E02DC8013D
:10327000DF91CF911F910F91FF90EF90DF90CF9052
:103280001994DF91CF911F910F91FF90EF90DF90F4
:10329000CF900895CF92DF92EF92FF920F93CF934A
:1032A000DF93CDB7DEB727970FB6F894DEBF0FBE1A
:1032B000CDBF7C016B01BA01CE0101962F830E9424
:1032C00043282F81AE014F5F5F4FB601C70120DF5A
:1032D000CE0101960E94B2278CE093E0D7018D9336
:1032E0009C9386E090E00E943727FC0186E0DF0196
:1032F0001D928A95E9F7148215828AED92E09183F6
:103300008083D7015396FC93EE93529727960FB67E
:10331000F894DEBF0FBECDBFDF91CF910F91FF902C
:10332000EF90DF90CF900895CF92DF92EF92FF92CF
:103330000F93CF93DF93CDB7DEB727970FB6F894EF
:10334000DEBF0FBECDBF7C016B01BA01CE0101967D
:103350002F830E9443282F81AE014F5F5F4FB6013C
:10336000C701D6DECE0101960E94B22786E193E026
:10337000F7019183808327960FB6F894DEBF0FBEC6
:10338000CDBFDF91CF910F91FF90EF90DF90CF9065
:103390000895FC0163A174A185A196A10895BF922F
:1033A000CF92DF92EF92FF920F931F93CF93DF9311
:1033B000CDB7DEB72C970FB6F894DEBF0FBECDBFEA
:1033C0008C016B0160E573E0CE0107960E9419281D
:1033D000F801238D348D458D568D6789708D818DD3
:1033E000928D0E94AB2B1816A4F17801F6E0EF0E37
:1033F000F11CB701C8010C960E942E28BE01695F1E
:103400007F4FCE0101960E944328B601CE0101965E
:103410000E942129BC01C7010E942E28CE010196DD
:103420000E94B22781E0F8018383CE0107960E94B3
:10343000B2272C960FB6F894DEBF0FBECDBFDF913A
:10344000CF911F910F91FF90EF90DF90CF90BF90A1
:103450000895B12CF8016789708D818D928D0E943D
:10346000C82A4AE0CE0101960E948C28ED80FE8099
:10347000F60184819581E81AF90ACE0101960E942D
:10348000B2278B2D90E08E159F0508F0AECFBE01C0
:10349000695F7F4FCE0101960E94432865E772E085
:1034A000CE0101960E943229BC01CE0107960E94EE
:1034B0002E28CE0101960E94B227B394CBCF4F9213
:1034C0005F926F927F928F929F92AF92BF92CF92B4
:1034D000DF92EF920F93CF93DF93CDB7DEB72B97A9
:1034E0000FB6F894DEBF0FBECDBF6C013B014901A2
:1034F0005A01202F0E2D60E573E0CE0101962B8737
:103500000E9419282B85AE014F5F5F4FB301C601A2
:10351000FFDDCE0101960E94B22780E293E0F60122
:1035200091838083178A108E118E128E138E148EC3
:10353000158E168EC501B4010E94C82A6F83788744
:1035400089879A872F813885B901882777FD8095EB
:10355000982F0E94FB2A9B01AC01C501B4010E9477
:10356000F72920E030E0A9010E945C2A811105C002
:1035700080E090E0A0E8BFE31AC02AE037ED43E224
:103580005CE3C501B4010E94602A0E94C82ACB01F5
:103590006AE070E00E94122C811105C08DEC9CEC59
:1035A000ACECBDE304C08AE097EDA3E2BCE3F60116
:1035B000828B938BA48BB58BF60183A294A2A5A2D8
:1035C000B6A24288538864887588C301B2010E94FC
:1035D000C82A882777FD8095982F0E94FB2A9B0197
:1035E000AC01C301B2010E94F72920E030E0A9013B
:1035F0000E945C2A811108C04AE06F817885CE0163
:1036000001960E948C2807C022E0B501A401CE01DA
:1036100001960E94B628BE016F5F7F4FC601BFDED4
:10362000CE0101960E94B227F601168A10A2178ECB
:1036300012A211A22B960FB6F894DEBF0FBECDBF1B
:10364000DF91CF910F91EF90DF90CF90BF90AF902F
:103650009F908F907F906F905F904F9008958F9282
:103660009F92AF92BF92CF92DF92EF92FF920F9311
:103670001F93CF93DF9300D000D0CDB7DEB78C017E
:10368000DC0152962D913D914D915C915597939609
:103690006D917D918D919C9196970E94F729F801EB
:1036A00063A374A385A396A3838C948CA58CB68CFA
:1036B000A50194010E945C2A87FF14C0D801579687
:1036C000CD90DD90ED90FC905A97A7019601C50131
:1036D000B4010E945C2A87FF05C0F801C3A2D4A2EE
:1036E000E5A2F6A2D80191962D913C9192972115D1
:1036F000310559F093968D919D910D90BC91A02D1F
:10370000F90180839183A283B383D8015F96ED9101
:10371000FC919097309709F01995F801C288D388E9
:10372000E488F588C701B6010E94C82A882777FD7A
:103730008095982F0E94FB2A9B01AC01C701B6011E
:103740000E94F72920E030E0A9010E945C2A811143
:103750000FC0D80193966D917D918D919C91969714
:103760000E94C82A4AE0CE0101960E948C280AC015
:10377000F80143A154A165A176A122E0CE010196F2
:103780000E94B628BE016F5F7F4FC80108DECE01E0
:1037900001960E94B22726960FB6F894DEBF0FBEA0
:1037A000CDBFDF91CF911F910F91FF90EF90DF90F0
:1037B000CF90BF90AF909F908F900895CF93DF935D
:1037C000EC0188A199A1009729F049DFCE01DF9192
:1037D000CF91C7C8DF91CF9108958F929F92AF92FA
:1037E000BF92CF92DF92EF92FF920F931F93CF93EE
:1037F000DF9300D000D0CDB7DEB78C01DC0152964C
:103800002D913D914D915C91559793966D917D9140
:103810008D919C9196970E94F829F80163A374A357
:1038200085A396A38788908CA18CB28CA501940166
:103830000E94AB2B1816A4F4D8015B96CD90DD90B6
:10384000ED90FC905E97A5019401C701B6010E941E
:103850005C2A87FF05C0F801C3A2D4A2E5A2F6A2A4
:10386000D80191962D913C9192972115310559F0EF
:1038700093968D919D910D90BC91A02DF90180831F
:103880009183A283B383D8015F96ED91FC919097C9
:10389000309709F01995F801C288D388E488F58833
:1038A000C701B6010E94C82A882777FD8095982F06
:1038B0000E94FB2A9B01AC01C701B6010E94F729B7
:1038C00020E030E0A9010E945C2A81110FC0D801DC
:1038D00093966D917D918D919C9196970E94C82AA7
:1038E0004AE0CE0101960E948C280AC0F80143A14B
:1038F00054A165A176A122E0CE0101960E94B628CE
:10390000BE016F5F7F4FC8014ADDCE0101960E9464
:10391000B22726960FB6F894DEBF0FBECDBFDF915B
:10392000CF911F910F91FF90EF90DF90CF90BF90BC
:10393000AF909F908F900895CF93DF93EC0188A173
:1039400099A1009729F049DFCE01DF91CF9109C8F5
:10395000DF91CF910895CF92DF92EF92FF920F9374
:10396000CF93DF93CDB7DEB727970FB6F894DEBFBE
:103970000FBECDBF7C016B01BA01CE0101962F8332
:103980000E9443282F81AE014F5F5F4FB601C701F0
:10399000BFDBCE0101960E94B2278AE293E0F701D5
:1039A00091838083138A128A27960FB6F894DEBF1C
:1039B0000FBECDBFDF91CF910F91FF90EF90DF90C1
:1039C000CF900895109204058FEF8093190580938E
:1039D0001A050895FC011382128284E393E0918317
:1039E0008083648341872287138608951F93CF9332
:1039F000DF93EC01162F6C8184E394E00E94A51004
:103A0000E0913404F09135046B85612B0190F081D5
:103A1000E02D84E394E0199584E394E0DF91CF9165
:103A20001F910C94C21028E0FC01238760E0DECFD8
:103A30001F93CF93DF93EC01162F6460D7DF81E0F3
:103A400090E0EDD5612F6B7FCE01D0DF82E390E077
:103A5000DF91CF911F91E3C51F93CF93DF93EC01CB
:103A6000162FC4DF612FCE01DF91CF911F91E0CFE0
:103A7000EF92FF921F93CF93DF931F92CDB7DEB7E4
:103A80007C01162F607F642B4983E6DF80E1189F5D
:103A9000B00111244981642BC7010F90DF91CF91B0
:103AA0001F91FF90EF90D8CF41E0E2DF81E090E0FE
:103AB000089540E0DDCF61E0FCDF80ED97E0AFC529
:103AC00062E0F7DF80ED97E0AAC5CF93DF93CDB733
:103AD000DEB728970FB6F894DEBF0FBECDBF28E043
:103AE000ECE0F2E0DE01119601900D922A95E1F7EB
:103AF000FC012085241710F44FEF420FFE01319690
:103B0000E40FF11DE40FF11D2081260F2068622FC4
:103B100028960FB6F894DEBF0FBECDBFDF91CF91D0
:103B2000C8CFFC016681262F246026836C60C1CF3C
:103B3000FC0166816D7F66836860BBCFFC01668196
:103B4000262F226026836A60B4CFCF93DF93EC01E7
:103B5000423018F08D8188608D834887222329F0B8
:103B6000413019F48D8184608D8362E370E080E0E0
:103B700090E030D56B85CE0139DF68EE73E080E0F0
:103B800090E028D560E3CE0167DF84E991E147D575
:103B900060E3CE0161DF84E991E141D560E3CE01CC
:103BA0005BDF86E990E03BD560E2CE0155DF6D81B9
:103BB0006062CE017EDF84E08E83CE01B2DFCE0173
:103BC0007ADF82E08F8366E0CE0173DFCE01DF9182
:103BD000CF9176CFCF93DF93EC0184E394E00E9402
:103BE0008E101D8220E04A856985CE01DF91CF913C
:103BF000ACCFF0CFA3CF9CCFEF92FF920F931F9348
:103C0000CF93DF9300D000D0CDB7DEB78C01FC019D
:103C10001382128216827C01F8E0EF0EF11C60E53F
:103C200073E0C7010E9419288BE495E0F8019183A5
:103C3000808326E040E855E260E070E055D764E616
:103C400070E0C7010E94E02760E573E0CE010196B5
:103C50000E941928F801168215821482CE0101965D
:103C60000E94B22726960FB6F894DEBF0FBECDBFD6
:103C7000DF91CF911F910F91FF90EF900895AF9238
:103C8000BF92CF92DF92EF92FF920F931F93CF9349
:103C9000DF9300D000D0CDB7DEB78C016B015A01A5
:103CA000FC011382128216827C01F8E0EF0EF11CF7
:103CB00060E573E0C7010E941928F801D182C08233
:103CC000A50160E070E026E0C6010ED764E670E072
:103CD000C7010E94E02760E573E0CE0101960E94D3
:103CE0001928F801168215821482CE0101960E94CD
:103CF000B22726960FB6F894DEBF0FBECDBFDF9178
:103D0000CF911F910F91FF90EF90DF90CF90BF90D8
:103D1000AF9008950F931F93CF93DF938C01FC0115
:103D2000848195810097D9F0FC01329720813181FF
:103D30004AE0429FE001439FD00D1124C80FD91FD4
:103D4000CE01F801248135812A978217930721F04B
:103D5000CE010E94B227F4CF02970E943A27C801F1
:103D60000896DF91CF911F910F910C94B227FB0120
:103D7000DC0113967C936E93129760E070E026E06E
:103D8000CF01B2C6AF92BF92CF92DF92EF92FF9275
:103D90000F931F93CF93DF93CDB7DEB72C970FB65A
:103DA000F894DEBF0FBECDBF8C017C0188E0E80E29
:103DB000F11CF80180819181DC01ED91FC9104807E
:103DC000F581E02D1995892B01F1D8018D919C91F8
:103DD000DC01ED91FC910680F781E02D1995D82E3C
:103DE000F80182819381009719F06D2D0E94882738
:103DF000FAE0DF1205C081E0D80117968C9305C068
:103E00006D2DC7010E940E29D4CFF8018781882328
:103E100009F46DC068E373E0CE0107960E9419288B
:103E2000B12CC80108967C01D80116968C91B81661
:103E300008F052C09AE0B99E60011124D80114968E
:103E4000ED91FC911597EC0DFD1D2481358140E02D
:103E500050E0B701CE0101960E94A929F8018481A2
:103E60009581BE016F5F7F4F8C0D9D1D0E9479294A
:103E7000A82ECE0101960E94B227AA2059F1D8019E
:103E80001496ED91FC911597EC0DFD1DC084D18425
:103E9000C114D104D9F01C962D913C911D974481F9
:103EA00055814F5F5F4FB701CE0101960E94A9294E
:103EB000CE0101960E94EC29F60160837183828312
:103EC0009383CE0101960E94B22704C00680F78139
:103ED000E02D1995B394A8CF60E573E0C7010E9467
:103EE0004B28F8011782CE0107960E94B2272C9624
:103EF0000FB6F894DEBF0FBECDBFDF91CF911F91FB
:103F00000F91FF90EF90DF90CF90BF90AF9008950A
:103F1000AF92BF92CF92DF92EF92FF920F931F93D7
:103F2000CF93DF93EC017B01D42E89819A81009796
:103F300009F0A0D78D819E81009709F09BD78F81D2
:103F40009885009709F096D78B819C81009709F09E
:103F500091D7D8820D2D10E023E0D29EC00111240C
:103F600087D7FC0120E030E02F5F3F4FA801421BC4
:103F7000530B4F3F5F4F21F0128211823396F4CFE3
:103F800089839A83C801880F991F72D79E838D8376
:103F9000C8016ED798878F83C801880F991F880F33
:103FA000991F66D79C838B83B12C68EEC62E63E085
:103FB000D62EAA24A3948881B81690F50B2D10E074
:103FC00023E0B29EC0011124F701E00FF11F208110
:103FD000E981FA81E80FF91F2083E981FA81E80F6E
:103FE000F91F62E08081DCD3C801880F991FED8141
:103FF000FE81E80FF91FD182C082EF81F885E00FC2
:10400000F11FA082000F111F000F111FEB81FC8117
:10401000E00FF11F1082118212821382B394CBCF72
:10402000DF91CF911F910F91FF90EF90DF90CF9094
:10403000BF90AF900895862F21D421E0892B09F0FD
:1040400020E0822F08957F928F929F92AF92BF922D
:10405000CF92DF92EF92FF920F931F93CF93DF9354
:10406000EC01288180E090E000E0021709F443C0F1
:10407000E981FA81E80FF91F30810396361711F0B4
:104080000F5FF3CFCE01D7DF10E0882309F454C0CF
:1040900072D27801EE0CFF1CEE0CFF1CED81FE814C
:1040A0009801220F331FE20FF31FAB81BC81AE0DCD
:1040B000BF1D8D909D90AD90BC90681979098A09BB
:1040C0009B0980809180A12CB12C2F813885861688
:1040D0009706A806B90648F481E0D901A00FB11FE0
:1040E0008C9384E690E091838083F901E00FF11FC7
:1040F0007080711002C0712C3FC03DD2CB80DC803B
:10410000CE0CDF1CF60180809180A280B3806819FC
:1041100079098A099B09643171058105910558F374
:104120002AD2F6016083718382839383EF81F885BD
:10413000E00FF11F108220C0C801880F991F880F5F
:10414000991FEB80FC80E80EF91E15D2F701608301
:10415000718382839383EF81F885E00FF11F81E003
:104160008083000F111FED81FE81E00FF11F88EEAB
:1041700093E091838083BFCF872DDF91CF911F91F3
:104180000F91FF90EF90DF90CF90BF90AF909F90F6
:104190008F907F900895CF93DF93FC01F894109255
:1041A000B000A1EBB0E01C92C0E7D0E018828C9187
:1041B00084608C938C918C7F8C9387E08093B20089
:1041C00081E08883128214821382168215821086FF
:1041D00017821186DF91CF910895AF92BF92CF924F
:1041E000DF92EF92FF920F931F93CF93DF93EC0137
:1041F0006B018A018A818F5F8A83A82EB12C27E008
:10420000829FC001112434D67C01DC0180E090E063
:1042100041E001969501281B390B2F3F3F4F81F05C
:1042200011961C921E9213961C921E92129715962E
:104230001C921E92149716964C9316971796E9CFD8
:1042400060E077E0462F50E02A8130E021503109CC
:10425000888199814217530784F427E0629FF00117
:104260001124D701AE0FBF1FE80FF91F872F019050
:104270000D928A95E1F76F5FE5CF009709F0FAD5C7
:10428000F982E8828A81F70157E0859FE00DF11DF0
:1042900011243797D182C08213830283158304834C
:1042A00081E086838F819885009719F00817190798
:1042B00010F418870F83DF91CF911F910F91FF901A
:1042C000EF90DF90CF90BF90AF900895BF92CF92C4
:1042D000DF92EF92FF920F931F93CF93DF93F12C16
:1042E00027E0E22E4F2D50E0FC01228130E02150EA
:1042F000310942175307CCF5F7E0FF9EA0011124C6
:10430000DD24D394FC012281D21668F5FC01C08122
:10431000D181DE01A40FB51F12962D913C91139708
:10432000F7E0DF9EC00DD11D11246A817B816217E9
:104330007307B8F40D911C91119714966D917C91AF
:1043400015971696CC901697FE01BE2C01900D92F3
:10435000BA94E1F7198308833B832A837D836C83B6
:10436000CE82D394CFCFF394BDCFDF91CF911F9165
:104370000F91FF90EF90DF90CF90BF900895A6DF50
:1043800078940895CF93DF93EC018A81882309F410
:1043900068C08D819E8101969E838D832F81388593
:1043A0008217930708F45DC01E821D828985E8810B
:1043B000F98127E0829FE00DF11D11248681882379
:1043C00021F00190F081E02D199540E02A8188814B
:1043D0009981421798F4FC0137E0439FE00DF11DED
:1043E00011248681882341F0848195812F8138852D
:1043F000821B930B958384834F5FE8CF2985FC0153
:1044000037E0239FE00DF11D112422813381358394
:10441000248319867A81FC0161E06717B8F4258549
:10442000222389F02985DC0137E0239FA00DB11DEF
:1044300011244385548514962D913C91159742176C
:10444000530708F469876F5F3796E7CF2985FC012A
:1044500037E0239FE00DF11D112484819581988719
:104460008F83DF91CF9108951F920F920FB60F9215
:1044700011240BB60F922F933F934F935F936F933B
:104480007F938F939F93AF93BF93EF93FF9386E0B8
:104490008093B20088E395E075DFFF91EF91BF91C3
:1044A000AF919F918F917F916F915F914F913F91CC
:1044B0002F910F900BBE0F900FBE0F901F9018956D
:1044C00010923A0510923C0510923B0510923E0561
:1044D00010923D051092400510923F051092410543
:1044E00008951F920F920FB60F9211242F933F93AE
:1044F0008F939F93AF93BF93809143059091440511
:10450000A0914505B09146053091420523E0230F67
:104510002D3720F40196A11DB11D05C026E8230FFB
:104520000296A11DB11D20934205809343059093EF
:104530004405A0934505B0934605809147059091A9
:104540004805A0914905B0914A050196A11DB11DEC
:104550008093470590934805A0934905B0934A0579
:10456000BF91AF919F918F913F912F910F900FBE6F
:104570000F901F9018952FB7F89460914305709194
:10458000440580914505909146052FBF08953FB79A
:10459000F8948091470590914805A0914905B09104
:1045A0004A0526B5A89B05C02F3F19F00196A11D0D
:1045B000B11D3FBF6627782F892F9A2F620F711D7B
:1045C000811D911D42E0660F771F881F991F4A9534
:1045D000D1F70895CF92DF92EF92FF92CF93DF93BE
:1045E0006B017C01D4DFEB01C114D104E104F104BF
:1045F00079F0FCD6CCDF6C1B7D0B683E7340A0F3DA
:1046000081E0C81AD108E108F108C851DC4FECCFAD
:10461000DF91CF91FF90EF90DF90CF90089582309F
:10462000910538F0880F991F880F991F05970197FA
:10463000F1F70895789484B5826084BD84B5816073
:1046400084BD85B5826085BD85B5816085BDEEE69A
:10465000F0E0808181608083E1E8F0E01082808179
:1046600082608083808181608083E0E8F0E08081E7
:1046700081608083E1EBF0E0808184608083E0EB07
:10468000F0E0808181608083E1E9F0E080818260F8
:104690008083808181608083E0E9F0E080818160B7
:1046A0008083E1EAF0E080818260808380818160A4
:1046B0008083E0EAF0E0808181608083E1E2F1E0E4
:1046C000808182608083808181608083E0E2F1E08C
:1046D000808181608083EAE7F0E08081846080836C
:1046E0008081826080838081816080838081806816
:1046F00080831092C100089590E0FC013197E2316F
:10470000F10508F04CC0EE58FF4F0C94472C8091F7
:1047100080008F7703C0809180008F7D8093800020
:10472000089580918000877FF9CF84B58F7702C08C
:1047300084B58F7D84BD08958091B0008F7703C0CC
:104740008091B0008F7D8093B0000895809190009B
:104750008F7707C0809190008F7D03C0809190007B
:10476000877F8093900008958091A0008F7707C085
:104770008091A0008F7D03C08091A000877F8093EF
:10478000A0000895809120018F7707C080912001BB
:104790008F7D03C080912001877F80932001089541
:1047A000CF93DF9390E0FC01E25BFE4F2491FC018C
:1047B000EC56FE4F8491882349F190E0880F991FB1
:1047C000FC01E25FFD4FA591B4918C509E4FFC011E
:1047D000C591D4919FB7611108C0F8948C91209530
:1047E00082238C93888182230AC0623051F4F8942A
:1047F0008C91322F309583238C938881822B8883F0
:1048000004C0F8948C91822B8C939FBFDF91CF9141
:1048100008950F931F93CF93DF931F92CDB7DEB709
:10482000282F30E0F901E85FFE4F8491F901E25B47
:10483000FE4F1491F901EC56FE4F04910023C1F094
:10484000882319F0698358DF6981E02FF0E0EE0FCB
:10485000FF1FEC50FE4FA591B4919FB7F8948C9137
:10486000611103C01095812301C0812B8C939FBFE0
:104870000F90DF91CF911F910F910895CF93DF9308
:10488000282F30E0F901E85FFE4F8491F901E25BE7
:10489000FE4FD491F901EC56FE4FC491CC2389F020
:1048A00081112ADFEC2FF0E0EE0FFF1FE652FE4FE2
:1048B000A591B4912C912D2381E090E021F480E02A
:1048C00002C080E090E0DF91CF910895FC01818DDE
:1048D000228D90E0805C9F4F821B91098F739927F6
:1048E0000895FC01918D828D981731F0828DE80F2B
:1048F000F11D858D90E008958FEF9FEF0895FC01E5
:10490000918D828D981761F0828DDF01A80FB11D06
:104910005D968C91928D9F5F9F73928F90E008952A
:104920008FEF9FEF089583E396E2892B39F080E0C3
:1049300090E0892B19F097D1811124C08EED96E279
:10494000892B39F080E090E0892B19F037D2811162
:104950001CC080E090E0892B41F080E090E0892B42
:1049600021F00E940000811113C080E090E0892BAB
:10497000A1F080E090E0892B81F00E94000081117D
:104980000AC008950E940000D9CF0E940000E1CF24
:104990000E940000EACF0C9400000895FC01848D71
:1049A000DF01A80FB11DA35ABF4F2C91848D90E059
:1049B00001968F739927848FA689B7892C93A08934
:1049C000B1898C9180648C93938D848D981306C0EB
:1049D0000288F389E02D80818F7D80830895CF93B5
:1049E000DF93EC01888D8823C1F0EA89FB898081FF
:1049F00085FD05C0A889B9898C9186FD0EC00FB6CA
:104A000007FCF5CF808185FFF2CFA889B9898C9109
:104A100085FFEDCFCE01C2DFE8CFDF91CF910895C2
:104A2000CF92DF92FF920F931F93CF93DF931F924A
:104A3000CDB7DEB76C0181E0D60158968C935897BC
:104A40005B969C915B975C968C915C97981307C0E2
:104A50005096ED91FC915197808185FD2DC0F60116
:104A6000038D10E00F5F1F4F0F731127F02EF6011B
:104A7000848DF81210C00FB607FCF9CFD6015096FE
:104A8000ED91FC915197808185FFF1CFC60169833B
:104A900085DF6981ECCF838DE80FF11DE35AFF4F6D
:104AA0006083D6015B960C935B975296ED91FC91D7
:104AB0005397808180620CC0D6015696ED91FC918F
:104AC000579760835096ED91FC9151978081806457
:104AD000808381E090E00F90DF91CF911F910F9143
:104AE000FF90DF90CF900895BF92CF92DF92EF9228
:104AF000FF92CF93DF93EC016A017B01B22EE8892C
:104B0000F98982E08083411581EE580761057105BE
:104B100099F060E079E08DE390E0A701960195D6E9
:104B200021503109410951095695479537952795E7
:104B3000211580E1380790F0E889F989108260E852
:104B400074E88EE190E0A70196017FD621503109EB
:104B5000410951095695479537952795EC85FD856F
:104B60003083EE85FF852083188EEC89FD89B08225
:104B7000EA89FB89808180618083EA89FB89808161
:104B800088608083EA89FB89808180688083EA89E4
:104B9000FB8980818F7D8083DF91CF91FF90EF90A3
:104BA000DF90CF90BF9008951F920F920FB60F9293
:104BB00011240BB60F922F938F939F93EF93FF9334
:104BC000E0915B05F0915C058081E0916105F091D9
:104BD000620582FD12C09081809164058F5F8F73A2
:104BE00020916505821751F0E0916405F0E0E55BE6
:104BF000FA4F958F8093640501C08081FF91EF91FA
:104C00009F918F912F910F900BBE0F900FBE0F9021
:104C10001F9018951F920F920FB60F9211240BB68A
:104C20000F922F933F934F935F936F937F938F9345
:104C30009F93AF93BF93EF93FF938BE495E0AEDE2A
:104C4000FF91EF91BF91AF919F918F917F916F9164
:104C50005F914F913F912F910F900BBE0F900FBE20
:104C60000F901F9018958BE495E030DE21E0892BA2
:104C700009F420E0822F089510924E0510924D0500
:104C800088EE93E0A0E0B0E080934F05909350054C
:104C9000A0935105B093520582E493E090934C05A4
:104CA00080934B0585EC90E09093580580935705D1
:104CB00084EC90E090935A058093590580EC90E045
:104CC00090935C0580935B0581EC90E090935E058A
:104CD00080935D0582EC90E09093600580935F0582
:104CE00086EC90E0909362058093610510926405D4
:104CF00010926505109266051092670508951F923F
:104D00000F920FB60F9211240BB60F922F938F9321
:104D10009F93EF93FF93E091F805F091F90580815F
:104D2000E091FE05F091FF0582FD12C09081809117
:104D300001068F5F8F7320910206821751F0E09178
:104D40000106F0E0E851FA4F958F8093010601C00B
:104D50008081FF91EF919F918F912F910F900BBECA
:104D60000F900FBE0F901F9018951F920F920FB6C5
:104D70000F9211240BB60F922F933F934F935F9393
:104D80006F937F938F939F93AF93BF93EF93FF9313
:104D900088EE95E003DEFF91EF91BF91AF919F9177
:104DA0008F917F916F915F914F913F912F910F90D4
:104DB0000BBE0F900FBE0F901F90189588EE95E0D8
:104DC00085DD21E0892B09F420E0822F08951092DF
:104DD000EB051092EA0588EE93E0A0E0B0E0809346
:104DE000EC059093ED05A093EE05B093EF0582E4FA
:104DF00093E09093E9058093E8058DEC90E0909323
:104E0000F5058093F4058CEC90E09093F705809382
:104E1000F60588EC90E09093F9058093F80589EC0D
:104E200090E09093FB058093FA058AEC90E09093D4
:104E3000FD058093FC058EEC90E09093FF05809338
:104E4000FE051092010610920206109203061092BF
:104E5000040608950895EEDBFDDF0E941707C3E9FD
:104E6000D4E20E94BA0F2097E1F35DDDFACF66C568
:104E700065C5FCC5FBC5CF92DF92EF92FF920F9301
:104E80001F93CF93DF936C017A01EB01E60EF71EBF
:104E900000E010E0CE15DF0561F06991D601ED91DB
:104EA000FC910190F081E02DC6011995080F191FA2
:104EB000F1CFC801DF91CF911F910F91FF90EF903B
:104EC000DF90CF9008956115710581F0DB010D90A1
:104ED0000020E9F7AD0141505109461B570BDC0199
:104EE000ED91FC910280F381E02D199480E090E037
:104EF0000895DC01ED91FC91DB0114964D915C91DC
:104F000015976D917C910280F381E02D1994DBCF90
:104F1000DC01ED91FC910190F081E02D19946EE49B
:104F200073E0D1CF0F931F93CF93DF93EC01E1DFB9
:104F30008C01CE01F4DF800F911FDF91CF911F9183
:104F40000F9108950F931F93CF93DF93EC01BBDF75
:104F50008C01CE01E4DF800F911FDF91CF911F9173
:104F60000F910895FC018081918180C5CF93DF93DB
:104F7000EC0188819981009709F078D5198218820F
:104F80001D821C821B821A82DF91CF9108950F939C
:104F90001F93CF93DF93EC018B016F5F7F4F88816D
:104FA0009981F3D5009731F0998388831B830A8315
:104FB00081E001C080E0DF91CF911F910F910895B2
:104FC000CF93DF93EC0188819981892B29F08A8125
:104FD0009B818617970758F4CE01D9DF882341F0CB
:104FE0008C819D81892B19F4E881F981108281E0FF
:104FF000DF91CF910895EF92FF920F931F93CF937C
:10500000DF93EC017B018A01BA01DADF811103C071
:10501000CE01ACDF06C01D830C83B7018881998166
:10502000B5D6CE01DF91CF911F910F91FF90EF90F8
:105030000895FC011182108213821282158214825B
:105040006115710551F0FB0101900020E9F7AF01F6
:1050500041505109461B570BCECF0895CF93DF9394
:10506000EC01FB018617970751F060817181611592
:10507000710521F044815581BEDF01C077DFCE018B
:10508000DF91CF910895FC01118210821382128268
:1050900015821482E3CFCF93DF93EC016115710584
:1050A00059F0FB0101900020E9F7AF01415051098F
:1050B000461B570BA0DF01C059DFCE01DF91CF9116
:1050C00008950F931F93CF93DF93CDB7DEB7299742
:1050D0000FB6F894DEBF0FBECDBF8C01862FF8014E
:1050E00011821082138212821582148250E0BE0156
:1050F0006F5F7F4F90E065D6BE016F5F7F4FC80145
:10510000CADF29960FB6F894DEBF0FBECDBFDF9180
:10511000CF911F910F9108950F931F93CF93DF931A
:10512000CDB7DEB762970FB6F894DEBF0FBECDBF26
:105130008C01CB01F8011182108213821282158238
:10514000148250E0BE016F5F7F4F27D6BE016F5FB4
:105150007F4FC801A0DF62960FB6F894DEBF0FBE86
:10516000CDBFDF91CF911F910F910895EF92FF92E4
:105170000F931F93CF93DF93CDB7DEB7A1970FB6F1
:10518000F894DEBF0FBECDBF7C01CB01BA01F701A1
:1051900011821082138212821582148242E0420F21
:1051A0008E010F5F1F4FAAD3BC01C70174DFA19608
:1051B0000FB6F894DEBF0FBECDBFDF91CF911F9128
:1051C0000F91FF90EF900895EF92FF920F931F932E
:1051D000CF93DF93EC017B010C811D81611571057B
:1051E00011F480E014C04115510581F0040F151F22
:1051F000B801E6DE8823A9F3288139818C819D815D
:10520000B701820F931FC2D51D830C8381E0DF910C
:10521000CF911F910F91FF90EF900895CF93DF935F
:105220001F921F92CDB7DEB769831A8241E050E02A
:10523000BE016F5F7F4FC8DF0F900F90DF91CF915E
:105240000895CF93DF93EC01FB0144815581608188
:105250007181BADF811102C0CE0188DECE01DF91FB
:10526000CF910895CF93DF93EC016115710561F043
:10527000FB0101900020E9F7AF0141505109461BA5
:10528000570BA2DF811102C0CE0170DECE01DF918B
:10529000CF910895CF93DF93DC01ED91FC91EB0169
:1052A000A881B981309711F01097C9F4109759F07F
:1052B000EB012C813D81232B31F08C9190E0919575
:1052C0008195910913C0309779F0DC0114968D9186
:1052D0009C911597892B41F0808190E007C0BD011A
:1052E000CF01DF91CF9149C580E090E0DF91CF9170
:1052F0000895FC0144815581FB01248135814217C9
:10530000530739F4C7DF21E0892B09F020E0822F11
:10531000089580E00895FC0124813581232B31F428
:1053200021E06115710599F0FB0108C0FC01808145
:1053300091816115710531F421E0FC0180818823A0
:1053400031F004C01AD521E0892B09F020E0822F2A
:105350000895BF92CF92DF92EF92FF920F931F9327
:10536000CF93DF936C017B01EA0189012417350794
:1053700020F48D2FE901042F182F60E573E0C6019A
:1053800058DED70114968D919C911597C817D907AF
:10539000C0F48017910708F48C01D701ED91FC91BE
:1053A0001197E00FF11FB08010826D917C916C0F0E
:1053B0007D1FC60170DED701ED91FC91E00FF11F5A
:1053C000B082C601DF91CF911F910F91FF90EF90B6
:1053D000DF90CF90BF900895FC018081918100976C
:1053E00009F0B7C460E070E0CB010895089550580B
:1053F000BB27AA270ED075C166D130F06BD120F043
:1054000031F49F3F11F41EF45BC10EF4E095E7FB0D
:1054100051C1E92F77D180F3BA1762077307840768
:10542000950718F071F49EF58FC10EF4E0950B2EE0
:10543000BA2FA02D0B01B90190010C01CA01A001E6
:105440001124FF27591B99F0593F50F4503E68F141
:105450001A16F040A22F232F342F4427585FF3CF82
:10546000469537952795A795F0405395C9F77EF453
:105470001F16BA0B620B730B840BBAF09150A1F09C
:10548000FF0FBB1F661F771F881FC2F70EC0BA0F22
:10549000621F731F841F48F4879577956795B795AA
:1054A000F7959E3F08F0B3CF9395880F08F09927A2
:1054B000EE0F979587950895D9D008F481E0089567
:1054C0000CD00FC107D140F0FED030F021F45F3F87
:1054D00019F0F0C0511139C1F3C014D198F39923D8
:1054E000C9F35523B1F3951B550BBB27AA276217A8
:1054F0007307840738F09F5F5F4F220F331F441FED
:10550000AA1FA9F333D00E2E3AF0E0E830D0915024
:105510005040E695001CCAF729D0FE2F27D0660F11
:10552000771F881FBB1F261737074807AB07B0E850
:1055300009F0BB0B802DBF01FF2793585F4F2AF066
:105540009E3F510568F0B6C000C15F3FECF3983E46
:10555000DCF3869577956795B795F7959F5FC9F7C3
:10556000880F911D9695879597F90895E1E0660F4C
:10557000771F881FBB1F621773078407BA0720F0C5
:10558000621B730B840BBA0BEE1F88F7E09508952E
:1055900004D06894B111D9C00895BCD088F09F5749
:1055A00090F0B92F9927B751A0F0D1F0660F771F6F
:1055B000881F991F1AF0BA95C9F712C0B13081F04F
:1055C000C3D0B1E00895C0C0672F782F8827B85F97
:1055D00039F0B93FCCF3869577956795B395D9F7B0
:1055E0003EF490958095709561957F4F8F4F9F4FBA
:1055F0000895E89409C097FB3EF4909580957095C6
:1056000061957F4F8F4F9F4F9923A9F0F92F96E90E
:10561000BB279395F695879577956795B795F11183
:10562000F8CFFAF4BB0F11F460FF1BC06F5F7F4F20
:105630008F4F9F4F16C0882311F096E911C0772332
:1056400021F09EE8872F762F05C0662371F096E83B
:10565000862F70E060E02AF09A95660F771F881F0A
:10566000DAF7880F9695879597F90895990F0008AE
:10567000550FAA0BE0E8FEEF16161706E807F90724
:10568000C0F012161306E407F50798F0621B730BBF
:10569000840B950B39F40A2661F0232B242B252B40
:1056A00021F408950A2609F4A140A6958FEF811DE3
:1056B000811D089597F99F6780E870E060E0089584
:1056C0009FEF80EC089500240A941616170618061A
:1056D0000906089500240A941216130614060506F6
:1056E0000895092E0394000C11F4882352F0BB0F87
:1056F00040F4BF2B11F460FF04C06F5F7F4F8F4FEA
:105700009F4F089557FD9058440F551F59F05F3F24
:1057100071F04795880F97FB991F61F09F3F79F0D3
:1057200087950895121613061406551FF2CF469555
:10573000F1DF08C0161617061806991FF1CF8695D7
:105740007105610508940895E894BB2766277727BB
:10575000CB0197F908958ADF08F48FEF08950BD0F5
:10576000C0CFB1DF28F0B6DF18F0952309F0A2CF43
:10577000A7CF1124EACFC6DFA0F3959FD1F3950FF1
:1057800050E0551F629FF001729FBB27F00DB11DC5
:10579000639FAA27F00DB11DAA1F649F6627B00D55
:1057A000A11D661F829F2227B00DA11D621F739F3E
:1057B000B00DA11D621F839FA00D611D221F749F4C
:1057C0003327A00D611D231F849F600D211D822F93
:1057D000762F6A2F11249F5750408AF0E1F08823DA
:1057E0004AF0EE0FFF1FBB1F661F771F881F9150E7
:1057F0005040A9F79E3F510570F05CCFA6CF5F3FA8
:10580000ECF3983EDCF3869577956795B795F79519
:10581000E7959F5FC1F7FE2B880F911D96958795A1
:1058200097F9089597FB072E16F4009406D077FD9C
:1058300008D050D007FC05D03EF4909581959F4F3D
:105840000895709561957F4F0895A1E21A2EAA1BC5
:10585000BB1BFD010DC0AA1FBB1FEE1FFF1FA21720
:10586000B307E407F50720F0A21BB30BE40BF50B1D
:10587000661F771F881F991F1A9469F760957095A6
:10588000809590959B01AC01BD01CF010895EE0F6D
:10589000FF1F0590F491E02D1994A29FB001B39FD2
:1058A000C001A39F700D811D1124911DB29F700D29
:1058B000811D1124911D0895F0DFA59F900DB49FC7
:1058C000900DA49F800D911D112408950790F691CD
:1058D000E02D1994AA1BBB1B51E107C0AA1FBB1FD7
:1058E000A617B70710F0A61BB70B881F991F5A956C
:1058F000A9F780959095BC01CD010895EF920F9383
:105900001F93CF93DF93E80147FF02C034E101C04A
:1059100034E0E42FFF27E7FDF095F7FF03C0F19592
:10592000E195F109E32E022F2E2FAE016DD2CE01AB
:10593000DF91CF911F910F91EF900895CF93DF9357
:105940008230910510F482E090E0E0918706F091BA
:10595000880620E030E0A0E0B0E0309739F14081E7
:10596000518148175907B8F04817590771F48281D7
:105970009381109729F013969C938E9312972CC0C5
:10598000909388068093870627C02115310531F052
:105990004217530718F0A901DB0101C0EF019A017A
:1059A000BD01DF010280F381E02DD7CF2115310544
:1059B000F9F0281B390B2430310580F48A819B8152
:1059C0006115710521F0FB019383828304C09093DC
:1059D000880680938706FE01329644C0FE01E20FDE
:1059E000F31F8193919322503109398328833AC060
:1059F0002091850630918606232B41F420910202E6
:105A00003091030230938606209385062091000290
:105A1000309101022115310541F42DB73EB7409177
:105A2000040250910502241B350BE0918506F0918C
:105A30008606E217F307A0F42E1B3F0B2817390741
:105A400078F0AC014E5F5F4F2417350748F04E0FDA
:105A50005F1F50938606409385068193919302C001
:105A6000E0E0F0E0CF01DF91CF910895CF93DF9395
:105A7000009709F487C0FC01329713821282C0910B
:105A80008706D0918806209781F420813181280FE4
:105A9000391F80918506909186068217930779F5C4
:105AA000F0938606E09385066DC0DE0120E030E0CD
:105AB000AE17BF0750F412964D915C9113979D015C
:105AC0004115510509F1DA01F3CFB383A283408177
:105AD0005181840F951F8A179B0771F48D919C91BA
