:1000000014C1000043C1000041C100003FC1000015
:100010003DC100003BC1000039C1000037C10000F4
:1000200035C1000033C1000031C100002FC1000004
:100030002DC100002BC1000029C1000027C1000014
:1000400025C1000023C1000021C100001FC1000024
:1000500087C600001BC1000019C1000037C60000A0
:1000600015C1000063C5000038C500000FC10000C5
:100070000DC100000BC1000009C1000007C1000054
:1000800005C1000003C1000001C10000FFC0000065
:10009000FDC00000FBC00000F9C000000C94E208A5
:1000A000F5C00000F3C00000F1C00000EFC0000088
:1000B000EDC00000EBC00000E9C00000E7C0000098
:1000C000E5C00000E3C00000E1C00000DFC00000A8
:1000D000DDC00000DBC00000D9C00000D7C00000B8
:1000E000D5C00000E705EA05D905DD05E3052106D1
:1000F000EE05F205F805FC05000606060A060E06E2
:100100002106140618061C06000021002400270002
:100110002A002D0030003300010100000401070116
:100120000A01000020002300260029002C002F00D7
:100130003200000100000301060109010000220055
:10014000250028002B002E003100340002010000A1
:10015000050108010B010505050507050808080844
:10016000020202020A0A080804040404010101014F
:10017000010101010303030303030303040707074A
:100180000C0C0C0C0C0C0C0C0202020206060606EF
:10019000060606060B0B0B0B0B0B0B0B01021020BC
:1001A00020080810204010204080020102010804AD
:1001B0000201010204081020408080402010080441
:1001C000020180040201804020100804020108049A
:1001D00002010102040810204080010204081020DE
:1001E000408000000A0B02090C0D0E0807030401F1
:1001F00000000000000000000000000000000000FF
:1002000000000000000000000000000000001211CB
:1002100010000000000000000000000000000000CE
:100220000000000000000000161611241FBECFEFD2
:10023000D1E2DEBFCDBF00E00CBF24E0A8EEB2E00B
:1002400001C01D92AB3CB207E1F712E0A0E0B2E0C2
:10025000EEEBF3E300E00BBF02C007900D92A83E67
:10026000B107D9F711E0C5E1D1E000E006C0219760
:100270000109802FFE010E94B017C431D10780E030
:100280000807A9F70E94AF0F0C94DD19B9CEFC0145
:10029000918D828D981761F0828DDF01A80FB11DBD
:1002A0005D968C91928D9F5F9F73928F90E00895E1
:1002B0008FEF9FEF0895FC01918D828D981731F09B
:1002C000828DE80FF11D858D90E008958FEF9FEFEF
:1002D0000895FC01918D228D892F90E0805C9F4FC5
:1002E000821B91098F739927089582EE93E0F1DFC5
:1002F00021E0892B09F420E0822F0895FC01848DF0
:10030000DF01A80FB11DA35ABF4F2C91848D90E03F
:1003100001968F739927848FA689B7892C93A0891A
:10032000B1898C9180648C93938D848D981306C0D1
:100330000288F389E02D80818F7D80830895EF927C
:10034000FF920F931F93CF93DF93EC0181E0888F8F
:100350009B8D8C8D981305C0E889F989808185FD76
:1003600023C0F62E0B8D10E00F5F1F4F0F73112768
:10037000E02E8C8DE8120BC00FB607FCFACFE8898F
:10038000F989808185FFF5CFCE01B8DFF2CF8B8D63
:10039000FE01E80FF11DE35AFF4FF0820B8FEA894F
:1003A000FB898081806207C0EE89FF896083E889CC
:1003B000F98980818064808381E090E0DF91CF9132
:1003C0001F910F91FF90EF900895CF93DF93EC0171
:1003D000888D8823C1F0EA89FB89808185FD05C06D
:1003E000A889B9898C9186FD0EC00FB607FCF5CFA0
:1003F000808185FFF2CFA889B9898C9185FFEDCFE7
:10040000CE017CDFE8CFDF91CF91089580E090E0CE
:10041000892B19F06ADF811125C080E090E0892BDB
:1004200041F080E090E0892B21F00E9400008111D2
:100430001CC080E090E0892B41F080E090E0892BA7
:1004400021F00E940000811113C080E090E0892B10
:10045000A1F080E090E0892B81F00E9400008111E2
:100460000AC008950E940000D8CF0E940000E1CF8A
:100470000E940000EACF0C94000008953FB7F89462
:100480008091340390913503A0913603B0913703E6
:1004900026B5A89B05C02F3F19F00196A11DB11DDF
:1004A0003FBFBA2FA92F982F8827820F911DA11D1A
:1004B000B11DBC01CD0142E0660F771F881F991F57
:1004C0004A95D1F7089581E090E0089580E090E0AA
:1004D0000895089585ED8093BC008091BC0084FD53
:1004E000FCCF1092BF03089540910A03262F30E0FD
:1004F000240F311D21323105DCF42091BF0324305B
:10050000C9F4FC0180E090E0861758F430910A03AA
:100510002191DC01A851BD4FA30FB11D2C93019671
:10052000F3CF80910A03680F60930A0380E0089577
:1005300081E0089582E008950895E091AE048091ED
:10054000AD04E81730F4F0E0E45CFC4F808190E00B
:1005500008958FEF9FEF08959091AE048091AD04C0
:10056000981750F4E92FF0E0E45CFC4F208130E074
:100570009F5F9093AE0402C02FEF3FEFC901089533
:100580008091AD0490E02091AE04821B9109089502
:10059000CF92DF92EF92FF920F931F93CF93DF934F
:1005A0007C01262F972F8A018091C003882391F028
:1005B000C62FD72F6E01C40ED51ECC15DD0569F0F0
:1005C0006991D701ED91FC910190F081E02DC70177
:1005D0001995F3CF642F822F87DFC801DF91CF9168
:1005E0001F910F91FF90EF90DF90CF900895CF93E0
:1005F000DF931F92CDB7DEB769832091C00322231A
:10060000D1F02091AB04203240F021E030E0FC0139
:100610003383228380E090E014C08091AC04E82F03
:10062000F0E0EF53FC4F998190838F5F8093AC048F
:100630008093AB0404C061E0CE01019655DF81E0F8
:1006400090E00F90DF91CF9108950E94C91922E2A6
:1006500032E0FC013183208306960C94610E2CE27B
:1006600032E0FC0131832083F2CFCF93DF93EC01A2
:10067000F6DFCE01DF91CF910C944D18CF93DF932D
:10068000EC0188E192E0998388838C859D850097B1
:1006900039F0DC01ED91FC910280F381E02D199598
:1006A000CE01DF91CF91D3CFCF93DF93EC01E6DF83
:1006B000CE01DF91CF910C944D18CF93DF93EC01D5
:1006C000C6DFCE01DF91CF910C944D18CF93DF930D
:1006D000EC0106960E944C0E81E08B83DF91CF9156
:1006E0000895CF92DF92EF92FF920F931F93CF93D3
:1006F000DF937C018B01FC01C480C394C482D12CA4
:10070000C601880F991F0E94B817EC0140E0F1E084
:10071000CF1AD108242F30E0F701828193812C1564
:100720003D0574F4220F331FFC01E20FF31F80819B
:100730009181FE01E20FF31F918380834F5FEACF27
:10074000009711F00E944D18F701D383C2832481D2
:10075000CE01820F911D820F911DFC0132971183F2
:100760000083DF91CF911F910F91FF90EF90DF9069
:10077000CF900895CF93DF93CDB7DEB7A4970FB690
:10078000F894DEBF0FBECDBF4AE060916003CE019A
:100790000D960E94230F4AE060916103CE010796F7
:1007A0000E94230F6091620370E06F3171051CF0AD
:1007B0006E51710906C08EE190E09C01261B370B3B
:1007C000B9014AE0CE014F960E94ED0E6AE672E052
:1007D000CE0143960E948D0FBE016D5E7F4FCE010C
:1007E00049960E94850FBE01615E7F4FCE014996FA
:1007F0000E941C0EBC01CE0101960E94850FCE0105
:1008000049960E94610ECE0143960E94610ECE0170
:100810004F960E94610E89899A89019709F560E8CF
:1008200072E0CE0143960E948D0FBE016D5E7F4F38
:10083000CE0149960E94850FBE01635F7F4FCE01B6
:1008400049960E941C0EBC01CE010D960E944C0ED2
:10085000CE0149960E94610ECE0143960E94610E20
:100860008B859C85019709F560E872E0CE0143967F
:100870000E948D0FBE016D5E7F4FCE0149960E9492
:10088000850FBE01695F7F4FCE0149960E941C0E05
:10089000BC01CE0107960E944C0ECE0149960E94E3
:1008A000610ECE0143960E94610EBE01635F7F4FD1
:1008B000CE0143960E94850F6DE672E0CE0143960D
:1008C0000E94050EBE01695F7F4F0E941C0E6DE6FF
:1008D00072E00E94050EBE016F5F7F4F0E941C0EEA
:1008E000BC01CE0149960E94850FBE01675E7F4F15
:1008F00080913A0390913B03E9DECE0149960E9434
:10090000610ECE0143960E94610ECE0101960E94B7
:10091000610ECE0107960E94610ECE010D960E94D7
:10092000610EA4960FB6F894DEBF0FBECDBFDF9167
:10093000CF910895CF93DF93CDB7DEB76E970FB603
:10094000F894DEBF0FBECDBF4AE060915E03CE01DA
:100950000D960E94230F4AE060915D03CE01079639
:100960000E94230F4AE060915C03CE0101960E9431
:10097000230F89899A89019709F560E872E0CE0111
:1009800043960E948D0FBE016D5E7F4FCE0149964A
:100990000E94850FBE01635F7F4FCE0149960E9482
:1009A0001C0EBC01CE010D960E944C0ECE01499644
:1009B0000E94610ECE0143960E94610E8B859C853C
:1009C000019709F560E872E0CE0143960E948D0F11
:1009D000BE016D5E7F4FCE0149960E94850FBE011C
:1009E000695F7F4FCE0149960E941C0EBC01CE016B
:1009F00007960E944C0ECE0149960E94610ECE01D0
:100A000043960E94610E8D819E81019709F560E8F1
:100A100072E0CE0143960E948D0FBE016D5E7F4F46
:100A2000CE0149960E94850FBE016F5F7F4FCE01B8
:100A300049960E941C0EBC01CE0101960E944C0EEC
:100A4000CE0149960E94610ECE0143960E94610E2E
:100A5000BE01635F7F4FCE0143960E94850F6FE614
:100A600072E0CE0143960E94050EBE01695F7F4F82
:100A70000E941C0E6FE672E00E94050EBE016F5FC1
:100A80007F4F0E941C0EBC01CE0149960E94850F2B
:100A9000BE01675E7F4F809138039091390316DE67
:100AA000CE0149960E94610ECE0143960E94610ECE
:100AB000CE0101960E94610ECE0107960E94610E42
:100AC000CE010D960E94610E6E960FB6F894DEBFB1
:100AD0000FBECDBFDF91CF9108951F920F920FB639
:100AE0000F9211240BB60F922F933F934F935F9366
:100AF0006F937F938F939F93AF93BF93EF93FF93E6
:100B000082EE93E0FBDBFF91EF91BF91AF919F915C
:100B10008F917F916F915F914F913F912F910F90A6
:100B20000BBE0F900FBE0F901F9018951F920F9243
:100B30000FB60F9211240BB60F922F938F939F93A2
:100B4000EF93FF93E091F203F091F3038081E09142
:100B5000F803F091F90382FD12C090818091FB03AC
:100B60008F5F8F732091FC03821751F0E091FB039C
:100B7000F0E0EE51FC4F958F8093FB0301C0808124
:100B8000FF91EF919F918F912F910F900BBE0F903E
:100B90000FBE0F901F90189590E0FC013197E23145
:100BA000F10508F04EC08827EE58FF4F8F4F0C9488
:100BB000B017809180008F7703C0809180008F7D77
:100BC00080938000089580918000877FF9CF84B55D
:100BD0008F7702C084B58F7D84BD08958091B00069
:100BE0008F7703C08091B0008F7D8093B00008950F
:100BF000809190008F7707C0809190008F7D03C017
:100C000080919000877F8093900008958091A0004C
:100C10008F7707C08091A0008F7D03C08091A000D6
:100C2000877F8093A0000895809120018F7707C06F
:100C3000809120018F7D03C080912001877F809368
:100C4000200108958F929F92AF92BF92CF92DF9230
:100C5000EF92FF926B017C0111DC4B015C01C1142E
:100C6000D104E104F104E9F009DCDC01CB018819CD
:100C70009909AA09BB09883E9340A105B10578F3FB
:100C800021E0C21AD108E108F10888EE880E83E05D
:100C9000981EA11CB11CC114D104E104F10421F778
:100CA000DECFFF90EF90DF90CF90BF90AF909F90FE
:100CB0008F9008952FB7F8946091300370913103AD
:100CC00080913203909133032FBF08951F920F92AA
:100CD0000FB60F9211242F933F938F939F93AF934F
:100CE000BF938091300390913103A0913203B09172
:100CF000330330912F0323E0230F2D3720F4019687
:100D0000A11DB11D05C026E8230F0296A11DB11D2E
:100D100020932F038093300390933103A0933203E9
:100D2000B09333038091340390913503A09136033F
:100D3000B09137030196A11DB11D809334039093A8
:100D40003503A0933603B0933703BF91AF919F91C2
:100D50008F913F912F910F900FBE0F901F9018957C
:100D60001F920F920FB60F9211240BB60F922F9372
:100D70003F934F935F936F937F938F939F93AF9323
:100D8000BF93CF93DF93EF93FF9386E09FEF909312
:100D900085008093840080918104882309F470C0C9
:100DA00080918404909185040196909385048093AA
:100DB000840420918604309187048217930708F4F5
:100DC0005FC0109285041092840480918804E091A1
:100DD0007F04F091800427E0829FE00DF11D112433
:100DE0008681882321F00190F081E02D1995609192
:100DF0008104A0918604B0918704E0917F04F09172
:100E0000800420E0CF01261749F0448155814A1B18
:100E10005B0B558344832F5F3796F5CF2091880471
:100E2000FC0137E0239FE00DF11D11242281338165
:100E30003583248310928804FC0121E030918804DA
:100E4000261790F4EC0147E0349FC00DD11D11240A
:100E5000A385B4854C815D81A417B50710F4209358
:100E600088042F5F3796EACFFC0127E0329FE00D20
:100E7000F11D1124848195819093870480938604C9
:100E8000FF91EF91DF91CF91BF91AF919F918F91A2
:100E90007F916F915F914F913F912F910F900BBE7A
:100EA0000F900FBE0F901F901895FC01248131E028
:100EB0003093C0032093E1031092AC041092AB0472
:100EC0008385682B8FEA94E092DB81E0A2C30F93C5
:100ED0001F93CF938C01C62FE8DF6C2F6460C8018D
:100EE000E4DF6C2F6B7FC801E0DF83EC90E00197BB
:100EF000F1F7CF911F910F9108950F931F93CF9307
:100F00008C01C62F607F6160E2DF80E1C89FB00185
:100F100011246160C801DBDF81E090E0CF911F9177
:100F20000F9108950F931F93CF938C01C62F607F6D
:100F3000CEDF80E1C89FB0011124C801CF911F917D
:100F40000F91C5CFFC016681262F226026836A603F
:100F5000E9CFCF93DF93CDB7DEB728970FB6F894DC
:100F6000DEBF0FBECDBF9C0188E0ECE0F2E0DE0109
:100F7000119601900D928A95E1F7F9018085841709
:100F800010F44FEF480FFE013196E40FF11DE40F0E
:100F9000F11D9081690F6068C90128960FB6F89419
:100FA000DEBF0FBECDBFDF91CF91BCCF61E0BADF16
:100FB0008BE39FE10197F1F70895AF92BF92CF9233
:100FC000DF92EF92FF920F931F93CF93DF93CDB7F2
:100FD000DEB72D970FB6F894DEBF0FBECDBF7C01F4
:100FE0005B01BA01CE0107962D878FD782E292E08E
:100FF000F7019183808311E0128313826701F6E089
:10100000CF0ED11C68E772E0C60187D7B701C501D2
:1010100068DBBE01695F7F4FCE01019676D7BE01C6
:101020006F5F7F4FC60138D6F7011383CE0101965B
:1010300048D62D85F70124830583CE01079641D636
:101040008CE292E0F701918380832D960FB6F8949D
:10105000DEBF0FBECDBFDF91CF911F910F91FF90EB
:10106000EF90DF90CF90BF90AF900895AF92BF9276
:10107000CF92DF92EF92FF920F931F93CF93DF9364
:10108000CDB7DEB72D970FB6F894DEBF0FBECDBF3C
:101090007C015B01BA01CE0107962D8736D782E22B
:1010A00092E0D70111969C938E9311E012961C93B7
:1010B000129713961C926701B6E0CB0ED11C68E71D
:1010C00072E0C6012AD7B701C5010BDBBE01695F1B
:1010D0007F4FCE01019619D7BE016F5F7F4FC601CA
:1010E000DBD5F7011383CE010196EBD52D85D70112
:1010F00014962C93149715960C93CE010796E1D570
:1011000088E192E0F7019183808386E090E00E947D
:10111000B817FC0186E0DF011D928A95E9F7148279
:1011200015828EE392E091838083D7011D96FC9314
:10113000EE931C972D960FB6F894DEBF0FBECDBF71
:10114000DF91CF911F910F91FF90EF90DF90CF90A3
:10115000BF90AF9008950F931F93CF938C0186E3B8
:1011600092E0D8018D939C93C0E0F80184810280C5
:10117000F381E02DC81788F4EC0FF11DEC0FF11D81
:1011800080819181009739F0DC01ED91FC91028022
:10119000F381E02D1995CF5FE8CF309731F0CF0183
:1011A000CF911F910F910C944D18CF911F910F91DA
:1011B0000895CF93DF93EC01CEDFCE01DF91CF9185
:1011C0000C944D181F920F920FB60F9211240BB66C
:1011D0000F922F933F934F935F936F937F938F93D0
:1011E0009F93AF93BF93EF93FF938091B900887F54
:1011F000803609F49CC068F5883209F45BC090F42D
:10120000803109F454C038F4882309F4F6C08830DA
:1012100009F44DC0F5C0883109F44CC0803209F49E
:101220005DC0EEC0803409F468C048F4803309F42E
:1012300055C0883309F0E4C08093BD03D8C0803521
:1012400009F44FC0883509F45DC0883409F0D8C06E
:10125000D6C0883909F4C7C0A8F4883709F467C034
:1012600038F4883609F463C0803709F460C0C8C018
:10127000883809F4B8C0803909F45FC0803809F0B3
:10128000BFC05BC0803B09F486C038F4803A09F4E3
:1012900066C0883A09F47FC0B3C0803C09F4A7C097
:1012A000883C09F4A4C0883B09F48AC0A9C0809195
:1012B0009A0310C09091BC038091BB03981770F5FE
:1012C000E091BC0381E08E0F8093BC03F0E0E55613
:1012D000FC4F80818093BB0085EC86C08093BD036A
:1012E0008EC0E091BC0381E08E0F8093BC0380919F
:1012F000BB00F0E0E556FC4F80839091BC038091E9
:10130000BB036EC0E091BC0381E08E0F8093BC03F1
:101310008091BB00F0E0E556FC4F80838091BE03D6
:1013200081116DC081E08093990384EA61C083E0FC
:101330008093BF0310922E03CFCF80912E03803273
:1013400008F051C0E0912E0381E08E0F80932E03B0
:101350008091BB00F0E0E25FFC4F8083BDCF85EC65
:101360008093BC001092BF0380912E03803230F432
:10137000E0912E03F0E0E25FFC4F108260912E03BB
:1013800070E0E0910C03F0910D038EE093E019956D
:1013900010922E0335C084E08093BF0310920B039C
:1013A00010920A03E0910803F091090319958091C6
:1013B0000A03811105C081E080930A031092E802BC
:1013C000E0910B0381E08E0F80930B03F0E0E85176
:1013D000FD4F80818093BB0090910B0380910A03A5
:1013E000981708F479CF85E88093BC0009C085EC94
:1013F0008093BC001092BF0303C01092BD036AD853
:10140000FF91EF91BF91AF919F918F917F916F91DC
:101410005F914F913F912F910F900BBE0F900FBE98
:101420000F901F9018951092BF0381E08093BE0328
:101430001092990384E155D285E153D2E9EBF0E0B3
:1014400080818E7F808380818D7F808388E48093FC
:10145000B80085E48093BC0008952EE332E0FC01DF
:101460003183208378CECF93DF93EC01F6DFCE017A
:10147000DF91CF910C944D18CF93DF93EC018881CD
:101480009981009711F00E944D18198218821D82CF
:101490001C821B821A82DF91CF9108950F931F93B4
:1014A000CF93DF93EC0188819981009729F02A81FD
:1014B0003B812617370788F48B016F5F7F4F0E94AF
:1014C000E518009761F0998388831B830A832C8138
:1014D0003D81232B11F4FC01108281E001C080E0EA
:1014E000DF91CF911F910F910895EF92FF920F938B
:1014F0001F93CF93DF93FC01248135816115710522
:1015000011F480E018C041155105A1F07B01EC01F8
:101510008A01020F131FB801C1DF882391F32881CC
:1015200039818C819D81B701820F931F0E94D6194A
:101530001D830C8381E0DF91CF911F910F91FF906C
:10154000EF900895EF92FF920F931F93CF93DF9345
:101550008C019091810481E0890F80938104E82EB1
:10156000F12C27E0829FC00111240E94B817EC01E2
:10157000FC01A70181E0E114F10461F01182108205
:1015800013821282158214828683379661E0E61AEE
:10159000F108F1CF90E04150510987E0292F30E068
:1015A000E0917F04F09180042417350784F467E00C
:1015B000969F90011124DE01A20FB31FE20FF31FCB
:1015C000282F01900D922A95E1F79F5FE7CF309782
:1015D00019F0CF010E944D18D0938004C0937F046E
:1015E0008091810497E0899FC00DD11D1124279718
:1015F0001983088388EE93E09B838A831D821C8273
:1016000081E08E83DF91CF911F910F91FF90EF903A
:101610000895382F2091AB049091E103213208F016
:1016200049C08091BF038111FCCF42E04093BF03CA
:101630003093BE033FEF3093BD031092BC03209361
:10164000BB03A1ECB3E04BE953E0FA013E2F341B9E
:10165000321718F43D913193F9CF10929A032091EB
:101660009A03990F922B90939A039091990391303A
:1016700061F41092990390919A039093BB0090911A
:10168000BC0093FDF8CF95EC01C095EE9093BC00A3
:101690009091BF039230E1F39091BD039F3F79F0A9
:1016A0008091BD03803241F08091BD03803331F0E1
:1016B00084E005C081E003C082E001C083E01092B5
:1016C000AC041092AB041092C0030895FF920F93E4
:1016D0001F93CF93DF939093A8048093A704C0E057
:1016E000D1E0E091A704F091A8048481C817D0F458
:1016F00092818381E92FF82FEC0FF11DEC0FF11D82
:1017000080819181DC01ED91FC910480F581E02DD7
:101710001995019729F0E091A704F091A804D583C9
:10172000CF5FDFCF8091A5048F3F41F0248180916E
:10173000890490918A04211118C01AC02091900444
:10174000A0918E04B0918F0480E090E0821751F058
:101750004D915D914E175F0719F48093A60491E0B7
:101760008F5FF4CF9111E2CF6FC0258121110FC09F
:1017700010928D04FC0166816D7F66836860D2DB08
:10178000A091A704B091A80480E021E046C021E028
:1017900020938D04D7DBD4E684E6F82EC0E0E091F8
:1017A000A704F091A8048481C81790F592818381E1
:1017B000E92FF82FEC0FF11DEC0FF11D00811181C5
:1017C000D801ED91FC910480F581E02DC8011995B7
:1017D0000197E1F0F8012581422F50E08D2F0D2E69
:1017E000000C990B4817590751F4848190E04F2D54
:1017F0000F2C000C550B8417950724F007C04817D1
:10180000590724F4D8011496FC90D22FCF5FC7CF8C
:10181000F0928B04D0938C04B3CF14969C911497C0
:10182000891790F412963C91129713969C911397F6
:10183000E32FF92FE80FF11DE80FF11D0190F08162
:10184000E02D23838F5FE9CFDF91CF911F910F911F
:10185000FF900895EF92FF920F931F93CF93DF9322
:101860007C01009190040F5F0093900410E0C80188
:10187000880F991F0E94B817EC0180918E049091F7
:101880008F0440E001501109242F30E02017310768
:1018900074F4220F331FFC01E20FF31F608171818A
:1018A000FE01E20FF31F718360834F5FEDCF00975E
:1018B00011F00E944D18D0938F04C0938E04809134
:1018C00090049E01280F311D280F311DF901329718
:1018D000F182E082DF91CF911F910F91FF90EF9005
:1018E0000895CF93DF93282F30E0F901EE51FE4F9A
:1018F0008491F901E456FE4FD491F901EA5AFE4F62
:10190000C491CC2381F0811147D9EC2FF0E0EE0F88
:10191000FF1FE45CFE4FA591B4918FB7F894EC9152
:10192000ED2BEC938FBFDF91CF9108950F931F9311
:10193000CF93DF938C018BEB94E090938A04809398
:10194000890481E080938D048FEF80938B048093D2
:101950008C041092AE041092AD041092AC0410925C
:10196000AB0461DD1092C0048091C504823018F090
:1019700098E09093C0048093C30462E370E080E039
:1019800090E060D96091C6048BEB94E08EDA68EE4B
:1019900073E080E090E056D960E38BEB94E097DA57
:1019A000CBE4D6E4CE010197F1F760E38BEB94E052
:1019B0008EDA2197F1F760E38BEB94E088DA83E528
:1019C00092E00197F1F760E28BEB94E080DA90917E
:1019D000C004692F60628BEB94E0A4DA84E080930A
:1019E000C1046CE08BEB94E09DDA8BEB94E0DEDAE3
:1019F00082E08093C20466E08BEB94E093DA62E0CD
:101A00008BEB94E08FDAEBE3FFE13197F1F7E091B4
:101A10008904F0918A0488E0838760E0CF0145DA89
:101A20008091890490918A048DDA40E060E0809191
:101A3000890490918A048DDAB8018091890490918B
:101A40008A047FD268EE73E080E090E0FBD880915A
:101A5000890490918A04AADA8FEF8093A604DF911B
:101A6000CF911F910F9108958F929F92AF92BF9245
:101A7000EF92FF920F931F93CF93DF939091900378
:101A8000209191033091920300E0091709F465C099
:101A90002D5F3F4FF90133974081481711F00F5FD9
:101AA000F4CF282F30E0F901EE51FE4F8491F90177
:101AB000E456FE4FD491F901EA5AFE4FC49110E06A
:101AC000CC2371F0811168D8EC2FF0E0EE0FFF1FEE
:101AD000EE5DFE4FA591B491EC91ED2309F064C049
:101AE000E9D87801EE0CFF1CEE0CFF1CE091950389
:101AF000F09196039801220F331FE20FF31FA0917C
:101B00009303B0919403AE0DBF1D8D909D90AD9049
:101B1000BC909B01AC01281939094A095B094901AC
:101B20005A014081518160E070E08091970390916B
:101B30009803481559056A057B0548F421E0DC0146
:101B4000A00FB11F2C9324E630E031832083FC01E9
:101B5000E00FF11FC081C11102C0C0E04AC0AAD885
:101B60002091930330919403E20EF31EF7018080DD
:101B70009180A280B380DC01CB0188199909AA0960
:101B8000BB094497A105B10540F394D8F7016083E0
:101B90007183828393838091970390919803FC01D2
:101BA000E00FF11F108225C0C801880F991F880F10
:101BB000991FC0919303D0919403C80FD91F7AD86D
:101BC000688379838A839B83E0919703F0919803DC
:101BD000E00FF11F81E08083000F111FE09195035A
:101BE000F0919603E00FF11F88EE93E091838083DC
:101BF000B4CF8C2FDF91CF911F910F91FF90EF9079
:101C0000BF90AF909F908F900895CF93DF93EC019A
:101C10006115710559F0FB0101900020E9F731973A
:101C2000AF01461B570B61DC811102C0CE0124DCE1
:101C3000CE01DF91CF910895CF93DF93EC01FB01AB
:101C4000448155816081718150DC811102C0CE01D7
:101C500013DCCE01DF91CF910895EF92FF920F93A5
:101C60001F93CF93DF93EC017B018A01BA0116DC4D
:101C7000811103C0CE0100DC07C01D830C83B701B6
:101C8000888199810E94D619CE01DF91CF911F9151
:101C90000F91FF90EF900895CF93DF93EC01FB013C
:101CA0008617970751F0608171816115710521F0E8
:101CB00044815581D2DF01C0DFDBCE01DF91CF91BE
:101CC0000895FC01808191810C944D18EF92FF9250
:101CD0000F931F93CF93DF9300D000D0CDB7DEB723
:101CE0008091A6048F3F79F48091890490918A04B1
:101CF000DC01ED91FC910280F381E02D47E050E0A2
:101D00006FED72E01995F12CE091A704F091A80411
:101D10008481F81608F04BC092818381E92FF82F57
:101D2000EF0DF11DEF0DF11D00811181F80183818F
:101D3000882309F43AC04581648180918904909197
:101D40008A0407D9D80112968C91811123C068E7C3
:101D500072E0CE010196E1D0E12C8E2D90E0F801E9
:101D6000228533852817390748F041E050E067E7BE
:101D700072E0CE010196B9DBE394EFCFBE016F5F55
:101D80007F4F8091890490918A04DBD0CE01019627
:101D900098DF08C0B8016A5F7F4F809189049091F5
:101DA0008A04CFD0D80113961C92F394ADCF409102
:101DB0008C0460918B048091890490918A04C9D825
:101DC00026960FB6F894DEBF0FBECDBFDF91CF9140
:101DD0001F910F91FF90EF900895EF92FF920F9354
:101DE0001F93CF93DF93CDB7DEB762970FB6F8940A
:101DF000DEBF0FBECDBF8C01CB01F8011182108276
:101E0000138212821582148250E09E012F5F3F4F91
:101E10007901B90177D7F70101900020E9F73197EF
:101E2000AF014E195F09B701C80117DF62960FB6FF
:101E3000F894DEBF0FBECDBFDF91CF911F910F9100
:101E4000FF90EF900895EF92FF920F931F93CF931F
:101E5000DF93CDB7DEB729970FB6F894DEBF0FBE7C
:101E6000CDBF8C01862FF80111821082138212825D
:101E70001582148250E09E012F5F3F4F7901B90116
:101E800090E054D7F70101900020E9F73197AF01B6
:101E90004E195F09B701C801E0DE29960FB6F89424
:101EA000DEBF0FBECDBFDF91CF911F910F91FF908D
:101EB000EF900895CF92DF92EF92FF920F931F93CE
:101EC000CF93DF936C017A018B01C0E0D0E0CE1597
:101ED000DF0589F0D8016D918D01D601ED91FC915E
:101EE0000190F081E02DC6011995892B11F47E0136
:101EF00002C02196ECCFC701DF91CF911F910F91C6
:101F0000FF90EF90DF90CF900895FC011182108236
:101F10001382128215821482BFCEFC0111821082BC
:101F200013821282158214826115710549F0FB013A
:101F300001900020E9F73197AF01461B570B8DCE7A
:101F40000895DC01ED91FC91DB0114964D915C91BB
:101F500015976D917C910280F381E02D1994CF93B8
:101F6000DF93CDB7DEB728970FB6F894DEBF0FBE6C
:101F7000CDBF789484B5826084BD84B5816084BD12
:101F800085B5826085BD85B5816085BD80916E0017
:101F9000816080936E001092810080918100826048
:101FA0008093810080918100816080938100809185
:101FB00080008160809380008091B1008460809374
:101FC000B1008091B00081608093B0008091910059
:101FD0008260809391008091910081608093910054
:101FE000809190008160809390008091A100826038
:101FF0008093A1008091A10081608093A1008091D5
:10200000A00081608093A000809121018260809374
:102010002101809121018160809321018091200123
:1020200081608093200180917A00846080937A009F
:1020300080917A00826080937A0080917A0081603A
:1020400080937A0080917A00806880937A00109261
:10205000C100E091F203F091F30382E08083E0910C
:10206000EE03F091EF031082E091F003F091F103A1
:102070008FEC80831092FA03E091F603F091F7035E
:1020800016E01083E091F403F091F5038081806104
:102090008083E091F403F091F50380818860808370
:1020A000E091F403F091F503808180688083E091F2
:1020B000F403F091F50380818F7D808386E090E0CA
:1020C00057D77C01DC01E12F1D92EA95E9F7DC018D
:1020D00014961C92149715961C9215970EE3A02E39
:1020E00002E0B02EAD92BC9290937603809375037C
:1020F00061E772E0CE01019610DF8CE090E038D706
:102100006C0100E020E0AE014F5F5F4FB7010E941D
:10211000DD07D0927403C0927303CE010196D1DD26
:1021200068E772E0CE010196F8DE8CE090E020D7FF
:102130006C0128E0AE014F5F5F4FB7010E94DD07E1
:10214000D0923B03C0923A03CE010196BADD69E713
:1021500072E0CE010196E1DE8CE090E009D76C01DF
:1021600001E028E0AE014F5F5F4FB7010E94DD073D
:10217000D0923903C0923803CE010196A2DD86E0E9
:1021800090E0F6D66C01FC0111921A95E9F7DC019A
:1021900014961C92149715961C921597AD92BC92AA
:1021A000909372038093710362E872E0CE0101960E
:1021B000B4DE8CE090E0DCD67C0100E027E0AE01EC
:1021C0004F5F5F4FB6010E94DD07F0927003E0920F
:1021D0006F03CE01019675DD6BE872E0CE010196CA
:1021E0009CDE8EE090E0C4D67C0102E020E0AE01EF
:1021F0004F5F5F4FB6010E943608F0926E03E09287
:102200006D03CE0101965DDD62E972E0CE010196BB
:1022100084DE8EE090E0ACD65C01F70164857585C4
:1022200000E023E0AE014F5F5F4F0E943608B0929E
:102230006C03A0926B03CE01019643DD61EA72E06C
:10224000CE0101966ADE8EE090E092D65C01D70165
:102250001C966D917C911D9701E023E0AE014F5FCC
:102260005F4F0E943608B0926A03A0926903CE01C4
:10227000019627DD61EB72E0CE0101964EDE8EE025
:1022800090E076D65C01F7016485758502E023E075
:10229000AE014F5F5F4F0E943608B0926803A09274
:1022A0006703CE0101960DDD6EEB72E0CE01019663
:1022B00034DE8EE090E05CD67C0127E0AE014F5F1B
:1022C0005F4FB6010E943608F0926603E092650304
:1022D000CE010196F6DC65EC72E0CE0101961DDEC2
:1022E0008EE090E045D67C012EE0AE014F5F5F4F5F
:1022F000B6010E943608F0926403E0926303CE01B7
:102300000196DFDC6CEC72E0CE01019606DECE01B8
:1023100001960CDBCE010196D4DC0091750310917F
:102320007603C80197DA809171039091720392DA73
:10233000C801CCD9CBDC8091910390919203009796
:1023400009F0ABD68091950390919603009709F020
:10235000A4D68091970390919803009709F09DD699
:102360008091930390919403009709F096D686E0AC
:102370008093900382E190E0FBD5FC019C012E5EEE
:102380003F4F128211823396E217F307D1F79093F1
:102390009203809391038CE090E0EAD590939603AA
:1023A0008093950386E090E0E3D590939803809323
:1023B000970388E190E0DCD5909394038093930396
:1023C00070E048EE53E0A1E080919003781708F0A8
:1023D0005FC0272F30E0F3E07F9FC0011124F90197
:1023E000E050FE4F6081E0919103F0919203E80F7D
:1023F000F91F6083E0919103F0919203E80FF91FB8
:10240000808190E0FC01E456FE4F6491FC01EA5AA1
:10241000FE4F84918823D1F090E0880F991FFC0132
:10242000E85FFE4F05911491FC01E45CFE4FE590DE
:10243000F4909FB7F894F801B081862F80958B2394
:102440008083F7018081682B60839FBFC901880F5B
:10245000991FE0919503F0919603E80FF91F5183BE
:102460004083E0919703F0919803E20FF31FA0835C
:10247000220F331F220F331FE0919303F091940337
:10248000E20FF31F10821182128213827F5F9CCFB2
:10249000F894109280001092810010926F00809149
:1024A000810083608093810086E09FEF9093850098
:1024B0008093840081E080936F008AE994E042D8A1
:1024C0008AEB93E03FD840E057E0242F30E0809142
:1024D000810490E00197281739070CF040C0B7E05D
:1024E0004B9F8001112421E0809181042817A8F5D9
:1024F00080917F0490918004DC01A00FB11F12969F
:102500006D917C911397F7E02F9F800D911D112401
:10251000FC01E280F380E616F706E8F4CD90DC904B
:1025200011971496ED90FC90159716963C9116977E
:10253000B52E01900D92BA94E1F7DC011196DC9270
:10254000CE9213967C936E9312971596FC92EE9210
:10255000149716963C932F5FC7CF4F5FB6CF7894F2
:1025600011E088E6782E0FEF96E0B92E2CE3C22E0C
:1025700023E0D22E35EEA32E45EC942E1093C0030B
:102580007092E1031092AC041092AB0460E08FEA09
:1025900094E00E94F70281E03CD8882319F0109261
:1025A0007703B1C0109377038091BF038111FCCFF3
:1025B0001093BF031093BE030093BD031092BC039E
:1025C000B092BB0310939A0380919A03806D80931D
:1025D0009A0380919903813069F410929903809154
:1025E0009A038093BB008091BC0083FDF8CF90924A
:1025F000BC0002C0A092BC008091BF038130E1F317
:102600008091BC03873018F48091BC0301C087E03F
:10261000ABE9B3E0ECE3F3E09E2F9C19981718F4B4
:102620009D919193F9CF1092AE048093AD048730C1
:1026300008F469C08FEA94E00E94AC02982F969546
:10264000969596959E70292F220F220F920F8F70CC
:10265000890F80935C038FEA94E00E94AC02982F6C
:1026600092959F708F70EAE09E9F800D1124809359
:102670005D038FEA94E00E94AC02982F96959695A0
:1026800096959670292F220F220F920F8F70890F27
:1026900080935E038FEA94E00E94AC02982F92959B
:1026A0009F708F70FAE09F9F800D112480935F03CD
:1026B0008FEA94E00E94AC02982F92959F708F70E1
:1026C0002AE0929F800D1124809360038FEA94E0AA
:1026D0000E94AC02982F92959F708F703AE0939F62
:1026E000800D1124809361038FEA94E00E94AC0274
:1026F000982F9F70925E82958F706AE0869F900DF2
:1027000011249093620389E0AFD9882309F469C04A
:102710008091A9049091AA04892B09F062C04FEF1F
:102720006FEF812CE091A704F091A80484818816B2
:1027300008F04BC092818381E92FF82FE80DF11D3D
:10274000E80DF11DE080F180D701ED91FC9104804E
:10275000F581E02DC7014F83688719954F81688502
:10276000019789F1F7015581852F90E020918C0424
:10277000022E000C330B821793076CF0821793071D
:1027800011F5E481F0E020918B04022E000C330B54
:10279000E217F307C4F4242F042E000C330B281780
:1027A000390774F08217930771F4D70114968C914E
:1027B00090E0262F062E000C330B281739071CF447
:1027C000F7016481452F8394ADCF6F3F51F0609343
:1027D0008B0440938C048091890490918A040E9418
:1027E000A9078BE041D9882309F469C08091A90425
:1027F0009091AA04892B09F062C04DE76DE7812C06
:10280000E091A704F091A8048481881608F04BC0D9
:1028100092818381E92FF82FE80DF11DE80DF11D5C
:10282000E080F180D701ED91FC910480F581E02DED
:10283000C7014F83688719954F816885019789F192
:10284000F7015581852F90E020918C04022E000C19
:10285000330B281739076CF08217930711F5E481C1
:10286000F0E020918B04022E000C330B2E173F0753
:10287000C4F4242F042E000C330B8217930774F03A
:102880008217930771F4D70114968C9190E0262F4C
:10289000062E000C330B821793071CF4F70164819A
:1028A000452F8394ADCF6D3751F060938B044093E7
:1028B0008C048091890490918A040E94A9078CE07D
:1028C000D3D8882371F1E090A904F090AA04E11410
:1028D000F10439F1D7011C962D913D914D915C91F8
:1028E0001F9750966D917D918D919C915397A3D296
:1028F000F701608B718B828B938B01D34AE0CE0101
:1029000001966BDABE016F5F7F4FC7010696C4D98F
:10291000D70113961C93CE010196D3D9F7011383E7
:10292000D5D98AE0A1D8882371F1E090A904F0906C
:10293000AA04E114F10439F1D7011C962D913D91BF
:102940004D915C911F9750966D917D918D919C91C9
:10295000539770D2F701608B718B828B938BCFD2A0
:102960004AE0CE01019639DABE016F5F7F4FC701A1
:10297000069692D9D70113961C93CE010196A1D940
:10298000F7011383A3D987E06FD88823E9F18091F9
:10299000A9049091AA04892BB9F58091890490919A
:1029A0008A040E94D607E091A504EF3FF9F48091D4
:1029B000A6048F5F8093A6042091900430E0082E37
:1029C000000C990B2817390711F41092A604E09116
:1029D000A604EE0FFF0B80918E0490918F04E80FF8
:1029E000F91F808191810E94660B0DC0EE0FFF0BD5
:1029F000EF56FB4F808191810E94660B8091A50468
:102A000081508093A50462D988E02ED8882309F4E8
:102A100074C0812CE091A704F091A80484818816E9
:102A200008F06BC092818381E92FF82FE80DF11D2A
:102A3000E80DF11DE080F18020918B04022E000C46
:102A4000330BD70114968C91149790E0281739070F
:102A500009F051C020918C04022E000C330B159606
:102A60008C91159790E02817390709F044C0ED9133
:102A7000FC910480F581E02DC70119958230910504
:102A800009F18330910529F1892BA9F580918904F9
:102A900090918A040E94D607E091A504EF5FE0932D
:102AA000A504EE0FFF0BEF56FB4F8091A70490910A
:102AB000A80491838083F701848595850E94660B25
:102AC00005D91BC0D7011C96ED91FC911D97199556
:102AD00012C0F092AA04E092A904F701848981113E
:102AE00002C0148B08C0148A12831383EFD810928B
:102AF000AA041092A90483948DCFE091A704F091C9
:102B0000A8048481882309F44CC08581882309F4B2
:102B100048C08091880381110CC00E945A066093BE
:102B200084037093850380938603909387031093A7
:102B300088030E945A0620918403309185034091B6
:102B4000860350918703DC01CB01821B930BA40BFE
:102B5000B50B853F9140A105B10518F10E945A06B9
:102B60006093840370938503809386039093870317
:102B700020918D048091890490918A04211105C0CF
:102B800010938D040E94A2070CC010928D04DC01EA
:102B900016966C9116976D7F16966C9368600E94DE
:102BA00092078091A9049091AA04892BD9F1809170
:102BB0007C0381110CC00E945A06609378037093C5
:102BC000790380937A0390937B0310937C030E9494
:102BD0005A06209178033091790340917A035091FD
:102BE0007B03DC01CB01821B930BA40BB50B893C4F
:102BF0009105A105B105B0F00E945A0660937803D3
:102C00007093790380937A0390937B03E091A904F6
:102C1000F091AA0413838281811102C0128301C042
:102C2000128254D853D80E940602A8CCCF92DF92C9
:102C3000EF92FF92E2EEF3E01382128288EEC82E4A
:102C400083E0D82EE12CF12CC482D582E682F78273
:102C500086E492E09183808385EC90E09587848779
:102C600084EC90E09787868780EC90E0918B808B56
:102C700081EC90E0938B828B82EC90E0958B848B3F
:102C800086EC90E0978B868B118E128E138E148EAD
:102C9000EFE7F4E012821482138216821582108606
:102CA00017821186E9E8F4E017828FEF848F858F11
:102CB0001092AE041092AD041092AC041092AB04CA
:102CC0000E94130AEFEAF4E013821282C482D582D2
:102CD000E682F78286E592E091838083EBEBF4E075
:102CE0001382128286E692E09183808387E2848356
:102CF00080E1818784E082871386FF90EF90DF90E8
:102D0000CF9008954532510518F4423008F004C0C0
:102D1000FB011082CB010895BB274A3031F499237F
:102D200022F4BDE2909581959F4F0BC0453251052D
:102D300018F4423008F004C0FB011082CB01089562
:102D4000BB27FB015527AA27880F991FAA1FA41785
:102D500010F0A41B83955051B9F7A05DAA3308F079
:102D6000A95DA193009779F7B111B1931192CB01AD
:102D700000C0DC01FC01672F71917723E1F73297E6
:102D800004C07C916D9370836291AE17BF07C8F346
:102D9000089597F99F6780E870E060E008959FEFDD
:102DA00080EC089500240A941616170618060906E2
:102DB000089500240A9412161306140605060895B1
:102DC000092E0394000C11F4882352F0BB0F40F439
:102DD000BF2B11F460FF04C06F5F7F4F8F4F9F4F79
:102DE000089557FD9058440F551F59F05F3F71F0FB
:102DF0004795880F97FB991F61F09F3F79F0879562
:102E00000895121613061406551FF2CF4695F1DFEA
:102E100008C0161617061806991FF1CF869571057A
:102E2000610508940895E894BB2766277727CB01AE
:102E300097F908955058BB27AA270ED0C1CFB2DF0B
:102E400030F0B7DF20F031F49F3F11F41EF4A7CF2C
:102E50000EF4E095E7FB9DCFE92FC3DF80F3BA17AF
:102E6000620773078407950718F071F49EF5DBCFAE
:102E70000EF4E0950B2EBA2FA02D0B01B901900195
:102E80000C01CA01A0011124FF27591B99F0593FD9
:102E900050F4503E68F11A16F040A22F232F342F21
:102EA0004427585FF3CF469537952795A795F0406F
:102EB0005395C9F77EF41F16BA0B620B730B840B84
:102EC000BAF09150A1F0FF0FBB1F661F771F881F3C
:102ED000C2F70EC0BA0F621F731F841F48F4879594
:102EE00077956795B795F7959E3F08F0B3CF939583
:102EF000880F08F09927EE0F97958795089504D0CD
:102F00006894B11191CF089574DF88F09F5790F0C5
:102F1000B92F9927B751A0F0D1F0660F771F881FFE
:102F2000991F1AF0BA95C9F712C0B13081F07BDF52
:102F3000B1E0089578CF672F782F8827B85F39F0F0
:102F4000B93FCCF3869577956795B395D9F73EF45D
:102F500090958095709561957F4F8F4F9F4F089505
:102F6000EE0FFF1F881F8BBF0790F691E02D19947D
:102F7000CF93DF938230910510F482E090E0E091EE
:102F8000C904F091CA0420E030E0C0E0D0E03097FE
:102F900011F14081518148175907C0F0481759076E
:102FA00061F482819381209719F09B838A832BC0DF
:102FB0009093CA048093C90426C02115310519F0E5
:102FC0004217530718F49A01BE01DF01EF01028096
:102FD000F381E02DDCCF2115310509F1281B390BD8
:102FE0002430310590F412968D919C9113976115C0
:102FF000710521F0FB019383828304C09093CA047E
:103000008093C904FD01329644C0FD01E20FF31F15
:1030100081939193225031092D933C933AC0209192
:10302000C7043091C804232B41F420910802309149
:1030300009023093C8042093C704209106023091FE
:1030400007022115310541F42DB73EB740910A0220
:1030500050910B02241B350BE091C704F091C8047A
:10306000E217F307A0F42E1B3F0B2817390778F05F
:10307000AC014E5F5F4F2417350748F04E0F5F1FBE
:103080005093C8044093C7048193919302C0E0E039
:10309000F0E0CF01DF91CF9108950F931F93CF936D
:1030A000DF93009709F48CC0FC01329713821282DF
:1030B0000091C9041091CA040115110581F4208101
:1030C0003181820F931F2091C7043091C8042817C3
:1030D000390779F5F093C804E093C70471C0D801AB
:1030E00040E050E0AE17BF0750F412962D913C918E
:1030F0001397AD012115310509F1D901F3CF9D01D8
:10310000DA013383228360817181860F971F8217D2
:10311000930769F4EC0128813981260F371F2E5F50
:103120003F4F318320838A819B8193838283452B08
:1031300029F4F093CA04E093C90442C01396FC93A7
:10314000EE931297ED01499159919E01240F351F7D
:10315000E217F30771F480819181840F951F029625
:1031600011969C938E938281938113969C938E9358
:103170001297E0E0F0E0D80112968D919C911397A0
:10318000009719F0F8018C01F6CF8D919C91980170
:103190002E5F3F4F820F931F2091C7043091C804C8
:1031A0002817390769F4309729F41092CA0410924D
:1031B000C90402C0138212821093C8040093C7048A
:1031C000DF91CF911F910F9108956F927F928F920F
:1031D0009F92AF92BF92CF92DF92EF92FF920F93A6
:1031E0001F93CF93DF93EC01009781F4CB01DF9124
:1031F000CF911F910F91FF90EF90DF90CF90BF90F4
:10320000AF909F908F907F906F90B2CEFC01E60FB1
:10321000F71F9C0122503109E217F30708F4A8C0F8
:10322000D9010D911C91119706171707A8F00530C9
:10323000110508F49BC0C80104978617970708F486
:1032400095C002501109061B170B019311936D9342
:103250007C93CF0122DF8AC05B01A01AB10A4C0126
:10326000800E911EA091C904B091CA0440E050E0C4
:10327000E12CF12C109709F44AC0A815B905D1F535
:103280006D907C901197630182E0C80ED11CCA1426
:10329000DB0480F1A3014A195B096A0182E0C80ED0
:1032A000D11C1296BC9012971396AC91B5E0CB1638
:1032B000D10440F0B282A38351834083D9016D933E
:1032C0007C930AC00E5F1F4FC301800F911FF9014D
:1032D00091838083EB2DFA2FE114F10431F0D701B3
:1032E0001396FC93EE93129741C0F093CA04E093B7
:1032F000C9043CC08D919C9111974817590708F457
:10330000AC017D0112960D90BC91A02DB3CF8091A0
:10331000C7049091C80488159905E1F4461757072A
:10332000C8F48091060290910702009741F48DB78E
:103330009EB740910A0250910B02841B950BE8172F
:10334000F907B0F4F093C804E093C704F90171835E
:1033500060830CC0CB010CDE7C01009749F0A80112
:10336000BE011BD0CE0199DEC70104C0CE0102C050
:1033700080E090E0DF91CF911F910F91FF90EF904F
:10338000DF90CF90BF90AF909F908F907F906F9085
:10339000089581E090E0F89410C0FB01DC0102C0C8
:1033A00001900D9241505040D8F70895FB01DC0187
:0E33B00001900D920020E1F70895F894FFCFF0
:1033BE0007090B0C0A080000CB0480000000400037
:1033CE0014005400000000003E0354036602000087
:1033DE00000027035D036902000000002F03350380
:1033EE00630200000000AB08D908000000002D0A9F
:1033FE00330A000000009F015A0F690147015B016B
:10340E00E50100000000F702C802C002AC029D02F6
:10341E009C02000000007D075A0F3230002F003A48
:10342E0000546F6461793A200030373A33333A31C1
:10343E003000536561736F6E2031005472656520E4
:10344E00310054696D6520666F7220776174657204
:10345E00004D61782074656D70657261747572656A
:10346E00004D61782068756D6964697479005472D5
:10347E006565203200547265652033004661726DB9
:10348E00426F7420436F6E74726F6C6C6572004E77
:08349E006F206D656E750000E2
:00000001FF
