:1000000091C10000C0C10000BEC10000BCC1000021
:10001000BAC10000B8C10000B6C10000B4C1000000
:10002000B2C10000B0C10000AEC10000ACC1000010
:10003000AAC10000A8C10000A6C10000A4C1000020
:10004000A2C10000A0C100009EC100009CC1000030
:100050000C94E41098C1000096C100000C949A1012
:1000600092C100000C94CA0F0C94A10F8CC1000027
:100070008AC1000088C1000086C1000084C1000060
:1000800082C1000080C100007EC100007CC1000070
:100090007AC1000078C1000076C100000C94980C71
:1000A00072C1000070C100006EC100006CC1000090
:1000B0006AC1000068C1000066C1000064C10000A0
:1000C00062C1000060C100005EC100005CC10000B0
:1000D0005AC1000058C1000056C1000054C10000C0
:1000E00052C100001B101E100D10111017105510DA
:1000F000221026102C10301034103A103E104210EE
:10010000551048104C10501000407A10F35A00A0BF
:10011000724E18090010A5D4E80000E876481700D0
:1001200000E40B54020000CA9A3B000000E1F50510
:10013000000080969800000040420F000000A0865A
:1001400001000000102700000000E803000000008C
:100150006400000000000A00000000000100000030
:1001600000002C76D888DC674F0823DFC1DFAE594A
:10017000E1B1B796E5E3E453C63AE651997696E8DD
:10018000E6C28426EB898C9B62ED407C6FFCEFBC61
:100190009C9F40F2BAA56FA5F490055A2AF75C938C
:1001A0006B6CF9676DC11BFCE0E40D47FEF520E6C2
:1001B000B500D0ED902E0300943577050080841EA5
:1001C000080000204E0A000000C80C333333330F00
:1001D000986E12831141EF8D2114893BE65516CF9D
:1001E000FEE6DB18D1844B381BF77C1D901DA4BBA9
:1001F000E424203284725E228100C9F124ECA1E55E
:100200003D2700002100240027002A002D00300097
:10021000330001010000040107010A010000200071
:100220002300260029002C002F00320000010000CE
:1002300003010601090100002200250028002B000F
:100240002E003100340002010000050108010B01FD
:1002500005050505070508080808020202020A0A42
:100260000808040404040101010101010101030360
:10027000030303030303040707070C0C0C0C0C0C0B
:100280000C0C0202020206060606060606060B0B08
:100290000B0B0B0B0B0B0102102020080810204049
:1002A000102040800201020108040201010204083A
:1002B00010204080804020100804020180040201C8
:1002C0008040201008040201080402010102040811
:1002D00010204080010204081020408000000A0B1A
:1002E00002090C0D0E0807030401000000000000C5
:1002F00000000000000000000000000000000000FE
:1003000000000000000000001211100000000000BA
:1003100000000000000000000000000000000000DD
:100320000000D11D11241FBECFEFD1E2DEBFCDBF33
:1003300000E00CBF25E0A6EFB2E001C01D92A13E97
:10034000B207E1F712E0A0E0B2E0E6E3FAE400E091
:100350000BBF02C007900D92A63FB107D9F711E07D
:10036000C2E9D1E000E006C021970109802FFE011B
:100370000E94D822C139D10780E00807A9F70E945E
:10038000E9140C9419253CCECF93DF93EC018881BE
:100390009981009711F00E948923198218821D8289
:1003A0001C821B821A82DF91CF9108950F931F93B5
:1003B000CF93DF93EC0188819981009729F02A81FE
:1003C0003B812617370788F48B016F5F7F4F0E94B0
:1003D0002124009761F0998388831B830A832C81F1
:1003E0003D81232B11F4FC01108281E001C080E0EB
:1003F000DF91CF911F910F910895EF92FF920F938C
:100400001F93CF93DF93FC01248135816115710522
:1004100011F480E018C041155105A1F07B01EC01F9
:100420008A01020F131FB801C1DF882391F32881CD
:1004300039818C819D81B701820F931F0E94122503
:100440001D830C8381E0DF91CF911F910F91FF906D
:10045000EF900895EF92FF920F931F93CF93DF9346
:100460008C0190915D0481E0890F80935D04E82EFA
:10047000F12C27E0829FC00111240E94F422EC019C
:10048000FC01A70181E0E114F10461F01182108206
:1004900013821282158214828683379661E0E61AEF
:1004A000F108F1CF90E04150510987E0292F30E069
:1004B000E0915B04F0915C042417350784F467E055
:1004C000969F90011124DE01A20FB31FE20FF31FCC
:1004D000282F01900D922A95E1F79F5FE7CF309783
:1004E00019F0CF010E948923D0935C04C0935B0470
:1004F00080915D0497E0899FC00DD11D112427973D
:100500001983088388EE93E09B838A831D821C8273
:1005100081E08E83DF91CF911F910F91FF90EF903B
:100520000895382F209187049091BD03213208F05F
:1005300049C080919B038111FCCF42E040939B0313
:1005400030939A033FEF30939903109298032093CE
:100550009703ADE9B3E047E753E0FA013E2F341BC0
:10056000321718F43D913193F9CF10927603209110
:100570007603990F922B90937603909175039130A7
:1005800061F410927503909176039093BB00909163
:10059000BC0093FDF8CF95EC01C095EE9093BC00A4
:1005A00090919B039230E1F3909199039F3F79F0F2
:1005B00080919903803241F080919903803331F02A
:1005C00084E005C081E003C082E001C083E01092B6
:1005D00088041092870410929C030895FF920F9351
:1005E0001F93CF93DF939093840480938304C0E0A0
:1005F000D1E0E0918304F09184048481C817D0F4A1
:1006000092818381E92FF82FEC0FF11DEC0FF11D82
:1006100080819181DC01ED91FC910480F581E02DD8
:100620001995019729F0E0918304F0918404D58312
:10063000CF5FDFCF809181048F3F41F02481809193
:10064000650490916604211118C01AC020916C04B1
:10065000A0916A04B0916B0480E090E0821751F0A1
:100660004D915D914E175F0719F48093820491E0DC
:100670008F5FF4CF9111E2CF71C02581211110C09D
:1006800010926904FC0166816D7F668368600E9438
:10069000C811A0918304B091840480E021E047C098
:1006A00021E0209369040E94D811D4E684E6F82E54
:1006B000C0E0E0918304F09184048481C81790F530
:1006C00092818381E92FF82FEC0FF11DEC0FF11DC2
:1006D00000811181D801ED91FC910480F581E02D1C
:1006E000C80119950197E1F0F8012581422F50E0EA
:1006F0008D2F0D2E000C990B4817590751F484814A
:1007000090E04F2D0F2C000C550B8417950724F00B
:1007100007C04817590724F4D8011496FC90D22F2B
:10072000CF5FC7CFF0926704D0936804B2CF14961E
:100730009C911497891790F412963C9112971396F6
:100740009C911397E32FF92FE80FF11DE80FF11D8E
:100750000190F081E02D23838F5FE9CFDF91CF916E
:100760001F910F91FF900895EF92FF920F931F93A7
:10077000CF93DF937C0100916C040F5F00936C04B6
:1007800010E0C801880F991F0E94F422EC018091AB
:100790006A0490916B0440E001501109242F30E06D
:1007A0002017310774F4220F331FFC01E20FF31FEF
:1007B00060817181FE01E20FF31F718360834F5FDF
:1007C000EDCF009711F00E948923D0936B04C09362
:1007D0006A0480916C049E01280F311D280F311D81
:1007E000F9013297F182E082DF91CF911F910F9151
:1007F000FF90EF900895CF93DF93282F30E0F90119
:10080000E452FD4F8491F901EA56FD4FD491F9016C
:10081000E05BFD4FC491CC2389F081110E94001050
:10082000EC2FF0E0EE0FFF1FEA5CFD4FA591B491B5
:100830008FB7F894EC91ED2BEC938FBFDF91CF91B4
:1008400008950F931F93CF93DF938C018EEE94E066
:10085000909366048093650481E0809369048FEF30
:10086000809367048093680410928A04109289042C
:1008700010928804109287040E94C90D1092F3040C
:100880008091F804823018F098E09093F3048093FC
:10089000F60462E370E080E090E00E945610609100
:1008A000F9048EEE94E00E94891168EE73E080E016
:1008B00090E00E94561060E38EEE94E00E949D113D
:1008C000CBE4D6E4CE010197F1F760E38EEE94E03D
:1008D0000E949D112197F1F760E38EEE94E00E9453
:1008E0009D1183E592E00197F1F760E28EEE94E0CE
:1008F0000E949D119091F304692F60628EEE94E046
:100900000E94C81184E08093F4046CE08EEE94E0C1
:100910000E94C8118EEE94E00E940C1282E0809337
:10092000F50466E08EEE94E00E94C81162E08EEE5F
:1009300094E00E94C811EBE3FFE13197F1F7E091F9
:100940006504F091660488E0838760E0CF010E942F
:10095000891180916504909166040E94D81140E04D
:1009600060E080916504909166040E94DF11B801F7
:1009700080916504909166040E94DB1468EE73E038
:1009800080E090E00E94561080916504909166048A
:100990000E940C128FEF80938204DF91CF911F9100
:1009A0000F9108958F929F92AF92BF92EF92FF9214
:1009B0000F931F93CF93DF9390916C0320916D035E
:1009C00030916E0300E0091709F467C02D5F3F4FB7
:1009D000F90133974081481711F00F5FF4CF282FAA
:1009E00030E0F901E452FD4F8491F901EA56FD4FE0
:1009F000D491F901E05BFD4FC49110E0CC2379F074
:100A000081110E940010EC2FF0E0EE0FFF1FE45E5A
:100A1000FD4FA591B491EC91ED2309F067C00E94C0
:100A20008E107801EE0CFF1CEE0CFF1CE0917103A0
:100A3000F09172039801220F331FE20FF31FA09170
:100A40006F03B0917003AE0DBF1D8D909D90AD9062
:100A5000BC909B01AC01281939094A095B0949017D
:100A60005A014081518160E070E080917303909160
:100A70007403481559056A057B0548F421E0DC013B
:100A8000A00FB11F2C9324E630E031832083FC01BA
:100A9000E00FF11FC081C11102C0C0E04DC00E9433
:100AA0008E1020916F0330917003E20EF31EF70158
:100AB00080809180A280B380DC01CB0188199909E4
:100AC000AA09BB094497A105B10538F30E948E100D
:100AD000F701608371838283938380917303909184
:100AE0007403FC01E00FF11F108226C0C801880FBB
:100AF000991F880F991FC0916F03D0917003C80F81
:100B0000D91F0E948E10688379838A839B83E0912A
:100B10007303F0917403E00FF11F81E08083000FF5
:100B2000111FE0917103F0917203E00FF11F88EE45
:100B300093E091838083B1CF8C2FDF91CF911F9170
:100B40000F91FF90EF90BF90AF909F908F9008957E
:100B5000CF93DF93EC016115710559F0FB01019012
:100B60000020E9F73197AF01461B570B46DC811196
:100B700002C0CE0109DCCE01DF91CF910895CF9361
:100B8000DF93EC01FB01448155816081718135DC8B
:100B9000811102C0CE01F8DBCE01DF91CF91089523
:100BA000EF92FF920F931F93CF93DF93EC017B01A2
:100BB0008A01BA01FBDB811103C0CE01E5DB07C06E
:100BC0001D830C83B701888199810E941225CE0173
:100BD000DF91CF911F910F91FF90EF900895CF93E8
:100BE000DF93EC016115710551F0FB0101900020CC
:100BF000E9F73197AF01461B570BD2DF01C0C4DBC9
:100C0000CE01DF91CF910895CF93DF93EC01FB01EB
:100C10008617970751F0608171816115710521F088
:100C200044815581BDDF01C0AFDBCE01DF91CF91A3
:100C30000895FC01808191810C948923EF92FF92A9
:100C40000F931F93CF93DF93CDB7DEB7A1970FB666
:100C5000F894DEBF0FBECDBF7C01CB01BA01F70116
:100C600011821082138212821582148242E0420F96
:100C70008E010F5F1F4F0E94421EBC01C701AFDFF4
:100C8000A1960FB6F894DEBF0FBECDBFDF91CF9116
:100C90001F910F91FF90EF9008950F931F93CF93A3
:100CA000DF93CDB7DEB762970FB6F894DEBF0FBE05
:100CB000CDBF8C01CB01F801118210821382128208
:100CC0001582148250E0BE016F5F7F4F0E94611E4B
:100CD000BE016F5F7F4FC80182DF62960FB6F89446
:100CE000DEBF0FBECDBFDF91CF911F910F91089551
:100CF0000F931F93CF93DF93CDB7DEB729970FB62E
:100D0000F894DEBF0FBECDBF8C01862FF801118293
:100D10001082138212821582148250E0BE016F5F2E
:100D20007F4F90E00E94751EBE016F5F7F4FC8012C
:100D300056DF29960FB6F894DEBF0FBECDBFDF9108
:100D4000CF911F910F910895FC011182108213829F
:100D500012821582148258CFEF92FF920F931F9345
:100D6000CF93DF93CDB7DEB72C970FB6F894DEBFE5
:100D70000FBECDBF7C0165E872E0CE0107960E94F0
:100D8000C614F701208931892115310511F4128526
:100D900001C0122F00E00117A1F0BE01695F7F4F73
:100DA000CE010196D1DF64E872E0CE010196D0DE7B
:100DB000BC01CE01079628DFCE0101963ADF0F5F16
:100DC000EACFF701458164818091650490916604C2
:100DD0000E94DF11BE01695F7F4F80916504909191
:100DE00066040E94DB14CE01079623DF2C960FB613
:100DF000F894DEBF0FBECDBFDF91CF911F910F9151
:100E0000FF90EF9008951F93CF93DF93809182041A
:100E10008F3F79F48091650490916604DC01ED9137
:100E2000FC910280F381E02D47E050E065EE72E036
:100E3000199510E0E0918304F091840484811817DF
:100E400080F592818381E92FF82FE10FF11DE10FE9
:100E5000F11DC081D1818B81882309F18A818111A3
:100E600003C0CE0179DF1AC0288939898A859B851C
:100E70008217930710F4CE016FDF4D816C81809152
:100E80006504909166040E94DF11BE016A5F7F4F86
:100E900080916504909166040E94DB141B821F5FA1
:100EA000C9CF409168046091670480916504909176
:100EB0006604DF91CF911F910C94DF11089585EDA9
:100EC0008093BC008091BC0084FDFCCF10929B03FA
:100ED00008954091AF05262F30E0240F311D2132B7
:100EE0003105DCF420919B032430C9F4FC0180E03F
:100EF00090E0861758F43091AF052191DC01A3579B
:100F0000BA4FA30FB11D2C930196F3CF8091AF057B
:100F1000680F6093AF0580E0089581E0089582E056
:100F200008950895E0918A0480918904E81730F4C7
:100F3000F0E0E050FD4F808190E008958FEF9FEF4B
:100F4000089590918A0480918904981750F4E92FAC
:100F5000F0E0E050FD4F208130E09F5F90938A04E5
:100F600002C02FEF3FEFC90108958091890490E0FE
:100F700020918A04821B91090895CF92DF92EF920B
:100F8000FF920F931F93CF93DF937C01262F972F10
:100F90008A0180919C03882391F0C62FD72F6E0180
:100FA000C40ED51ECC15DD0569F06991D701ED9110
:100FB000FC910190F081E02DC7011995F3CF642FCA
:100FC000822F87DFC801DF91CF911F910F91FF9092
:100FD000EF90DF90CF900895CF93DF931F92CDB71E
:100FE000DEB7698320919C032223D1F020918704EE
:100FF000203240F021E030E0FC013383228380E0A6
:1010000090E014C080918804E82FF0E0E356FC4F94
:10101000998190838F5F809388048093870404C0B4
:1010200061E0CE01019655DF81E090E00F90DF9105
:10103000CF910895EF92FF920F931F93CF93DF9379
:10104000EC017B018C010A5F1F4FB8010C96DCDDBF
:10105000B701C801D9DD81E08B83DF91CF911F916A
:101060000F91FF90EF900895CF93DF93EC0188E408
:1010700092E099838883CE010C96DBDDCE01069643
:10108000DF91CF91D6CDCF93DF93EC01EDDFCE0191
:10109000DF91CF910C948923CF93DF93CDB7DEB747
:1010A000A4970FB6F894DEBF0FBECDBF4AE06091A3
:1010B0002403CE010D961CDE4AE060912503CE018B
:1010C000079616DE6091260370E06F3171051CF003
:1010D0006E51710906C08EE190E09C01261B370B12
:1010E000B9014AE0CE014F96D8DD6DEE72E0CE0137
:1010F00043960E94C614BE016D5E7F4FCE01499695
:1011000023DEBE01615E7F4FCE01499638DDBC0112
:10111000CE01019619DECE0149968BDDCE014396B4
:1011200088DDCE014F9685DD89899A890197E1F4A2
:101130006DE872E0CE0143960E94C614BE016D5E5A
:101140007F4FCE01499600DEBE01635F7F4FCE0127
:10115000499615DDBC01CE010D9656DDCE014996AE
:1011600068DDCE01439665DD8B859C850197E1F4B2
:101170006DE872E0CE0143960E94C614BE016D5E1A
:101180007F4FCE014996E0DDBE01695F7F4FCE0102
:101190004996F5DCBC01CE01079636DDCE014996B5
:1011A00048DDCE01439645DDBE01635F7F4FCE0132
:1011B0004396CADD60EF72E0CE014396C9DCBE0102
:1011C000695F7F4FDCDC60EF72E0C2DCBE016F5F05
:1011D0007F4FD5DCBC01CE014996B6DDBE01675E0E
:1011E0007F4F8091FE029091FF0224DFCE0149964D
:1011F00020DDCE0143961DDDCE0101961ADDCE0124
:10120000079617DDCE010D9614DDA4960FB6F8945F
:10121000DEBF0FBECDBFDF91CF910895CF93DF9397
:10122000CDB7DEB76E970FB6F894DEBF0FBECDBF59
:101230004AE060912203CE010D965ADD4AE06091AA
:101240002103CE01079654DD4AE060912003CE01D0
:1012500001964EDD89899A890197E1F46DE872E083
:10126000CE0143960E94C614BE016D5E7F4FCE0133
:1012700049966ADDBE01635F7F4FCE0149967FDCF0
:10128000BC01CE010D96C0DCCE014996D2DCCE0168
:101290004396CFDC8B859C850197E1F46DE872E085
:1012A000CE0143960E94C614BE016D5E7F4FCE01F3
:1012B00049964ADDBE01695F7F4FCE0149965FDCEA
:1012C000BC01CE010796A0DCCE014996B2DCCE016E
:1012D0004396AFDC8D819E810197E1F46DE872E069
:1012E000CE0143960E94C614BE016D5E7F4FCE01B3
:1012F00049962ADDBE016F5F7F4FCE0149963FDCE4
:10130000BC01CE01019680DCCE01499692DCCE0173
:1013100043968FDCBE01635F7F4FCE01439614DDA1
:1013200062EF72E0CE01439613DCBE01695F7F4F2E
:1013300026DC62EF72E00CDCBE016F5F7F4F1FDCCA
:10134000BC01CE01499600DDBE01675E7F4F8091F2
:10135000FC029091FD026EDECE0149966ADCCE0160
:10136000439667DCCE01019664DCCE01079661DC12
:10137000CE010D965EDC6E960FB6F894DEBF0FBE02
:10138000CDBFDF91CF9108952F923F924F925F9200
:101390006F927F928F929F92AF92BF92CF92DF9285
:1013A000EF92FF920F931F93CF93DF93482F2091DB
:1013B0006704022E000C330BC90106976AE070E047
:1013C0000E94C52280906804880C8A948A94860EB4
:1013D000C42FD0E026E0429FC0011124FC01E80D9B
:1013E000F11DA3E0EE0FFF1FAA95E1F7E350FB4FBD
:1013F00060817181E280F380A480B580668077800F
:101400008E0106501B4FF8012080312CF1E02F1A7D
:101410003108982CE92DF0E0E215F3050CF04DC0F1
:10142000292D2170522E550C252D220F220F520EE0
:10143000492C46944394DF011196A80FB91F23E06D
:10144000AA0FBB1F2A95E1F7A350BB4FCD90DC90AC
:101450001197E80FF91F33E0EE0FFF1F3A95E1F700
:10146000E350FB4FD182C08212964D915C9113974D
:101470005383428314962D913C9115973583248391
:1014800016960D90BC91A02DB783A683F6015482C9
:101490004582E2E0DE2ED50CFA01D482458243E09B
:1014A000450DF9014483458226E0250D14962C93C1
:1014B000149715964C929394ADCFE091FA02F09167
:1014C000FB02828993890E942214E091FA02F09132
:1014D000FB02B701828993890E942214E091FA02EB
:1014E000F091FB02B501828993890E942214E09158
:1014F000FA02F091FB02B301828993890E942214BF
:10150000809165049091660487D7809183049091BF
:10151000840464D8F8018081815080838DE18C9FA0
:1015200090018D9F300D1124F901E956FB4F608128
:10153000462F50E041505109882D90E084179507BF
:101540000CF5DC011196AA0FBB1FAA0FBB1FA20F3F
:10155000B31FA956BB4F11960D911C911297FC0118
:10156000EE0FFF1FEE0FFF1FE20FF31FE956FB4FB9
:101570001283018313968D919C9114979483838396
:101580008394DACF8DE18C9FF0018D9FF00D1124B3
:10159000E956FB4F61506083DF91CF911F910F910E
:1015A000FF90EF90DF90CF90BF90AF909F908F9083
:1015B0007F906F905F904F903F902F90089582E0C2
:1015C000E3CE81E0E1CE80E0DFCE2F923F924F92DA
:1015D0005F926F927F928F929F92AF92BF92CF92C3
:1015E000DF92EF92FF920F931F93CF93DF93CDB7CC
:1015F000DEB727970FB6F894DEBF0FBECDBF882E9B
:10160000912C940126503B4F3901F901108116307D
:1016100009F4ECC0912F9170F92EFF0C2F2D220FA1
:10162000220FF20E16951F5F813069F038F082307C
:1016300081F4E091F602F091F70209C0E091FA021C
:10164000F091FB0204C0E091F802F091F902C28827
:10165000D3888F8383E290E00E94F4222C01E12E54
:101660000F2D20E030E040E451E4B601A2D7F301B1
:10167000808196E0989D5001999DB00C11249501B0
:10168000280F311DC90123E0880F991F2A95E1F722
:10169000FC01E350FB4F1F015182408280E090E04B
:1016A000A0E4B1E4F201838F948FA58FB68F62EF2F
:1016B00072E0CE0101960E94C61482E190E00E9481
:1016C000F4222C0122E02F0D012FAE014F5F5F4F5E
:1016D000B6010E94A313F10153824282CE0101960A
:1016E000A8DA83E290E00E94F4222C0103E00F0DBF
:1016F00020E030E040E751E4B6015BD7F301E08041
:10170000AE0CB11CC50133E0880F991F3A95E1F783
:101710009C0123503B4F1901F9015582448280E01E
:1017200090E0ACE6B2E4F201838F948FA58FB68F80
:1017300064EF72E0CE0101960E94C61484E190E04D
:101740000E94F4225C0126E02F0D012FAE014F5FB5
:101750005F4FB60168D6F101B782A682CE0101962D
:1017600068DAFF81F13049F028F0F23059F48FED5A
:101770009AE005C083EE9AE002C081EE9AE0F5019E
:10178000938B828BE394F301E0828DE1889DD001FD
:10179000899DB00D1124FD01E956FB4F808191E038
:1017A000980F9083F4E08F9FA00DB11D1124A956CE
:1017B000BB4F96E0989DF001999DF00D1124E80F24
:1017C000F11D83E0EE0FFF1F8A95E1F7E350FB4F19
:1017D00080819181469612969C938E931197848175
:1017E0009581469614969C938E93139727960FB6E1
:1017F000F894DEBF0FBECDBFDF91CF911F910F9147
:10180000FF90EF90DF90CF90BF90AF909F908F9020
:101810007F906F905F904F903F902F90089582E05F
:10182000D4CE81E0D2CE80E0D0CE6F927F928F92E4
:101830009F92AF92BF92CF92DF92EF92FF920F935F
:101840001F93CF93DF9300D000D0CDB7DEB76C01EC
:101850004B015A01122F88E492E0F60191838083B4
:1018600081E08283138265E872E0C60106960E94D9
:10187000C61465E872E0C6010C960E94C614F40115
:10188000648063946482712CC301880F991F0E9445
:10189000F4227C0120E0F1E06F1A7108422F50E041
:1018A000F401828193814615570574F4440F551F46
:1018B000FC01E40FF51F80819181F701E40FF51F12
:1018C000918380832F5FEACF009711F00E948923D4
:1018D000F401F382E2828481F701E80FF11DE80F41
:1018E000F11D3297D182C082B501CE0101962CDA6A
:1018F000BE016F5F7F4FC6019DDBCE01019699D976
:10190000F6011483058326960FB6F894DEBF0FBE4A
:10191000CDBFDF91CF911F910F91FF90EF90DF909E
:10192000CF90BF90AF909F908F907F906F900895D1
:101930001F920F920FB60F9211240BB60F922F9396
:101940003F934F935F936F937F938F939F93AF9347
:10195000BF93EF93FF938091B900887F803609F49D
:101960009CC068F5883209F45BC090F4803109F4BA
:1019700054C038F4882309F4F6C0883009F44DC007
:10198000F5C0883109F44CC0803209F45DC0EEC066
:10199000803409F468C048F4803309F455C08833B2
:1019A00009F0E4C080939903D8C0803509F44FC092
:1019B000883509F45DC0883409F0D8C0D6C08839AC
:1019C00009F4C7C0A8F4883709F467C038F488362A
:1019D00009F463C0803709F460C0C8C0883809F4CE
:1019E000B8C0803909F45FC0803809F0BFC05BC05F
:1019F000803B09F486C038F4803A09F466C0883A1E
:101A000009F47FC0B3C0803C09F4A7C0883C09F446
:101A1000A4C0883B09F48AC0A9C08091760310C095
:101A20009091980380919703981770F5E09198032F
:101A300081E08E0F80939803F0E0E958FC4F80819D
:101A40008093BB0085EC86C0809399038EC0E091A3
:101A5000980381E08E0F809398038091BB00F0E0A3
:101A6000E958FC4F808390919803809197036EC052
:101A7000E091980381E08E0F809398038091BB00E2
:101A8000F0E0E958FC4F808380919A0381116DC08A
:101A900081E08093750384EA61C083E080939B03B7
:101AA0001092D305CFCF8091D305803208F051C07A
:101AB000E091D30581E08E0F8093D3058091BB0028
:101AC000F0E0ED54FA4F8083BDCF85EC8093BC00ED
:101AD00010929B038091D305803230F4E091D305BE
:101AE000F0E0ED54FA4F10826091D30570E0E09180
:101AF000B105F091B20583EB95E019951092D305ED
:101B000035C084E080939B031092B0051092AF051E
:101B1000E091AD05F091AE0519958091AF05811169
:101B200005C081E08093AF0510928D05E091B0056E
:101B300081E08E0F8093B005F0E0E357FA4F80818B
:101B40008093BB009091B0058091AF05981708F481
:101B500079CF85E88093BC0009C085EC8093BC00F8
:101B600010929B0303C010929903A9D9FF91EF91A2
:101B7000BF91AF919F918F917F916F915F914F91A5
:101B80003F912F910F900BBE0F900FBE0F901F90A3
:101B9000189510929B0381E080939A03109275032D
:101BA00084E10E94FB0385E10E94FB03E9EBF0E086
:101BB00080818E7F808380818D7F808388E4809385
:101BC000B80085E48093BC00089528E132E0FC0170
:101BD0003183208333C1CF93DF93EC01F6DFCE0155
:101BE000DF91CF910C948923FC01918D828D981700
:101BF00061F0828DDF01A80FB11D5D968C91928DF1
:101C00009F5F9F73928F90E008958FEF9FEF0895ED
:101C1000FC01918D828D981731F0828DE80FF11DB6
:101C2000858D90E008958FEF9FEF0895FC01918DD1
:101C3000228D892F90E0805C9F4F821B91098F73CA
:101C4000992708958EEB93E0F1DF21E0892B09F4C9
:101C500020E0822F0895FC01848DDF01A80FB11DC3
:101C6000A35ABF4F2C91848D90E001968F739927D2
:101C7000848FA689B7892C93A089B1898C918064BF
:101C80008C93938D848D981306C00288F389E02D80
:101C900080818F7D80830895EF92FF920F931F9331
:101CA000CF93DF93EC0181E0888F9B8D8C8D98130F
:101CB00005C0E889F989808185FD23C0F62E0B8D4A
:101CC00010E00F5F1F4F0F731127E02E8C8DE8126D
:101CD0000BC00FB607FCFACFE889F989808185FF30
:101CE000F5CFCE01B8DFF2CF8B8DFE01E80FF11DED
:101CF000E35AFF4FF0820B8FEA89FB898081806273
:101D000007C0EE89FF896083E889F9898081806452
:101D1000808381E090E0DF91CF911F910F91FF9040
:101D2000EF900895CF93DF93EC01888D8823C1F065
:101D3000EA89FB89808185FD05C0A889B9898C91D4
:101D400086FD0EC00FB607FCF5CF808185FFF2CF70
:101D5000A889B9898C9185FFEDCFCE017CDFE8CFD2
:101D6000DF91CF91089580E090E0892B19F06ADF30
:101D7000811125C080E090E0892B41F080E090E067
:101D8000892B21F00E94000081111CC080E090E0AE
:101D9000892B41F080E090E0892B21F00E94000027
:101DA000811113C080E090E0892BA1F080E090E0E9
:101DB000892B81F00E94000081110AC008950E94C1
:101DC0000000D8CF0E940000E1CF0E940000EACFBF
:101DD0000C94000008953FB7F8948091D905909134
:101DE000DA05A091DB05B091DC0526B5A89B05C0FE
:101DF0002F3F19F00196A11DB11D3FBFBA2FA92F8A
:101E0000982F8827820F911DA11DB11DBC01CD0106
:101E100042E0660F771F881F991F4A95D1F70895F2
:101E200082E090E0089583E090E0089581E090E002
:101E3000089580E090E008950E9405250F931F9378
:101E4000CF938C0180E192E0D8018D939C93C0E008
:101E5000F80184810280F381E02DC81788F4EC0F2B
:101E6000F11DEC0FF11D80819181009739F0DC01AB
:101E7000ED91FC910280F381E02D1995CF5FE8CFC1
:101E8000309731F0CF01CF911F910F910C9489239E
:101E9000CF911F910F910895CF93DF93EC01CEDF87
:101EA000CE01DF91CF910C94892328E732E0FC0129
:101EB00031832083D9C8CF93DF93EC01F6DFCE01C5
:101EC000DF91CF910C9489232EE632E0FC0131831F
:101ED0002083CAC8CF93DF93EC01F6DFCE01DF91F8
:101EE000CF910C94892324E632E0FC0131832083D6
:101EF000BBC8CF93DF93EC01F6DFCE01DF91CF912A
:101F00000C948923CF93DF93EC018AE592E09983C7
:101F100088838A899B89009739F0DC01ED91FC91D7
:101F20000280F381E02D1995CE01DF91CF919CC8FD
:101F3000CF93DF93EC01E6DFCE01DF91CF910C94DC
:101F400089231F920F920FB60F9211240BB60F9296
:101F50002F933F934F935F936F937F938F939F93B1
:101F6000AF93BF93EF93FF938EEB93E074DEFF91FB
:101F7000EF91BF91AF919F918F917F916F915F9101
:101F80004F913F912F910F900BBE0F900FBE0F906E
:101F90001F9018951F920F920FB60F9211240BB637
:101FA0000F922F938F939F93EF93FF93E091CE0324
:101FB000F091CF038081E091D403F091D50382FDAD
:101FC00012C090818091D7038F5F8F732091D803C7
:101FD000821751F0E091D703F0E0E254FC4F958F67
:101FE0008093D70301C08081FF91EF919F918F91E2
:101FF0002F910F900BBE0F900FBE0F901F90189552
:1020000090E0FC013197E231F10508F04EC08827DD
:10201000EE58FF4F8F4F0C94D822809180008F771D
:1020200003C0809180008F7D80938000089580910F
:102030008000877FF9CF84B58F7702C084B58F7D0C
:1020400084BD08958091B0008F7703C08091B00067
:102050008F7D8093B0000895809190008F7707C0A6
:10206000809190008F7D03C080919000877F809346
:10207000900008958091A0008F7707C08091A00004
:102080008F7D03C08091A000877F8093A00008957A
:10209000809120018F7707C0809120018F7D03C040
:1020A00080912001877F8093200108958F929F92D5
:1020B000AF92BF92CF92DF92EF92FF926B017C01C1
:1020C0008ADE4B015C01C114D104E104F104E9F0A2
:1020D00082DEDC01CB0188199909AA09BB09883E77
:1020E0009340A105B10578F321E0C21AD108E108B7
:1020F000F10888EE880E83E0981EA11CB11CC11463
:10210000D104E104F10421F7DECFFF90EF90DF90DE
:10211000CF90BF90AF909F908F9008952FB7F89475
:102120006091D5057091D6058091D7059091D8051D
:102130002FBF08951F920F920FB60F9211242F9365
:102140003F938F939F93AF93BF938091D5059091C9
:10215000D605A091D705B091D8053091D40523E0DC
:10216000230F2D3720F40196A11DB11D05C026E8CF
:10217000230F0296A11DB11D2093D4058093D50590
:102180009093D605A093D705B093D8058091D90533
:102190009091DA05A091DB05B091DC050196A11DB7
:1021A000B11D8093D9059093DA05A093DB05B09318
:1021B000DC05BF91AF919F918F913F912F910F902F
:1021C0000FBE0F901F9018951F920F920FB60F928F
:1021D00011240BB60F922F933F934F935F936F93FE
:1021E0007F938F939F93AF93BF93CF93DF93EF939F
:1021F000FF9386E09FEF9093850080938400809109
:102200005D04882309F470C080916004909161049A
:102210000196909361048093600420916204309150
:1022200063048217930708F45FC010926104109250
:10223000600480916404E0915B04F0915C0427E009
:10224000829FE00DF11D11248681882321F00190E9
:10225000F081E02D199560915D04A0916204B09128
:102260006304E0915B04F0915C0420E0CF01261749
:1022700049F0448155814A1B5B0B558344832F5F92
:102280003796F5CF20916404FC0137E0239FE00DE1
:10229000F11D11242281338135832483109264043B
:1022A000FC0121E030916404261790F4EC0147E032
:1022B000349FC00DD11D1124A385B4854C815D814F
:1022C000A417B50710F4209364042F5F3796EACF64
:1022D000FC0127E0329FE00DF11D112484819581DE
:1022E0009093630480936204FF91EF91DF91CF910B
:1022F000BF91AF919F918F917F916F915F914F911E
:102300003F912F910F900BBE0F900FBE0F901F901B
:102310001895FC01248131E030939C032093BD0388
:1023200010928804109287048385682B8BE894E0D0
:102330000E94EC0781E00C9491020F931F93CF93BE
:102340008C01C62FE6DF6C2F6460C801E2DF6C2FC2
:102350006B7FC801DEDF83EC90E00197F1F7CF914E
:102360001F910F9108950F931F93CF938C01C62F48
:10237000607F6160E2DF80E1C89FB001112461608D
:10238000C801DBDF81E090E0CF911F910F910895AC
:102390000F931F93CF938C01C62F607FCEDF80E118
:1023A000C89FB0011124C801CF911F910F91C5CFD3
:1023B000FC016681262F226026836A60E9CFCF93D5
:1023C000DF93CDB7DEB728970FB6F894DEBF0FBE08
:1023D000CDBF9C0188E0EEE4F2E0DE0111960190B1
:1023E0000D928A95E1F7F9018085841710F44FEF7B
:1023F000480FFE013196E40FF11DE40FF11D9081AD
:10240000690F6068C90128960FB6F894DEBF0FBE49
:10241000CDBFDF91CF91BCCF61E0BADF8BE39FE10D
:102420000197F1F70895CF92DF92EF92FF920F9309
:10243000CF93DF93CDB7DEB727970FB6F894DEBF03
:102440000FBECDBF7C016B01BA01CE0101962F8377
:102450000E94A4062F81AE014F5F5F4FB601C701F6
:10246000E4D9CE0101960E94190684E692E0F701B4
:1024700091838083138A128A27960FB6F894DEBF61
:102480000FBECDBFDF91CF910F91FF90EF90DF9006
:10249000CF900895AF92BF92DF92EF92FF920F9389
:1024A0001F93CF93DF93CDB7DEB72C970FB6F89479
:1024B000DEBF0FBECDBF8C015B0165E872E0CE01CF
:1024C000019664D2F801278D30A141A152A1638DFC
:1024D000748D858D968D0E94C1221816A4F1780105
:1024E000F6E0EF0EF11CB701C8010C960E9404063D
:1024F000BE016F5F7F4FCE0107960E94A406B50113
:10250000CE0107960E94BF05BC01C7010E940406C8
:10251000CE0107960E94190681E0F8018383CE015F
:1025200001960E9419062C960FB6F894DEBF0FBED6
:10253000CDBFDF91CF911F910F91FF90EF90DF9072
:10254000BF90AF900895D12CF801638D748D858D67
:10255000968D0E9490224AE0CE0107960E944D0679
:10256000EB84FC84F50184819581E81AF90ACE0197
:1025700007960E9419068D2D90E08E159F0508F094
:10258000AECFBE016F5F7F4FCE0107960E94A406BB
:102590006DE872E0CE0107960E94A805BC01CE014D
:1025A00001960E940406CE0107960E941906D39454
:1025B000CBCF4F925F926F927F928F929F92AF920A
:1025C000BF92CF92DF92EF920F93CF93DF93CDB76D
:1025D000DEB72B970FB6F894DEBF0FBECDBF6C01F0
:1025E0003B0149015A01202F0E2D65E872E0CE0112
:1025F00001962B87CBD12B85AE014F5F5F4FB30187
:10260000C60113D9CE0101960E9419068EE692E00A
:10261000F60191838083138E148E158E168E178E7D
:1026200010A211A212A2C501B4010E9490226F83D0
:10263000788789879A872F813885B901330F880B6E
:10264000990B0E9413219B01AC01C501B4010E94AA
:10265000C32120E030E0A9010E940D21811105C0B5
:1026600080E090E0A0E8BFE31AC02AE037ED43E243
:102670005CE3C501B4010E9428220E949022CB0194
:102680006AE070E00E94C522811105C08DEC9CECCF
:10269000ACECBDE304C08AE097EDA3E2BCE3F60135
:1026A000828B938BA48BB58BF601868A978AA08E3A
:1026B000B18E4288538864887588C301B2010E9434
:1026C0009022072E000C880B990B0E9413219B016E
:1026D000AC01C301B2010E94C32120E030E0A90196
:1026E0000E940D21811108C04AE06F817885CE01DA
:1026F00001960E944D0607C022E0B501A401CE015B
:1027000001960E941E06BE016F5F7F4FC601C2DEAA
:10271000CE0101960E941906F601128E2B960FB675
:10272000F894DEBF0FBECDBFDF91CF910F91EF9038
:10273000DF90CF90BF90AF909F908F907F906F90E1
:102740005F904F900895CF92DF92EF92FF920F9398
:10275000CF93DF93CDB7DEB727970FB6F894DEBFE0
:102760000FBECDBF7C016B01BA01CE0101962F8354
:102770000E94A4062F81AE014F5F5F4FB601C701D3
:1027800054D8CE0101960E94190688E792E0F7011D
:102790009183808327960FB6F894DEBF0FBECDBF1E
:1027A000DF91CF910F91FF90EF90DF90CF90089540
:1027B000CF92DF92EF92FF920F93CF93DF93CDB73B
:1027C000DEB727970FB6F894DEBF0FBECDBF7C01F2
:1027D0006B01BA01CE0101962F830E94A4062F81BE
:1027E000AE014F5F5F4FB601C7011FD8CE01019602
:1027F0000E9419068AE592E0D7018D939C9386E0AA
:1028000090E00E94F422FC0186E0DF011D928A958F
:10281000E9F71482158288E192E091838083D701E1
:102820005396FC93EE93529727960FB6F894DEBF1B
:102830000FBECDBFDF91CF910F91FF90EF90DF9052
:10284000CF900895AF92BF92CF92DF92EF92FF9216
:102850000F931F93CF93DF93EC019C8120E030E036
:10286000EE24EA94FE2C291780F4EA81FB81A90169
:10287000440F551FE40FF51F40815181461757073C
:1028800009F479012F5F3F4FEECF8FEFE816F8067E
:1028900009F446C0992311F091509C838B01CC80A0
:1028A000D12CC601880F991F0E94F4225C0150E0D0
:1028B00040E0252F30E0C216D306ACF02E153F05C0
:1028C00081F0220F331FEA81FB81E20FF31F808129
:1028D0009181F501E40FF11DE40FF11D91838083D7
:1028E0004F5F5F5FE6CF8A819B81009711F00E9466
:1028F0008923AA82BB820115110591F0D801ED91BF
:10290000FC910280F381E02DC801DF91CF911F91EE
:102910000F91FF90EF90DF90CF90BF90AF90199400
:10292000DF91CF911F910F91FF90EF90DF90CF90AB
:10293000BF90AF900895CF92DF92EF92FF920F93E6
:102940001F93CF93DF936C017A018B01C0E0D0E03D
:10295000CE15DF0589F0D8016D918D01D601ED917D
:10296000FC910190F081E02DC6011995892B11F49D
:102970007E0102C02196ECCFC701DF91CF911F915C
:102980000F91FF90EF90DF90CF900895FC0111829E
:10299000108213821282158214826115710551F022
:1029A000FB0101900020E9F73197AF01461B570B5F
:1029B0000C94D0050895DC01ED91FC91DB01149697
:1029C0004D915C9115976D917C910280F381E02D82
:1029D0001994CF93DF93CDB7DEB72C970FB6F89449
:1029E000DEBF0FBECDBF789484B5826084BD84B550
:1029F000816084BD85B5826085BD85B5816085BDFA
:102A000080916E00816080936E00109281008091B1
:102A10008100826080938100809181008160809339
:102A20008100809180008160809380008091B1005E
:102A300084608093B1008091B00081608093B00089
:102A400080919100826080939100809191008160DB
:102A5000809391008091900081608093900080919C
:102A6000A10082608093A1008091A1008160809389
:102A7000A1008091A00081608093A000809121013D
:102A800082608093210180912101816080932101E6
:102A90008091200181608093200180917A00846080
:102AA00080937A0080917A00826080937A0080918E
:102AB0007A00816080937A0080917A0080688093A8
:102AC0007A001092C100E091CE03F091CF0382E032
:102AD0008083E091CA03F091CB031082E091CC0394
:102AE000F091CD038FEC80831092D603E091D20356
:102AF000F091D30316E01083E091D003F091D1035D
:102B0000808180618083E091D003F091D103808146
:102B100088608083E091D003F091D1038081806848
:102B20008083E091D003F091D10380818F7D8083F9
:102B300086E090E00E94F4227C01DC01E12F1D92EE
:102B4000EA95E9F7DC0114961C92149715961C92ED
:102B5000159708E1C02E02E0D02ECD92DC92909322
:102B60005203809351036EE772E0CE0101960EDFAF
:102B700082E190E00E94F4225C0100E020E0AE01DE
:102B80004F5F5F4FB701DFDDB0925003A0924F035C
:102B9000CE0101960E94190665E872E0CE01019609
:102BA000F5DE82E190E00E94F4225C0128E0AE01B3
:102BB0004F5F5F4FB701C7DDB092FF02A092FE02E8
:102BC000CE0101960E94190666E872E0CE010196D8
:102BD000DDDE82E190E00E94F4225C0101E028E069
:102BE000AE014F5F5F4FB701AEDDB092FD02A09224
:102BF000FC02CE0101960E94190686E090E00E9438
:102C0000F4227C01FC0111921A95E9F7DC0114967B
:102C10001C92149715961C921597CD92DC92909366
:102C20004E0380934D036FE872E0CE010196AEDE55
:102C300082E190E00E94F4226C0100E027E0AE0106
:102C40004F5F5F4FB7017FDDD0924C03C0924B03C3
:102C5000CE0101960E94190668E972E0CE01019644
:102C600095DE84E190E00E94F4225C0102E020E025
:102C7000AE014F5F5F4FB7019BDDB0924A03A09258
:102C80004903CE0101960E9419066FE972E0CE0158
:102C900001967CDE84E190E00E94F4226C01F50153
:102CA0006289738900E023E0AE014F5F5F4F80DDF2
:102CB000D092FB02C092FA02CE0101960E94190640
:102CC0006EEA72E0CE01019661DE84E190E00E943E
:102CD000F4227C01D60152966D917C91539720E0AD
:102CE000AE014F5F5F4F9FDBF0924803E0924703D6
:102CF000CE0101960E94190683E19CE0F701938BB7
:102D0000828B62EB72E0CE01019640DE82E190E0C0
:102D10000E94F4227C01D50152966D917C915397CB
:102D200001E020E0AE014F5F5F4F0DDDF092460302
:102D3000E0924503CE0101960E94190683E290E0DD
:102D40000E94F4226C01F50162897389EE24E394F8
:102D50000AE02AE037ED44E052E42BDCD092440351
:102D6000C0924303F6E1CF0ED11CD092B104C092C1
:102D7000B0046BEB72E0CE01019608DE82E190E0D8
:102D80000E94F4226C01E0904903F0904A03D701BD
:102D900052966D917C91539702E020E0AE014F5F17
:102DA0005F4FD1DCD0924203C0924103CE01019625
:102DB0000E94190683E290E00E94F4226C01F70160
:102DC0006289738982E0E82E0AE02DEC3CEC40E752
:102DD00052E4C601EEDBD0924003C0923F03F6E11D
:102DE000CF0ED11CD092B304C092B20464EC72E056
:102DF000CE010196CBDD84E190E00E94F4227C01BB
:102E000060914D0370914E0302E027E0AE014F5FE9
:102E10005F4FCEDCF0923E03E0923D03CE0101967F
:102E20000E9419066FE972E0CE010196AFDD84E1E0
:102E300090E00E94F4225C01D70152966D917C9142
:102E4000539700E023E0AE014F5F5F4FB1DCB092DB
:102E5000F902A092F802CE0101960E9419066EEACC
:102E600072E0CE01019692DD84E190E00E94F422AE
:102E70006C01F5016289738920E0AE014F5F5F4FFD
:102E8000D2DAD0923C03C0923B03CE0101960E945D
:102E9000190681E19CE0D60153969C938E9352973C
:102EA00062EB72E0CE01019671DD82E190E00E945A
:102EB000F4226C01F7016289738901E020E0AE0120
:102EC0004F5F5F4F40DCD0923A03C0923903CE018E
:102ED00001960E94190683E290E00E94F4226C01A0
:102EE000D70152966D917C915397EE24E3940AE0BA
:102EF00020E030E044E052E45CDBD0923803C09242
:102F00003703B6E1CB0ED11CD092CE04C092CD04D3
:102F10006BEB72E0CE01019639DD82E190E00E9418
:102F2000F4226C01E0903D03F0903E03F7016289CA
:102F3000738902E020E0AE014F5F5F4F04DCD09266
:102F40003603C0923503CE0101960E94190683E232
:102F500090E00E94F4226C01D70152966D917C9111
:102F6000539792E0E92E0AE020E030E040E752E497
:102F7000C6011FDBD0923403C0923303B6E1CB0EFF
:102F8000D11CD092D004C092CF046BEC72E0CE0181
:102F90000196FCDC84E190E00E94F4227C016091C7
:102FA0004D0370914E0302E02EE0AE014F5F5F4F84
:102FB000FFDBF0923203E0923103CE0101960E94D2
:102FC00019066FE972E0CE010196E0DC84E190E041
:102FD0000E94F4225C01F7016289738900E023E01A
:102FE000AE014F5F5F4FE4DBB092F702A092F602B2
:102FF000CE0101960E9419066EEA72E0CE0101969A
:10300000C5DC84E190E00E94F4226C01D501529667
:103010006D917C91539720E0AE014F5F5F4F03DAD3
:10302000D0923003C0922F03CE0101960E94190660
:103030008FE09CE0F601938B828B62EB72E0CE0115
:103040000196A4DC82E190E00E94F4226C01D70199
:1030500052966D917C91539701E020E0AE014F5F55
:103060005F4F71DBD0922E03C0922D03CE010196EB
:103070000E94190683E290E00E94F4226C01F7019D
:1030800062897389EE24E3940AE020E030E044E0B2
:1030900052E48FDAD0922C03C0922B03F6E1CF0ECC
:1030A000D11CD092EB04C092EA046BEB72E0CE012B
:1030B00001966CDC82E190E00E94F4226C01E090C9
:1030C0003103F0903203D70152966D917C91539762
:1030D00002E020E0AE014F5F5F4F35DBD0922A0364
:1030E000C0922903CE0101960E94190683E290E066
:1030F0000E94F4226C01F7016289738922E0E22EBA
:103100000AE020E030E040E752E453DAD0922803AE
:10311000C0922703F6E1CF0ED11CD092ED04C092ED
:10312000EC0462ED72E0CE01019630DCCE01019636
:103130000E942104CE0101960E94190600915103BC
:1031400010915203C8010E94B40380914D039091E5
:103150004E030E94B403C8010E94EE020E940307BE
:1031600080916D0390916E03009711F00E94892366
:103170008091710390917203009711F00E9489234E
:103180008091730390917403009711F00E9489233A
:1031900080916F0390917003009711F00E94892332
:1031A00086E080936C0382E190E00E94F422FC01AF
:1031B0009C012E5E3F4F128211823396E217F30775
:1031C000D1F790936E0380936D038CE090E00E94A2
:1031D000F422909372038093710386E090E00E9442
:1031E000F422909374038093730388E190E00E942B
:1031F000F4229093700380936F0370E048EE53E0E5
:10320000A1E080916C03781708F05FC0272F30E0B1
:1032100063E0769FC0011124F901E050FE4F608108
:10322000E0916D03F0916E03E80FF91F6083E09168
:103230006D03F0916E03E80FF91F808190E0FC01AF
:10324000EA56FD4F6491FC01E05BFD4F84918823B9
:10325000D1F090E0880F991FFC01EE5FFD4F0591C2
:103260001491FC01EA5CFD4FE590F4909FB7F8944F
:10327000F801B081862F80958B238083F7018081B0
:10328000682B60839FBFC901880F991FE09171036C
:10329000F0917203E80FF91F51834083E0917303AB
:1032A000F0917403E20FF31FA083220F331F220F4C
:1032B000331FE0916F03F0917003E20FF31F108250
:1032C0001182128213827F5F9CCFF894109280004B
:1032D0001092810010926F00809181008360809332
:1032E000810086E09FEF909385008093840081E0C9
:1032F00080936F008EE099E00E942A028CE498E0AF
:103300000E942A0240E057E0242F30E080915D04C3
:1033100090E00197281739070CF040C0B7E04B9FA9
:103320008001112421E080915D042817A8F5809187
:103330005B0490915C04DC01A00FB11F12966D91AB
:103340007C911397F7E02F9F800D911D1124FC01B4
:10335000E280F380E616F706E8F4CD90DC90119752
:103360001496ED90FC90159716963C911697B52EF5
:1033700001900D92BA94E1F7DC011196DC92CE92A5
:1033800013967C936E9312971596FC92EE92149777
:1033900016963C932F5FC7CF4F5FB6CF789411E05E
:1033A00086E0282E90E0C92E93E0D92E25EE322E0D
:1033B00005EC10939C03E8E6E093BD0310928804AB
:1033C0001092870460E08BE894E00E94EC0781E0B3
:1033D0000E949102882319F010925303B2C01093F7
:1033E000530380919B038111FCCF10939B03109397
:1033F0009A03FFEFF093990310929803209297039A
:103400001093760380917603806D8093760380918C
:103410007503813069F4109275038091760380936F
:10342000BB008091BC0083FDF8CF0093BC0002C0BC
:103430003092BC0080919B038130E1F3809198032E
:10344000873018F48091980301C087E0A7E7B3E0C4
:10345000E0E0F3E09E2F9C19981718F49D9191934A
:10346000F9CF10928A0480938904873008F469C0E8
:103470008BE894E00E94A107982F969596959695D3
:103480009E70292F220F220F920F8F70890F809329
:1034900020038BE894E00E94A107982F92959F70DB
:1034A0008F702AE0929F800D1124809321038BE876
:1034B00094E00E94A107982F969596959695967000
:1034C000292F220F220F920F8F70890F80932203D2
:1034D0008BE894E00E94A107982F92959F708F70BF
:1034E0003AE0939F800D1124809323038BE894E0AE
:1034F0000E94A107982F92959F708F704AE0949F29
:10350000800D1124809324038BE894E00E94A1078E
:10351000982F92959F708F705AE0959F800D11247F
:10352000809325038BE894E00E94A107982F9F7059
:10353000925E82958F706AE0869F900D1124909321
:10354000260389E00E94D204882309F469C080918F
:10355000850490918604892B09F062C04FEF6FEFCC
:10356000B12CE0918304F09184048481B81608F0B2
:103570004BC092818381E92FF82FEB0DF11DEB0DEC
:10358000F11DE080F180D701ED91FC910480F5817F
:10359000E02DC7014B876C8719954B856C8501978A
:1035A00089F1F7015581852F90E020916804022E62
:1035B000000C330B821793076CF08217930711F5F9
:1035C000E481F0E020916704022E000C330BE21737
:1035D000F307C4F4242F042E000C330B28173907EB
:1035E00074F08217930771F4D70114968C9190E0D0
:1035F000262F062E000C330B281739071CF4F70171
:103600006481452FB394ADCF6F3F51F06093670451
:103610004093680480916504909166040E94DF11D4
:103620008BE00E94D204882309F469C0809185044C
:1036300090918604892B09F062C04DE76DE7B12CAB
:10364000E0918304F09184048481B81608F04BC0A3
:1036500092818381E92FF82FEB0DF11DEB0DF11D08
:10366000E080F180D701ED91FC910480F581E02D9F
:10367000C7014B876C8719954B856C85019789F13C
:10368000F7015581852F90E020916804022E000CEF
:10369000330B281739076CF08217930711F5E48173
:1036A000F0E020916704022E000C330B2E173F0729
:1036B000C4F4242F042E000C330B8217930774F0EC
:1036C0008217930771F4D70114968C9190E0262FFE
:1036D000062E000C330B821793071CF4F70164814C
:1036E000452FB394ADCF6D3751F06093670440938D
:1036F000680480916504909166040E94DF118CE05B
:103700000E94D204882309F476C0E0908504F090EA
:103710008604E114F10409F46EC0D70152968D902D
:103720009D90AD90BC90559756962D913D914D91A1
:103730005C915997C501B40127D6F701668B778B49
:10374000808F918F238D348D458D568D2F833887B3
:1037500049875A8716D71816ACF4F701478C50A042
:1037600061A072A02F81388549855A85C301B201B5
:1037700054D587FF07C0D70156964D925D926D9242
:103780007C925997C501B401CBD6072E000C880B4B
:10379000990B49D59B01AC01C501B401F4D520E0DA
:1037A00030E0A9013AD581110CC0F701668977890B
:1037B000808D918DB5D64AE0CE0101960E944D06CE
:1037C0000CC0D70156964D915D916D917C915997A2
:1037D00022E0CE0101960E941E06BE016F5F7F4F60
:1037E000C7010E944A12CE0101960E941906F701F4
:1037F00013830E9403078AE00E94D204882309F4FD
:1038000076C0E0908504F0908604E114F10409F498
:103810006EC0D70152968D909D90AD90BC905597FB
:10382000A501940156966D917D918D919C9159972A
:10383000AAD5F701668B778B808F918F278D30A16A
:1038400041A152A12F83388749875A87E6D487FF41
:1038500015C0F701438C548C658C768CA3019201C2
:103860006F81788589859A85D8D487FF07C0D7016D
:1038700056964D925D926D927C925997C501B40116
:103880004FD6072E000C880B990BCDD49B01AC01B1
:10389000C501B40178D520E030E0A901BED4811182
:1038A0000CC0F70166897789808D918D39D64AE001
:1038B000CE0101960E944D060CC0D70156964D913F
:1038C0005D916D917C91599722E0CE0101960E9405
:1038D0001E06BE016F5F7F4FC7010E944A12CE01D4
:1038E00001960E941906F70113830E94030787E0DF
:1038F0000E94D2048823F1F180918504909186047E
:10390000892BC1F580916504909166040E940C1288
:10391000E0918104EF3FF9F4809182048F5F8093FE
:10392000820420916C0430E0082E000C990B2817BB
:10393000390711F410928204E0918204EE0FFF0B1C
:1039400080916A0490916B04E80FF91F8081918146
:103950000E94EE020DC0EE0FFF0BE359FB4F80817A
:1039600091810E94EE0280918104815080938104B4
:103970000E94030788E00E94D204882309F476C0DD
:10398000B12CE0918304F09184048481B81608F08E
:103990006DC092818381E92FF82FEB0DF11DEB0DA6
:1039A000F11DE080F18020916704022E000C330BA2
:1039B000D70114968C91149790E02817390709F0D5
:1039C00053C020916804022E000C330B15968C9185
:1039D000159790E02817390709F046C0ED91FC9142
:1039E0000480F581E02DC70119958230910511F110
:1039F0008330910531F1892BB9F58091650490915F
:103A000066040E940C12E0918104EF5FE093810450
:103A1000EE0FFF0BE359FB4F8091830490918404D8
:103A200091838083F701828993890E94EE020E942C
:103A300003071CC0D7015296ED91FC91539719953D
:103A400013C0F0928604E0928504F701828D811103
:103A500002C0128F09C0128E128313830E940307C3
:103A60001092860410928504B3948BCFE091830466
:103A7000F09184048481882309F44CC085818823D3
:103A800009F448C08091640381110CC00E948E101B
:103A90006093600370936103809362039093630368
:103AA000109364030E948E108090600390906103D5
:103AB000A0906203B0906303DC01CB0188199909DF
:103AC000AA09BB09853F9140A105B10518F10E94E3
:103AD0008E106093600370936103809362039093F0
:103AE000630320916904809165049091660421111B
:103AF00005C0109369040E94D8110CC0109269048B
:103B0000DC0116966C9116976D7F16966C93686023
:103B10000E94C8118091850490918604892BE1F15F
:103B20008091580381110CC00E948E106093540341
:103B30007093550380935603909357031093580343
:103B40000E948E108090540390905503A0905603CD
:103B5000B0905703DC01CB0188199909AA09BB0968
:103B6000893C9105A105B105B8F00E948E106093C3
:103B70005403709355038093560390935703E09139
:103B80008504F091860413838281811102C012831F
:103B900001C012820E9403070E9403070E94B30E15
:103BA00008CCCF92DF92EF92FF92EEEBF3E013821C
:103BB000128288EEC82E83E0D82EE12CF12CC4822C
:103BC000D582E682F78280E292E09183808385EC61
:103BD00090E09587848784EC90E09787868780ECD7
:103BE00090E0918B808B81EC90E0938B828B82ECC8
:103BF00090E0958B848B86EC90E0978B868B118E72
:103C0000128E138E148EEBE5F4E01282148213826E
:103C100016821582108617821186E5E6F4E0178277
:103C20008FEF848F858F10928A04109289041092EE
:103C30008804109287040E94C90DEBE8F4E0138217
:103C40001282C482D582E682F78280E392E0918379
:103C50008083EEEEF4E01382128280E492E091839E
:103C6000808387E2848380E1818784E08287138672
:103C7000E7E9F4E01082158E12AEFF90EF90DF902E
:103C8000CF900895EF920F931F93CF93DF93E801A6
:103C900047FD02C034E001C034E1E42F440FFF0BC4
:103CA000F7FF03C0F195E195F109E32E022F2E2FC6
:103CB000AE013ED0CE01DF91CF911F910F91EF90D9
:103CC00008954532510518F4423008F004C0FB0154
:103CD0001082CB010895BB274A3031F4992322F496
:103CE000BDE2909581959F4F0BC04532510518F468
:103CF000423008F004C0FB011082CB010895BB27BD
:103D0000FB015527AA27880F991FAA1FA41710F097
:103D1000A41B83955051B9F7A05DAA3308F0A95DA3
:103D2000A193009779F7B111B1931192CB0165C2BC
:103D30004F925F926F927F929F92AF92BF92CF927B
:103D4000DF92EF92FF920F931F93CF93DF93CDB744
:103D5000DEB729970FB6F894DEBF0FBECDBF6A015C
:103D6000122FB02E2BE3201720F0FF24F394F00E37
:103D700002C0BCE3FB2E0F2D27E0AE014F5F5F4F6B
:103D800064D1AC018981982F9970913031F0E1FCB8
:103D900006C0E0FE06C090E205C09DE203C09BE2C3
:103DA00001C090E0EE2DE07183FF3CC0911102C094
:103DB00083E001C084E0811718F4212F281B01C083
:103DC00020E0E1110BC0F601822F30E2882319F0C8
:103DD00031938150FBCFC20ED11C20E0992329F0F2
:103DE000D6019C93F60131966F01C6010396E2FE5F
:103DF0000AC03EE4D6013C9341E411964C931197DE
:103E000012963C9306C03EE6F601308341E64183BC
:103E10003283FC01322F40E2332309F442C0419344
:103E20003150FACF82FF44C0911102C083E001C03B
:103E300084E0811718F4212F281B01C020E0E11134
:103E40000BC0F601822F30E2882319F031938150A4
:103E5000FBCFC20ED11C20E0992329F0D6019C9300
:103E6000F60131966F01C6010396E2FE0BC039E4FC
:103E7000D6013C933EE411963C93119736E412969A
:103E80003C9307C039E6F60130833EE6318336E6DF
:103E90003283FC01322F40E2332319F04193315039
:103EA000FBCFFC01E20FF11D10828EEF9FEFB7C038
:103EB000F1E0911101C0F0E06F2F70E014161506CB
:103EC00024F49A012F5F3F4F02C021E030E0260F1B
:103ED000371FBB2029F06B2D70E06F5F7F4F02C052
:103EE00060E070E0260F371F612F70E0261737075C
:103EF0001CF4121B212F01C020E03E2D387159F413
:103F0000D601322F60E2332319F06D933150FBCF8D
:103F1000C20ED11C20E0FF2331F0D6019C93B601E4
:103F20006F5F7F4F6B01E1110BC0F601922F30E301
:103F3000992319F031939150FBCFC20ED11C20E090
:103F40009F2D940F3A81782F7071A72E84FF03C0A4
:103F5000313309F49150191624F4993018F098E08F
:103F600001C091E0E42F852F57FF02C0E0E080E020
:103F70006E2F782FE0E0F0E0AEE29A2E3A01691A57
:103F800071082A01461A570A0B2D10E01195019568
:103F900011096F3F8FEF780729F4D6019C92C60173
:103FA00001966C014617570784F0661677066CF485
:103FB0007F01E40CF51CA1E0B0E0AC0FBD1FEA0EE0
:103FC000FB1ED7011196BC9002C090E3B92E615040
:103FD00071093196C60101967C016017710724F0C2
:103FE000D601BC926C01D5CF6417750741F4363306
:103FF00020F4353321F4A11002C081E3B82EF6017C
:10400000B082F701822F90E2882319F091938150BA
:10401000FBCFF701E20FF11D108280E090E02996BE
:104020000FB6F894DEBF0FBECDBFDF91CF911F91C9
:104030000F91FF90EF90DF90CF90BF90AF909F9047
:104040007F906F905F904F900895283008F027E0A0
:104050003327DA01990F311D87FD916000966105C4
:10406000710539F432602E5F3D9330E32A95E1F714
:1040700008959F3F30F080387105610509F03C5F7D
:104080003C5F3D93913008F08068911DDF93CF93A2
:104090001F930F93FF92EF92192F987F9695E92F18
:1040A00096959695E90FFF27EE59FE4F99273327EE
:1040B000EE24FF24A701E70105900894079428F453
:1040C000360FE71EF81E491F511D660F771F881F08
:1040D000991F0694A1F70590079428F4E70EF81E9F
:1040E000491F561FC11D770F881F991F661F069411
:1040F000A1F70590079428F4F80E491F561FC71F13
:10410000D11D880F991F661F771F0694A1F7059090
:10411000079420F4490F561FC71FD81F990F661F19
:10412000771F881F0694A9F784911095177041F0A6
:10413000D695C79557954795F794E7941A95C1F783
:10414000E8E0F1E0689415901591359165919591AD
:1041500005907FE27395E118F10A430B560BC90BEA
:10416000D009C0F7E10CF11E431F561FC91FD01D17
:104170007EF4703311F48A95E6CFE894015030F064
:10418000080F0AF40027021708F4202F2395022FA6
:104190007A3328F079E37D932A95E9F710C07D936F
:1041A0002A9589F6069497956795379517951794EC
:1041B000E118F10A430B560BC90BD00998F023956F
:1041C0007E9173957A3308F070E37C932013B8F7EF
:1041D0007E9170617D9330F0839571E37D9370E300
:1041E0002A95E1F71124EF90FF900F911F91CF9145
:1041F000DF91992787FD90950895DC01FC01672FD9
:1042000071917723E1F7329704C07C916D937083AD
:104210006291AE17BF07C8F3089540D008F481E05B
:104220000895E89409C097FB3EF4909580957095A9
:1042300061957F4F8F4F9F4F9923A9F0F92F96E9F2
:10424000BB279395F695879577956795B795F11167
:10425000F8CFFAF4BB0F11F460FF1BC06F5F7F4F04
:104260008F4F9F4F16C0882311F096E911C0772316
:1042700021F09EE8872F762F05C0662371F096E81F
:10428000862F70E060E02AF09A95660F771F881FEE
:10429000DAF7880F9695879597F90895990F000892
:1042A000550FAA0BE0E8FEEF16161706E807F90708
:1042B000C0F012161306E407F50798F0621B730BA3
:1042C000840B950B39F40A2661F0232B242B252B24
:1042D00021F408950A2609F4A140A6958FEF811DC7
:1042E000811D089597F99F6780E870E060E0089568
:1042F0009FEF80EC089500240A94161617061806FE
:104300000906089500240A941216130614060506D9
:104310000895092E0394000C11F4882352F0BB0F6A
:1043200040F4BF2B11F460FF04C06F5F7F4F8F4FCD
:104330009F4F089557FD9058440F551F59F05F3F08
:1043400071F04795880F97FB991F61F09F3F79F0B7
:1043500087950895121613061406551FF2CF469539
:10436000F1DF08C0161617061806991FF1CF8695BB
:104370007105610508940895E894BB27662777279F
:10438000CB0197F908955058BB27AA270ED0C1CF6B
:10439000B2DF30F0B7DF20F031F49F3F11F41EF4AC
:1043A000A7CF0EF4E095E7FB9DCFE92FC3DF80F3A5
:1043B000BA17620773078407950718F071F49EF522
:1043C000DBCF0EF4E0950B2EBA2FA02D0B01B90117
:1043D00090010C01CA01A0011124FF27591B99F07B
:1043E000593F50F4503E68F11A16F040A22F232F87
:1043F000342F4427585FF3CF469537952795A795D7
:10440000F0405395C9F77EF41F16BA0B620B730B7D
:10441000840BBAF09150A1F0FF0FBB1F661F771FEE
:10442000881FC2F70EC0BA0F621F731F841F48F4A3
:10443000879577956795B795F7959E3F08F0B3CF29
:104440009395880F08F09927EE0F97958795089513
:104450000CD05FCF57DF40F04EDF30F021F45F3FEC
:1044600019F040CF511189CF43CF64DF98F39923DE
:10447000C9F35523B1F3951B550BBB27AA27621728
:104480007307840738F09F5F5F4F220F331F441F6D
:10449000AA1FA9F333D00E2E3AF0E0E830D09150A5
:1044A0005040E695001CCAF729D0FE2F27D0660F92
:1044B000771F881FBB1F261737074807AB07B0E8D1
:1044C00009F0BB0B802DBF01FF2793585F4F2AF0E7
:1044D0009E3F510568F006CF50CF5F3FECF3983E0A
:1044E000DCF3869577956795B795F7959F5FC9F744
:1044F000880F911D9695879597F90895E1E0660FCD
:10450000771F881FBB1F621773078407BA0720F045
:10451000621B730B840BBA0BEE1F88F7E0950895AE
:1045200004D06894B11129CF08950CDF88F09F570B
:1045300090F0B92F9927B751A0F0D1F0660F771FEF
:10454000881F991F1AF0BA95C9F712C0B13081F0CF
:1045500013DFB1E0089510CF672F782F8827B85F59
:1045600039F0B93FCCF3869577956795B395D9F730
:104570003EF490958095709561957F4F8F4F9F4F3A
:1045800008958CDE08F48FEF089597FB072E16F43C
:10459000009406D077FD08D013D007FC05D03EF478
:1045A000909581959F4F0895709561957F4F0895DF
:1045B000EE0FFF1F881F8BBF0790F691E02D199417
:1045C000AA1BBB1B51E107C0AA1FBB1FA617B70739
:1045D00010F0A61BB70B881F991F5A95A9F7809555
:1045E0009095BC01CD010895CF93DF938230910562
:1045F00010F482E090E0E091DF05F091E00520E02A
:1046000030E0C0E0D0E0309711F14081518148178F
:104610005907C0F04817590761F4828193812097A8
:1046200019F09B838A832BC09093E0058093DF056C
:1046300026C02115310519F04217530718F49A01C5
:10464000BE01DF01EF010280F381E02DDCCF2115F7
:10465000310509F1281B390B2430310590F41296ED
:104660008D919C9113976115710521F0FB01938346
:10467000828304C09093E0058093DF05FD013296AC
:1046800044C0FD01E20FF31F819391932250310941
:104690002D933C933AC02091DD053091DE05232B0C
:1046A00041F420910802309109023093DE052093F5
:1046B000DD0520910602309107022115310541F4F4
:1046C0002DB73EB740910A0250910B02241B350BC7
:1046D000E091DD05F091DE05E217F307A0F42E1B53
:1046E0003F0B2817390778F0AC014E5F5F4F241756
:1046F000350748F04E0F5F1F5093DE054093DD05F0
:104700008193919302C0E0E0F0E0CF01DF91CF917F
:1047100008950F931F93CF93DF93009709F48CC0F4
:10472000FC013297138212820091DF051091E0059F
:104730000115110581F420813181820F931F209191
:10474000DD053091DE052817390779F5F093DE0590
:10475000E093DD0571C0D80140E050E0AE17BF071F
:1047600050F412962D913C911397AD01211531050E
:1047700009F1D901F3CF9D01DA01338322836081EE
:104780007181860F971F8217930769F4EC012881C6
:104790003981260F371F2E5F3F4F318320838A8157
:1047A0009B8193838283452B29F4F093E005E0936A
:1047B000DF0542C01396FC93EE931297ED014991E9
:1047C00059919E01240F351FE217F30771F4808180
:1047D0009181840F951F029611969C938E938281EE
:1047E000938113969C938E931297E0E0F0E0D801AA
:1047F00012968D919C911397009719F0F8018C01F6
:10480000F6CF8D919C9198012E5F3F4F820F931FA1
:104810002091DD053091DE052817390769F43097BE
:1048200029F41092E0051092DF0502C01382128273
:104830001093DE050093DD05DF91CF911F910F915D
:1048400008956F927F928F929F92AF92BF92CF9274
:10485000DF92EF92FF920F931F93CF93DF93EC01C0
:10486000009781F4CB01DF91CF911F910F91FF90C1
:10487000EF90DF90CF90BF90AF909F908F907F9000
:104880006F90B2CEFC01E60FF71F9C012250310958
:10489000E217F30708F4A8C0D9010D911C911197F4
:1048A00006171707A8F00530110508F49BC0C801CA
:1048B00004978617970708F495C002501109061B44
:1048C000170B019311936D937C93CF0122DF8AC064
:1048D0005B01A01AB10A4C01800E911EA091DF0568
:1048E000B091E00540E050E0E12CF12C109709F484
:1048F0004AC0A815B905D1F56D907C901197630158
:1049000082E0C80ED11CCA14DB0480F1A3014A194D
:104910005B096A0182E0C80ED11C1296BC90129706
:104920001396AC91B5E0CB16D10440F0B282A383CC
:1049300051834083D9016D937C930AC00E5F1F4F52
:10494000C301800F911FF90191838083EB2DFA2F12
:10495000E114F10431F0D7011396FC93EE93129712
:1049600041C0F093E005E093DF053CC08D919C9140
:1049700011974817590708F4AC017D0112960D9064
:10498000BC91A02DB3CF8091DD059091DE058815F7
:104990009905E1F446175707C8F4809106029091F3
:1049A0000702009741F48DB79EB740910A025091DB
:1049B0000B02841B950BE817F907B0F4F093DE05A2
:1049C000E093DD05F901718360830CC0CB010CDE3F
:1049D0007C01009749F0A801BE011BD0CE0199DEF1
:1049E000C70104C0CE0102C080E090E0DF91CF910A
:1049F0001F910F91FF90EF90DF90CF90BF90AF90FD
:104A00009F908F907F906F90089581E090E0F89450
:104A100010C0FB01DC0102C001900D9241505040DA
:104A2000D8F70895FB01DC0101900D920020E1F719
:064A30000895F894FFCF89
:104A360007090B0C0A080000E105800000000000D1
:104A46001E0F4C0F00000000E50DEB0D00000000EE
:104A56004C0E9B14160EF40D080E920E000000006C
:104A6600EC07BD07B507A1079207910700000000F4
:104A7600B3119B1400000000340843085E070000D1
:104A860040001400540000000000820F980F190F18
:104A960000000000730F790F100F00000000640F74
:104AA6006A0F130F00000000550F5B0F160F546FAF
:104AB6006461793A200030373A33333A3130005363
:104AC6006561736F6E203100547265652031005444
:104AD600696D6520666F7220776174657200416446
:104AE60064004D61782074656D70004D61782068B2
:104AF600756D6900547265652032005472656520D3
:104B060033004661726D426F7420436F6E74726F2C
:104B16006C6C6572004E6F206D656E7500323000EC
:064B26002F003A007800A8
:00000001FF
