:10000000B0C10000DFC10000DDC10000DBC10000A5
:10001000D9C10000D7C10000D5C10000D3C1000084
:10002000D1C10000CFC10000CDC10000CBC1000094
:10003000C9C10000C7C10000C5C10000C3C10000A4
:10004000C1C10000BFC10000BDC10000BBC10000B4
:1000500027C50000B7C10000B5C10000D7C400002B
:10006000B1C1000010C40000E5C30000ABC1000036
:10007000A9C10000A7C10000A5C10000A3C10000E4
:10008000A1C100009FC100009DC100009BC10000F4
:10009000A8C300007DC3000095C100000C94620E4F
:1000A00091C100008FC100008DC100008BC1000014
:1000B00089C1000087C1000085C1000083C1000024
:1000C00081C100007FC100007DC100007BC1000034
:1000D00079C1000077C1000075C1000073C1000044
:1000E00071C1000087048A0479047D048304C1047B
:1000F0008E04920498049C04A004A604AA04AE04EE
:10010000C104B404B804BC044E414E494E4954598C
:10011000494E46CDCCCC3D0AD7233C17B7D13877D2
:10012000CC2B329595E6241FB14F0A0000204100E8
:1001300000C84200401C4620BCBE4CCA1B0E5AAE32
:10014000C59D7400407A10F35A00A0724E18090041
:1001500010A5D4E80000E87648170000E40B54022C
:100160000000CA9A3B000000E1F505000080969867
:1001700000000040420F000000A0860100000010B7
:100180002700000000E803000000006400000000F9
:10019000000A00000000000100000000002C76D8DA
:1001A00088DC674F0823DFC1DFAE59E1B1B796E5C0
:1001B000E3E453C63AE651997696E8E6C28426EB24
:1001C000898C9B62ED407C6FFCEFBC9C9F40F2BA37
:1001D000A56FA5F490055A2AF75C936B6CF9676DCF
:1001E000C11BFCE0E40D47FEF520E6B500D0ED9024
:1001F0002E0300943577050080841E080000204EF1
:100200000A000000C80C333333330F986E12831189
:1002100041EF8D2114893BE65516CFFEE6DB18D160
:10022000844B381BF77C1D901DA4BBE42420328432
:10023000725E228100C9F124ECA1E53D2700002176
:1002400000240027002A002D0030003300010100A7
:1002500000040107010A0100002200250028002BEC
:10026000002E003100340002010000050108010BDE
:100270000105050505070508080808020202020A2B
:100280000A08080404040401010101010101010339
:1002900003030303030303040707070C0C0C0C0CF4
:1002A0000C0C0C0202020206060606060606060BE7
:1002B0000B0B0B0B0B0B0B0102102020080810205E
:1002C00040102040800201020108040201010204E2
:1002D00008102040808040201008040201800402A1
:1002E00001804020100804020108040201010204F8
:1002F0000810204080010204081020408000000AFD
:100300000B02090C0D0E0807030401000000000099
:1003100000000000000000000000000000000000DD
:10032000000000000000000000121110000000009A
:1003300000000000000000000000000000000000BD
:10034000000000000020002300260029002C002FC0
:100350000032000001000003010601090100132022
:10036000E91F11241FBECFEFD1E2DEBFCDBF00E0F9
:100370000CBF26E0ACEFB2E001C01D92A439B20779
:10038000E1F712E0A0E0B2E0E8E0F4E500E00BBF46
:1003900002C007900D92AC3FB107D9F711E0C0EB56
:1003A000D1E000E006C021970109802FFE010E94E4
:1003B000A927CF3AD10780E00807A9F70E9446167F
:1003C0000C94F3291DCEFC01A089B1898C91A689DA
:1003D000B78982FD0FC09C91818D8F5F8F73228DB5
:1003E000821749F0218DDF01A20FB11D5D969C930C
:1003F000818F08958C910895FC01918D828D9817BD
:1004000061F0828DDF01A80FB11D5D968C91928DF8
:100410009F5F9F73928F90E008958FEF9FEF0895F5
:10042000FC01918D828D981731F0828DE80FF11DBE
:10043000858D90E008958FEF9FEF0895FC01918DD9
:10044000228D892F90E0805C9F4F821B91098F73D2
:10045000992708958EE994E0F1DF21E0892B09F4D2
:1004600020E0822F089587E795E0E8DF21E0892BDF
:1004700009F420E0822F0895FC01848DDF01A80F8C
:10048000B11DA35ABF4F2C91848D90E001968F73BC
:100490009927848FA689B7892C93A089B1898C91DB
:1004A00080648C93938D848D981306C00288F389A1
:1004B000E02D80818F7D80830895EF92FF920F93CE
:1004C0001F93CF93DF93EC0181E0888F9B8D8C8D00
:1004D000981305C0E889F989808185FD23C0F62E2F
:1004E0000B8D10E00F5F1F4F0F731127E02E8C8DC7
:1004F000E8120BC00FB607FCFACFE889F9898081B2
:1005000085FFF5CFCE01B8DFF2CF8B8DFE01E80F6E
:10051000F11DE35AFF4FF0820B8FEA89FB8980813E
:10052000806207C0EE89FF896083E889F98980814C
:100530008064808381E090E0DF91CF911F910F91E3
:10054000FF90EF900895CF93DF93EC01888D88237F
:10055000C1F0EA89FB89808185FD05C0A889B98938
:100560008C9186FD0EC00FB607FCF5CF808185FF0C
:10057000F2CFA889B9898C9185FFEDCFCE017CDFC0
:10058000E8CFDF91CF91089580E090E0892B19F0BA
:100590006ADF811120C080E090E0892B19F05ADFDA
:1005A00081111CC080E090E0892B41F080E090E058
:1005B000892B21F00E940000811113C080E090E09F
:1005C000892BA1F080E090E0892B81F00E9400004F
:1005D00081110AC008950E940000DDCF0E94000032
:1005E000E1CF0E940000EACF0C94000008953FB7CD
:1005F000F8948091770390917803A0917903B0915A
:100600007A0326B5A89B05C02F3F19F00196A11DBE
:10061000B11D3FBFBA2FA92F982F8827820F911D98
:10062000A11DB11DBC01CD0142E0660F771F881FDF
:10063000991F4A95D1F7089582E090E0089583E0EC
:1006400090E0089581E090E0089580E090E00895C2
:1006500008950E94D6290F931F93CF938C0180E1B8
:1006600092E0D8018D939C93C0E0F80184810280D0
:10067000F381E02DC81788F4EC0FF11DEC0FF11D8C
:1006800080819181009739F0DC01ED91FC9102802D
:10069000F381E02D1995CF5FE8CF309731F0CF018E
:1006A000CF911F910F910C945A28CF911F910F91C8
:1006B0000895CF93DF93EC01CEDFCE01DF91CF9190
:1006C0000C945A28CF93DF93EC0188E292E099834F
:1006D0008883CE010C960E945115CE010696DF91BB
:1006E000CF910C94511520E532E0FC013183208339
:1006F000E9CFCF93DF93EC01F6DFCE01DF91CF910D
:100700000C945A2826E432E0FC0131832083DACFAE
:10071000CF93DF93EC01F6DFCE01DF91CF910C9404
:100720005A282CE332E0FC0131832083CBCFCF93D6
:10073000DF93EC01F6DFCE01DF91CF910C945A28C4
:10074000CF93DF93EC0182E392E0998388838A89D7
:100750009B89009739F0DC01ED91FC910280F381D7
:10076000E02D1995CE01DF91CF91ACCFCF93DF93E0
:10077000EC01E6DFCE01DF91CF910C945A28CF93A4
:10078000DF93EC019FDFCE01DF91CF910C945A28CB
:100790001F920F920FB60F9211240BB60F922F9348
:1007A0003F934F935F936F937F938F939F93AF93F9
:1007B000BF93EF93FF938EE994E05EDEFF91EF919C
:1007C000BF91AF919F918F917F916F915F914F9169
:1007D0003F912F910F900BBE0F900FBE0F901F9067
:1007E00018951F920F920FB60F9211240BB60F920D
:1007F0002F933F934F935F936F937F938F939F9329
:10080000AF93BF93EF93FF938EE994E0DCDDFF910C
:10081000EF91BF91AF919F918F917F916F915F9178
:100820004F913F912F910F900BBE0F900FBE0F90E5
:100830001F9018951F920F920FB60F9211240BB6AE
:100840000F922F933F934F935F936F937F938F9369
:100850009F93AF93BF93EF93FF9387E795E00CDEF1
:10086000FF91EF91BF91AF919F918F917F916F9188
:100870005F914F913F912F910F900BBE0F900FBE44
:100880000F901F9018951F920F920FB60F92112480
:100890000BB60F922F933F934F935F936F937F937A
:1008A0008F939F93AF93BF93EF93FF9387E795E069
:1008B0008ADDFF91EF91BF91AF919F918F917F91D1
:1008C0006F915F914F913F912F910F900BBE0F90C1
:1008D0000FBE0F901F90189590E0FC013197E23108
:1008E000F10508F04EC08827EE58FF4F8F4F0C944B
:1008F000A927809180008F7703C0809180008F7D31
:1009000080938000089580918000877FF9CF84B51F
:100910008F7702C084B58F7D84BD08958091B0002B
:100920008F7703C08091B0008F7D8093B0000895D1
:10093000809190008F7707C0809190008F7D03C0D9
:1009400080919000877F8093900008958091A0000F
:100950008F7707C08091A0008F7D03C08091A00099
:10096000877F8093A0000895809120018F7707C032
:10097000809120018F7D03C080912001877F80932B
:10098000200108958F929F92AF92BF92CF92DF92F3
:10099000EF92FF926B017C012ADE4B015C01C114D6
:1009A000D104E104F104E9F022DEDC01CB01881975
:1009B0009909AA09BB09883E9340A105B10578F3BE
:1009C00021E0C21AD108E108F10888EE880E83E020
:1009D000981EA11CB11CC114D104E104F10421F73B
:1009E000DECFFF90EF90DF90CF90BF90AF909F90C1
:1009F0008F9008952FB7F8946091730370917403EA
:100A000080917503909176032FBF08951F920F92E6
:100A10000FB60F9211242F933F938F939F93AF9311
:100A2000BF938091730390917403A0917503B0916B
:100A300076033091720323E0230F2D3720F40196C3
:100A4000A11DB11D05C026E8230F0296A11DB11DF1
:100A5000209372038093730390937403A0937503A0
:100A6000B09376038091770390917803A0917903F6
:100A7000B0917A030196A11DB11D809377039093E5
:100A80007803A0937903B0937A03BF91AF919F91BC
:100A90008F913F912F910F900FBE0F901F9018953F
:100AA0001F920F920FB60F9211240BB60F922F9335
:100AB0003F934F935F936F937F938F939F93AF93E6
:100AC000BF93CF93DF93EF93FF9386E09FEF9093D5
:100AD00085008093840080913D05882309F470C0CF
:100AE0008091400590914105019690934105809336
:100AF000400520914205309143058217930708F481
:100B00005FC0109241051092400580914405E0912C
:100B10003B05F0913C0527E0829FE00DF11D11247B
:100B20008681882321F00190F081E02D1995609154
:100B30003D05A0914205B0914305E0913B05F09140
:100B40003C0520E0CF01261749F0448155814A1B1E
:100B50005B0B558344832F5F3796F5CF2091440577
:100B6000FC0137E0239FE00DF11D11242281338128
:100B70003583248310924405FC0121E03091440523
:100B8000261790F4EC0147E0349FC00DD11D1124CD
:100B9000A385B4854C815D81A417B50710F420931B
:100BA00044052F5F3796EACFFC0127E0329FE00D26
:100BB000F11D112484819581909343058093420512
:100BC000FF91EF91DF91CF91BF91AF919F918F9165
:100BD0007F916F915F914F913F912F910F900BBE3D
:100BE0000F900FBE0F901F901895FC01248131E0EB
:100BF00030937C0420939D04109268051092670541
:100C00008385682B8BE695E031D481E00C94E0106D
:100C10000F931F93CF938C01C62FE7DF6C2F646077
:100C2000C801E3DF6C2F6B7FC801DFDF83EC90E04E
:100C30000197F1F7CF911F910F9108950F931F9393
:100C4000CF938C01C62F607F6160E2DF80E1C89F97
:100C5000B00111246160C801DBDF81E090E0CF9139
:100C60001F910F9108950F931F93CF938C01C62F5F
:100C7000607FCEDF80E1C89FB0011124C801CF9111
:100C80001F910F91C5CFFC016681262F226026831C
:100C90006A60E9CFCF93DF93CDB7DEB728970FB661
:100CA000F894DEBF0FBECDBF9C0188E0ECE1F2E01E
:100CB000DE01119601900D928A95E1F7F901808588
:100CC000841710F44FEF480FFE013196E40FF11D29
:100CD000E40FF11D9081690F6068C90128960FB675
:100CE000F894DEBF0FBECDBFDF91CF91BCCF61E0E6
:100CF000BADF8BE39FE10197F1F70895AF92BF92BE
:100D0000DF92EF92FF920F931F93CF93DF93CDB7B4
:100D1000DEB72C970FB6F894DEBF0FBECDBF8C01A7
:100D20005B0165E872E0CE0101960E94E415F801CE
:100D3000278D30A141A152A1638D748D858D968D33
:100D40000E9470271816A4F17801F6E0EF0EF11C4E
:100D5000B701C8010C960E943C15BE016F5F7F4F22
:100D6000CE0107960E94DC15B501CE0107960E94C0
:100D7000F714BC01C7010E943C15CE0107960E94E2
:100D8000511581E0F8018383CE0101960E9451152F
:100D90002C960FB6F894DEBF0FBECDBFDF91CF917A
:100DA0001F910F91FF90EF90DF90BF90AF9008954B
:100DB000D12CF801638D748D858D968D0E943F270F
:100DC0004AE0CE0107960E948515EB84FC84F5016C
:100DD00084819581E81AF90ACE0107960E9451157F
:100DE0008D2D90E08E159F0508F0AECFBE016F5F90
:100DF0007F4FCE0107960E94DC156DE872E0CE01B0
:100E000007960E94E014BC01CE0101960E943C1599
:100E1000CE0107960E945115D394CBCFAF92BF92CB
:100E2000CF92DF92EF92FF920F931F93CF93DF93B6
:100E3000EC019C8120E030E0EE24EA94FE2C29179E
:100E400080F4EA81FB81A901440F551FE40FF51FCF
:100E5000408151814617570709F479012F5F3F4FB1
:100E6000EECF8FEFE816F80609F446C0992311F08B
:100E700091509C838B01CC80D12CC601880F991F87
:100E80000E94C5275C0150E040E0252F30E0C216EB
:100E9000D306ACF02E153F0581F0220F331FEA81F7
:100EA000FB81E20FF31F80819181F501E40FF11DB9
:100EB000E40FF11D918380834F5F5F5FE6CF8A81EE
:100EC0009B81009711F00E945A28AA82BB820115CB
:100ED000110591F0D801ED91FC910280F381E02D94
:100EE000C801DF91CF911F910F91FF90EF90DF909C
:100EF000CF90BF90AF901994DF91CF911F910F9138
:100F0000FF90EF90DF90CF90BF90AF900895EF9259
:100F1000FF920F931F93CF93DF93EC017B018C0122
:100F20000A5F1F4FB8010C960E943C15B701C8011B
:100F30000E943C1581E08B83DF91CF911F910F912F
:100F4000FF90EF9008956F927F928F929F92AF9251
:100F5000BF92CF92DF92EF92FF920F931F93CF93A6
:100F6000DF9300D000D0CDB7DEB76C014B015A0142
:100F7000122F88E292E0F6019183808381E08283E0
:100F8000138265E872E0C60106960E94E41565E8E2
:100F900072E0C6010C960E94E415F401648063942B
:100FA0006482712CC301880F991F0E94C5277C01A0
:100FB00020E0F1E06F1A7108422F50E0F4018281C5
:100FC00093814615570574F4440F551FFC01E40F37
:100FD000F51F80819181F701E40FF51F91838083D4
:100FE0002F5FEACF009711F00E945A28F401F38294
:100FF000E2828481F701E80FF11DE80FF11D3297BD
:10100000D182C082B501CE0101960E94DC15BE01DD
:101010006F5F7F4FC6017BDFCE0101960E945115A5
:10102000F6011483058326960FB6F894DEBF0FBE33
:10103000CDBFDF91CF911F910F91FF90EF90DF9087
:10104000CF90BF90AF909F908F907F906F900895BA
:10105000CF92DF92EF92FF920F93CF93DF93CDB7B2
:10106000DEB727970FB6F894DEBF0FBECDBF7C0169
:101070006B01BA01CE0101962F830E94DC152F81EE
:10108000AE014F5F5F4FB601C7015DDFCE01019634
:101090000E9451158CE392E0F70191838083138ABB
:1010A000128A27960FB6F894DEBF0FBECDBFDF9130
:1010B000CF910F91FF90EF90DF90CF9008954F92D6
:1010C0005F926F927F928F929F92AF92BF92CF92D8
:1010D000DF92EF920F93CF93DF93CDB7DEB72B97CD
:1010E0000FB6F894DEBF0FBECDBF6C013B014901C6
:1010F0005A01202F0E2D65E872E0CE0101962B8754
:101100000E94E4152B85AE014F5F5F4FB301C6010E
:101110001ADFCE0101960E94511586E492E0F60195
:1011200091838083138E148E158E168E178E10A2C7
:1011300011A212A2C501B4010E943F276F837887D4
:1011400089879A872F813885B901330F880B990BCE
:101150000E9443259B01AC01C501B4010E94722687
:1011600020E030E0A9010E943D25811105C080E00A
:1011700090E0A0E8BFE31AC02AE037ED43E25CE369
:10118000C501B4010E94D7260E943F27CB016AE027
:1011900070E00E947427811105C08DEC9CECACECD2
:1011A000BDE304C08AE097EDA3E2BCE3F601828BC5
:1011B000938BA48BB58BF601868A978AA08EB18E0D
:1011C0004288538864887588C301B2010E943F2712
:1011D000072E000C880B990B0E9443259B01AC0144
:1011E000C301B2010E94722620E030E0A9010E94F2
:1011F0003D25811108C04AE06F817885CE010196B6
:101200000E94851507C022E0B501A401CE01019618
:101210000E945615BE016F5F7F4FC6016FDDCE0184
:1012200001960E945115F601128E2B960FB6F89476
:10123000DEBF0FBECDBFDF91CF910F91EF90DF905A
:10124000CF90BF90AF909F908F907F906F905F9066
:101250004F900895CF92DF92EF92FF920F93CF932A
:10126000DF93CDB7DEB727970FB6F894DEBF0FBE7A
:10127000CDBF7C016B01BA01CE0101962F830E9484
:10128000DC152F81AE014F5F5F4FB601C7015BDEFA
:10129000CE0101960E94511580E592E0F7019183FD
:1012A000808327960FB6F894DEBF0FBECDBFDF91C7
:1012B000CF910F91FF90EF90DF90CF900895CF9254
:1012C000DF92EF92FF920F93CF93DF93CDB7DEB70C
:1012D00027970FB6F894DEBF0FBECDBF7C016B0120
:1012E000BA01CE0101962F830E94DC152F81AE0139
:1012F0004F5F5F4FB601C70126DECE0101960E9407
:10130000511582E392E0D7018D939C9386E090E0A3
:101310000E94C527FC0186E0DF011D928A95E9F74E
:101320001482158288E192E091838083D7015396DD
:10133000FC93EE93529727960FB6F894DEBF0FBE3C
:10134000CDBFDF91CF910F91FF90EF90DF90CF90C5
:10135000089585ED8093BC008091BC0084FDFCCF96
:1013600010927B04089540913004262F30E0240F22
:10137000311D21323105DCF420917B042430C9F485
:10138000FC0180E090E0861758F430913004219100
:10139000DC01A25FBB4FA30FB11D2C930196F3CFCD
:1013A00080913004680F6093300480E0089581E0FC
:1013B000089582E008950895E0916A058091690595
:1013C000E81730F4F0E0EA5FFC4F808190E0089588
:1013D0008FEF9FEF089590916A05809169059817A6
:1013E00050F4E92FF0E0EA5FFC4F208130E09F5F8E
:1013F00090936A0502C02FEF3FEFC90108958091D5
:10140000690590E020916A05821B91090895CF92A9
:10141000DF92EF92FF920F931F93CF93DF937C01A4
:10142000262F972F8A0180917C04882391F0C62F64
:10143000D72F6E01C40ED51ECC15DD0569F069915C
:10144000D701ED91FC910190F081E02DC701199534
:10145000F3CF642F822F87DFC801DF91CF911F91D7
:101460000F91FF90EF90DF90CF900895CF93DF938F
:101470001F92CDB7DEB7698320917C042223D1F07F
:1014800020916705203240F021E030E0FC013383F9
:10149000228380E090E014C080916805E82FF0E09E
:1014A000E358FB4F998190838F5F80936805809309
:1014B000670504C061E0CE01019655DF81E090E050
:1014C0000F90DF91CF910895CF93DF93CDB7DEB723
:1014D000A4970FB6F894DEBF0FBECDBF4AE060916F
:1014E0002A03CE010D960E94B0154AE060912B03AD
:1014F000CE0107960E94B01560912C0370E06F3109
:1015000071051CF06E51710906C08EE190E09C01DE
:10151000261B370BB9014AE0CE014F960E94851574
:101520006BEE72E0CE0143960E94E415BE016D5E43
:101530007F4FCE0149960E94DC15BE01615E7F4F50
:10154000CE0149960E94F714BC01CE0101960E947B
:10155000DC15CE0149960E945115CE0143960E949A
:101560005115CE014F960E94511589899A8901978C
:1015700009F56DE872E0CE0143960E94E415BE01C4
:101580006D5E7F4FCE0149960E94DC15BE01635F00
:101590007F4FCE0149960E94F714BC01CE010D96F3
:1015A0000E943C15CE0149960E945115CE014396EA
:1015B0000E9451158B859C85019709F56DE872E0B5
:1015C000CE0143960E94E415BE016D5E7F4FCE01B1
:1015D00049960E94DC15BE01695F7F4FCE01499696
:1015E0000E94F714BC01CE0107960E943C15CE0163
:1015F00049960E945115CE0143960E945115BE0195
:10160000635F7F4FCE0143960E94DC156EEE72E061
:10161000CE0143960E94E014BE01695F7F4F0E9495
:10162000F7146EEE72E00E94E014BE016F5F7F4F10
:101630000E94F714BC01CE0149960E94DC15BE0140
:10164000675E7F4F809104039091050360DCCE01BB
:1016500049960E945115CE0143960E945115CE0124
:1016600001960E945115CE0107960E945115CE0198
:101670000D960E945115A4960FB6F894DEBF0FBECA
:10168000CDBFDF91CF910895CF93DF93CDB7DEB774
:101690006E970FB6F894DEBF0FBECDBF4AE06091E3
:1016A0002803CE010D960E94B0154AE060912703F1
:1016B000CE0107960E94B0154AE060912603CE0144
:1016C00001960E94B01589899A89019709F56DE8FC
:1016D00072E0CE0143960E94E415BE016D5E7F4F1D
:1016E000CE0149960E94DC15BE01635F7F4FCE019B
:1016F00049960E94F714BC01CE010D960E943C153C
:10170000CE0149960E945115CE0143960E94511573
:101710008B859C85019709F56DE872E0CE014396B3
:101720000E94E415BE016D5E7F4FCE0149960E9476
:10173000DC15BE01695F7F4FCE0149960E94F71408
:10174000BC01CE0107960E943C15CE0149960E942D
:101750005115CE0143960E9451158D819E810197AE
:1017600009F56DE872E0CE0143960E94E415BE01D2
:101770006D5E7F4FCE0149960E94DC15BE016F5F02
:101780007F4FCE0149960E94F714BC01CE0101960D
:101790000E943C15CE0149960E945115CE014396F8
:1017A0000E945115BE01635F7F4FCE0143960E9498
:1017B000DC1560EF72E0CE0143960E94E014BE019A
:1017C000695F7F4F0E94F71460EF72E00E94E0149F
:1017D000BE016F5F7F4F0E94F714BC01CE01499696
:1017E0000E94DC15BE01675E7F4F809102039091DD
:1017F00003038DDBCE0149960E945115CE0143961D
:101800000E945115CE0101960E945115CE010796F6
:101810000E945115CE010D960E9451156E960FB67D
:10182000F894DEBF0FBECDBFDF91CF9108952F9208
:101830003F924F925F926F927F928F929F92AF9260
:10184000BF92CF92DF92EF92FF920F931F93CF93AD
:10185000DF93482F20914705022E000C330BC9015E
:1018600006976AE070E00E94742780904805880C13
:101870008A948A94860EC42FD0E026E0429FC0014D
:101880001124FC01E80DF11DA3E0EE0FFF1FAA9546
:10189000E1F7E258FC4F60817181E280F380A4801F
:1018A000B580668077808E0105581C4FF801208036
:1018B000312CF1E02F1A3108982CE92DF0E0E215D7
:1018C000F3050CF04DC0292D2170522E550C252DFD
:1018D000220F220F520E492C46944394DF01119699
:1018E000A80FB91F23E0AA0FBB1F2A95E1F7A25842
:1018F000BC4FCD90DC901197E80FF91F33E0EE0F4D
:10190000FF1F3A95E1F7E258FC4FD182C082129650
:101910004D915C9113975383428314962D913C9182
:1019200015973583248316960D90BC91A02DB7830F
:10193000A683F60154824582E2E0DE2ED50CFA0140
:10194000D482458243E0450DF9014483458226E077
:10195000250D14962C93149715964C929394ADCF15
:10196000E0910003F09101038289938957DAE091B5
:101970000003F0910103B701828993894FDAE09166
:101980000003F0910103B5018289938947DAE09160
:101990000003F0910103B301828993893FDA8091BA
:1019A000450590914605A3D9809163059091640502
:1019B000BED4F8018081815080838DE18C9F90019D
:1019C0008D9F300D1124F901EC5EF94F6081462F97
:1019D00050E041505109882D90E0841795070CF58F
:1019E000DC011196AA0FBB1FAA0FBB1FA20FB31FCA
:1019F000AC5EB94F11960D911C911297FC01EE0F40
:101A0000FF1FEE0FFF1FE20FF31FEC5EF94F128373
:101A1000018313968D919C9114979483838383946F
:101A2000DACF8DE18C9FF0018D9FF00D1124EC5EDB
:101A3000F94F61506083DF91CF911F910F91FF901B
:101A4000EF90DF90CF90BF90AF909F908F907F905E
:101A50006F905F904F903F902F90089582E0E7CE77
:101A600081E0E5CE80E0E3CE2F923F924F925F92ED
:101A70006F927F928F929F92AF92BF92CF92DF929E
:101A8000EF92FF920F931F93CF93DF93CDB7DEB703
:101A900027970FB6F894DEBF0FBECDBF882E912CCE
:101AA000940125583C4F3901F9011081163009F491
:101AB000EAC0912F9170F92EFF0C2F2D220F220FCB
:101AC000F20E16951F5F813069F038F0823081F494
:101AD000E091FC02F091FD0209C0E0910003F09159
:101AE000010304C0E091FE02F091FF02C288D38896
:101AF0008F8383E290E00E94C5272C01E12E0F2DF9
:101B000020E030E040E451E4B601D9DAF30180810D
:101B100096E0989D5001999DB00C11249501280FD5
:101B2000311DC90123E0880F991F2A95E1F7FC01B7
:101B3000E258FC4F1F015182408280E090E0A0E417
:101B4000B1E4F201838F948FA58FB68F60EF72E0BE
:101B5000CE0101960E94E41582E190E00E94C52723
:101B60002C0122E02F0D012FAE014F5F5F4FB60118
:101B700071DBF10153824282CE01019692D783E25A
:101B800090E00E94C5272C0103E00F0D20E030E01B
:101B900040E751E4B60193DAF301E080AE0CB11CEA
:101BA000C50133E0880F991F3A95E1F79C0122584F
:101BB0003C4F1901F9015582448280E090E0ACE687
:101BC000B2E4F201838F948FA58FB68F62EF72E03B
:101BD000CE010196F9D784E190E00E94C5275C010F
:101BE00026E02F0D012FAE014F5F5F4FB60130DAB7
:101BF000F101B782A682CE01019653D7FF81F13061
:101C000049F028F0F23059F48EE29DE005C082E3FD
:101C10009DE002C080E39DE0F501938B828BE3940D
:101C2000F301E0828DE1889DD001899DB00D1124E2
:101C3000FD01EC5EF94F808191E0980F9083F4E014
:101C40008F9FA00DB11D1124AC5EB94F96E0989DF9
:101C5000F001999DF00D1124E80FF11D83E0EE0FC6
:101C6000FF1F8A95E1F7E258FC4F808191814696EB
:101C700012969C938E931197848195814696149623
:101C80009C938E93139727960FB6F894DEBF0FBEE2
:101C9000CDBFDF91CF911F910F91FF90EF90DF901B
:101CA000CF90BF90AF909F908F907F906F905F90FC
:101CB0004F903F902F90089582E0D6CE81E0D4CE11
:101CC00080E0D2CE1F920F920FB60F9211240BB666
:101CD0000F922F933F934F935F936F937F938F93C5
:101CE0009F93AF93BF93EF93FF938091B900887F49
:101CF000803609F49CC068F5883209F45BC090F422
:101D0000803109F454C038F4882309F4F6C08830CF
:101D100009F44DC0F5C0883109F44CC0803209F493
:101D20005DC0EEC0803409F468C048F4803309F423
:101D300055C0883309F0E4C080937904D8C0803559
:101D400009F44FC0883509F45DC0883409F0D8C063
:101D5000D6C0883909F4C7C0A8F4883709F467C029
:101D600038F4883609F463C0803709F460C0C8C00D
:101D7000883809F4B8C0803909F45FC0803809F0A8
:101D8000BFC05BC0803B09F486C038F4803A09F4D8
:101D900066C0883A09F47FC0B3C0803C09F4A7C08C
:101DA000883C09F4A4C0883B09F48AC0A9C080918A
:101DB000560410C09091780480917704981770F5BC
:101DC000E091780481E08E0F80937804F0E0E95A86
:101DD000FB4F80818093BB0085EC86C080937904A3
:101DE0008EC0E091780481E08E0F8093780480911A
:101DF000BB00F0E0E95AFB4F80839091780480911A
:101E000077046EC0E091780481E08E0F80937804AF
:101E10008091BB00F0E0E95AFB4F808380917A0407
:101E200081116DC081E08093550484EA61C083E034
:101E300080937B0410925404CFCF8091540480325D
:101E400008F051C0E091540481E08E0F8093540457
:101E50008091BB00F0E0EC5CFB4F8083BDCF85EC54
:101E60008093BC0010927B0480915404803230F443
:101E7000E0915404F0E0EC5CFB4F1082609154045C
:101E800070E0E0913204F091330484E394E019951A
:101E90001092540435C084E080937B041092310486
:101EA00010923004E0912E04F0912F041995809146
:101EB0003004811105C081E08093300410920E043B
:101EC000E091310481E08E0F80933104F0E0E25F15
:101ED000FB4F80818093BB0090913104809130044E
:101EE000981708F479CF85E88093BC0009C085EC89
:101EF0008093BC0010927B0403C01092790429DA0D
:101F0000FF91EF91BF91AF919F918F917F916F91D1
:101F10005F914F913F912F910F900BBE0F900FBE8D
:101F20000F901F90189510927B0481E080937A04A3
:101F30001092550484E108D385E106D3E9EBF0E083
:101F400080818E7F808380818D7F808388E48093F1
:101F5000B80085E48093BC00089528E132E0FC01DC
:101F6000318320830C942B03CF93DF93EC01F5DFB7
:101F7000CE01DF91CF910C945A28EF92FF920F93EC
:101F80001F93CF93DF93CDB7DEB72C970FB6F8949E
:101F9000DEBF0FBECDBF7C0165E872E0CE010796C3
:101FA00013D6F701208931892115310511F41285E5
:101FB00001C0122F00E00117A1F0BE01695F7F4F41
:101FC000CE010196F9D564E872E0CE010196F8D40D
:101FD000BC01CE01079650D5CE01019662D50F5FA8
:101FE000EACFF701458164818091450590914605CE
:101FF0000E944A06BE01695F7F4F8091450590911E
:10200000460536D6CE0107964CD52C960FB6F894D9
:10201000DEBF0FBECDBFDF91CF911F910F91FF901B
:10202000EF900895CF92DF92EF92FF920F931F935C
:10203000CF93DF93EC016A017B01E889F98982E0A3
:1020400080834115514E61057105B1F060E079E082
:102050008DE390E0A70196010E94872789019A01EC
:1020600001501109210931093695279517950795D2
:10207000980101151041A8F0E889F989108260E8FB
:1020800074E88EE190E0A70196010E948727DA01AB
:10209000C9010197A109B109B695A79597958795AB
:1020A0009C01EC85FD853083EE85FF852083188EAD
:1020B000EC89FD8986E08083EA89FB8980818061E3
:1020C0008083EA89FB89808188608083EA89FB8933
:1020D000808180688083EA89FB8980818F7D80830D
:1020E000DF91CF911F910F91FF90EF90DF90CF90F4
:1020F0000895EF92FF920F931F93CF93DF938C017C
:1021000090913D0581E0890F80933D05E82EF12CEB
:1021100027E0829FC00111240E94C527EC01FC0129
:10212000A70181E0E114F10461F0118210821382B1
:102130001282158214828683379661E0E61AF108CE
:10214000F1CF90E04150510987E0292F30E0E09134
:102150003B05F0913C052417350784F467E0969F12
:1021600090011124DE01A20FB31FE20FF31F282FED
:1021700001900D922A95E1F79F5FE7CF309719F014
:10218000CF010E945A28D0933C05C0933B05809113
:102190003D0597E0899FC00DD11D11242797198314
:1021A000088388EE93E09B838A831D821C8281E0F2
:1021B0008E83DF91CF911F910F91FF90EF90089543
:1021C000382F2091670590919D04213208F049C075
:1021D00080917B048111FCCF42E040937B043093DB
:1021E0007A043FEF309379041092780420937704B7
:1021F000ADE7B4E047E554E0FA013E2F341B321757
:1022000018F43D913193F9CF109256042091560461
:10221000990F922B9093560490915504913061F44C
:1022200010925504909156049093BB009091BC007D
:1022300093FDF8CF95EC01C095EE9093BC00909182
:102240007B049230E1F3909179049F3F79F0809183
:102250007904803241F080917904803331F084E058
:1022600005C081E003C082E001C083E010926805F0
:102270001092670510927C0408951F93CF93DF930B
:10228000809162058F3F79F48091450590914605D4
:10229000DC01ED91FC910280F381E02D47E050E0FC
:1022A00064EF72E0199510E0E0916305F091640528
:1022B0008481181778F592818381E92FF82FE10F37
:1022C000F11DE10FF11DC081D1818B81882301F1C6
:1022D0008A81811103C0CE0150DE19C02889398955
:1022E0008A859B858217930710F4CE0146DE4D81C7
:1022F0006C8180914505909146050E944A06BE0179
:102300006A5F7F4F8091450590914605B1D41B824D
:102310001F5FCACF409148056091470580914505F0
:1023200090914605DF91CF911F910C944A06FF9240
:102330000F931F93CF93DF9390936405809363056E
:10234000C0E0D1E0E0916305F09164058481C81795
:10235000D0F492818381E92FF82FEC0FF11DEC0F5F
:10236000F11D80819181DC01ED91FC910480F5816A
:10237000E02D1995019729F0E0916305F09164052E
:10238000D583CF5FDFCF809161058F3F41F02481FE
:102390008091450590914605211118C01AC02091E1
:1023A0004C05A0914A05B0914B0580E090E0821762
:1023B00051F04D915D914E175F0719F480936205BE
:1023C00091E08F5FF4CF9111E2CF71C0258121118F
:1023D00010C010924905FC0166816D7F66836860BC
:1023E0000E943306A0916305B091640580E021E06E
:1023F00047C021E0209349050E944306D4E684E6C5
:10240000F82EC0E0E0916305F09164058481C8175F
:1024100090F592818381E92FF82FEC0FF11DEC0FDD
:10242000F11D00811181D801ED91FC910480F581AD
:10243000E02DC80119950197E1F0F8012581422F9F
:1024400050E08D2F0D2E000C990B4817590751F4B1
:10245000848190E04F2D0F2C000C550B84179507AD
:1024600024F007C04817590724F4D8011496FC90AB
:10247000D22FCF5FC7CFF0924705D0934805B2CF98
:1024800014969C911497891790F412963C91129788
:1024900013969C911397E32FF92FE80FF11DE80F86
:1024A000F11D0190F081E02D23838F5FE9CFDF9153
:1024B000CF911F910F91FF900895EF92FF920F938C
:1024C0001F93CF93DF937C0100914C050F5F009326
:1024D0004C0510E0C801880F991F0E94C527EC0128
:1024E00080914A0590914B0540E001501109242F3D
:1024F00030E02017310774F4220F331FFC01E20F84
:10250000F31F60817181FE01E20FF31F718360830D
:102510004F5FEDCF009711F00E945A28D0934B05E2
:10252000C0934A0580914C059E01280F311D280F4C
:10253000311DF9013297F182E082DF91CF911F9135
:102540000F91FF90EF900895CF93DF93282F30E005
:10255000F901E350FD4F8491F901E954FD4FD49105
:10256000F901EF58FD4FC491CC2389F081110E94ED
:102570006C04EC2FF0E0EE0FFF1FE95AFD4FA59120
:10258000B4918FB7F894EC91ED2BEC938FBFDF9162
:10259000CF9108950F931F93CF93DF938C018BE618
:1025A00096E0909346058093450581E08093490528
:1025B0008FEF809347058093480510926A0510922B
:1025C00069051092680510926705ADDC10927006DF
:1025D00080917506823018F098E090937006809391
:1025E000730662E370E080E090E00E94C2046091B4
:1025F00076068BE696E00E94F50568EE73E080E0D3
:1026000090E00E94C20460E38BE696E00E94080618
:10261000CBE4D6E4CE010197F1F760E38BE696E0D8
:102620000E9408062197F1F760E38BE696E00E948E
:10263000080683E592E00197F1F760E28BE696E009
:102640000E94080690917006692F60628BE696E002
:102650000E94330684E0809371066CE08BE696E07E
:102660000E9433068BE696E00E94770682E0809314
:10267000720666E08BE696E00E94330662E08BE627
:1026800096E00E943306EBE3FFE13197F1F7E0912A
:102690004505F091460588E0838760E0CF010E9400
:1026A000F50580914505909146050E94430640E05E
:1026B00060E080914505909146050E944A06B80168
:1026C0008091450590914605D3D268EE73E080E095
:1026D00090E00E94C20480914505909146050E94B9
:1026E00077068FEF80936205DF91CF911F910F9155
:1026F0000895CF92DF92EF92FF920F931F93CF93A3
:10270000DF936C017A018B01C0E0D0E0CE15DF05CC
:1027100089F0D8016D918D01D601ED91FC91019068
:10272000F081E02DC6011995892B11F47E0102C0BC
:102730002196ECCFC701DF91CF911F910F91FF90B0
:10274000EF90DF90CF900895CF93DF93EC018881D5
:102750009981009711F00E945A28198218821D82CF
:102760001C821B821A82DF91CF9108958F929F92D3
:10277000AF92BF92EF92FF920F931F93CF93DF938D
:1027800090918506209186063091870600E0091712
:1027900009F467C02D5F3F4FF90133974081481717
:1027A00011F00F5FF4CF282F30E0F901E350FD4F17
:1027B0008491F901E954FD4FD491F901EF58FD4F8F
:1027C000C49110E0CC2379F081110E946C04EC2FAD
:1027D000F0E0EE0FFF1FED5BFC4FA591B491EC9183
:1027E000ED2309F067C00E94FA047801EE0CFF1C8B
:1027F000EE0CFF1CE0918A06F0918B069801220FE7
:10280000331FE20FF31FA0918806B0918906AE0D29
:10281000BF1D8D909D90AD90BC909B01AC0128197F
:1028200039094A095B0949015A014081518160E037
:1028300070E080918C0690918D06481559056A05C7
:102840007B0548F421E0DC01A00FB11F2C9324E6A6
:1028500030E031832083FC01E00FF11FC081C11102
:1028600002C0C0E04DC00E94FA0420918806309159
:102870008906E20EF31EF70180809180A280B3806A
:10288000DC01CB0188199909AA09BB094497A10564
:10289000B10538F30E94FA04F701608371838283E3
:1028A000938380918C0690918D06FC01E00FF11FBF
:1028B000108226C0C801880F991F880F991FC091E8
:1028C0008806D0918906C80FD91F0E94FA04688330
:1028D00079838A839B83E0918C06F0918D06E00FCB
:1028E000F11F81E08083000F111FE0918A06F091B3
:1028F0008B06E00FF11F88EE93E091838083B1CFC8
:102900008C2FDF91CF911F910F91FF90EF90BF908F
:10291000AF909F908F9008950F931F93CF93DF9365
:10292000EC0188819981009729F02A813B81261743
:10293000370788F48B016F5F7F4F0E94F228009762
:1029400061F0998388831B830A832C813D81232B2B
:1029500011F4FC01108281E001C080E0DF91CF9191
:102960001F910F910895EF92FF920F931F93CF93B2
:10297000DF93FC01248135816115710511F480E03C
:1029800018C041155105A1F07B01EC018A01020F2D
:10299000131FB801C1DF882391F3288139818C810D
:1029A0009D81B701820F931F0E94EC291D830C8328
:1029B00081E0DF91CF911F910F91FF90EF900895EB
:1029C000CF93DF93EC016115710559F0FB01019084
:1029D0000020E9F73197AF01461B570BC4DF811187
:1029E00002C0CE01B1DECE01DF91CF910895CF9329
:1029F000DF93EC01FB014481558160817181B3DF7C
:102A0000811102C0CE01A0DECE01DF91CF910895E9
:102A1000EF92FF920F931F93CF93DF93EC017B0113
:102A20008A01BA0179DF811103C0CE018DDE07C0B2
:102A30001D830C83B701888199810E94EC29CE0106
:102A4000DF91CF911F910F91FF90EF900895CF9359
:102A5000DF93EC016115710551F0FB01019000203D
:102A6000E9F73197AF01461B570BD2DF01C06CDE8F
:102A7000CE01DF91CF910895CF93DF93EC01FB015D
:102A80008617970751F0608171816115710521F0FA
:102A900044815581BDDF01C057DECE01DF91CF916A
:102AA0000895FC01808191810C945A28EF92FF9245
:102AB0000F931F93CF93DF93CDB7DEB7A1970FB6D8
:102AC000F894DEBF0FBECDBF7C01CB01BA01F70188
:102AD00011821082138212821582148242E0420F08
:102AE0008E010F5F1F4F0E94E920BC01C701AFDFBD
:102AF000A1960FB6F894DEBF0FBECDBFDF91CF9188
:102B00001F910F91FF90EF9008950F931F93CF9314
:102B1000DF93CDB7DEB762970FB6F894DEBF0FBE76
:102B2000CDBF8C01CB01F801118210821382128279
:102B30001582148250E0BE016F5F7F4F0E940B210F
:102B4000BE016F5F7F4FC80182DF62960FB6F894B7
:102B5000DEBF0FBECDBFDF91CF911F910F910895C2
:102B60000F931F93CF93DF93CDB7DEB729970FB69F
:102B7000F894DEBF0FBECDBF8C01862FF801118205
:102B80001082138212821582148250E0BE016F5FA0
:102B90007F4F90E00E941F21BE016F5F7F4FC801F1
:102BA00056DF29960FB6F894DEBF0FBECDBFDF917A
:102BB000CF911F910F910895FC0111821082138211
:102BC00012821582148258CFFC0111821082138266
:102BD0001282158214826115710549F0FB01019082
:102BE0000020E9F73197AF01461B570B11CF08952D
:102BF000DF92EF92FF920F931F93CF93DF937C01AD
:102C00008B01EA014617570720F4812F8A01C62F4E
:102C1000D82F65E872E0C701D7DF809183069091D5
:102C2000840608171907D8F48C179D0708F4EC01DF
:102C3000E0917F06F0918006EC0FFD1FD08010829E
:102C400060917F0670918006600F711FC701FFDEE3
:102C5000E0917F06F0918006EC0FFD1FD082C70146
:102C6000DF91CF911F910F91FF90EF90DF9008952A
:102C7000DC01ED91FC91DB0114964D915C9115976F
:102C80006D917C910280F381E02D1994CF93DF93B5
:102C9000CDB7DEB762970FB6F894DEBF0FBECDBFDB
:102CA000789484B5826084BD84B5816084BD85B527
:102CB000826085BD85B5816085BD80916E00816033
:102CC00080936E00109281008091810082608093D9
:102CD00081008091810081608093810080918000DB
:102CE0008160809380008091B10084608093B10006
:102CF0008091B00081608093B000809191008260EB
:102D000080939100809191008160809391008091E7
:102D100090008160809390008091A10082608093F8
:102D2000A1008091A10081608093A1008091A0000A
:102D300081608093A00080912101826080932101B5
:102D40008091210181608093210180912001816027
:102D50008093200180917A00846080937A00809132
:102D60007A00826080937A0080917A0081608093FB
:102D70007A0080917A00806880937A001092C10076
:102D800040E855E260E070E087E795E04BD98EE9D6
:102D900094E090937A068093790640E855E260E0EB
:102DA00070E040D986E090E00E94C5277C0116E0E3
:102DB000DC01E12F1D92EA95E9F7DC0114961C92E3
:102DC000149715961C92159708E1C02E02E0D02E9C
:102DD000CD92DC9290935803809357036EE772E094
:102DE000CE010196F1DE82E190E00E94C5275C01F0
:102DF00000E020E0AE014F5F5F4FB7010E942A095B
:102E0000B0925603A0925503CE0101964ADE65E8C2
:102E100072E0CE010196D8DE82E190E00E94C527E3
:102E20005C0128E0AE014F5F5F4FB7010E942A09A5
:102E3000B0920503A0920403CE01019632DE66E84B
:102E400072E0CE010196C0DE82E190E00E94C527CB
:102E50005C0101E028E0AE014F5F5F4FB7010E94C7
:102E60002A09B0920303A0920203CE01019619DE53
:102E700086E090E00E94C5277C01FC0111921A9522
:102E8000E9F7DC0114961C92149715961C9215977D
:102E9000CD92DC9290935403809353036FE872E0D9
:102EA000CE01019691DE82E190E00E94C5276C017F
:102EB00000E027E0AE014F5F5F4FB7010E942A0993
:102EC000D0925203C0925103CE010196EADD68E927
:102ED00072E0CE01019678DE84E190E00E94C52781
:102EE0005C0102E020E0AE014F5F5F4FB7010E943E
:102EF0005F09B0925003A0924F03CE010196D1DD3D
:102F00006FE972E0CE0101965FDE84E190E00E94FD
:102F1000C5276C01F5016289738900E023E0AE01E9
:102F20004F5F5F4F0E945F09D0920103C092000380
:102F3000CE010196B6DD6EEA72E0CE01019644DE66
:102F400084E190E00E94C5277C01D60152966D91E4
:102F50007C91539720E0AE014F5F5F4F0E9428089D
:102F6000F0924E03E0924D03CE0101969ADD80E689
:102F70009EE0F701938B828B62EB72E0CE010196AB
:102F800023DE82E190E00E94C5277C01D5015296A4
:102F90006D917C91539701E020E0AE014F5F5F4F50
:102FA0000E942A09F0924C03E0924B03CE01019655
:102FB00078DD83E290E00E94C5276C01F50162890B
:102FC0007389EE24E3940AE02AE037ED44E052E40A
:102FD0000E945F08D0924A03C0924903F6E1CF0EE7
:102FE000D11CD0922E06C0922D066BEB72E0CE0162
:102FF0000196EADD82E190E00E94C5276C01E09035
:103000004F03F0905003D70152966D917C915397E6
:1030100002E020E0AE014F5F5F4F0E942A09D0928C
:103020004803C0924703CE0101963BDD83E290E066
:103030000E94C5276C01F7016289738982E0E82E3E
:103040000AE02DEC3CEC40E752E4C6010E945F0828
:10305000D0924603C0924503F6E1CF0ED11CD09228
:103060003006C0922F0664EC72E0CE010196ACDD12
:1030700084E190E00E94C5277C0160915303709128
:10308000540302E027E0AE014F5F5F4F0E945F09EB
:10309000F0924403E0924303CE01019602DD6FE912
:1030A00072E0CE01019690DD84E190E00E94C52798
:1030B0005C01D70152966D917C91539700E023E01B
:1030C000AE014F5F5F4F0E945F09B092FF02A09276
:1030D000FE02CE010196E5DC6EEA72E0CE010196B9
:1030E00073DD84E190E00E94C5276C01F5016289DF
:1030F000738920E0AE014F5F5F4F0E942808D09295
:103100004203C0924103CE010196CBDC8EE59EE0E6
:10311000D60153969C938E93529762EB72E0CE0148
:10312000019652DD82E190E00E94C5276C01F70113
:103130006289738901E020E0AE014F5F5F4F0E941A
:103140002A09D0924003C0923F03CE010196A9DC28
:1031500083E290E00E94C5276C01D70152966D91E1
:103160007C915397EE24E3940AE020E030E044E0C1
:1031700052E40E945F08D0923E03C0923D03B6E144
:10318000CB0ED11CD0924B06C0924A066BEB72E07C
:10319000CE01019619DD82E190E00E94C5276C0105
:1031A000E0904303F0904403F7016289738902E0E1
:1031B00020E0AE014F5F5F4F0E942A09D0923C038E
:1031C000C0923B03CE0101966CDC83E290E00E944A
:1031D000C5276C01D70152966D917C91539792E06F
:1031E000E92E0AE020E030E040E752E4C6010E9408
:1031F0005F08D0923A03C0923903B6E1CB0ED11CDE
:10320000D0924D06C0924C066BEC72E0CE01019656
:10321000DBDC84E190E00E94C5277C0160915303D0
:103220007091540302E02EE0AE014F5F5F4F0E94A9
:103230005F09F0923803E0923703CE01019631DC4A
:103240006FE972E0CE010196BFDC84E190E00E945C
:10325000C5275C01F7016289738900E023E0AE01B4
:103260004F5F5F4F0E945F09B092FD02A092FC0287
:10327000CE01019616DC6EEA72E0CE010196A4DC66
:1032800084E190E00E94C5276C01D50152966D91B2
:103290007C91539720E0AE014F5F5F4F0E9428085A
:1032A000D0923603C0923503CE010196FADB8CE54D
:1032B0009EE0F601938B828B62EB72E0CE01019669
:1032C00083DC82E190E00E94C5276C01D701529611
:1032D0006D917C91539701E020E0AE014F5F5F4F0D
:1032E0000E942A09D0923403C0923303CE01019682
:1032F000D8DB83E290E00E94C5276C01F701628968
:103300007389EE24E3940AE020E030E044E052E4E4
:103310000E945F08D0923203C0923103F6E1CF0ED3
:10332000D11CD0926806C09267066BEB72E0CE01AA
:1033300001964ADC82E190E00E94C5276C01E09092
:103340003703F0903803D70152966D917C915397D3
:1033500002E020E0AE014F5F5F4F0E942A09D09249
:103360003003C0922F03CE0101969BDB83E290E0F5
:103370000E94C5276C01F7016289738922E0E22E61
:103380000AE020E030E040E752E40E945F08D0927B
:103390002E03C0922D03F6E1CF0ED11CD0926A0607
:1033A000C092690662ED72E0CE0101960DDCCE019D
:1033B0000196F0D8CE01019674DB0091570310916D
:1033C0005803C8017AD8809153039091540375D85B
:1033D000C8010E9497110E943D118091860690912C
:1033E0008706009711F00E945A2880918A069091D2
:1033F0008B06009711F00E945A2880918C069091BC
:103400008D06009711F00E945A28809188069091AD
:103410008906009711F00E945A2886E0809385065D
:1034200082E190E00E94C527FC019C012E5E3F4F87
:10343000128211823396E217F307D1F79093870631
:10344000809386068CE090E00E94C52790938B06BF
:1034500080938A0686E090E00E94C52790938D06AF
:1034600080938C0688E190E00E94C527909389069E
:103470008093880670E048EE53E0A1E080918506D5
:10348000781708F05FC0272F30E063E0769FC00117
:103490001124F901E050FE4F6081E0918606F09121
:1034A0008706E80FF91F6083E0918606F091870692
:1034B000E80FF91F808190E0FC01E954FD4F649111
:1034C000FC01EF58FD4F84918823D1F090E0880FE4
:1034D000991FFC01E35CFD4F05911491FC01E95A31
:1034E000FD4FE590F4909FB7F894F801B081862FD6
:1034F00080958B238083F7018081682B60839FBF39
:10350000C901880F991FE0918A06F0918B06E80F98
:10351000F91F51834083E0918C06F0918D06E20FF4
:10352000F31FA083220F331F220F331FE091880661
:10353000F0918906E20FF31F10821182128213822A
:103540007F5F9CCFF89410928000109281001092BF
:103550006F008091810083608093810086E09FEFFF
:10356000909385008093840081E080936F0084E4D1
:103570009BE00E94791084E69AE00E94791040E076
:1035800057E0242F30E080913D0590E00197281707
:1035900039070CF040C0B7E04B9F8001112421E0B7
:1035A00080913D052817A8F580913B0590913C0539
:1035B000DC01A00FB11F12966D917C911397F7E07B
:1035C0002F9F800D911D1124FC01E280F380E616EF
:1035D000F706E8F4CD90DC9011971496ED90FC90EE
:1035E000159716963C911697B52E01900D92BA94A8
:1035F000E1F7DC011196DC92CE9213967C936E93E8
:1036000012971596FC92EE92149716963C932F5FA4
:10361000C7CF4F5FB6CF789411E086E0282E96E0B2
:10362000C92E93E0D92E25EE322E05EC10937C04A2
:10363000E8E6E0939D04109268051092670560E04B
:103640008BE695E00E94360A81E00E94E010882314
:1036500019F010925903B2C01093590380917B0462
:103660008111FCCF10937B0410937A04FFEFF09349
:103670007904109278042092770410935604809174
:103680005604806D8093560480915504813069F40E
:1036900010925504809156048093BB008091BC0029
:1036A00083FDF8CF0093BC0002C03092BC00809133
:1036B0007B048130E1F380917804873018F48091A5
:1036C000780401C087E0A7E5B4E0E6E0F3E09E2FD0
:1036D0009C19981718F49D919193F9CF10926A054F
:1036E00080936905873008F469C08BE695E00E94F5
:1036F000EB09982F9695969596959E70292F220FF7
:10370000220F920F8F70890F809326038BE695E02E
:103710000E94EB09982F92959F708F702AE0929FDC
:10372000800D1124809327038BE695E00E94EB091E
:10373000982F9695969596959670292F220F220F81
:10374000920F8F70890F809328038BE695E00E947B
:10375000EB09982F92959F708F703AE0939F800DA0
:103760001124809329038BE695E00E94EB09982FA2
:1037700092959F708F704AE0949F800D11248093E2
:103780002A038BE695E00E94EB09982F92959F7093
:103790008F705AE0959F800D112480932B038BE648
:1037A00095E00E94EB09982F9F70925E82958F7032
:1037B0006AE0869F900D112490932C0389E00E946B
:1037C000B613882309F469C0809165059091660558
:1037D000892B09F062C04FEF6FEFB12CE0916305C8
:1037E000F09164058481B81608F04BC09281838102
:1037F000E92FF82FEB0DF11DEB0DF11DE080F180AD
:10380000D701ED91FC910480F581E02DC701498B32
:103810006A8B199549896A89019789F1F701558160
:10382000852F90E020914805022E000C330B821763
:1038300093076CF08217930711F5E481F0E0209173
:103840004705022E000C330BE217F307C4F4242FB4
:10385000042E000C330B2817390774F082179307D6
:1038600071F4D70114968C9190E0262F062E000C4F
:10387000330B281739071CF4F7016481452FB394E3
:10388000ADCF6F3F51F0609347054093480580915D
:103890004505909146050E944A068BE00E94B613AA
:1038A000882309F469C08091650590916605892B8C
:1038B00009F062C04DE76DE7B12CE0916305F0912E
:1038C00064058481B81608F04BC092818381E92F8A
:1038D000F82FEB0DF11DEB0DF11DE080F180D7010C
:1038E000ED91FC910480F581E02DC701498B6A8B35
:1038F000199549896A89019789F1F7015581852FC1
:1039000090E020914805022E000C330B2817390750
:103910006CF08217930711F5E481F0E020914705E0
:10392000022E000C330B2E173F07C4F4242F042E55
:10393000000C330B8217930774F08217930771F40E
:10394000D70114968C9190E0262F062E000C330B95
:10395000821793071CF4F7016481452FB394ADCF10
:103960006D3751F0609347054093480580914505B8
:10397000909146050E944A068CE00E94B613882367
:1039800009F47BC0E0906505F0906605E114F10450
:1039900009F473C0D70152968D909D90AD90BC9064
:1039A000559756962D913D914D915C915997C50132
:1039B000B4010E947326F701668B778B808F918FFD
:1039C000238D348D458D568D2D873E874F87588B9F
:1039D0000E9470271816B4F4F701478C50A061A01C
:1039E00072A02D853E854F855889C301B2010E9482
:1039F0003D2587FF07C0D70156964D925D926D9287
:103A00007C925997C501B4010E943F27072E000CF4
:103A1000880B990B0E9443259B01AC01C501B401A1
:103A20000E94722620E030E0A9010E943D2581110C
:103A30000CC0F70166897789808D918D0E943F27A0
:103A40004AE0CE01019661D80BC0D70156964D9140
:103A50005D916D917C91599722E0CE01019626D817
:103A6000BE016F5F7F4FC7010E947E06CE010196A7
:103A700018D8F70113830E943D118AE00E94B61303
:103A8000882309F47AC0E0906505F0906605E1149A
:103A9000F10409F472C0D70152968D909D90AD90BB
:103AA000BC905597A501940156966D917D918D918D
:103AB0009C9159970E947226F701668B778B808FB5
:103AC000918F278D30A141A152A12D873E874F872D
:103AD000588BD3D787FF15C0F701438C548C658C66
:103AE000768CA30192016D857E858F859889C5D7D7
:103AF00087FF07C0D70156964D925D926D927C92DA
:103B00005997C501B4010E943F27072E000C880B6E
:103B1000990BB9D79B01AC01C501B4010E94722673
:103B200020E030E0A901A9D781110DC0F701668915
:103B30007789808D918D0E943F274AE0CE010196C2
:103B40000E9485150CC0D70156964D915D916D91DF
:103B50007C91599722E0CE0101960E945615BE0134
:103B60006F5F7F4FC7010E947E06CE0101960E94C3
:103B70005115F70113830E943D1187E00E94B6138F
:103B80008823F1F18091650590916605892BC1F537
:103B900080914505909146050E947706E091610568
:103BA000EF3FF9F4809162058F5F80936205209169
:103BB0004C0530E0082E000C990B2817390711F43A
:103BC00010926205E0916205EE0FFF0B80914A05AD
:103BD00090914B05E80FF91F808191810E94971108
:103BE0000DC0EE0FFF0BE35BFA4F808191810E94C5
:103BF0009711809161058150809361050E943D116C
:103C000088E00E94B613882309F476C0B12CE091B5
:103C10006305F09164058481B81608F06DC0928147
:103C20008381E92FF82FEB0DF11DEB0DF11DE080E5
:103C3000F18020914705022E000C330BD70114961A
:103C40008C91149790E02817390709F053C0209100
:103C50004805022E000C330B15968C91159790E0B9
:103C60002817390709F046C0ED91FC910480F581D1
:103C7000E02DC70119958230910511F1833091052E
:103C800031F1892BB9F580914505909146050E9447
:103C90007706E0916105EF5FE0936105EE0FFF0BA2
:103CA000E35BFA4F80916305909164059183808373
:103CB000F701828993890E9497110E943D111CC0CF
:103CC000D7015296ED91FC915397199513C0F0923C
:103CD0006605E0926505F701828D811102C0128FA1
:103CE00009C0128E128313830E943D111092660543
:103CF00010926505B3948BCFE0916305F091640554
:103D00008481882309F44CC08581882309F448C044
:103D100080916A0381110CC00E94FA0460936603CB
:103D200070936703809368039093690310936A0309
:103D30000E94FA048090660390906703A090680345
:103D4000B0906903DC01CB0188199909AA09BB0964
:103D5000853F9140A105B10518F10E94FA046093D6
:103D600066037093670380936803909369032091BF
:103D700049058091450590914605211105C0109394
:103D800049050E9443060CC010924905DC011696B5
:103D90006C9116976D7F16966C9368600E9433063F
:103DA0008091650590916605892BE1F180915E0314
:103DB00081110CC00E94FA0460935A0370935B0354
:103DC00080935C0390935D0310935E030E94FA045A
:103DD00080905A0390905B03A0905C03B0905D03C9
:103DE000DC01CB0188199909AA09BB09893C910515
:103DF000A105B105B8F00E94FA0460935A037093CC
:103E00005B0380935C0390935D03E0916505F09103
:103E1000660513838281811102C0128301C0128260
:103E20000E943D110E943D11809177069091780685
:103E3000DC01ED91FC910480F581E02D1995892B31
:103E400061F18091770690917806DC01ED91FC910B
:103E50000680F781E02D1995F82E809179069091D2
:103E60007A06009741F0DC01ED91FC910190F08120
:103E7000E02D6F2D1995BAE0FB1203C010937E065A
:103E80000CC0F9821A8241E050E0BE016F5F7F4FA3
:103E90008FE796E00E94B314C7CF80907E068820FB
:103EA00009F494C065EE72E0CE0107960E94E41515
:103EB000912C80917D06981608F07CC0BAE09B9EFC
:103EC00070011124E0917B06F0917C06EE0DFF1D40
:103ED0004481558160E070E0CE0101960E94F815A2
:103EE000E0917B06F0917C06EE0DFF1D248135816B
:103EF0008D819E812817390721F580819181698103
:103F00007A81009719F061157105A9F461157105A1
:103F100051F02115310539F0FB01808190E0919538
:103F2000819591090AC0009771F0232B61F0DC01A3
:103F30008C9190E002C00E94E329BB24B394892BAA
:103F400019F0B12C01C0B82CCE0101960E94511578
:103F5000BB2071F1E0917B06F0917C06EE0DFF1D18
:103F6000A084B184A114B104F9F04091830650916A
:103F70008406648175816F5F7F4FCE0101960E9438
:103F8000F81589819A81009711F042D103C060E051
:103F900070E0CB01F5016083718382839383CE014E
:103FA00001960E94511504C00680F781E02D1995F5
:103FB00093947FCF65E872E08FE796E00E94271523
:103FC00010927E06CE0107960E9451150E94C402EF
:103FD0002DCBCF93DF93C0917B06D0917C062097A9
:103FE000E1F0FE013297208131814AE0429FC00119
:103FF000439F900D1124C80FD91FCE0120917B063D
:1040000030917C062A978217930721F0CE010E94F7
:104010005115F3CF02970E945A288FE796E0DF915F
:10402000CF910C945115CF92DF92EF92FF920F93A4
:104030001F93CF93DF9300D000D0CDB7DEB7EEE96A
:10404000F4E01382128288EEC82E83E0D82EE12C91
:10405000F12CC482D582E682F7828AE592E09183D0
:1040600080832DEC30E0358724872CEC30E03787D7
:10407000268728EC30E0318B208B29EC30E0338B25
:10408000228B2AEC30E0358B248B2EEC30E0378B02
:10409000268B118E128E138E148E07E715E0F80111
:1040A00013821282C482D582E682F7829183808352
:1040B00085EC90E09587848784EC90E097878687ED
:1040C00080EC90E0918B808B81EC90E0938B828BE5
:1040D00082EC90E0958B848B86EC90E0978B868BBE
:1040E000118E128E138E148EEBE3F5E01282148281
:1040F000138216821582108617821186E5E4F5E098
:1041000017828FEF848F858F10926A051092690550
:1041100010926805109267050E94930FEBE6F5E098
:1041200013821282C482D582E682F7828AE692E006
:104130009183808397E7E92E96E0F92EF7011382A9
:104140001282168265E872E08FE796E00E94E4151D
:10415000F7011183008340E855E260E070E0C80198
:104160000E94121064E670E08FE796E00E948C14C3
:1041700065E872E0CE0101960E94E415F70116820F
:1041800015821482CE0101960E945115EBE6F6E0ED
:10419000138212828AE792E09183808387E284838C
:1041A00080E1818784E082871386E4E1F6E0108273
:1041B000158E12AE26960FB6F894DEBF0FBECDBF99
:1041C000DF91CF911F910F91FF90EF90DF90CF90F3
:1041D0000895EF920F931F93CF93DF93E80147FD6C
:1041E00002C034E001C034E1E42F440FFF0BF7FFBD
:1041F00003C0F195E195F109E32E022F2E2FAE01B8
:1042000041D0CE01DF91CF911F910F91EF90089592
:1042100066277727C4C14532510518F4423008F0AB
:1042200004C0FB011082CB010895BB274A3031F452
:10423000992322F4BDE2909581959F4F0BC04532A2
:10424000510518F4423008F004C0FB011082CB0184
:104250000895BB27FB015527AA27880F991FAA1F7E
:10426000A41710F0A41B83955051B9F7A05DAA3391
:1042700008F0A95DA193009779F7B111B19311925C
:10428000CB01EBC34F925F926F927F929F92AF925E
:10429000BF92CF92DF92EF92FF920F931F93CF9333
:1042A000DF93CDB7DEB729970FB6F894DEBF0FBE08
:1042B000CDBF6A01122FB02E2BE3201720F0FF2470
:1042C000F394F00E02C0BCE3FB2E0F2D27E0AE01ED
:1042D0004F5F5F4FCAD2AC018981982F997091309E
:1042E00031F0E1FC06C0E0FE06C090E205C09DE2B0
:1042F00003C09BE201C090E0EE2DE07183FF3CC063
:10430000911102C083E001C084E0811718F4212FCD
:10431000281B01C020E0E1110BC0F601822F30E222
:10432000882319F031938150FBCFC20ED11C20E0BD
:10433000992329F0D6019C93F60131966F01C601AD
:104340000396E2FE0AC03EE4D6013C9341E4119696
:104350004C93119712963C9306C03EE6F6013083CB
:1043600041E641833283FC01322F40E2332309F4DA
:1043700042C041933150FACF82FF44C0911102C034
:1043800083E001C084E0811718F4212F281B01C0AD
:1043900020E0E1110BC0F601822F30E2882319F0F2
:1043A00031938150FBCFC20ED11C20E0992329F01C
:1043B000D6019C93F60131966F01C6010396E2FE89
:1043C0000BC039E4D6013C933EE411963C9311971F
:1043D00036E412963C9307C039E6F60130833EE698
:1043E000318336E63283FC01322F40E2332319F069
:1043F00041933150FBCFFC01E20FF11D10828EEF93
:104400009FEFB7C0F1E0911101C0F0E06F2F70E0B5
:104410001416150624F49A012F5F3F4F02C021E0C5
:1044200030E0260F371FBB2029F06B2D70E06F5F47
:104430007F4F02C060E070E0260F371F612F70E0F1
:10444000261737071CF4121B212F01C020E03E2D38
:10445000387159F4D601322F60E2332319F06D938D
:104460003150FBCFC20ED11C20E0FF2331F0D6012A
:104470009C93B6016F5F7F4F6B01E1110BC0F6019A
:10448000922F30E3992319F031939150FBCFC20E54
:10449000D11C20E09F2D940F3A81782F7071A72EA8
:1044A00084FF03C0313309F49150191624F4993074
:1044B00018F098E001C091E0E42F852F57FF02C06B
:1044C000E0E080E06E2F782FE0E0F0E0AEE29A2EA0
:1044D0003A01691A71082A01461A570A0B2D10E091
:1044E0001195019511096F3F8FEF780729F4D601D7
:1044F0009C92C60101966C014617570784F0661618
:1045000077066CF47F01E40CF51CA1E0B0E0AC0F81
:10451000BD1FEA0EFB1ED7011196BC9002C090E3AE
:10452000B92E615071093196C60101967C01601760
:10453000710724F0D601BC926C01D5CF64177507C2
:1045400041F4363320F4353321F4A11002C081E365
:10455000B82EF601B082F701822F90E2882319F07D
:1045600091938150FBCFF701E20FF11D108280E0A3
:1045700090E029960FB6F894DEBF0FBECDBFDF9155
:10458000CF911F910F91FF90EF90DF90CF90BF9050
:10459000AF909F907F906F905F904F9008956F9233
:1045A0007F928F929F92AF92BF92CF92DF92EF92C3
:1045B000FF920F931F93CF93DF93EC017B01611563
:1045C000710519F0DB018D939C938E010F5F1F4FD6
:1045D0007880872D90E021D2892B11F0E801F5CF6A
:1045E000BDE27B1205C00F5F1F4F7980C1E008C09C
:1045F000EBE27E1204C08E010E5F1F4F7980C0E097
:104600006801F1E0CF1AD10843E050E060E171E0C9
:10461000C6010BD2892BE9F4680122E0C20ED11C3D
:1046200045E050E06BE071E0C601FFD1892B21F439
:10463000680187E0C80ED11CE114F10419F0D7011C
:10464000CD92DC92C111F9C060E070E080E89FE794
:10465000FDC043E050E068E071E0C601E6D1892B7F
:1046600051F4E114F10409F4EDC00E5F1F4FF7019E
:1046700011830083E7C0680160E070E0CB0100E0D7
:1046800010E0F601D0EDD70DDA3050F52C2F226076
:10469000622E2C2F2870C2FF05C0211127C00F5F8A
:1046A0001F4F24C0222311F001501109A5E0B0E0F2
:1046B0009B01AC01FED24B015C01880C991CAA1C29
:1046C000BB1CC501B4016D0F711D811D911D6839A1
:1046D000A9E97A078A07A9E19A0740F0C66005C0F0
:1046E000DE3F51F4C3FD44C0C8606C2EBFEFCB1A4F
:1046F000DB0A7080C62DC5CF2D2F2F7D2531C1F54A
:1047000040814D3211F4C06106C04B3221F0319628
:1047100021E030E006C03296D60111964C9122E09D
:1047200030E0A0EDA40FAA3018F0E21BF30B20C07C
:1047300040E050E04038BCE05B075CF49A01220F97
:10474000331F220F331F420F531F440F551F4A0FB1
:10475000511D3196DF0111972C91A0EDA20FAA30C7
:1047600048F3C4FF03C0519541955109040F151F2B
:10477000C1FF07C0E114F10421F03197D701ED9397
:10478000FC937FD1C370C33019F06B017C0106C06C
:104790006B017C01F7FAF094F7F8F09420E030E038
:1047A000A901C701B60169D1882309F443C017FFE5
:1047B00006C0119501951109C7E2D1E002C0CFE30F
:1047C000D1E05E01B8E1AB1AB1084601BE2DAF2DB4
:1047D00090E2E92EF12C0E151F057CF0FE012591CB
:1047E000359145915491B4018B2F9A2FABD14B0148
:1047F000B82FA92F0E191F09EECF2497F594E7942F
:10480000CA15DB0541F76401EB2EFA2E8E2D880FB9
:104810008F2D881F8F3F41F020E030E0A901C701B4
:10482000B6012BD1811106C082E290E090938F06F1
:1048300080938E06C701B60109C060E070E080E891
:104840009FEF04C060E070E080EC9FE7DF91CF91C4
:104850001F910F91FF90EF90DF90CF90BF90AF909E
:104860009F908F907F906F900895283008F027E0F8
:104870003327DA01990F311D87FD9160009661059C
:10488000710539F432602E5F3D9330E32A95E1F7EC
:1048900008959F3F30F080387105610509F03C5F55
:1048A0003C5F3D93913008F08068911DDF93CF937A
:1048B0001F930F93FF92EF92192F987F9695E92FF0
:1048C00096959695E90FFF27E356FE4F99273327D4
:1048D000EE24FF24A701E70105900894079428F42B
:1048E000360FE71EF81E491F511D660F771F881FE0
:1048F000991F0694A1F70590079428F4E70EF81E77
:10490000491F561FC11D770F881F991F661F0694E8
:10491000A1F70590079428F4F80E491F561FC71FEA
:10492000D11D880F991F661F771F0694A1F7059068
:10493000079420F4490F561FC71FD81F990F661FF1
:10494000771F881F0694A9F784911095177041F07E
:10495000D695C79557954795F794E7941A95C1F75B
:10496000E3E4F1E068941590159135916591959186
:1049700005907FE27395E118F10A430B560BC90BC2
:10498000D009C0F7E10CF11E431F561FC91FD01DEF
:104990007EF4703311F48A95E6CFE894015030F03C
:1049A000080F0AF40027021708F4202F2395022F7E
:1049B0007A3328F079E37D932A95E9F710C07D9347
:1049C0002A9589F6069497956795379517951794C4
:1049D000E118F10A430B560BC90BD00998F0239547
:1049E0007E9173957A3308F070E37C932013B8F7C7
:1049F0007E9170617D9330F0839571E37D9370E3D8
:104A00002A95E1F71124EF90FF900F911F91CF911C
:104A1000DF91992787FD909508959111F6C0803216
:104A200019F089508550D0F70895FB01DC01415001
:104A3000504088F08D9181341CF08B350CF4805EF1
:104A4000659161341CF06B350CF4605E861B61115E
:104A500071F3990B0895881BFCCFDC01FC01672FD3
:104A600071917723E1F7329704C07C916D93708345
:104A70006291AE17BF07C8F3089540D008F481E0F3
:104A80000895E89409C097FB3EF490958095709541
:104A900061957F4F8F4F9F4F9923A9F0F92F96E98A
:104AA000BB279395F695879577956795B795F111FF
:104AB000F8CFFAF4BB0F11F460FF1BC06F5F7F4F9C
:104AC0008F4F9F4F16C0882311F096E911C07723AE
:104AD00021F09EE8872F762F05C0662371F096E8B7
:104AE000862F70E060E02AF09A95660F771F881F86
:104AF000DAF7880F9695879597F90895990F00082A
:104B0000550FAA0BE0E8FEEF16161706E807F9079F
:104B1000C0F012161306E407F50798F0621B730B3A
:104B2000840B950B39F40A2661F0232B242B252BBB
:104B300021F408950A2609F4A140A6958FEF811D5E
:104B4000811D08950BD07BC06CD028F071D018F077
:104B5000952309F05DC062C01124A5C081D0A0F3E7
:104B6000959FD1F3950F50E0551F629FF001729F02
:104B7000BB27F00DB11D639FAA27F00DB11DAA1F21
:104B8000649F6627B00DA11D661F829F2227B00D6E
:104B9000A11D621F739FB00DA11D621F839FA00DF9
:104BA000611D221F749F3327A00D611D231F849F49
:104BB000600D211D822F762F6A2F11249F575040A0
:104BC0008AF0E1F088234AF0EE0FFF1FBB1F661F3B
:104BD000771F881F91505040A9F79E3F510570F0F4
:104BE00017C061C05F3FECF3983EDCF38695779584
:104BF0006795B795F795E7959F5FC1F7FE2B880FEF
:104C0000911D9695879597F9089599278827089576
:104C100097F99F6780E870E060E008959FEF80EC6F
:104C2000089500240A941616170618060906089512
:104C300000240A9412161306140605060895092E78
:104C40000394000C11F4882352F0BB0F40F4BF2BE7
:104C500011F460FF04C06F5F7F4F8F4F9F4F089527
:104C600057FD9058440F551F59F05F3F71F047951D
:104C7000880F97FB991F61F09F3F79F08795089502
:104C8000121613061406551FF2CF4695F1DF08C021
:104C9000161617061806991FF1CF8695710561053E
:104CA00008940895E894BB2766277727CB0197F9E6
:104CB000089509D0A59F900DB49F900DA49F800DDD
:104CC000911D11240895A29FB001B39FC001A39F1D
:104CD000700D811D1124911DB29F700D811D112435
:104CE000911D08955058BB27AA270ED0A8CF99DF51
:104CF00030F09EDF20F031F49F3F11F41EF48ECF90
:104D00000EF4E095E7FB84CFE92FAADF80F3BA1712
:104D1000620773078407950718F071F49EF5C2CFF8
:104D20000EF4E0950B2EBA2FA02D0B01B9019001C6
:104D30000C01CA01A0011124FF27591B99F0593F0A
:104D400050F4503E68F11A16F040A22F232F342F52
:104D50004427585FF3CF469537952795A795F040A0
:104D60005395C9F77EF41F16BA0B620B730B840BB5
:104D7000BAF09150A1F0FF0FBB1F661F771F881F6D
:104D8000C2F70EC0BA0F621F731F841F48F48795C5
:104D900077956795B795F7959E3F08F0B3CF9395B4
:104DA000880F08F09927EE0F9795879508950CD0F6
:104DB00046CF3EDF40F035DF30F021F45F3F19F0A1
:104DC00027CF511170CF2ACF4BDF98F39923C9F326
:104DD0005523B1F3951B550BBB27AA276217730701
:104DE000840738F09F5F5F4F220F331F441FAA1FB5
:104DF000A9F333D00E2E3AF0E0E830D09150504075
:104E0000E695001CCAF729D0FE2F27D0660F771F22
:104E1000881FBB1F261737074807AB07B0E809F004
:104E2000BB0B802DBF01FF2793585F4F2AF09E3F99
:104E3000510568F0EDCE37CF5F3FECF3983EDCF3E1
:104E4000869577956795B795F7959F5FC9F7880F12
:104E5000911D9695879597F90895E1E0660F771F64
:104E6000881FBB1F621773078407BA0720F0621BF5
:104E7000730B840BBA0BEE1F88F7E095089504D0EE
:104E80006894B11110CF0895F3DE88F09F5790F029
:104E9000B92F9927B751A0F0D1F0660F771F881F5F
:104EA000991F1AF0BA95C9F712C0B13081F0FADE35
:104EB000B1E00895F7CE672F782F8827B85F39F0D3
:104EC000B93FCCF3869577956795B395D9F73EF4BE
:104ED00090958095709561957F4F8F4F9F4F089566
:104EE0000DDE08F48FEF089597FB072E16F400945B
:104EF00006D077FD08D035D007FC05D03EF490955C
:104F000081959F4F0895709561957F4F0895A1E217
:104F10001A2EAA1BBB1BFD010DC0AA1FBB1FEE1F33
:104F2000FF1FA217B307E407F50720F0A21BB30B7E
:104F3000E40BF50B661F771F881F991F1A9469F7FA
:104F400060957095809590959B01AC01BD01CF0156
:104F50000895EE0FFF1F881F8BBF0790F691E02D7D
:104F60001994AA1BBB1B51E107C0AA1FBB1FA617A0
:104F7000B70710F0A61BB70B881F991F5A95A9F702
:104F800080959095BC01CD010895CF93DF93823039
:104F9000910510F482E090E0E0919206F091930682
:104FA00020E030E0C0E0D0E0309711F14081518145
:104FB00048175907C0F04817590761F48281938157
:104FC000209719F09B838A832BC09093930680933C
:104FD000920626C02115310519F04217530718F41F
:104FE0009A01BE01DF01EF010280F381E02DDCCFE9
:104FF0002115310509F1281B390B2430310590F4B6
:1050000012968D919C9113976115710521F0FB010A
:105010009383828304C09093930680939206FD014C
:10502000329644C0FD01E20FF31F81939193225009
:1050300031092D933C933AC020919006309191060E
:10504000232B41F4209108023091090230939106FC
:105050002093900620910602309107022115310518
:1050600041F42DB73EB740910A0250910B02241B28
:10507000350BE0919006F0919106E217F307A0F44A
:105080002E1B3F0B2817390778F0AC014E5F5F4F9E
:105090002417350748F04E0F5F1F50939106409339
:1050A00090068193919302C0E0E0F0E0CF01DF91A0
:1050B000CF9108950F931F93CF93DF93009709F437
:1050C0008CC0FC01329713821282009192061091DB
:1050D00093060115110581F420813181820F931F00
:1050E00020919006309191062817390779F5F093B1
:1050F0009106E093900671C0D80140E050E0AE17F1
:10510000BF0750F412962D913C911397AD012115D4
:10511000310509F1D901F3CF9D01DA0133832283EF
:1051200060817181860F971F8217930769F4EC01E4
:1051300028813981260F371F2E5F3F4F318320830F
:105140008A819B8193838283452B29F4F093930674
:10515000E093920642C01396FC93EE931297ED01F2
:10516000499159919E01240F351FE217F30771F4FD
:1051700080819181840F951F029611969C938E9346
:105180008281938113969C938E931297E0E0F0E0D6
:10519000D80112968D919C911397009719F0F80100
:1051A0008C01F6CF8D919C9198012E5F3F4F820F1D
:1051B000931F20919006309191062817390769F4C2
:1051C000309729F4109293061092920602C013822F
:1051D00012821093910600939006DF91CF911F9158
:1051E0000F9108956F927F928F929F92AF92BF928C
:1051F000CF92DF92EF92FF920F931F93CF93DF93A3
:10520000EC01009781F4CB01DF91CF911F910F91B9
:10521000FF90EF90DF90CF90BF90AF909F908F90D6
:105220007F906F90B2CEFC01E60FF71F9C012250D9
:105230003109E217F30708F4A8C0D9010D911C91B8
:10524000119706171707A8F00530110508F49BC041
:10525000C80104978617970708F495C002501109F2
:10526000061B170B019311936D937C93CF0122DFE3
:105270008AC05B01A01AB10A4C01800E911EA09158
:105280009206B091930640E050E0E12CF12C10978B
:1052900009F44AC0A815B905D1F56D907C90119715
:1052A000630182E0C80ED11CCA14DB0480F1A301A3
:1052B0004A195B096A0182E0C80ED11C1296BC90A3
:1052C00012971396AC91B5E0CB16D10440F0B282A0
:1052D000A38351834083D9016D937C930AC00E5FF1
:1052E0001F4FC301800F911FF90191838083EB2D24
:1052F000FA2FE114F10431F0D7011396FC93EE93E9
:10530000129741C0F0939306E09392063CC08D91B2
:105310009C9111974817590708F4AC017D0112962A
:105320000D90BC91A02DB3CF8091900690919106E5
:1053300088159905E1F446175707C8F480910602CD
:1053400090910702009741F48DB79EB740910A02F1
:1053500050910B02841B950BE817F907B0F4F093FA
:105360009106E0939006F901718360830CC0CB0134
:105370000CDE7C01009749F0A801BE011BD0CE01D4
:1053800099DEC70104C0CE0102C080E090E0DF9149
:10539000CF911F910F91FF90EF90DF90CF90BF9032
:1053A000AF909F908F907F906F90089581E090E0F4
:1053B000F89419C0FB01DC0102C001900D9241502C
:1053C0005040D8F70895FB01DC018D9101908019C0
:1053D0000110D9F3990B0895FB01DC0101900D92A6
:1053E0000020E1F7089511E0C0EBD1E000E005C036
:1053F000802FFE01AEDD2196011DC13BD10780E06B
:085400000807B1F7F894FFCF93
:1054080007090B0C0A080000940680000000000041
:105418002B03590300000000AD0FB40F000040003B
:1054280014005400000000006203BF0328030000BA
:105438000000A003B60325030000000091039703B2
:105448001C0300000000820388031F030000000003
:10545800730379032203000000005D0279131E0222
:10546800FC011002A30200000000360A070AFF0927
:10547800EB09DC09DB09000000001E067913546FF4
:105488006461793A200030373A33333A3130005387
:105498006561736F6E203100547265652031005468
:1054A800696D6520666F722077617465720041646A
:1054B80064004D61782074656D70004D61782068D6
:1054C800756D6900547265652032005472656520F7
:1054D80033004661726D426F7420436F6E74726F51
:1054E8006C6C6572007370656564003230002F0063
:0C54F8003A0078004E6F206D656E750064
:00000001FF
