:10000000B6C10000E5C10000E3C10000E1C100008D
:10001000DFC10000DDC10000DBC10000D9C100006C
:10002000D7C10000D5C10000D3C10000D1C100007C
:10003000CFC10000CDC10000CBC100000C94F7354A
:10004000C7C10000C5C10000C3C10000C1C100009C
:10005000BFC10000BDC10000BBC100000C9434361C
:10006000B7C100000C9498390C94CE39B1C100008E
:10007000AFC10000ADC10000ABC10000A9C10000CC
:10008000A7C10000A5C10000A3C10000A1C10000DC
:100090000C94433A0C94793A9BC100000C9442238F
:1000A00097C1000095C1000093C1000091C10000FC
:1000B0008FC100008DC100008BC1000089C100000C
:1000C00087C1000085C1000083C1000081C100001C
:1000D0007FC100007DC100007BC1000079C100002C
:1000E00077C1000059375C374B374F375537933757
:1000F000603764376A376E37723778377C378037C6
:10010000933786378A378E3700000A0B02090C0DA9
:100110000E080703040100000000000000000000BA
:1001200000000000000000000000000000000000CF
:10013000000000001211100000000000000000008C
:1001400000000000000000000000000000000102AC
:1001500010202008081020401020408002010201D9
:100160000804020101020408102040808040201091
:1001700008040201800402018040201008040201EA
:100180000804020101020408102040800102040852
:10019000102040800505050507050808080802022B
:1001A00002020A0A08080404040401010101010111
:1001B00001010303030303030303040707070C0CF4
:1001C0000C0C0C0C0C0C02020202060606060606BB
:1001D00006060B0B0B0B0B0B0B0B00002000230078
:1001E000260029002C002F0032000001000003012E
:1001F0000601090100002200250028002B002E0026
:100200003100340002010000050108010B0100006B
:100210002100240027002A002D00300033000101B6
:100220000000040107010A014E414E494E4954594C
:10023000494E46CDCCCC3D0AD7233C17B7D13877B1
:10024000CC2B329595E6241FB14F0A0000204100C7
:1002500000C84200401C4620BCBE4CCA1B0E5AAE11
:10026000C59D7400407A10F35A00A0724E18090020
:1002700010A5D4E80000E87648170000E40B54020B
:100280000000CA9A3B000000E1F505000080969846
:1002900000000040420F000000A086010000001096
:1002A0002700000000E803000000006400000000D8
:1002B000000A00000000000100000000002C76D8B9
:1002C00088DC674F0823DFC1DFAE59E1B1B796E59F
:1002D000E3E453C63AE651997696E8E6C28426EB03
:1002E000898C9B62ED407C6FFCEFBC9C9F40F2BA16
:1002F000A56FA5F490055A2AF75C936B6CF9676DAE
:10030000C11BFCE0E40D47FEF520E6B500D0ED9002
:100310002E0300943577050080841E080000204ECF
:100320000A000000C80C333333330F986E12831168
:1003300041EF8D2114893BE65516CFFEE6DB18D13F
:10034000844B381BF77C1D901DA4BBE42420328411
:10035000725E228100C9F124ECA1E53D27005E21F7
:10036000612279242F2F2336003AAB3A94211124AD
:100370001FBECFEFD1E2DEBFCDBF00E00CBF15E066
:10038000A0E0B2E0E6E6F0E900E00BBF02C00790B3
:100390000D92A631B107D9F72BE0A6E1B5E001C077
:1003A0001D92A137B207E1F713E0CCE6D3E000E0FD
:1003B00006C022970109FE010BBF0E943C41CE35C9
:1003C000D10780E00807A9F70E94EF3A0C94224871
:1003D00017CEFC0126813781620F731F84819581BE
:1003E0008617970738F08281938177836683820F1F
:1003F000931F089580E090E00895CF93DF9370916C
:10040000DD08C091DC0826E335E0EDE2F5E0D1E05F
:1004100080E090E0A901480F591FDA01A85ABF4FA8
:100420006C91683151F4235D3F4F319685E02D3B4F
:10043000380771F7DF91CF910895761307C0DA017D
:10044000A75ABF4F4C91C41301C0D08302968C3081
:10045000910501F7E8CFCF93DF93C091B108D09118
:10046000B2088091BB089091BC080E946B2B6A8BEC
:100470007B8B8C8B9D8BC091AF08D091B008809105
:10048000BB089091BC080E946B2B6A8B7B8B8C8B7A
:100490009D8BC091AD08D091AE088091BB08909122
:1004A000BC080E946B2B6A8B7B8B8C8B9D8BDF91A6
:1004B000CF910895CF93DF93CDB7DEB76E970FB688
:1004C000F894DEBF0FBECDBF4AE06091DD08CE01DB
:1004D00049960E94A33C4AE06091DC08CE01439615
:1004E0000E94A33C4AE06091DB08CE010D960E9479
:1004F000A33C8D8D9E8D019709F560EA73E0CE01D6
:1005000007960E945B3CBE01695F7F4FCE0101965A
:100510000E94853CBE01675E7F4FCE0101960E941E
:10052000B83DBC01CE0149960E94703CCE010196B7
:100530000E94F43BCE0107960E94F43B8F89988D70
:10054000019709F560EA73E0CE0107960E945B3CD3
:10055000BE01695F7F4FCE0101960E94853CBE01BE
:100560006D5E7F4FCE0101960E94B83DBC01CE0169
:1005700043960E94703CCE0101960E94F43BCE014E
:1005800007960E94F43B89899A89019709F560EAE8
:1005900073E0CE0107960E945B3CBE01695F7F4F0E
:1005A000CE0101960E94853CBE01635F7F4FCE0164
:1005B00001960E94B83DBC01CE010D960E94703C90
:1005C000CE0101960E94F43BCE0107960E94F43BB7
:1005D000BE01675E7F4FCE0107960E94853C61ECAD
:1005E00072E0CE0107960E94C93DBE016D5E7F4F4D
:1005F0000E94B83D61EC72E00E94C93DBE01635F9C
:100600007F4F0E94B83DBC01CE0101960E94853CFF
:10061000BE016F5F7F4F8091D3089091D4080E94F4
:10062000BD29CE0101960E94F43BCE0107960E949F
:10063000F43BCE010D960E94F43BCE0143960E94FE
:10064000F43BCE0149960E94F43B6E960FB6F894A7
:10065000DEBF0FBECDBFDF91CF910895CF93DF9363
:10066000CDB7DEB7A4970FB6F894DEBF0FBECDBFEF
:100670004AE06091DF08CE014F960E94A33C4AE019
:100680006091E008CE0149960E94A33C6091E10888
:1006900070E06E51710977FF03C071956195710922
:1006A0004AE0CE0107960E94CE3C62E372E0CE01A2
:1006B0000D960E945B3CBE01635F7F4FCE010196A9
:1006C0000E94853CBE01695F7F4FCE0101960E946A
:1006D000B83DBC01CE0143960E94853CCE010196F7
:1006E0000E94F43BCE010D960E94F43BCE0107968A
:1006F0000E94F43B8BA19CA1019709F560EA73E08D
:10070000CE0107960E945B3CBE01695F7F4FCE0120
:1007100001960E94853CBE01615E7F4FCE0101962D
:100720000E94B83DBC01CE014F960E94703CCE01A4
:1007300001960E94F43BCE0107960E94F43B8D8DFA
:100740009E8D019709F560EA73E0CE0107960E943D
:100750005B3CBE01695F7F4FCE0101960E94853CE4
:10076000BE01675E7F4FCE0101960E94B83DBC017D
:10077000CE0149960E94703CCE0101960E94F43B46
:10078000CE0107960E94F43BBE01615E7F4FCE0111
:1007900007960E94853C65E372E0CE0107960E94B1
:1007A000C93DBE01675E7F4F0E94B83D65E372E0C0
:1007B0000E94C93DBE016D5E7F4F0E94B83DBC01E5
:1007C000CE0101960E94853CBE016F5F7F4F8091F4
:1007D000D5089091D6080E94BD29CE0101960E94AD
:1007E000F43BCE0107960E94F43BCE0143960E9453
:1007F000F43BCE0149960E94F43BCE014F960E94F5
:10080000F43BA4960FB6F894DEBF0FBECDBFDF91C8
:10081000CF91089567E372E081E39AE00C94663B20
:1008200064EF75E081E39AE00C94663B62E472E069
:100830008EEC9AE00E94663B68E472E08EEC9AE0EF
:100840000E94663B40E050E0BA018091B10890916F
:10085000B2080E94D32C40E050E0BA018091AF086A
:100860009091B0080E94D32C40E050E0BA018091F2
:10087000AD089091AE080C94D32CCF93C5E060E501
:1008800072E08EEC9AE00E94663BC150C1F740E0F6
:1008900050E0BA018091B1089091B208CF910C94C8
:1008A000D32C66E572E08EEC9AE00E94663B40E055
:1008B00050E0BA018091AF089091B0080C94D32C0D
:1008C000CF93C5E062E472E08EEC9AE00E94663B52
:1008D000C150C1F740E050E0BA018091AD0890915D
:1008E000AE08CF910C94D32CCF93DF93CDB7DEB766
:1008F00068970FB6F894DEBF0FBECDBF8091B108E8
:100900009091B2080E946B2B0E949E3F4AE0CE015C
:1009100007960E94CE3C6CE572E0CE010D960E94D7
:100920005B3CBE01635F7F4FCE0101960E94853C18
:10093000BE01695F7F4FCE0101960E94B83DBC01A8
:10094000CE0143960E94853CCE0101960E94F43B65
:10095000CE010D960E94F43BCE0107960E94F43B17
:10096000BE016D5E7F4F8EEC9AE00E94563BCE0139
:1009700043960E94F43B68960FB6F894DEBF0FBE14
:10098000CDBFDF91CF910895CF93DF93CDB7DEB781
:1009900068970FB6F894DEBF0FBECDBF8091AF0849
:1009A0009091B0080E946B2B0E949E3F4AE0CE01BE
:1009B00007960E94CE3C62E672E0CE010D960E9440
:1009C0005B3CBE01635F7F4FCE0101960E94853C78
:1009D000BE01695F7F4FCE0101960E94B83DBC0108
:1009E000CE0143960E94853CCE0101960E94F43BC5
:1009F000CE010D960E94F43BCE0107960E94F43B77
:100A0000BE016D5E7F4F8EEC9AE00E94563BCE0198
:100A100043960E94F43B68960FB6F894DEBF0FBE73
:100A2000CDBFDF91CF910895CF93DF93CDB7DEB7E0
:100A300068970FB6F894DEBF0FBECDBF8091AD08AA
:100A40009091AE080E946B2B0E949E3F4AE0CE011F
:100A500007960E94CE3C68E672E0CE010D960E9499
:100A60005B3CBE01635F7F4FCE0101960E94853CD7
:100A7000BE01695F7F4FCE0101960E94B83DBC0167
:100A8000CE0143960E94853CCE0101960E94F43B24
:100A9000CE010D960E94F43BCE0107960E94F43BD6
:100AA000BE016D5E7F4F8EEC9AE00E94563BCE01F8
:100AB00043960E94F43B68960FB6F894DEBF0FBED3
:100AC000CDBFDF91CF9108950F931F93CF93DF9305
:100AD000CDB7DEB762970FB6F894DEBF0FBECDBFBD
:100AE00080919D0890919E0860EA73E006960E94AE
:100AF0002E3E882319F069EA73E002C060EA73E0D1
:100B0000CE0101960E945B3CBE016F5F7F4F8091DA
:100B10009D0890919E080E94BD29CE0101960E94D9
:100B2000F43B00919D0810919E080A5F1F4F68E2F8
:100B300074E0CE0107960E945B3CBE01695F7F4F67
:100B4000CE0101960E94853C6EE672E0CE010196D0
:100B50000E94C93DB8010E94B83DBC01CE010D966E
:100B60000E94853CCE0101960E94F43BCE0107967F
:100B70000E94F43BBE01635F7F4F8EEC9AE00E94BF
:100B8000563BCE010D960E94F43B62960FB6F89448
:100B9000DEBF0FBECDBFDF91CF911F910F910895A2
:100BA0000F931F93CF93DF93CDB7DEB762970FB646
:100BB000F894DEBF0FBECDBF8091A1089091A2082E
:100BC00060EA73E006960E942E3E882319F069EAD7
:100BD00073E002C060EA73E0CE0101960E945B3CC4
:100BE000BE016F5F7F4F8091A1089091A2080E9483
:100BF000BD29CE0101960E94F43B0091A1081091FD
:100C0000A2080A5F1F4F68E274E0CE0107960E94B7
:100C10005B3CBE01695F7F4FCE0101960E94853C1F
:100C200064E772E0CE0101960E94C93DB8010E94BE
:100C3000B83DBC01CE010D960E94853CCE010196C7
:100C40000E94F43BCE0107960E94F43BBE01635F15
:100C50007F4F8EEC9AE00E94563BCE010D960E948B
:100C6000F43B62960FB6F894DEBF0FBECDBFDF91A6
:100C7000CF911F910F9108956F927F928F929F92C3
:100C8000AF92BF92CF92DF92EF92FF920F931F939A
:100C9000CF93DF93CDB7DEB762970FB6F894DEBF80
:100CA0000FBECDBF6AE772E081E39AE00E944B3B42
:100CB00086E3C82E85E0D82E00E010E09DE2792E74
:100CC00066E872E081E39AE00E944B3B68E872E0DC
:100CD00081E39AE00E944B3BE12CF12C612C560100
:100CE000AE0CBF1C450188E5880E911CF401808183
:100CF000883109F0F7C062E972E081E39AE00E946E
:100D00004B3B6AE972E0CE0101960E945B3C6AE9C6
:100D100072E0CE010D960E945B3CBE01635F7F4F87
:100D2000CE0107960E94853CB601695C7F4FCE01DB
:100D300007960E94C93DBE016F5F7F4F0E94B83D7C
:100D4000BC0181E39AE00E943D3BCE0107960E94E0
:100D5000F43BCE010D960E94F43BCE0101960E9419
:100D6000F43B6CE972E081E39AE00E944B3B6AE954
:100D700072E0CE0101960E945B3C709E7001719EF4
:100D8000F00C1124C7018A5C9A4F7C01FC01EB5ADC
:100D9000FF4FB0806AE972E0CE010D960E945B3C85
:100DA000BE01635F7F4FCE0107960E94853C6B2D8D
:100DB000CE0107960E94E13DBE016F5F7F4F0E940A
:100DC000B83DBC0181E39AE00E943D3BCE0107960D
:100DD0000E94F43BCE010D960E94F43BCE01019699
:100DE0000E94F43B66EA72E081E39AE00E944B3B8A
:100DF0006AE972E0CE0101960E945B3CF701EA5A73
:100E0000FF4FB0806AE972E0CE010D960E945B3C14
:100E1000BE01635F7F4FCE0107960E94853C6B2D1C
:100E2000CE0107960E94E13DBE016F5F7F4F0E9499
:100E3000B83DBC0181E39AE00E943D3BCE0107969C
:100E40000E94F43BCE010D960E94F43BCE01019628
:100E50000E94F43B60EB72E081E39AE00E944B3B1E
:100E60006AE972E0CE0101960E945B3CF701E95A03
:100E7000FF4FF0806AE972E0CE010D960E945B3C64
:100E8000BE01635F7F4FCE0107960E94853C6F2DA8
:100E9000CE0107960E94E13DBE016F5F7F4F0E9429
:100EA000B83DBC0181E39AE00E943D3BCE0107962C
:100EB0000E94F43BCE010D960E94F43BCE010196B8
:100EC0000E94F43B6AEB72E081E39AE00E944B3BA4
:100ED000023009F443C06CEB72E081E39AE00E94B7
:100EE0004B3B3CC0662031F06CEB72E081E39AE052
:100EF0000E944B3B66E872E081E39AE00E944B3B24
:100F00006EEB72E081E39AE00E944B3B4AE050E0D6
:100F1000F401608181E39AE00E94D93B63EC72E0C6
:100F200081E39AE00E944B3BF501E75AFF4F4AE00C
:100F300050E0608181E39AE00E94D93B6AEB72E065
:100F400081E39AE00E944B3B6394F2E0EF0EF11CC8
:100F50008CE0E816F10409F0C2CECDCE0F5F1F4F32
:100F60009DE2C90ED11C0330110509F0A9CE69EC30
:100F700072E081E39AE00E944B3B05E515E0F12C1D
:100F8000F80161918F014AE050E081E39AE00E940C
:100F9000D93BF7E1FF1631F06CEB72E081E39AE0A8
:100FA0000E944B3BF39488E1F812EACF61ED72E0C6
:100FB00081E39AE00E944B3B63E972E081E39AE0AF
:100FC0000E944B3B6AE972E0CE0101960E945B3CB5
:100FD0006AE972E0CE010D960E945B3CBE01635F40
:100FE0007F4FCE0107960E94853C67E375E0CE01F6
:100FF00007960E94C93DBE016F5F7F4F0E94B83DBA
:10100000BC0181E39AE00E943D3BCE0107960E941D
:10101000F43BCE010D960E94F43BCE0101960E9456
:10102000F43B63ED72E081E39AE00E944B3B6AE996
:1010300072E0CE0101960E945B3C109136056AE990
:1010400072E0CE010D960E945B3CBE01635F7F4F54
:10105000CE0107960E94853C612FCE0107960E9423
:10106000E13DBE016F5F7F4F0E94B83DBC0181E34F
:101070009AE00E943D3BCE0107960E94F43BCE01D0
:101080000D960E94F43BCE0101960E94F43B6AEB60
:1010900072E081E39AE00E94663B62960FB6F89494
:1010A000DEBF0FBECDBFDF91CF911F910F91FF909B
:1010B000EF90DF90CF90BF90AF909F908F907F90F8
:1010C0006F90089520E934E0FC01318320830C9473
:1010D000DF24CF93DF93EC01F5DFCE01DF91CF91D9
:1010E0000C94FD3AEF92FF920F931F93CF93DF93EF
:1010F0001F92CDB7DEB706E315E0E12CF12CF80125
:1011000061918F01C70169830E9424446981681736
:1011100019F0C7010E942C44FFEFEF1AFF0A8EEB73
:10112000E816F10461F70F90DF91CF911F910F91B5
:10113000FF90EF900895EF92FF920F931F93CF933C
:10114000DF937C01C82FDF2D00E010E0C8010E9472
:10115000244489930F5F1F4F0E3B1105B9F7C70158
:10116000DF91CF911F910F91FF90EF900895CF9352
:10117000DF938AE198E00E94F43BC5E3D8E027972B
:10118000888199810E94FD3A88E0C032D807B9F77A
:101190008EEE98E00E94BF308CEF98E0DF91CF9107
:1011A0000C94BF30DB01109749F0ED91FC91119741
:1011B0000190F081E02DBC01CD01199480E090E018
:1011C00008958091120981110BC010921B05109295
:1011D0001A0510921D0510921C0581E080931209DA
:1011E0008AE195E0089580910A0981110BC010925F
:1011F000170510921605109219051092180581E036
:1012000080930A0986E195E008959C01285A3F4F92
:1012100081529F4F68E140E050E0F901E40FF51F73
:10122000608311824E5F5F4F4C305105B1F7235DF3
:101230003F4F2817390779F708950F931F930E949E
:101240007E360091250510912605209127053091C5
:101250002805601B710B820B930B683E7340810560
:10126000910590F00E947E366093250570932605C7
:1012700080932705909328056AED72E08EEC9AE042
:101280001F910F910C944B3B1F910F910895DF928A
:10129000EF92FF920F931F93CF93DF93C0E2D8E0BA
:1012A00003E918E0D12C8C819D81ED2CF12CE816FE
:1012B000F90600F5EE0CFF1CEE0CFF1CE881F9812D
:1012C000EE0DFF1D60817181D801ED91FC91828945
:1012D00093890E94742AE881F981EE0DFF1D6281D5
:1012E0007381D801ED91FC91828993890E94742ABF
:1012F000D394D9CF892B11F01D821C8227960E5FC3
:101300001F4FB8E0C533DB0769F6DF91CF911F911E
:101310000F91FF90EF90DF900895282F30E04DE27D
:10132000849FC0011124653038F5E62FF0E0DF011D
:101330001196AA0FBB1FA80FB91FA257BA4F4C9105
:10134000DF01AA0FBB1FA80FB91FA257BA4F4C93BA
:10135000DF015296AA0FBB1FA80FB91FAA5CBA4F94
:10136000D7964C917196EE0FFF1FE80FF91FEA5CBC
:10137000FA4F47AB6F5FD7CFC90101964DE2489F47
:10138000F001499FF00D1124EA5CFA4F88E187AB28
:10139000429FF001439FF00D1124E556FA4F108251
:1013A0000895DF92EF92FF920F931F93CF93DF93F5
:1013B000F12C97E0899FE0011124C05ED74F0F2DDB
:1013C00010E08C819D810817190728F58F2D8170F9
:1013D000880FD82EDD0CDD0CD80EEF2CE694E394AC
:1013E000000F111F000F111FE881F981E00FF11F9D
:1013F0004E2D6D2D808191810E94D92966E06D0D61
:10140000E881F981E00FF11F4E2D828193810E94C6
:10141000D929F394D4CFDF91CF911F910F91FF90F1
:10142000EF90DF900895CF92DF92EF92FF920F93AB
:101430001F93CF93DF93D82E8091E509992787FDDD
:10144000909506976AE070E00E94E840C090E60937
:10145000CC0CCA94CA94C60E0D2D10E087E0D89E1D
:10146000E0011124C05ED74FA4E0CA9E7001112490
:10147000E881F981EE0DFF1D60817181000F111F60
:101480000D56174FD801ED91FC91828993890E94E6
:10149000742AE881F981EE0DFF1D62817381D80104
:1014A000ED91FC91828993890E94742AE881F981E7
:1014B000D701B695A795B695A795EE0DFF1D8C8122
:1014C0009D819C0121503109A217B30750F4119658
:1014D00044815581668177814193519361937193E2
:1014E000EECF2817390710F43D832C838D2D59DF5B
:1014F0006C2D8D2D12DFF6DD83EE99E0DF91CF911B
:101500001F910F91FF90EF90DF90CF900C94532795
:1015100080E089CF81E087CF82E085CF8BED98E0B6
:101520000C947C2469E085E19AE00E94E6338823EC
:1015300021F083EE99E00E9460276BE085E19AE05C
:101540000E94E633882321F083EE99E00E94EB2786
:101550006CE085E19AE00E94E633882321F083EE77
:1015600099E00E94E82E6AE085E19AE00E94E63365
:10157000882321F083EE99E00E94172E67E085E131
:101580009AE00E94E633882321F083EE99E00E94DE
:10159000842968E085E19AE00E94E633882321F0FF
:1015A00083EE99E00C9404290895B8DFBBDF83EE45
:1015B00099E00E94762883EE99E00E944E268CEFF7
:1015C00098E00E947C328EEE98E00E947C3235CE0C
:1015D0000F931F93CF93DF93CDB7DEB76E970FB600
:1015E000F894DEBF0FBECDBF8B014AE0BC01CE0137
:1015F00001960E94F83C4AE0B801CE010D960E9487
:10160000F83C61EE72E0CE0143960E945B3CBE0165
:101610006D5E7F4FCE0107960E94853CBE01635FE1
:101620007F4FCE0107960E94B83D66EF72E00E94A0
:10163000C93DBE016F5F7F4F0E94B83DBC01CE0126
:1016400049960E94853CCE0107960E94F43BCE014C
:1016500043960E94F43BCE010D960E94F43BCE01CE
:1016600001960E94F43BBE01675E7F4F8EEC9AE0CC
:101670000E94563BCE0149960E94F43B6E960FB6EF
:10168000F894DEBF0FBECDBFDF91CF911F910F91B8
:101690000895CF93DF93CDB7DEB768970FB6F89470
:1016A000DEBF0FBECDBF28EE33E0829FB001839F27
:1016B000700D11244AE0CE0107960E94CE3C67EEE1
:1016C00072E0CE010D960E945B3CBE01635F7F4FCE
:1016D000CE0101960E94853CBE01695F7F4FCE011D
:1016E00001960E94B83DBC01CE0143960E94853C04
:1016F000CE0101960E94F43BCE010D960E94F43B70
:10170000CE0107960E94F43BBE016D5E7F4F8EECCA
:101710009AE00E94563BCE0143960E94F43B6896A5
:101720000FB6F894DEBF0FBECDBFDF91CF91089505
:101730008091A9089091AA080E946B2B0E949E3F5D
:10174000862FA7CFCF93DF93CDB7DEB768970FB6BD
:10175000F894DEBF0FBECDBF4AE0682FCE010196E0
:101760000E94A33C68E274E0CE010D960E945B3CAF
:10177000BE01635F7F4FCE0107960E94853C6DEEF0
:1017800072E0CE0107960E94C93DBE016F5F7F4F98
:101790000E94B83DBC01CE0143960E94853CCE011B
:1017A00007960E94F43BCE010D960E94F43BCE01B9
:1017B00001960E94F43BBE016D5E7F4F8EEC9AE075
:1017C0000E94563BCE0143960E94F43B68960FB6AA
:1017D000F894DEBF0FBECDBFDF91CF910895CF93B8
:1017E000DF9300D000D0CDB7DEB78091A5089091EF
:1017F000A60860EA73E006960E942E3E882319F040
:1018000069EA73E002C060EA73E0CE0101960E94CB
:101810005B3CBE016F5F7F4F8091A5089091A60849
:101820000E94BD29CE0101960E94F43B8091A5083B
:101830009091A60806960E94B83E862F83DF2696D2
:101840000FB6F894DEBF0FBECDBFDF91CF910895E4
:10185000CF93DF93CDB7DEB768970FB6F894DEBFAE
:101860000FBECDBF4AE0682FCE0101960E94A33C77
:1018700068E274E0CE010D960E945B3CBE01635F9E
:101880007F4FCE0107960E94853C63EF72E0CE0148
:1018900007960E94C93DBE016F5F7F4F0E94B83D11
:1018A000BC01CE0143960E94853CCE0107960E9462
:1018B000F43BCE010D960E94F43BCE0101960E94AE
:1018C000F43BBE016D5E7F4F8EEC9AE00E94563B6A
:1018D000CE0143960E94F43B68960FB6F894DEBFA3
:1018E0000FBECDBFDF91CF910895CF93DF9300D08E
:1018F00000D0CDB7DEB78091990890919A0860EA40
:1019000073E006960E942E3E882319F069EF72E07C
:1019100002C060EA73E0CE0101960E945B3CBE010A
:101920006F5F7F4F8091990890919A080E94BD291E
:10193000CE0101960E94F43B8091990890919A08FB
:1019400006960E94B83E862F83DF26960FB6F8943F
:10195000DEBF0FBECDBFDF91CF910895AF92BF9292
:10196000CF92DF92EF92FF920F931F93CF93DF936B
:10197000CDB7DEB76CEF72E081E39AE00E944B3B9B
:101980004AE050E08E01025F1F4FF80161918F0124
:1019900081E39AE00E94DF3B61E173E081E39AE03A
:1019A0000E944B3BB80181E39AE00E94663B62E0F3
:1019B00073E081E39AE00E944B3B8E01035D1F4F71
:1019C0007E01F5E4EF0EF11CF80161918F014AE010
:1019D00050E081E39AE00E94D93B0E151F0581F487
:1019E00081E39AE00E94533B2EE0A22EB12CAC0E74
:1019F000BD1E87E8A80EB11C8E01025F1F4F07C0F5
:101A00006CEB72E081E39AE00E944B3BDDCF6CE02F
:101A100073E081E39AE00E944B3BB801695C7F4F21
:101A200081E39AE00E94663B69E173E081E39AE01A
:101A30000E944B3B4AE050E0F801EB5AFF4F6081B7
:101A400081E39AE00E94DF3B6BE273E081E39AE07E
:101A50000E944B3B4AE050E0F801EA5AFF4F608198
:101A600081E39AE00E94DF3B6AE373E081E39AE05E
:101A70000E944B3B4AE050E0F801E95AFF4F608179
:101A800081E39AE00E94DF3BE12CF12C6801CE0C4F
:101A9000DF1CF601E85AFF4F6081683189F4035D6D
:101AA0001F4F0A151B0509F0B2CFDF91CF911F918F
:101AB0000F91FF90EF90DF90CF90BF90AF9008957F
:101AC0004AE050E081E39AE00E94D93B61EC72E089
:101AD00081E39AE00E944B3BF601E75AFF4F4AE050
:101AE00050E0608181E39AE00E94DF3BF2E0EF0E7C
:101AF000F11C8CE0E816F10449F6D1CF8DB79EB702
:101B00008E5B91090FB6F8949EBF0FBE8DBFADB727
:101B1000BEB711968EEBE6E3F5E001900D928A9543
:101B2000E1F71CDF8DB79EB782549F4F0FB6F89434
:101B30009EBF0FBE8DBF0895CF93DF93CDB7DEB7A5
:101B4000CE5BD1090FB6F894DEBF0FBECDBFCE017C
:101B500001965BDBCE010196EEDA8DB79EB78E5B08
:101B600091090FB6F8949EBF0FBE8DBFADB7BEB73B
:101B700011968EEBFE01319601900D928A95E1F758
:101B8000EDDE0FB6F894DEBF0FBECDBFC254DF4FFF
:101B90000FB6F894DEBF0FBECDBFDF91CF91089591
:101BA00086E395E0C8CAEF92FF920F931F93CF93FD
:101BB000DF93CDB7DEB768970FB6F894DEBF0FBEE0
:101BC000CDBF4130510571F042305105A1F0452B98
:101BD000D9F440912105509122052091230530919F
:101BE000240516C04091200250912102209122022A
:101BF000309123020DC040911C0250911D02209192
:101C00001E0230911F0204C020E030E040E050E0AE
:101C100094E6899F7001112482E3E80EF11C809103
:101C2000180290911902840F951FE80EF91E94E690
:101C3000699F800111240E5C1F4F80911A029091C0
:101C40001B02820F931F080F191F4AE064E670E021
:101C5000CE0107960E94F83C68E672E0CE010D9630
:101C60000E945B3CBE01635F7F4FCE0101960E94E4
:101C7000853CBE01695F7F4FCE0101960E94B83D51
:101C8000BC018EEC9AE00E94563BCE0101960E9468
:101C9000F43BCE010D960E94F43BCE0107960E94C4
:101CA000F43B4AE0B801CE0101960E94F83C4AE0BC
:101CB000B701CE010D960E94F83C6CE572E0CE01B2
:101CC00043960E945B3CBE016D5E7F4FCE0107963E
:101CD0000E94853CBE01635F7F4FCE0107960E9444
:101CE000B83D65E672E00E94C93DBE016F5F7F4F5F
:101CF0000E94B83DBC018EEC9AE00E94563BCE019A
:101D000007960E94F43BCE0143960E94F43BCE011D
:101D10000D960E94F43BCE0101960E94F43BB70160
:101D200080E090E00E94CF3FAB01BC018091B10800
:101D30009091B2080E94D32CB80180E090E00E94FC
:101D4000CF3FAB01BC018091AF089091B0080E94D9
:101D5000D32C40E050E068EC72E48091AD089091A3
:101D6000AE080E94D32C68960FB6F894DEBF0FBE63
:101D7000CDBFDF91CF911F910F91FF90EF9008950C
:101D80008F929F92AF92BF92CF92DF92EF92FF928B
:101D900080914B0890914C080E946B2B4B015C0189
:101DA00080914D0890914E080E946B2B6B017C0135
:101DB00020E030E040E85FE3C501B4010E94CD3E81
:101DC0000E94A33FB62E20E030E040E85FE3C70169
:101DD000B6010E94CD3E0E94A33F862F40E050E016
:101DE0006B2DFF90EF90DF90CF90BF90AF909F90C2
:101DF0008F90D9CECF92DF92EF92FF920F931F93E5
:101E0000CF93DF93CDB7DEB768970FB6F894DEBFF8
:101E10000FBECDBFC0901802D090190220912105AD
:101E200030912205C20ED31E96E0899F80011124B5
:101E30000A5F1D4FF80180819181C80ED91EE09084
:101E40001A02F0901B028091230590912405E80E60
:101E5000F91E82819381E80EF91E4AE064E670E083
:101E6000CE0107960E94CE3C68E672E0CE010D9648
:101E70000E945B3CBE01635F7F4FCE0101960E94D2
:101E8000853CBE01695F7F4FCE0101960E94B83D3F
:101E9000BC018EEC9AE00E94563BCE0101960E9456
:101EA000F43BCE010D960E94F43BCE0107960E94B2
:101EB000F43B4AE0B701CE0101960E94F83C4AE0AB
:101EC000B601CE010D960E94F83C6CE572E0CE01A1
:101ED00043960E945B3CBE016D5E7F4FCE0107962C
:101EE0000E94853CBE01635F7F4FCE0107960E9432
:101EF000B83D65E672E00E94C93DBE016F5F7F4F4D
:101F00000E94B83DBC018EEC9AE00E94563BCE0187
:101F100007960E94F43BCE0143960E94F43BCE010B
:101F20000D960E94F43BCE0101960E94F43BF8010D
:101F3000648175814AE0CE0107960E94F83C68E60C
:101F400072E0CE010D960E945B3CBE01635F7F4F45
:101F5000CE0101960E94853CBE01695F7F4FCE0194
:101F600001960E94B83DBC018EEC9AE00E94563B5F
:101F7000CE0101960E94F43BCE010D960E94F43BE7
:101F8000CE0107960E94F43BB60180E090E00E94EB
:101F9000CF3FAB01BC018091B1089091B2080E9483
:101FA000D32CB70180E090E00E94CF3FAB01BC0191
:101FB0008091AF089091B0080E94D32CF801648101
:101FC000758180E090E00E94CF3FAB01BC01809121
:101FD000AD089091AE080E94D32C68960FB6F89485
:101FE000DEBF0FBECDBFDF91CF911F910F91FF904C
:101FF000EF90DF90CF90089580E0FCCE81E0FACEA4
:1020000082E0F8CE80912005E82FF0E0EA5CFA4FFC
:10201000278D91E0980F211102C0892FF5CF809371
:10202000200590911E059230E9F028F4992349F09B
:10203000913059F00895943049F108F19530B9F193
:1020400008958FEF820FD6DE07C081E07BDB60E072
:1020500070E088EE93E0BCDA80911E058F5F80937C
:102060001E0508956BEA869F612D11246695962FB3
:10207000990F960F40E050E0891B95DDEDCF80E091
:1020800061DB60E070E084EF91E0E5CF6BEA869F72
:10209000612D11246695962F990F960F41E050E01F
:1020A000891B81DD80911E058F5F80931E0583E073
:1020B000F0DA60E070E088E893E18ADA10921E05B9
:1020C000809120058F5F80932005883111F4109254
:1020D0001F05089581E080931F051092200510923E
:1020E0001E0590CF90912B05282F30E02F5F3F4F9A
:1020F00081E0890FE92FF0E0EA5CFA4F478D50E06C
:102100004217530711F0982FF3CF90932B0580912E
:102110002A05882319F08130A1F008956BEA969F73
:10212000612D11246695862F880F860F41E050E0BF
:10213000981B892F38DD80912A058F5F80932A05AF
:10214000089583E0A6DA60E070E088E893E140DA81
:1021500010922A0580912B058F5F883119F08093AA
:102160002B05089510922B0510922C05E09129055E
:10217000F0E0E35DFA4F1082089580911F05811110
:1021800041DF80912C05882319F080912905AACF81
:10219000089580912C05811118C080912D05811121
:1021A0000AC080912E05811108C080912F058823D7
:1021B00061F082E003C080E001C081E010922B0555
:1021C00010922A05809329058DCF0895CF92DF9232
:1021D000EF92FF920F931F93CF93DF93EC017B015C
:1021E0006A018C819D818617970708F051C08A810A
:1021F0009B818617970778F59B01285F3F4F8217D1
:10220000930748F5088119813B832A83C901880F08
:10221000991F880F991F0E94FB3A88839983FC01BC
:10222000D80120E030E04C815D812417350780F42F
:10223000309749F04D915D916D917C91139740835A
:102240005183628373832F5F3F4F34961496EBCF95
:10225000C8010E94FD3A8C819D81AC01440F551F3D
:10226000440F551F8E159F05B0F4E881F981E40FE6
:10227000F51F309749F0D6010D911D912D913C919C
:10228000008311832283338301964C5F5F4FEACF33
:102290006817790710F4FD82EC82DF91CF911F91CE
:1022A0000F91FF90EF90DF90CF9008952F923F9283
:1022B0004F925F926F927F928F929F92AF92BF9256
:1022C000CF92DF92EF92FF920F931F93CF93DF9302
:1022D000CDB7DEB7A6970FB6F894DEBF0FBECDBF61
:1022E0000E94470966E3E62E65E0F62E8BE798E04C
:1022F0009AA389A3A5E7B8E0BCA3ABA3EFE6F8E0F7
:10230000FEA3EDA373E9A72E78E0B72EE5E38E2EAA
:10231000E8E09E2EC12CD12CF701EA5AFF4F6081D4
:1023200070E080E090E00E94CF3F6D8F7E8F8F8FB6
:1023300098A3F701E95AFF4F608170E080E090E0D8
:102340000E94CF3F2B013C01A9A1BAA10D911D9183
:10235000BAA3A9A3F701EB5AFF4F608170E080E0B8
:1023600090E00E94CF3FAB01BC01C8010E94D32C7A
:102370004D8D5E8D6F8D78A1EBA1FCA18191919126
:10238000FCA3EBA30E94D32CB301A201ADA1BEA17B
:102390008D919D91BEA3ADA30E94D32C612C712C75
:1023A000F601E05EF74F1F012701460C571CF201B2
:1023B000E85AFF4F6081683109F4DCC0D1011496FE
:1023C0008D919C911597282F2170220F122F110F9C
:1023D000110F120F96958795B1E0B80FBD8F4AE0A7
:1023E000CE0143960E94A33CF201E75AFF4F4AE018
:1023F0006081CE010D960E94A33C8F89988D019734
:1024000009F560EA73E0CE0107960E945B3CBE01CD
:10241000695F7F4FCE0101960E94853CBE016D5ED3
:102420007F4FCE0101960E94B83DBC01CE0143967C
:102430000E94703CCE0101960E94F43BCE010796AB
:102440000E94F43B89899A89019709F560EA73E053
:10245000CE0107960E945B3CBE01695F7F4FCE01B3
:1024600001960E94853CBE01635F7F4FCE010196BD
:102470000E94B83DBC01CE010D960E94703CCE0179
:1024800001960E94F43BCE0107960E94F43BBE01E8
:102490006D5E7F4FCE0107960E94853C61EC72E035
:1024A000CE0107960E94C93DBE01635F7F4F0E9427
:1024B000B83DBC01CE0101960E94853C82E190E0CE
:1024C0000E94FB3A2C01D501ED91FC916289738940
:1024D0000D8D212FAE014F5F5F4F0E94322B5A8E20
:1024E000498ECE0101960E94F43BCE0107960E94D0
:1024F000F43B69E473E0CE0101960E945B3C84E109
:1025000090E00E94FB3A2C0126E0210FD501ED91CD
:10251000FC91628973890D8DAE014F5F5F4F0E9400
:10252000F82E5C8E4B8ECE0101960E94F43BF40196
:1025300080819181EB8DFC8D938B828BD1011496E0
:102540006D917C9115976F5F7F4FAE01475E5F4F36
:10255000C1013CDECE010D960E94F43BCE014396B4
:102560000E94F43BB2E06B0E711CECE06E1671043D
:1025700009F01ACFFDE2EF0EF11C22E0A20EB11C11
:1025800082E0880E911C97E0C90ED11CA5E1CA1605
:10259000D10409F0C1CE83EE99E00E945327A6969C
:1025A0000FB6F894DEBF0FBECDBFDF91CF911F9164
:1025B0000F91FF90EF90DF90CF90BF90AF909F90E2
:1025C0008F907F906F905F904F903F902F900895E5
:1025D0002F923F924F925F926F927F928F929F9233
:1025E000AF92BF92CF92DF92EF92FF920F931F9321
:1025F000CF93DF93CDB7DEB7EA970FB6F894DEBF7F
:102600000FBECDBF8EEB9CE190933C0880933B08BE
:1026100080EC9CE190933E0880933D0882EC9CE125
:102620009093400880933F0888E89AE0909336089A
:10263000809335088AE89AE09093380880933708A9
:102640008CE89AE090933A08809339088CEF9FE0E9
:1026500090933105809330058EEF9FE09093330582
:102660008093320580E090E19093350580933405A6
:1026700026E040E855E260E070E081E39AE00E94E5
:10268000383926E040E855E260E070E08EEC9AE0F0
:102690000E94383940E855E261E37AE0CE010196C4
:1026A0005C010E94803089819A819093FD0880931B
:1026B000FC088B819C819093FF088093FE088D819C
:1026C0009E8190930109809300098F818093020974
:1026D000888580930309BE01675F7F4F84E099E09E
:1026E0000E94703CC5010E94BF3040E855E26EEC8C
:1026F0007AE0C5010E94803089819A819093EF0829
:102700008093EE088B819C819093F1088093F00870
:102710008D819E819093F3088093F2088F8180933E
:10272000F40888858093F508BE01675F7F4F86EFC8
:1027300098E00E94703CC5010E94BF3040E855E21D
:102740006EEC7AE08CEF98E00E94EC3040E855E2C5
:1027500061E37AE08EEE98E00E94EC3021DA68E7DF
:1027600073E0C5010E945B3C44EF55E0B5018CEF7E
:1027700098E00E94BA31C5010E94F43B6BE473E01B
:10278000C5010E945B3C4CE356E0B5018CEF98E03C
:102790000E94F830C5010E94F43B60E573E0C5017A
:1027A0000E945B3C41E150E2B5018CEF98E00E9451
:1027B000F830C5010E94F43B6BE573E0C5010E944F
:1027C0005B3C4CE95DE0B5018CEF98E00E94F8308D
:1027D000C5010E94F43B67E673E0C5010E945B3CC3
:1027E0004EE75DE0B5018CEF98E00E94F830C5013E
:1027F0000E94F43B63E773E0C5010E945B3C40E14B
:1028000054E0B5018CEF98E00E94F830C5010E94B9
:10281000F43B6DE773E0C5010E945B3C4AE054E085
:10282000B5018CEF98E00E94F830C5010E94F43B9E
:1028300067E873E0C5010E945B3C4DEB50E1B501D8
:102840008EEE98E00E94F830C5010E94F43B86E0CD
:1028500090E00E94FB3A6C0116E0DC01E12F1D9232
:10286000EA95E9F70E94DD29A0E98A2EA4E09A2ED4
:10287000D6018D929C92D092DA08C092D90861E973
:1028800073E0C5010E945B3C82E190E00E94FB3A4C
:102890006C016091D9087091DA0800E020E0A50190
:1028A0000E94322BD092D808C092D708C5010E944E
:1028B000F43B68E274E0C5010E945B3C82E190E079
:1028C0000E94FB3A6C016091D9087091DA0828E007
:1028D000A5010E94322BD092D608C092D508C5011E
:1028E0000E94F43B69E973E0C5010E945B3C82E110
:1028F00090E00E94FB3A6C016091D9087091DA086F
:1029000001E028E0A5010E94322BD092D408C092A9
:10291000D308C5010E94F43B86E090E00E94FB3A98
:102920006C01FC0111921A95E9F70E94DD29D6018C
:102930008D929C92D092D208C092D10862EA73E044
:10294000C5010E945B3C82E190E00E94FB3A6C0171
:102950006091D1087091D20800E027E0A5010E94A3
:10296000322BD092D008C092CF08C5010E94F43B10
:10297000B9EC2B2EB8E03B2E13E9412E18E0512E76
:10298000E9E6F8E0FEA3EDA38BE398E09CA78BA714
:10299000A3E6B8E0B8A7AFA3EDE5F8E0FEA7EDA782
:1029A00087E598E098AB8FA7ADE8B8E0BAABA9ABE4
:1029B00006E3C02E05E0D02EEBE7F8E0FAA7E9A782
:1029C00087E898E09CAB8BABA5E7B8E0BAA3A9A3D6
:1029D000E1E8F8E0FEABEDAB8FE698E09CA38BA3BB
:1029E000812C912CFA2C1B2D34019FEF691A790A46
:1029F0004AE0B301CE0145960E94CE3C6BEA73E0FB
:102A0000CE010F960E945B3CBE016B5E7F4FCE01F4
:102A10000F960E94B83DBC018F2D912F0E94853CDE
:102A200084E190E00E94FB3A5C01A7E08A9E202DA1
:102A300011246091D1087091D20802E04F2D512FDE
:102A40000E94E82AF101B182A0828F2D912F0E946D
:102A5000F43BCE010F960E94F43BCE0145960E94B6
:102A6000F43B60EB73E08F2D912F0E945B3C84E17F
:102A700090E00E94FB3A5C01D101ED91FC916289EA
:102A8000738900E023E04F2D512F0E94E82AF201C4
:102A9000B182A0828F2D912F0E94F43B6FEB73E0E7
:102AA0008F2D912F0E945B3C84E190E00E94FB3AC5
:102AB0005C01D201ED91FC916289738920E04F2D78
:102AC000512F0E94F82EEDA1FEA1B182A0828F2D80
:102AD000912F0E94F43BADA1BEA1ED91FD91BEA34B
:102AE000ADA3ABA5BCA58D919D91BCA7ABA7938BC6
:102AF000828B89E290E00E94FB3A5C01D201ED9169
:102B0000FC9162897389E12C0AE020E030E040E426
:102B100051E40E94012CEFA1F8A5B182A08261ECE2
:102B200072E08F2D912F0E945B3C82E190E00E9429
:102B3000FB3A5C01D201ED91FC916289738900E05E
:102B40002CE04F2D512F0E94322BEDA5FEA5A19216
:102B5000B192FEA7EDA78F2D912F0E94F43B89E241
:102B600090E00E94FB3A5C01D201ED91FD912D01B4
:102B7000628973890DE020E030E040E751E40E9473
:102B8000012CEFA5F8A9A192B192F8ABEFA7AFA1E4
:102B9000B8A5ED91FD91B8A7AFA380E090E0A8EBB8
:102BA000B1E4878B908FA18FB28F138E148E158E08
:102BB000168E80E090E0ACE6B2E4F501878B908F52
:102BC000A18FB28F138E148E158E168E63EC73E068
:102BD0008F2D912F0E945B3C82E190E00E94FB3A96
:102BE0005C01D101ED91FC916289738901E020E0E3
:102BF0004F2D512F0E94322BE9A9FAA9A192B1922F
:102C0000FAABE9AB8F2D912F0E94F43B89E290E063
:102C10000E94FB3A5C01C6018B5A9F4F98AF8FAB65
:102C2000DC016C9170E080E090E00E94CF3F9B015E
:102C3000AC01D101ED91FC9162897389EE24E3949A
:102C40000AE0C5010E94012CE9A5FAA5B182A08283
:102C50006CEC73E08F2D912F0E945B3C82E190E041
:102C60000E94FB3A5C01D101ED91FC91628973896C
:102C700002E020E04F2D512F0E94322BEBA9FCA93E
:102C8000A192B192FCABEBAB8F2D912F0E94F43B44
:102C900089E290E00E94FB3A5C014601F6E58F0E66
:102CA000911CD4016C9170E080E090E00E94CF3FD5
:102CB0009B01AC01D101ED91FC9162897389E2E045
:102CC000EE2E0AE0C5010E94012CE9A1FAA1B18211
:102CD000A08265ED73E08F2D912F0E945B3C82E115
:102CE00090E00E94FB3A5C01D101ED91FC91628978
:102CF000738903E020E04F2D512F0E94322BEDA964
:102D0000FEA9A192B192FEABEDAB8F2D912F0E9447
:102D1000F43B89E290E00E94FB3A5C01C601895ACB
:102D20009F4F9AAF89AFDC016C9170E080E090E03A
:102D30000E94CF3F9B01AC01D101ED91FD911D019E
:102D400062897389F3E0EF2E0AE0C5010E94012C2D
:102D5000EBA1FCA1B182A0826FA978ADA9A5BAA50B
:102D60008D919D91BAA7A9A70E94672BB401E9A1F3
:102D7000FAA1808191810E94672B69AD7AADABA1E8
:102D8000BCA18D919C910E94672BA9A1BAA1ED9144
:102D9000FD91BAA3A9A382E798E090A3878FABA186
:102DA000BCA1ED91FD91BCA3ABA390A3878FBDE225
:102DB000CB0ED11CE3E06E16710411F0430114CE6A
:102DC00086E090E00E94FB3A4C01F6E0BF2EDC0169
:102DD000EB2D1D92EA95E9F70E94DD29A0E9CA2EA4
:102DE000A4E0DA2ED401CD92DC929092C8088092B1
:102DF000C7086EED73E08F2D912F0E945B3C84E13C
:102E000090E00E94FB3A4C016091C7087091C8089D
:102E100000E021E04F2D512F0E94F82E9092C6081D
:102E20008092C5088F2D912F0E94F43B60E672E0DE
:102E30008F2D912F0E945B3C84E190E00E94FB3A31
:102E40004C016091C7087091C80828E04F2D512FA0
:102E50000E94F82E9092C4088092C3088F2D912F63
:102E60000E94F43B66E672E08F2D912F0E945B3C3E
:102E700084E190E00E94FB3A4C016091C708709198
:102E8000C8082CE04F2D512F0E94F82E9092C208B6
:102E90008092C1088F2D912F0E94F43B6CE672E066
:102EA0008F2D912F0E945B3C84E190E00E94FB3AC1
:102EB0004C016091C7087091C80820E14F2D512F37
:102EC0000E94F82E9092C0088092BF088F2D912FFB
:102ED0000E94F43B63EE73E08F2D912F0E945B3CC8
:102EE00082E190E00E94FB3A4C016091C70870912A
:102EF000C80801E021E04F2D512F0E94322B909203
:102F0000BE088092BD088F2D912F0E94F43B89E26C
:102F100090E00E94FB3A4C016091C7087091C8088C
:102F2000EE24E39408E020E030E040E85FE30E9414
:102F3000012C9092BC088092BB0869EE73E08F2D43
:102F4000912F0E945B3C82E190E00E94FB3A4C0191
:102F50006091C7087091C80801E02CE04F2D512FF7
:102F60000E94322B9092BA088092B9088F2D912F2F
:102F70000E94F43B60E672E08F2D912F0E945B3C33
:102F800082E190E00E94FB3A4C016091C708709189
:102F9000C80802E020E04F2D512F0E94322B909262
:102FA000B8088092B7088F2D912F0E94F43B89E2D8
:102FB00090E00E94FB3A4C016091C7087091C808EC
:102FC000B2E0EB2E01E020E030E0A9010E94012CEC
:102FD0009092B2088092B10866E672E08F2D912F30
:102FE0000E945B3C82E190E00E94FB3A4C016091C0
:102FF000C7087091C80802E027E04F2D512F0E94AA
:10300000322B9092B6088092B5088F2D912F0E9496
:10301000F43B89E290E00E94FB3A4C016091C708C2
:103020007091C80808E020E030E0A9010E94012C5E
:103030009092B0088092AF086CE672E08F2D912FCD
:103040000E945B3C82E190E00E94FB3A4C0160915F
:10305000C7087091C80802E02EE04F2D512F0E9442
:10306000322B9092B4088092B3088F2D912F0E943A
:10307000F43B89E290E00E94FB3A4C016091C70862
:103080007091C8080FE020E030E0A9010E94012CF7
:103090009092AE088092AD086BEE72E08F2D912F6A
:1030A0000E945B3C84E190E00E94FB3A4C016091FD
:1030B000C7087091C80803E020E04F2D512F0E94EF
:1030C000F82E9092AC088092AB088F2D912F0E9421
:1030D000F43B89E290E00E94FB3A4C016091C70802
:1030E0007091C80803E0E02E01E020E030E040E805
:1030F0005FE30E94012C9092AA088092A90861EFD8
:1031000072E08F2D912F0E945B3C84E190E00E9441
:10311000FB3A4C016091C7087091C80803E024E0B5
:103120004F2D512F0E94F82E9092A8088092A70848
:103130008F2D912F0E94F43B60EA73E08F2D912F29
:103140000E945B3C82E190E00E94FB3A4C0160915E
:10315000C7087091C80825E04F2D512F0E94322BCF
:103160009092A6088092A5088F2D912F0E94F43B83
:1031700062E772E08F2D912F0E945B3C84E190E02A
:103180000E94FB3A4C016091C7087091C80828E082
:103190004F2D512F0E94F82E9092A00880929F08E8
:1031A0008F2D912F0E94F43B60EA73E08F2D912FB9
:1031B0000E945B3C82E190E00E94FB3A4C016091EE
:1031C000C7087091C80829E04F2D512F0E94322B5B
:1031D00090929E0880929D088F2D912F0E94F43B23
:1031E00068E772E08F2D912F0E945B3C84E190E0B4
:1031F0000E94FB3A4C016091C7087091C8082CE00E
:103200004F2D512F0E94F82E9092A4088092A3086F
:103210008F2D912F0E94F43B60EA73E08F2D912F48
:103220000E945B3C82E190E00E94FB3A4C0160917D
:10323000C7087091C8082DE04F2D512F0E94322BE6
:103240009092A2088092A1088F2D912F0E94F43BAA
:1032500067EF72E08F2D912F0E945B3C84E190E03C
:103260000E94FB3A4C016091C7087091C80820E1A8
:103270004F2D512F0E94F82E90929C0880929B080F
:103280008F2D912F0E94F43B60EA73E08F2D912FD8
:103290000E945B3C82E190E00E94FB3A4C0160910D
:1032A000C7087091C80821E14F2D512F0E94322B81
:1032B00090929A08809299088F2D912F0E94F43B4A
:1032C000E091C508F091C60886E194E0938B828B6B
:1032D000E091C308F091C4088DE394E0938B828B56
:1032E000E091C108F091C20881E594E0938B828B54
:1032F000E091BF08F091C00880E694E0938B828B48
:10330000E091BB08F091BC0880E090E0A8ECB2E44A
:10331000878B908FA18FB28F80E090E0A0E8BFE311
:10332000838F948FA58FB68F8BE292E090A3878FC7
:10333000E091B108F091B20884E794E090A3878F00
:10334000E091AF08F091B00884EC94E090A3878FEF
:10335000E091AD08F091AE0884E195E090A3878FED
:10336000E091AB08F091AC0888E99BE0938B828BED
:10337000E091A708F091A8088FEE9BE0938B828BD9
:10338000E0919F08F091A00884E695E0938B828BF2
:10339000E091A308F091A40880ED95E0938B828BD7
:1033A000E0919B08F0919C0885E79CE0938B828BD1
:1033B000E091A908F091AA08178A108E118E128E3A
:1033C00086E090E00E94FB3A4C01FC011192BA9415
:1033D000E9F70E94DD29D401CD92DC929092560843
:1033E000809255086CEE73E08F2D912F0E945B3C0C
:1033F00082E190E00E94FB3A6C0160915508709167
:10340000560800E020E04F2D512F0E94322BD09221
:103410005408C09253088F2D912F0E94F43B60E610
:1034200072E08F2D912F0E945B3C82E190E00E9420
:10343000FB3A6C01609155087091560828E04F2DB9
:10344000512F0E94322BD0925208C09251088F2DDA
:10345000912F0E94F43B66E672E08F2D912F0E941F
:103460005B3C82E190E00E94FB3A6C016091550860
:10347000709156082CE04F2D512F0E94322BD09284
:103480005008C0924F088F2D912F0E94F43B89E283
:1034900090E00E94FB3A6C016091550870915608CB
:1034A000E12C09E020E030E040E85FE30E94012CDD
:1034B000D0924E08C0924D0889E290E00E94FB3AFB
:1034C0006C0160915508709156080DE020E030E0E5
:1034D00040E85FE30E94012CD0924C08C0924B0858
:1034E00063EF73E08F2D912F0E945B3C84E190E0AD
:1034F0000E94FB3A6C01609155087091560800E0FB
:1035000020E14F2D512F0E94F82ED0924A08C092F0
:1035100049088F2D912F0E94F43B83E4A82E88E068
:10352000B82E90E3892E95E0992E512CCC24C3948B
:10353000D12C4AE0B601CE0145960E94CE3C68EF00
:1035400073E0CE014B960E945B3CBE01655E7F4FEF
:10355000CE010F960E94853CBE016B5E7F4FCE016F
:103560000F960E94B83DBC018F2D912F0E94853C83
:1035700084E190E00E94FB3A3C0160915508709113
:10358000560801E0252D4F2D512F0E94F82EF501F0
:10359000718260828F2D912F0E94F43BCE010F9695
:1035A0000E94F43BCE014B960E94F43BCE0145961F
:1035B0000E94F43BD501ED91FD915D01D4018D9107
:1035C0009D914D01938B828BBFEFCB1ADB0AE7E015
:1035D0005E0EF5E15F12ADCF6DEF73E08F2D912F91
:1035E0000E945B3C84E190E00E94FB3A6C01609198
:1035F00055087091560802E020E04F2D512F0E948F
:10360000F82ED0924208C09241088F2D912F0E942F
:10361000F43BE0914108F09142088AE690E1938BF7
:10362000828BE0914908F0914A0880EC9EE0938BF0
:10363000828BE0914D08F0914E0880E090E0A0E48C
:10364000B0E4878B908FA18FB28F80E090E0A0E8EC
:10365000BFE3838F948FA58FB68FE0914B08F091D5
:103660004C0840E050E060E071E4478B508F618F80
:10367000728F838F948FA58FB68F67E074E08F2D44
:10368000912F0E945B3C4F2D512F62EE78E083EE2C
:1036900099E00E9479258F2D912F0E94F43B609133
:1036A000D9087091DA0883EE99E00E94AF25609105
:1036B000D1087091D20883EE99E00E94AF25609105
:1036C000C7087091C80883EE99E00E94AF25609109
:1036D00055087091560883EE99E00E94AF256091DD
:1036E000D9087091DA0883EE99E00E94A02683EE53
:1036F00099E00E944E260E94561146E064E272E074
:1037000085E19AE00E944B338EE19AE00E948E346C
:1037100048EE53E06AE572E08EE19AE00E94B03430
:1037200048EE53E06EE273E08EE19AE00E94B0341E
:1037300040E157E26DEF71E08EE19AE00E94B03413
:1037400040E157E269EC70E18EE19AE00E94B0340A
:103750008EE19AE00E948235EA960FB6F894DEBFB9
:103760000FBECDBFDF91CF911F910F91FF90EF90D2
:10377000DF90CF90BF90AF909F908F907F906F9091
:103780005F904F903F902F9008953F924F925F929D
:103790006F927F928F929F92AF92BF92CF92DF9261
:1037A000EF92FF920F931F93CF93DF93CDB7DEB7C6
:1037B00062970FB6F894DEBF0FBECDBFA82EB12C16
:1037C00097E0899F70011124D701A05EB74F7D015A
:1037D00014968D919C9115978630910509F4B6C089
:1037E000282F2170220F322E330C330C320E969577
:1037F000879511E0180F6501CC0CDD1CF601E95A24
:10380000F74FFA8BE98B80809180F6E08F0E911C48
:10381000C6018D59974F2C01DC016D917C916A5F37
:103820007F4FCE0107960E94853C61EC72E0CE018D
:1038300007960E94C93DB4010E94B83DBC01CE016B
:1038400001960E94853C82E190E00E94FB3A4C0187
:10385000F601ED56F74F3F010190F081E02D6289AE
:103860007389012F232DAE014F5F5F4F0E94322BD2
:103870009E868D86CE0101960E94F43BCE0107966E
:103880000E94F43B69E473E0CE0101960E945B3C28
:1038900084E190E00E94FB3A4C0126E0230DD30125
:1038A000ED91FC9162897389AE014F5F5F4F0E9479
:1038B000F82E988A8F86CE0101960E94F43BEF8500
:1038C000F889D601AB5CB74F8D919C91938B828B1D
:1038D000F701648175816F5F7F4FAE01435F5F4F7A
:1038E000C7010E94E610D70114960D911C911597FF
:1038F00001501109F201808191810E946B2B000F10
:10390000111F2DE22A9D60012B9DD00C11240C0D5E
:103910001D1D02571A4F0E94A33FD8016C93F70157
:1039200004811581A989BA898D919C910E946B2B84
:10393000005F1F4F000F111F0C0D1D1D0A5C1A4F59
:103940000E94A33FF80167AB0E94720862960FB60F
:10395000F894DEBF0FBECDBFDF91CF911F910F91C5
:10396000FF90EF90DF90CF90BF90AF909F908F909F
:103970007F906F905F904F903F90089580E005CFCB
:1039800081E003CF82E001CFFC01A081B1818C9165
:103990008D3051F024F489508230B8F505C0803262
:1039A00019F08F3219F0089511962CC011968C9150
:1039B00011978A3219F08F32D1F008951196B183A0
:1039C000A083A081B181CD0101969183808311965E
:1039D0008C9111978823C9F08A3299F712968C91AD
:1039E00012978F3271F713960DC08A3071F2A08151
:1039F000B181CD0101969183808311968C918111C3
:103A0000F4CF03C0B183A083C0CF08950F931F9359
:103A1000CF93DF931F92CDB7DEB78C016983B4DFFC
:103A2000D801ED91FC91119780816981861305C0C1
:103A30003196ED93FC9381E001C080E00F90DF911F
:103A4000CF911F910F9108950F931F93CF93DF9301
:103A5000EC010C811D81029697DFEA81FB81408198
:103A6000473239F0423229F080ED840F8A30B0F1CC
:103A70002AC03196FB83EA83EA81FB8120812223DD
:103A8000F1F1CF0101969B838A832417C1F12C3574
:103A900091F42181AEE1B4E08C91882339F0821356
:103AA00003C011962C9102C01296F6CF222339F151
:103AB0003296FB83EA83EC81FD81CF0101969D83E1
:103AC0008C832083D9CF842F8F7D81548A3130F02D
:103AD0004B3221F083ED840F823088F42A813B81C0
:103AE0002F5F3F4F3B832A83EC81FD81CF010196FD
:103AF0009D838C834083EA81FB814081B5CFEC813B
:103B0000FD81CF0101969D838C831082C801DF91D6
:103B1000CF911F910F910895DC011296ED91FC91C8
:103B20001397309781F06115710531F0615071097B
:103B30000190F081E02DF5CF82819381079719F4F0
:103B40008481958108950C94F3080F931F93CF936C
:103B5000DF938B01FC01C281D381209759F06A81E8
:103B60007B81C8010E94B943892B21F00990D8813B
:103B7000C02DF3CFCE01DF91CF911F910F9108950A
:103B8000BF92CF92DF92EF92FF920F931F93CF934A
:103B9000DF9300D000D0CDB7DEB76C01FC0100810F
:103BA0001181B80184E090E00E94D208009709F4E6
:103BB0005EC0FC0111830083138212828C017601A6
:103BC000F2E0EF0EF11C6BE5C70120DF882309F45A
:103BD00049C06DE5C7011ADF811147C066E0B62E06
:103BE0001A821982BE016F5F7F4FC60153D08823AE
:103BF000C9F1F8016081718188E090E00E94D208EB
:103C0000DC01009739F011961C921E9213961C92BB
:103C10001E921297F801228133812115310559F046
:103C2000F90180819181009711F09C01F9CFF90190
:103C3000B183A08303C0F801B383A283109791F0EE
:103C4000FE01319612968B2D01900D928A95E1F727
:103C50006DE5C701DBDE811108C06CE2C701D6DE6D
:103C60008111BECF0E94E10805C0C80103C00E94B7
:103C7000E108A4CF26960FB6F894DEBF0FBECDBFE5
:103C8000DF91CF911F910F91FF90EF90DF90CF9038
:103C9000BF900895FF920F931F93CF93DF93EC0192
:103CA0008B018E81882309F442C081508E83CE011E
:103CB00002966ADEEA81FB8180818B3519F08B37B1
:103CC00059F01AC0CE015CDFFC0120813181232B29
:103CD00049F126E030E009C0CE0130D0FC0120815E
:103CE0003181232BF9F027E030E0F8013183208384
:103CF0009383828381E017C0873231F091E0823272
:103D000009F090E0F92E02C0FF24F394CE019CDE6E
:103D1000009741F0FF2019F022E030E0E6CF21E0EB
:103D200030E0E3CF80E09E819F5F9E8301C080E012
:103D3000DF91CF911F910F91FF9008959F92AF92C5
:103D4000BF92CF92DF92EF92FF920F931F93CF9388
:103D5000DF9300D000D0CDB7DEB76C01FC0100814D
:103D60001181B80184E090E00E94D208009709F424
:103D700075C0FC0111830083138212828C017601CD
:103D8000F2E0EF0EF11C6BE7C70140DE882309F477
:103D900060C06DE7C7013ADE81115EC076E0972E04
:103DA000C60152DE5C01009709F453C06AE3C70103
:103DB0002DDE882309F44DC01A821982BE016F5F7F
:103DC0007F4FC60167DF882309F443C0B501C801EE
:103DD000BCDEDC01009759F5F801608171818AE051
:103DE00090E00E94D208DC01009739F011961C92F5
:103DF0001E9215961C921E921497F801228133810F
:103E00002115310559F0F90180819181009711F058
:103E10009C01F9CFF901B183A08303C0F801B383FA
:103E2000A2831097B1F01396BC92AE921297FE0146
:103E300031961496892D01900D928A95E1F76DE7E0
:103E4000C701E4DD811108C06CE2C701DFDD81112B
:103E5000A7CF0E94F30805C0C80103C00E94F30861
:103E60008DCF26960FB6F894DEBF0FBECDBFDF9183
:103E7000CF911F910F91FF90EF90DF90CF90BF9067
:103E8000AF909F90089561CE08950F931F93CF93A5
:103E9000DF93F9DFEC010097C1F00C811D81013047
:103EA000110559F46E817F816115710531F089E248
:103EB00094E00E94B943892B41F00150110902306E
:103EC000110518F48E819F8102C080E090E0DF919F
:103ED000CF911F910F910895D6DF009749F0FC0113
:103EE000248135812630310519F486819781089522
:103EF0000C94E1080F931F93CF93DF93EC016A8139
:103F00007B8188819981E8DFDC011296ED91FC913B
:103F1000139700E010E0309731F00F5F1F4F0190D2
:103F2000F081E02DF8CF6A817B8188819981ABDFB8
:103F3000FC01009759F084819581079719F48681D7
:103F4000978102C00E94F308FC0103C00E94F3089D
:103F5000FC010280F381E02D80E090E0309729F0B1
:103F600001960190F081E02DF9CF800F911FDF9134
:103F7000CF911F910F910895CF93DF93FC01808122
:103F800091818330910534F48130910564F4892B5B
:103F9000D9F132C08530910524F0059769F5828109
:103FA00029C0828134C0C281D381209769F1BE01CA
:103FB0008EE294E00E94B943892B41F188818B32D3
:103FC00021F08D3229F491E001C090E0219601C0EA
:103FD00090E080E0299130ED320F3A3048F4382FEC
:103FE000330F832F880F880F830F8053820FF2CFF8
:103FF000992369F081950BC06281738184819581D9
:104000000E94A33F862F03C080E001C081E0DF91C2
:10401000CF91089538DF009711F00496ADCF80E07E
:1040200008953F924F925F926F927F928F929F92EC
:10403000AF92BF92CF92DF92EF92FF920F931F93B6
:10404000CF93DF93CDB7DEB7C758D5400FB6F894FE
:10405000DEBF0FBECDBFCE0109969C838B8388E760
:1040600095E09E838D8318861F8288E994E09A8369
:10407000898384EF95E09E012F5F3F4FCF57DA4F42
:1040800039832883C158D540CD57DA4F9983888327
:10409000C358D540CB57DA4F99838883C558D5404C
:1040A0008AE0C957DA4F8883C758D540CE018F5769
:1040B0009A4F44DE8C01FC0180819181892B39F477
:1040C00063E374E081E39AE00E94663BDEC068E44B
:1040D00074E081E39AE00E94663B6EE574E0C801FB
:1040E00099DF8093360560E674E0C801CEDEBC013E
:1040F00087E395E00E94C243B5E5CB2EB5E0DB2E09
:10410000E12CF12C62E674E0C801E6DEFC0182815C
:10411000938120E030E0009751F0E216F30609F4B5
:10412000B1C02F5F3F4FFC0180819181F4CF80E0CF
:10413000F60181936F01FFEFEF1AFF0A28E1E21603
:10414000F10401F7EDE8CE2EE5E0DE2EE12CF12CB6
:10415000F3E74F2EF4E05F2EA8E13A2E6BEA73E00E
:10416000C801BADEB701D8DC60E674E08EDEBC01BF
:10417000C60180970E94C24367E674E0C801ACDEC6
:10418000B701CADC64E674E045DFF601329780834C
:1041900067E674E0C801A0DEB701BEDC69E674E042
:1041A00039DFF6013197808367E674E0C80194DE59
:1041B000B701B2DC6EE674E02DDFF60180834601C4
:1041C000F2E08F0E911CA12CB12C6BEA73E0C801B8
:1041D00083DEB701A1DCCF57DA4F99838883C158BA
:1041E000D540CD57DA4F59824882C358D540CE01C9
:1041F0008F579A4F7FDE9401215031093901A8165B
:10420000B90608F567E674E0C80166DEB70184DC2C
:1042100064E874E061DEB5017FDC61E774E0FADE3A
:10422000F301808367E674E0C80156DEB70174DCF1
:1042300064E874E051DEB5016FDC6AE874E0EADE40
:10424000F401808304C0F9013082F4011082FFEF91
:10425000AF1ABF0A22E0820E911C36E0A316B10409
:1042600009F0B3CF8FEFE81AF80AEDE2CE0ED11CB9
:10427000F3E0EF16F10409F071CF0E9472080E947A
:10428000561103C0029678DE53CFC957DA4F0FB6E6
:10429000F894DEBF0FBECDBFDF91CF911F910F917C
:1042A000FF90EF90DF90CF90BF90AF909F908F9056
:1042B0007F906F905F904F903F9008950F931F9362
:1042C000CF93DF938CEF98E00E9449308EEE98E018
:1042D0000E94493024E044E167E282EE98E00E94C7
:1042E000372FC0E2D8E008E010E0198218821B8363
:1042F0000A831D821C8280E290E00E94FB3A99832F
:104300008883279688E0C533D80779F768E274E098
:104310008AE198E00E945B3C86E395E0DF91CF91D3
:104320001F910F910C9405090C94B70880914A09CC
:1043300090E020914B09821B9109089520914B092F
:1043400080914A09281750F4E22FF0E0E45BF64F21
:10435000808190E02F5F20934B0908958FEF9FEFAE
:104360000895E0914B0980914A09E81730F4F0E094
:10437000E45BF64F808190E008958FEF9FEF089502
:104380000895CF92DF92EF92FF920F931F93CF93F6
:10439000DF937C01CB018A0120912609222389F039
:1043A000EB016B01C40ED51ECC15DD0561F06991E2
:1043B000D701ED91FC910190F081E02DC701199595
:1043C000F3CF642F36D1C801DF91CF911F910F91A8
:1043D000FF90EF90DF90CF900895CF93DF931F92DF
:1043E000CDB7DEB76983209126092223D1F0209131
:1043F0002709203240F021E030E0FC0133832283A2
:1044000080E090E014C080912809E82FF0E0E75D9B
:10441000F64F998190838F5F8093280980932709B5
:1044200004C061E0CE01019604D181E090E00F90DC
:10443000DF91CF910895FC011382128248EE53E080
:1044400060E070E044835583668377838EE994E06F
:1044500091838083089510924B0910924A0910921B
:1044600028091092270930C0862F413208F040E217
:104470006CE479E047D010924B0980934A09089583
:1044800021E0F2CF81E080932609609349091092E0
:104490002809109227090895F5CF0F93062F21E0E0
:1044A0004091270969E279E0809149096FD0109223
:1044B000280910922709109226090F91089561E0AA
:1044C000ECCF8AE199E0B7CF1092D90981E08093CF
:1044D000D7091092D60961E084E10E94CD3761E0EE
:1044E00085E10E94CD37E9EBF0E080818E7F80830B
:1044F00080818D7F808388E48093B80085E48093F9
:10450000BC000895413208F03FC09091D909911143
:10451000FCCF91E09093D9092093D7092FEF2093F6
:104520006C091092B109240F2093B0099093D80917
:104530009091D809880F892B8093D8098091D6094A
:10454000813041F41092D6098091D8098093BB0044
:1045500085EC01C085EE8093BC008091D909813043
:10456000E1F38091B109841710F44091B10922EB75
:1045700039E0FB01D9018A2F821B841718F48D9131
:104580008193F9CF842F089580E008950F934132ED
:1045900008F046C09091D9099111FCCF92E0909318
:1045A000D9090093D7099FEF90936C091092B10934
:1045B0004093B009FB0162EB79E0DB019A2F961B77
:1045C000941718F491919D93F9CF1092D809909176
:1045D000D809880F892B8093D8098091D60981301A
:1045E00041F41092D6098091D8098093BB0085ECE4
:1045F00001C085EE8093BC00222321F08091D9096F
:104600008230E1F380916C098F3F61F080916C09F9
:10461000803251F080916C09803341F483E007C00F
:1046200081E005C080E003C082E001C084E00F911A
:104630000895613298F42091D909243089F4609367
:104640008E09FC0180E999E0DC012A2F281B26173E
:1046500018F421912D93F9CF80E0089581E0089519
:1046600082E0089585ED8093BC008091BC0084FDBC
:10467000FCCF1092D909089585EC8093BC0010926C
:10468000D90908951F920F920FB60F9211240BB6FD
:104690000F922F933F934F935F936F937F938F93DB
:1046A0009F93AF93BF93EF93FF938091B900887F5F
:1046B000803609F49CC068F5883209F45BC090F438
:1046C000803109F454C038F4882309F4F3C08830E9
:1046D00009F44DC0F2C0883109F44CC0803209F4AD
:1046E0005DC0EBC0803409F468C048F4803309F43D
:1046F00055C0883309F0E1C080936C09A7C08035AC
:1047000009F44FC0883509F45DC0883409F0D5C07C
:10471000D3C0883909F4C4C0A8F4883709F467C045
:1047200038F4883609F463C0803709F460C0C5C026
:10473000883809F4B5C0803909F45FC0803809F0C1
:10474000BCC05BC0803B09F483C038F4803A09F4F4
:1047500066C0883A09F47CC0B0C0803C09F4A4C0AB
:10476000883C09F4A1C0883B09F487C0A6C08091A9
:10477000D80910C09091B1098091B009981770F5CF
:10478000E091B10981E08E0F8093B109F0E0EE5421
:10479000F64F80818093BB0085EC83C080936C09C9
:1047A0008BC0E091B10981E08E0F8093B1098091B7
:1047B000BB00F0E0EE54F64F80839091B1098091F8
:1047C000B0096BC0E091B10981E08E0F8093B1090F
:1047D0008091BB00F0E0EE54F64F80838091D709C2
:1047E00081116AC081E08093D60984EA5EC083E0CB
:1047F0008093D90910926D09CFCF80916D098032D5
:1048000008F04EC0E0916D0981E08E0F80936D0934
:104810008091BB00F0E0E259F64F8083BDCF8091DC
:104820006D09803230F4E0916D09F0E0E259F64F05
:10483000108218DF60916D0970E0E091D209F0916B
:10484000D3098EE699E0199510926D0915DF35C0F0
:1048500084E08093D90910928F0910928E09E0911B
:10486000D409F091D509199580918E09811105C05F
:1048700081E080938E0910929009E0918F0981E088
:104880008E0F80938F09F0E0E057F64F8081809380
:10489000BB0090918F0980918E09981708F47CCF06
:1048A00085E88093BC0009C085EC8093BC00109221
:1048B000D90903C010926C09D5DEFF91EF91BF9129
:1048C000AF919F918F917F916F915F914F913F91A8
:1048D0002F910F900BBE0F900FBE0F901F90189549
:1048E000982F92959F708F702AE0929F800D1124CF
:1048F00008958AE199E0AFCD1F93CF93DF93EC0148
:1049000068E670E08AE199E0C7DD60E08AE199E05D
:1049100064DD8AE199E0D3DD882319F01092DA0989
:104920003CC081E08093DA0947E050E068E670E03F
:104930008AE199E0A5DD8AE199E0F8DC07976CF15E
:104940008AE199E0FBDC182F8F77CADF88838AE140
:1049500099E0F4DCC5DF89838AE199E0EFDC8F73AD
:10496000BFDF8A838AE199E0E9DCBADF8B838AE1E1
:1049700099E0E4DCB5DF8C838AE199E0DFDCB0DF2D
:104980008D838AE199E0DADCABDF825E8E83812F52
:104990008095881F8827881F01C080E0DF91CF9114
:1049A0001F910895089580E090E0089581E090E0DF
:1049B000089583E090E0089582E090E008951F93C9
:1049C000CF93DF93EC0180EC94E09983888310E02F
:1049D0002C818A819B81121790F4FC01E10FF11D5B
:1049E000E10FF11D80819181009739F0DC01ED919B
:1049F000FC910280F381E02D19951F5FE9CF0097AC
:104A000029F0DF91CF911F910C94FE3ADF91CF9165
:104A10001F910895CF93DF93EC0186EB94E0998387
:104A20008883CE010C960E94F43BCE010696DF915E
:104A3000CF910C94F43BCF93DF93EC0188EC94E09E
:104A4000998388838A899B89009739F0DC01ED91ED
:104A5000FC910280F381E02D1995CE01DF91CF9179
:104A6000D9CF26EE34E0FC0131832083D3CF2CED67
:104A700034E0FC0131832083CDCF22ED34E0FC0112
:104A800031832083C7CFCF93DF93EC01C3DFCE0107
:104A9000DF91CF910C94FD3ACF93DF93EC018FDF40
:104AA000CE01DF91CF910C94FD3ACF93DF93EC01CF
:104AB000C2DFCE01DF91CF910C94FD3ACF93DF930B
:104AC000EC01CFDFCE01DF91CF910C94FD3ACF9373
:104AD000DF93EC01CCDFCE01DF91CF910C94FD3A56
:104AE000CF93DF93EC01C9DFCE01DF91CF910C941E
:104AF000FD3AFF920F931F93CF93DF93EC01CB010D
:104B00008A017983688321E02C83FF24FA94FA8256
:104B1000FB820E944630888199810E94602F8881A3
:104B200099810E94473040E060E0888199810E942D
:104B3000B22FB801888199810E943D3B68EE73E0F5
:104B400080E090E00E94AD36888199810E94A82F74
:104B5000FD8EDF91CF911F910F91FF900895EF92FD
:104B6000FF920F931F93CF93DF93EC017B018F8113
:104B70008F5F8F8390E0880F991F0E94FC3A8C0111
:104B800060E0462F50E02F8130E0215031098D81C7
:104B90009E814217530774F4440F551FFC01E40F24
:104BA000F51F80819181F801E40FF51F91838083C7
:104BB0006F5FE7CF009711F00E94FE3A1E830D83CE
:104BC0008F81F801E80FF11DE80FF11D3297F18296
:104BD000E082DF91CF911F910F91FF90EF900895A8
:104BE000CF92DF92EF92FF920F931F93CF93DF93B9
:104BF000CDB7DEB72C970FB6F894DEBF0FBECDBF92
:104C00007C018B0168E274E0CE0107960E945B3C58
:104C1000F80180899189009711F4C28401C0C82EDF
:104C2000D12CDC14C1F0BE01695F7F4FCE0101962B
:104C30000E94853C60E073E0CE0101960E94C93D70
:104C4000BC01CE0107960E94703CCE0101960E94E5
:104C5000F43BD394E6CFF80145816481F70180816C
:104C600091810E94B22FBE01695F7F4FF701808161
:104C700091810E943D3BCE0107960E94F43B2C9609
:104C80000FB6F894DEBF0FBECDBFDF91CF911F915D
:104C90000F91FF90EF90DF90CF900895FF920F93C8
:104CA0001F93CF93DF93EC018D8D8F3F31F46AEA30
:104CB00074E0888199810E944B3BF12CEE8DFF8D31
:104CC0008481F81690F592818381E92FF82FEF0DFA
:104CD000F11DEF0DF11D00811181F8018381882301
:104CE00011F18281811104C0B801CE0179DF19C0B0
:104CF000F80120893189828593858217930718F4FA
:104D0000B801CE016DDFF801458164818881998108
:104D10000E94B22FB8016A5F7F4F888199810E94FB
:104D20003D3BF8011382F394C9CF4B816A8188819E
:104D30009981DF91CF911F910F91FF900C94B22F29
:104D4000DF92EF92FF920F931F93CF93DF93EC01CB
:104D50007F8F6E8F10E001E0EE8DFF8D848118173C
:104D6000C0F492818381E92FF82FE10FF11DE10F4B
:104D7000F11D80819181DC01ED91FC910480F58130
:104D8000E02D1995019719F0EE8DFF8D05831F5FBA
:104D9000E3CF8C8D8F3F31F024818881998121115F
:104DA0001AC01CC05F8180E090E040E0851780F46D
:104DB000AD81BE819C01220F331FA20FB31F2D9125
:104DC0003C912E173F0711F48D8F41E00196EECFF5
:104DD0004111E2CF60C02581211104C01C820E94D4
:104DE00048303EC021E02C830E94473044E6E42E48
:104DF00054E6D52EF12CEE8DFF8D8481F81670F5DA
:104E000092818381E92FF82FEF0DF11DEF0DF11D38
:104E100000811181D801ED91FC910480F581E02D94
:104E2000C80119950197C1F0F8014581242F30E0A0
:104E30008E2D992787FD90952817390731F4248105
:104E400030E08D2D992787FD90952817390724F498
:104E5000D8011496DC90E42EF394CDCFDA82EB8265
:104E6000AE8DBF8D80E021E014969C911497891738
:104E700090F412963C91129713969C911397E32FFE
:104E8000F92FE80FF11DE80FF11D0190F081E02DE1
:104E900023838F5FE9CFDF91CF911F910F91FF9017
:104EA000EF90DF900895CF93DF93EC018881998193
:104EB0000E94A82F6E8D7F8DCE01DF91CF9140CFC4
:104EC000CF92DF92FF920F931F93CF93DF931F92A6
:104ED0001F92CDB7DEB76C01DC0190968D919C914D
:104EE0009197892B09F06DC04FEF6FEFF12CD60130
:104EF0005E96ED91FC915F978481F81608F04DC0A5
:104F000092818381E92FF82FEF0DF11DEF0DF11D37
:104F100000811181D801ED91FC910480F581E02D93
:104F2000C80149836A83199549816A81019799F17A
:104F3000F8015581852F90E0D60113962C91139797
:104F4000332727FD3095821793076CF0821793075C
:104F500011F5E481F0E012962C91332727FD30956E
:104F6000E217F307C4F4242F332727FD30952817C1
:104F700039076CF08217930771F4F801248130E04F
:104F8000862F992787FD90958217930724F4D801DF
:104F900014966C91452FF394AACF6F3F91F012961F
:104FA0006C93129713964C9313978D919C910F903D
:104FB0000F90DF91CF911F910F91FF90DF90CF90D5
:104FC000D1C70F900F90DF91CF911F910F91FF905C
:104FD000DF90CF900895CF92DF92FF920F931F93AF
:104FE000CF93DF931F921F92CDB7DEB76C01DC0128
:104FF00090968D919C919197892B09F06DC04DE70A
:105000006DE7F12CD6015E96ED91FC915F9784815E
:10501000F81608F04DC092818381E92FF82FEF0D2B
:10502000F11DEF0DF11D00811181D801ED91FC9171
:105030000480F581E02DC80149836A83199549816F
:105040006A81019799F1F8015581852F90E0D60189
:1050500013962C911397332727FD3095281739077E
:105060006CF08217930711F5E481F0E012962C9111
:10507000332727FD30952E173F07C4F4242F3327FD
:1050800027FD3095821793076CF08217930771F410
:10509000F801248130E0862F992787FD9095281705
:1050A000390724F4D80114966C91452FF394AACFB4
:1050B0006D3791F012966C93129713964C93139749
:1050C0008D919C910F900F90DF91CF911F910F9137
:1050D000FF90DF90CF9046C70F900F90DF91CF9158
:1050E0001F910F91FF90DF90CF9008950F931F9322
:1050F000CF93DF93EC01EE8DFF8D84818823E1F166
:1051000085818823C9F180910D0A81110DC00E940B
:105110007E366093DF097093E0098093E1099093F4
:10512000E20981E080930D0A0E947E360091DF093A
:105130001091E0092091E1093091E209601B710BA7
:10514000820B930B653F714081059105A8F00E9489
:105150007E366093DF097093E0098093E1099093B4
:10516000E2092C8188819981211104C021E02C83DE
:105170008ED702C01C828CD788A199A1892B09F4F3
:105180003EC08091050A81110DC00E947E36609359
:10519000DB097093DC098093DD099093DE0981E0DF
:1051A0008093050A0E947E360091DB091091DC098C
:1051B0002091DD093091DE09601B710B820B930B8E
:1051C000693C710581059105D0F00E947E3660939F
:1051D000DB097093DC098093DD099093DE09E8A177
:1051E000F9A181E083839281911102C0828301C081
:1051F0001282CE01DF91CF911F910F914FCDDF91A0
:10520000CF911F910F910895EF92FF920F931F93EB
:10521000CF93DF93EC01E12CFF24F394EE8DFF8D0F
:105220008481E81608F069C092818381E92FF82F04
:10523000EE0DF11DEE0DF11D008111812A81332744
:1052400027FD3095D80114968C91149790E028177B
:10525000390709F050C02B81332727FD309515966B
:105260008C91159790E02817390709F044C0ED910B
:10527000FC910480F581E02DC801199582309105DB
:1052800011F18330910541F1892BA9F5888199812C
:105290005FD68C8D8F5F8C8FFE01B2E08B02E00DAC
:1052A000F11D11248E8D9F8D91878087F801628971
:1052B0007389CE0145DDCE01DF91CF911F910F9112
:1052C000FF90EF90EBCCD8015296ED91FC91539763
:1052D000309789F019950FC019A308A3F8018689A2
:1052E000811102C0F68A07C0168AF282F382CE01CB
:1052F000D5DC19A218A2E39491CFDF91CF911F9131
:105300000F91FF90EF900895CF93DF93EC0188A168
:1053100099A1892B79F5888199811AD68C8D8F3F37
:10532000C1F48D8D8F5F8D8F2F8130E0992787FDA0
:1053300090952817390709F41D8E8D8D880F990BCC
:10534000ED81FE81E80FF91F60817181CE01F8DCEB
:105350000DC0FE0192E08902E00DF11D112460856F
:105360007185CE01EDDC8C8D81508C8FCE01DF916B
:10537000CF9194CCDF91CF910895EF92FF920F934C
:105380001F93CF93DF93EC017B018C010A5F1F4FCA
:10539000B8010C960E94703CB701C8010E94703C95
:1053A00081E08B83DF91CF911F910F91FF90EF9060
:1053B0000895FC01648345830895FC0180EC94E02A
:1053C00091838083148215820895EF92FF920F9348
:1053D0001F93CF93DF93EC017B018C818F5F8C83D4
:1053E00090E0880F991F0E94FC3A8C0160E0462FE4
:1053F00050E02C8130E0215031098A819B81421795
:10540000530774F4440F551FFC01E40FF51F80810E
:105410009181F801E40FF51F918380836F5FE7CFDF
:10542000009711F00E94FE3A1B830A838C81F801D9
:10543000E80FF11DE80FF11D3297F182E082DF9154
:10544000CF911F910F91FF90EF900895AF92BF926F
:10545000CF92DF92EF92FF920F93CF93DF93CDB76E
:10546000DEB727970FB6F894DEBF0FBECDBF7C0125
:105470006B015A0186EB94E0F7019183808381E010
:105480008283138268E274E0C70106962F830E942C
:105490005B3C68E274E0C7010C960E945B3CB7017C
:1054A000C60193DFB501CE0101960E94853CBE0185
:1054B0006F5F7F4FC70161DFCE0101960E94F43B11
:1054C0002F81F7012483058327960FB6F894DEBF5A
:1054D0000FBECDBFDF91CF910F91FF90EF90DF9086
:1054E000CF90BF90AF900895CF92DF92EF92FF924E
:1054F0000F931F93CF93DF93EC018B014C8120E03E
:1055000030E0EE24EA94FE2C241780F4EA81FB813B
:10551000C901880F991FE80FF91F808191818017B9
:10552000910709F479012F5F3F4FEECF8FEFE81617
:10553000F80609F444C0442311F041504C838C8197
:1055400090E0880F991F0E94FC3A6C0170E060E0C7
:10555000272F30E04C8150E042175307ACF02E1556
:105560003F0581F0220F331FEA81FB81E20FF31F19
:1055700020813181F601E60FF11DE60FF11D318327
:1055800020836F5F7F5FE4CF8A819B81009711F05A
:105590000E94FE3ACA82DB820115110581F0D80112
:1055A000ED91FC910280F381E02DC801DF91CF9154
:1055B0001F910F91FF90EF90DF90CF901994DF91A2
:1055C000CF911F910F91FF90EF90DF90CF900895B2
:1055D000CF92DF92EF92FF920F93CF93DF93CDB7ED
:1055E000DEB727970FB6F894DEBF0FBECDBF7C01A4
:1055F0006B01BA01CE0101962F830E94853C2F8159
:10560000AE014F5F5F4FB601C70120DFCE010196AB
:105610000E94F43B88EC94E0D7018D939C9386E044
:1056200090E00E94FB3AFC0186E0DF011D928A9522
:10563000E9F71482158280E994E091838083D70191
:105640005396FC93EE93529727960FB6F894DEBFCD
:105650000FBECDBFDF91CF910F91FF90EF90DF9004
:10566000CF900895CF92DF92EF92FF920F93CF9356
:10567000DF93CDB7DEB727970FB6F894DEBF0FBE26
:10568000CDBF7C016B01BA01CE0101962F830E9430
:10569000853C2F81AE014F5F5F4FB601C701D6DE5B
:1056A000CE0101960E94F43B82ED94E0F7019183D4
:1056B000808327960FB6F894DEBF0FBECDBFDF9173
:1056C000CF910F91FF90EF90DF90CF900895FC0164
:1056D00074A363A30895FC0165A176A187A190A599
:1056E0000895BF92CF92DF92EF92FF920F931F9394
:1056F000CF93DF93CDB7DEB72C970FB6F894DEBF0C
:105700000FBECDBF8C016B0168E274E0CE0107963D
:105710000E945B3CF801238D348D458D568D678941
:10572000708D818D928D0E9481401816A4F17801B0
:10573000F6E0EF0EF11CB701C8010C960E94703C18
:10574000BE01695F7F4FCE0101960E94853CB60184
:10575000CE0101960E94B83DBC01C7010E94703C79
:10576000CE0101960E94F43B81E0F8018383CE01D3
:1057700007960E94F43B2C960FB6F894DEBF0FBE3E
:10578000CDBFDF91CF911F910F91FF90EF90DF90F0
:10579000CF90BF900895B12CF8016789708D818DED
:1057A000928D0E949E3F4AE0CE0101960E94CE3C1F
:1057B000ED80FE80F60184819581E81AF90ACE0118
:1057C00001960E94F43B8B2D90E08E159F0508F00A
:1057D000AECFBE01695F7F4FCE0101960E94853C2E
:1057E00060EA73E0CE0101960E94C93DBC01CE0182
:1057F00007960E94703CCE0101960E94F43BB39440
:10580000CBCF4F925F926F927F928F929F92AF9287
:10581000BF92CF92DF92EF920F93CF93DF93CDB7EA
:10582000DEB72B970FB6F894DEBF0FBECDBF6C016D
:105830003B0149015A01202F0E2D68E274E0CE0190
:1058400001962B870E945B3C2B85AE014F5F5F4F1B
:10585000B301C601FBDDCE0101960E94F43B8CED45
:1058600094E0F60191838083178A108E118E128E38
:10587000138E148E158E168EC501B4010E949E3FA4
:105880006F83788789879A872F813885B901882720
:1058900077FD8095982F0E94D13F9B01AC01C501F7
:1058A000B4010E94CD3E20E030E0A9010E94323FC9
:1058B000811105C080E090E0A0E8BFE31AC02AE0B3
:1058C00037ED43E25CE3C501B4010E94363F0E941C
:1058D0009E3FCB016AE070E00E94E840811105C064
:1058E0008DEC9CECACECBDE304C08AE097EDA3E248
:1058F000BCE3F601828B938BA48BB58BF60185A25A
:1059000096A2A7A2B0A64288538864887588C3016E
:10591000B2010E949E3F882777FD8095982F0E94B4
:10592000D13F9B01AC01C301B2010E94CD3E20E0FA
:1059300030E0A9010E94323F811108C04AE06F8126
:105940007885CE0101960E94CE3C07C022E0B501C9
:10595000A401CE0101960E94223DBE016F5F7F4FE0
:10596000C601BFDECE0101960E94F43BF601168A05
:1059700010A2178E12A211A214A213A22B960FB678
:10598000F894DEBF0FBECDBFDF91CF910F91EF90A6
:10599000DF90CF90BF90AF909F908F907F906F904F
:1059A0005F904F900895CF92DF92EF92FF920F9306
:1059B0001F93CF93DF9300D000D0CDB7DEB78C011B
:1059C000DC0195964D935D936D937C93989791969A
:1059D000ED91FC919297309721F04083518362833F
:1059E0007383F801E3A0F4A0E114F10449F065A188
:1059F00076A187A190A50E94A33FD7016D937C93C8
:105A0000D8015F96ED91FC919097309709F0199528
:105A1000F801C288D388E488F588C701B6010E94DE
:105A20009E3F882777FD8095982F0E94D13F9B014C
:105A3000AC01C701B6010E94CD3E20E030E0A901D3
:105A40000E94323F81110FC0D80195966D917D91D2
:105A50008D919C9198970E949E3F4AE0CE010196BD
:105A60000E94CE3C0AC0F80145A156A167A170A5CD
:105A700022E0CE0101960E94223DBE016F5F7F4F62
:105A8000C8012FDECE0101960E94F43B26960FB688
:105A9000F894DEBF0FBECDBFDF91CF911F910F9164
:105AA000FF90EF90DF90CF9008958F929F92AF92EA
:105AB000BF92CF92DF92EF92FF920F931F93CF93FB
:105AC000DF9300D000D0CDB7DEB78C01DC01529659
:105AD0002D913D914D915C91559795966D917D914C
