:1000000014C1000043C1000041C100003FC1000015
:100010003DC100003BC1000039C1000037C10000F4
:1000200035C1000033C1000031C100002FC1000004
:100030002DC100002BC1000029C1000027C1000014
:1000400025C1000023C1000021C100001FC1000024
:10005000DBC600001BC1000019C100008BC60000F8
:1000600015C10000B7C500008CC500000FC100001D
:100070000DC100000BC1000009C1000007C1000054
:1000800005C1000003C1000001C10000FFC0000065
:10009000FDC00000FBC00000F9C000000C9447093F
:1000A000F5C00000F3C00000F1C00000EFC0000088
:1000B000EDC00000EBC00000E9C00000E7C0000098
:1000C000E5C00000E3C00000E1C00000DFC00000A8
:1000D000DDC00000DBC00000D9C00000D7C00000B8
:1000E000D5C000003B063E062D06310637067506D4
:1000F000420646064C06500654065A065E0662063E
:10010000750668066C0670060000210024002700B2
:100110002A002D0030003300010100000401070116
:100120000A01000020002300260029002C002F00D7
:100130003200000100000301060109010000220055
:10014000250028002B002E003100340002010000A1
:10015000050108010B010505050507050808080844
:10016000020202020A0A080804040404010101014F
:10017000010101010303030303030303040707074A
:100180000C0C0C0C0C0C0C0C0202020206060606EF
:10019000060606060B0B0B0B0B0B0B0B01021020BC
:1001A00020080810204010204080020102010804AD
:1001B0000201010204081020408080402010080441
:1001C000020180040201804020100804020108049A
:1001D00002010102040810204080010204081020DE
:1001E000408000000A0B02090C0D0E0807030401F1
:1001F00000000000000000000000000000000000FF
:1002000000000000000000000000000000001211CB
:1002100010000000000000000000000000000000CE
:100220000000000000000000C61711241FBECFEF21
:10023000D1E2DEBFCDBF00E00CBF24E0A6EEB2E00D
:1002400001C01D92A13EB207E1F712E0A0E0B2E0CA
:10025000EEE1F7E300E00BBF02C007900D92A63E6F
:10026000B107D9F711E0C5E1D1E000E006C0219760
:100270000109802FFE010E946019C431D10780E07E
:100280000807A9F70E9416100C948D1BB9CEFC012B
:10029000918D828D981761F0828DDF01A80FB11DBD
:1002A0005D968C91928D9F5F9F73928F90E00895E1
:1002B0008FEF9FEF0895FC01918D828D981731F09B
:1002C000828DE80FF11D858D90E008958FEF9FEFEF
:1002D0000895FC01918D228D892F90E0805C9F4FC5
:1002E000821B91098F739927089588EF93E0F1DFBE
:1002F00021E0892B09F420E0822F0895FC01848DF0
:10030000DF01A80FB11DA35ABF4F2C91848D90E03F
:1003100001968F739927848FA689B7892C93A0891A
:10032000B1898C9180648C93938D848D981306C0D1
:100330000288F389E02D80818F7D80830895EF927C
:10034000FF920F931F93CF93DF93EC0181E0888F8F
:100350009B8D8C8D981305C0E889F989808185FD76
:1003600023C0F62E0B8D10E00F5F1F4F0F73112768
:10037000E02E8C8DE8120BC00FB607FCFACFE8898F
:10038000F989808185FFF5CFCE01B8DFF2CF8B8D63
:10039000FE01E80FF11DE35AFF4FF0820B8FEA894F
:1003A000FB898081806207C0EE89FF896083E889CC
:1003B000F98980818064808381E090E0DF91CF9132
:1003C0001F910F91FF90EF900895CF93DF93EC0171
:1003D000888D8823C1F0EA89FB89808185FD05C06D
:1003E000A889B9898C9186FD0EC00FB607FCF5CFA0
:1003F000808185FFF2CFA889B9898C9185FFEDCFE7
:10040000CE017CDFE8CFDF91CF91089580E090E0CE
:10041000892B19F06ADF811125C080E090E0892BDB
:1004200041F080E090E0892B21F00E9400008111D2
:100430001CC080E090E0892B41F080E090E0892BA7
:1004400021F00E940000811113C080E090E0892B10
:10045000A1F080E090E0892B81F00E9400008111E2
:100460000AC008950E940000D8CF0E940000E1CF8A
:100470000E940000EACF0C94000008953FB7F89462
:100480008091A2039091A303A091A403B091A5032E
:1004900026B5A89B05C02F3F19F00196A11DB11DDF
:1004A0003FBFBA2FA92F982F8827820F911DA11D1A
:1004B000B11DBC01CD0142E0660F771F881F991F57
:1004C0004A95D1F7089583E090E0089581E090E0A7
:1004D000089580E090E00895089585ED8093BC0034
:1004E0008091BC0084FDFCCF1092D503089540910B
:1004F0007803262F30E0240F311D21323105DCF442
:100500002091D5032430C9F4FC0180E090E08617E7
:1005100058F4309178032191DC01AA5ABC4FA30F03
:10052000B11D2C930196F3CF80917803680F6093EF
:10053000780380E0089581E0089582E008950895A9
:10054000E091C4048091C304E81730F4F0E0E65170
:10055000FD4F808190E008958FEF9FEF0895909177
:10056000C4048091C304981750F4E92FF0E0E651D9
:10057000FD4F208130E09F5F9093C40402C02FEFB5
:100580003FEFC90108958091C30490E02091C40415
:10059000821B91090895CF92DF92EF92FF920F9301
:1005A0001F93CF93DF937C01262F972F8A01809191
:1005B000D603882391F0C62FD72F6E01C40ED51E07
:1005C000CC15DD0569F06991D701ED91FC910190A1
:1005D000F081E02DC7011995F3CF642F822F87DFBB
:1005E000C801DF91CF911F910F91FF90EF90DF90A5
:1005F000CF900895CF93DF931F92CDB7DEB7698375
:100600002091D6032223D1F02091C104203240F062
:1006100021E030E0FC013383228380E090E014C0CD
:100620008091C204E82FF0E0E952FC4F9981908359
:100630008F5F8093C2048093C10404C061E0CE0147
:10064000019655DF81E090E00F90DF91CF91089502
:100650000E94791B28E232E0FC0131832083069658
:100660000C94C60E26E432E0FC0131832083F2CFE5
:10067000CF93DF93EC01F6DFCE01DF91CF910C94A5
:10068000FD192CE332E0FC0131832083E3CFCF93CB
:10069000DF93EC01F6DFCE01DF91CF910C94FD19D1
:1006A000CF93DF93EC0182E392E0998388838C857A
:1006B0009D85009739F0DC01ED91FC910280F3817A
:1006C000E02D1995CE01DF91CF91C4CFCF93DF9369
:1006D000EC01E6DFCE01DF91CF910C94FD19CF93B1
:1006E000DF93EC01B7DFCE01DF91CF910C94FD19C0
:1006F000CF93DF93EC0106960E94B10E81E08B83CD
:10070000DF91CF9108954F925F926F927F928F9277
:100710009F92AF92BF92CF92DF92EF92FF920F9390
:100720001F93CF93DF9300D000D0CDB7DEB76C011D
:100730005B013A01122F88E292E0F60191838083F7
:1007400081E0828313824601F6E08F0E911C6BE7F5
:1007500072E0C4010E94F40FF50144804394448286
:10076000512CC201880F991F0E9468197C0140E03A
:10077000F1E04F1A5108242F30E0F5018281938176
:100780002415350574F4220F331FFC01E20FF31F0B
:1007900080819181F701E20FF31F918380834F5F86
:1007A000EACF009711F00E94FD19F501F382E28271
:1007B00084819701280F311D280F311DF9013297CF
:1007C000D182C082B301CE0101960E94EC0FBE011E
:1007D0006F5F7F4FC4010E94B10E81E0F6018383F9
:1007E000CE0101960E94C60EF6011483058326965B
:1007F0000FB6F894DEBF0FBECDBFDF91CF911F9132
:100800000F91FF90EF90DF90CF90BF90AF909F90AF
:100810008F907F906F905F904F900895CF93DF936C
:10082000CDB7DEB7A4970FB6F894DEBF0FBECDBF2D
:100830004AE060910E03CE010D960E94890F4AE0B6
:1008400060910F03CE0107960E94890F60911003FB
:1008500070E06F3171051CF06E51710906C08EE1B8
:1008600090E09C01261B370BB9014AE0CE014F9660
:100870000E94520F67ED72E0CE0143960E94F40F82
:10088000BE016D5E7F4FCE0149960E94EC0FBE0106
:10089000615E7F4FCE0149960E94810EBC01CE0160
:1008A00001960E94EC0FCE0149960E94C60ECE0121
:1008B00043960E94C60ECE014F960E94C60E8989AD
:1008C0009A89019709F563E872E0CE0143960E9488
:1008D000F40FBE016D5E7F4FCE0149960E94EC0F72
:1008E000BE01635F7F4FCE0149960E94810EBC011D
:1008F000CE010D960E94B10ECE0149960E94C60E01
:10090000CE0143960E94C60E8B859C85019709F502
:1009100063E872E0CE0143960E94F40FBE016D5E63
:100920007F4FCE0149960E94EC0FBE01695F7F4F59
:10093000CE0149960E94810EBC01CE0107960E940D
:10094000B10ECE0149960E94C60ECE0143960E947A
:10095000C60EBE01635F7F4FCE0143960E94EC0F2F
:100960006AED72E0CE0143960E946A0EBE01695F95
:100970007F4F0E94810E6AED72E00E946A0EBE01F6
:100980006F5F7F4F0E94810EBC01CE0149960E948D
:10099000EC0FBE01675E7F4F8091E8029091E90203
:1009A000A7DECE0149960E94C60ECE0143960E9454
:1009B000C60ECE0101960E94C60ECE0107960E9479
:1009C000C60ECE010D960E94C60EA4960FB6F894E0
:1009D000DEBF0FBECDBFDF91CF910895CF93DF93E0
:1009E000CDB7DEB76E970FB6F894DEBF0FBECDBFA2
:1009F0004AE060910C03CE010D960E94890F4AE0F7
:100A000060910B03CE0107960E94890F4AE0609126
:100A10000A03CE0101960E94890F89899A8901975C
:100A200009F563E872E0CE0143960E94F40FBE011F
:100A30006D5E7F4FCE0149960E94EC0FBE01635F51
:100A40007F4FCE0149960E94810EBC01CE010D96CA
:100A50000E94B10ECE0149960E94C60ECE01439669
:100A60000E94C60E8B859C85019709F563E872E0AC
:100A7000CE0143960E94F40FBE016D5E7F4FCE0102
:100A800049960E94EC0FBE01695F7F4FCE014996E7
:100A90000E94810EBC01CE0107960E94B10ECE01CC
:100AA00049960E94C60ECE0143960E94C60E8D81C5
:100AB0009E81019709F563E872E0CE0143960E949A
:100AC000F40FBE016D5E7F4FCE0149960E94EC0F80
:100AD000BE016F5F7F4FCE0149960E94810EBC011F
:100AE000CE0101960E94B10ECE0149960E94C60E1B
:100AF000CE0143960E94C60EBE01635F7F4FCE01BA
:100B000043960E94EC0F6CED72E0CE0143960E947A
:100B10006A0EBE01695F7F4F0E94810E6CED72E02C
:100B20000E946A0EBE016F5F7F4F0E94810EBC0162
:100B3000CE0149960E94EC0FBE01675E7F4F809107
:100B4000E6029091E702D4DDCE0149960E94C60EDE
:100B5000CE0143960E94C60ECE0101960E94C60E9B
:100B6000CE0107960E94C60ECE010D960E94C60EBB
:100B70006E960FB6F894DEBF0FBECDBFDF91CF915A
:100B800008951F920F920FB60F9211240BB60F9279
:100B90002F933F934F935F936F937F938F939F9385
:100BA000AF93BF93EF93FF9388EF93E0A7DBFF91A1
:100BB000EF91BF91AF919F918F917F916F915F91D5
:100BC0004F913F912F910F900BBE0F900FBE0F9042
:100BD0001F9018951F920F920FB60F9211240BB60B
:100BE0000F922F938F939F93EF93FF93E0910804BD
:100BF000F09109048081E0910E04F0910F0482FDD0
:100C000012C09081809111048F5F8F732091120424
:100C1000821751F0E0911104F0E0E850FC4F958FFD
:100C20008093110401C08081FF91EF919F918F917A
:100C30002F910F900BBE0F900FBE0F901F90189525
:100C400090E0FC013197E231F10508F04EC08827B1
:100C5000EE58FF4F8F4F0C946019809180008F7772
:100C600003C0809180008F7D8093800008958091E3
:100C70008000877FF9CF84B58F7702C084B58F7DE0
:100C800084BD08958091B0008F7703C08091B0003B
:100C90008F7D8093B0000895809190008F7707C07A
:100CA000809190008F7D03C080919000877F80931A
:100CB000900008958091A0008F7707C08091A000D8
:100CC0008F7D03C08091A000877F8093A00008954E
:100CD000809120018F7707C0809120018F7D03C014
:100CE00080912001877F8093200108958F929F92A9
:100CF000AF92BF92CF92DF92EF92FF926B017C0195
:100D0000BDDB4B015C01C114D104E104F104E9F045
:100D1000B5DBDC01CB0188199909AA09BB09883E1A
:100D20009340A105B10578F321E0C21AD108E1088A
:100D3000F10888EE880E83E0981EA11CB11CC11436
:100D4000D104E104F10421F7DECFFF90EF90DF90B2
:100D5000CF90BF90AF909F908F9008952FB7F89449
:100D600060919E0370919F038091A0039091A103D5
:100D70002FBF08951F920F920FB60F9211242F9339
:100D80003F938F939F93AF93BF9380919E039091D6
:100D90009F03A091A003B091A10330919D0323E094
:100DA000230F2D3720F40196A11DB11D05C026E8A3
:100DB000230F0296A11DB11D20939D0380939E03D6
:100DC00090939F03A093A003B093A1038091A203EB
:100DD0009091A303A091A403B091A5030196A11D36
:100DE000B11D8093A2039093A303A093A403B09397
:100DF000A503BF91AF919F918F913F912F910F903C
:100E00000FBE0F901F9018951F920F920FB60F9262
:100E100011240BB60F922F933F934F935F936F93D1
:100E20007F938F939F93AF93BF93CF93DF93EF9372
:100E3000FF9386E09FEF90938500809384008091DC
:100E40009704882309F470C080919A0490919B04C0
:100E5000019690939B0480939A0420919C04309176
:100E60009D048217930708F45FC010929B041092B0
:100E70009A0480919E04E0919504F091960427E0F5
:100E8000829FE00DF11D11248681882321F00190BD
:100E9000F081E02D199560919704A0919C04B09188
:100EA0009D04E0919504F091960420E0CF0126176F
:100EB00049F0448155814A1B5B0B558344832F5F66
:100EC0003796F5CF20919E04FC0137E0239FE00D7B
:100ED000F11D1124228133813583248310929E04D5
:100EE000FC0121E030919E04261790F4EC0147E0CC
:100EF000349FC00DD11D1124A385B4854C815D8123
:100F0000A417B50710F420939E042F5F3796EACFFD
:100F1000FC0127E0329FE00DF11D112484819581B1
:100F200090939D0480939C04FF91EF91DF91CF916A
:100F3000BF91AF919F918F917F916F915F914F91F1
:100F40003F912F910F900BBE0F900FBE0F901F90EF
:100F50001895FC01248131E03093D6032093F703E8
:100F60001092C2041092C1048385682B85EC94E032
:100F700041DB81E0B3C30F931F93CF938C01C62F46
:100F8000E8DF6C2F6460C801E4DF6C2F6B7FC80161
:100F9000E0DF83EC90E00197F1F7CF911F910F9183
:100FA00008950F931F93CF938C01C62F607F6160CC
:100FB000E2DF80E1C89FB00111246160C801DBDF7E
:100FC00081E090E0CF911F910F9108950F931F93AF
:100FD000CF938C01C62F607FCEDF80E1C89FB00128
:100FE0001124C801CF911F910F91C5CFFC016681DB
:100FF000262F226026836A60E9CFCF93DF93CDB797
:10100000DEB728970FB6F894DEBF0FBECDBF9C01A8
:1010100088E0ECE1F2E0DE01119601900D928A95F4
:10102000E1F7F9018085841710F44FEF480FFE01B6
:101030003196E40FF11DE40FF11D9081690F606896
:10104000C90128960FB6F894DEBF0FBECDBFDF9161
:10105000CF91BCCF61E0BADF8BE39FE10197F1F75D
:1010600008956F927F928F929F92AF92BF92CF928C
:10107000DF92EF920F93CF93DF93CDB7DEB7279731
:101080000FB6F894DEBF0FBECDBF6C013B01490126
:101090005A01202F0E2D6BE772E0CE0101962F83AF
:1010A000A3D72F81AE014F5F5F4FB301C6012BDB8A
:1010B000CE0101966BD68CE392E0F601918380839A
:1010C00080E090E0A0E8BFE384879587A687B78794
:1010D000808A918AA28AB38AC501B4010E942F191D
:1010E0004AE0CE010196DED6BE016F5F7F4FC6019A
:1010F000069637D681E0F6018383CE01019646D667
:10110000F601148A27960FB6F894DEBF0FBECDBF46
:10111000DF91CF910F91EF90DF90CF90BF90AF9084
:101120009F908F907F906F900895CF92DF92EF9273
:10113000FF920F93CF93DF93CDB7DEB727970FB60C
:10114000F894DEBF0FBECDBF7C016B01BA01CE01AA
:1011500001962F8341D72F81AE014F5F5F4FB601BC
:10116000C701D1DACE01019611D686E492E0F701EB
:101170009183808327960FB6F894DEBF0FBECDBF54
:10118000DF91CF910F91FF90EF90DF90CF90089576
:10119000CF92DF92EF92FF920F93CF93DF93CDB771
:1011A000DEB727970FB6F894DEBF0FBECDBF7C0128
:1011B0006B01BA01CE0101962F830ED72F81AE01AC
:1011C0004F5F5F4FB601C7019EDACE010196DED5B3
:1011D00082E392E0D7018D939C9386E090E00E9499
:1011E0006819FC0186E0DF011D928A95E9F71482F7
:1011F000158288E192E091838083D7011D96FC934C
:10120000EE931C9727960FB6F894DEBF0FBECDBFA6
:10121000DF91CF910F91FF90EF90DF90CF900895E5
:101220000F931F93CF938C0180E192E0D8018D93AF
:101230009C93C0E0F80184810280F381E02DC817FF
:1012400088F4EC0FF11DEC0FF11D80819181009766
:1012500039F0DC01ED91FC910280F381E02D1995CC
:10126000CF5FE8CF309731F0CF01CF911F910F9131
:101270000C94FD19CF911F910F910895CF93DF9397
:10128000EC01CEDFCE01DF91CF910C94FD191F92BE
:101290000F920FB60F9211240BB60F922F933F931C
:1012A0004F935F936F937F938F939F93AF93BF936E
:1012B000EF93FF938091B900887F803609F49CC03A
:1012C00068F5883209F45BC090F4803109F454C0A9
:1012D00038F4882309F4F6C0883009F44DC0F5C00D
:1012E000883109F44CC0803209F45DC0EEC080340E
:1012F00009F468C048F4803309F455C0883309F014
:10130000E4C08093D303D8C0803509F44FC088353A
:1013100009F45DC0883409F0D8C0D6C0883909F412
:10132000C7C0A8F4883709F467C038F4883609F4D0
:1013300063C0803709F460C0C8C0883809F4B8C0F9
:10134000803909F45FC0803809F0BFC05BC0803BC2
:1013500009F486C038F4803A09F466C0883A09F482
:101360007FC0B3C0803C09F4A7C0883C09F4A4C086
:10137000883B09F48AC0A9C08091B00310C0909145
:10138000D2038091D103981770F5E091D20381E0E8
:101390008E0F8093D203F0E0EF54FC4F8081809356
:1013A000BB0085EC86C08093D3038EC0E091D2034E
:1013B00081E08E0F8093D2038091BB00F0E0EF5468
:1013C000FC4F80839091D2038091D1036EC0E09155
:1013D000D20381E08E0F8093D2038091BB00F0E0B6
:1013E000EF54FC4F80838091D40381116DC081E064
:1013F0008093AF0384EA61C083E08093D5031092A9
:101400009C03CFCF80919C03803208F051C0E091C3
:101410009C0381E08E0F80939C038091BB00F0E0E1
:10142000E458FC4F8083BDCF85EC8093BC001092C4
:10143000D50380919C03803230F4E0919C03F0E06E
:10144000E458FC4F108260919C0370E0E0917A03B5
:10145000F0917B038CE793E0199510929C0335C0C3
:1014600084E08093D5031092790310927803E09181
:101470007603F0917703199580917803811105C067
:1014800081E08093780310925603E091790381E024
:101490008E0F80937903F0E0EA5AFC4F80818093AD
:1014A000BB009091790380917803981708F479CF65
:1014B00085E88093BC0009C085EC8093BC00109245
:1014C000D50303C01092D30308D8FF91EF91BF91C9
:1014D000AF919F918F917F916F915F914F913F91CC
:1014E0002F910F900BBE0F900FBE0F901F9018956D
:1014F0001092D50381E08093D4031092AF0384E16E
:1015000055D285E153D2E9EBF0E080818E7F808374
:1015100080818D7F808388E48093B80085E4809308
:10152000BC00089528E132E0FC013183208378CEAD
:10153000CF93DF93EC01F6DFCE01DF91CF910C94D6
:10154000FD19CF93DF93EC0188819981009711F009
:101550000E94FD19198218821D821C821B821A8228
:10156000DF91CF9108950F931F93CF93DF93EC01F9
:1015700088819981009729F02A813B8126173707B6
:1015800088F48B016F5F7F4F0E94951A009761F07E
:10159000998388831B830A832C813D81232B11F43B
:1015A000FC01108281E001C080E0DF91CF911F91AA
:1015B0000F910895EF92FF920F931F93CF93DF93B4
:1015C000FC01248135816115710511F480E018C09A
:1015D00041155105A1F07B01EC018A01020F131F97
:1015E000B801C1DF882391F3288139818C819D81E5
:1015F000B701820F931F0E94861B1D830C8381E01D
:10160000DF91CF911F910F91FF90EF900895EF928E
:10161000FF920F931F93CF93DF938C0190919704C8
:1016200081E0890F80939704E82EF12C27E0829FB8
:10163000C00111240E946819EC01FC01A70181E09E
:10164000E114F10461F0118210821382128215827A
:1016500014828683379661E0E61AF108F1CF90E0B4
:101660004150510987E0292F30E0E0919504F09135
:1016700096042417350784F467E0969F900111249F
:10168000DE01A20FB31FE20FF31F282F01900D926E
:101690002A95E1F79F5FE7CF309719F0CF010E94BD
:1016A000FD19D0939604C09395048091970497E018
:1016B000899FC00DD11D112427971983088388EEB7
:1016C00093E09B838A831D821C8281E08E83DF915D
:1016D000CF911F910F91FF90EF900895382F209197
:1016E000C1049091F703213208F049C08091D503DD
:1016F0008111FCCF42E04093D5033093D4033FEFF8
:101700003093D3031092D2032093D103A7EDB3E01B
:1017100041EB53E0FA013E2F341B321718F43D9190
:101720003193F9CF1092B0032091B003990F922B0F
:101730009093B0039091AF03913061F41092AF0396
:101740009091B0039093BB009091BC0093FDF8CFB3
:1017500095EC01C095EE9093BC009091D50392302A
:10176000E1F39091D3039F3F79F08091D3038032CE
:1017700041F08091D303803331F084E005C081E0F3
:1017800003C082E001C083E01092C2041092C10441
:101790001092D6030895FF920F931F93CF93DF9378
:1017A0009093BE048093BD04C0E0D1E0E091BD04FD
:1017B000F091BE048481C817D0F492818381E92F0F
:1017C000F82FEC0FF11DEC0FF11D80819181DC01F0
:1017D000ED91FC910480F581E02D1995019729F098
:1017E000E091BD04F091BE04D583CF5FDFCF80913F
:1017F000BB048F3F41F0248180919F049091A0040D
:10180000211118C01AC02091A604A091A404B0917F
:10181000A50480E090E0821751F04D915D914E1744
:101820005F0719F48093BC0491E08F5FF4CF9111AE
:10183000E2CF6FC0258121110FC01092A304FC01DB
:1018400066816D7F66836860C1DBA091BD04B09145
:10185000BE0480E021E046C021E02093A304C6DB63
:10186000D4E684E6F82EC0E0E091BD04F091BE0419
:101870008481C81790F592818381E92FF82FEC0FAE
:10188000F11DEC0FF11D00811181D801ED91FC914A
:101890000480F581E02DC80119950197E1F0F80168
:1018A0002581422F50E08D2F0D2E000C990B4817EB
:1018B000590751F4848190E04F2D0F2C000C550BEB
:1018C0008417950724F007C04817590724F4D80156
:1018D0001496FC90D22FCF5FC7CFF092A104D09383
:1018E000A204B3CF14969C911497891790F4129682
:1018F0003C91129713969C911397E32FF92FE80FC1
:10190000F11DE80FF11D0190F081E02D23838F5F21
:10191000E9CFDF91CF911F910F91FF900895EF9242
:10192000FF920F931F93CF93DF937C010091A60446
:101930000F5F0093A60410E0C801880F991F0E9452
:101940006819EC018091A4049091A50440E0015035
:101950001109242F30E02017310774F4220F331FB0
:10196000FC01E20FF31F60817181FE01E20FF31FA2
:10197000718360834F5FEDCF009711F00E94FD19D6
:10198000D093A504C093A4048091A6049E01280FBF
:10199000311D280F311DF9013297F182E082DF916C
:1019A000CF911F910F91FF90EF900895CF93DF9308
:1019B000282F30E0F901EE51FE4F8491F901E456F1
:1019C000FE4FD491F901EA5AFE4FC491CC2381F025
:1019D000811136D9EC2FF0E0EE0FFF1FE45CFE4FD3
:1019E000A591B4918FB7F894EC91ED2BEC938FBF48
:1019F000DF91CF9108950F931F93CF93DF938C01C5
:101A000081ED94E09093A00480939F0481E0809303
:101A1000A3048FEF8093A1048093A2041092C404C6
:101A20001092C3041092C2041092C10461DD10929E
:101A3000D6048091DB04823018F098E09093D604AD
:101A40008093D90462E370E080E090E04FD9609128
:101A5000DC0481ED94E07DDA68EE73E080E090E0F4
:101A600045D960E381ED94E086DACBE4D6E4CE019B
:101A70000197F1F760E381ED94E07DDA2197F1F7CA
:101A800060E381ED94E077DA83E592E00197F1F786
:101A900060E281ED94E06FDA9091D604692F606284
:101AA00081ED94E093DA84E08093D7046CE081EDDB
:101AB00094E08CDA81ED94E0CDDA82E08093D80472
:101AC00066E081ED94E082DA62E081ED94E07EDA16
:101AD000EBE3FFE13197F1F7E0919F04F091A0046F
:101AE00088E0838760E0CF0134DA80919F04909191
:101AF000A0047CDA40E060E080919F049091A00413
:101B00007CDAB80180919F049091A00481D268EEA4
:101B100073E080E090E0EAD880919F049091A00467
:101B200099DA8FEF8093BC04DF91CF911F910F91D1
:101B300008958F929F92AF92BF92EF92FF920F9370
:101B40001F93CF93DF939091A6032091A703309129
:101B5000A80300E0091709F465C02D5F3F4FF901A4
:101B600033974081481711F00F5FF4CF282F30E0F2
:101B7000F901EE51FE4F8491F901E456FE4FD491E4
:101B8000F901EA5AFE4FC49110E0CC2371F08111A3
:101B900057D8EC2FF0E0EE0FFF1FEE5DFE4FA59142
:101BA000B491EC91ED2309F064C0D8D87801EE0C23
:101BB000FF1CEE0CFF1CE091AB03F091AC0398010D
:101BC000220F331FE20FF31FA091A903B091AA03C4
:101BD000AE0DBF1D8D909D90AD90BC909B01AC0152
:101BE000281939094A095B0949015A014081518183
:101BF00060E070E08091AD039091AE034815590507
:101C00006A057B0548F421E0DC01A00FB11F2C938D
:101C100024E630E031832083FC01E00FF11FC08116
:101C2000C11102C0C0E04AC099D82091A9033091E7
:101C3000AA03E20EF31EF70180809180A280B38098
:101C4000DC01CB0188199909AA09BB094497A105B0
:101C5000B10540F383D8F701608371838283938356
:101C60008091AD039091AE03FC01E00FF11F108253
:101C700025C0C801880F991F880F991FC091A9031B
:101C8000D091AA03C80FD91F69D8688379838A8342
:101C90009B83E091AD03F091AE03E00FF11F81E073
:101CA0008083000F111FE091AB03F091AC03E00FB4
:101CB000F11F88EE93E091838083B4CF8C2FDF9166
:101CC000CF911F910F91FF90EF90BF90AF909F9099
:101CD0008F900895CF93DF93EC016115710559F052
:101CE000FB0101900020E9F73197AF01461B570B2C
:101CF00061DC811102C0CE0124DCCE01DF91CF91E5
:101D00000895CF93DF93EC01FB01448155816081FD
:101D1000718150DC811102C0CE0113DCCE01DF9154
:101D2000CF910895EF92FF920F931F93CF93DF937C
:101D3000EC017B018A01BA0116DC811103C0CE01DE
:101D400000DC07C01D830C83B701888199810E9444
:101D5000861BCE01DF91CF911F910F91FF90EF90E5
:101D60000895CF93DF93EC01FB018617970751F09D
:101D7000608171816115710521F044815581D2DF47
:101D800001C0DFDBCE01DF91CF910895FC0180819E
:101D900091810C94FD19EF92FF920F931F93CF93B3
:101DA000DF9300D000D0CDB7DEB78091BC048F3F69
:101DB00079F480919F049091A004DC01ED91FC9155
:101DC0000280F381E02D47E050E06EED72E019955E
:101DD000F12CE091BD04F091BE048481F81608F066
:101DE0004BC092818381E92FF82FEF0DF11DEF0D8C
:101DF000F11D00811181F8018381882309F43AC023
:101E00004581648180919F049091A004F6D8D80107
:101E100012968C91811123C06BE772E0CE0101967E
:101E2000E3D0E12C8E2D90E0F80122853385281730
:101E3000390748F041E050E06AE772E0CE010196D0
:101E4000B9DBE394EFCFBE016F5F7F4F80919F04BA
:101E50009091A004DDD0CE01019698DF08C0B801B2
:101E60006A5F7F4F80919F049091A004D1D0D801E8
:101E700013961C92F394ADCF4091A2046091A104FB
:101E800080919F049091A004B8D826960FB6F8943C
:101E9000DEBF0FBECDBFDF91CF911F910F91FF909D
:101EA000EF900895EF92FF920F931F93CF93DF93DC
:101EB000CDB7DEB762970FB6F894DEBF0FBECDBFC9
:101EC0008C01CB01F80111821082138212821582DB
:101ED000148250E09E012F5F3F4F7901B9010E94AB
:101EE0003218F70101900020E9F73197AF014E1940
:101EF0005F09B701C80116DF62960FB6F894DEBF1E
:101F00000FBECDBFDF91CF911F910F91FF90EF904A
:101F10000895EF92FF920F931F93CF93DF93CDB766
:101F2000DEB729970FB6F894DEBF0FBECDBF8C0188
:101F3000862FF80111821082138212821582148278
:101F400050E09E012F5F3F4F7901B90190E00E9460
:101F50004618F70101900020E9F73197AF014E19BB
:101F60005F09B701C801DEDE29960FB6F894DEBF1F
:101F70000FBECDBFDF91CF911F910F91FF90EF90DA
:101F80000895CF92DF92EF92FF920F931F93CF931A
:101F9000DF936C017A018B01C0E0D0E0CE15DF0544
:101FA00089F0D8016D918D01D601ED91FC910190E0
:101FB000F081E02DC6011995892B11F47E0102C034
:101FC0002196ECCFC701DF91CF911F910F91FF9028
:101FD000EF90DF90CF900895FC0111821082138260
:101FE000128215821482BDCEFC01118210821382EE
:101FF0001282158214826115710549F0FB0101906E
:102000000020E9F73197AF01461B570B8BCE08959F
:10201000DC01ED91FC91DB0114964D915C911597DB
:102020006D917C910280F381E02D1994CF93DF9321
:10203000CDB7DEB728970FB6F894DEBF0FBECDBF81
:10204000789484B5826084BD84B5816084BD85B593
:10205000826085BD85B5816085BD80916E0081609F
:1020600080936E0010928100809181008260809345
:102070008100809181008160809381008091800047
:102080008160809380008091B10084608093B10072
:102090008091B00081608093B00080919100826057
:1020A0008093910080919100816080939100809154
:1020B00090008160809390008091A1008260809365
:1020C000A1008091A10081608093A1008091A00077
:1020D00081608093A0008091210182608093210122
:1020E0008091210181608093210180912001816094
:1020F0008093200180917A00846080937A0080919F
:102100007A00826080937A0080917A008160809367
:102110007A0080917A00806880937A001092C100E2
:10212000E0910804F091090482E08083E0910404C6
:10213000F09105041082E0910604F09107048FEC01
:10214000808310921004E0910C04F0910D0416E0CD
:102150001083E0910A04F0910B04808180618083F8
:10216000E0910A04F0910B04808188608083E09103
:102170000A04F0910B04808180688083E0910A0456
:10218000F0910B0480818F7D808386E090E00E9437
:1021900068197C01DC01E12F1D92EA95E9F7DC0169
:1021A00014961C92149715961C92159708E1C02E50
:1021B00002E0D02ECD92DC9290933C0380933B03BF
:1021C00064E772E0CE0101960FDF8CE090E00E94A0
:1021D00068195C0100E020E0AE014F5F5F4FB7017E
:1021E0000E949508B0923A03A0923903CE0101965D
:1021F000CDDD6BE772E0CE010196F6DE8CE090E07B
:102200000E9468195C0128E0AE014F5F5F4FB70183
:102210000E949508B092E902A092E802CE010196D0
:10222000B5DD6CE772E0CE010196DEDE8CE090E079
:102230000E9468195C0101E028E0AE014F5F5F4F2A
:10224000B7010E949508B092E702A092E602CE0183
:1022500001969CDD86E090E00E9468197C01FC01FB
:1022600011921A95E9F7DC0114961C9214971596B1
:102270001C921597CD92DC9290933803809337038C
:1022800065E872E0CE010196AFDE8CE090E00E943E
:1022900068196C0100E027E0AE014F5F5F4FB701A6
:1022A0000E949508D0923603C0923503CE01019664
:1022B0006DDD6EE872E0CE01019696DE8EE090E074
:1022C0000E9468196C0102E020E0AE014F5F5F4F91
:1022D000B7010E94C808D0923403C0923303CE01E4
:1022E000019654DD65E972E0CE0101967DDE8EE057
:1022F00090E0EED77C01F6016485758500E023E06F
:10230000AE014F5F5F4F0E94C808F0923203E09227
:102310003103CE0101963ADD64EA72E0CE01019606
:1023200063DE8CE090E0D4D77C01D6011C966D91E1
:102330007C911D9701E020E0AE014F5F5F4F0E944E
:102340009508F0923003E0922F03CE0101961EDD36
:1023500085E190E0BDD75C01F60164857585EE24CA
:10236000E3940AE020E030E044E052E40E943108C7
:10237000B0922E03A0922D036DEA72E0CE01019679
:1023800033DE8CE090E0A4D76C01E0903303F09052
:102390003403D7011C966D917C911D9702E020E0DB
:1023A000AE014F5F5F4F0E949508D0922C03C09200
:1023B0002B03CE010196EADC85E190E089D76C0120
:1023C000F7016485758582E0E82E0AE020E030E0C0
:1023D00040E752E4C6010E943108D0922A03C0921D
:1023E000290366EB72E0CE010196FEDD8EE090E0FF
:1023F0006FD77C01609137037091380302E027E0CA
:10240000AE014F5F5F4F0E94C808F0922803E09230
:102410002703CE010196BADC65E972E0CE01019690
:10242000E3DD8EE090E054D76C01D7011C966D91EE
:102430007C911D9700E023E0AE014F5F5F4F0E944B
:10244000C808D0922603C0922503CE0101969EDCD7
:1024500064EA72E0CE010196C7DD8CE090E038D7E7
:102460006C01F7016485758501E020E0AE014F5FE6
:102470005F4F0E949508D0922403C0922303CE019F
:10248000019684DC85E190E023D76C01D7011C968E
:102490006D917C911D97EE24E3940AE020E030E0FA
:1024A00044E052E40E943108D0922203C0922103FA
:1024B0006DEA72E0CE01019697DD8CE090E008D7DE
:1024C0006C01E0902703F0902803F701648575857F
:1024D00002E020E0AE014F5F5F4F0E949508D0926E
:1024E0002003C0921F03CE01019650DC85E190E0ED
:1024F000EFD66C01D7011C966D917C911D9792E0EF
:10250000E92E0AE020E030E040E752E4C6010E94F4
:102510003108D0921E03C0921D036DEB72E0CE0114
:10252000019662DD8EE090E0D3D67C0160913703A6
:102530007091380302E02EE0AE014F5F5F4F0E94C2
:10254000C808F0921C03E0921B03CE0101961EDC2A
:1025500065E972E0CE01019647DD8EE090E0B8D6E5
:102560006C01F7016485758500E023E0AE014F5FE3
:102570005F4F0E94C808D0921A03C0921903CE017F
:10258000019604DC64EA72E0CE0101962DDD8CE058
:1025900090E09ED66C01D7011C966D917C911D97A1
:1025A00001E020E0AE014F5F5F4F0E949508D0929E
:1025B0001803C0921703CE010196E8DB85E190E095
:1025C00087D66C01F70164857585EE24E3940AE0F3
:1025D00020E030E044E052E40E943108D09216033B
:1025E000C09215036DEA72E0CE010196FDDC8CE02D
:1025F00090E06ED66C01E0901B03F0901C03D701B5
:102600001C966D917C911D9702E020E0AE014F5F1A
:102610005F4F0E949508D0921403C0921303CE011D
:102620000196B4DB85E190E053D66C01F701648537
:10263000758522E0E22E0AE020E030E040E752E437
:102640000E943108D0921203C092110364EC72E030
:10265000CE010196C9DCCE010196CDD9CE010196FD
:1026600095DB00913B0310913C03C80158D9809140
:1026700037039091380353D9C8018DD88CDB8091F2
:10268000A7039091A803009709F0B7D68091AB03F8
:102690009091AC03009709F0B0D68091AD03909172
:1026A000AE03009709F0A9D68091A9039091AA03DF
:1026B000009709F0A2D686E08093A60382E190E01D
:1026C00007D6FC019C012E5E3F4F12821182339689
:1026D000E217F307D1F79093A8038093A7038CE048
:1026E00090E0F6D59093AC038093AB0386E090E046
:1026F000EFD59093AE038093AD0388E190E0E8D5E9
:102700009093AA038093A90370E048EE53E0A1E000
:102710008091A603781708F05FC0272F30E0F3E020
:102720007F9FC0011124F901E050FE4F6081E091CC
:10273000A703F091A803E80FF91F6083E091A703B6
:10274000F091A803E80FF91F808190E0FC01E456A6
:10275000FE4F6491FC01EA5AFE4F84918823D1F028
:1027600090E0880F991FFC01E85FFE4F05911491DE
:10277000FC01E45CFE4FE590F4909FB7F894F801FB
:10278000B081862F80958B238083F7018081682B11
:1027900060839FBFC901880F991FE091AB03F0913F
:1027A000AC03E80FF91F51834083E091AD03F09132
:1027B000AE03E20FF31FA083220F331F220F331F3C
:1027C000E091A903F091AA03E20FF31F1082118296
:1027D000128213827F5F9CCFF89410928000109237
:1027E000810010926F00809181008360809381004E
:1027F00086E09FEF909385008093840081E0809332
:102800006F008EEE94E00E94070B8EE094E00E9431
:10281000070B40E057E0242F30E08091970490E0D0
:102820000197281739070CF040C0B7E04B9F800193
:10283000112421E0809197042817A8F58091950430
:1028400090919604DC01A00FB11F12966D917C91BE
:102850001397F7E02F9F800D911D1124FC01E2805A
:10286000F380E616F706E8F4CD90DC901197149605
:10287000ED90FC90159716963C911697B52E019009
:102880000D92BA94E1F7DC011196DC92CE92139688
:102890007C936E9312971596FC92EE92149716966F
:1028A0003C932F5FC7CF4F5FB6CF789411E088E697
:1028B000782E0FEF96E0B92E2AEEC22E22E0D22E0D
:1028C00035EEA32E45EC942E1093D6037092F703A9
:1028D0001092C2041092C10460E085EC94E00E9462
:1028E000FA0281E00E946E0B882319F010923D03DA
:1028F000B1C010933D038091D5038111FCCF10939B
:10290000D5031093D4030093D3031092D203B09253
:10291000D1031093B0038091B003806D8093B00316
:102920008091AF03813069F41092AF038091B003BE
:102930008093BB008091BC0083FDF8CF9092BC00D7
:1029400002C0A092BC008091D5038130E1F3809158
:10295000D203873018F48091D20301C087E0A1EB45
:10296000B3E0EAEEF2E09E2F9C19981718F49D91BF
:102970009193F9CF1092C4048093C304873008F474
:1029800069C085EC94E00E94AF02982F96959695C9
:1029900096959E70292F220F220F920F8F70890F0C
:1029A00080930A0385EC94E00E94AF02982F9295E1
:1029B0009F708F70EAE09E9F800D112480930B031F
:1029C00085EC94E00E94AF02982F96959695969587
:1029D0009670292F220F220F920F8F70890F8093EC
:1029E0000C0385EC94E00E94AF02982F92959F70A3
:1029F0008F70FAE09F9F800D112480930D0385EC6A
:102A000094E00E94AF02982F92959F708F702AE0F9
:102A1000929F800D112480930E0385EC94E00E9418
:102A2000AF02982F92959F708F703AE0939F800D20
:102A3000112480930F0385EC94E00E94AF02982F3D
:102A40009F70925E82958F706AE0869F900D112430
:102A50009093100389E06DD8882309F469C08091B0
:102A6000BF049091C004892B09F062C04FEF6FEF53
:102A7000812CE091BD04F091BE048481881608F099
:102A80004BC092818381E92FF82FE80DF11DE80DED
:102A9000F11DE080F180D701ED91FC910480F5817A
:102AA000E02DC7014F83688719954F81688501978D
:102AB00089F1F7015581852F90E02091A204022E23
:102AC000000C330B821793076CF08217930711F5F4
:102AD000E481F0E02091A104022E000C330BE217F8
:102AE000F307C4F4242F042E000C330B28173907E6
:102AF00074F08217930771F4D70114968C9190E0CB
:102B0000262F062E000C330B281739071CF4F7016B
:102B10006481452F8394ADCF6F3F51F06093A10442
:102B20004093A20480919F049091A0040E94FD070D
:102B30008BE00E94990D882309F469C08091BF043D
:102B40009091C004892B09F062C04DE76DE7812C9C
:102B5000E091BD04F091BE048481881608F04BC05A
:102B600092818381E92FF82FE80DF11DE80DF11D09
:102B7000E080F180D701ED91FC910480F581E02D9A
:102B8000C7014F83688719954F816885019789F13F
:102B9000F7015581852F90E02091A204022E000CB0
:102BA000330B281739076CF08217930711F5E4816E
:102BB000F0E02091A104022E000C330B2E173F07EA
:102BC000C4F4242F042E000C330B8217930774F0E7
:102BD0008217930771F4D70114968C9190E0262FF9
:102BE000062E000C330B821793071CF4F701648147
:102BF000452F8394ADCF6D3751F06093A10440937E
:102C0000A20480919F049091A0040E94FD078CE093
:102C10000E94990D882371F1E090BF04F090C004E8
:102C2000E114F10439F1D7011C962D913D914D919C
:102C30005C911F9750966D917D918D919C915397CA
:102C4000AAD2F701608B718B828B938B08D34AE0F9
:102C5000CE01019627D9BE016F5F7F4FC70106964F
:102C600080D8D70113961C93CE0101968FD8F70117
:102C7000138391D88AE00E94990D882371F1E09026
:102C8000BF04F090C004E114F10439F1D7011C969F
:102C90002D913D914D915C911F9750966D917D9135
:102CA0008D919C91539776D2F701608B718B828BBB
:102CB000938BD5D24AE0CE010196F4D8BE016F5F66
:102CC0007F4FC70106964DD8D70113961C93CE01AE
:102CD00001965CD8F70113835ED887E00E94990DB6
:102CE0008823E9F18091BF049091C004892BB9F544
:102CF00080919F049091A0040E942A08E091BB0457
:102D0000EF3FF9F48091BC048F5F8093BC04209165
:102D1000A60430E0082E000C990B2817390711F48F
:102D20001092BC04E091BC04EE0FFF0B8091A40450
:102D30009091A504E80FF91F808191810E94CB0B2F
:102D40000DC0EE0FFF0BE955FB4F808191810E9472
:102D5000CB0B8091BB0481508093BB041CD888E0CE
:102D60000E94990D882309F476C0812CE091BD045E
:102D7000F091BE048481881608F06DC09281838131
:102D8000E92FF82FE80DF11DE80DF11DE080F1802D
:102D90002091A104022E000C330BD70114968C91C4
:102DA000149790E02817390709F053C02091A20426
:102DB000022E000C330B15968C91159790E0281776
:102DC000390709F046C0ED91FC910480F581E02DB2
:102DD000C70119958230910511F18330910531F1C8
:102DE000892BB9F580919F049091A0040E942A0834
:102DF000E091BB04EF5FE093BB04EE0FFF0BE955DE
:102E0000FB4F8091BD049091BE0491838083F701B4
:102E1000848595850E94CB0B0E94CB0E1CC0D701E8
:102E20001C96ED91FC911D97199513C0F092C0046A
:102E3000E092BF04F7018489811102C0148B09C09C
:102E4000148A128313830E94CB0E1092C004109236
:102E5000BF0483948BCFE091BD04F091BE048481C4
:102E6000882309F44CC08581882309F448C08091E7
:102E70004E0381110CC00E94AE0660934A0370930A
:102E80004B0380934C0390934D0310934E030E9489
:102E9000AE0620914A0330914B0340914C03509170
:102EA0004D03DC01CB01821B930BA40BB50B853FBB
:102EB0009140A105B10518F10E94AE0660934A0346
:102EC00070934B0380934C0390934D032091A30484
:102ED00080919F049091A004211105C01093A30438
:102EE0000E94F6070CC01092A304DC0116966C91A8
:102EF00016976D7F16966C9368600E94E607809126
:102F0000BF049091C004892BE1F1809142038111AB
:102F10000CC00E94AE0660933E0370933F03809303
:102F2000400390934103109342030E94AE06209108
:102F30003E0330913F034091400350914103DC0137
:102F4000CB01821B930BA40BB50B893C9105A1050A
:102F5000B105B8F00E94AE0660933E0370933F0344
:102F60008093400390934103E091BF04F091C0042B
:102F700013838281811102C0128301C012820E94D8
:102F8000CB0E0E94CB0E0E9406029ECCCF92DF9207
:102F9000EF92FF92E8EFF3E01382128288EEC82EE0
:102FA00083E0D82EE12CF12CC482D582E682F78210
:102FB00080E592E09183808385EC90E0958784871B
:102FC00084EC90E09787868780EC90E0918B808BF3
:102FD00081EC90E0938B828B82EC90E0958B848BDC
:102FE00086EC90E0978B868B118E128E138E148E4A
:102FF000E5E9F4E0128214821382168215821086AB
:1030000017821186EFE9F4E017828FEF848F858FA6
:103010001092C4041092C3041092C2041092C1040E
:103020000E94780AE5ECF4E013821282C482D58211
:10303000E682F78280E692E091838083E1EDF4E01E
:103040001382128280E792E09183808387E28483F7
:1030500080E1818784E082871386FF90EF90DF9084
:10306000CF9008954532510518F4423008F004C05D
:10307000FB011082CB010895BB274A3031F499231C
:1030800022F4BDE2909581959F4F0BC045325105CA
:1030900018F4423008F004C0FB011082CB010895FF
:1030A000BB27FB015527AA27880F991FAA1FA41722
:1030B00010F0A41B83955051B9F7A05DAA3308F016
:1030C000A95DA193009779F7B111B1931192CB014A
:1030D00000C0DC01FC01672F71917723E1F7329783
:1030E00004C07C916D9370836291AE17BF07C8F3E3
:1030F000089597F99F6780E870E060E008959FEF7A
:1031000080EC089500240A9416161706180609067E
:10311000089500240A94121613061406050608954D
:10312000092E0394000C11F4882352F0BB0F40F4D5
:10313000BF2B11F460FF04C06F5F7F4F8F4F9F4F15
:10314000089557FD9058440F551F59F05F3F71F097
:103150004795880F97FB991F61F09F3F79F08795FE
:103160000895121613061406551FF2CF4695F1DF87
:1031700008C0161617061806991FF1CF8695710517
:10318000610508940895E894BB2766277727CB014B
:1031900097F908955058BB27AA270ED0C1CFB2DFA8
:1031A00030F0B7DF20F031F49F3F11F41EF4A7CFC9
:1031B0000EF4E095E7FB9DCFE92FC3DF80F3BA174C
:1031C000620773078407950718F071F49EF5DBCF4B
:1031D0000EF4E0950B2EBA2FA02D0B01B901900132
:1031E0000C01CA01A0011124FF27591B99F0593F76
:1031F00050F4503E68F11A16F040A22F232F342FBE
:103200004427585FF3CF469537952795A795F0400B
:103210005395C9F77EF41F16BA0B620B730B840B20
:10322000BAF09150A1F0FF0FBB1F661F771F881FD8
:10323000C2F70EC0BA0F621F731F841F48F4879530
:1032400077956795B795F7959E3F08F0B3CF93951F
:10325000880F08F09927EE0F97958795089504D069
:103260006894B11191CF089574DF88F09F5790F062
:10327000B92F9927B751A0F0D1F0660F771F881F9B
:10328000991F1AF0BA95C9F712C0B13081F07BDFEF
:10329000B1E0089578CF672F782F8827B85F39F08D
:1032A000B93FCCF3869577956795B395D9F73EF4FA
:1032B00090958095709561957F4F8F4F9F4F0895A2
:1032C000EE0FFF1F881F8BBF0790F691E02D19941A
:1032D000CF93DF938230910510F482E090E0E0918B
:1032E000DF04F091E00420E030E0C0E0D0E030976F
:1032F00011F14081518148175907C0F0481759070B
:1033000061F482819381209719F09B838A832BC07B
:103310009093E0048093DF0426C02115310519F055
:103320004217530718F49A01BE01DF01EF01028032
:10333000F381E02DDCCF2115310509F1281B390B74
:103340002430310590F412968D919C91139761155C
:10335000710521F0FB019383828304C09093E00404
:103360008093DF04FD01329644C0FD01E20FF31F9C
:1033700081939193225031092D933C933AC020912F
:10338000DD043091DE04232B41F4209108023091BA
:1033900009023093DE042093DD042091060230916F
:1033A00007022115310541F42DB73EB740910A02BD
:1033B00050910B02241B350BE091DD04F091DE04EB
:1033C000E217F307A0F42E1B3F0B2817390778F0FC
:1033D000AC014E5F5F4F2417350748F04E0F5F1F5B
:1033E0005093DE044093DD048193919302C0E0E0AA
:1033F000F0E0CF01DF91CF9108950F931F93CF930A
:10340000DF93009709F48CC0FC013297138212827B
:103410000091DF041091E0040115110581F4208171
:103420003181820F931F2091DD043091DE04281733
:10343000390779F5F093DE04E093DD0471C0D8011B
:1034400040E050E0AE17BF0750F412962D913C912A
:103450001397AD012115310509F1D901F3CF9D0174
:10346000DA013383228360817181860F971F82176F
:10347000930769F4EC0128813981260F371F2E5FED
:103480003F4F318320838A819B8193838283452BA5
:1034900029F4F093E004E093DF0442C01396FC9318
:1034A000EE931297ED01499159919E01240F351F1A
:1034B000E217F30771F480819181840F951F0296C2
:1034C00011969C938E938281938113969C938E93F5
:1034D0001297E0E0F0E0D80112968D919C9113973D
:1034E000009719F0F8018C01F6CF8D919C9198010D
:1034F0002E5F3F4F820F931F2091DD043091DE0439
:103500002817390769F4309729F41092E0041092D3
:10351000DF0402C0138212821093DE040093DD04E4
:10352000DF91CF911F910F9108956F927F928F92AB
:103530009F92AF92BF92CF92DF92EF92FF920F9342
:103540001F93CF93DF93EC01009781F4CB01DF91C0
:10355000CF911F910F91FF90EF90DF90CF90BF9090
:10356000AF909F908F907F906F90B2CEFC01E60F4E
:10357000F71F9C0122503109E217F30708F4A8C095
:10358000D9010D911C91119706171707A8F0053066
:10359000110508F49BC0C80104978617970708F423
:1035A00095C002501109061B170B019311936D93DF
:1035B0007C93CF0122DF8AC05B01A01AB10A4C01C3
:1035C000800E911EA091DF04B091E00440E050E035
:1035D000E12CF12C109709F44AC0A815B905D1F5D2
:1035E0006D907C901197630182E0C80ED11CCA14C3
:1035F000DB0480F1A3014A195B096A0182E0C80E6D
:10360000D11C1296BC9012971396AC91B5E0CB16D4
:10361000D10440F0B282A38351834083D9016D93DA
:103620007C930AC00E5F1F4FC301800F911FF901E9
:1036300091838083EB2DFA2FE114F10431F0D7014F
:103640001396FC93EE93129741C0F093E004E0933D
:10365000DF043CC08D919C9111974817590708F4DD
:10366000AC017D0112960D90BC91A02DB3CF80913D
:10367000DD049091DE0488159905E1F4461757079B
:10368000C8F48091060290910702009741F48DB72B
:103690009EB740910A0250910B02841B950BE817CC
:1036A000F907B0F4F093DE04E093DD04F9017183CF
:1036B00060830CC0CB010CDE7C01009749F0A801AF
:1036C000BE011BD0CE0199DEC70104C0CE0102C0ED
:1036D00080E090E0DF91CF911F910F91FF90EF90EC
:1036E000DF90CF90BF90AF909F908F907F906F9022
:1036F000089581E090E0F89410C0FB01DC0102C065
:1037000001900D9241505040D8F70895FB01DC0123
:0E37100001900D920020E1F70895F894FFCF8C
:10371E0007090B0C0A080000E104800000000000FD
:10372E0010093E0900000000920A980A00004000AD
:10373E0014005400000000002A036F036C02000006
:10374E0000005003660369020000000041034703B6
:10375E00630200000000320338036602000000001E
:10376E009F01C10F690147015B01E50100000000E7
:10377E00FA02CB02C302AF02A0029F0200000000B9
:10378E00D107C10F546F6461793A200030373A3354
:10379E00333A313000536561736F6E2031005472CD
:1037AE00656520310054696D6520666F7220776102
:1037BE00746572004D61782074656D70004D61788E
:1037CE002068756D6900547265652032005472650B
:1037DE00652033004661726D426F7420436F6E74C4
:1037EE00726F6C6C6572003230002F003A004E6FB3
:0637FE00206D656E7500F0
:00000001FF
