:10000000B6C10000E5C10000E3C10000E1C100008D
:10001000DFC10000DDC10000DBC10000D9C100006C
:10002000D7C10000D5C10000D3C10000D1C100007C
:10003000CFC10000CDC10000CBC100000C94F82F4F
:10004000C7C10000C5C10000C3C10000C1C100009C
:10005000BFC10000BDC10000BBC100000C94353021
:10006000B7C100000C9498330C94CE33B1C100009A
:10007000AFC10000ADC10000ABC10000A9C10000CC
:10008000A7C10000A5C10000A3C10000A1C10000DC
:100090000C9443340C9479349BC100000C94431DA0
:1000A00097C1000095C1000093C1000091C10000FC
:1000B0008FC100008DC100008BC1000089C100000C
:1000C00087C1000085C1000083C1000081C100001C
:1000D0007FC100007DC100007BC1000079C100002C
:1000E00077C1000059315C314B314F31553193317B
:1000F000603164316A316E31723178317C318031F6
:10010000933186318A318E3100000A0B02090C0DC1
:100110000E080703040100000000000000000000BA
:1001200000000000000000000000000000000000CF
:10013000000000001211100000000000000000008C
:1001400000000000000000000000000000000102AC
:1001500010202008081020401020408002010201D9
:100160000804020101020408102040808040201091
:1001700008040201800402018040201008040201EA
:100180000804020101020408102040800102040852
:10019000102040800505050507050808080802022B
:1001A00002020A0A08080404040401010101010111
:1001B00001010303030303030303040707070C0CF4
:1001C0000C0C0C0C0C0C02020202060606060606BB
:1001D00006060B0B0B0B0B0B0B0B00002000230078
:1001E000260029002C002F0032000001000003012E
:1001F0000601090100002200250028002B002E0026
:100200003100340002010000050108010B0100006B
:100210002100240027002A002D00300033000101B6
:100220000000040107010A014E414E494E4954594C
:10023000494E46CDCCCC3D0AD7233C17B7D13877B1
:10024000CC2B329595E6241FB14F0A0000204100C7
:1002500000C84200401C4620BCBE4CCA1B0E5AAE11
:10026000C59D7400407A10F35A00A0724E18090020
:1002700010A5D4E80000E87648170000E40B54020B
:100280000000CA9A3B000000E1F505000080969846
:1002900000000040420F000000A086010000001096
:1002A0002700000000E803000000006400000000D8
:1002B000000A00000000000100000000002C76D8B9
:1002C00088DC674F0823DFC1DFAE59E1B1B796E59F
:1002D000E3E453C63AE651997696E8E6C28426EB03
:1002E000898C9B62ED407C6FFCEFBC9C9F40F2BA16
:1002F000A56FA5F490055A2AF75C936B6CF9676DAE
:10030000C11BFCE0E40D47FEF520E6B500D0ED9002
:100310002E0300943577050080841E080000204ECF
:100320000A000000C80C333333330F986E12831168
:1003300041EF8D2114893BE65516CFFEE6DB18D13F
:10034000844B381BF77C1D901DA4BBE42420328411
:10035000725E228100C9F124ECA1E53D27005F1BFC
:10036000621C7A1E302924300034AB34951B1124D2
:100370001FBECFEFD1E2DEBFCDBF00E00CBF15E066
:10038000A0E0B2E0E8E8F3E800E00BBF02C00790AD
:100390000D92A232B107D9F72CE0A2E2B5E001C07C
:1003A0001D92A934B207E1F713E0CCE6D3E000E0F8
:1003B00006C022970109FE010BBF0E94083BCE3503
:1003C000D10780E00807A9F70E94EF340C94B341ED
:1003D00017CEFC0126813781620F731F84819581BE
:1003E0008617970738F08281938177836683820F1F
:1003F000931F089580E090E00895CF93DF93C0911C
:100400008909D0918A0980919309909194090E9459
:100410006C256A8B7B8B8C8B9D8BC0918709D091CF
:10042000880980919309909194090E946C256A8BA8
:100430007B8B8C8B9D8BC0918509D0918609809197
:100440009309909194090E946C256A8B7B8B8C8B0D
:100450009D8BDF91CF910895CF93DF93CDB7DEB71A
:100460006E970FB6F894DEBF0FBECDBF4AE0609125
:10047000B509CE0149960E94A3364AE06091B409BD
:10048000CE0143960E94A3364AE06091B309CE01A3
:100490000D960E94A3368D8D9E8D019709F560EA19
:1004A00073E0CE0107960E945B36BE01695F7F4F05
:1004B000CE0101960E948536BE01675E7F4FCE0158
:1004C00001960E948E37BC01CE0149960E9470367B
:1004D000CE0101960E94F435CE0107960E94F435B4
:1004E0008F89988D019709F560EA73E0CE01079630
:1004F0000E945B36BE01695F7F4FCE0101960E946C
:100500008536BE016D5E7F4FCE0101960E948E370B
:10051000BC01CE0143960E947036CE0101960E9426
:10052000F435CE0107960E94F43589899A8901979E
:1005300009F560EA73E0CE0107960E945B36BE01C2
:10054000695F7F4FCE0101960E948536BE01635FD1
:100550007F4FCE0101960E948E37BC01CE010D96D1
:100560000E947036CE0101960E94F435CE010796A6
:100570000E94F435BE01675E7F4FCE0107960E9450
:10058000853666E073E0CE0107960E949F37BE0174
:100590006D5E7F4F0E948E3766E073E00E949F374A
:1005A000BE01635F7F4F0E948E37BC01CE01019672
:1005B0000E948536BE016F5F7F4F8091AB0990919D
:1005C000AC090E94BE23CE0101960E94F435CE01F3
:1005D00007960E94F435CE010D960E94F435CE01A7
:1005E00043960E94F435CE0149960E94F4356E96EA
:1005F0000FB6F894DEBF0FBECDBFDF91CF91089547
:10060000CF93DF93CDB7DEB7A4970FB6F894DEBFD4
:100610000FBECDBF4AE06091B709CE014F960E9450
:10062000A3364AE06091B809CE0149960E94A336EC
:100630006091B90970E06E51710977FF03C071953F
:10064000619571094AE0CE0107960E94CE3664E1B9
:1006500072E0CE010D960E945B36BE01635F7F4F54
:10066000CE0101960E948536BE01695F7F4FCE01A3
:1006700001960E948E37BC01CE0143960E948536BA
:10068000CE0101960E94F435CE010D960E94F435FC
:10069000CE0107960E94F4358BA19CA1019709F524
:1006A00060EA73E0CE0107960E945B36BE01695F87
:1006B0007F4FCE0101960E948536BE01615E7F4F5D
:1006C000CE0101960E948E37BC01CE014F960E944A
:1006D0007036CE0101960E94F435CE0107960E9435
:1006E000F4358D8D9E8D019709F560EA73E0CE019A
:1006F00007960E945B36BE01695F7F4FCE0101966F
:100700000E948536BE01675E7F4FCE0101960E9432
:100710008E37BC01CE0149960E947036CE010196FB
:100720000E94F435CE0107960E94F435BE01615E49
:100730007F4FCE0107960E94853667E172E0CE01B9
:1007400007960E949F37BE01675E7F4F0E948E37DB
:1007500067E172E00E949F37BE016D5E7F4F0E948D
:100760008E37BC01CE0101960E948536BE016F5FB7
:100770007F4F8091AD099091AE090E94BE23CE01BA
:1007800001960E94F435CE0107960E94F435CE0101
:1007900043960E94F435CE0149960E94F435CE016D
:1007A0004F960E94F435A4960FB6F894DEBF0FBEA4
:1007B000CDBFDF91CF91089569E172E089E09BE0C0
:1007C0000C94663568EE75E089E09BE00C94663524
:1007D00064E272E086EA9BE00E9466356AE272E0BB
:1007E00086EA9BE00E94663540E050E0BA018091C5
:1007F000890990918A090E94D42640E050E0BA010C
:1008000080918709909188090E94D42640E050E0A9
:10081000BA0180918509909186090C94D42662E3EF
:1008200072E086EA9BE00E94663540E050E0BA0143
:100830008091890990918A090C94D42668E372E02A
:1008400086EA9BE00E94663540E050E0BA01809164
:100850008709909188090C94D42664E272E086EAB4
:100860009BE00E94663540E050E0BA018091850926
:10087000909186090C94D426CF93DF93CDB7DEB741
:1008800068970FB6F894DEBF0FBECDBF809189097F
:1008900090918A090E946C250E946A394AE0CE0133
:1008A00001960E94CE366FE074E0CE010D960E9454
:1008B0005B36BE01635F7F4FCE0107960E9485368F
:1008C0006EE372E0CE0107960E949F37BE016F5F14
:1008D0007F4F0E948E37BC01CE0143960E94853621
:1008E000CE0107960E94F435CE010D960E94F43594
:1008F000CE0101960E94F435BE016D5E7F4F86EAFF
:100900009BE00E945635CE0143960E94F4356896CE
:100910000FB6F894DEBF0FBECDBFDF91CF91089523
:10092000CF93DF93CDB7DEB768970FB6F894DEBFED
:100930000FBECDBF80918709909188090E946C25D8
:100940000E946A394AE0CE0101960E94CE366FE0DD
:1009500074E0CE010D960E945B36BE01635F7F4F4F
:10096000CE0107960E94853664E472E0CE010796B8
:100970000E949F37BE016F5F7F4F0E948E37BC0180
:10098000CE0143960E948536CE0107960E94F4352B
:10099000CE010D960E94F435CE0101960E94F435E9
:1009A000BE016D5E7F4F86EA9BE00E945635CE0108
:1009B00043960E94F43568960FB6F894DEBF0FBEDA
:1009C000CDBFDF91CF910895CF93DF93CDB7DEB741
:1009D00068970FB6F894DEBF0FBECDBF8091850932
:1009E000909186090E946C250E946A394AE0CE01E6
:1009F00001960E94CE366FE074E0CE010D960E9403
:100A00005B36BE01635F7F4FCE0107960E9485363D
:100A10006AE472E0CE0107960E949F37BE016F5FC5
:100A20007F4F0E948E37BC01CE0143960E948536CF
:100A3000CE0107960E94F435CE010D960E94F43542
:100A4000CE0101960E94F435BE016D5E7F4F86EAAD
:100A50009BE00E945635CE0143960E94F43568967D
:100A60000FB6F894DEBF0FBECDBFDF91CF910895D2
:100A7000CF93DF93CDB7DEB768970FB6F894DEBF9C
:100A80000FBECDBF80918109909182090E946C2593
:100A90000E946A3948EE53E0469F9001479F300D0F
:100AA000569F300D11244AE0B901CE0101960E94F3
:100AB000CE366FE074E0CE010D960E945B36BE012B
:100AC000635F7F4FCE0107960E94853660E572E036
:100AD000CE0107960E949F37BE016F5F7F4F0E9435
:100AE0008E37BC01CE0143960E948536CE01079613
:100AF0000E94F435CE010D960E94F435CE01019688
:100B00000E94F435BE016D5E7F4F86EA9BE00E9435
:100B10005635CE0143960E94F43568960FB6F89488
:100B2000DEBF0FBECDBFDF91CF9108950F931F930E
:100B3000CF93DF93CDB7DEB762970FB6F894DEBFE1
:100B40000FBECDBF80917D0990917E0960EA73E070
:100B500006960E940438882319F069EA73E002C0FF
:100B600060EA73E0CE0101960E945B36BE016F5FC2
:100B70007F4F80917D0990917E090E94BE23CE0116
:100B800001960E94F43500917D0910917E090A5F5B
:100B90001F4F6FE074E0CE0107960E945B36BE01E6
:100BA000695F7F4FCE0101960E94853666E572E04F
:100BB000CE0101960E949F37B8010E948E37BC017A
:100BC000CE010D960E948536CE0101960E94F43525
:100BD000CE0107960E94F435BE01635F7F4F86EA1F
:100BE0009BE00E945635CE010D960E94F435629628
:100BF0000FB6F894DEBF0FBECDBFDF91CF911F912E
:100C00000F9108950F931F93CF93DF93CDB7DEB766
:100C100062970FB6F894DEBF0FBECDBF8091750905
:100C20009091760960EA73E006960E940438882362
:100C300019F069EA73E002C060EA73E0CE01019640
:100C40000E945B36BE016F5F7F4F80917509909166
:100C500076090E94BE23CE0101960E94F4350091D0
:100C60007509109176090A5F1F4F6FE074E0CE019D
:100C700007960E945B36BE01695F7F4FCE010196E9
:100C80000E9485366CE572E0CE0101960E949F3786
:100C9000B8010E948E37BC01CE010D960E948536A8
:100CA000CE0101960E94F435CE0107960E94F435DC
:100CB000BE01635F7F4F86EA9BE00E945635CE01FE
:100CC0000D960E94F43562960FB6F894DEBF0FBE03
:100CD000CDBFDF91CF911F910F9108950F931F9377
:100CE000CF93DF93CDB7DEB762970FB6F894DEBF30
:100CF0000FBECDBF8091790990917A0960EA73E0C7
:100D000006960E940438882319F069EA73E002C04D
:100D100060EA73E0CE0101960E945B36BE016F5F10
:100D20007F4F8091790990917A090E94BE23CE016C
:100D300001960E94F4350091790910917A090A5FB1
:100D40001F4F6FE074E0CE0107960E945B36BE0134
:100D5000695F7F4FCE0101960E94853662E672E0A0
:100D6000CE0101960E949F37B8010E948E37BC01C8
:100D7000CE010D960E948536CE0101960E94F43573
:100D8000CE0107960E94F435BE01635F7F4F86EA6D
:100D90009BE00E945635CE010D960E94F435629676
:100DA0000FB6F894DEBF0FBECDBFDF91CF911F917C
:100DB0000F9108950F931F93CF93DF93CDB7DEB7B5
:100DC00062970FB6F894DEBF0FBECDBF8091710958
:100DD0009091720960EA73E006960E9404388823B5
:100DE00019F068E672E002C060EA73E0CE01019695
:100DF0000E945B36BE016F5F7F4F809171099091B9
:100E000072090E94BE23CE0101960E94F435009122
:100E10007109109172090A5F1F4F6FE074E0CE01F3
:100E200007960E945B36BE01695F7F4FCE01019637
:100E30000E9485366BE672E0CE0101960E949F37D4
:100E4000B8010E948E37BC01CE010D960E948536F6
:100E5000CE0101960E94F435CE0107960E94F4352A
:100E6000BE01635F7F4F86EA9BE00E945635CE014C
:100E70000D960E94F43562960FB6F894DEBF0FBE51
:100E8000CDBFDF91CF911F910F9108956F927F9207
:100E90008F929F92AF92BF92CF92DF92EF92FF928A
:100EA0000F931F93CF93DF93CDB7DEB762970FB643
:100EB000F894DEBF0FBECDBF61E772E089E09BE032
:100EC0000E944B358AE2C82E85E0D82E00E010E063
:100ED0009DE2792E60E872E089E09BE00E944B354C
:100EE00062E872E089E09BE00E944B35E12CF12C36
:100EF000612C5601AE0CBF1C450188E5880E911C83
:100F0000F4018081883109F0F7C067E972E089E077
:100F10009BE00E944B3562EA72E0CE0101960E948E
:100F20005B3662EA72E0CE010D960E945B36BE012E
:100F3000635F7F4FCE0107960E948536B601695CDC
:100F40007F4FCE0107960E949F37BE016F5F7F4F94
:100F50000E948E37BC0189E09BE00E943D35CE01A6
:100F600007960E94F435CE010D960E94F435CE010D
:100F700001960E94F43564EA72E089E09BE00E94E9
:100F80004B3562EA72E0CE0101960E945B36709E9C
:100F90007001719EF00C1124C701865D9A4F7C018F
:100FA000FC01EB5AFF4FB08062EA72E0CE010D9671
:100FB0000E945B36BE01635F7F4FCE0107960E94A1
:100FC00085366B2DCE0107960E94B737BE016F5F45
:100FD0007F4F0E948E37BC0189E09BE00E943D3527
:100FE000CE0107960E94F435CE010D960E94F4358D
:100FF000CE0101960E94F43568EB72E089E09BE037
:101000000E944B3562EA72E0CE0101960E945B3687
:10101000F701EA5AFF4FB08062EA72E0CE010D9606
:101020000E945B36BE01635F7F4FCE0107960E9430
:1010300085366B2DCE0107960E94B737BE016F5FD4
:101040007F4F0E948E37BC0189E09BE00E943D35B6
:10105000CE0107960E94F435CE010D960E94F4351C
:10106000CE0101960E94F43569EC72E089E09BE0C4
:101070000E944B3562EA72E0CE0101960E945B3617
:10108000F701E95AFF4FF08062EA72E0CE010D9657
:101090000E945B36BE01635F7F4FCE0107960E94C0
:1010A00085366F2DCE0107960E94B737BE016F5F60
:1010B0007F4F0E948E37BC0189E09BE00E943D3546
:1010C000CE0107960E94F435CE010D960E94F435AC
:1010D000CE0101960E94F4356AED72E089E09BE052
:1010E0000E944B35023009F443C06CED72E089E098
:1010F0009BE00E944B353CC0662031F06CED72E005
:1011000089E09BE00E944B3560E872E089E09BE05B
:101110000E944B356EED72E089E09BE00E944B35FA
:101120004AE050E0F401608189E09BE00E94D935FB
:1011300066EE72E089E09BE00E944B35F501E75ACC
:10114000FF4F4AE050E0608189E09BE00E94D93582
:101150006AED72E089E09BE00E944B356394F2E017
:10116000EF0EF11C8CE0E816F10409F0C2CECDCEF2
:101170000F5F1F4F9DE2C90ED11C0330110509F00E
:10118000A9CE61EF72E089E09BE00E944B3509E453
:1011900015E0F12CF80161918F014AE050E089E0FF
:1011A0009BE00E94D935F7E1FF1631F06CED72E05B
:1011B00089E09BE00E944B35F39488E1F812EACF76
:1011C0006EEF72E089E09BE00E944B3568E972E0C7
:1011D00089E09BE00E944B3562EA72E0CE01019605
:1011E0000E945B3662EA72E0CE010D960E945B3689
:1011F000BE01635F7F4FCE0107960E9485366BE28A
:1012000075E0CE0107960E949F37BE016F5F7F4F4A
:101210000E948E37BC0189E09BE00E943D35CE01E3
:1012200007960E94F435CE010D960E94F435CE014A
:1012300001960E94F43560E073E089E09BE00E9433
:101240004B3562EA72E0CE0101960E945B36109146
:101250002A0562EA72E0CE010D960E945B36BE015D
:10126000635F7F4FCE0107960E948536612FCE01C6
:1012700007960E94B737BE016F5F7F4F0E948E377F
:10128000BC0189E09BE00E943D35CE0107960E949B
:10129000F435CE010D960E94F435CE0101960E94E0
:1012A000F4356AED72E089E09BE00E946635629653
:1012B0000FB6F894DEBF0FBECDBFDF91CF911F9167
:1012C0000F91FF90EF90DF90CF90BF90AF909F90E5
:1012D0008F907F906F9008952CE934E0FC0131836A
:1012E00020830C94E01ECF93DF93EC01F5DFCE0159
:1012F000DF91CF910C94FD34EF92FF920F931F93E7
:10130000CF93DF937C01C82FDF2D00E010E0C801F0
:101310000E94B53D89930F5F1F4F0E3B1105B9F732
:10132000C701DF91CF911F910F91FF90EF9008952A
:10133000CF93DF9388E099E00E94F435C3E2D9E0CF
:101340002797888199810E94FD3489E0CE30D807A3
:10135000B9F786EC99E00E94C02A84ED99E0DF910C
:10136000CF910C94C02ADB01109749F0ED91FC91CC
:1013700011970190F081E02DBC01CD01199480E01E
:1013800090E008958091EA0981110BC01092270521
:1013900010922605109229051092280581E080936D
:1013A000EA0986E295E008958091E20981110BC077
:1013B0001092230510922205109225051092240503
:1013C00081E08093E20982E295E008959C01285A29
:1013D0003F4F81529F4F68E140E050E0F901E40F38
:1013E000F51F608311824E5F5F4F4C305105B1F79E
:1013F000235D3F4F2817390779F708958AE295E072
:101400007BCF282F30E04DE2849FC001112465304E
:1014100038F5E62FF0E0DF011196AA0FBB1FA80FE9
:10142000B91FAE57BA4F4C91DF01AA0FBB1FA80FCF
:10143000B91FAE57BA4F4C93DF015296AA0FBB1F8C
:10144000A80FB91FA65DBA4FD7964C917196EE0FB3
:10145000FF1FE80FF91FE65DFA4F47AB6F5FD7CF6D
:10146000C90101964DE2489FF001499FF00D1124FA
:10147000E65DFA4F88E187AB429FF001439FF00D94
:101480001124E157FA4F10820895DF92EF92FF92F4
:101490000F931F93CF93DF93F12C97E0899FE00187
:1014A0001124C25FD64F0F2D10E08C819D8108174B
:1014B000190728F58F2D8170880FD82EDD0CDD0CD3
:1014C000D80EEF2CE694E394000F111F000F111FAC
:1014D000E881F981E00FF11F4E2D6D2D8081918102
:1014E0000E94DA2366E06D0DE881F981E00FF11FBB
:1014F0004E2D828193810E94DA23F394D4CFDF9121
:10150000CF911F910F91FF90EF90DF90089583EBA3
:1015100099E00C947D1E69E08DEE9AE00E94E72D23
:10152000882321F08BEB9AE00E9461216BE08DEE25
:101530009AE00E94E72D882321F08BEB9AE00E942D
:10154000EC216CE08DEE9AE00E94E72D882321F0DB
:101550008BEB9AE00E94E9286AE08DEE9AE00E9407
:10156000E72D882321F08BEB9AE00E94182867E092
:101570008DEE9AE00E94E72D882321F08BEB9AE014
:101580000E94852368E08DEE9AE00E94E72D882373
:1015900021F08BEB9AE00C9405230895B8DFBBDFB4
:1015A0008BEB9AE00E9477228BEB9AE00E944F200F
:1015B00084ED99E00E947D2C86EC99E00C947D2CC2
:1015C000AF92BF92CF92DF92EF92FF920F931F9351
:1015D000CF93DF93CDB7DEB768E073E089E09BE09F
:1015E0000E944B354AE050E08E01025F1F4FF80128
:1015F00061918F0189E09BE00E94DF356DE173E02E
:1016000089E09BE00E944B35B80189E09BE00E9495
:1016100066356EE073E089E09BE00E944B358E01F9
:10162000035D1F4F7E01F5E4EF0EF11CF80161919F
:101630008F014AE050E089E09BE00E94D9350E1509
:101640001F0581F489E09BE00E9453351EE0A12E26
:10165000B12CAC0EBD1E87E8A80EB11C8E01025F36
:101660001F4F07C06CED72E089E09BE00E944B3594
:10167000DDCF68E173E089E09BE00E944B35B80163
:10168000695C7F4F89E09BE00E94663565E273E00C
:1016900089E09BE00E944B354AE050E0F801EB5AAC
:1016A000FF4F608189E09BE00E94DF3567E373E0D4
:1016B00089E09BE00E944B354AE050E0F801EA5A8D
:1016C000FF4F608189E09BE00E94DF3566E473E0B4
:1016D00089E09BE00E944B354AE050E0F801E95A6E
:1016E000FF4F608189E09BE00E94DF35E12CF12C07
:1016F0006801CE0CDF1CF601E85AFF4F60816831AB
:1017000089F4035D1F4F0A151B0509F0B2CFDF9165
:10171000CF911F910F91FF90EF90DF90CF90BF90EE
:10172000AF9008954AE050E089E09BE00E94D935EF
:1017300066E073E089E09BE00E944B35F601E75AD2
:10174000FF4F4AE050E0608189E09BE00E94DF3576
:10175000F2E0EF0EF11C8CE0E816F10449F6D1CF6F
:101760008DB79EB78E5B91090FB6F8949EBF0FBEE2
:101770008DBFADB7BEB711968EEBEAE2F5E00190F2
:101780000D928A95E1F71CDF8DB79EB782549F4F6B
:101790000FB6F8949EBF0FBE8DBF0895CF93DF9311
:1017A000CDB7DEB7CE5BD1090FB6F894DEBF0FBE62
:1017B000CDBFCE0101960ADECE0101969DDD8DB72B
:1017C0009EB78E5B91090FB6F8949EBF0FBE8DBF7A
:1017D000ADB7BEB711968EEBFE01319601900D921A
:1017E0008A95E1F7EDDE0FB6F894DEBF0FBECDBFF0
:1017F000C254DF4F0FB6F894DEBF0FBECDBFDF91EE
:10180000CF910895EF92FF920F931F93CF93DF93A1
:101810001F92CDB7DEB70AE215E0E12CF12CF801FA
:1018200061918F01C70169830E94B53D6981681785
:1018300019F0C7010E94BD3DFFEFEF1AFF0A8EEBC2
:10184000E816F10461F70F90DF91CF911F910F918E
:10185000FF90EF900895CF92DF92EF92FF920F9357
:101860001F93CF93DF93D82E8091BD0A992787FDD0
:10187000909506976AE070E00E94B43AC090BE0A64
:10188000CC0CCA94CA94C60E0D2D10E087E0D89EE9
:10189000E0011124C25FD64FA4E0CA9E700111245A
:1018A000E881F981EE0DFF1D60817181000F111F2C
:1018B0000559164FD801ED91FC91828993890E94B8
:1018C0007524E881F981EE0DFF1D62817381D801D5
:1018D000ED91FC91828993890E947524E881F981B8
:1018E000D701B695A795B695A795EE0DFF1D8C81EE
:1018F0009D819C0121503109A217B30750F4119624
:1019000044815581668177814193519361937193AD
:10191000EECF2817390710F43D832C838D2DB5DDCC
:101920006C2D8D2D6EDD6EDF8BEB9AE0DF91CF910C
:101930001F910F91FF90EF90DF90CF900C94542166
:1019400080E089CF81E087CF82E085CFAF92BF92E0
:10195000CF92DF92EF92FF920F931F93CF93DF937B
:1019600003E519E02DE4C22E29E0D22EC1E8D5E02E
:1019700037E4E32E39E0F32EF801A190B1908F0106
:10198000FE013297608170E080E090E00E949B3918
:10199000AB01BC01C5010E94D426F601A190B19013
:1019A0006F01FE013197608170E080E090E00E945D
:1019B0009B39AB01BC01C5010E94D426F701A1905F
:1019C000B1907F01688170E080E090E00E949B39D7
:1019D000AB01BC01C5010E94D426AD96F9E00935E2
:1019E0001F0751F68BEB9AE0DF91CF911F910F917A
:1019F000FF90EF90DF90CF90BF90AF900C944F206E
:101A0000CF92DF92EF92FF920F931F93CF93DF93CA
:101A1000EC017B016A018C819D818617970708F094
:101A200051C08A819B818617970778F59B01285FB3
:101A30003F4F8217930748F5088119813B832A831A
:101A4000C901880F991F880F991F0E94FB34888352
:101A50009983FC01D80120E030E04C815D8124179E
:101A6000350780F4309749F04D915D916D917C91EF
:101A7000139740835183628373832F5F3F4F349664
:101A80001496EBCFC8010E94FD348C819D81AC017E
:101A9000440F551F440F551F8E159F05B0F4E88164
:101AA000F981E40FF51F309749F0D6010D911D9192
:101AB0002D913C91008311832283338301964C5FE7
:101AC0005F4FEACF6817790710F4FD82EC82DF914F
:101AD000CF911F910F91FF90EF90DF90CF900895DD
:101AE0002F923F924F925F926F927F928F929F922E
:101AF000AF92BF92CF92DF92EF92FF920F931F931C
:101B0000CF93DF93CDB7DEB7EC970FB6F894DEBF77
:101B10000FBECDBF8EE896E190932A0980932909E4
:101B200080E996E190932C0980932B0982E996E154
:101B300090932E0980932D0980EA9CE090932409CC
:101B40008093230982EA9CE09093260980932509DB
:101B500084EA9CE0909328098093270926E040E8D6
:101B600055E260E070E089E09BE00E94383326E0B7
:101B700040E855E260E070E086EA9BE00E9438337E
:101B800040E855E269E07BE0CE0101965C010E94ED
:101B9000812A89819A819093D5098093D4098B8178
:101BA0009C819093D7098093D6098D819E819093D3
:101BB000D9098093D8098F818093DA098885809329
:101BC000DB09BE01675F7F4F8CED99E00E947036A4
:101BD000C5010E94C02A40E855E266EA7BE0C501E3
:101BE0000E94812A89819A819093C7098093C609AE
:101BF0008B819C819093C9098093C8098D819E81B6
:101C00009093CB098093CA098F818093CC098885F2
:101C10008093CD09BE01675F7F4F8EEC99E00E94F3
:101C20007036C5010E94C02A40E855E266EA7BE0B2
:101C300084ED99E00E94ED2AE1DB62E873E0C501E2
:101C40000E945B3648EE55E0B50184ED99E00E94B4
:101C5000BB2BC5010E94F43565E573E0C5010E9408
:101C60005B3646E457E0B50184ED99E00E94F92A1D
:101C7000C5010E94F4356AE573E0C5010E945B3638
:101C800041EE59E1B50184ED99E00E94F92AC501C0
:101C90000E94F43565E673E0C5010E945B364EECA8
:101CA0005BE0B50184ED99E00E94F92AC5010E942C
:101CB000F43561E773E0C5010E945B3640EB5BE001
:101CC000B50184ED99E00E94F92AC5010E94F4351E
:101CD0006DE773E0C5010E945B3642EE53E0B5014B
:101CE00084ED99E00E94F92AC5010E94F43567E865
:101CF00073E0C5010E945B364CED53E0B50184ED05
:101D000099E00E94F92AC5010E94F43586E090E02E
:101D10000E94FB346C0116E0DC01E12F1D92EA9574
:101D2000E9F70E94DE238CE9882E84E0982ED60104
:101D30008D929C92D092B209C092B10961E973E090
:101D4000C5010E945B3682E190E00E94FB346C0189
:101D50006091B1097091B20900E020E0A5010E94F4
:101D60003325D092B009C092AF09C5010E94F43565
:101D70006FE074E0C5010E945B3682E190E00E9452
:101D8000FB346C016091B1097091B20928E0A501A2
:101D90000E943325D092AE09C092AD09C5010E94C0
:101DA000F43569E973E0C5010E945B3682E190E099
:101DB0000E94FB346C016091B1097091B20901E09D
:101DC00028E0A5010E943325D092AC09C092AB094E
:101DD000C5010E94F43586E090E00E94FB346C015E
:101DE000FC0111921A95E9F70E94DE23D6018D922B
:101DF0009C92D092AA09C092A90962EA73E0C50137
:101E00000E945B3682E190E00E94FB346C0160919D
:101E1000A9097091AA0900E027E0A5010E943325D5
:101E2000D092A809C092A709C5010E94F435E1EA41
:101E3000F9E0FEA3EDA39BE6892E99E0992E81E4BB
:101E400099E09AA789A7A9E2B9E0B8AFAFABEBE3F5
:101E5000F9E0FCA7EBA785E399E09AAF89AF2AE206
:101E6000222E25E0322EA3E5B9E0BAABA9ABEDE412
:101E7000F9E0FCABEBAB87E499E09EAB8DAB1EA623
:101E80001DA6C12CD12CA1E0B0E0B8ABAFA7FA2CB5
:101E90001B2D4AE06FA578A9CE0145960E94CE364B
:101EA0006BEA73E0CE010F960E945B36BE016B5E5B
:101EB0007F4FCE010F960E948E37BC018F2D912F40
:101EC0000E94853684E190E00E94FB345C016091C1
:101ED000A9097091AA0902E02DA54F2D512F0E944A
:101EE000E924EDA1FEA1B182A0828F2D912F0E9445
:101EF000F435CE010F960E94F435CE0145960E942E
:101F0000F43560EB73E08F2D912F0E945B3684E1F6
:101F100090E00E94FB345C01ADA1BEA1ED91FC916B
:101F20006289738900E023E04F2D512F0E94E9243C
:101F3000F401B182A0828F2D912F0E94F4356FEBB6
:101F400073E08F2D912F0E945B3684E190E00E9418
:101F5000FB345C01D401ED91FC916289738920E02E
:101F60004F2D512F0E94F928E9A5FAA5B182A08230
:101F70008F2D912F0E94F435A9A5BAA5ED91FC9162
:101F8000AFA9B8AD8D919D91B8AFAFAB938B828B5C
:101F900089E290E00E94FB345C01D401ED91FC9158
:101FA00062897389E12C0AE020E030E040E451E4EA
:101FB0000E940226EBA5FCA5B182A08266E073E038
:101FC0008F2D912F0E945B3682E190E00E94FB34BE
:101FD0005C01D401ED91FC916289738900E02CE0F1
:101FE0004F2D512F0E943325E9ADFAADA192B19248
:101FF000FAAFE9AF8F2D912F0E94F43589E290E07E
:102000000E94FB345C01D401ED91FC9162897389DB
:102010000DE020E030E040E751E40E940226F601A6
:10202000E15DF64FB182A082ABA5BCA5ED91FC911C
:1020300080E090E0A8EBB1E4878B908FA18FB28F06
:10204000138E148E158E168E80E090E0ACE6B2E40E
:10205000F501878B908FA18FB28F138E148E158E02
:10206000168EA12CB12CEDA5FEA5E25FF64FF8A7C8
:10207000EFA3C6018D5D964F9CAF8BAF31016A0C0B
:102080007B1CF301E85AFF4F6081683109F4DCC022
:10209000AFA1B8A514968D919C911597282F21700A
:1020A000220F522E550C550C520E969587954424AE
:1020B0004394480E4AE0CE014B960E94A336F301AA
:1020C000E75AFF4F4AE06081CE0145960E94A33651
:1020D0008F8D98A1019709F560EA73E0CE010F9604
:1020E0000E945B36BE01615F7F4F8F2D912F0E9452
:1020F0008536BE01655E7F4F8F2D912F0E948E37F2
:10210000BC01CE014B960E9470368F2D912F0E94FC
:10211000F435CE010F960E94F435898D9A8D019782
:1021200009F560EA73E0CE010F960E945B36BE01AE
:10213000615F7F4F8F2D912F0E948536BE016B5EB0
:102140007F4F8F2D912F0E948E37BC01CE01459677
:102150000E9470368F2D912F0E94F435CE010F967C
:102160000E94F435BE01655E7F4FCE010F960E943E
:10217000853666E073E0CE010F960E949F37BE0160
:102180006B5E7F4F0E948E37BC018F2D912F0E9476
:10219000853682E190E00E94FB343C01D401ED9150
:1021A000FC9162897389042D252D4F2D512F0E949A
:1021B00033257AA269A28F2D912F0E94F435CE018A
:1021C0000F960E94F43563EC73E08F2D912F0E94DF
:1021D0005B3684E190E00E94FB343C0126E0250D53
:1021E000D401ED91FC91628973894F2D512F0E948A
:1021F000F9287CA26BA28F2D912F0E94F435EBADB4
:10220000FCAD80819181EBA1FCA1938B828BAFA16E
:10221000B8A514966D917C9115976F5F7F4FAE01B5
:102220004F5D5F4FCD01ECDBCE0145960E94F4354A
:10223000CE014B960E94F435B2E0AB0EB11CECE03F
:10224000AE16B10409F01ACF65EC73E08F2D912F13
:102250000E945B3682E190E00E94FB345C01ADA1FC
:10226000BEA1ED91FC916289738901E020E04F2DC0
:10227000512F0E943325F601EB59F64FB182A0820F
:102280008F2D912F0E94F43589E290E00E94FB345B
:102290005C013101B5E56B0E711CF301608170E0EA
:1022A00080E090E00E949B399B01AC01ADA1BEA1F2
:1022B000ED91FC9162897389EE24E3940AE0C501F3
:1022C0000E940226E9A9FAA9B182A0826EEC73E00D
:1022D0008F2D912F0E945B3682E190E00E94FB34AB
:1022E0005C01ADA1BEA1ED91FC916289738902E010
:1022F00020E04F2D512F0E943325F601E15AF64F71
:10230000B182A0828F2D912F0E94F43589E290E056
:102310000E94FB345C01F101EA5AFF4FF8A7EFA3DA
:10232000608170E080E090E00E949B399B01AC01ED
:10233000ADA1BEA1ED91FC9162897389A2E0EA2E64
:102340000AE0C5010E940226EBA9FCA9B182A08285
:1023500067ED73E08F2D912F0E945B3682E190E054
:102360000E94FB345C01ADA1BEA1ED91FC9162899C
:10237000738903E020E04F2D512F0E943325F60191
:10238000E75AF64FB182A0828F2D912F0E94F4352B
:1023900089E290E00E94FB342C015101B7E5AB0EBD
:1023A000B11CF501608170E080E090E00E949B39F3
:1023B0009B01AC01ADA1BEA1ED91FD91BEA3ADA36A
:1023C00062897389B3E0EB2E0AE0C2010E94022603
:1023D000EDA9FEA951824082B301A9A9BAA98D91A4
:1023E0009D91BAABA9AB0E9468256FA178A5EBA916
:1023F000FCA981919191FCABEBAB0E946825B501E2
:10240000ADA9BEA98D919D91BEABADAB0E946825D3
:10241000EFA5F8A93196F8ABEFA7F2E0CF0ED11CEB
:1024200082E0880E911CA9A5BAA51296BAA7A9A701
:10243000EBA5FCA53296FCA7EBA7FDE22F0E311C05
:102440008DA59EA507969EA78DA796E0C916D104D7
:1024500009F01FCD86E090E00E94FB346C0186E01D
:10246000D6011D928A95E9F7C6010E94DE238CE908
:1024700094E0F60191838083D092A009C0929F09D5
:1024800060EE73E08F2D912F0E945B3684E190E027
:102490000E94FB346C0160919F097091A00900E0DB
:1024A00021E04F2D512F0E94F928D0929E09C09211
:1024B0009D098F2D912F0E94F43562E472E08F2DDB
:1024C000912F0E945B3684E190E00E94FB346C0106
:1024D00060919F097091A00928E04F2D512F0E9413
:1024E000F928D0929C09C0929B098F2D912F0E94B0
:1024F000F43568E472E08F2D912F0E945B3684E101
:1025000090E00E94FB346C0160919F097091A009DA
:102510002CE04F2D512F0E94F928D0929A09C09299
:1025200099098F2D912F0E94F4356EE472E08F2D62
:10253000912F0E945B3684E190E00E94FB346C0195
:1025400060919F097091A00920E14F2D512F0E94A9
:10255000F928D0929809C09297098F2D912F0E9447
:10256000F43565EE73E08F2D912F0E945B3682E18A
:1025700090E00E94FB346C0160919F097091A0096A
:1025800001E021E04F2D512F0E943325D092960972
:10259000C09295098F2D912F0E94F43589E290E029
:1025A0000E94FB346C0160919F097091A009EE2498
:1025B000E39408E020E030E040E85FE30E94022678
:1025C000D0929409C09293096BEE73E08F2D912FF6
:1025D0000E945B3682E190E00E94FB346C016091C6
:1025E0009F097091A00901E02CE04F2D512F0E940E
:1025F0003325D0929209C09291098F2D912F0E947C
:10260000F43562E472E08F2D912F0E945B3682E1F7
:1026100090E00E94FB346C0160919F097091A009C9
:1026200002E020E04F2D512F0E943325D0929009D7
:10263000C0928F098F2D912F0E94F43589E290E08E
:102640000E94FB346C0160919F097091A009E2E047
:10265000EE2E01E020E030E0A9010E940226D09297
:102660008A09C092890968E472E08F2D912F0E9437
:102670005B3682E190E00E94FB346C0160919F091F
:102680007091A00902E027E04F2D512F0E943325C1
:10269000D0928E09C0928D098F2D912F0E94F43512
:1026A00089E290E00E94FB346C0160919F09709177
:1026B000A00908E020E030E0A9010E940226D092A3
:1026C0008809C09287096EE472E08F2D912F0E94D5
:1026D0005B3682E190E00E94FB346C0160919F09BF
:1026E0007091A00902E02EE04F2D512F0E9433255A
:1026F000D0928C09C0928B098F2D912F0E94F435B6
:1027000089E290E00E94FB346C0160919F09709116
:10271000A0090FE020E030E0A9010E940226D0923B
:102720008609C092850964E572E08F2D912F0E9481
:102730005B3684E190E00E94FB346C0160919F095C
:102740007091A00903E020E04F2D512F0E94F9283D
:10275000D0928409C09283098F2D912F0E94F43565
:1027600089E290E00E94FB346C0160919F097091B6
:10277000A009F3E0EF2E01E020E030E040E85FE365
:102780000E940226D0928209C09281096AE572E015
:102790008F2D912F0E945B3684E190E00E94FB34E4
:1027A0006C0160919F097091A00903E024E04F2D16
:1027B000512F0E94F928D0928009C0927F098F2D55
:1027C000912F0E94F43560EA73E08F2D912F0E94C3
:1027D0005B3682E190E00E94FB346C0160919F09BE
:1027E0007091A00925E04F2D512F0E943325D092E2
:1027F0007E09C0927D098F2D912F0E94F43560E6ED
:1028000072E08F2D912F0E945B3684E190E00E9450
:10281000FB346C0160919F097091A00928E04F2D55
:10282000512F0E94F928D0927809C09277098F2DF4
:10283000912F0E94F43560EA73E08F2D912F0E9452
:102840005B3682E190E00E94FB346C0160919F094D
:102850007091A00929E04F2D512F0E943325D0926D
:102860007609C09275098F2D912F0E94F43566E686
:1028700072E08F2D912F0E945B3684E190E00E94E0
:10288000FB346C0160919F097091A0092CE04F2DE1
:10289000512F0E94F928D0927C09C0927B098F2D7C
:1028A000912F0E94F43560EA73E08F2D912F0E94E2
:1028B0005B3682E190E00E94FB346C0160919F09DD
:1028C0007091A0092DE04F2D512F0E943325D092F9
:1028D0007A09C09279098F2D912F0E94F4356FE605
:1028E00072E08F2D912F0E945B3684E190E00E9470
:1028F000FB346C0160919F097091A00920E14F2D7C
:10290000512F0E94F928D0927409C09273098F2D1B
:10291000912F0E94F43560EA73E08F2D912F0E9471
:102920005B3682E190E00E94FB346C0160919F096C
:102930007091A00921E14F2D512F0E943325D09293
:102940007209C09271098F2D912F0E94F435E09188
:102950009D09F0919E0988EE93E0938B828BE09124
:102960009B09F0919C098FE094E0938B828BE0911E
:102970009909F0919A098EE194E0938B828BE09112
:102980009709F09198098DE294E0938B828BE09106
:102990009309F091940980E090E0A8ECB2E4878B71
:1029A000908FA18FB28F80E090E0A0E8BFE3838F8B
:1029B000948FA58FB68F8DEF91E090A3878FE091D4
:1029C0008909F0918A098CE394E090A3878FE091C4
:1029D0008709F091880980E994E090A3878FE091BE
:1029E0008509F091860984EE94E090A3878FE091A9
:1029F0008309F091840988E395E0938B828BE091C1
:102A00007F09F091800986E995E0938B828BE091B4
:102A10007709F091780982E096E0938B828BE091C0
:102A20007B09F0917C098EE696E0938B828BE09196
:102A30007309F09174098AED96E0938B828BE09193
:102A40008109F0918209178A108E118E128E6EEE16
:102A500073E08F2D912F0E945B364F2D512F6AEB23
:102A600079E08BEB9AE00E947A1F8F2D912F0E94C4
:102A7000F4356091B1097091B2098BEB9AE00E9434
:102A8000B01F6091A9097091AA098BEB9AE00E948E
:102A9000B01F60919F097091A0098BEB9AE00E9492
:102AA000B01F6091B1097091B2098BEB9AE00E945E
:102AB000A1208BEB9AE00E944F2046E066E072E096
:102AC0008DEE9AE00E944C2D86EF9AE00E948F2EA8
:102AD00048EE53E06CE272E086EF9AE00E94B12E7D
:102AE00048EE53E060E073E086EF9AE00E94B12E7A
:102AF00086EF9AE00E94832FEC960FB6F894DEBF23
:102B00000FBECDBFDF91CF911F910F91FF90EF903E
:102B1000DF90CF90BF90AF909F908F907F906F90FD
:102B20005F904F903F902F9008953F924F925F9209
:102B30006F927F928F929F92AF92BF92CF92DF92CD
:102B4000EF92FF920F931F93CF93DF93CDB7DEB732
:102B500062970FB6F894DEBF0FBECDBFA82EB12C82
:102B600097E0899F70011124D701A25FB64F7D01C4
:102B700014968D919C9115978630910509F4B6C0F5
:102B8000282F2170220F322E330C330C320E9695E3
:102B9000879511E0180F6501CC0CDD1CF601E15D95
:102BA000F64FFA8BE98B80809180F6E08F0E911CB6
:102BB000C601855C964F2C01DC016D917C916A5FAA
:102BC0007F4FCE0107960E94853666E073E0CE0106
:102BD00007960E949F37B4010E948E37BC01CE0138
:102BE00001960E94853682E190E00E94FB344C0100
:102BF000F601E559F64F3F010190F081E02D628921
:102C00007389012F232DAE014F5F5F4F0E94332543
:102C10009E868D86CE0101960E94F435CE010796E0
:102C20000E94F43563EC73E0CE0101960E945B369E
:102C300084E190E00E94FB344C0126E0230DD30197
:102C4000ED91FC9162897389AE014F5F5F4F0E94E5
:102C5000F928988A8F86CE0101960E94F435EF8577
:102C6000F889D601AD5DB64F8D919C91938B828B87
:102C7000F701648175816F5F7F4FAE01435F5F4FE6
:102C8000C7010E94000DD70114960D911C91159754
:102C900001501109F201808191810E946C25000F81
:102CA000111F2DE22A9D60012B9DD00C11240C0DCB
:102CB0001D1D0E571A4F0E946F39D8016C93F701F2
:102CC00004811581A989BA898D919C910E946C25F6
:102CD000005F1F4F000F111F0C0D1D1D065D1A4FC9
:102CE0000E946F39F80167AB0E94020C62960FB622
:102CF000F894DEBF0FBECDBFDF91CF911F910F9132
:102D0000FF90EF90DF90CF90BF90AF909F908F900B
:102D10007F906F905F904F903F90089580E005CF37
:102D200081E003CF82E001CFFC01A081B1818C91D1
:102D30008D3051F024F489508230B8F505C08032CE
:102D400019F08F3219F0089511962CC011968C91BC
:102D500011978A3219F08F32D1F008951196B1830C
:102D6000A083A081B181CD010196918380831196CA
:102D70008C9111978823C9F08A3299F712968C9119
:102D800012978F3271F713960DC08A3071F2A081BD
:102D9000B181CD0101969183808311968C9181112F
:102DA000F4CF03C0B183A083C0CF08950F931F93C6
:102DB000CF93DF931F92CDB7DEB78C016983B4DF69
:102DC000D801ED91FC91119780816981861305C02E
:102DD0003196ED93FC9381E001C080E00F90DF918C
:102DE000CF911F910F9108950F931F93CF93DF936E
:102DF000EC010C811D81029697DFEA81FB81408105
:102E0000473239F0423229F080ED840F8A30B0F138
:102E10002AC03196FB83EA83EA81FB812081222349
:102E2000F1F1CF0101969B838A832417C1F12C35E0
:102E300091F42181A5E0B4E08C91882339F08213CC
:102E400003C011962C9102C01296F6CF222339F1BD
:102E50003296FB83EA83EC81FD81CF0101969D834D
:102E60008C832083D9CF842F8F7D81548A3130F099
:102E70004B3221F083ED840F823088F42A813B812C
:102E80002F5F3F4F3B832A83EC81FD81CF01019669
:102E90009D838C834083EA81FB814081B5CFEC81A7
:102EA000FD81CF0101969D838C831082C801DF9143
:102EB000CF911F910F910895DC011296ED91FC9135
:102EC0001397309781F06115710531F061507109E8
:102ED0000190F081E02DF5CF82819381079719F45D
:102EE0008481958108950C94D4090F931F93CF93F7
:102EF000DF938B01FC01C281D381209759F06A8155
:102F00007B81C8010E945F3D892B21F00990D88107
:102F1000C02DF3CFCE01DF91CF911F910F91089576
:102F2000BF92CF92DF92EF92FF920F931F93CF93B6
:102F3000DF9300D000D0CDB7DEB76C01FC0100817B
:102F40001181B80184E090E00E94B309009709F470
:102F50005EC0FC0111830083138212828C01760112
:102F6000F2E0EF0EF11C6BE5C70120DF882309F4C6
:102F700049C06DE5C7011ADF811147C0F6E0BF2ED9
:102F80001A821982BE016F5F7F4FC60153D088231A
:102F9000C9F1F8016081718188E090E00E94B30975
:102FA000DC01009739F011961C921E9213961C9228
:102FB0001E921297F801228133812115310559F0B3
:102FC000F90180819181009711F09C01F9CFF901FD
:102FD000B183A08303C0F801B383A283109791F05B
:102FE000FE01319612968B2D01900D928A95E1F794
:102FF0006DE5C701DBDE811108C06CE2C701D6DEDA
:103000008111BECF0E94C20905C0C80103C00E9441
:10301000C209A4CF26960FB6F894DEBF0FBECDBF6F
:10302000DF91CF911F910F91FF90EF90DF90CF90A4
:10303000BF900895FF920F931F93CF93DF93EC01FE
:103040008B018E81882309F442C081508E83CE018A
:1030500002966ADEEA81FB8180818B3519F08B371D
:1030600059F01AC0CE015CDFFC0120813181232B95
:1030700049F126E030E009C0CE0130D0FC012081CA
:103080003181232BF9F027E030E0F80131832083F0
:103090009383828381E017C0873231F091E08232DE
:1030A00009F090E0F92E02C0FF24F394CE019CDEDB
:1030B000009741F0FF2019F022E030E0E6CF21E058
:1030C00030E0E3CF80E09E819F5F9E8301C080E07F
:1030D000DF91CF911F910F91FF9008959F92AF9232
:1030E000BF92CF92DF92EF92FF920F931F93CF93F5
:1030F000DF9300D000D0CDB7DEB76C01FC010081BA
:103100001181B80184E090E00E94B309009709F4AE
:1031100075C0FC0111830083138212828C01760139
:10312000F2E0EF0EF11C6BE7C70140DE882309F4E3
:1031300060C06DE7C7013ADE81115EC0A6E09A2E3D
:10314000C60152DE5C01009709F453C06AE3C7016F
:103150002DDE882309F44DC01A821982BE016F5FEB
:103160007F4FC60167DF882309F443C0B501C8015A
:10317000BCDEDC01009759F5F801608171818AE0BD
:1031800090E00E94B309DC01009739F011961C927F
:103190001E9215961C921E921497F801228133817B
:1031A0002115310559F0F90180819181009711F0C5
:1031B0009C01F9CFF901B183A08303C0F801B38367
:1031C000A2831097B1F01396BC92AE921297FE01B3
:1031D00031961496892D01900D928A95E1F76DE74D
:1031E000C701E4DD811108C06CE2C701DFDD811198
:1031F000A7CF0E94D40905C0C80103C00E94D4090A
:103200008DCF26960FB6F894DEBF0FBECDBFDF91EF
:10321000CF911F910F91FF90EF90DF90CF90BF90D3
:10322000AF909F90089561CE08950F931F93CF9311
:10323000DF93F9DFEC010097C1F00C811D810130B3
:10324000110559F46E817F816115710531F080E1BE
:1032500094E00E945F3D892B41F00150110902303A
:10326000110518F48E819F8102C080E090E0DF910B
:10327000CF911F910F910895D6DF009749F0FC017F
:10328000248135812630310519F48681978108958E
:103290000C94C2090F931F93CF93DF93EC016A81C3
:1032A0007B8188819981E8DFDC011296ED91FC91A8
:1032B000139700E010E0309731F00F5F1F4F01903F
:1032C000F081E02DF8CF6A817B8188819981ABDF25
:1032D000FC01009759F084819581079719F4868144
:1032E000978102C00E94D409FC0103C00E94D40946
:1032F000FC010280F381E02D80E090E0309729F01E
:1033000001960190F081E02DF9CF800F911FDF91A0
:10331000CF911F910F910895CF93DF93FC0180818E
:1033200091818330910534F48130910564F4892BC7
:10333000D9F132C08530910524F0059769F5828175
:1033400029C0828134C0C281D381209769F1BE0136
:1033500085E194E00E945F3D892B41F188818B32A9
:1033600021F08D3229F491E001C090E0219601C056
:1033700090E080E0299130ED320F3A3048F4382F58
:10338000330F832F880F880F830F8053820FF2CF64
:10339000992369F081950BC0628173818481958145
:1033A0000E946F39862F03C080E001C081E0DF9169
:1033B000CF91089538DF009711F00496ADCF80E0EB
:1033C00008952F923F924F925F926F927F928F92C9
:1033D0009F92AF92BF92CF92DF92EF92FF920F93A4
:1033E0001F93CF93DF93CDB7DEB7C751D7400FB64A
:1033F000F894DEBF0FBECDBFCE0109969C838B83B0
:1034000088E097E09E838D8318861F8284EA94E08B
:103410009A83898388EE95E09E012F5F3F4FCF5EB0
:10342000D84F39832883C151D740CD5ED84F998377
:103430008883C351D740CB5ED84F99838883C551C9
:10344000D7408AE0C95ED84F8883C751D740CE01A4
:103450008F5E984F43DE7C01FC0180819181892B36
:1034600039F46AE174E089E09BE00E9466350DC1A1
:103470006FE274E089E09BE00E94663565E474E0E9
:10348000C70198DF80932A0568E474E0C701CDDEA8
:10349000BC018BE295E00E94683D29E4C22E25E044
:1034A000D22E00E010E06DE474E0C701E5DEFC011F
:1034B0008281938120E030E0009751F002171307DA
:1034C00009F4E0C02F5F3F4FFC0180819181F4CF70
:1034D00080E0F60181936F010F5F1F4F08311105E6
:1034E00011F7B1E8CB2EB5E0DB2E00E010E08BE762
:1034F000482E84E0582E9DE2292E32016BEA73E0BB
:10350000C701BADEB801D8DC68E474E08EDEBC0125
:10351000C60180970E94683D6BEA73E0C701ACDE8C
:10352000B801CADC64E574E045DFF60132978083B8
:103530006BEA73E0C701A0DEB801BEDC63E674E0AD
:1035400039DFF601319780836BEA73E0C70194DEBF
:10355000B801B2DC6FE674E02DDFF6018083312C18
:10356000209E4001219E900C1124A32CB12C6BEACB
:1035700073E0C70181DEB8019FDCCF5ED84F99832D
:103580008883C151D740CD5ED84F59824882C351FC
:10359000D740CE018F5E984F7DDE6BEA73E0A816B0
:1035A000B90668F5C70168DEB80186DC6BE774E030
:1035B00063DEB50181DC6CE874E0FCDEF501EE0F42
:1035C000FF1FE80DF91DEE57FA4F80836BEA73E099
:1035D000C70152DEB80170DC6BE774E04DDEB50167
:1035E0006BDC61E974E0E6DEF5017196EE0FFF1F1A
:1035F000E80DF91DE65DFA4F87AB3394B6CFC701EE
:103600003BDEB80159DCCF5ED84F99838883C15126
:10361000D740CD5ED84F79826882C351D740CE0162
:103620008F5E984F37DE20E030E0209EA001219E83
:10363000500D1124682F620F6630B0F470E0FB016A
:10364000EE0FFF1FE40FF51FEE57FA4F98E190833E
:10365000FB017196EE0FFF1FE40FF51FE65DFA4FB9
:1036600097AB2F5F3F4FE6CF0F5F1F4FEDE2CE0EC0
:10367000D11C0330110509F041CF0E94020C0E94B9
:10368000A60C03C0029648DE24CFC95ED84F0FB601
:10369000F894DEBF0FBECDBFDF91CF911F910F9188
:1036A000FF90EF90DF90CF90BF90AF909F908F9062
:1036B0007F906F905F904F903F902F9008950F9361
:1036C0001F93CF93DF9384ED99E00E944A2A86EC02
:1036D00099E00E944A2A24E044E167E28AEB99E0FB
:1036E0000E943829CEE0D9E008E010E01982188263
:1036F0001B830A831D821C8280E290E00E94FB34BF
:1037000099838883279689E0C332D80779F76FE0D9
:1037100074E088E099E00E945B368AE295E0DF91F0
:10372000CF911F910F910C94E6090C949809809108
:10373000220A90E02091230A821B9109089520918A
:10374000230A8091220A281750F4E22FF0E0EC5D62
:10375000F54F808190E02F5F2093230A08958FEF2B
:103760009FEF0895E091230A8091220AE81730F430
:10377000F0E0EC5DF54F808190E008958FEF9FEFD2
:1037800008950895CF92DF92EF92FF920F931F93C7
:10379000CF93DF937C01CB018A012091FE09222384
:1037A00089F0EB016B01C40ED51ECC15DD0561F06F
:1037B0006991D701ED91FC910190F081E02DC70155
:1037C0001995F3CF642F36D1C801DF91CF911F91A6
:1037D0000F91FF90EF90DF90CF900895CF93DF93FC
:1037E0001F92CDB7DEB769832091FE092223D1F065
:1037F0002091FF09203240F021E030E0FC013383CA
:10380000228380E090E014C08091000AE82FF0E06D
:10381000EF5FF54F998190838F5F8093000A8093CB
:10382000FF0904C061E0CE01019604D181E090E07F
:103830000F90DF91CF910895FC011382128248EE20
:1038400053E060E070E044835583668377838AEABF
:1038500094E09183808308951092230A1092220AA3
:103860001092000A1092FF0930C0862F413208F0F2
:1038700040E264E27AE047D01092230A8093220A61
:10388000089521E0F2CF81E08093FE096093210A40
:103890001092000A1092FF090895F5CF0F93062F9A
:1038A00021E04091FF0961E07AE08091210A6FD028
:1038B0001092000A1092FF091092FE090F910895CC
:1038C00061E0ECCF82EF99E0B7CF1092B10A81E0CE
:1038D0008093AF0A1092AE0A61E084E10E94CD317C
:1038E00061E085E10E94CD31E9EBF0E080818E7FDF
:1038F000808380818D7F808388E48093B80085E415
:103900008093BC000895413208F03FC09091B10A05
:103910009111FCCF91E09093B10A2093AF0A2FEF61
:103920002093440A1092890A240F2093880A9093C6
:10393000B00A9091B00A880F892B8093B00A8091C9
:10394000AE0A813041F41092AE0A8091B00A8093A1
:10395000BB0085EC01C085EE8093BC008091B10A6C
:103960008130E1F38091890A841710F44091890A2B
:103970002AE83AE0FB01D9018A2F821B841718F448
:103980008D918193F9CF842F089580E008950F934E
:10399000413208F046C09091B10A9111FCCF92E0FB
:1039A0009093B10A0093AF0A9FEF9093440A10924C
:1039B000890A4093880AFB016AE87AE0DB019A2FC2
:1039C000961B941718F491919D93F9CF1092B00A19
:1039D0009091B00A880F892B8093B00A8091AE0A2B
:1039E000813041F41092AE0A8091B00A8093BB00FE
:1039F00085EC01C085EE8093BC00222321F08091EC
:103A0000B10A8230E1F38091440A8F3F61F08091E6
:103A1000440A803251F08091440A803341F483E0BB
:103A200007C081E005C080E003C082E001C084E0FF
:103A30000F910895613298F42091B10A243089F4ED
:103A40006093660AFC0188E69AE0DC012A2F281BB5
:103A5000261718F421912D93F9CF80E0089581E085
:103A6000089582E0089585ED8093BC008091BC00AC
:103A700084FDFCCF1092B10A089585EC8093BC00C0
:103A80001092B10A08951F920F920FB60F9211244F
:103A90000BB60F922F933F934F935F936F937F9348
:103AA0008F939F93AF93BF93EF93FF938091B90050
:103AB000887F803609F49CC068F5883209F45BC0C1
:103AC00090F4803109F454C038F4882309F4F3C029
:103AD000883009F44DC0F2C0883109F44CC08032FE
:103AE00009F45DC0EBC0803409F468C048F4803349
:103AF00009F455C0883309F0E1C08093440AA7C097
:103B0000803509F44FC0883509F45DC0883409F068
:103B1000D5C0D3C0883909F4C4C0A8F4883709F4E3
:103B200067C038F4883609F463C0803709F460C090
:103B3000C5C0883809F4B5C0803909F45FC0803841
:103B400009F0BCC05BC0803B09F483C038F4803A04
:103B500009F466C0883A09F47CC0B0C0803C09F41E
:103B6000A4C0883C09F4A1C0883B09F487C0A6C062
:103B70008091B00A10C09091890A8091880A9817A4
:103B800070F5E091890A81E08E0F8093890AF0E058
:103B9000E657F54F80818093BB0085EC83C080930E
:103BA000440A8BC0E091890A81E08E0F8093890AD4
:103BB0008091BB00F0E0E657F54F80839091890A31
:103BC0008091880A6BC0E091890A81E08E0F809312
:103BD000890A8091BB00F0E0E657F54F8083809121
:103BE000AF0A81116AC081E08093AE0A84EA5EC0A8
:103BF00083E08093B10A1092450ACFCF8091450AA5
:103C0000803208F04EC0E091450A81E08E0F80932B
:103C1000450A8091BB00F0E0EA5BF54F8083BDCFA1
:103C20008091450A803230F4E091450AF0E0EA5B89
:103C3000F54F108218DF6091450A70E0E091AA0A02
:103C4000F091AB0A86E49AE019951092450A15DFC7
:103C500035C084E08093B10A1092670A1092660A18
:103C6000E091AC0AF091AD0A19958091660A811134
:103C700005C081E08093660A1092680AE091670AA5
:103C800081E08E0F8093670AF0E0E859F54F80815C
:103C90008093BB009091670A8091660A981708F498
:103CA0007CCF85E88093BC0009C085EC8093BC0084
:103CB0001092B10A03C01092440AD5DEFF91EF9131
:103CC000BF91AF919F918F917F916F915F914F9134
:103CD0003F912F910F900BBE0F900FBE0F901F9032
:103CE0001895982F92959F708F702AE0929F800D63
:103CF0001124089582EF99E0AFCD1F93CF93DF9306
:103D0000EC0168E670E082EF99E0C7DD60E082EFE9
:103D100099E064DD82EF99E0D3DD882319F01092F9
:103D2000B20A3CC081E08093B20A47E050E068E606
:103D300070E082EF99E0A5DD82EF99E0F8DC07976B
:103D40006CF182EF99E0FBDC182F8F77CADF888354
:103D500082EF99E0F4DCC5DF898382EF99E0EFDC44
:103D60008F73BFDF8A8382EF99E0E9DCBADF8B8350
:103D700082EF99E0E4DCB5DF8C8382EF99E0DFDC51
:103D8000B0DF8D8382EF99E0DADCABDF825E8E8379
:103D9000812F8095881F8827881F01C080E0DF91D0
:103DA000CF911F910895089580E090E0089581E0FB
:103DB00090E0089583E090E0089582E090E0089517
:103DC0001F93CF93DF93EC018CEC94E0998388836D
:103DD00010E02C818A819B81121790F4FC01E10F85
:103DE000F11DE10FF11D80819181009739F0DC0117
:103DF000ED91FC910280F381E02D19951F5FE9CFD1
:103E0000009729F0DF91CF911F910C94FE34DF9140
:103E1000CF911F910895CF93DF93EC0182EC94E052
:103E200099838883CE010C960E94F435CE010696C4
:103E3000DF91CF910C94F435CF93DF93EC0184EDB7
:103E400094E0998388838A899B89009739F0DC0103
:103E5000ED91FC910280F381E02D1995CE01DF9167
:103E6000CF91D9CF22EF34E0FC0131832083D3CF2F
:103E700028EE34E0FC0131832083CDCF2EED34E0F9
:103E8000FC0131832083C7CFCF93DF93EC01C3DFE5
:103E9000CE01DF91CF910C94FD34CF93DF93EC01F1
:103EA0008FDFCE01DF91CF910C94FD34CF93DF9360
:103EB000EC01C2DFCE01DF91CF910C94FD34CF93A2
:103EC000DF93EC01CFDFCE01DF91CF910C94FD3475
:103ED000CF93DF93EC01CCDFCE01DF91CF910C9437
:103EE000FD34CF93DF93EC01C9DFCE01DF91CF9199
:103EF0000C94FD34FF920F931F93CF93DF93EC014B
:103F0000CB018A017983688321E02C83FF24FA9412
:103F1000FA82FB820E94472A888199810E94612946
:103F2000888199810E94482A40E060E088819981D7
:103F30000E94B329B801888199810E943D3568EEBD
:103F400073E080E090E00E94AE30888199810E9409
:103F5000A929FD8EDF91CF911F910F91FF900895B8
:103F6000EF92FF920F931F93CF93DF93EC017B01AE
:103F70008F818F5F8F8390E0880F991F0E94FC34A0
:103F80008C0160E0462F50E02F8130E02150310954
:103F90008D819E814217530774F4440F551FFC0115
:103FA000E40FF51F80819181F801E40FF51F9183E3
:103FB00080836F5FE7CF009711F00E94FE341E836D
:103FC0000D838F81F801E80FF11DE80FF11D329785
:103FD000F182E082DF91CF911F910F91FF90EF90DE
:103FE0000895CF92DF92EF92FF920F931F93CF939A
:103FF000DF93CDB7DEB72C970FB6F894DEBF0FBEB8
:10400000CDBF7C018B016FE074E0CE0107960E946A
:104010005B36F80180899189009711F4C28401C050
:10402000C82ED12CDC14C1F0BE01695F7F4FCE01D8
:1040300001960E9485366CE073E0CE0101960E94E5
:104040009F37BC01CE0107960E947036CE010196C3
:104050000E94F435D394E6CFF80145816481F701DD
:10406000808191810E94B329BE01695F7F4FF70172
:10407000808191810E943D35CE0107960E94F435E2
:104080002C960FB6F894DEBF0FBECDBFDF91CF9157
:104090001F910F91FF90EF90DF90CF900895FF92C6
:1040A0000F931F93CF93DF93EC018D8D8F3F31F4EE
:1040B00066EB74E0888199810E944B35F12CEE8D7E
:1040C000FF8D8481F81690F592818381E92FF82F76
:1040D000EF0DF11DEF0DF11D00811181F8018381BC
:1040E000882311F18281811104C0B801CE0179DFEA
:1040F00019C0F80120893189828593858217930739
:1041000018F4B801CE016DDFF80145816481888122
:1041100099810E94B329B8016A5F7F4F8881998194
:104120000E943D35F8011382F394C9CF4B816A8117
:1041300088819981DF91CF911F910F91FF900C940D
:10414000B329DF92EF92FF920F931F93CF93DF93E8
:10415000EC017F8F6E8F10E001E0EE8DFF8D84818A
:104160001817C0F492818381E92FF82FE10FF11D18
:10417000E10FF11D80819181DC01ED91FC910480C2
:10418000F581E02D1995019719F0EE8DFF8D0583CE
:104190001F5FE3CF8C8D8F3F31F02481888199811F
:1041A00021111AC01CC05F8180E090E040E08517BB
:1041B00080F4AD81BE819C01220F331FA20FB31F7B
:1041C0002D913C912E173F0711F48D8F41E0019600
:1041D000EECF4111E2CF60C02581211104C01C82C5
:1041E0000E94492A3EC021E02C830E94482A44E6CE
:1041F000E42E54E6D52EF12CEE8DFF8D8481F81639
:1042000070F592818381E92FF82FEF0DF11DEF0DED
:10421000F11D00811181D801ED91FC910480F5819F
:10422000E02DC80119950197C1F0F8014581242FAF
:1042300030E08E2D992787FD90952817390731F4A6
:10424000248130E08D2D992787FD90952817390717
:1042500024F4D8011496DC90E42EF394CDCFDA82C6
:10426000EB82AE8DBF8D80E021E014969C91149777
:10427000891790F412963C91129713969C9113977C
:10428000E32FF92FE80FF11DE80FF11D0190F081E8
:10429000E02D23838F5FE9CFDF91CF911F910F91A5
:1042A000FF90EF90DF900895CF93DF93EC0188812A
:1042B00099810E94A9296E8D7F8DCE01DF91CF91CA
:1042C00040CFCF92DF92FF920F931F93CF93DF9354
:1042D0001F921F92CDB7DEB76C01DC0190968D91D5
:1042E0009C919197892B09F06DC04FEF6FEFF12CE6
:1042F000D6015E96ED91FC915F978481F81608F0E7
:104300004DC092818381E92FF82FEF0DF11DEF0D44
:10431000F11D00811181D801ED91FC910480F5819E
:10432000E02DC80149836A83199549816A81019703
:1043300099F1F8015581852F90E0D60113962C91C3
:104340001397332727FD3095821793076CF0821758
:10435000930711F5E481F0E012962C91332727FDA5
:104360003095E217F307C4F4242F332727FD309547
:10437000281739076CF08217930771F4F80124812C
:1043800030E0862F992787FD90958217930724F4B4
:10439000D80114966C91452FF394AACF6F3F91F0FA
:1043A00012966C93129713964C9313978D919C9140
:1043B0000F900F90DF91CF911F910F91FF90DF90A1
:1043C000CF90D1C70F900F90DF91CF911F910F9198
:1043D000FF90DF90CF900895CF92DF92FF920F93DE
:1043E0001F93CF93DF931F921F92CDB7DEB76C015F
:1043F000DC0190968D919C919197892B09F06DC06D
:104400004DE76DE7F12CD6015E96ED91FC915F973B
:104410008481F81608F04DC092818381E92FF82F2E
:10442000EF0DF11DEF0DF11D00811181D801ED910E
:10443000FC910480F581E02DC80149836A831995B8
:1044400049816A81019799F1F8015581852F90E0A2
:10445000D60113962C911397332727FD30952817F3
:1044600039076CF08217930711F5E481F0E012969A
:104470002C91332727FD30952E173F07C4F4242FA6
:10448000332727FD3095821793076CF08217930727
:1044900071F4F801248130E0862F992787FD9095EB
:1044A0002817390724F4D80114966C91452FF394FA
:1044B000AACF6D3791F012966C93129713964C9386
:1044C00013978D919C910F900F90DF91CF911F9139
:1044D0000F91FF90DF90CF9046C70F900F90DF9124
:1044E000CF911F910F91FF90DF90CF9008950F9380
:1044F0001F93CF93DF93EC01EE8DFF8D8481882392
:10450000E1F185818823C9F18091E50A81110DC00F
:104510000E947F306093B70A7093B80A8093B90AFB
:104520009093BA0A81E08093E50A0E947F3000915F
:10453000B70A1091B80A2091B90A3091BA0A601BE3
:10454000710B820B930B653F714081059105A8F0BB
:104550000E947F306093B70A7093B80A8093B90ABB
:104560009093BA0A2C8188819981211104C021E09D
:104570002C838ED702C01C828CD788A199A1892B4D
:1045800009F43EC08091DD0A81110DC00E947F3088
:104590006093B30A7093B40A8093B50A9093B60AF5
:1045A00081E08093DD0A0E947F300091B30A109170
:1045B000B40A2091B50A3091B60A601B710B820BC8
:1045C000930B693C710581059105D0F00E947F3005
:1045D0006093B30A7093B40A8093B50A9093B60AB5
:1045E000E8A1F9A181E083839281911102C08283C5
:1045F00001C01282CE01DF91CF911F910F914FCD5B
:10460000DF91CF911F910F910895EF92FF920F9339
:104610001F93CF93DF93EC01E12CFF24F394EE8DF5
:10462000FF8D8481E81608F069C092818381E92FAB
:10463000F82FEE0DF11DEE0DF11D008111812A8183
:10464000332727FD3095D80114968C91149790E06C
:104650002817390709F050C02B81332727FD3095E3
:1046600015968C91159790E02817390709F044C0EA
:10467000ED91FC910480F581E02DC80119958230FF
:10468000910511F18330910541F1892BA9F58881BC
:1046900099815FD68C8D8F5F8C8FFE01B2E08B028B
:1046A000E00DF11D11248E8D9F8D91878087F8017B
:1046B00062897389CE0145DDCE01DF91CF911F91D3
:1046C0000F91FF90EF90EBCCD8015296ED91FC91B9
:1046D0005397309789F019950FC019A308A3F801D3
:1046E0008689811102C0F68A07C0168AF282F38297
:1046F000CE01D5DC19A218A2E39491CFDF91CF911E
:104700001F910F91FF90EF900895CF93DF93EC01ED
:1047100088A199A1892B79F5888199811AD68C8DE8
:104720008F3FC1F48D8D8F5F8D8F2F8130E0992762
:1047300087FD90952817390709F41D8E8D8D880FF8
:10474000990BED81FE81E80FF91F60817181CE0127
:10475000F8DC0DC0FE0192E08902E00DF11D11248C
:1047600060857185CE01EDDC8C8D81508C8FCE0102
:10477000DF91CF9194CCDF91CF910895EF92FF928A
:104780000F931F93CF93DF93EC017B018C010A5FA2
:104790001F4FB8010C960E947036B701C8010E94E5
:1047A000703681E08B83DF91CF911F910F91FF9045
:1047B000EF900895FC01648345830895FC018CEC1F
:1047C00094E091838083148215820895EF92FF9282
:1047D0000F931F93CF93DF93EC017B018C818F5F4D
:1047E0008C8390E0880F991F0E94FC348C0160E05C
:1047F000462F50E02C8130E0215031098A819B8185
:104800004217530774F4440F551FFC01E40FF51FC2
:1048100080819181F801E40FF51F918380836F5FA0
:10482000E7CF009711F00E94FE341B830A838C812E
:10483000F801E80FF11DE80FF11D3297F182E082D7
:10484000DF91CF911F910F91FF90EF900895AF925C
:10485000BF92CF92DF92EF92FF920F93CF93DF93AD
:10486000CDB7DEB727970FB6F894DEBF0FBECDBF2A
:104870007C016B015A0182EC94E0F7019183808303
:1048800081E0828313826FE074E0C70106962F8374
:104890000E945B366FE074E0C7010C960E945B36A5
:1048A000B701C60193DFB501CE0101960E9485369E
:1048B000BE016F5F7F4FC70161DFCE0101960E948D
:1048C000F4352F81F7012483058327960FB6F894DA
:1048D000DEBF0FBECDBFDF91CF910F91FF90EF9064
:1048E000DF90CF90BF90AF900895CF92DF92EF927C
:1048F000FF920F931F93CF93DF93EC018B014C81B9
:1049000020E030E0EE24EA94FE2C241780F4EA81C3
:10491000FB81C901880F991FE80FF91F80819181E0
:104920008017910709F479012F5F3F4FEECF8FEF8A
:10493000E816F80609F444C0442311F041504C83B2
:104940008C8190E0880F991F0E94FC346C0170E00C
:1049500060E0272F30E04C8150E042175307ACF065
:104960002E153F0581F0220F331FEA81FB81E20FF4
:10497000F31F20813181F601E60FF11DE60FF11DD5
:10498000318320836F5F7F5FE4CF8A819B810097B3
:1049900011F00E94FE34CA82DB820115110581F0FC
:1049A000D801ED91FC910280F381E02DC801DF91E7
:1049B000CF911F910F91FF90EF90DF90CF901994BE
:1049C000DF91CF911F910F91FF90EF90DF90CF90EB
:1049D0000895CF92DF92EF92FF920F93CF93DF93E0
:1049E000CDB7DEB727970FB6F894DEBF0FBECDBFA9
:1049F0007C016B01BA01CE0101962F830E9485369E
:104A00002F81AE014F5F5F4FB601C70120DFCE019E
:104A100001960E94F43584ED94E0D7018D939C9328
:104A200086E090E00E94FB34FC0186E0DF011D92ED
:104A30008A95E9F7148215828CE994E0918380834A
:104A4000D7015396FC93EE93529727960FB6F8949E
:104A5000DEBF0FBECDBFDF91CF910F91FF90EF90E2
:104A6000DF90CF900895CF92DF92EF92FF920F9355
:104A7000CF93DF93CDB7DEB727970FB6F894DEBF9D
:104A80000FBECDBF7C016B01BA01CE0101962F8311
:104A90000E9485362F81AE014F5F5F4FB601C7017F
:104AA000D6DECE0101960E94F4358EED94E0F7013A
:104AB0009183808327960FB6F894DEBF0FBECDBFDB
:104AC000DF91CF910F91FF90EF90DF90CF900895FD
:104AD000FC0174A363A30895FC0165A176A187A1DD
:104AE00090A50895BF92CF92DF92EF92FF920F931D
:104AF0001F93CF93DF93CDB7DEB72C970FB6F89403
:104B0000DEBF0FBECDBF8C016B016FE074E0CE0144
:104B100007960E945B36F801238D348D458D568DA6
:104B20006789708D818D928D0E944D3A1816A4F17F
:104B30007801F6E0EF0EF11CB701C8010C960E9457
:104B40007036BE01695F7F4FCE0101960E948536A7
:104B5000B601CE0101960E948E37BC01C7010E94AA
:104B60007036CE0101960E94F43581E0F80183830E
:104B7000CE0107960E94F4352C960FB6F894DEBF4E
:104B80000FBECDBFDF91CF911F910F91FF90EF909E
:104B9000DF90CF90BF900895B12CF8016789708D98
:104BA000818D928D0E946A394AE0CE0101960E9461
:104BB000CE36ED80FE80F60184819581E81AF90AEF
:104BC000CE0101960E94F4358B2D90E08E159F0545
:104BD00008F0AECFBE01695F7F4FCE0101960E9403
:104BE000853660EA73E0CE0101960E949F37BC01D2
:104BF000CE0107960E947036CE0101960E94F435D0
:104C0000B394CBCF4F925F926F927F928F929F928D
:104C1000AF92BF92CF92DF92EF920F93CF93DF9339
:104C2000CDB7DEB72B970FB6F894DEBF0FBECDBF62
:104C30006C013B0149015A01202F0E2D6FE074E0F9
:104C4000CE0101962B870E945B362B85AE014F5F0C
:104C50005F4FB301C601FBDDCE0101960E94F43522
:104C600088EE94E0F60191838083178A108E118E6E
:104C7000128E138E148E158E168EC501B4010E94ED
:104C80006A396F83788789879A872F813885B90138
:104C9000882777FD8095982F0E949D399B01AC0154
:104CA000C501B4010E94993820E030E0A9010E94BA
:104CB000FE38811105C080E090E0A0E8BFE31AC093
:104CC0002AE037ED43E25CE3C501B4010E940239FA
:104CD0000E946A39CB016AE070E00E94B43A811107
:104CE00005C08DEC9CECACECBDE304C08AE097ED14
:104CF000A3E2BCE3F601828B938BA48BB58BF60108
:104D000085A296A2A7A2B0A6428853886488758817
:104D1000C301B2010E946A39882777FD8095982FD8
:104D20000E949D399B01AC01C301B2010E949938D8
:104D300020E030E0A9010E94FE38811108C04AE05D
:104D40006F817885CE0101960E94CE3607C022E0A1
:104D5000B501A401CE0101960E94F836BE016F5F35
:104D60007F4FC601BFDECE0101960E94F435F601E9
:104D7000168A10A2178E12A211A214A213A22B96A9
:104D80000FB6F894DEBF0FBECDBFDF91CF910F916C
:104D9000EF90DF90CF90BF90AF909F908F907F90DB
:104DA0006F905F904F900895CF92DF92EF92FF92B5
:104DB0000F931F93CF93DF9300D000D0CDB7DEB712
:104DC0008C01DC0195964D935D936D937C93989740
:104DD0009196ED91FC919297309721F04083518309
:104DE00062837383F801E3A0F4A0E114F10449F0B5
:104DF00065A176A187A190A50E946F39D7016D9317
:104E00007C93D8015F96ED91FC919097309709F0D3
:104E10001995F801C288D388E488F588C701B601DE
:104E20000E946A39882777FD8095982F0E949D39C6
:104E30009B01AC01C701B6010E94993820E030E027
:104E4000A9010E94FE3881110FC0D80195966D917D
:104E50007D918D919C9198970E946A394AE0CE018C
:104E600001960E94CE360AC0F80145A156A167A15D
:104E700070A522E0CE0101960E94F836BE016F5F58
:104E80007F4FC8012FDECE0101960E94F435269691
:104E90000FB6F894DEBF0FBECDBFDF91CF911F914B
:104EA0000F91FF90EF90DF90CF9008958F929F9297
:104EB000AF92BF92CF92DF92EF92FF920F931F9328
:104EC000CF93DF9300D000D0CDB7DEB78C01DC01EB
:104ED00052962D913D914D915C91559795966D917E
:104EE0007D918D919C9198970E949938F80165A3C6
:104EF00076A387A390A7838C948CA58CB68CA501F0
:104F000094010E94FE3887FF14C0D8015796CD90B7
:104F1000DD90ED90FC905A97A7019601C501B40170
:104F20000E94FE3887FF05C0F801C5A2D6A2E7A2FD
:104F3000F0A6D80191962D913C91929721153105BB
:104F400059F095968D919D910D90BC91A02DF901F0
:104F500080839183A283B383D8019396ED90FC90D4
:104F60009497E114F10459F095966D917D918D918E
:104F70009C9198970E946F39F70171836083D801E3
:104F80005F96ED91FC919097309709F01995F80193
:104F9000C288D388E488F588C701B6010E946A39BF
:104FA000882777FD8095982F0E949D399B01AC0141
:104FB000C701B6010E94993820E030E0A9010E94A3
:104FC000FE3881110FC0D80195966D917D918D911C
:104FD0009C9198970E946A394AE0CE0101960E94FE
:104FE000CE360AC0F80145A156A167A170A522E0FE
:104FF000CE0101960E94F836BE016F5F7F4FC80157
:1050000071DDCE0101960E94F43526960FB6F89414
:10501000DEBF0FBECDBFDF91CF911F910F91FF90EB
:10502000EF90DF90CF90BF90AF909F908F900895BA
:10503000CF93DF93EC0188A199A1009729F036DF87
:10504000CE01DF91CF912BC8DF91CF9108958F9240
:105050009F92AF92BF92CF92DF92EF92FF920F9307
:105060001F93CF93DF9300D000D0CDB7DEB78C0174
:10507000DC0152962D913D914D915C9155979596FD
:105080006D917D918D919C9198970E949A38F8012D
:1050900065A376A387A390A78788908CA18CB28CF8
:1050A000A50194010E944D3A1816A4F4D8015B960C
:1050B000CD90DD90ED90FC905E97A5019401C70125
:1050C000B6010E94FE3887FF05C0F801C5A2D6A22E
:1050D000E7A2F0A6D80191962D913C9192972115C7
:1050E000310559F095968D919D910D90BC91A02D13
:1050F000F90180839183A283B383D8019396ED90C5
:10510000FC909497E114F10459F095966D917D917E
:105110008D919C9198970E946F39F70171836083FC
:10512000D8015F96ED91FC919097309709F0199511
:10513000F801C288D388E488F588C701B6010E94C7
:105140006A39882777FD8095982F0E949D399B01A9
:10515000AC01C701B6010E94993820E030E0A901F6
:105160000E94FE3881110FC0D80195966D917D91F6
:105170008D919C9198970E946A394AE0CE010196E0
:105180000E94CE360AC0F80145A156A167A170A5BC
:1051900022E0CE0101960E94F836BE016F5F7F4F7C
:1051A000C801A0DCCE0101960E94F43526960FB608
:1051B000F894DEBF0FBECDBFDF91CF911F910F914D
:1051C000FF90EF90DF90CF90BF90AF909F908F9027
:1051D0000895CF93DF93EC0188A199A1009731F056
:1051E00036DFCE01DF91CF910C944F20DF91CF912C
:1051F0000895CF92DF92EF92FF920F93CF93DF93B8
:10520000CDB7DEB727970FB6F894DEBF0FBECDBF80
:105210007C016B01BA01CE0101962F830E94853675
:105220002F81AE014F5F5F4FB601C70110DBCE018A
:1052300001960E94F43582EF94E0F7019183808318
:10524000138A128A27960FB6F894DEBF0FBECDBF21
:10525000DF91CF910F91FF90EF90DF90CF90089565
:105260001092C20A8FEF8093D70A8093D80A0895CC
:10527000FC01138212828CEF94E09183808364831B
:1052800041872287138608951F93CF93DF93EC0104
:10529000162F6C8182EF99E00E94431CE091F20985
:1052A000F091F3096B85612B0190F081E02D82EF85
:1052B00099E0199582EF99E0DF91CF911F910C94BD
:1052C000601C28E0FC01238760E0DECF1F93CF93B2
:1052D000DF93EC01162F6460D7DF81E090E063D7A5
:1052E000612F6B7FCE01D0DF82E390E0DF91CF9121
:1052F0001F9159C71F93CF93DF93EC01162FC4DF83
:10530000612FCE01DF91CF911F91E0CFEF92FF92FD
:105310001F93CF93DF931F92CDB7DEB77C01162F7B
:10532000607F642B4983E6DF80E1189FB001112480
:105330004981642BC7010F90DF91CF911F91FF909E
:10534000EF90D8CF41E0E2DF81E090E0089540E0C7
:10535000DDCF61E0FCDF80ED97E025C762E0F7DF9D
:1053600080ED97E020C7CF93DF93CDB7DEB72897C6
:105370000FB6F894DEBF0FBECDBF28E0ECE0F2E040
:10538000DE01119601900D922A95E1F7FC0120852E
:10539000241710F44FEF420FFE013196E40FF11D78
:1053A000E40FF11D2081260F2068622F28960FB68A
:1053B000F894DEBF0FBECDBFDF91CF91C8CFFC0107
:1053C0006681262F246026836C60C1CFFC01668134
:1053D0006D7F66836860BBCFFC016681262F2260EB
:1053E00026836A60B4CFCF93DF93EC01423018F08C
:1053F0008D8188608D834887222329F0413019F4FC
:105400008D8184608D8362E370E080E090E0A6D6B9
:105410006B85CE0139DF68EE73E080E090E09ED6C8
:1054200060E3CE0167DF84E991E1BDD660E3CE01A0
:1054300061DF84E991E1B7D660E3CE015BDF86E905
:1054400090E0B1D660E2CE0155DF6D816062CE01A1
:105450007EDF84E08E83CE01B2DFCE017ADF82E090
:105460008F8366E0CE0173DFCE01DF91CF9176CFDF
:10547000CF93DF93EC0182EF99E00E942C1C1D82F8
:1054800020E04A856985CE01DF91CF91ACCFF0CF86
:10549000A3CF9CCF0F931F93CF93DF9300D000D067
:1054A000CDB7DEB78C01FC011382128216826FE049
:1054B00074E008960E945B3689E09BE0F8019183D6
:1054C000808326E040E855E260E070E00E943833D7
:1054D0006FE074E0CE0101960E945B36F8011682FF
:1054E00015821482CE0101960E94F43526960FB6DD
:1054F000F894DEBF0FBECDBFDF91CF911F910F910A
:105500000895CF92DF92EF92FF920F931F93CF9364
:10551000DF9300D000D0CDB7DEB78C017B016A01EC
:10552000FC011382128216826FE074E008960E94DA
:105530005B36F801F182E082A60160E070E026E0CF
:10554000C7010E9438336FE074E0CE0101960E94DB
:105550005B36F801168215821482CE0101960E94F4
:10556000F43526960FB6F894DEBF0FBECDBFDF919F
:10557000CF911F910F91FF90EF90DF90CF90089502
:105580000F931F93CF93DF938C01FC01848195814E
:105590000097D9F0FC013297208131814CE0429F85
:1055A000E001439FD00D1124C80FD91FCE01F8018F
:1055B000248135812C978217930721F0CE010E9418
:1055C000F435F4CF02970E94FE34C8010896DF91AB
:1055D000CF911F910F910C94F435FB01DC011396D0
:1055E0007C936E93129760E070E026E0CF010C94FC
:1055F00038336F927F928F929F92AF92BF92CF92E9
:10560000DF92EF92FF920F931F93CF93DF93EC0102
:105610005B016A018E818F5F8E83882E912C2CE036
:10562000829FC001112402960E94FC34FC018192E9
:1056300091928F01612C712C7F01FFEF6F1A7F0A0D
:10564000C40186199709019669F06FE074E0C801FA
:105650000E945B36F8011782168211861086045F5D
:105660001F4FEBCF712C272D30E08E8190E00197FA
:105670008C809D802817390704F53CE0739E8001DB
:105680001124800E911E0E0D1F1DB401C8010E9431
:105690007036F40186819781F80197838683F4013F
:1056A00080859185F80191878087F40182859385B3
:1056B000F801938782877394D6CF81149104D9F02F
:1056C000F4013297808191812CE0289F8001299FED
:1056D000100D1124080D191DC8012C813D810C509D
:1056E00011098217930721F0C8010E94F435F4CF05
:1056F00002970E94FE34FD82EC828E8197014CE07D
:10570000849F200D311D1124C901B5010C970E9401
:105710007036EC81FD818E81DF019CE0899FA00DB8
:10572000B11D11241C971796DC92CE9216978E818C
:10573000DF012CE0829FA00DB11D11241C9719964A
:105740001C921E9218978E813CE0839FE00DF11D04
:1057500011243C9713861286DF91CF911F910F91F0
:10576000FF90EF90DF90CF90BF90AF909F908F9081
:105770007F906F9008956F927F928F929F92AF92D9
:10578000BF92CF92DF92EF92FF920F931F93CF932E
:10579000DF93EC015B016A018E818F5F8E83882E1F
:1057A000912C2CE0829FC001112402960E94FC34AF
:1057B000FC01819291928F01612C712C7F01FFEF8E
:1057C0006F1A7F0AC40186199709019669F06FE084
:1057D00074E0C8010E945B36F801178216821186B8
:1057E0001086045F1F4FEBCF712C272D30E08E8188
:1057F00090E001978C809D802817390704F53CE0E4
:10580000739E80011124800E911E0E0D1F1DB40188
:10581000C8010E947036F40186819781F801978350
:105820008683F40180859185F80191878087F40152
:1058300082859385F801938782877394D6CF8114EC
:105840009104D9F0F4013297808191812CE0289F56
:105850008001299F100D1124080D191DC8012C81EC
:105860003D810C5011098217930721F0C8010E9455
:10587000F435F4CF02970E94FE34FD82EC828E81D3
:1058800097014CE0849F200D311D1124C901B50101
:105890000C970E947036EC81FD818E81DF019CE0C7
:1058A000899FA00DB11D11241C9719961C921E9260
:1058B00018978E81DF012CE0829FA00DB11D11246D
:1058C0001C9717961C921E9216978E813CE0839F20
:1058D000E00DF11D11243C97D386C286DF91CF9154
:1058E0001F910F91FF90EF90DF90CF90BF90AF90FE
:1058F0009F908F907F906F900895AF92BF92CF92BC
:10590000DF92EF92FF920F931F93CF93DF9300D01C
:1059100000D0CDB7DEB78C017C0188E0E80EF11C29
:10592000F80180819181DC01ED91FC910480F58189
:10593000E02D1995892B01F1D8018D919C91DC0105
:10594000ED91FC910680F781E02D1995D82EF80194
:1059500082819381009719F06D2D0E944C35FAE0F9
:10596000DF1205C081E0D80117968C9305C06D2D1C
:10597000C7010E945037D4CFF8018781882309F4EA
:105980007AC0B12CC80108967C01F8018681B8164E
:1059900008F069C09CE0B99E60011124D8011496FA
:1059A000ED91FC911597EC0DFD1D2481358140E0B2
:1059B00050E0B701CE0101960E944B38F801848176
:1059C0009581BE016F5F7F4F8C0D9D1D0E94F23748
:1059D000A82ECE0101960E94F435AA2009F441C0F8
:1059E000D8011496ED91FC911597EC0DFD1DC08426
:1059F000D184C114D104D9F01C962D913C911D97EE
:105A0000448155814F5F5F4FB701CE0101960E94DF
:105A10004B38CE0101960E948E38F6016083718367
:105A200082839383CE0101960E94F4351AC0628569
:105A300073856115710589F0D8011C964D915C91B3
:105A40001D974F5F5F4F84819581481B590B25E05F
:105A500030E0C7010E94223804C00680F781E02DA3
:105A60001995B39492CF6FE074E0C7010E948D3610
:105A7000D80117961C9226960FB6F894DEBF0FBE7B
:105A8000CDBFDF91CF911F910F91FF90EF90DF90ED
:105A9000CF90BF90AF900895AF92BF92CF92DF9218
:105AA000EF92FF920F931F93CF93DF93EC017B0153
:105AB000D42E89819A81009709F0A0D78D819E818B
:105AC000009709F09BD78F819885009709F096D7AA
:105AD0008B819C81009709F091D7D8820D2D10E021
