:10000000B6C10000E5C10000E3C10000E1C100008D
:10001000DFC10000DDC10000DBC10000D9C100006C
:10002000D7C10000D5C10000D3C10000D1C100007C
:10003000CFC10000CDC10000CBC100000C94C91C91
:10004000C7C10000C5C10000C3C10000C1C100009C
:10005000BFC10000BDC10000BBC100000C94061D63
:10006000B7C100000C9469200C949F20B1C100001E
:10007000AFC10000ADC10000ABC10000A9C10000CC
:10008000A7C10000A5C10000A3C10000A1C10000DC
:100090000C9414210C944A219BC100000C947E0CFA
:1000A00097C1000095C1000093C1000091C10000FC
:1000B0008FC100008DC100008BC1000089C100000C
:1000C00087C1000085C1000083C1000081C100001C
:1000D0007FC100007DC100007BC1000079C100002C
:1000E00077C100002A1E2D1E1C1E201E261E641E07
:1000F000311E351E3B1E3F1E431E491E4D1E511E06
:10010000641E571E5B1E5F1E00000A0B02090C0DC9
:100110000E080703040100000000000000000000BA
:1001200000000000000000000000000000000000CF
:10013000000000001211100000000000000000008C
:1001400000000000000000000000000000000102AC
:1001500010202008081020401020408002010201D9
:100160000804020101020408102040808040201091
:1001700008040201800402018040201008040201EA
:100180000804020101020408102040800102040852
:10019000102040800505050507050808080802022B
:1001A00002020A0A08080404040401010101010111
:1001B00001010303030303030303040707070C0CF4
:1001C0000C0C0C0C0C0C02020202060606060606BB
:1001D00006060B0B0B0B0B0B0B0B00002000230078
:1001E000260029002C002F0032000001000003012E
:1001F0000601090100002200250028002B002E0026
:100200003100340002010000050108010B0100006B
:100210002100240027002A002D00300033000101B6
:100220000000040107010A014E414E494E4954594C
:10023000494E46CDCCCC3D0AD7233C17B7D13877B1
:10024000CC2B329595E6241FB14F0A0000204100C7
:1002500000C84200401C4620BCBE4CCA1B0E5AAE11
:10026000C59D7400407A10F35A00A0724E18090020
:1002700010A5D4E80000E87648170000E40B54020B
:100280000000CA9A3B000000E1F505000080969846
:1002900000000040420F000000A086010000001096
:1002A0002700000000E803000000006400000000D8
:1002B000000A00000000000100000000002C76D8B9
:1002C00088DC674F0823DFC1DFAE59E1B1B796E59F
:1002D000E3E453C63AE651997696E8E6C28426EB03
:1002E000898C9B62ED407C6FFCEFBC9C9F40F2BA16
:1002F000A56FA5F490055A2AF75C936B6CF9676DAE
:10030000C11BFCE0E40D47FEF520E6B500D0ED9002
:100310002E0300943577050080841E080000204ECF
:100320000A000000C80C333333330F986E12831168
:1003300041EF8D2114893BE65516CFFEE6DB18D13F
:10034000844B381BF77C1D901DA4BBE42420328411
:10035000725E228100C9F124ECA1E53D2700B40AB8
:100360009D0BB50D7717F51CD1207C21CA0A1124ED
:100370001FBECFEFD1E2DEBFCDBF00E00CBF12E069
:10038000A0E0B2E0E2EAFAE500E00BBF02C00790AD
:100390000D92AC3FB107D9F726E0ACEFB2E001C057
:1003A0001D92A23AB207E1F713E0CCE6D3E000E0F9
:1003B00006C022970109FE010BBF0E94BA26CE3566
:1003C000D10780E00807A9F70E94C0210C94402DB6
:1003D00017CECF93DF93CDB7DEB76E970FB6F894F5
:1003E000DEBF0FBECDBF4AE060911E04CE0149962C
:1003F0000E94D3224AE060911D04CE0143960E94E0
:10040000D3224AE060911C04CE010D960E94D322B3
:100410008D8D9E8D019709F56AE272E0CE010796F7
:100420000E948B22BE01695F7F4FCE0101960E9420
:10043000B522BE01675E7F4FCE0101960E949323D5
:10044000BC01CE0149960E94A022CE0101960E94D5
:100450002422CE0107960E9424228F89988D01972D
:1004600009F56AE272E0CE0107960E948B22BE0176
:10047000695F7F4FCE0101960E94B522BE016D5E7D
:100480007F4FCE0101960E949323BC01CE0143967B
:100490000E94A022CE0101960E942422CE0107963E
:1004A0000E94242289899A89019709F56AE272E0FB
:1004B000CE0107960E948B22BE01695F7F4FCE015D
:1004C00001960E94B522BE01635F7F4FCE01019667
:1004D0000E949323BC01CE010D960E94A022CE0162
:1004E00001960E942422CE0107960E942422BE017A
:1004F000675E7F4FCE0107960E94B52264E172E0ED
:10050000CE0107960E94A423BE016D5E7F4F0E941C
:10051000932364E172E00E94A423BE01635F7F4FD6
:100520000E949323BC01CE0101960E94B522BE0118
:100530006F5F7F4F80911404909115040E94F61212
:10054000CE0101960E942422CE0107960E94242209
:10055000CE010D960E942422CE0143960E942422B1
:10056000CE0149960E9424226E960FB6F894DEBF03
:100570000FBECDBFDF91CF910895CF93DF93CDB75D
:10058000DEB7A4970FB6F894DEBF0FBECDBF4AE02A
:1005900060912004CE014F960E94D3224AE06091E0
:1005A0002104CE0149960E94D3228091220490E03A
:1005B0008F31910524F0BC016E51710904C06EE1C8
:1005C00070E0681B790B4AE0CE0107960E94FE227C
:1005D00066E172E0CE010D960E948B22BE01635F40
:1005E0007F4FCE0101960E94B522BE01695F7F4F09
:1005F000CE0101960E949323BC01CE0143960E9436
:10060000B522CE0101960E942422CE010D960E94B1
:100610002422CE0107960E9424228BA19CA101973F
:1006200009F56AE272E0CE0107960E948B22BE01B4
:10063000695F7F4FCE0101960E94B522BE01615EC7
:100640007F4FCE0101960E949323BC01CE014F96AD
:100650000E94A022CE0101960E942422CE0107967C
:100660000E9424228D8D9E8D019709F56AE272E029
:10067000CE0107960E948B22BE01695F7F4FCE019B
:1006800001960E94B522BE01675E7F4FCE010196A2
:100690000E949323BC01CE0149960E94A022CE0164
:1006A00001960E942422CE0107960E942422BE01B8
:1006B000615E7F4FCE0107960E94B52269E172E02C
:1006C000CE0107960E94A423BE01675E7F4F0E9461
:1006D000932369E172E00E94A423BE016D5E7F4F07
:1006E0000E949323BC01CE0101960E94B522BE0157
:1006F0006F5F7F4F80911604909117040E94F6124D
:10070000CE0101960E942422CE0107960E94242247
:10071000CE0143960E942422CE0149960E942422B3
:10072000CE014F960E942422A4960FB6F894DEBF05
:100730000FBECDBFDF91CF91089528E832E0FC01D4
:10074000318320830C941B0ECF93DF93EC01F5DFF4
:10075000CE01DF91CF910C94CE21BF92CF92DF9248
:10076000EF92FF920F931F93CF93DF93CDB7DEB736
:100770002E970FB6F894DEBF0FBECDBF40E855E20E
:1007800062E675E0CE0101960E94D41889819A81B3
:1007900090933E0480933D048B819C819093400410
:1007A00080933F048D819E81909342048093410405
:1007B0008F8180934304888580934404BE01675FE2
:1007C0007F4F85E494E00E94A022CE0101960E9412
:1007D0001F1940E855E26FEF75E0CE0101960E94C7
:1007E000D41889819A819093300480932F048B814F
:1007F0009C8190933204809331048D819E819093EB
:100800003404809333048F818093350488858093EA
:100810003604BE01675F7F4F87E394E00E94A02209
:10082000CE0101960E941F1940E855E26FEF75E076
:100830008DE394E00E944C1940E855E262E675E0D1
:100840008FE294E00E944C1986E090E00E94CC2157
:100850008C0186E0B82EF8018B2D11928A95E9F76C
:10086000C8010E94161398E8C92E92E0D92EF8010B
:10087000D182C08210931B0400931A046BE172E0D2
:10088000CE0101960E948B2282E190E00E94CC2151
:100890007C0160911A0470911B0400E020E0AE011D
:1008A0004F5F5F4F0E946B14F0921904E09218049E
:1008B000CE0101960E94242262E272E0CE010196EE
:1008C0000E948B2282E190E00E94CC217C01609109
:1008D0001A0470911B0428E0AE014F5F5F4F0E9425
:1008E0006B14F0921704E0921604CE0101960E9458
:1008F000242263E272E0CE0101960E948B2282E103
:1009000090E00E94CC217C0160911A0470911B043C
:1009100001E028E0AE014F5F5F4F0E946B14F09240
:100920001504E0921404CE0101960E94242286E070
:1009300090E00E94CC218C01FC011192BA94E9F75D
:100940000E941613F801D182C08210931304009301
:1009500012046CE272E0CE0101960E948B2282E1C9
:1009600090E00E94CC216C016091120470911304FC
:1009700000E027E0AE014F5F5F4F0E946B14D09202
:100980001104C0921004CE0101960E94242265E356
:1009900072E0CE0101960E948B2284E190E00E94D9
:1009A000CC216C01609112047091130402E020E0EC
:1009B000AE014F5F5F4F0E942114D0920F04C0928E
:1009C0000E04CE0101960E9424226CE372E0CE0157
:1009D00001960E948B2284E190E00E94CC216C0160
:1009E000E0910E04F0910F046289738900E023E026
:1009F000AE014F5F5F4F0E942114D0920904C09254
:100A00000804CE0101960E9424226BE472E0CE011C
:100A100001960E948B2284E190E00E94CC216C011F
:100A2000E0910804F09109046289738920E0AE0125
:100A30004F5F5F4F0E944017D092EB03C092EA03D2
:100A4000CE0101960E942422E091EA03F091EB038B
:100A50008FE299E0938B828B6FE472E0CE01019676
:100A60000E948B2282E190E00E94CC216C01E091F7
:100A70000E04F0910F046289738901E020E0AE0159
:100A80004F5F5F4F0E946B14D0920704C092060420
:100A9000CE0101960E94242283E290E00E94CC21A4
:100AA0006C01E0910E04F0910F0462897389EE24C9
:100AB000E3940AE02AE037ED44E052E40E94301566
:100AC000D0920304C0920204F6E1CF0ED11CD09262
:100AD000A903C092A80368E572E0CE0101960E94C6
:100AE0008B2282E190E00E94CC216C01E0910E0407
:100AF000F0910F046289738902E020E0AE014F5F3C
:100B00005F4F0E946B14D0920504C0920404CE0182
:100B100001960E94242283E290E00E94CC216C0185
:100B2000E0910E04F0910F046289738922E0E22EB5
:100B30000AE02DEC3CEC40E752E40E943015D092E4
:100B40000104C092000486E1C80ED11CD092AB0310
:100B5000C092AA0361E672E0CE0101960E948B2248
:100B600084E190E00E94CC216C01609112047091AC
:100B7000130402E027E0AE014F5F5F4F0E94211493
:100B8000D0920D04C0920C04CE0101960E94242242
:100B90006CE372E0CE0101960E948B2284E190E02A
:100BA0000E94CC216C01E0910C04F0910D0462894B
:100BB000738900E023E0AE014F5F5F4F0E94211474
:100BC000D092FF03C092FE03CE0101960E94242220
:100BD0006BE472E0CE0101960E948B2284E190E0EA
:100BE0000E94CC216C01E091FE03F091FF03628929
:100BF000738920E0AE014F5F5F4F0E944017D09293
:100C0000E903C092E803CE0101960E942422E091FC
:100C1000E803F091E90381E399E0938B828B6FE421
:100C200072E0CE0101960E948B2282E190E00E9448
:100C3000CC216C01E0910C04F0910D046289738960
:100C400001E020E0AE014F5F5F4F0E946B14D09235
:100C5000FD03C092FC03CE0101960E94242283E290
:100C600090E00E94CC216C01E0910C04F0910D0405
:100C700062897389EE24E3940AE020E030E044E0E6
:100C800052E40E943015D092F903C092F803E6E1D5
:100C9000CE0ED11CD092C603C092C50368E572E0A7
:100CA000CE0101960E948B2282E190E00E94CC212D
:100CB0006C01E0910C04F0910D046289738902E0EB
:100CC00020E0AE014F5F5F4F0E946B14D092FB0398
:100CD000C092FA03CE0101960E94242283E290E0A2
:100CE0000E94CC216C01E0910C04F0910D0462890A
:100CF000738932E0E32E0AE020E030E040E752E47E
:100D00000E943015D092F703C092F603F6E1CF0EA1
:100D1000D11CD092C803C092C70368E672E0CE012E
:100D200001960E948B2284E190E00E94CC216C010C
:100D3000609112047091130402E02EE0AE014F5F47
:100D40005F4F0E942114D0920B04C0920A04CE017E
:100D500001960E9424226CE372E0CE0101960E946B
:100D60008B2284E190E00E94CC216C01E0910A0486
:100D7000F0910B046289738900E023E0AE014F5FBC
:100D80005F4F0E942114D092F503C092F403CE016C
:100D900001960E9424226BE472E0CE0101960E942B
:100DA0008B2284E190E00E94CC216C01E091F4035D
:100DB000F091F5036289738920E0AE014F5F5F4FC8
:100DC0000E944017D092E703C092E603CE0101963D
:100DD0000E942422E091E603F091E70383E399E087
:100DE000938B828B6FE472E0CE0101960E948B227E
:100DF00082E190E00E94CC216C01E0910A04F09124
:100E00000B046289738901E020E0AE014F5F5F4F00
:100E10000E946B14D092F303C092F203CE010196AC
:100E20000E94242283E290E00E94CC216C01E09198
:100E30000A04F0910B0462897389EE24E3940AE0BA
:100E400020E030E044E052E40E943015D092EF03FD
:100E5000C092EE0386E1C80ED11CD092E303C0928B
:100E6000E20368E572E0CE0101960E948B2282E1E6
:100E700090E00E94CC216C01E0910A04F0910B04F7
:100E80006289738902E020E0AE014F5F5F4F0E94EC
:100E90006B14D092F103C092F003CE0101960E9430
:100EA000242283E290E00E94CC216C01E0910A04AC
:100EB000F0910B046289738942E0E42E0AE020E09D
:100EC00030E040E752E40E943015D092ED03C0922A
:100ED000EC03E6E1CE0ED11CD092E503C092E40310
:100EE0006FE672E0CE0101960E948B22AE014F5F49
:100EF0005F4F63E274E084E195E037D7CE0101965D
:100F00000E94242260911A0470911B0484E195E0F0
:100F100062D7609112047091130484E195E05BD76D
:100F200060911A0470911B0484E195E00E94DC0F2B
:100F300084E195E0EFD746E066E072E086E495E074
:100F40000E941D1A8FE495E00E94601B48EE53E05A
:100F500069EE71E08FE495E00E94821B48EE53E059
:100F60006DEB72E08FE495E00E94821B8FE495E0C8
:100F70000E94541C2E960FB6F894DEBF0FBECDBF54
:100F8000DF91CF911F910F91FF90EF90DF90CF9065
:100F9000BF9008953F924F925F926F927F928F928F
:100FA0009F92AF92BF92CF92DF92EF92FF920F93F8
:100FB0001F93CF93DF9300D000D0CDB7DEB7182FAB
:100FC000682E712CC30184509D4F6C01FC019081EF
:100FD000963009F42CC1892F8170880F382E330C7C
:100FE000330C380EF92EF694F394113069F038F082
:100FF000123081F4E091F403F091F50309C0E0911F
:101000000804F091090404C0E091FE03F091FF038D
:101010008288938883E290E00E94CC212C01EF2CFF
:10102000032D20E030E040E451E4B4010E9430158B
:10103000F601808196E0969D5001979DB00C112499
:10104000F501E80FF11DB3E0EE0FFF1FBA95E1F7D0
:10105000E150FD4F5182408280E090E0A0E4B1E495
:10106000F201838F948FA58FB68F64E172E0CE0179
:1010700001960E948B2282E190E00E94CC212C01FB
:1010800022E0230D0F2DAE014F5F5F4FB4010E9490
:101090006B14F6018081F501E80FF11D03E0EE0FFE
:1010A000FF1F0A95E1F7E150FD4F53824282CE01C6
:1010B00001960E94242283E290E00E94CC212C0120
:1010C00003E0030D20E030E040E751E4B4010E946A
:1010D0003015F6018081F501E80FF11D83E0EE0F78
:1010E000FF1F8A95E1F7E150FD4F5582448280E071
:1010F00090E0ACE6B2E4F201838F948FA58FB68FB7
:1011000062E872E0CE0101960E948B2284E190E0B9
:101110000E94CC212C0126E0230D0F2DAE014F5F44
:101120005F4FB4010E944017F6018081F501E80F7E
:10113000F11D93E0EE0FFF1F9A95E1F7E150FD4F8F
:1011400057824682CE0101960E942422113039F145
:10115000A0F01230B9F5F6018081F501E80FF11D1C
:1011600063E0EE0FFF1F6A95E1F7E150FD4F068047
:10117000F781E02D8FE59AE023C0F6018081F5012B
:10118000E80FF11DA3E0EE0FFF1FAA95E1F7E15074
:10119000FD4F0680F781E02D8BE59AE011C0F60146
:1011A0008081F501E80FF11D73E0EE0FFF1F7A95C6
:1011B000E1F7E150FD4F0680F781E02D8DE59AE0E3
:1011C000938B828BF60180818F5F80838DE1869D7A
:1011D000D001879DB00D1124FD01E157FC4F8081A6
:1011E00091E0980F9083F4E08F9FA00DB11D112422
:1011F000A157BC4F96E0969DF001979DF00D1124EC
:10120000E80FF11D53E0EE0FFF1F5A95E1F7E15093
:10121000FD4F80819181469612969C938E931197F3
:1012200084819581469614969C938E931397269667
:101230000FB6F894DEBF0FBECDBFDF91CF911F91E7
:101240000F91FF90EF90DF90CF90BF90AF909F9065
:101250008F907F906F905F904F903F90089580E0C7
:1012600099CE81E097CE82E095CE2F923F924F9219
:101270005F926F927F928F929F92AF92BF92CF9226
:10128000DF92EF92FF921F93CF93DF9300D01F92D4
:101290001F92CDB7DEB7E82E20911605822F992731
:1012A00087FD909506976AE070E00E946626309070
:1012B0001705330C3A943A94360E4E2C512C46E0D6
:1012C000E49E70011124F701E30DF11DA3E0EE0F80
:1012D000FF1FAA95E1F7E150FD4F60807180828089
:1012E0009380A480B580C680D780332DB20164502E
:1012F0007D4F7A836983432F50E0A981BA818C9115
:1013000090E00197481759070CF05DC0832F81705A
:10131000880F182F110F110F180F232E26942394C6
:10132000FA013196EE0DFF1D63E0EE0FFF1F6A9587
:10133000E1F7E150FD4F80819181DA01AE0DBF1DD3
:1013400073E0AA0FBB1F7A95E1F7A150BD4FBD8393
:10135000AC8311969C938E934281538113965C9338
:101360004E9312974481558115965C934E93149732
:101370004681578117965C934E931697422D612FA5
:101380003B830E94121362E0610F422DEC81FD81CC
:10139000828193810E94121363E0610F422DAC8120
:1013A000BD8114968D919C9115970E94121366E051
:1013B000610F422DEC81FD81868197810E9412137D
:1013C0003B813F5F98CFE0910804F0910904B3019D
:1013D000828993890E94AD13E0910804F091090479
:1013E000B401828993890E94AD13E0910804F091C1
:1013F0000904B501828993890E94AD13E091080424
:10140000F0910904B601828993890E94AD1384E1A9
:1014100095E085D6E981FA818081815080838DE1D4
:10142000849D9001859D300D1124B90161577C4F39
:10143000A32DB0E0FB014081842F90E00197A81715
:10144000B90704F5FD013196EE0FFF1FEE0FFF1FE8
:10145000E20FF31FE157FC4F81819281AA0FBB1F5E
:10146000AA0FBB1FA20FB31FA157BC4F12969C938C
:101470008E9311978381948114969C938E931397E6
:101480003394D6CF415040830F900F900F900F9020
:101490000F90DF91CF911F91FF90EF90DF90CF9051
:1014A000BF90AF909F908F907F906F905F904F9084
:1014B0003F902F90089580E0D8CE81E0D6CE82E094
:1014C000D4CE8CE194E054C369E086E495E00E94B8
:1014D000B81A882319F084E195E02DD66BE086E4F4
:1014E00095E00E94B81A882319F084E195E0AED601
:1014F0006CE086E495E00E94B81A882321F084E12C
:1015000095E00E9431176AE086E495E00E94B81ADF
:10151000882321F084E195E00E948F1667E086E43D
:1015200095E00E94B81A882321F084E195E00E949A
:10153000BD1268E086E495E00E94B81A882319F08D
:1015400084E195E09CC70895BCDFBEDF84E195E0AF
:1015500008D784E195E0DED48DE394E00E9457192A
:101560008FE294E00C9457198DE394E00E94911857
:101570008FE294E00E94911824E044E167E283E264
:1015800094E00E947F1710928F031092AC03109288
:10159000C90308958FE294E00E941F198DE394E03F
:1015A0000C941F1980917B0490E020917C04821B95
:1015B0009109089520917C0480917B04281750F4B0
:1015C000E22FF0E0E358FB4F808190E02F5F209303
:1015D0007C0408958FEF9FEF0895E0917C04809143
:1015E0007B04E81730F4F0E0E358FB4F808190E093
:1015F00008958FEF9FEF08950895CF92DF92EF92B5
:10160000FF920F931F93CF93DF937C01CB018A014D
:1016100020915704222389F0EB016B01C40ED51EE3
:10162000CC15DD0561F06991D701ED91FC91019038
:10163000F081E02DC7011995F3CF642F36D1C80191
:10164000DF91CF911F910F91FF90EF90DF90CF909E
:101650000895CF93DF931F92CDB7DEB769832091B2
:1016600057042223D1F020915804203240F021E089
:1016700030E0FC013383228380E090E014C080914D
:101680005904E82FF0E0E65AFB4F998190838F5F71
:10169000809359048093580404C061E0CE01019600
:1016A00004D181E090E00F90DF91CF910895FC018B
:1016B0001382128248EE53E060E070E04483558369
:1016C0006683778380E992E0918380830895109206
:1016D0007C0410927B04109259041092580430C07C
:1016E000862F413208F040E26DE774E047D0109257
:1016F0007C0480937B04089521E0F2CF81E0809305
:10170000570460937A041092590410925804089573
:10171000F5CF0F93062F21E0409158046AE574E05D
:1017200080917A046FD0109259041092580410924C
:1017300057040F91089561E0ECCF8BE494E0B7CFAC
:1017400010920A0581E0809308051092070561E078
:1017500084E10E949E1E61E085E10E949E1EE9EBED
:10176000F0E080818E7F808380818D7F808388E41C
:101770008093B80085E48093BC000895413208F05E
:101780003FC090910A059111FCCF91E090930A051A
:10179000209308052FEF20939D041092E204240F5C
:1017A0002093E1049093090590910905880F892BF6
:1017B0008093090580910705813041F41092070557
:1017C000809109058093BB0085EC01C085EE809374
:1017D000BC0080910A058130E1F38091E204841716
:1017E00010F44091E20423EE34E0FB01D9018A2F8A
:1017F000821B841718F48D918193F9CF842F08955B
:1018000080E008950F93413208F046C090910A0598
:101810009111FCCF92E090930A05009308059FEF89
:1018200090939D041092E2044093E104FB0163EE67
:1018300074E0DB019A2F961B941718F491919D93F5
:10184000F9CF1092090590910905880F892B809393
:10185000090580910705813041F4109207058091B8
:1018600009058093BB0085EC01C085EE8093BC0028
:10187000222321F080910A058230E1F380919D04BA
:101880008F3F61F080919D04803251F080919D04E2
:10189000803341F483E007C081E005C080E003C0ED
:1018A00082E001C084E00F910895613298F42091A4
:1018B0000A05243089F46093BF04FC0181EC94E0B4
:1018C000DC012A2F281B261718F421912D93F9CF1C
:1018D00080E0089581E0089582E0089585ED809389
:1018E000BC008091BC0084FDFCCF10920A050895D5
:1018F00085EC8093BC0010920A0508951F920F9208
:101900000FB60F9211240BB60F922F933F934F9364
:101910005F936F937F938F939F93AF93BF93EF9357
:10192000FF938091B900887F803609F49CC068F5E8
:10193000883209F45BC090F4803109F454C038F463
:10194000882309F4F3C0883009F44DC0F2C088310F
:1019500009F44CC0803209F45DC0EBC0803409F456
:1019600068C048F4803309F455C0883309F0E1C0F9
:1019700080939D04A7C0803509F44FC0883509F4D1
:101980005DC0883409F0D5C0D3C0883909F4C4C01B
:10199000A8F4883709F467C038F4883609F463C0BE
:1019A000803709F460C0C5C0883809F4B5C08039F3
:1019B00009F45FC0803809F0BCC05BC0803B09F40B
:1019C00083C038F4803A09F466C0883A09F47CC0D0
:1019D000B0C0803C09F4A4C0883C09F4A1C0883B95
:1019E00009F487C0A6C08091090510C09091E20457
:1019F0008091E104981770F5E091E20481E08E0F88
:101A00008093E204F0E0ED51FB4F80818093BB00B6
:101A100085EC83C080939D048BC0E091E20481E05B
:101A20008E0F8093E2048091BB00F0E0ED51FB4FFC
:101A300080839091E2048091E1046BC0E091E20424
:101A400081E08E0F8093E2048091BB00F0E0ED51C5
:101A5000FB4F80838091080581116AC081E08093EB
:101A6000070584EA5EC083E080930A0510929E0415
:101A7000CFCF80919E04803208F04EC0E0919E044A
:101A800081E08E0F80939E048091BB00F0E0E156D0
:101A9000FB4F8083BDCF80919E04803230F4E09173
:101AA0009E04F0E0E156FB4F108218DF60919E0427
:101AB00070E0E0910305F09104058FE994E0199539
:101AC00010929E0415DF35C084E080930A051092C1
:101AD000C0041092BF04E0910505F0910605199528
:101AE0008091BF04811105C081E08093BF041092F2
:101AF000C104E091C00481E08E0F8093C004F0E047
:101B0000EF53FB4F80818093BB009091C004809184
:101B1000BF04981708F47CCF85E88093BC0009C007
:101B200085EC8093BC0010920A0503C010929D04BE
:101B3000D5DEFF91EF91BF91AF919F918F917F91F2
:101B40006F915F914F913F912F910F900BBE0F902E
:101B50000FBE0F901F901895982F92959F708F70C1
:101B60002AE0929F800D112408958BE494E0AFCD7C
:101B70001F93CF93DF93EC0168E670E08BE494E071
:101B8000C7DD60E08BE494E064DD8BE494E0D3DDBA
:101B9000882319F010920B053CC081E080930B055F
:101BA00047E050E068E670E08BE494E0A5DD8BE46C
:101BB00094E0F8DC07976CF18BE494E0FBDC182FE1
:101BC0008F77CADF88838BE494E0F4DCC5DF8983F8
:101BD0008BE494E0EFDC8F73BFDF8A838BE494E0C7
:101BE000E9DCBADF8B838BE494E0E4DCB5DF8C8343
:101BF0008BE494E0DFDCB0DF8D838BE494E0DADC0F
:101C0000ABDF825E8E83812F8095881F8827881F97
:101C100001C080E0DF91CF911F910895089580E089
:101C200090E0089581E090E0089583E090E00895C9
:101C300082E090E008951F93CF93DF93EC0182EB55
:101C400092E09983888310E02C818A819B8112170E
:101C500090F4FC01E10FF11DE10FF11D80819181F4
:101C6000009739F0DC01ED91FC910280F381E02DC9
:101C700019951F5FE9CF009729F0DF91CF911F9150
:101C80000C94CF21DF91CF911F910895CF93DF93D3
:101C9000EC0188EA92E099838883CE010C960E9439
:101CA0002422CE010696DF91CF910C942422CF936B
:101CB000DF93EC018AEB92E0998388838A899B8980
:101CC000009739F0DC01ED91FC910280F381E02D69
:101CD0001995CE01DF91CF91D9CF28ED32E0FC01EB
:101CE00031832083D3CF2EEC32E0FC01318320837B
:101CF000CDCF24EC32E0FC0131832083C7CFCF93DA
:101D0000DF93EC01C3DFCE01DF91CF910C94CE21A4
:101D1000CF93DF93EC018FDFCE01DF91CF910C9455
:101D2000CE21CF93DF93EC01C2DFCE01DF91CF91C3
:101D30000C94CE21CF93DF93EC01CFDFCE01DF9166
:101D4000CF910C94CE21CF93DF93EC01CCDFCE0169
:101D5000DF91CF910C94CE21CF93DF93EC01C9DFBB
:101D6000CE01DF91CF910C94CE21FF920F931F9360
:101D7000CF93DF93EC01CB018A017983688321E063
:101D80002C83FF24FA94FA82FB820E948E188881A9
:101D900099810E94A817888199810E948F1840E03C
:101DA00060E0888199810E94FA17B8018881998141
:101DB0000E940E2268EE73E080E090E00E947F1D9A
:101DC000888199810E94F017FD8EDF91CF911F913C
:101DD0000F91FF900895EF92FF920F931F93CF936F
:101DE000DF93EC017B018F818F5F8F8390E0880F01
:101DF000991F0E94CD218C0160E0462F50E02F8179
:101E000030E0215031098D819E814217530774F4CF
:101E1000440F551FFC01E40FF51F80819181F801EB
:101E2000E40FF51F918380836F5FE7CF009711F078
:101E30000E94CF211E830D838F81F801E80FF11DD1
:101E4000E80FF11D3297F182E082DF91CF911F916F
:101E50000F91FF90EF900895CF92DF92EF92FF9253
:101E60000F931F93CF93DF93CDB7DEB72C970FB6A9
:101E7000F894DEBF0FBECDBF7C018B0162E272E041
:101E8000CE0107960E948B22F801808991890097E4
:101E900011F4C28401C0C82ED12CDC14C1F0BE01E3
:101EA000695F7F4FCE0101960E94B52261E272E028
:101EB000CE0101960E94A423BC01CE0107960E9488
:101EC000A022CE0101960E942422D394E6CFF801ED
:101ED00045816481F701808191810E94FA17BE01DA
:101EE000695F7F4FF701808191810E940E22CE01B0
:101EF00007960E9424222C960FB6F894DEBF0FBEE0
:101F0000CDBFDF91CF911F910F91FF90EF90DF90A8
:101F1000CF900895FF920F931F93CF93DF93EC011F
:101F20008D8D8F3F31F46CE972E0888199810E9438
:101F30001C22F12CEE8DFF8D8481F81690F5928194
:101F40008381E92FF82FEF0DF11DEF0DF11D0081B9
:101F50001181F8018381882311F18281811104C0EC
:101F6000B801CE0179DF19C0F80120893189828555
:101F700093858217930718F4B801CE016DDFF8013D
:101F800045816481888199810E94FA17B8016A5F4E
:101F90007F4F888199810E940E22F8011382F39469
:101FA000C9CF4B816A8188819981DF91CF911F913F
:101FB0000F91FF900C94FA17DF92EF92FF920F931C
:101FC0001F93CF93DF93EC017F8F6E8F10E001E0C2
:101FD000EE8DFF8D84811817C0F492818381E92FE3
:101FE000F82FE10FF11DE10FF11D80819181DC01DE
:101FF000ED91FC910480F581E02D1995019719F080
:10200000EE8DFF8D05831F5FE3CF8C8D8F3F31F009
:1020100024818881998121111AC01CC05F8180E0D0
:1020200090E040E0851780F4AD81BE819C01220FD5
:10203000331FA20FB31F2D913C912E173F0711F4B0
:102040008D8F41E00196EECF4111E2CF60C0258136
:10205000211104C01C820E9490183EC021E02C83F4
:102060000E948F1844E6E42E54E6D52EF12CEE8D16
:10207000FF8D8481F81670F592818381E92FF82F06
:10208000EF0DF11DEF0DF11D00811181D801ED91D2
:10209000FC910480F581E02DC80119950197C1F0EC
:1020A000F8014581242F30E08E2D992787FD9095EA
:1020B0002817390731F4248130E08D2D992787FDC9
:1020C00090952817390724F4D8011496DC90E42E53
:1020D000F394CDCFDA82EB82AE8DBF8D80E021E02C
:1020E00014969C911497891790F412963C9112972C
:1020F00013969C911397E32FF92FE80FF11DE80F2A
:10210000F11D0190F081E02D23838F5FE9CFDF91F6
:10211000CF911F910F91FF90EF90DF900895CF9393
:10212000DF93EC01888199815BD76E8D7F8DCE0125
:10213000DF91CF9141CFCF92DF92FF920F931F9308
:10214000CF93DF931F921F92CDB7DEB76C01DC01F6
:1021500090968D919C919197892B09F06DC04FEFCE
:102160006FEFF12CD6015E96ED91FC915F97848123
:10217000F81608F04DC092818381E92FF82FEF0DFA
:10218000F11DEF0DF11D00811181D801ED91FC9140
:102190000480F581E02DC80149836A83199549813E
:1021A0006A81019799F1F8015581852F90E0D60158
:1021B00013962C911397332727FD30958217930799
:1021C0006CF08217930711F5E481F0E012962C91E0
:1021D000332727FD3095E217F307C4F4242F332764
:1021E00027FD3095281739076CF08217930771F493
:1021F000F801248130E0862F992787FD909582177A
:10220000930724F4D80114966C91452FF394AACF28
:102210006F3F91F012966C93129713964C9313970D
:102220008D919C910F900F90DF91CF911F910F9105
:10223000FF90DF90CF90DEC60F900F90DF91CF918F
:102240001F910F91FF90DF90CF900895CF92DF9272
:10225000FF920F931F93CF93DF931F921F92CDB7DF
:10226000DEB76C01DC0190968D919C919197892B42
:1022700009F06DC04DE76DE7F12CD6015E96ED914A
:10228000FC915F978481F81608F04DC0928183819C
:10229000E92FF82FEF0DF11DEF0DF11D00811181D8
:1022A000D801ED91FC910480F581E02DC8014983AE
:1022B0006A83199549816A81019799F1F8015581DD
:1022C000852F90E0D60113962C911397332727FD85
:1022D0003095281739076CF08217930711F5E481C0
:1022E000F0E012962C91332727FD30952E173F07EB
:1022F000C4F4242F332727FD3095821793076CF001
:102300008217930771F4F801248130E0862F992712
:1023100087FD90952817390724F4D80114966C91FD
:10232000452FF394AACF6D3791F012966C931297C4
:1023300013964C9313978D919C910F900F90DF9172
:10234000CF911F910F91FF90DF90CF9053C60F90C8
:102350000F90DF91CF911F910F91FF90DF90CF9061
:1023600008950F931F93CF93DF93EC01EE8DFF8DB4
:1023700084818823E1F185818823C9F180913E051C
:1023800081110DC00E94501D6093100570931105BE
:10239000809312059093130581E080933E050E947F
:1023A000501D0091100510911105209112053091DA
:1023B0001305601B710B820B930B653F7140810508
:1023C0009105A8F00E94501D6093100570931105AF
:1023D00080931205909313052C8188819981211196
:1023E00004C021E02C839BD602C01C8299D688A110
:1023F00099A1892B09F43EC08091360581110DC049
:102400000E94501D60930C0570930D0580930E057E
:1024100090930F0581E0809336050E94501D009136
:102420000C0510910D0520910E0530910F05601BD4
:10243000710B820B930B693C710581059105D0F0FE
:102440000E94501D60930C0570930D0580930E053E
:1024500090930F05E8A1F9A181E083839281911106
:1024600002C0828301C01282CE01DF91CF911F9101
:102470000F9150CDDF91CF911F910F910895EF9261
:10248000FF920F931F93CF93DF93EC01E12CFF2476
:10249000F394EE8DFF8D8481E81608F067C0928179
:1024A0008381E92FF82FEE0DF11DEE0DF11D008156
:1024B00011812A81332727FD3095D80114968C91FC
:1024C000149790E02817390709F04EC02B81332765
:1024D00027FD309515968C91159790E028173907B0
:1024E00009F042C0ED91FC910480F581E02DC80116
:1024F00019958230910511F18330910531F1892BC5
:1025000099F5888199816CD58C8D8F5F8C8FFE01B8
:10251000B2E08B02E00DF11D11248E8D9F8D91870D
:102520008087F80162897389CE0146DDCE01DF9193
:10253000CF911F910F91FF90EF90ECCCD801529664
:10254000ED91FC91539719950FC019A308A3F801B9
:10255000828D811102C0F28E07C0128EF282F38248
:10256000CE01D8DC19A218A2E39493CFDF91CF91CA
:102570001F910F91FF90EF900895CF93DF93EC019F
:1025800088A199A1892B79F58881998129D58C8D8C
:102590008F3FC1F48D8D8F5F8D8F2F8130E0992714
:1025A00087FD90952817390709F41D8E8D8D880FAA
:1025B000990BED81FE81E80FF91F60817181CE01D9
:1025C000FBDC0DC0FE0192E08902E00DF11D11243B
:1025D00060857185CE01F0DC8C8D81508C8FCE01B1
:1025E000DF91CF9197CCDF91CF910895EF92FF9239
:1025F0000F931F93CF93DF93EC017B018C010A5F54
:102600001F4FB8010C960E94A022B701C8010E947A
:10261000A02281E08B83DF91CF911F910F91FF90DA
:10262000EF900895FC01648345830895FC0182EBDB
:1026300092E091838083148215820895EF92FF9235
:102640000F931F93CF93DF93EC017B018C818F5FFE
:102650008C8390E0880F991F0E94CD218C0160E04F
:10266000462F50E02C8130E0215031098A819B8136
:102670004217530774F4440F551FFC01E40FF51F74
:1026800080819181F801E40FF51F918380836F5F52
:10269000E7CF009711F00E94CF211B830A838C8122
:1026A000F801E80FF11DE80FF11D3297F182E08289
:1026B000DF91CF911F910F91FF90EF900895AF920E
:1026C000BF92CF92DF92EF92FF920F93CF93DF935F
:1026D000CDB7DEB727970FB6F894DEBF0FBECDBFDC
:1026E0007C016B015A0188EA92E0F70191838083B3
:1026F00081E08283138262E272E0C70106962F8333
:102700000E948B2262E272E0C7010C960E948B222B
:10271000B701C60193DFB501CE0101960E94B52233
:10272000BE016F5F7F4FC70161DFCE0101960E943E
:1027300024222F81F7012483058327960FB6F8946E
:10274000DEBF0FBECDBFDF91CF910F91FF90EF9015
:10275000DF90CF90BF90AF900895CF92DF92EF922D
:10276000FF920F931F93CF93DF93EC018B014C816A
:1027700020E030E0EE24EA94FE2C241780F4EA8175
:10278000FB81C901880F991FE80FF91F8081918192
:102790008017910709F479012F5F3F4FEECF8FEF3C
:1027A000E816F80609F444C0442311F041504C8364
:1027B0008C8190E0880F991F0E94CD216C0170E000
:1027C00060E0272F30E04C8150E042175307ACF017
:1027D0002E153F0581F0220F331FEA81FB81E20FA6
:1027E000F31F20813181F601E60FF11DE60FF11D87
:1027F000318320836F5F7F5FE4CF8A819B81009765
:1028000011F00E94CF21CA82DB820115110581F0EF
:10281000D801ED91FC910280F381E02DC801DF9198
:10282000CF911F910F91FF90EF90DF90CF9019946F
:10283000DF91CF911F910F91FF90EF90DF90CF909C
:102840000895CF92DF92EF92FF920F93CF93DF9391
:10285000CDB7DEB727970FB6F894DEBF0FBECDBF5A
:102860007C016B01BA01CE0101962F830E94B52233
:102870002F81AE014F5F5F4FB601C70120DFCE0150
:1028800001960E9424228AEB92E0D7018D939C93BB
:1028900086E090E00E94CC21FC0186E0DF011D92E1
:1028A0008A95E9F71482158288E892E09183808303
:1028B000D7015396FC93EE93529727960FB6F89450
:1028C000DEBF0FBECDBFDF91CF910F91FF90EF9094
:1028D000DF90CF900895CF92DF92EF92FF920F9307
:1028E000CF93DF93CDB7DEB727970FB6F894DEBF4F
:1028F0000FBECDBF7C016B01BA01CE0101962F83C3
:102900000E94B5222F81AE014F5F5F4FB601C70114
:10291000D6DECE0101960E94242284EC92E0F701DB
:102920009183808327960FB6F894DEBF0FBECDBF8C
:10293000DF91CF910F91FF90EF90DF90CF900895AE
:10294000BF92CF92DF92EF92FF920F931F93CF939C
:10295000DF93CDB7DEB72C970FB6F894DEBF0FBE6E
:10296000CDBF8C016B0162E272E0CE0107960E943E
:102970008B22F801278D30A141A152A1638D748D66
:10298000858D968D0E94FF251816A4F17801F6E03A
:10299000EF0EF11CB701C8010C960E94A022BE01E7
:1029A000695F7F4FCE0101960E94B522B601CE012C
:1029B00001960E949323BC01C7010E94A022CE0170
:1029C00001960E94242281E0F8018383CE010796BC
:1029D0000E9424222C960FB6F894DEBF0FBECDBF06
:1029E000DF91CF911F910F91FF90EF90DF90CF90EB
:1029F000BF900895B12CF801638D748D858D968DEF
:102A00000E941C254AE0CE0101960E94FE22ED8024
:102A1000FE80F60184819581E81AF90ACE010196BB
:102A20000E9424228B2D90E08E159F0508F0AECFDA
:102A3000BE01695F7F4FCE0101960E94B5226AE216
:102A400072E0CE0101960E94A423BC01CE0107963C
:102A50000E94A022CE0101960E942422B394CBCFE3
:102A60004F925F926F927F928F929F92AF92BF929E
:102A7000CF92DF92EF920F93CF93DF93CDB7DEB774
:102A80002B970FB6F894DEBF0FBECDBF6C013B0194
:102A900049015A01202F0E2D62E272E0CE0101960B
:102AA0002B870E948B222B85AE014F5F5F4FB301B6
:102AB000C60105DECE0101960E9424228EEC92E032
:102AC000F60191838083138E148E158E168E178EC9
:102AD00010A211A212A2C501B4010E941C256F838D
:102AE000788789879A872F813885B901882777FD6C
:102AF0008095982F0E944F259B01AC01C501B40120
:102B00000E944B2420E030E0A9010E94B0248111F2
:102B100005C080E090E0A0E8BFE31AC02AE037EDEE
:102B200043E25CE3C501B4010E94B4240E941C2569
:102B3000CB016AE070E00E946626811105C08DEC31
:102B40009CECACECBDE304C08AE097EDA3E2BCE3EF
:102B5000F601828B938BA48BB58BF601868A978ABC
:102B6000A08EB18E4288538864887588C301B201F3
:102B70000E941C25882777FD8095982F0E944F255D
:102B80009B01AC01C301B2010E944B2420E030E064
:102B9000A9010E94B024811108C04AE06F817885A4
:102BA000CE0101960E94FE2207C022E0B501A401D9
:102BB000CE0101960E942823BE016F5F7F4FC601A0
:102BC000BFDECE0101960E942422F601128E2B96C2
:102BD0000FB6F894DEBF0FBECDBFDF91CF910F913E
:102BE000EF90DF90CF90BF90AF909F908F907F90AD
:102BF0006F905F904F9008954F925F926F927F9287
:102C00008F929F92AF92BF92CF92DF92EF92FF92FC
:102C10000F931F93CF93DF9300D000D0CDB7DEB7D3
:102C20008C01FC01C288D388E488F588A70196014D
:102C300066897789808D918D0E944B24F801668B7F
:102C4000778B808F918F478C50A061A072A0A301D9
:102C500092010E94B02487FF12C0F801838C948CEB
:102C6000A58CB68CA5019401C301B2010E94B024C9
:102C700087FF05C0F801868A978AA08EB18EC701AA
:102C8000B6010E941C25882777FD8095982F0E9409
:102C90004F259B01AC01C701B6010E944B2420E0E7
:102CA00030E0A9010E94B024F80181110CC06689AE
:102CB0007789808D918D0E941C254AE0CE01019676
:102CC0000E94FE2209C046895789608D718D22E0DD
:102CD000CE0101960E942823BE016F5F7F4FC8017D
:102CE0002FDECE0101960E94242281E0F801838329
:102CF00026960FB6F894DEBF0FBECDBFDF91CF9101
:102D00001F910F91FF90EF90DF90CF90BF90AF9009
:102D10009F908F907F906F905F904F900895CF938A
:102D2000DF93EC0188A199A1009729F065DFCE011E
:102D3000DF91CF91EFC8DF91CF9108954F925F92CD
:102D40006F927F928F929F92AF92BF92CF92DF92BB
:102D5000EF92FF920F931F93CF93DF9300D000D099
:102D6000CDB7DEB78C01FC01C288D388E488F58832
:102D700026893789408D518DC701B6010E944C24A8
:102D8000F801668B778B808F918F438C548C658C88
:102D9000768CA30192010E94FF25181694F4F80185
:102DA000878C90A0A1A0B2A0A3019201C501B4019B
:102DB0000E94B02487FF05C0F801868A978AA08EFA
:102DC000B18EC701B6010E941C25882777FD80952A
:102DD000982F0E944F259B01AC01C701B6010E94AC
:102DE0004B2420E030E0A9010E94B024F8018111B9
:102DF0000CC066897789808D918D0E941C254AE0E0
:102E0000CE0101960E94FE2209C046895789608D35
:102E1000718D22E0CE0101960E942823BE016F5FD2
:102E20007F4FC8018DDDCE0101960E94242281E0F2
:102E3000F801838326960FB6F894DEBF0FBECDBF90
:102E4000DF91CF911F910F91FF90EF90DF90CF9086
:102E5000BF90AF909F908F907F906F905F904F90BA
:102E60000895CF93DF93EC0188A199A1009729F0F1
:102E700065DFCE01DF91CF914DC8DF91CF910895ED
:102E8000CF92DF92EF92FF920F93CF93DF93CDB764
:102E9000DEB727970FB6F894DEBF0FBECDBF7C011B
:102EA0006B01BA01CE0101962F830E94B5222F81BA
:102EB000AE014F5F5F4FB601C70101DCCE01019645
:102EC0000E94242288ED92E0F70191838083138A87
:102ED000128A27960FB6F894DEBF0FBECDBFDF91E2
:102EE000CF910F91FF90EF90DF90CF9008951092C7
:102EF0001B058FEF80933005809331050895FC0109
:102F00001382128282EE92E09183808364834187F0
:102F10002287138608951F93CF93DF93EC01162F1A
:102F20006C818BE494E00E947E0BE0914B04F09165
:102F30004C046B85612B0190F081E02D8BE494E0D3
:102F400019958BE494E0DF91CF911F910C949B0B2A
:102F500028E0FC01238760E0DECF1F93CF93DF934F
:102F6000EC01162F6460D7DF81E090E0EDD5612F92
:102F70006B7FCE01D0DF82E390E0DF91CF911F9194
:102F8000E3C51F93CF93DF93EC01162FC4DF612FAE
:102F9000CE01DF91CF911F91E0CFEF92FF921F936F
:102FA000CF93DF931F92CDB7DEB77C01162F607FE2
:102FB000642B4983E6DF80E1189FB0011124498129
:102FC000642BC7010F90DF91CF911F91FF90EF907D
:102FD000D8CF41E0E2DF81E090E0089540E0DDCF2E
:102FE00061E0FCDF80ED97E0AFC562E0F7DF80EDE8
:102FF00097E0AAC5CF93DF93CDB7DEB728970FB67A
:10300000F894DEBF0FBECDBF28E0ECE0F2E0DE01B9
:10301000119601900D922A95E1F7FC012085241765
:1030200010F44FEF420FFE013196E40FF11DE40F53
:10303000F11D2081260F2068622F28960FB6F89484
:10304000DEBF0FBECDBFDF91CF91C8CFFC0166813F
:10305000262F246026836C60C1CFFC0166816D7FC2
:1030600066836860BBCFFC016681262F22602683C1
:103070006A60B4CFCF93DF93EC01423018F08D81BA
:1030800088608D834887222329F0413019F48D818F
:1030900084608D8362E370E080E090E030D56B85E2
:1030A000CE0139DF68EE73E080E090E028D560E380
:1030B000CE0167DF84E991E147D560E3CE0161DFAE
:1030C00084E991E141D560E3CE015BDF86E990E0E0
:1030D0003BD560E2CE0155DF6D816062CE017EDFBF
:1030E00084E08E83CE01B2DFCE017ADF82E08F836F
:1030F00066E0CE0173DFCE01DF91CF9176CFCF9323
:10310000DF93EC018BE494E00E94670B1D8220E0CA
:103110004A856985CE01DF91CF91ACCFF0CFA3CFA7
:103120009CCFEF92FF920F931F93CF93DF9300D02A
:1031300000D0CDB7DEB78C01FC011382128216825B
:103140007C01F8E0EF0EF11C62E272E0C7010E9420
:103150008B2282E695E0F8019183808326E040E8A7
:1031600055E260E070E055D764E670E0C7010E9468
:10317000522262E272E0CE0101960E948B22F80197
:10318000168215821482CE0101960E942422269670
:103190000FB6F894DEBF0FBECDBFDF91CF911F9168
:1031A0000F91FF90EF900895AF92BF92CF92DF9270
:1031B000EF92FF920F931F93CF93DF9300D000D035
:1031C000CDB7DEB78C016B015A01FC01138212826C
:1031D00016827C01F8E0EF0EF11C62E272E0C7019A
:1031E0000E948B22F801D182C082A50160E070E0CC
:1031F00026E0C6010ED764E670E0C7010E945222A5
:1032000062E272E0CE0101960E948B22F8011682E2
:1032100015821482CE0101960E94242226960FB6B2
:10322000F894DEBF0FBECDBFDF91CF911F910F91FC
:10323000FF90EF90DF90CF90BF90AF9008950F93E5
:103240001F93CF93DF938C01FC01848195810097BC
:10325000D9F0FC013297208131814AE0429FE001A0
:10326000439FD00D1124C80FD91FCE01F80124812E
:1032700035812A978217930721F0CE010E942422DC
:10328000F4CF02970E94CF21C8010896DF91CF9119
:103290001F910F910C942422FB01DC0113967C9367
:1032A0006E93129760E070E026E0CF01B2C6AF9255
:1032B000BF92CF92DF92EF92FF920F931F93CF9323
:1032C000DF93CDB7DEB72C970FB6F894DEBF0FBEF5
:1032D000CDBF8C017C0188E0E80EF11CF8018081F3
:1032E0009181DC01ED91FC910480F581E02D19952F
:1032F000892B01F1D8018D919C91DC01ED91FC911C
:103300000680F781E02D1995D82EF80182819381EE
:10331000009719F06D2D0E941D22FAE0DF1205C002
:1033200081E0D80117968C9305C06D2DC7010E94CE
:103330008023D4CFF8018781882309F46DC066EE1D
:1033400072E0CE0107960E948B22B12CC80108962C
:103350007C01D80116968C91B81608F052C09AE0FC
:10336000B99E60011124D8011496ED91FC91159736
:10337000EC0DFD1D2481358140E050E0B701CE0108
:1033800001960E94FD23F80184819581BE016F5F43
:103390007F4F8C0D9D1D0E94EB23A82ECE01019620
:1033A0000E942422AA2059F1D8011496ED91FC9193
:1033B0001597EC0DFD1DC084D184C114D104D9F042
:1033C0001C962D913C911D97448155814F5F5F4F15
:1033D000B701CE0101960E94FD23CE0101960E9405
:1033E0004024F6016083718382839383CE0101962A
:1033F0000E94242204C00680F781E02D1995B39421
:10340000A8CF62E272E0C7010E94BD22F8011782D4
:10341000CE0107960E9424222C960FB6F894DEBFA8
:103420000FBECDBFDF91CF911F910F91FF90EF9015
:10343000DF90CF90BF90AF900895AF92BF92CF92A0
:10344000DF92EF92FF920F931F93CF93DF93EC01E4
:103450007B01D42E89819A81009709F0A0D78D81B4
:103460009E81009709F09BD78F819885009709F07E
:1034700096D78B819C81009709F091D7D8820D2D2A
:1034800010E023E0D29EC001112487D7FC0120E088
:1034900030E02F5F3F4FA801421B530B4F3F5F4F60
:1034A00021F0128211823396F4CF89839A83C80166
:1034B000880F991F72D79E838D83C8016ED7988716
:1034C0008F83C801880F991F880F991F66D79C8327
:1034D0008B83B12C68EEC62E63E0D62EAA24A3946B
:1034E0008881B81690F50B2D10E023E0B29EC00144
:1034F0001124F701E00FF11F2081E981FA81E80F23
:10350000F91F2083E981FA81E80FF91F62E08081C9
:10351000DCD3C801880F991FED81FE81E80FF91FE8
:10352000D182C082EF81F885E00FF11FA082000FE9
:10353000111F000F111FEB81FC81E00FF11F1082A2
:10354000118212821382B394CBCFDF91CF911F915E
:103550000F91FF90EF90DF90CF90BF90AF900895C4
:10356000862F21D421E0892B09F020E0822F0895B5
:103570007F928F929F92AF92BF92CF92DF92EF9203
:10358000FF920F931F93CF93DF93EC01288180E08C
:1035900090E000E0021709F443C0E981FA81E80FE6
:1035A000F91F30810396361711F00F5FF3CFCE016C
:1035B000D7DF10E0882309F454C072D27801EE0CF2
:1035C000FF1CEE0CFF1CED81FE819801220F331FC2
:1035D000E20FF31FAB81BC81AE0DBF1D8D909D909E
:1035E000AD90BC90681979098A099B098080918007
:1035F000A12CB12C2F81388586169706A806B9060E
:1036000048F481E0D901A00FB11F8C9384E690E0CB
:1036100091838083F901E00FF11F7080711002C067
:10362000712C3FC03DD2CB80DC80CE0CDF1CF6017C
:1036300080809180A280B380681979098A099B09EA
:10364000643171058105910558F32AD2F601608332
:10365000718382839383EF81F885E00FF11F1082DD
:1036600020C0C801880F991F880F991FEB80FC802C
:10367000E80EF91E15D2F70160837183828393836C
:10368000EF81F885E00FF11F81E08083000F111FAB
:10369000ED81FE81E00FF11F88EE93E0918380833E
:1036A000BFCF872DDF91CF911F910F91FF90EF90AA
:1036B000DF90CF90BF90AF909F908F907F900895B4
:1036C000CF93DF93FC01F8941092B000A1EBB0E02F
:1036D0001C92C0E7D0E018828C9184608C938C910E
:1036E0008C7F8C9387E08093B20081E08883128284
:1036F0001482138216821582108617821186DF913A
:10370000CF910895AF92BF92CF92DF92EF92FF9246
:103710000F931F93CF93DF93EC016B018A018A8192
:103720008F5F8A83A82EB12C27E0829FC0011124CD
:1037300034D67C01DC0180E090E041E00196950107
:10374000281B390B2F3F3F4F81F011961C921E9280
:1037500013961C921E92129715961C921E92149705
:1037600016964C9316971796E9CF60E077E0462FB0
:1037700050E02A8130E02150310988819981421737
:10378000530784F427E0629FF0011124D701AE0FA4
:10379000BF1FE80FF91F872F01900D928A95E1F75F
:1037A0006F5FE5CF009709F0FAD5F982E8828A8148
:1037B000F70157E0859FE00DF11D11243797D18265
:1037C000C082138302831583048381E086838F8103
:1037D0009885009719F00817190710F418870F83B8
:1037E000DF91CF911F910F91FF90EF90DF90CF90DD
:1037F000BF90AF900895BF92CF92DF92EF92FF9269
:103800000F931F93CF93DF93F12C27E0E22E4F2DE0
:1038100050E0FC01228130E021503109421753076A
:10382000CCF5F7E0FF9EA0011124DD24D394FC0128
:103830002281D21668F5FC01C081D181DE01A40F7E
:10384000B51F12962D913C911397F7E0DF9EC00DA6
:10385000D11D11246A817B8162177307B8F40D9121
:103860001C91119714966D917C9115971696CC909A
:103870001697FE01BE2C01900D92BA94E1F71983C0
:1038800008833B832A837D836C83CE82D394CFCFFE
:10389000F394BDCFDF91CF911F910F91FF90EF90E7
:1038A000DF90CF90BF900895A6DF78940895CF93CE
:1038B000DF93EC018A81882309F468C08D819E81A1
:1038C00001969E838D832F8138858217930708F494
:1038D0005DC01E821D828985E881F98127E0829F73
:1038E000E00DF11D11248681882321F00190F081E3
:1038F000E02D199540E02A8188819981421798F43A
:10390000FC0137E0439FE00DF11D112486818823DF
:1039100041F0848195812F813885821B930B95839B
:1039200084834F5FE8CF2985FC0137E0239FE00DBA
:10393000F11D1124228133813583248319867A81F4
:10394000FC0161E06717B8F42585222389F02985F9
:10395000DC0137E0239FA00DB11D11244385548560
:1039600014962D913C9115974217530708F46987D7
:103970006F5F3796E7CF2985FC0137E0239FE00D85
:10398000F11D11248481958198878F83DF91CF91D8
:1039900008951F920F920FB60F9211240BB60F923B
:1039A0002F933F934F935F936F937F938F939F9347
:1039B000AF93BF93EF93FF9386E08093B2008FE4C1
:1039C00095E075DFFF91EF91BF91AF919F918F913E
:1039D0007F916F915F914F913F912F910F900BBE0F
:1039E0000F900FBE0F901F901895109251051092D6
:1039F00053051092520510925505109254051092DD
:103A00005705109256051092580508951F920F926F
:103A10000FB60F9211242F933F938F939F93AF93E1
:103A2000BF9380915A0590915B05A0915C05B09180
:103A30005D053091590523E0230F2D3720F40196C1
:103A4000A11DB11D05C026E8230F0296A11DB11DC1
:103A50002093590580935A0590935B05A0935C05CC
:103A6000B0935D0580915E0590915F05A091600522
:103A7000B09161050196A11DB11D80935E059093E3
:103A80005F05A0936005B0936105BF91AF919F91D1
:103A90008F913F912F910F900FBE0F901F9018950F
:103AA0002FB7F89460915A0570915B0580915C0581
:103AB00090915D052FBF08953FB7F89480915E0502
:103AC00090915F05A0916005B091610526B5A89B16
:103AD00005C02F3F19F00196A11DB11D3FBF6627FC
:103AE000782F892F9A2F620F711D811D911D42E041
:103AF000660F771F881F991F4A95D1F70895CF92B7
:103B0000DF92EF92FF92CF93DF936B017C01D4DFC2
:103B1000EB01C114D104E104F10479F0BBD6CCDF90
:103B20006C1B7D0B683E7340A0F381E0C81AD1087E
:103B3000E108F108C851DC4FECCFDF91CF91FF9045
:103B4000EF90DF90CF9008958230910538F0880F84
:103B5000991F880F991F05970197F1F70895789499
:103B600084B5826084BD84B5816084BD85B5826082
:103B700085BD85B5816085BDEEE6F0E08081816020
:103B80008083E1E8F0E01082808182608083808120
:103B900081608083E0E8F0E0808181608083E1EBF8
:103BA000F0E0808184608083E0EBF0E080818160E0
:103BB0008083E1E9F0E080818260808380818160A0
:103BC0008083E0E9F0E0808181608083E1EAF0E0D9
:103BD000808182608083808181608083E0EAF0E080
:103BE000808181608083E1E2F1E080818260808376
:103BF000808181608083E0E2F1E080818160808368
:103C0000EAE7F0E080818460808380818260808345
:103C10008081816080838081806880831092C10070
:103C2000089590E0FC013197E231F10508F04CC0B5
:103C3000EE58FF4F0C949B26809180008F7703C035
:103C4000809180008F7D8093800008958091800016
:103C5000877FF9CF84B58F7702C084B58F7D84BD0F
:103C600008958091B0008F7703C08091B0008F7D60
:103C70008093B0000895809190008F7707C0809165
:103C800090008F7D03C080919000877F809390008B
:103C900008958091A0008F7707C08091A0008F7D4C
:103CA00003C08091A000877F8093A0000895809139
:103CB00020018F7707C0809120018F7D03C0809104
:103CC0002001877F809320010895CF93DF9390E0B8
:103CD000FC01E25BFE4F2491FC01EC56FE4F849107
:103CE000882349F190E0880F991FFC01E25FFD4FA6
:103CF000A591B4918C509E4FFC01C591D4919FB772
:103D0000611108C0F8948C91209582238C9388814E
:103D100082230AC0623051F4F8948C91322F30958E
:103D200083238C938881822B888304C0F8948C91A0
:103D3000822B8C939FBFDF91CF9108950F931F9398
:103D4000CF93DF931F92CDB7DEB7282F30E0F90174
:103D5000E85FFE4F8491F901E25BFE4F1491F90197
:103D6000EC56FE4F04910023C1F0882319F06983BB
:103D700058DF6981E02FF0E0EE0FFF1FEC50FE4F9F
:103D8000A591B4919FB7F8948C91611103C01095DF
:103D9000812301C0812B8C939FBF0F90DF91CF9126
:103DA0001F910F910895CF93DF93282F30E0F901F1
:103DB000E85FFE4F8491F901E25BFE4FD491F90177
:103DC000EC56FE4FC491CC2389F081112ADFEC2FF1
:103DD000F0E0EE0FFF1FE652FE4FA591B4912C913B
:103DE0002D2381E090E021F480E002C080E090E0AB
:103DF000DF91CF910895FC01818D228D90E0805C50
:103E00009F4F821B91098F7399270895FC01918D13
:103E1000828D981731F0828DE80FF11D858D90E02D
:103E200008958FEF9FEF0895FC01918D828D981773
:103E300061F0828DDF01A80FB11D5D968C91928D8E
:103E40009F5F9F73928F90E008958FEF9FEF08958B
:103E500088EC90E2892B39F080E090E0892B19F012
:103E600097D1811124C083E791E2892B39F080E05A
:103E700090E0892B19F037D281111CC080E090E0CE
:103E8000892B41F080E090E0892B21F00E94000016
:103E9000811113C080E090E0892BA1F080E090E0D8
:103EA000892B81F00E94000081110AC008950E94B0
:103EB0000000D9CF0E940000E1CF0E940000EACFAD
:103EC0000C9400000895FC01848DDF01A80FB11D42
:103ED000A35ABF4F2C91848D90E001968F73992740
:103EE000848FA689B7892C93A089B1898C9180642D
:103EF0008C93938D848D981306C00288F389E02DEE
:103F000080818F7D80830895CF93DF93EC01888D2E
:103F10008823C1F0EA89FB89808185FD05C0A889D5
:103F2000B9898C9186FD0EC00FB607FCF5CF808154
:103F300085FFF2CFA889B9898C9185FFEDCFCE019D
:103F4000C2DFE8CFDF91CF910895CF92DF92FF9249
:103F50000F931F93CF93DF931F92CDB7DEB76C0102
:103F600081E0D60158968C9358975B969C915B970D
:103F70005C968C915C97981307C05096ED91FC91DC
:103F80005197808185FD2DC0F601038D10E00F5FF4
:103F90001F4F0F731127F02EF601848DF81210C0F9
:103FA0000FB607FCF9CFD6015096ED91FC915197D1
:103FB000808185FFF1CFC601698385DF6981ECCF00
:103FC000838DE80FF11DE35AFF4F6083D6015B96A6
:103FD0000C935B975296ED91FC9153978081806290
:103FE0000CC0D6015696ED91FC9157976083509680
:103FF000ED91FC91519780818064808381E090E015
:104000000F90DF91CF911F910F91FF90DF90CF9094
:104010000895BF92CF92DF92EF92FF92CF93DF93FA
:10402000EC016A017B01B22EE889F98982E0808384
:10403000411581EE58076105710599F060E079E05E
:104040008DE390E0A701960154D621503109410932
:1040500051095695479537952795211580E13807E1
:1040600090F0E889F989108260E874E88EE190E0C8
:10407000A70196013ED621503109410951095695B3
:10408000479537952795EC85FD853083EE85FF852F
:104090002083188EEC89FD89B082EA89FB898081B2
:1040A00080618083EA89FB89808188608083EA89D6
:1040B000FB89808180688083EA89FB8980818F7D8C
:1040C0008083DF91CF91FF90EF90DF90CF90BF90F2
:1040D00008951F920F920FB60F9211240BB60F92F4
:1040E0002F938F939F93EF93FF93E0917205F0913D
:1040F00073058081E0917805F091790582FD12C009
:10410000908180917B058F5F8F7320917C05821752
:1041100051F0E0917B05F0E0EE59FA4F958F8093D6
:104120007B0501C08081FF91EF919F918F912F912D
:104130000F900BBE0F900FBE0F901F9018951F92FF
:104140000F920FB60F9211240BB60F922F933F933D
:104150004F935F936F937F938F939F93AF93BF938F
:10416000EF93FF9382E695E0AEDEFF91EF91BF9172
:10417000AF919F918F917F916F915F914F913F91FF
:104180002F910F900BBE0F900FBE0F901F901895A0
:1041900082E695E030DE21E0892B09F420E0822FD1
:1041A0000895109265051092640588EE93E0A0E0F2
:1041B000B0E08093660590936705A0936805B0937F
:1041C000690580EF92E0909363058093620585EC2A
:1041D00090E090936F0580936E0584EC90E090934F
:1041E00071058093700580EC90E090937305809347
:1041F000720581EC90E0909375058093740582ECD4
:1042000090E0909377058093760586EC90E090930C
:1042100079058093780510927B0510927C051092A9
:104220007D0510927E0508951F920F920FB60F9292
:1042300011240BB60F922F938F939F93EF93FF93BD
:10424000E0910F06F09110068081E0911506F09143
:10425000160682FD12C09081809118068F5F8F73C1
:1042600020911906821751F0E0911806F0E0E15014
:10427000FA4F958F8093180601C08081FF91EF91CE
:104280009F918F912F910F900BBE0F900FBE0F90AB
:104290001F9018951F920F920FB60F9211240BB614
:1042A0000F922F933F934F935F936F937F938F93CF
:1042B0009F93AF93BF93EF93FF938FEF95E003DE50
:1042C000FF91EF91BF91AF919F918F917F916F91EE
:1042D0005F914F913F912F910F900BBE0F900FBEAA
:1042E0000F901F9018958FEF95E085DD21E0892BC9
:1042F00009F420E0822F0895109202061092010620
:1043000088EE93E0A0E0B0E080930306909304066B
:10431000A0930506B093060680EF92E09093000606
:104320008093FF058DEC90E090930C0680930B0634
:104330008CEC90E090930E0680930D0688EC90E054
:104340009093100680930F0689EC90E090931206EC
:10435000809311068AEC90E09093140680931306E4
:104360008EEC90E090931606809315061092180636
:104370001092190610921A0610921B0608950895BD
:10438000EEDBFDDF0E94AD03C8E2DFE10E94A40A7C
:104390002097E1F35DDDFACF25C524C5BBC5BAC5BD
:1043A000CF92DF92EF92FF920F931F93CF93DF9301
:1043B0006C017A01EB01E60EF71E00E010E0CE156D
:1043C000DF0561F06991D601ED91FC910190F081DA
:1043D000E02DC6011995080F191FF1CFC801DF9113
:1043E000CF911F910F91FF90EF90DF90CF900895A4
:1043F0006115710581F0DB010D900020E9F7AD0139
:1044000041505109461B570BDC01ED91FC91028094
:10441000F381E02D199480E090E00895DC01ED91A6
:10442000FC91DB0114964D915C9115976D917C91F7
:104430000280F381E02D1994DBCFDC01ED91FC913A
:104440000190F081E02D1994FC018081918162C579
:10445000CF93DF93EC0188819981009709F05AD5B9
:10446000198218821D821C821B821A82DF91CF91D1
:1044700008950F931F93CF93DF93EC018B016F5F30
:104480007F4F88819981D5D5009731F099838883B2
:104490001B830A8381E001C080E0DF91CF911F91EF
:1044A0000F910895CF93DF93EC0188819981892B37
:1044B00029F08A819B818617970758F4CE01D9DFAE
:1044C000882341F08C819D81892B19F4E881F98141
:1044D000108281E0DF91CF910895EF92FF920F93C8
:1044E0001F93CF93DF93EC017B018A01BA01DADFDE
:1044F000811103C0CE01ACDF06C01D830C83B70160
:104500008881998197D6CE01DF91CF911F910F912C
:10451000FF90EF900895FC011182108213821282A5
:10452000158214826115710551F0FB010190002084
:10453000E9F7AF0141505109461B570BCECF089503
:10454000CF93DF93EC01FB018617970751F0608151
:1045500071816115710521F044815581BEDF01C073
:1045600077DFCE01DF91CF910895FC011182108297
:104570001382128215821482E3CFCF93DF93EC0172
:104580006115710559F0FB0101900020E9F7AF01B9
:1045900041505109461B570BA0DF01C059DFCE0126
:1045A000DF91CF9108950F931F93CF93DF93CDB7F2
:1045B000DEB729970FB6F894DEBF0FBECDBF8C01D2
:1045C000862FF801118210821382128215821482C2
:1045D00050E0BE016F5F7F4F90E047D6BE016F5F36
:1045E0007F4FC801CADF29960FB6F894DEBF0FBE11
:1045F000CDBFDF91CF911F910F9108950F931F931E
:10460000CF93DF93CDB7DEB762970FB6F894DEBFD6
:104610000FBECDBF8C01CB01F80111821082138235
:1046200012821582148250E0BE016F5F7F4F09D65F
:10463000BE016F5F7F4FC801A0DF62960FB6F8948E
:10464000DEBF0FBECDBFDF91CF911F910F910895B7
:10465000EF92FF920F931F93CF93DF93CDB7DEB707
:10466000A1970FB6F894DEBF0FBECDBF7C01CB0182
:10467000BA01F7011182108213821282158214820C
:1046800042E0420F8E010F5F1F4F8CD3BC01C70168
:1046900074DFA1960FB6F894DEBF0FBECDBFDF91D9
:1046A000CF911F910F91FF90EF900895EF92FF929D
:1046B0000F931F93CF93DF93EC017B010C811D813E
:1046C0006115710511F480E014C04115510581F0A8
:1046D000040F151FB801E6DE8823A9F3288139816C
:1046E0008C819D81B701820F931FA4D51D830C83FC
:1046F00081E0DF91CF911F910F91FF90EF9008958E
:10470000CF93DF931F921F92CDB7DEB769831A82D2
:1047100041E050E0BE016F5F7F4FC8DF0F900F9008
:10472000DF91CF910895CF93DF93EC01FB0144819A
:10473000558160817181BADF811102C0CE0188DEAE
:10474000CE01DF91CF910895CF93DF93EC016115F6
:10475000710561F0FB0101900020E9F7AF014150C4
:104760005109461B570BA2DF811102C0CE0170DE3A
:10477000CE01DF91CF910895CF93DF93DC01ED91CE
:10478000FC91EB01A881B981309711F01097C9F421
:10479000109759F0EB012C813D81232B31F08C9146
:1047A00090E091958195910913C0309779F0DC01E3
:1047B00014968D919C911597892B41F0808190E002
:1047C00007C0BD01CF01DF91CF912BC580E090E004
:1047D000DF91CF910895FC0144815581FB01248133
:1047E00035814217530739F4C7DF21E0892B09F0DF
:1047F00020E0822F089580E00895BF92CF92DF924B
:10480000EF92FF920F931F93CF93DF936C017B0185
:10481000EA0189012417350720F48D2FE901042FBF
:10482000182F62E272E0C60176DED70114968D91F0
:104830009C911597C817D907C0F48017910708F401
:104840008C01D701ED91FC911197E00FF11FB08021
:1048500010826D917C916C0F7D1FC6018EDED70199
:10486000ED91FC91E00FF11FB082C601DF91CF9175
:104870001F910F91FF90EF90DF90CF90BF90089520
:10488000FC0180819181009709F0B7C460E070E07D
:10489000CB01089508955058BB27AA270ED075C1A3
:1048A00066D130F06BD120F031F49F3F11F41EF44B
:1048B0005BC10EF4E095E7FB51C1E92F77D180F39E
:1048C000BA17620773078407950718F071F49EF50D
:1048D0008FC10EF4E0950B2EBA2FA02D0B01B9015C
:1048E00090010C01CA01A0011124FF27591B99F066
:1048F000593F50F4503E68F11A16F040A22F232F72
:10490000342F4427585FF3CF469537952795A795C1
:10491000F0405395C9F77EF41F16BA0B620B730B68
:10492000840BBAF09150A1F0FF0FBB1F661F771FD9
:10493000881FC2F70EC0BA0F621F731F841F48F48E
:10494000879577956795B795F7959E3F08F0B3CF14
:104950009395880F08F09927EE0F979587950895FE
:10496000D9D008F481E008950CD00FC107D140F0F0
:10497000FED030F021F45F3F19F0F0C0511139C181
:10498000F3C014D198F39923C9F35523B1F3951BC0
:10499000550BBB27AA2762177307840738F09F5F60
:1049A0005F4F220F331F441FAA1FA9F333D00E2ECF
:1049B0003AF0E0E830D091505040E695001CCAF73C
:1049C00029D0FE2F27D0660F771F881FBB1F261701
:1049D00037074807AB07B0E809F0BB0B802DBF01D4
:1049E000FF2793585F4F2AF09E3F510568F0B6C0ED
:1049F00000C15F3FECF3983EDCF3869577956795B1
:104A0000B795F7959F5FC9F7880F911D9695879584
:104A100097F90895E1E0660F771F881FBB1F6217A3
:104A200073078407BA0720F0621B730B840BBA0B61
:104A3000EE1F88F7E095089504D06894B111D9C0AD
:104A40000895BCD088F09F5790F0B92F9927B7519F
:104A5000A0F0D1F0660F771F881F991F1AF0BA9542
:104A6000C9F712C0B13081F0C3D0B1E00895C0C021
:104A7000672F782F8827B85F39F0B93FCCF3869538
:104A800077956795B395D9F73EF490958095709595
:104A900061957F4F8F4F9F4F0895E89409C097FB12
:104AA0003EF490958095709561957F4F8F4F9F4F05
:104AB0009923A9F0F92F96E9BB279395F695879549
:104AC00077956795B795F111F8CFFAF4BB0F11F40C
:104AD00060FF1BC06F5F7F4F8F4F9F4F16C08823B3
:104AE00011F096E911C0772321F09EE8872F762FE9
:104AF00005C0662371F096E8862F70E060E02AF02A
:104B00009A95660F771F881FDAF7880F9695879515
:104B100097F90895990F0008550FAA0BE0E8FEEFEA
:104B200016161706E807F907C0F012161306E40771
:104B3000F50798F0621B730B840B950B39F40A266A
:104B400061F0232B242B252B21F408950A2609F448
:104B5000A140A6958FEF811D811D089597F99F674C
:104B600080E870E060E008959FEF80EC08950024F5
:104B70000A941616170618060906089500240A94C2
:104B800012161306140605060895092E0394000C48
:104B900011F4882352F0BB0F40F4BF2B11F460FFD7
:104BA00004C06F5F7F4F8F4F9F4F089557FD905800
:104BB000440F551F59F05F3F71F04795880F97FBE1
:104BC000991F61F09F3F79F087950895121613069B
:104BD0001406551FF2CF4695F1DF08C016161706CA
:104BE0001806991FF1CF86957105610508940895FF
:104BF000E894BB2766277727CB0197F908958ADFCA
:104C000008F48FEF08950BD0C0CFB1DF28F0B6DFE6
:104C100018F0952309F0A2CFA7CF1124EACFC6DF61
:104C2000A0F3959FD1F3950F50E0551F629FF001BF
:104C3000729FBB27F00DB11D639FAA27F00DB11D18
:104C4000AA1F649F6627B00DA11D661F829F2227A1
:104C5000B00DA11D621F739FB00DA11D621F839F28
:104C6000A00D611D221F749F3327A00D611D231FFE
:104C7000849F600D211D822F762F6A2F11249F574C
:104C800050408AF0E1F088234AF0EE0FFF1FBB1F6F
:104C9000661F771F881F91505040A9F79E3F51050E
:104CA00070F05CCFA6CF5F3FECF3983EDCF38695C7
:104CB00077956795B795F795E7959F5FC1F7FE2BB9
:104CC000880F911D9695879597F9089597FB072E64
:104CD00016F4009406D077FD08D050D007FC05D01C
:104CE0003EF4909581959F4F0895709561957F4F03
:104CF0000895A1E21A2EAA1BBB1BFD010DC0AA1F1D
:104D0000BB1FEE1FFF1FA217B307E407F50720F034
:104D1000A21BB30BE40BF50B661F771F881F991FAF
:104D20001A9469F760957095809590959B01AC01F8
:104D3000BD01CF010895EE0FFF1F0590F491E02D06
:104D40001994A29FB001B39FC001A39F700D811D54
:104D50001124911DB29F700D811D1124911D089584
:104D6000F0DFA59F900DB49F900DA49F800D911D25
:104D7000112408950790F691E02D1994AA1BBB1BEE
:104D800051E107C0AA1FBB1FA617B70710F0A61B4B
:104D9000B70B881F991F5A95A9F780959095BC016C
:104DA000CD010895EF920F931F93CF93DF93E80106
:104DB00047FF02C034E101C034E0E42FFF27E7FDE4
:104DC000F095F7FF03C0F195E195F109E32E022F6D
:104DD0002E2FAE016DD2CE01DF91CF911F910F9199
:104DE000EF900895CF93DF938230910510F482E025
:104DF00090E0E0919E06F0919F0620E030E0A0E078
:104E0000B0E0309739F14081518148175907B8F027
:104E10004817590771F482819381109729F01396EE
:104E20009C938E9312972CC090939F0680939E061E
:104E300027C02115310531F04217530718F0A90199
:104E4000DB0101C0EF019A01BD01DF010280F381A6
:104E5000E02DD7CF21153105F9F0281B390B24306F
:104E6000310580F48A819B816115710521F0FB0178
:104E70009383828304C090939F0680939E06FE01D5
:104E8000329644C0FE01E20FF31F819391932250AA
:104E90003109398328833AC020919C0630919D06C0
:104EA000232B41F4209102023091030230939D069E
:104EB00020939C06209100023091010221153105BA
:104EC00041F42DB73EB74091040250910502241BD6
:104ED000350BE0919C06F0919D06E217F307A0F4D4
:104EE0002E1B3F0B2817390778F0AC014E5F5F4F40
:104EF0002417350748F04E0F5F1F50939D064093CF
:104F00009C068193919302C0E0E0F0E0CF01DF9135
:104F1000CF910895CF93DF93009709F487C0FC01E8
:104F2000329713821282C0919E06D0919F062097DD
:104F300081F420813181280F391F80919C06909146
:104F40009D068217930779F5F0939D06E0939C06E2
:104F50006DC0DE0120E030E0AE17BF0750F41296BE
:104F60004D915C9113979D014115510509F1DA01AD
:104F7000F3CFB383A28340815181840F951F8A1799
:104F80009B0771F48D919C911197840F951F029648
:104F90009183808312968D919C9113979383828342
:104FA0002115310529F4F0939F06E0939E063EC03B
:104FB000D9011396FC93EE9312974D915D91A40F36
:104FC000B51FEA17FB0779F480819181840F951F43
:104FD0000296D90111969C938E93828193811396A8
:104FE0009C938E931297E0E0F0E08A819B8100977A
:104FF00019F0FE01EC01F9CFCE010296288139812A
:10500000820F931F20919C0630919D062817390727
:1050100069F4309729F410929F0610929E0602C000
:1050200013821282D0939D06C0939C06DF91CF918C
:1050300008956F927F928F929F92AF92BF92CF927C
:10504000DF92EF92FF920F931F93CF93DF93EC01C8
:10505000CB01209779F4DF91CF911F910F91FF90B1
:10506000EF90DF90CF90BF90AF909F908F907F9008
:105070006F90B8CEFE01E60FF71F9E012250310956
:10508000E217F30708F4A8C0D9010D911C911197FC
:1050900006171707B0F00530110508F49BC0A801EA
:1050A000445051094617570708F494C0025011099B
:1050B000061B170B019311936D937C93CF012ADF8D
:1050C00089C05B01A01AB10A4E01800E911EA09109
:1050D0009E06B0919F06612C712C60E070E01097E5
:1050E00009F449C0A815B905C9F5ED90FC901197D0
:1050F000670142E0C40ED11CCA14DB0478F14701F9
:105100008A189B08640142E0C40ED11C1296BC9020
:1051100012971396AC91B5E0CB16D10440F0B28251
:10512000A38391828082D9018D939C9309C00E5FE5
:105130001F4F0E0D1F1DF90111830083EB2DFA2F58
:105140006115710531F0DB011396FC93EE93129714
:1051500041C0F0939F06E0939E063CC06D917C9108
:1051600011976616770608F43B01BD0112960D9063
:10517000BC91A02DB4CF60919C0670919D066815DE
:105180007905E9F468167906D0F44091000250914F
:1051900001024115510541F44DB75EB7609104021B
:1051A00070910502461B570BE417F507A8F4F0931E
:1051B0009D06E0939C06F901918380830BC012DE6B
:1051C0007C01009749F0A801BE0122D0CE01A2DEE9
:1051D000C70104C0CE0102C080E090E0DF91CF9112
:1051E0001F910F91FF90EF90DF90CF90BF90AF9005
:1051F0009F908F907F906F90089566277727D5C1F5
:10520000911113C4803219F089508550D0F7089558
:10521000FB01DC0102C001900D9241505040D8F7D3
:105220000895FB01DC018D91019080190110D9F3E3
:10523000990B0895FB01DC0101900D920020E1F72C
:1052400008954532510518F4423008F004C0FB01BE
:105250001082CB010895BB274A3031F4992322F400
:10526000BDE2909581959F4F0BC04532510518F4D2
:10527000423008F004C0FB011082CB010895BB2727
:10528000FB015527AA27880F991FAA1FA41710F002
:10529000A41B83955051B9F7A05DAA3308F0A95D0E
:1052A000A193009779F7B111B1931192CB01D8C3B3
:1052B0006F927F929F92AF92BF92CF92DF92EF92C6
:1052C000FF920F931F93CF93DF93CDB7DEB729974C
:1052D0000FB6F894DEBF0FBECDBF6A01B22E102FFD
:1052E0000C3320F4FF24F394F00E02C04CE3F42EB0
:1052F0000F2D27E0AE014F5F5F4FBFD27981272F7F
:105300002970213031F0E1FC06C0E0FC06C060E00D
:1053100005C06DE203C06BE201C060E2AE2DA0717A
:1053200073FF36C0662311F084E001C083E08B1563
:1053300010F4B81A01C0B12CA1110BC0F6018B2DCD
:1053400090E2882319F091938150FBCFCB0CD11CB4
:10535000B12C662331F0F601608396012F5F3F4F39
:105360006901C6010396E2FE05C02EE4F601208322
:1053700031E404C02EE6F601208331E63183228336
:10538000FC012B2D30E22223F1F131932150FBCF90
:1053900072FF40C0662311F084E001C083E08B15EA
:1053A00010F4B81A01C0B12CA1110BC0F6018B2D5D
:1053B00090E2882319F091938150FBCFCB0CD11C44
:1053C000B12C662331F0F601608396012F5F3F4FC9
:1053D0006901C6010396E2FE07C029E4F6012083B5
:1053E0002EE4218326E406C029E6F60120832EE67A
:1053F000218326E62283FC012B2D30E2222319F0A3
:1054000031932150FBCFFC01EB0DF11D10828EEF8B
:105410009FEFB7C0B1E0611101C0B0E04B2F50E089
:105420001816190624F49C012F5F3F4F02C021E09B
:1054300030E0240F351F112329F0412F50E04F5F3A
:105440005F4F02C040E050E0420F531F2B2D30E071
:105450004217530714F4B41A01C0B12C2E2D287131
:1054600059F4F6012B2D30E2222319F0319321500B
:10547000FBCFCB0CD11CB12CBB2331F0F6016083E8
:1054800096012F5F3F4F6901A1110BC0F6012B2D33
:1054900030E3222319F031932150FBCFCB0CD11CE8
:1054A000B12CF80E0A81372F3071A32E74FF03C080
:1054B000013309F4FA941F142CF42F2D293018F01D
:1054C00028E001C021E0682F392F97FF02C060E07B
:1054D00030E0462F532F612C712C3EE2932EBC01FD
:1054E000621B71099B01DC01A41BB50BE1E0F0E03C
:1054F000EC0FFD1FAE0FBF1FE12EF12CF194E194D4
:10550000F1084F3FFFEF5F0731F4F6019082B601DB
:105510006F5F7F4F6B01841795074CF02417350799
:1055200034F4BD01660D771DFB01118101C010E34C
:1055300041505109FFEF6F1A7F0AB6016F5F7F4F2D
:105540004E155F0524F0F60110836B01DACF481782
:10555000590739F4063320F4053319F4A11001C0BA
:1055600011E3F6011083FB018B2D90E2882319F0E3
:1055700091938150FBCFFB01EB0DF11D108280E078
:1055800090E029960FB6F894DEBF0FBECDBFDF9135
:10559000CF911F910F91FF90EF90DF90CF90BF9030
:1055A000AF909F907F906F9008958F929F92AF924F
:1055B000BF92CF92DF92EF92FF920F931F93CF9300
:1055C000DF938B016115710521F0DB018C9311963E
:1055D0009C93EC015E01BFEFAB1ABB0A7501C8805A
:1055E0008C2D90E00DDE892B11F0E501F3CFEDE27B
:1055F000CE1208C07E01F2E0EF0EF11CC980DD245E
:10560000D39409C02BE2C21205C07E0142E0E40E31
:10561000F11CC980D12CE701219743E050E060E301
:1056200072E0CE0105D2892BB9F4239645E050E013
:105630006BE272E0CE01FCD1892B09F425960115AD
:10564000110519F0D801CD93DC93D11000C160E0B1
:1056500070E080E89FE704C143E050E068E272E058
:10566000CE01E6D1892B59F40115110509F4F4C0D6
:10567000B2E0EB0EF11CF801F182E082EDC0F7011F
:1056800060E070E0CB01C0E0D0E07F01A0EDAA2E89
:10569000AC0C29E02A1528F14D2D4260B42E2D2D99
:1056A0002870D2FE04C0211124C0219622C02111ED
:1056B0002197A5E0B0E09B01AC0152DB660F771F9C
:1056C000881F991F6A0D711D811D911D6839A9E9F7
:1056D0007A078A07A9E19A0760F0BD2DB660BB2E54
:1056E00008C02EEFA2120AC0D3FC50C04D2D486056
:1056F000B42E3196D701CC90DB2CC7CF2C2D2F7D2B
:10570000253409F043C0A081AD3241F4BD2DB06114
:10571000DB2E7F0122E0E20EF11C0CC07F01AB32D8
:1057200031F04FEFE41AF40A21E030E006C0A2E0C5
:10573000EA0EF11CA18122E030E0A053AA3018F05B
:10574000E21AF30A23C0F70120E030E02038BCE081
:105750003B075CF4A901440F551F440F551F240F4C
:10576000351F220F331F2A0F311DAF014F5F5F4FCF
:105770007A01A081A053AA3010F4FA01E7CFD4FE39
:1057800003C0319521953109C20FD31FD1FE09C045
:105790000115110531F0E1E0EE1AF108D801ED92A2
:1057A000FC927BD92D2D2370233019F04B015C0125
:1057B00006C04B015C01B7FAB094B7F8B09420E092
:1057C00030E0A901C501B401CBD8882309F43CC05D
:1057D000D7FF06C0D195C195D10907E412E002C0F8
:1057E0000FE512E06801B8E1CB1AD10890E2E92E8A
:1057F000F12CCE15DF056CF0F8012591359145911E
:105800005491C501B401FFD94B015C01CE19DF09E8
:10581000F0CF04501109F594E7940C151D0549F7D4
:105820008A2D880F8B2D881F8F3F41F020E030E0BC
:10583000A901C501B40194D8811106C082E290E0AB
:105840009093A1068093A006C501B40109C060E051
:1058500070E080E89FEF04C060E070E080EC9FE7BC
:10586000DF91CF911F910F91FF90EF90DF90CF903C
:10587000BF90AF909F908F900895283008F027E058
:105880003327DA01990F311D87FD9160009661057C
:10589000710539F432602E5F3D9330E32A95E1F7CC
:1058A00008959F3F30F080387105610509F03C5F35
:1058B0003C5F3D93913008F08068911DDF93CF935A
:1058C0001F930F93FF92EF92192F987F9695E92FD0
:1058D00096959695E90FFF27E354FD4F99273327B7
:1058E000EE24FF24A701E70105900894079428F40B
:1058F000360FE71EF81E491F511D660F771F881FC0
:10590000991F0694A1F70590079428F4E70EF81E56
:10591000491F561FC11D770F881F991F661F0694C8
:10592000A1F70590079428F4F80E491F561FC71FCA
:10593000D11D880F991F661F771F0694A1F7059048
:10594000079420F4490F561FC71FD81F990F661FD1
:10595000771F881F0694A9F784911095177041F05E
:10596000D695C79557954795F794E7941A95C1F73B
:10597000E3E6F2E068941590159135916591959163
:1059800005907FE27395E118F10A430B560BC90BA2
:10599000D009C0F7E10CF11E431F561FC91FD01DCF
:1059A0007EF4703311F48A95E6CFE894015030F01C
:1059B000080F0AF40027021708F4202F2395022F5E
:1059C0007A3328F079E37D932A95E9F710C07D9327
:1059D0002A9589F6069497956795379517951794A4
:1059E000E118F10A430B560BC90BD00998F0239527
:1059F0007E9173957A3308F070E37C932013B8F7A7
:105A00007E9170617D9330F0839571E37D9370E3B7
:105A10002A95E1F71124EF90FF900F911F91CF91FC
:105A2000DF91992787FD90950895992788270895F4
:105A3000FB01DC014150504088F08D9181341CF015
:105A40008B350CF4805E659161341CF06B350CF481
:105A5000605E861B611171F3990B0895881BFCCF62
:105A6000DC01FC01672F71917723E1F7329704C0C5
:105A70007C916D9370836291AE17BF07C8F3089550
:105A800013E0CCE6D3E000E005C022970109FE0157
:105A90000BBF70D9CE36D10780E00807B1F7F89474
:025AA000FFCF36
:105AA2000000A206800007090B0C0A080000400053
:105AB200140054003A003230002F00546F646179B0
:105AC2003A200030373A33333A313000536561734C
:105AD2006F6E2031005472656520310054696D6526
