:1000000091C10000C0C10000BEC10000BCC1000021
:10001000BAC10000B8C10000B6C10000B4C1000000
:10002000B2C10000B0C10000AEC10000ACC1000010
:10003000AAC10000A8C10000A6C10000A4C1000020
:10004000A2C10000A0C100009EC100009CC1000030
:100050000C94D60A98C1000096C100000C948C0A3A
:1000600092C100000C94C9090C94A0098CC1000035
:100070008AC1000088C1000086C1000084C1000060
:1000800082C1000080C100007EC100007CC1000070
:100090000C9477090C944E0976C100000C94CC1393
:1000A00072C1000070C100006EC100006CC1000090
:1000B0006AC1000068C1000066C1000064C10000A0
:1000C00062C1000060C100005EC100005CC10000B0
:1000D0005AC1000058C1000056C1000054C10000C0
:1000E00052C100000D0A100AFF09030A090A470A53
:1000F000140A180A1E0A220A260A2C0A300A340A8E
:10010000470A3A0A3E0A420A00407A10F35A00A00F
:10011000724E18090010A5D4E80000E876481700D0
:1001200000E40B54020000CA9A3B000000E1F50510
:10013000000080969800000040420F000000A0865A
:1001400001000000102700000000E803000000008C
:100150006400000000000A00000000000100000030
:1001600000002C76D888DC674F0823DFC1DFAE594A
:10017000E1B1B796E5E3E453C63AE651997696E8DD
:10018000E6C28426EB898C9B62ED407C6FFCEFBC61
:100190009C9F40F2BAA56FA5F490055A2AF75C938C
:1001A0006B6CF9676DC11BFCE0E40D47FEF520E6C2
:1001B000B500D0ED902E0300943577050080841EA5
:1001C000080000204E0A000000C80C333333330F00
:1001D000986E12831141EF8D2114893BE65516CF9D
:1001E000FEE6DB18D1844B381BF77C1D901DA4BBA9
:1001F000E424203284725E228100C9F124ECA1E55E
:100200003D2700002100240027002A002D00300097
:10021000330001010000040107010A010000200071
:100220002300260029002C002F00320000010000CE
:1002300003010601090100002200250028002B000F
:100240002E003100340002010000050108010B01FD
:1002500005050505070508080808020202020A0A42
:100260000808040404040101010101010101030360
:10027000030303030303040707070C0C0C0C0C0C0B
:100280000C0C0202020206060606060606060B0B08
:100290000B0B0B0B0B0B0102102020080810204049
:1002A000102040800201020108040201010204083A
:1002B00010204080804020100804020180040201C8
:1002C0008040201008040201080402010102040811
:1002D00010204080010204081020408000000A0B1A
:1002E00002090C0D0E0807030401000000000000C5
:1002F00000000000000000000000000000000000FE
:1003000000000000000000001211100000000000BA
:1003100000000000000000000000000000000000DD
:1003200000005C1E11241FBECFEFD1E2DEBFCDBFA7
:1003300000E00CBF26E0A6EFB2E001C01D92AE3790
:10034000B207E1F712E0A0E0B2E0E8E9FBE400E088
:100350000BBF02C007900D92A63FB107D9F711E07D
:10036000C2E9D1E000E006C021970109802FFE011B
:100370000E948923C139D10780E00807A9F70E94AC
:1003800077150C94CA253CCECF93DF93EC0188817E
:100390009981009711F00E943A24198218821D82D7
:1003A0001C821B821A82DF91CF9108950F931F93B5
:1003B000CF93DF93EC0188819981009729F02A81FE
:1003C0003B812617370788F48B016F5F7F4F0E94B0
:1003D000D224009761F0998388831B830A832C8140
:1003E0003D81232B11F4FC01108281E001C080E0EB
:1003F000DF91CF911F910F910895EF92FF920F938C
:100400001F93CF93DF93FC01248135816115710522
:1004100011F480E018C041155105A1F07B01EC01F9
:100420008A01020F131FB801C1DF882391F32881CD
:1004300039818C819D81B701820F931F0E94C32552
:100440001D830C8381E0DF91CF911F910F91FF906D
:10045000EF900895FC01A089B18982E08C93A48576
:10046000B5851C92A685B7858FEC8C93108EA489D8
:10047000B58986E08C93A289B3898C9180618C9335
:10048000A289B3898C9188608C93A289B3898C915D
:1004900080688C930288F389E02D80818F7D808332
:1004A0000895EF92FF920F931F93CF93DF938C01E8
:1004B0009091FA0481E0890F8093FA04E82EF12CE0
:1004C00027E0829FC00111240E94A523EC01FC01BA
:1004D000A70181E0E114F10461F01182108213821E
:1004E0001282158214828683379661E0E61AF1083B
:1004F000F1CF90E04150510987E0292F30E0E091A1
:10050000F804F091F9042417350784F467E0969F06
:1005100090011124DE01A20FB31FE20FF31F282F59
:1005200001900D922A95E1F79F5FE7CF309719F080
:10053000CF010E943A24D093F904C093F80480912B
:10054000FA0497E0899FC00DD11D112427971983C4
:10055000088388EE93E09B838A831D821C8281E05E
:100560008E83DF91CF911F910F91FF90EF900895AF
:10057000382F209124059091BD03213208F049C005
:1005800080919B038111FCCF42E040939B03309309
:100590009A033FEF309399031092980320939703A7
:1005A000ADE9B3E047E753E0FA013E2F341B3217C1
:1005B00018F43D913193F9CF109276032091760390
:1005C000990F922B9093760390917503913061F47B
:1005D00010927503909176039093BB009091BC00AC
:1005E00093FDF8CF95EC01C095EE9093BC009091EF
:1005F0009B039230E1F3909199039F3F79F08091B2
:100600009903803241F080919903803331F084E086
:1006100005C081E003C082E001C083E0109225059F
:100620001092240510929C030895FF920F931F933C
:10063000CF93DF939093210580932005C0E0D1E014
:10064000E0912005F09121058481C817D0F49281B2
:100650008381E92FF82FEC0FF11DEC0FF11D808144
:100660009181DC01ED91FC910480F581E02D1995DB
:10067000019729F0E0912005F0912105D583CF5F06
:10068000DFCF80911E058F3F41F0248180910205CC
:1006900090910305211118C01AC020910905A0915D
:1006A0000705B091080580E090E0821751F04D9168
:1006B0005D914E175F0719F480931F0591E08F5FDE
:1006C000F4CF9111E2CF71C02581211110C0109299
:1006D0000605FC0166816D7F668368600E94B90B28
:1006E000A0912005B091210580E021E047C021E0E4
:1006F000209306050E94C90BD4E684E6F82EC0E0DC
:10070000E0912005F09121058481C81790F5928130
:100710008381E92FF82FEC0FF11DEC0FF11D008103
:100720001181D801ED91FC910480F581E02DC80183
:1007300019950197E1F0F8012581422F50E08D2FA6
:100740000D2E000C990B4817590751F4848190E045
:100750004F2D0F2C000C550B8417950724F007C064
:100760004817590724F4D8011496FC90D22FCF5F74
:10077000C7CFF0920405D0930505B2CF14969C9193
:100780001497891790F412963C91129713969C91A6
:100790001397E32FF92FE80FF11DE80FF11D0190DA
:1007A000F081E02D23838F5FE9CFDF91CF911F91FF
:1007B0000F91FF900895EF92FF920F931F93CF93A5
:1007C000DF937C01009109050F5F0093090510E09C
:1007D000C801880F991F0E94A523EC01809107058D
:1007E0009091080540E001501109242F30E02017B6
:1007F000310774F4220F331FFC01E20FF31F6081F5
:100800007181FE01E20FF31F718360834F5FEDCFB3
:10081000009711F00E943A24D0930805C093070571
:10082000809109059E01280F311D280F311DF90106
:100830003297F182E082DF91CF911F910F91FF906B
:10084000EF900895CF93DF93282F30E0F901E45221
:10085000FD4F8491F901EA56FD4FD491F901E05B17
:10086000FD4FC491CC2381F08111BCD5EC2FF0E079
:10087000EE0FFF1FEA5CFD4FA591B4918FB7F8947E
:10088000EC91ED2BEC938FBFDF91CF9108950F93F7
:100890001F93CF93DF938C018BE895E09093030532
:1008A0008093020581E0809306058FEF8093040515
:1008B00080930505109227051092260510922505B4
:1008C000109224050E94FD141092900580919505C8
:1008D000823018F098E0909390058093930562E33E
:1008E00070E080E090E0D4D5609196058BE895E0CB
:1008F00002D768EE73E080E090E0CAD560E38BE851
:1009000095E00CD7CBE4D6E4CE010197F1F760E394
:100910008BE895E003D72197F1F760E38BE895E04A
:10092000FDD683E592E00197F1F760E28BE895E070
:10093000F5D690919005692F60628BE895E019D704
:1009400084E0809391056CE08BE895E012D78BE80A
:1009500095E053D782E08093920566E08BE895E0BE
:1009600008D762E08BE895E004D7EBE3FFE131972D
:10097000F1F7E0910205F091030588E0838760E0DC
:10098000CF01B9D6809102059091030502D740E0CE
:1009900060E0809102059091030502D7B801809133
:1009A0000205909103050E94691568EE73E080E0EE
:1009B00090E06ED580910205909103051ED78FEFD0
:1009C00080931F05DF91CF911F910F9108958F9212
:1009D0009F92AF92BF92EF92FF920F931F93CF938C
:1009E000DF9390916C0320916D0330916E0300E0D2
:1009F000091709F465C02D5F3F4FF9013397408116
:100A0000481711F00F5FF4CF282F30E0F901E452BE
:100A1000FD4F8491F901EA56FD4FD491F901E05B55
:100A2000FD4FC49110E0CC2371F08111DBD4EC2F89
:100A3000F0E0EE0FFF1FE45EFD4FA591B491EC9145
:100A4000ED2309F064C05CD57801EE0CFF1CEE0CC0
:100A5000FF1CE0917103F09172039801220F331F84
:100A6000E20FF31FA0916F03B0917003AE0DBF1D95
:100A70008D909D90AD90BC909B01AC0128193909D7
:100A80004A095B0949015A014081518160E070E0E7
:100A90008091730390917403481559056A057B058D
:100AA00048F421E0DC01A00FB11F2C9324E630E0D4
:100AB00031832083FC01E00FF11FC081C11102C00E
:100AC000C0E04AC01DD520916F0330917003E20E43
:100AD000F31EF70180809180A280B380DC01CB01FE
:100AE00088199909AA09BB094497A105B10540F3E2
:100AF00007D5F701608371838283938380917303A9
:100B000090917403FC01E00FF11F108225C0C80111
:100B1000880F991F880F991FC0916F03D0917003A0
:100B2000C80FD91FEDD4688379838A839B83E091B2
:100B30007303F0917403E00FF11F81E08083000FD5
:100B4000111FE0917103F0917203E00FF11F88EE25
:100B500093E091838083B4CF8C2FDF91CF911F914D
:100B60000F91FF90EF90BF90AF909F908F9008955E
:100B7000CF93DF93EC016115710559F0FB010190F2
:100B80000020E9F73197AF01461B570B36DC811186
:100B900002C0CE01F9DBCE01DF91CF910895CF9352
:100BA000DF93EC01FB01448155816081718125DC7B
:100BB000811102C0CE01E8DBCE01DF91CF91089513
:100BC000EF92FF920F931F93CF93DF93EC017B0182
:100BD0008A01BA01EBDB811103C0CE01D5DB07C06E
:100BE0001D830C83B701888199810E94C325CE01A2
:100BF000DF91CF911F910F91FF90EF900895CF93C8
:100C0000DF93EC016115710551F0FB0101900020AB
:100C1000E9F73197AF01461B570BD2DF01C0B4DBB8
:100C2000CE01DF91CF910895CF93DF93EC01FB01CB
:100C30008617970751F0608171816115710521F068
:100C400044815581BDDF01C09FDBCE01DF91CF9193
:100C50000895FC01808191810C943A24EF92FF92D7
:100C60000F931F93CF93DF93CDB7DEB7A1970FB646
:100C7000F894DEBF0FBECDBF7C01CB01BA01F701F6
:100C800011821082138212821582148242E0420F76
:100C90008E010F5F1F4F0E94F31EBC01C701AFDF23
:100CA000A1960FB6F894DEBF0FBECDBFDF91CF91F6
:100CB0001F910F91FF90EF9008950F931F93CF9383
:100CC000DF93CDB7DEB762970FB6F894DEBF0FBEE5
:100CD000CDBF8C01CB01F8011182108213821282E8
:100CE0001582148250E0BE016F5F7F4F0E94121F79
:100CF000BE016F5F7F4FC80182DF62960FB6F89426
:100D0000DEBF0FBECDBFDF91CF911F910F91089530
:100D10000F931F93CF93DF93CDB7DEB729970FB60D
:100D2000F894DEBF0FBECDBF8C01862FF801118273
:100D30001082138212821582148250E0BE016F5F0E
:100D40007F4F90E00E94261FBE016F5F7F4FC8015A
:100D500056DF29960FB6F894DEBF0FBECDBFDF91E8
:100D6000CF911F910F910895FC011182108213827F
:100D700012821582148258CFEF92FF920F931F9325
:100D8000CF93DF93CDB7DEB72C970FB6F894DEBFC5
:100D90000FBECDBF7C0165E872E0CE0107960E94D0
:100DA0005415F701208931892115310511F4128577
:100DB00001C0122F00E00117A1F0BE01695F7F4F53
:100DC000CE010196D1DF64E872E0CE010196D0DE5B
:100DD000BC01CE01079628DFCE0101963ADF0F5FF6
:100DE000EACFF70145816481809102059091030566
:100DF000D7D4BE01695F7F4F8091020590910305B2
:100E00000E946915CE01079624DF2C960FB6F89440
:100E1000DEBF0FBECDBFDF91CF911F910F91FF902D
:100E2000EF9008951F93CF93DF9380911F058F3F1D
:100E300079F48091020590910305DC01ED91FC911C
:100E40000280F381E02D47E050E065EE72E01995F5
:100E500010E0E0912005F09121058481181778F5C4
:100E600092818381E92FF82FE10FF11DE10FF11D30
:100E7000C081D1818B81882301F18A81811103C0D6
:100E8000CE017ADF19C0288939898A859B85821726
:100E9000930710F4CE0170DF4D816C8180910205C3
:100EA000909103057DD4BE016A5F7F4F809102055A
:100EB000909103050E9469151B821F5FCACF409164
:100EC0000505609104058091020590910305DF916D
:100ED000CF911F9165C4FC01A089B1898C91A6892D
:100EE000B78982FD0FC09C91818D8F5F8F73228D9A
:100EF000821749F0218DDF01A20FB11D5D969C93F1
:100F0000818F08958C910895FC01918D828D9817A1
:100F100061F0828DDF01A80FB11D5D968C91928DDD
:100F20009F5F9F73928F90E008958FEF9FEF0895DA
:100F3000FC01918D828D981731F0828DE80FF11DA3
:100F4000858D90E008958FEF9FEF0895FC01918DBE
:100F5000228D892F90E0805C9F4F821B91098F73B7
:100F6000992708958EEB93E0F1DF21E0892B09F4B6
:100F700020E0822F08958BE594E0E8DF21E0892BC3
:100F800009F420E0822F0895FC01848DDF01A80F71
:100F9000B11DA35ABF4F2C91848D90E001968F73A1
:100FA0009927848FA689B7892C93A089B1898C91C0
:100FB00080648C93938D848D981306C00288F38986
:100FC000E02D80818F7D80830895EF92FF920F93B3
:100FD0001F93CF93DF93EC0181E0888F9B8D8C8DE5
:100FE000981305C0E889F989808185FD23C0F62E14
:100FF0000B8D10E00F5F1F4F0F731127E02E8C8DAC
:10100000E8120BC00FB607FCFACFE889F989808196
:1010100085FFF5CFCE01B8DFF2CF8B8DFE01E80F53
:10102000F11DE35AFF4FF0820B8FEA89FB89808123
:10103000806207C0EE89FF896083E889F989808131
:101040008064808381E090E0DF91CF911F910F91C8
:10105000FF90EF900895CF93DF93EC01888D882364
:10106000C1F0EA89FB89808185FD05C0A889B9891D
:101070008C9186FD0EC00FB607FCF5CF808185FFF1
:10108000F2CFA889B9898C9185FFEDCFCE017CDFA5
:10109000E8CFDF91CF91089580E090E0892B19F09F
:1010A0006ADF811120C080E090E0892B19F05ADFBF
:1010B00081111CC080E090E0892B41F080E090E03D
:1010C000892B21F00E940000811113C080E090E084
:1010D000892BA1F080E090E0892B81F00E94000034
:1010E00081110AC008950E940000DDCF0E94000017
:1010F000E1CF0E940000EACF0C94000008953FB7B2
:10110000F89480919C0590919D05A0919E05B091C9
:101110009F0526B5A89B05C02F3F19F00196A11D7C
:10112000B11D3FBFBA2FA92F982F8827820F911D7D
:10113000A11DB11DBC01CD0142E0660F771F881FC4
:10114000991F4A95D1F7089582E090E0089583E0D1
:1011500090E0089581E090E0089580E090E00895A7
:1011600008950E94B6250F931F93CF938C0180E1C1
:1011700092E0D8018D939C93C0E0F80184810280B5
:10118000F381E02DC81788F4EC0FF11DEC0FF11D71
:1011900080819181009739F0DC01ED91FC91028012
:1011A000F381E02D1995CF5FE8CF309731F0CF0173
:1011B000CF911F910F910C943A24CF911F910F91D1
:1011C0000895CF93DF93EC01CEDFCE01DF91CF9175
:1011D0000C943A24CF93DF93EC0180E592E099835D
:1011E0008883CE010C9635DDCE010696DF91CF9136
:1011F00030CD28E732E0FC0131832083EBCFCF9361
:10120000DF93EC01F6DFCE01DF91CF910C943A240D
:101210002EE632E0FC0131832083DCCFCF93DF93D5
:10122000EC01F6DFCE01DF91CF910C943A2424E655
:1012300032E0FC0131832083CDCFCF93DF93EC01EB
:10124000F6DFCE01DF91CF910C943A24CF93DF9358
:10125000EC018AE592E0998388838A899B890097CB
:1012600039F0DC01ED91FC910280F381E02D1995BC
:10127000CE01DF91CF91AECFCF93DF93EC01E6DFCC
:10128000CE01DF91CF910C943A24CF93DF93EC0100
:10129000A1DFCE01DF91CF910C943A241F920F92DF
:1012A0000FB60F9211240BB60F922F933F934F93CB
:1012B0005F936F937F938F939F93AF93BF93EF93BE
:1012C000FF938EEB93E060DEFF91EF91BF91AF91C2
:1012D0009F918F917F916F915F914F913F912F914E
:1012E0000F900BBE0F900FBE0F901F9018951F927E
:1012F0000F920FB60F9211240BB60F922F933F93BC
:101300004F935F936F937F938F939F93AF93BF930D
:10131000EF93FF938EEB93E0DEDDFF91EF91BF91B2
:10132000AF919F918F917F916F915F914F913F917D
:101330002F910F900BBE0F900FBE0F901F9018951E
:101340001F920F920FB60F9211240BB60F922F938C
:101350003F934F935F936F937F938F939F93AF933D
:10136000BF93EF93FF938BE594E00EDEFF91EF9137
:10137000BF91AF919F918F917F916F915F914F91AD
:101380003F912F910F900BBE0F900FBE0F901F90AB
:1013900018951F920F920FB60F9211240BB60F9251
:1013A0002F933F934F935F936F937F938F939F936D
:1013B000AF93BF93EF93FF938BE594E08CDDFF91A8
:1013C000EF91BF91AF919F918F917F916F915F91BD
:1013D0004F913F912F910F900BBE0F900FBE0F902A
:1013E0001F90189590E0FC013197E231F10508F06B
:1013F0004EC08827EE58FF4F8F4F0C948923809161
:1014000080008F7703C0809180008F7D8093800063
:10141000089580918000877FF9CF84B58F7702C0CF
:1014200084B58F7D84BD08958091B0008F7703C00F
:101430008091B0008F7D8093B000089580919000DE
:101440008F7707C0809190008F7D03C080919000BE
:10145000877F8093900008958091A0008F7707C0C8
:101460008091A0008F7D03C08091A000877F809332
:10147000A0000895809120018F7707C080912001FE
:101480008F7D03C080912001877F80932001089584
:101490008F929F92AF92BF92CF92DF92EF92FF9284
:1014A0006B017C012CDE4B015C01C114D104E10411
:1014B000F104E9F024DEDC01CB0188199909AA09BD
:1014C000BB09883E9340A105B10578F321E0C21A1B
:1014D000D108E108F10888EE880E83E0981EA11C6F
:1014E000B11CC114D104E104F10421F7DECFFF9057
:1014F000EF90DF90CF90BF90AF909F908F90089526
:101500002FB7F894609198057091990580919A058C
:1015100090919B052FBF08951F920F920FB60F92C7
:1015200011242F933F938F939F93AF93BF938091F9
:10153000980590919905A0919A05B0919B053091DD
:10154000970523E0230F2D3720F40196A11DB11D2F
:1015500005C026E8230F0296A11DB11D2093970513
:101560008093980590939905A0939A05B0939B0555
:1015700080919C0590919D05A0919E05B0919F053D
:101580000196A11DB11D80939C0590939D05A0938C
:101590009E05B0939F05BF91AF919F918F913F9111
:1015A0002F910F900FBE0F901F9018951F920F92C2
:1015B0000FB60F9211240BB60F922F933F934F93B8
:1015C0005F936F937F938F939F93AF93BF93CF93CB
:1015D000DF93EF93FF9386E09FEF909385008093D6
:1015E00084008091FA04882309F470C08091FD047E
:1015F0009091FE0401969093FE048093FD04209147
:10160000FF04309100058217930708F45FC0109221
:10161000FE041092FD0480910105E091F804F09120
:10162000F90427E0829FE00DF11D112486818823B3
:1016300021F00190F081E02D19956091FA04A091BC
:10164000FF04B0910005E091F804F091F90420E066
:10165000CF01261749F0448155814A1B5B0B558306
:1016600044832F5F3796F5CF20910105FC0137E0C9
:10167000239FE00DF11D11242281338135832483C2
:1016800010920105FC0121E030910105261790F42C
:10169000EC0147E0349FC00DD11D1124A385B48512
:1016A0004C815D81A417B50710F4209301052F5FCD
:1016B0003796EACFFC0127E0329FE00DF11D11249F
:1016C00084819581909300058093FF04FF91EF91B1
:1016D000DF91CF91BF91AF919F918F917F916F914A
:1016E0005F914F913F912F910F900BBE0F900FBEC6
:1016F0000F901F901895FC01248131E030939C03DA
:101700002093BD0310922505109224058385682B34
:1017100088E295E096D381E00C94B8020F931F9372
:10172000CF938C01C62FE7DF6C2F6460C801E3DF25
:101730006C2F6B7FC801DFDF83EC90E00197F1F73E
:10174000CF911F910F9108950F931F93CF938C0109
:10175000C62F607F6160E2DF80E1C89FB001112485
:101760006160C801DBDF81E090E0CF911F910F91B4
:1017700008950F931F93CF938C01C62F607FCEDF08
:1017800080E1C89FB0011124C801CF911F910F9132
:10179000C5CFFC016681262F226026836A60E9CFCF
:1017A000CF93DF93CDB7DEB728970FB6F894DEBF9F
:1017B0000FBECDBF9C0188E0E4E4F2E0DE011196AB
:1017C00001900D928A95E1F7F9018085841710F454
:1017D0004FEF480FFE013196E40FF11DE40FF11DAC
:1017E0009081690F6068C90128960FB6F894DEBF32
:1017F0000FBECDBFDF91CF91BCCF61E0BADF8BE3ED
:101800009FE10197F1F70895CF92DF92EF92FF9257
:101810000F93CF93DF93CDB7DEB727970FB6F8942A
:10182000DEBF0FBECDBF7C016B01BA01CE010196B8
:101830002F839ADA2F81AE014F5F5F4FB601C70148
:1018400028D7CE01019605DA84E692E0F70191836C
:101850008083138A128A27960FB6F894DEBF0FBED4
:10186000CDBFDF91CF910F91FF90EF90DF90CF90A0
:101870000895AF92BF92DF92EF92FF920F931F9362
:10188000CF93DF93CDB7DEB72C970FB6F894DEBFBA
:101890000FBECDBF8C015B0165E872E0CE01019601
:1018A0000E945415F801278D30A141A152A1638DEA
:1018B000748D858D968D0E947223181674F17801AF
:1018C000F6E0EF0EF11CB701C8010C96ADD9BE01D0
:1018D0006F5F7F4FCE01079647DAB501CE010796BD
:1018E0005ED9BC01C701A0D9CE010796B2D981E06B
:1018F000F8018383CE010196ACD92C960FB6F894EB
:10190000DEBF0FBECDBFDF91CF911F910F91FF9032
:10191000EF90DF90BF90AF900895D12CF801638DC8
:10192000748D858D968D0E9441234AE0CE010796E5
:10193000C4D9EB84FC84F50184819581E81AF90A05
:10194000CE01079686D98D2D90E08E159F0508F063
:10195000B6CFBE016F5F7F4FCE01079605DA6DE807
:1019600072E0CE01079604D9BC01CE0101965CD984
:10197000CE0107966ED9D394D1CF4F925F926F92DA
:101980007F928F929F92AF92BF92CF92DF92EF920F
:101990000F93CF93DF93CDB7DEB72B970FB6F894A5
:1019A000DEBF0FBECDBF6C013B0149015A01202FA4
:1019B0000E2D65E872E0CE0101962B870E9454152A
:1019C0002B85AE014F5F5F4FB301C60162D6CE01DA
:1019D00001963FD98EE692E0F60191838083138EC3
:1019E000148E158E168E178E10A211A212A2C5018A
:1019F000B4010E9441236F83788789879A872F815A
:101A00003885B901330F880B990B0E94C4219B01C3
:101A1000AC01C501B4010E94742220E030E0A901AC
:101A20000E94BE21811105C080E090E0A0E8BFE3E4
:101A30001AC02AE037ED43E25CE3C501B4010E941D
:101A4000D9220E944123CB016AE070E00E947623F4
:101A5000811105C08DEC9CECACECBDE304C08AE0C8
:101A600097EDA3E2BCE3F601828B938BA48BB58B3D
:101A7000F601868A978AA08EB18E42885388648840
:101A80007588C301B2010E944123072E000C880B08
:101A9000990B0E94C4219B01AC01C301B2010E94B9
:101AA000742220E030E0A9010E94BE21811107C00C
:101AB0004AE06F817885CE010196FFD806C022E00A
:101AC000B501A401CE010196C9D8BE016F5F7F4F59
:101AD000C601CFDECE010196BCD8F601128E2B9640
:101AE0000FB6F894DEBF0FBECDBFDF91CF910F913F
:101AF000EF90DF90CF90BF90AF909F908F907F90AE
:101B00006F905F904F900895CF92DF92EF92FF9287
:101B10000F93CF93DF93CDB7DEB727970FB6F89427
:101B2000DEBF0FBECDBF7C016B01BA01CE010196B5
:101B30002F831AD92F81AE014F5F5F4FB601C701C6
:101B4000A8D5CE01019685D888E792E0F701918368
:101B5000808327960FB6F894DEBF0FBECDBFDF910E
:101B6000CF910F91FF90EF90DF90CF900895CF929B
:101B7000DF92EF92FF920F93CF93DF93CDB7DEB753
:101B800027970FB6F894DEBF0FBECDBF7C016B0167
:101B9000BA01CE0101962F83E7D82F81AE014F5FA6
:101BA0005F4FB601C70175D5CE01019652D88AE5BF
:101BB00092E0D7018D939C9386E090E00E94A5234C
:101BC000FC0186E0DF011D928A95E9F714821582F7
:101BD00088E192E091838083D7015396FC93EE9342
:101BE000529727960FB6F894DEBF0FBECDBFDF9198
:101BF000CF910F91FF90EF90DF90CF900895AF922B
:101C0000BF92CF92DF92EF92FF920F931F93CF93E9
:101C1000DF93EC019C8120E030E0EE24EA94FE2C7E
:101C2000291780F4EA81FB81A901440F551FE40FB5
:101C3000F51F408151814617570709F479012F5F3D
:101C40003F4FEECF8FEFE816F80609F446C0992310
:101C500011F091509C838B01CC80D12CC601880F50
:101C6000991F0E94A5235C0150E040E0252F30E041
:101C7000C216D306ACF02E153F0581F0220F331F9C
:101C8000EA81FB81E20FF31F80819181F501E40F6E
:101C9000F11DE40FF11D918380834F5F5F5FE6CFFD
:101CA0008A819B81009711F00E943A24AA82BB820C
:101CB0000115110591F0D801ED91FC910280F3819D
:101CC000E02DC801DF91CF911F910F91FF90EF9010
:101CD000DF90CF90BF90AF901994DF91CF911F917B
:101CE0000F91FF90EF90DF90CF90BF90AF9008954D
:101CF000EF92FF920F931F93CF93DF93EC017B0141
:101D00008C010A5F1F4FB8010C960E941406B701A0
:101D1000C8010E94140681E08B83DF91CF911F914F
:101D20000F91FF90EF90089585ED8093BC00809116
:101D3000BC0084FDFCCF10929B0308954091550692
:101D4000262F30E0240F311D21323105DCF42091A3
:101D50009B032430C9F4FC0180E090E0861758F41E
:101D6000309155062191DC01AD5CB94FA30FB11D37
:101D70002C930196F3CF80915506680F609355061A
:101D800080E0089581E0089582E008950895E0914B
:101D9000270580912605E81730F4F0E0E050FD4F6C
:101DA000808190E008958FEF9FEF0895909127052F
:101DB00080912605981750F4E92FF0E0E050FD4F90
:101DC000208130E09F5F9093270502C02FEF3FEF07
:101DD000C90108958091260590E020912705821B76
:101DE00091090895CF92DF92EF92FF920F931F9384
:101DF000CF93DF937C01262F972F8A0180919C033C
:101E0000882391F0C62FD72F6E01C40ED51ECC1596
:101E1000DD0569F06991D701ED91FC910190F081A8
:101E2000E02DC7011995F3CF642F822F87DFC801FA
:101E3000DF91CF911F910F91FF90EF90DF90CF90A6
:101E40000895CF93DF931F92CDB7DEB769832091BA
:101E50009C032223D1F020912405203240F021E080
:101E600030E0FC013383228380E090E014C0809155
:101E70002505E82FF0E0E356FC4F998190838F5FB2
:101E8000809325058093240504C061E0CE0101966E
:101E900055DF81E090E00F90DF91CF910895CF93CF
:101EA000DF93CDB7DEB7A4970FB6F894DEBF0FBEB1
:101EB000CDBF4AE060912403CE010D960E948806B2
:101EC0004AE060912503CE0107960E948806609142
:101ED000260370E06F3171051CF06E51710906C068
:101EE0008EE190E09C01261B370BB9014AE0CE0140
:101EF0004F960E945D066DEE72E0CE014396D4D5FA
:101F0000BE016D5E7F4FCE0149960E94B406BE01B0
:101F1000615E7F4FCE0149960E94CF05BC01CE0184
:101F200001960E94B406CE0149960E942906CE0170
:101F300043960E942906CE014F960E942906898960
:101F40009A89019701F56DE872E0CE014396ACD510
:101F5000BE016D5E7F4FCE0149960E94B406BE0160
:101F6000635F7F4FCE0149960E94CF05BC01CE0131
:101F70000D960E941406CE0149960E942906CE01B4
:101F800043960E9429068B859C85019701F56DE893
:101F900072E0CE01439688D5BE016D5E7F4FCE01C3
:101FA00049960E94B406BE01695F7F4FCE014996F3
:101FB0000E94CF05BC01CE0107960E941406CE01F7
:101FC00049960E942906CE0143960E942906BE0129
:101FD000635F7F4FCE0143960E94B40660EF72E0CC
:101FE000CE0143960E94B805BE01695F7F4F0E94F3
:101FF000CF0560EF72E00E94B805BE016F5F7F4FB2
:102000000E94CF05BC01CE0149960E94B406BE01D4
:10201000675E7F4F8091FE029091FF0269DECE01E4
:1020200049960E942906CE0143960E942906CE01B8
:1020300001960E942906CE0107960E942906CE012C
:102040000D960E942906A4960FB6F894DEBF0FBE27
:10205000CDBFDF91CF910895CF93DF93CDB7DEB79A
:102060006E970FB6F894DEBF0FBECDBF4AE0609109
:102070002203CE010D960E9488064AE0609121035A
:10208000CE0107960E9488064AE060912003CE01A7
:1020900001960E94880689899A89019701F56DE861
:1020A00072E0CE01439600D5BE016D5E7F4FCE013A
:1020B00049960E94B406BE01635F7F4FCE014996E8
:1020C0000E94CF05BC01CE010D960E941406CE01E0
:1020D00049960E942906CE0143960E9429068B85C7
:1020E0009C85019701F56DE872E0CE014396DCD442
:1020F000BE016D5E7F4FCE0149960E94B406BE01BF
:10210000695F7F4FCE0149960E94CF05BC01CE0189
:1021100007960E941406CE0149960E942906CE0118
:1021200043960E9429068D819E81019701F56DE8F5
:1021300072E0CE014396B8D4BE016D5E7F4FCE01F2
:1021400049960E94B406BE016F5F7F4FCE0149964B
:102150000E94CF05BC01CE0101960E941406CE015B
:1021600049960E942906CE0143960E942906BE0187
:10217000635F7F4FCE0143960E94B40662EF72E028
:10218000CE0143960E94B805BE01695F7F4F0E9451
:10219000CF0562EF72E00E94B805BE016F5F7F4F0E
:1021A0000E94CF05BC01CE0149960E94B406BE0133
:1021B000675E7F4F8091FC029091FD0299DDCE0118
:1021C00049960E942906CE0143960E942906CE0117
:1021D00001960E942906CE0107960E942906CE018B
:1021E0000D960E9429066E960FB6F894DEBF0FBEBC
:1021F000CDBFDF91CF9108952F923F924F925F9282
:102200006F927F928F929F92AF92BF92CF92DF9206
:10221000EF92FF920F931F93CF93DF93482F20915C
:102220000405022E000C330BC90106976AE070E02A
:102230000E94762380900505880C8A948A94860EE5
:10224000C42FD0E026E0429FC0011124FC01E80D1C
:10225000F11DA3E0EE0FFF1FAA95E1F7ED55FA4F30
:1022600060817181E280F380A480B5806680778090
:102270008E0100561A4FF8012080312CF1E02F1A00
:102280003108982CE92DF0E0E215F3050CF04DC073
:10229000292D2170522E550C252D220F220F520E62
:1022A000492C46944394DF011196A80FB91F23E0EF
:1022B000AA0FBB1F2A95E1F7AD55BA4FCD90DC9020
:1022C0001197E80FF91F33E0EE0FFF1F3A95E1F782
:1022D000ED55FA4FD182C08212964D915C911397C1
:1022E0005383428314962D913C9115973583248313
:1022F00016960D90BC91A02DB783A683F60154824B
:102300004582E2E0DE2ED50CFA01D482458243E01C
:10231000450DF9014483458226E0250D14962C9342
:10232000149715964C929394ADCFE091FA02F091E8
:10233000FB028289938963DCE091FA02F091FB024F
:10234000B701828993895BDCE091FA02F091FB028C
:10235000B5018289938953DCE091FA02F091FB0286
:10236000B301828993894BDC80910205909103052A
:1023700044DA80912005909121050E941503F8010F
:102380008081815080838DE18C9F90018D9F300DE5
:102390001124F901EC5CFA4F6081462F50E0415066
:1023A0005109882D90E0841795070CF5DC011196F2
:1023B000AA0FBB1FAA0FBB1FA20FB31FAC5CBA4F63
:1023C00011960D911C911297FC01EE0FFF1FEE0F5D
:1023D000FF1FE20FF31FEC5CFA4F12830183139689
:1023E0008D919C911497948383838394DACF8DE1AC
:1023F0008C9FF0018D9FF00D1124EC5CFA4F615021
:102400006083DF91CF911F910F91FF90EF90DF904C
:10241000CF90BF90AF909F908F907F906F905F9084
:102420004F903F902F90089582E0E6CE81E0E4CE79
:1024300080E0E2CE2F923F924F925F926F927F9216
:102440008F929F92AF92BF92CF92DF92EF92FF92C4
:102450000F931F93CF93DF93CDB7DEB727970FB6B8
:10246000F894DEBF0FBECDBF882E912C940120566C
:102470003A4F3901F9011081163009F4EBC0912F60
:102480009170F92EFF0C2F2D220F220FF20E1695B0
:102490001F5F813069F038F0823081F4E091F602FC
:1024A000F091F70209C0E091FA02F091FB0204C03A
:1024B000E091F802F091F902C288D3888F8383E219
:1024C00090E00E94A5232C01E12E0F2D20E030E0AA
:1024D00040E451E4B60151DAF301808196E0989D21
:1024E0005001999DB00C11249501280F311DC9018F
:1024F00023E0880F991F2A95E1F7FC01ED55FA4F6B
:102500001F015182408280E090E0A0E4B1E4F2013A
:10251000838F948FA58FB68F62EF72E0CE01019604
:10252000C3D282E190E00E94A5232C0122E02F0D6E
:10253000012FAE014F5F5F4FB601E6DAF101538222
:102540004282CE0101960E94290683E290E00E9419
:10255000A5232C0103E00F0D20E030E040E751E41B
:10256000B6010BDAF301E080AE0CB11CC50133E01B
:10257000880F991F3A95E1F79C012D553A4F1901A3
:10258000F9015582448280E090E0ACE6B2E4F201C9
:10259000838F948FA58FB68F64EF72E0CE01019682
:1025A00083D284E190E00E94A5235C0126E02F0DF8
:1025B000012FAE014F5F5F4FB60126D9F101B782FF
:1025C000A682CE0101960E942906FF81F13049F0D2
:1025D00028F0F23059F484E192E105C088E192E1FB
:1025E00002C086E192E1F501938B828BE394F301C3
:1025F000E0828DE1889DD001899DB00D1124FD01FF
:10260000EC5CFA4F808191E0980F9083F4E08F9F0B
:10261000A00DB11D1124AC5CBA4F96E0989DF0015D
:10262000999DF00D1124E80FF11D83E0EE0FFF1FBF
:102630008A95E1F7ED55FA4F808191814696129681
:102640009C938E93119784819581469614969C93C2
:102650008E93139727960FB6F894DEBF0FBECDBFAB
:10266000DF91CF911F910F91FF90EF90DF90CF906E
:10267000BF90AF909F908F907F906F905F904F90A2
:102680003F902F90089582E0D5CE81E0D3CE80E0B8
:10269000D1CE6F927F928F929F92AF92BF92CF9244
:1026A000DF92EF92FF920F931F93CF93DF9300D0AF
:1026B00000D0CDB7DEB76C014B015A01122F80E577
:1026C00092E0F6019183808381E08283138265E842
:1026D00072E0C6010696E8D165E872E0C6010C9684
:1026E000E3D1F401648063946482712CC301880F88
:1026F000991F0E94A5237C0120E0F1E06F1A710868
:10270000422F50E0F401828193814615570574F4FD
:10271000440F551FFC01E40FF51F80819181F701E3
:10272000E40FF51F918380832F5FEACF009711F0AC
:102730000E943A24F401F382E2828481F701E80FD7
:10274000F11DE80FF11D3297D182C082B501CE0193
:1027500001960E94B406BE016F5F7F4FC601C8DAC2
:10276000CE0101960E942906F60114830583269660
:102770000FB6F894DEBF0FBECDBFDF91CF911F9192
:102780000F91FF90EF90DF90CF90BF90AF909F9010
:102790008F907F906F9008951F920F920FB60F92B7
:1027A00011240BB60F922F933F934F935F936F9328
:1027B0007F938F939F93AF93BF93EF93FF938091FA
:1027C000B900887F803609F49CC068F5883209F426
:1027D0005BC090F4803109F454C038F4882309F4C4
:1027E000F6C0883009F44DC0F5C0883109F44CC0FA
:1027F000803209F45DC0EEC0803409F468C048F44A
:10280000803309F455C0883309F0E4C080939903FC
:10281000D8C0803509F44FC0883509F45DC08834CC
:1028200009F0D8C0D6C0883909F4C7C0A8F48837E1
:1028300009F467C038F4883609F463C0803709F4B6
:1028400060C0C8C0883809F4B8C0803909F45FC0D6
:10285000803809F0BFC05BC0803B09F486C038F403
:10286000803A09F466C0883A09F47FC0B3C0803C5E
:1028700009F4A7C0883C09F4A4C0883B09F48AC0C5
:10288000A9C08091760310C090919803809197031E
:10289000981770F5E091980381E08E0F809398036C
:1028A000F0E0E958FC4F80818093BB0085EC86C046
:1028B000809399038EC0E091980381E08E0F8093FE
:1028C00098038091BB00F0E0E958FC4F8083909121
:1028D0009803809197036EC0E091980381E08E0F7A
:1028E000809398038091BB00F0E0E958FC4F80830F
:1028F00080919A0381116DC081E08093750384EA11
:1029000061C083E080939B0310927906CFCF8091C2
:102910007906803208F051C0E091790681E08E0F8F
:10292000809379068091BB00F0E0E75AF94F8083ED
:10293000BDCF85EC8093BC0010929B0380917906FB
:10294000803230F4E0917906F0E0E75AF94F1082D6
:102950006091790670E0E0915706F091580689E59C
:1029600096E019951092790635C084E080939B0318
:102970001092560610925506E0915306F0915406B7
:10298000199580915506811105C081E08093550607
:1029900010923306E091560681E08E0F8093560622
:1029A000F0E0ED5CF94F80818093BB00909156067A
:1029B00080915506981708F479CF85E88093BC007C
:1029C00009C085EC8093BC0010929B0303C0109259
:1029D0009903AAD9FF91EF91BF91AF919F918F91E8
:1029E0007F916F915F914F913F912F910F900BBE0F
:1029F0000F900FBE0F901F90189510929B0381E0CF
:102A000080939A031092750384E10E94220485E169
:102A10000E942204E9EBF0E080818E7F8083808138
:102A20008D7F808388E48093B80085E48093BC0028
:102A3000089528E132E0FC01318320830C94B3082F
:102A4000CF93DF93EC01F5DFCE01DF91CF910C94B2
:102A50003A24CF92DF92EF92FF920F931F93CF937E
:102A6000DF936C017A018B01C0E0D0E0CE15DF0569
:102A700089F0D8016D918D01D601ED91FC91019005
:102A8000F081E02DC6011995892B11F47E0102C059
:102A90002196ECCFC701DF91CF911F910F91FF904D
:102AA000EF90DF90CF900895FC0111821082138285
:102AB0001282158214826115710551F0FB0101909B
:102AC0000020E9F73197AF01461B570B0C94E00546
:102AD0000895DC01ED91FC91DB0114964D915C9120
:102AE00015976D917C910280F381E02D1994CF931D
:102AF000DF93CDB7DEB72C970FB6F894DEBF0FBECD
:102B0000CDBF789484B5826084BD84B5816084BD76
:102B100085B5826085BD85B5816085BD80916E007B
:102B2000816080936E0010928100809181008260AC
:102B300080938100809181008160809381008091E9
:102B400080008160809380008091B10084608093D8
:102B5000B1008091B00081608093B00080919100BD
:102B600082608093910080919100816080939100B8
:102B7000809190008160809390008091A10082609C
:102B80008093A1008091A10081608093A100809139
:102B9000A00081608093A0008091210182608093D9
:102BA0002101809121018160809321018091200188
:102BB00081608093200180917A00846080937A0004
:102BC00080917A00826080937A0080917A0081609F
:102BD00080937A0080917A00806880937A001092C6
:102BE000C1008BE594E00E942A028EEB93E00E94E4
:102BF0002A0286E090E00E94A5237C0116E0DC0119
:102C0000E12F1D92EA95E9F7DC0114961C921497C6
:102C100015961C92159708E1C02E02E0D02ECD9299
:102C2000DC9290935203809351036EE772E0CE01E1
:102C300001963ADF82E190E00E94A5235C0100E06A
:102C400020E0AE014F5F5F4FB7010E94840DB0924C
:102C50005003A0924F03CE0101960E94290665E819
:102C600072E0CE01019620DF82E190E00E94A52370
:102C70005C0128E0AE014F5F5F4FB7010E94840DF9
:102C8000B092FF02A092FE02CE0101960E94290698
:102C900066E872E0CE01019607DF82E190E00E94D3
:102CA000A5235C0101E028E0AE014F5F5F4FB70153
:102CB0000E94840DB092FD02A092FC02CE0101960A
:102CC0000E94290686E090E00E94A5237C01FC0179
:102CD00011921A95E9F7DC0114961C921497159637
:102CE0001C921597CD92DC9290934E0380934D03E6
:102CF0006FE872E0CE010196D7DE82E190E00E949B
:102D0000A5236C0100E027E0AE014F5F5F4FB701E4
:102D10000E94840DD0924C03C0924B03CE010196C9
:102D20000E94290668E972E0CE010196BDDE84E1C9
:102D300090E00E94A5235C0102E020E0AE014F5F1D
:102D40005F4FB7010E94B70DB0924A03A0924903AA
:102D5000CE0101960E9429066FE972E0CE0101962C
:102D6000A3DE84E190E00E94A5236C01F501628955
:102D7000738900E023E0AE014F5F5F4F0E94B70D03
:102D8000D092FB02C092FA02CE0101960E9429065F
:102D90006EEA72E0CE01019687DE84E190E00E9447
:102DA000A5237C01D60152966D917C91539720E02A
:102DB000AE014F5F5F4F0E94040CF0924803E09217
:102DC0004703CE0101960E94290687E493E1F701AB
:102DD000938B828B62EB72E0CE01019665DE82E11D
:102DE00090E00E94A5237C01D50152966D917C91C3
:102DF000539701E020E0AE014F5F5F4F0E94840DCA
:102E0000F0924603E0924503CE0101960E94290606
:102E100083E290E00E94A5236C01F5016289738929
:102E2000EE24E3940AE02AE037ED44E052E40E9405
:102E3000BD0CD0924403C0924303F6E1CF0ED11CE7
:102E4000D0924E05C0924D056BEB72E0CE0101961B
:102E50002BDE82E190E00E94A5236C01E090490303
:102E6000F0904A03D70152966D917C91539702E0FE
:102E700020E0AE014F5F5F4F0E94840DD09242036D
:102E8000C0924103CE0101960E94290683E290E0A0
:102E90000E94A5236C01F7016289738982E0E82E04
:102EA0000AE02DEC3CEC40E752E4C6010E94BD0C68
:102EB000D0924003C0923F03F6E1CF0ED11CD092D6
:102EC0005005C0924F0564EC72E0CE010196ECDD36
:102ED00084E190E00E94A5237C0160914D037091F4
:102EE0004E0302E027E0AE014F5F5F4F0E94B70D37
:102EF000F0923E03E0923D03CE0101960E94290626
:102F00006FE972E0CE010196CFDD84E190E00E948E
:102F1000A5235C01D70152966D917C91539700E0F7
:102F200023E0AE014F5F5F4F0E94B70DB092F902F0
:102F3000A092F802CE0101960E9429066EEA72E084
:102F4000CE010196B1DD84E190E00E94A5236C01E1
:102F5000F5016289738920E0AE014F5F5F4F0E94E7
:102F6000040CD0923C03C0923B03CE0101960E9418
:102F7000290685E493E1D60153969C938E9352974C
:102F800062EB72E0CE0101968FDD82E190E00E945B
:102F9000A5236C01F7016289738901E020E0AE018D
:102FA0004F5F5F4F0E94840DD0923A03C092390365
:102FB000CE0101960E94290683E290E00E94A5239B
:102FC0006C01D70152966D917C915397EE24E39456
:102FD0000AE020E030E044E052E40E94BD0CD092D0
:102FE0003803C0923703B6E1CB0ED11CD0926B05EB
:102FF000C0926A056BEB72E0CE01019655DD82E16D
:1030000090E00E94A5236C01E0903D03F0903E0308
:10301000F7016289738902E020E0AE014F5F5F4FE4
:103020000E94840DD0923603C0923503CE010196E2
:103030000E94290683E290E00E94A5236C01D7013B
:1030400052966D917C91539792E0E92E0AE020E030
:1030500030E040E752E4C6010E94BD0CD092340338
:10306000C0923303B6E1CB0ED11CD0926D05C09255
:103070006C056BEC72E0CE01019616DD84E190E008
:103080000E94A5237C0160914D0370914E0302E0E4
:103090002EE0AE014F5F5F4F0E94B70DF0923203FA
:1030A000E0923103CE0101960E9429066FE972E099
:1030B000CE010196F9DC84E190E00E94A5235C0139
:1030C000F7016289738900E023E0AE014F5F5F4F33
:1030D0000E94B70DB092F702A092F602CE010196BF
:1030E0000E9429066EEA72E0CE010196DDDC84E1E1
:1030F00090E00E94A5236C01D50152966D917C91C0
:10310000539720E0AE014F5F5F4F0E94040CD092B6
:103110003003C0922F03CE0101960E94290683E45A
:1031200093E1F601938B828B62EB72E0CE01019604
:10313000BBDC82E190E00E94A5236C01D70152968E
:103140006D917C91539701E020E0AE014F5F5F4F9E
:103150000E94840DD0922E03C0922D03CE010196C1
:103160000E94290683E290E00E94A5236C01F701EA
:1031700062897389EE24E3940AE020E030E044E0C1
:1031800052E40E94BD0CD0922C03C0922B03F6E1B6
:10319000CF0ED11CD0928805C09287056BEB72E0F0
:1031A000CE01019681DC82E190E00E94A5236C01B2
:1031B000E0903103F0903203D70152966D917C91EB
:1031C000539702E020E0AE014F5F5F4F0E94840DF5
:1031D000D0922A03C0922903CE0101960E942906AB
:1031E00083E290E00E94A5236C01F7016289738954
:1031F00022E0E22E0AE020E030E040E752E40E94C4
:10320000BD0CD0922803C0922703F6E1CF0ED11C4B
:10321000D0928A05C092890562ED72E0CE010196D6
:1032200043DCCE0101960E944704CE0101960E9424
:1032300029060091510310915203C8010E94DB033B
:1032400080914D0390914E030E94DB03C8010E94C0
:1032500015030E94120780916D0390916E030097F1
:1032600011F00E943A2480917103909172030097AB
:1032700011F00E943A248091730390917403009797
:1032800011F00E943A2480916F039091700300978F
:1032900011F00E943A2486E080936C0382E190E072
:1032A0000E94A523FC019C012E5E3F4F12821182D9
:1032B0003396E217F307D1F790936E0380936D0373
:1032C0008CE090E00E94A523909372038093710399
:1032D00086E090E00E94A52390937403809373038B
:1032E00088E190E00E94A5239093700380936F0380
:1032F00070E048EE53E0A1E080916C03781708F08D
:103300005FC0272F30E063E0769FC0011124F901F0
:10331000E050FE4F6081E0916D03F0916E03E80F85
:10332000F91F6083E0916D03F0916E03E80FF91FC0
:10333000808190E0FC01EA56FD4F6491FC01E05B66
:10334000FD4F84918823D1F090E0880F991FFC01F4
:10335000EE5FFD4F05911491FC01EA5CFD4FE59095
:10336000F4909FB7F894F801B081862F80958B2355
:103370008083F7018081682B60839FBFC901880F1C
:10338000991FE0917103F0917203E80FF91F5183C7
:103390004083E0917303F0917403E20FF31FA08365
:1033A000220F331F220F331FE0916F03F091700340
:1033B000E20FF31F10821182128213827F5F9CCF73
:1033C000F894109280001092810010926F0080910A
:1033D000810083608093810086E09FEF9093850059
:1033E0008093840081E080936F008CE290E10E94E2
:1033F00051028FE49FE00E94510240E057E0242FE9
:1034000030E08091FA0490E00197281739070CF01A
:1034100040C0B7E04B9F8001112421E08091FA0465
:103420002817A8F58091F8049091F904DC01A00F09
:10343000B11F12966D917C911397F7E02F9F800D2D
:10344000911D1124FC01E280F380E616F706E8F4F2
:10345000CD90DC9011971496ED90FC9015971696F0
:103460003C911697B52E01900D92BA94E1F7DC01CC
:103470001196DC92CE9213967C936E9312971596CA
:10348000FC92EE92149716963C932F5FC7CF4F5F36
:10349000B6CF789411E086E0282E90E0C92E93E014
:1034A000D92E25EE322E05EC10939C03E8E6E0932E
:1034B000BD03109225051092240560E088E295E096
:1034C0000E94210F81E00E94B802882319F0109217
:1034D0005303B2C01093530380919B038111FCCF1F
:1034E00010939B0310939A03FFEFF09399031092AC
:1034F0009803209297031093760380917603806D52
:103500008093760380917503813069F4109275037E
:10351000809176038093BB008091BC0083FDF8CF3F
:103520000093BC0002C03092BC0080919B038130AC
:10353000E1F380919803873018F48091980301C0DB
:1035400087E0A7E7B3E0E0E0F3E09E2F9C1998172F
:1035500018F49D919193F9CF109227058093260539
:10356000873008F469C088E295E00E94D60E982F53
:103570009695969596959E70292F220F220F920F61
:103580008F70890F8093200388E295E00E94D60E09
:10359000982F92959F708F702AE0929F800D112432
:1035A0008093210388E295E00E94D60E982F96958D
:1035B000969596959670292F220F220F920F8F7055
:1035C000890F8093220388E295E00E94D60E982FFF
:1035D00092959F708F703AE0939F800D1124809395
:1035E000230388E295E00E94D60E982F92959F7053
:1035F0008F704AE0949F800D11248093240388E209
:1036000095E00E94D60E982F92959F708F705AE089
:10361000959F800D11248093250388E295E00E94F8
:10362000D60E982F9F70925E82958F706AE0869F6B
:10363000900D11249093260389E00E94E7048823CB
:1036400009F469C08091220590912305892B09F026
:1036500062C04FEF6FEFB12CE0912005F091210592
:103660008481B81608F04BC092818381E92FF82F2E
:10367000EB0DF11DEB0DF11DE080F180D701ED9117
:10368000FC910480F581E02DC7014B876C8719956B
:103690004B856C85019789F1F7015581852F90E065
:1036A00020910505022E000C330B821793076CF056
:1036B0008217930711F5E481F0E020910405022EB2
:1036C000000C330BE217F307C4F4242F042E000C74
:1036D000330B2817390774F08217930771F4D70159
:1036E00014968C9190E0262F062E000C330B281791
:1036F00039071CF4F7016481452FB394ADCF6F3FB8
:1037000051F0609304054093050580910205909166
:1037100003050E94D00B8BE00E94E704882309F484
:1037200069C08091220590912305892B09F062C020
:103730004DE76DE7B12CE0912005F09121058481E2
:10374000B81608F04BC092818381E92FF82FEB0D5A
:10375000F11DEB0DF11DE080F180D701ED91FC91A1
:103760000480F581E02DC7014B876C8719954B8547
:103770006C85019789F1F7015581852F90E02091A3
:103780000505022E000C330B281739076CF0821741
:10379000930711F5E481F0E020910405022E000C5E
:1037A000330B2E173F07C4F4242F042E000C330BC9
:1037B0008217930774F08217930771F4D701149658
:1037C0008C9190E0262F062E000C330B8217930766
:1037D0001CF4F7016481452FB394ADCF6D3751F0E0
:1037E00060930405409305058091020590910305BF
:1037F0000E94D00B8CE00E94E704882309F476C075
:10380000E0902205F0902305E114F10409F46EC064
:10381000D70152968D909D90AD90BC90559756963D
:103820002D913D914D915C915997C501B4015DD6A3
:10383000F701668B778B808F918F238D348D458D2B
:10384000568D2F83388749875A874CD71816ACF482
:10385000F701478C50A061A072A02F81388549855F
:103860005A85C301B2018AD587FF07C0D701569692
:103870004D925D926D927C925997C501B40101D72A
:10388000072E000C880B990B7FD59B01AC01C5015D
:10389000B4012AD620E030E0A90170D581110CC016
:1038A000F70166897789808D918DEBD64AE0CE014C
:1038B00001960E945D060CC0D70156964D915D9110
:1038C0006D917C91599722E0CE0101960E942E06BF
:1038D000BE016F5F7F4FC7010E94390CCE01019678
:1038E0000E942906F70113830E9412078AE00E94B2
:1038F000E704882309F476C0E0902205F0902305C0
:10390000E114F10409F46EC0D70152968D909D9098
:10391000AD90BC905597A501940156966D917D91FF
:103920008D919C915997E0D5F701668B778B808FAD
:10393000918F278D30A141A152A12F8338874987CC
:103940005A871CD587FF15C0F701438C548C658CB2
:10395000768CA30192016F81788589859A850ED531
:1039600087FF07C0D70156964D925D926D927C926B
:103970005997C501B40185D6072E000C880B990B09
:1039800003D59B01AC01C501B401AED520E030E008
:10399000A901F4D481110CC0F70166897789808D63
:1039A000918D6FD64AE0CE0101960E945D060CC053
:1039B000D70156964D915D916D917C91599722E07A
:1039C000CE0101960E942E06BE016F5F7F4FC70198
:1039D0000E94390CCE0101960E942906F70113833B
:1039E0000E94120787E00E94E7048823F1F180918A
:1039F000220590912305892BC1F5809102059091B4
:103A000003050E94FD0BE0911E05EF3FF9F4809144
:103A10001F058F5F80931F052091090530E0082E58
:103A2000000C990B2817390711F410921F05E0912B
:103A30001F05EE0FFF0B8091070590910805E80F19
:103A4000F91F808191810E9415030DC0EE0FFF0BBD
:103A5000E65FFA4F808191810E94150380911E05D7
:103A6000815080931E050E94120788E00E94E7049F
:103A7000882309F476C0B12CE0912005F09121054E
:103A80008481B81608F06DC092818381E92FF82FE8
:103A9000EB0DF11DEB0DF11DE080F180209104058F
:103AA000022E000C330BD70114968C91149790E0E2
:103AB0002817390709F053C020910505022E000C84
:103AC000330B15968C91159790E02817390709F05C
:103AD00046C0ED91FC910480F581E02DC701199558
:103AE0008230910511F18330910531F1892BB9F5BF
:103AF00080910205909103050E94FD0BE0911E0547
:103B0000EF5FE0931E05EE0FFF0BE65FFA4F80912B
:103B100020059091210591838083F7018289938903
:103B20000E9415030E9412071CC0D7015296ED9106
:103B3000FC915397199513C0F0922305E09222054A
:103B4000F701828D811102C0128F09C0128E12837B
:103B500013830E9412071092230510922205B3943A
:103B60008BCFE0912005F09121058481882309F411
:103B70004CC08581882309F448C080916403811179
:103B80000CC00E94800A609360037093610380936D
:103B9000620390936303109364030E94800A8090F1
:103BA000600390906103A0906203B0906303DC0116
:103BB000CB0188199909AA09BB09853F9140A10544
:103BC000B10518F10E94800A60936003709361034D
:103BD0008093620390936303209106058091020510
:103BE00090910305211105C0109306050E94C90B91
:103BF0000CC010920605DC0116966C9116976D7F2D
:103C000016966C9368600E94B90B80912205909182
:103C10002305892BE1F18091580381110CC00E948A
:103C2000800A6093540370935503809356039093D6
:103C30005703109358030E94800A80905403909079
:103C40005503A0905603B0905703DC01CB018819AF
:103C50009909AA09BB09893C9105A105B105B8F0EC
:103C60000E94800A60935403709355038093560317
:103C700090935703E0912205F091230513838281ED
:103C8000811102C0128301C012820E9412070E9499
:103C900012078BE594E00E94A607892B51F08BE573
:103CA00094E00E948407682F8EEB93E00E94E50762
:103CB000F0CF0E944C08F8CBCF92DF92EF92FF92A8
:103CC000EEEBF3E01382128288EEC82E83E0D82E4A
:103CD000E12CF12CC482D582E682F78280E292E068
:103CE000918380832DEC30E0358724872CEC30E005
:103CF0003787268728EC30E0318B208B29EC30E0A9
:103D0000338B228B2AEC30E0358B248B2EEC30E089
:103D1000378B268B118E128E138E148EEBE5F4E00A
:103D200013821282C482D582E682F78291838083D5
:103D300085EC90E09587848784EC90E09787868770
:103D400080EC90E0918B808B81EC90E0938B828B68
:103D500082EC90E0958B848B86EC90E0978B868B41
:103D6000118E128E138E148EE8EFF4E012821482FC
:103D7000138216821582108617821186E2E0F5E022
:103D800017828FEF848F858F10922705109226055A
:103D900010922505109224050E94FD14E8E2F5E03A
:103DA00013821282C482D582E682F78280E392E097
:103DB00091838083EBE8F5E01382128280E492E045
:103DC0009183808387E2848380E1818784E0828796
:103DD0001386E4E3F5E01082158E12AEFF90EF90AB
:103DE000DF90CF900895EF920F931F93CF93DF93BF
:103DF000E80147FD02C034E001C034E1E42F440F84
:103E0000FF0BF7FF03C0F195E195F109E32E022FB7
:103E10002E2FAE013ED0CE01DF91CF911F910F9199
:103E2000EF9008954532510518F4423008F004C06F
:103E3000FB011082CB010895BB274A3031F499234E
:103E400022F4BDE2909581959F4F0BC045325105FC
:103E500018F4423008F004C0FB011082CB01089531
:103E6000BB27FB015527AA27880F991FAA1FA41754
:103E700010F0A41B83955051B9F7A05DAA3308F048
:103E8000A95DA193009779F7B111B1931192CB017C
:103E900065C24F925F926F927F929F92AF92BF9254
:103EA000CF92DF92EF92FF920F931F93CF93DF9306
:103EB000CDB7DEB729970FB6F894DEBF0FBECDBFE2
:103EC0006A01122FB02E2BE3201720F0FF24F39469
:103ED000F00E02C0BCE3FB2E0F2D27E0AE014F5FBA
:103EE0005F4F64D1AC018981982F9970913031F086
:103EF000E1FC06C0E0FE06C090E205C09DE203C002
:103F00009BE201C090E0EE2DE07183FF3CC0911177
:103F100002C083E001C084E0811718F4212F281B20
:103F200001C020E0E1110BC0F601822F30E28823AE
:103F300019F031938150FBCFC20ED11C20E09923A0
:103F400029F0D6019C93F60131966F01C6010396C4
:103F5000E2FE0AC03EE4D6013C9341E411964C9344
:103F6000119712963C9306C03EE6F601308341E677
:103F700041833283FC01322F40E2332309F442C0F3
:103F800041933150FACF82FF44C0911102C083E0C7
:103F900001C084E0811718F4212F281B01C020E004
:103FA000E1110BC0F601822F30E2882319F0319322
:103FB0008150FBCFC20ED11C20E0992329F0D601FD
:103FC0009C93F60131966F01C6010396E2FE0BC089
:103FD00039E4D6013C933EE411963C93119736E4C4
:103FE00012963C9307C039E6F60130833EE63183F2
:103FF00036E63283FC01322F40E2332319F041933D
:104000003150FBCFFC01E20FF11D10828EEF9FEFCC
:10401000B7C0F1E0911101C0F0E06F2F70E014160D
:10402000150624F49A012F5F3F4F02C021E030E0D3
:10403000260F371FBB2029F06B2D70E06F5F7F4F7D
:1040400002C060E070E0260F371F612F70E0261776
:1040500037071CF4121B212F01C020E03E2D3871C0
:1040600059F4D601322F60E2332319F06D933150A9
:10407000FBCFC20ED11C20E0FF2331F0D6019C9370
:10408000B6016F5F7F4F6B01E1110BC0F601922FFC
:1040900030E3992319F031939150FBCFC20ED11C1C
:1040A00020E09F2D940F3A81782F7071A72E84FF06
:1040B00003C0313309F49150191624F4993018F0E3
:1040C00098E001C091E0E42F852F57FF02C0E0E0A7
:1040D00080E06E2F782FE0E0F0E0AEE29A2E3A0119
:1040E000691A71082A01461A570A0B2D10E011951A
:1040F000019511096F3F8FEF780729F4D6019C9243
:10410000C60101966C014617570784F066167706BC
:104110006CF47F01E40CF51CA1E0B0E0AC0FBD1F16
:10412000EA0EFB1ED7011196BC9002C090E3B92E97
:10413000615071093196C60101967C0160177107C3
:1041400024F0D601BC926C01D5CF6417750741F4F9
:10415000363320F4353321F4A11002C081E3B82EA8
:10416000F601B082F701822F90E2882319F0919333
:104170008150FBCFF701E20FF11D108280E090E04B
:1041800029960FB6F894DEBF0FBECDBFDF91CF9159
:104190001F910F91FF90EF90DF90CF90BF90AF9065
:1041A0009F907F906F905F904F900895283008F017
:1041B00027E03327DA01990F311D87FD91600096C2
:1041C0006105710539F432602E5F3D9330E32A9525
:1041D000E1F708959F3F30F080387105610509F0DF
:1041E0003C5F3C5F3D93913008F08068911DDF9308
:1041F000CF931F930F93FF92EF92192F987F96956D
:10420000E92F96959695E90FFF27EE59FE4F9927CE
:104210003327EE24FF24A701E701059008940794B3
:1042200028F4360FE71EF81E491F511D660F771F31
:10423000881F991F0694A1F70590079428F4E70EAC
:10424000F81E491F561FC11D770F881F991F661F33
:104250000694A1F70590079428F4F80E491F561FFD
:10426000C71FD11D880F991F661F771F0694A1F7DE
:104270000590079420F4490F561FC71FD81F990FA8
:10428000661F771F881F0694A9F7849110951770F1
:1042900041F0D695C79557954795F794E7941A95A9
:1042A000C1F7E8E0F1E068941590159135916591BA
:1042B000959105907FE27395E118F10A430B560B37
:1042C000C90BD009C0F7E10CF11E431F561FC91FCF
:1042D000D01D7EF4703311F48A95E6CFE894015036
:1042E00030F0080F0AF40027021708F4202F239556
:1042F000022F7A3328F079E37D932A95E9F710C0ED
:104300007D932A9589F60694979567953795179525
:104310001794E118F10A430B560BC90BD00998F01A
:1043200023957E9173957A3308F070E37C93201384
:10433000B8F77E9170617D9330F0839571E37D9342
:1043400070E32A95E1F71124EF90FF900F911F91F0
:10435000CF91DF91992787FD90950895DC01FC01AD
:10436000672F71917723E1F7329704C07C916D93A9
:1043700070836291AE17BF07C8F3089540D008F468
:1043800081E00895E89409C097FB3EF490958095EC
:10439000709561957F4F8F4F9F4F9923A9F0F92F0B
:1043A00096E9BB279395F695879577956795B79589
:1043B000F111F8CFFAF4BB0F11F460FF1BC06F5F6F
:1043C0007F4F8F4F9F4F16C0882311F096E911C081
:1043D000772321F09EE8872F762F05C0662371F0A2
:1043E00096E8862F70E060E02AF09A95660F771FB6
:1043F000881FDAF7880F9695879597F90895990F92
:104400000008550FAA0BE0E8FEEF16161706E8079E
:10441000F907C0F012161306E407F50798F0621BBF
:10442000730B840B950B39F40A2661F0232B242B94
:10443000252B21F408950A2609F4A140A6958FEFB3
:10444000811D811D089597F99F6780E870E060E005
:1044500008959FEF80EC089500240A94161617061D
:1044600018060906089500240A9412161306140665
:1044700005060895092E0394000C11F4882352F0C8
:10448000BB0F40F4BF2B11F460FF04C06F5F7F4F80
:104490008F4F9F4F089557FD9058440F551F59F067
:1044A0005F3F71F04795880F97FB991F61F09F3F21
:1044B00079F087950895121613061406551FF2CF4A
:1044C0004695F1DF08C0161617061806991FF1CF9A
:1044D00086957105610508940895E894BB276627C1
:1044E0007727CB0197F908955058BB27AA270ED0FC
:1044F000C1CFB2DF30F0B7DF20F031F49F3F11F4CD
:104500001EF4A7CF0EF4E095E7FB9DCFE92FC3DFA4
:1045100080F3BA17620773078407950718F071F4E0
:104520009EF5DBCF0EF4E0950B2EBA2FA02D0B01DC
:10453000B90190010C01CA01A0011124FF27591BE8
:1045400099F0593F50F4503E68F11A16F040A22FEE
:10455000232F342F4427585FF3CF4695379527955F
:10456000A795F0405395C9F77EF41F16BA0B620B5E
:10457000730B840BBAF09150A1F0FF0FBB1F661FA5
:10458000771F881FC2F70EC0BA0F621F731F841FE8
:1045900048F4879577956795B795F7959E3F08F00E
:1045A000B3CF9395880F08F09927EE0F97958795CD
:1045B00008950CD05FCF57DF40F04EDF30F021F48C
:1045C0005F3F19F040CF511189CF43CF64DF98F39B
:1045D0009923C9F35523B1F3951B550BBB27AA2784
:1045E00062177307840738F09F5F5F4F220F331FF6
:1045F000441FAA1FA9F333D00E2E3AF0E0E830D0C2
:1046000091505040E695001CCAF729D0FE2F27D0C4
:10461000660F771F881FBB1F261737074807AB0792
:10462000B0E809F0BB0B802DBF01FF2793585F4F07
:104630002AF09E3F510568F006CF50CF5F3FECF364
:10464000983EDCF3869577956795B795F7959F5FCC
:10465000C9F7880F911D9695879597F90895E1E020
:10466000660F771F881FBB1F621773078407BA077F
:1046700020F0621B730B840BBA0BEE1F88F7E095DA
:10468000089504D06894B11129CF08950CDF88F003
:104690009F5790F0B92F9927B751A0F0D1F0660F2E
:1046A000771F881F991F1AF0BA95C9F712C0B13049
:1046B00081F013DFB1E0089510CF672F782F88279E
:1046C000B85F39F0B93FCCF3869577956795B39588
:1046D000D9F73EF490958095709561957F4F8F4FF7
:1046E0009F4F08958CDE08F48FEF089597FB072EF7
:1046F00016F4009406D077FD08D013D007FC05D03F
:104700003EF4909581959F4F0895709561957F4FE8
:104710000895EE0FFF1F881F8BBF0790F691E02DC5
:104720001994AA1BBB1B51E107C0AA1FBB1FA617E8
:10473000B70710F0A61BB70B881F991F5A95A9F74A
:1047400080959095BC01CD010895CF93DF93823081
:10475000910510F482E090E0E0917C06F0917D06F6
:1047600020E030E0C0E0D0E0309711F1408151818D
:1047700048175907C0F04817590761F4828193819F
:10478000209719F09B838A832BC090937D0680939A
:104790007C0626C02115310519F04217530718F47D
:1047A0009A01BE01DF01EF010280F381E02DDCCF31
:1047B0002115310509F1281B390B2430310590F4FE
:1047C00012968D919C9113976115710521F0FB0153
:1047D0009383828304C090937D0680937C06FD01C1
:1047E000329644C0FD01E20FF31F81939193225052
:1047F00031092D933C933AC020917A0630917B0683
:10480000232B41F4209108023091090230937B065A
:1048100020937A0620910602309107022115310576
:1048200041F42DB73EB740910A0250910B02241B70
:10483000350BE0917A06F0917B06E217F307A0F4BE
:104840002E1B3F0B2817390778F0AC014E5F5F4FE6
:104850002417350748F04E0F5F1F50937B06409397
:104860007A068193919302C0E0E0F0E0CF01DF91FE
:10487000CF9108950F931F93CF93DF93009709F47F
:104880008CC0FC0132971382128200917C06109139
:104890007D060115110581F420813181820F931F5E
:1048A00020917A0630917B062817390779F5F09325
:1048B0007B06E0937A0671C0D80140E050E0AE1765
:1048C000BF0750F412962D913C911397AD0121151D
:1048D000310509F1D901F3CF9D01DA013383228338
:1048E00060817181860F971F8217930769F4EC012D
:1048F00028813981260F371F2E5F3F4F3183208358
:104900008A819B8193838283452B29F4F0937D06D2
:10491000E0937C0642C01396FC93EE931297ED0150
:10492000499159919E01240F351FE217F30771F445
:1049300080819181840F951F029611969C938E938E
:104940008281938113969C938E931297E0E0F0E01E
:10495000D80112968D919C911397009719F0F80148
:104960008C01F6CF8D919C9198012E5F3F4F820F65
:10497000931F20917A0630917B062817390769F436
:10498000309729F410927D0610927C0602C01382A3
:10499000128210937B0600937A06DF91CF911F91CC
:1049A0000F9108956F927F928F929F92AF92BF92D4
:1049B000CF92DF92EF92FF920F931F93CF93DF93EB
:1049C000EC01009781F4CB01DF91CF911F910F9102
:1049D000FF90EF90DF90CF90BF90AF909F908F901F
:1049E0007F906F90B2CEFC01E60FF71F9C01225022
:1049F0003109E217F30708F4A8C0D9010D911C9101
:104A0000119706171707A8F00530110508F49BC089
:104A1000C80104978617970708F495C0025011093A
:104A2000061B170B019311936D937C93CF0122DF2B
:104A30008AC05B01A01AB10A4C01800E911EA091A0
:104A40007C06B0917D0640E050E0E12CF12C1097FF
:104A500009F44AC0A815B905D1F56D907C9011975D
:104A6000630182E0C80ED11CCA14DB0480F1A301EB
:104A70004A195B096A0182E0C80ED11C1296BC90EB
:104A800012971396AC91B5E0CB16D10440F0B282E8
:104A9000A38351834083D9016D937C930AC00E5F39
:104AA0001F4FC301800F911FF90191838083EB2D6C
:104AB000FA2FE114F10431F0D7011396FC93EE9331
:104AC000129741C0F0937D06E0937C063CC08D9127
:104AD0009C9111974817590708F4AC017D01129673
:104AE0000D90BC91A02DB3CF80917A0690917B065A
:104AF00088159905E1F446175707C8F48091060216
:104B000090910702009741F48DB79EB740910A0239
:104B100050910B02841B950BE817F907B0F4F09342
:104B20007B06E0937A06F901718360830CC0CB01A8
:104B30000CDE7C01009749F0A801BE011BD0CE011C
:104B400099DEC70104C0CE0102C080E090E0DF9191
:104B5000CF911F910F91FF90EF90DF90CF90BF907A
:104B6000AF909F908F907F906F90089581E090E03C
:104B7000F89410C0FB01DC0102C001900D9241507D
:104B80005040D8F70895FB01DC0101900D92002000
:084B9000E1F70895F894FFCF4E
:104B980007090B0C0A0800007E06800000000000D0
:104BA800B308E108000000001915201500000000F6
:104BB800E5072915A607840798072B0800000000B9
:104BC800210FF20EEA0ED60EC70EC60E0000000028
:104BD800A40B291500004000140054000000000038
:104BE800EA084509B0080000000026093C09AD089C
:104BF8000000000017091D09A408000000000809AA
:104C08000E09A70800000000F908FF08AA08546F59
:104C18006461793A200030373A33333A31300053FF
:104C28006561736F6E2031005472656520310054E0
:104C3800696D6520666F72207761746572004164E2
:104C480064004D61782074656D70004D617820684E
:104C5800756D69005472656520320054726565206F
:104C680033004661726D426F7420436F6E74726FC9
:104C78006C6C6572004E6F206D656E750032300089
:064C88002F003A00780045
:00000001FF
