:10000000B0C10000DFC10000DDC10000DBC10000A5
:10001000D9C10000D7C10000D5C10000D3C1000084
:10002000D1C10000CFC10000CDC10000CBC1000094
:10003000C9C10000C7C10000C5C100000C942F1742
:10004000C1C10000BFC10000BDC10000BBC10000B4
:10005000B9C10000B7C10000B5C100000C949815EB
:10006000B1C100000C94D5140C94AC14ABC10000C9
:10007000A9C10000A7C10000A5C10000A3C10000E4
:10008000A1C100009FC100009DC100009BC10000F4
:100090000C9483140C945A1495C100000C94E2152E
:1000A00091C100008FC100008DC100008BC1000014
:1000B00089C1000087C1000085C1000083C1000024
:1000C00081C100007FC100007DC100007BC1000034
:1000D00079C1000077C1000075C1000073C1000044
:1000E00071C1000019151C150B150F1515155315A9
:1000F000201524152A152E15321538153C154015D6
:10010000531546154A154E154E414E494E49545900
:10011000494E46CDCCCC3D0AD7233C17B7D13877D2
:10012000CC2B329595E6241FB14F0A0000204100E8
:1001300000C84200401C4620BCBE4CCA1B0E5AAE32
:10014000C59D7400407A10F35A00A0724E18090041
:1001500010A5D4E80000E87648170000E40B54022C
:100160000000CA9A3B000000E1F505000080969867
:1001700000000040420F000000A0860100000010B7
:100180002700000000E803000000006400000000F9
:10019000000A00000000000100000000002C76D8DA
:1001A00088DC674F0823DFC1DFAE59E1B1B796E5C0
:1001B000E3E453C63AE651997696E8E6C28426EB24
:1001C000898C9B62ED407C6FFCEFBC9C9F40F2BA37
:1001D000A56FA5F490055A2AF75C936B6CF9676DCF
:1001E000C11BFCE0E40D47FEF520E6B500D0ED9024
:1001F0002E0300943577050080841E080000204EF1
:100200000A000000C80C333333330F986E12831189
:1002100041EF8D2114893BE65516CFFEE6DB18D160
:10022000844B381BF77C1D901DA4BBE42420328432
:10023000725E228100C9F124ECA1E53D2700002176
:1002400000240027002A002D0030003300010100A7
:1002500000040107010A0100002200250028002BEC
:10026000002E003100340002010000050108010BDE
:1002700001000020002300260029002C002F00325E
:10028000000001000003010601090105050505073D
:100290000508080808020202020A0A080804040401
:1002A000040101010101010101030303030303032D
:1002B00003040707070C0C0C0C0C0C0C0C020202BC
:1002C0000206060606060606060B0B0B0B0B0B0BAF
:1002D0000B0102102020080810204010204080024E
:1002E000010201080402010102040810204080807C
:1002F0004020100804020180040201804020100800
:1003000004020108040201010204081020408001D7
:100310000204081020408000000A0B02090C0D0E98
:1003200008070304010000000000000000000000B6
:1003300000000000000000000000000000000000BD
:10034000000000121110000000000000000000007A
:100350000000000000000000000000000000D03C91
:10036000B93C11241FBECFEFD1E2DEBFCDBF00E00C
:100370000CBF29E0A6EFB4E001C01D92A932B2077C
:10038000E1F714E0A0E0B2E0EAEBFEE800E00BBF2A
:1003900002C007900D92A63FB107D9F711E0C0EB5C
:1003A000D1E000E006C021970109802FFE010E94E4
:1003B000D944CF3AD10780E00807A9F70E94732EED
:1003C0000C944C471DCEE0910A05F0910B0585A1D8
:1003D00096A1A7A1B0A5E0910805F0910905828B2F
:1003E000938BA48BB58BE0910605F0910705828B6A
:1003F000938BA48BB58BE0910405F0910505828B5E
:10040000938BA48BB58B0895FC0126813781620FF5
:10041000731F848195818617970738F082819381B5
:1004200077836683820F931F089580E090E008959C
:10043000CF92DF92EF92FF920F931F93CF93DF93B0
:10044000CDB7DEB7C756D2400FB6F894DEBF0FBEA9
:10045000CDBFCE0109969C838B8388E592E09E8375
:100460008D8318861F8280E292E09A838983E091CF
:10047000E408F091E50880819181009711F487EEFE
:1004800094E09E012F5F3F4FCF59DD4F3983288382
:10049000C156D240CD59DD4F99838883C356D2408F
:1004A000CB59DD4F39832883C556D2408AE0C959DC
:1004B000DD4F8883C756D240CE018F599D4F0E9491
:1004C00074248C01FC0180819181892B39F46DE6C3
:1004D00073E084E497E00E94411295C067E873E0FE
:1004E00084E497E00E94411262EA73E0C8010E942E
:1004F0009E22009721F004960E94512201C080E0C4
:1005000080931D0864EA73E0C8010E942823BC019F
:100510008EE198E00E941C47E12CF12C66EA73E022
:10052000C8010E94B922FC01828193819701009742
:1005300051F02115310509F462C021503109FC0147
:1005400080819181F4CF80E0F701E35EF74F878FE0
:10055000FFEFEF1AFF0A88E1E816F104F9F682E7E7
:10056000C82E88E0D82EE12CF12C6BEA73E0C8018C
:100570000E94B922B7010E944F2364EA73E00E94EF
:100580002823BC01C6014E970E941C476BEA73E00A
:10059000C8010E94B922B7010E944F2368EA73E0A4
:1005A0000E94C722F601918380836BEA73E0C80141
:1005B0000E94B922B7010E944F236DEA73E00E94A6
:1005C000C722F601938382836BEA73E0C8010E941D
:1005D000B922B7010E944F2362EB73E00E94C72249
:1005E000F60195838483FFEFEF1AFF0A80E3C80EBC
:1005F000D11CE3E0EE16F10409F0B7CF04C0029677
:100600000E945122A1CFC959DD4F0FB6F894DEBF29
:100610000FBECDBFDF91CF911F910F91FF90EF9053
:10062000DF90CF9008952F923F924F925F926F92FA
:100630007F928F929F92AF92BF92CF92DF92EF9272
:10064000FF920F931F93CF93DF93CDB7DEB76297DF
:100650000FB6F894DEBF0FBECDBF0091E408109135
:10066000E50867EE74E0C8010E94710F8111FCC0BB
:10067000A12CB12C98E1592E67EB73E0CE010196C5
:100680000E94321140E050E0BE016F5F7F4FC80111
:100690000E94540F7C01CE0101960E9474106FEBF2
:1006A00073E0CE0101960E943211A701BE016F5F77
:1006B0007F4FC8010E94540F6C01CE0101960E9429
:1006C000741096012F5F3F4FA701B801CE010D9620
:1006D0000E94FD1189899A89D80114964D915C91E7
:1006E0001597E416F50628F5019619F1BA016E1969
:1006F0007F098617970708F4BC01F8018081918172
:10070000461B570B558344834E195F096E0D7F1DA1
:10071000680F791F8E0D9F1D0E942347D801ED9110
:10072000FC91119714968D919C911597E80FF91FE4
:100730001082F501E758F74F6F0186E0482E812CB3
:10074000912C65EB73E0CE0101960E943211A40159
:10075000BE016F5F7F4FCE010D960E94540F1C01AA
:10076000CE0101960E94741062EC73E0CE010196F6
:100770000E943211A101BE016F5F7F4FCE010D9625
:100780000E94540F7C01CE0101960E94741064EC0B
:1007900073E0CE0101960E943211A701BE016F5F86
:1007A0007F4FCE010D960E94540F4C01CE01019651
:1007B0000E947410C60101973C0137FC30C02E1412
:1007C0003F046CF5970122503109A1014D5F5F4F45
:1007D000BE01635F7F4FCE0107960E94FD11A70106
:1007E0004D5F5F4F9401BE01635F7F4FCE01019665
:1007F0000E94FD11CE0107960E94490FD3016C9310
:10080000CE0101960E94490FF6016083CE01019648
:100810000E947410CE0107960E94741004C0D30188
:100820005C92F60110824A94F2E0CF0ED11C411086
:1008300088CFCE010D960E94741080E3A80EB11CE3
:1008400090E9A916B10409F017CFF2DD67EE74E064
:100850008091E4089091E5080E944A100E94C71A0E
:100860000E941B1B0E94661F62960FB6F894DEBFA3
:100870000FBECDBFDF91CF911F910F91FF90EF90F1
:10088000DF90CF90BF90AF909F908F907F906F90B0
:100890005F904F903F902F9008950F931F93CF93A9
:1008A000DF93CDB7DEB762970FB6F894DEBF0FBE09
:1008B000CDBF8091FC049091FD0463EF72E0069639
:1008C0000E94710F882319F06CEF72E002C063EF91
:1008D00072E0CE0101960E943211BE016F5F7F4F20
:1008E0008091FC049091FD040E94EF28CE010196B6
:1008F0000E9474100091FC041091FD040A5F1F4FC8
:1009000067EE74E0CE0107960E943211BE01695F66
:100910007F4FCE010D960E942A1166EC73E0CE0146
:100920000D960E940310B8010E941A10BC01CE015E
:1009300001960E942A11CE010D960E947410CE01DC
:1009400007960E947410BE016F5F7F4F87EA96E0A2
:100950000E94602ECE0101960E94741062960FB61E
:10096000F894DEBF0FBECDBFDF91CF911F910F91E5
:1009700008950F931F93CF93DF93CDB7DEB76297A0
:100980000FB6F894DEBF0FBECDBF8091FE049091EC
:10099000FF0463EF72E006960E94710F882319F03E
:1009A0006CEF72E002C063EF72E0CE0101960E942C
:1009B0003211BE016F5F7F4F8091FE049091FF0462
:1009C0000E94EF28CE0101960E9474100091FE044F
:1009D0001091FF040A5F1F4F67EE74E0CE01079687
:1009E0000E943211BE01695F7F4FCE010D960E94B9
:1009F0002A116CEC73E0CE010D960E940310B80131
:100A00000E941A10BC01CE0101960E942A11CE014B
:100A10000D960E947410CE0107960E947410BE01BC
:100A20006F5F7F4F87EA96E00E94602ECE010196AD
:100A30000E94741062960FB6F894DEBF0FBECDBF51
:100A4000DF91CF911F910F910895CF93DF93CDB791
:100A5000DEB768970FB6F894DEBF0FBECDBF8091AA
:100A6000FA049091FB0463EF72E006960E94710F06
:100A7000882319F062ED73E002C063EF72E0CE01EB
:100A800001960E943211BE016F5F7F4F8091FA0480
:100A90009091FB040E94EF28CE0101960E947410F1
:100AA0008091FA049091FB0406960E94490F4AE057
:100AB000CE0101960E94FE1067EE74E0CE010D9605
:100AC0000E943211BE01635F7F4FCE0107960E94E4
:100AD0002A1165ED73E0CE0107960E940310BE0156
:100AE0006F5F7F4F0E941A10BC01CE0143960E9497
:100AF0002A11CE0107960E947410CE010D960E9415
:100B00007410CE0101960E947410BE016D5E7F4F7D
:100B100087EA96E00E94602ECE0143960E947410F0
:100B200068960FB6F894DEBF0FBECDBFDF91CF91B0
:100B30000895CF93DF93CDB7DEB768970FB6F894DB
:100B4000DEBF0FBECDBFE0910405F091050565A1A4
:100B500076A187A190A50E946F444AE0CE014396FA
:100B60000E94D3106BED73E0CE0107960E94321104
:100B7000BE01695F7F4FCE010D960E942A11BE0112
:100B80006D5E7F4FCE010D960E941A10BC01CE0102
:100B900001960E942A11CE010D960E947410CE017A
:100BA00007960E947410CE0143960E947410BE01F5
:100BB0006F5F7F4F87EA96E00E94602ECE0101961C
:100BC0000E94741068960FB6F894DEBF0FBECDBFBA
:100BD000DF91CF910895CF93DF93CDB7DEB76897BC
:100BE0000FB6F894DEBF0FBECDBFE0910605F091C1
:100BF000070565A176A187A190A50E946F444AE0F0
:100C0000CE0143960E94D31061EE73E0CE010796A9
:100C10000E943211BE01695F7F4FCE010D960E9486
:100C20002A11BE016D5E7F4FCE010D960E941A10F3
:100C3000BC01CE0101960E942A11CE010D960E94A0
:100C40007410CE0107960E947410CE0143960E9444
:100C50007410BE016F5F7F4F87EA96E00E94602E9E
:100C6000CE0101960E94741068960FB6F894DEBF0C
:100C70000FBECDBFDF91CF910895CF93DF93CDB756
:100C8000DEB768970FB6F894DEBF0FBECDBFE09118
:100C90000805F091090565A176A187A190A50E949C
:100CA0006F444AE0CE0143960E94D31067EE73E092
:100CB000CE0107960E943211BE01695F7F4FCE01BF
:100CC0000D960E942A11BE016D5E7F4FCE010D96DA
:100CD0000E941A10BC01CE0101960E942A11CE0179
:100CE0000D960E947410CE0107960E947410CE01DA
:100CF00043960E947410BE016F5F7F4F87EA96E0B3
:100D00000E94602ECE0101960E94741068960FB664
:100D1000F894DEBF0FBECDBFDF91CF910895CF9382
:100D2000C5E06DEE73E087EA96E00E944112C15083
:100D3000C1F740E050E0BA018091040590910505AB
:100D4000CF910C94BD2763EF73E087EA96E00E9491
:100D5000411240E050E0BA018091060590910705EC
:100D60000C94BD27CF93C5E069EF73E087EA96E066
:100D70000E944112C150C1F740E050E0BA01809199
:100D8000080590910905CF910C94BD276DEE73E095
:100D900087EA96E00E9441126FEF73E087EA96E0DF
:100DA0000E94411240E050E0BA0180910805909104
:100DB00009050E94BD2740E050E0BA018091060578
:100DC000909107050E94BD2740E050E0BA01809154
:100DD0000405909105050C94BD27CF93DF93CDB703
:100DE000DEB7A4970FB6F894DEBF0FBECDBF4AE0C2
:100DF00060915E05CE010D960E94FE104AE0609162
:100E00005F05CE0107960E94FE106091600570E0BC
:100E10006E51710977FF03C07195619571094AE0C0
:100E2000CE014F960E94D31067E074E0CE01439646
:100E30000E943211BE016D5E7F4FCE0149960E9425
:100E40002A11BE01615E7F4FCE0149960E941A10A1
:100E5000BC01CE0101960E942A11CE0149960E9442
:100E60007410CE0143960E947410CE014F960E94DA
:100E7000741089899A89019709F563EF72E0CE01B0
:100E800043960E943211BE016D5E7F4FCE0149969E
:100E90000E942A11BE01635F7F4FCE0149960E94D6
:100EA0001A10BC01CE010D960E945F10CE0149962A
:100EB0000E947410CE0143960E9474108B859C850D
:100EC000019709F563EF72E0CE0143960E9432115B
:100ED000BE016D5E7F4FCE0149960E942A11BE0170
:100EE000695F7F4FCE0149960E941A10BC01CE0166
:100EF00007960E945F10CE0149960E947410CE01A1
:100F000043960E947410BE01635F7F4FCE014396EB
:100F10000E942A116AE074E0CE0143960E940310F9
:100F2000BE01695F7F4F0E941A106AE074E00E9460
:100F30000310BE016F5F7F4F0E941A10BC01CE01EB
:100F400049960E942A11BE01675E7F4F809132054B
:100F5000909133050E94EF28CE0149960E947410AB
:100F6000CE0143960E947410CE0101960E94741027
:100F7000CE0107960E947410CE010D960E94741047
:100F8000A4960FB6F894DEBF0FBECDBFDF91CF9110
:100F90000895CF93DF93CDB7DEB76E970FB6F89471
:100FA000DEBF0FBECDBF4AE060915C05CE010D965D
:100FB0000E94FE104AE060915B05CE0107960E94F8
:100FC000FE104AE060915A05CE0101960E94FE1083
:100FD00089899A89019709F563EF72E0CE014396FA
:100FE0000E943211BE016D5E7F4FCE0149960E9474
:100FF0002A11BE01635F7F4FCE0149960E941A10ED
:10100000BC01CE010D960E945F10CE0149960E9450
:101010007410CE0143960E9474108B859C850197B5
:1010200001F563EF72E0CE0143960E943211BE01DA
:101030006D5E7F4FCE0149960E942A11BE01695F05
:101040007F4FCE014996F6D7BC01CE0107960E948C
:101050005F10CE0149960E947410CE0143960E9403
:1010600074108D819E81019701F563EF72E0CE01CE
:1010700043960E943211BE016D5E7F4FCE014996AC
:101080000E942A11BE016F5F7F4FCE014996D2D7D1
:10109000BC01CE0101960E945F10CE0149960E94CC
:1010A0007410CE0143960E947410BE01635F7F4F9F
:1010B000CE0143960E942A1166EB74E0CE0143965E
:1010C000A2D7BE01695F7F4FB5D766EB74E09BD7AF
:1010D000BE016F5F7F4FAED7BC01CE0149960E9423
:1010E0002A11BE01675E7F4F8091300590913105D6
:1010F0000E94EF28CE014996F7D7CE014396F4D748
:10110000CE010196F1D7CE010796EED7CE010D960E
:10111000EBD76E960FB6F894DEBF0FBECDBFDF9152
:10112000CF910895AF92BF92CF92DF92FF920F932B
:101130001F93CF93DF93C82F2091ED07022E000C51
:10114000330BC90106976AE070E00E94A444F09056
:10115000EE07FF0CFA94FA94F60E0C2F10E027E03D
:10116000C29FE0011124CA51D74F34E0F39E6001C1
:101170001124E881F981EC0DFD1D60817181C801A8
:10118000880F991FDC01A65DBA4F5D01ED91FC91BE
:10119000828993890E943F28E881F981EC0DFD1D29
:1011A00062817381D501ED91FC91828993890E94BE
:1011B0003F28E881F9819601369527953695279540
:1011C000EC0DFD1DDE0114964D915C911197CA0145
:1011D00001972817390758F42F5F3F4F44815581F5
:1011E000668177814193519361937193EDCF841719
:1011F000950710F49D838C8340E0842F90E02C8130
:101200003D818217930720F5242F2170220F322F62
:10121000330F330F230F342F36953F5F880F991FFD
:10122000880F991FE881F981E80FF91F0190F0817B
:10123000E02D2483358368817981FB01E80FF91F54
:101240000280F381E02D2A5F248335834F5FD5CF61
:1012500088E1809FA001819F500D1124B4E0BF154B
:1012600018F18F2D90E09C012F5F3F4F240F351F09
:10127000F901EE0FFF1FEF5BF74F67A9840F951F72
:10128000FC01EE0FFF1FEF5BF74F67AB220F331F21
:10129000F901E758F74F2081880F991FFC01E758A3
:1012A000F74F2083F394DACF98012F5F3F4F80E30D
:1012B000829FF001839FF00D1124E35EF74F98E1C8
:1012C00097AB809FF001819FF00D1124EB57F74FF2
:1012D00010820E941B1B8091EB079091EC070E94EB
:1012E00026278091090890910A08DF91CF911F91DC
:1012F0000F91FF90DF90CF90BF90AF900C944E2D48
:1013000082E010CF81E00ECF80E00CCF2F923F9291
:101310004F925F926F927F928F929F92AF92BF9205
:10132000CF92DF92EF92FF920F931F93CF93DF93B1
:10133000CDB7DEB761970FB6F894DEBF0FBECDBF55
:10134000A82EB12C27E0829FC0011124DC01AA51F4
:10135000B74F7D0114968D919C911597863091051C
:1013600009F4B0C0282F2170522E550C252D220FC4
:10137000220F520E598A9695879511E0180F650134
:10138000CC0CDD1CF601E25EFA4F2F0180809180CB
:10139000F6E08F0E911C96012C5D3A4F1901D90190
:1013A0006D917C916A5F7F4FCE01019653D766EBBA
:1013B00074E0CE01019627D6B4013CD6BC01CE0123
:1013C000079648D782E190E00E94F5444C01F6016F
:1013D000E65DFA4F3F010190F081E02D628973894B
:1013E000012F2989AE01495F5F4F0E94982A9E868E
:1013F0008D86CE01079678D6CE01019675D66CE023
:1014000074E0CE0101962ED784E190E00E94F5446D
:101410004C0129892A5FD301ED91FC91628973897E
:10142000AE014F5F5F4F0E949029988A8F86CE0150
:1014300001965AD6AF85B889F601EC5CFA4F8081E7
:10144000918153969C938E935297F7016481758195
:101450006F5F7F4FAE01435F5F4FC7010E94192549
:10146000D7011496ED90FC901597B1E0EB1AF108B6
:1014700028E12A9DC0012B9D900D1124E80EF91E34
:101480008701000F111F0F5B174FD101ED91FC91E8
:1014900065A176A187A190A50E947444F80167AB6D
:1014A0008701000F111F0758174FD201ED91FC91D2
:1014B00065A176A187A190A50E947444F80160837C
:1014C0000E941B1B61960FB6F894DEBF0FBECDBF06
:1014D000DF91CF911F910F91FF90EF90DF90CF9010
:1014E000BF90AF909F908F907F906F905F904F9044
:1014F0003F902F90089582E009CF81E007CF80E0F0
:1015000005CFCF93DF93CDB7DEB768970FB6F894CA
:10151000DEBF0FBECDBF4AE0682FCE0143966ED628
:1015200067EE74E0CE0107969DD6BE01695F7F4FDE
:10153000CE010D968FD66EE074E0CE010D9663D588
:10154000BE016D5E7F4F76D5BC01CE01019682D67D
:10155000CE010D96C9D5CE010796C6D5CE014396CC
:10156000C3D5BE016F5F7F4F87EA96E00E94602E71
:10157000CE010196B9D568960FB6F894DEBF0FBEBE
:10158000CDBFDF91CF910895CF93DF9300D000D0EE
:10159000CDB7DEB7809100059091010563EF72E051
:1015A00006969FD4882319F06CEF72E002C063EFB7
:1015B00072E0CE01019656D6BE016F5F7F4F8091DB
:1015C0000005909101050E94EF28CE0101968CD56F
:1015D000809100059091010506965BD4862F91DFDE
:1015E00026960FB6F894DEBF0FBECDBFDF91CF9128
:1015F0000895CF93DF93CDB7DEB768970FB6F89411
:10160000DEBF0FBECDBF28EE33E0829FB001839FC7
:10161000700D11244AE0CE014396C5D564E174E013
:10162000CE0107961FD6BE01695F7F4FCE010D9692
:1016300011D6BE016D5E7F4FCE010D96FBD4BC016D
:10164000CE01019607D6CE010D964ED5CE01079656
:101650004BD5CE01439648D5BE016F5F7F4F87EAD9
:1016600096E00E94602ECE0101963ED568960FB698
:10167000F894DEBF0FBECDBFDF91CF910895E0910A
:101680000205F091030565A176A187A190A50E94AE
:101690006F44862FAECF9C01245A3F4F84519F4FF9
:1016A00048E1B901645F7F4FF901DF0111974C9365
:1016B00010823296E617F707C1F7205D3F4F2817D3
:1016C000390779F708958091F20581110BC01092C6
:1016D000EF051092EE051092F1051092F00581E0F1
:1016E0008093F2058EEE95E008958091E6058111D4
:1016F0000BC01092E3051092E2051092E5051092DE
:10170000E40581E08093E60582EE95E00895DB0133
:10171000109749F0ED91FC9111970190F081E02D27
:10172000BC01CD01199480E090E008950F931F93C0
:10173000CF93DF93EC0188819981009729F02A816A
:101740003B812617370788F48B016F5F7F4F0E941C
:101750002246009761F0998388831B830A832C813A
:101760003D81232B11F4FC01108281E001C080E057
:10177000DF91CF911F910F9108958F929F92AF9219
:10178000BF92EF92FF920F931F93CF93DF939091AD
:10179000FA052091FB053091FC0500E0091709F4DA
:1017A00067C02D5F3F4FF90133974081481711F013
:1017B0000F5FF4CF282F30E0F901E95EFC4F8491F0
:1017C000F901EF52FD4FD491F901E557FD4FC49156
:1017D00010E0CC2379F081110E94FE14EC2FF0E090
:1017E000EE0FFF1FEF58FD4FA591B491EC91ED2343
:1017F00009F067C00E948C157801EE0CFF1CEE0CFE
:10180000FF1CE091FF05F09100069801220F331FA5
:10181000E20FF31FA091FD05B091FE05AE0DBF1DB7
:101820008D909D90AD90BC909B01AC012819390919
:101830004A095B0949015A014081518160E070E029
:101840008091010690910206481559056A057B05AD
:1018500048F421E0DC01A00FB11F2C9324E630E016
:1018600031832083FC01E00FF11FC081C11102C050
:10187000C0E04DC00E948C152091FD053091FE0501
:10188000E20EF31EF70180809180A280B380DC011C
:10189000CB0188199909AA09BB094497A105B1058B
:1018A00038F30E948C15F7016083718382839383E0
:1018B0008091010690910206FC01E00FF11F108259
:1018C00026C0C801880F991F880F991FC091FD0578
:1018D000D091FE05C80FD91F0E948C1568837983AB
:1018E0008A839B83E0910106F0910206E00FF11FCD
:1018F00081E08083000F111FE091FF05F091000649
:10190000E00FF11F88EE93E091838083B1CF8C2F9D
:10191000DF91CF911F910F91FF90EF90BF90AF900B
:101920009F908F900895CF92DF92EF92FF92CF9386
:10193000DF936C01990FEE08FF08F7FE1AC0E091E3
:101940004407F09145070190F081E02D6DE284E4B9
:1019500097E01995EC0166277727CB016C197D0973
:101960008E099F094AE00E94802B7C01EC0EFD1E2F
:1019700006C04AE0C701B6010E94802B7C016AE1E3
:1019800074E084E497E00E944B2E8E0D9F1DDF9142
:10199000CF91FF90EF90DF90CF900895EF92FF925C
:1019A0000F931F93CF93DF937C010091F2070F5F9A
:1019B0000093F20710E0C801880F991F0E94F544B8
:1019C000EC018091F0079091F10740E0015011097E
:1019D000242F30E02017310774F4220F331FFC014D
:1019E000E20FF31F60817181FE01E20FF31F71832B
:1019F00060834F5FEDCF009711F00E948A45D0932E
:101A0000F107C093F0078091F2079E01280F311D66
:101A1000280F311DF9013297F182E082DF91CF91D9
:101A20001F910F91FF90EF900895CF93DF93282F90
:101A300030E0F901E95EFC4F8491F901EF52FD4F6E
:101A4000D491F901E557FD4FC491CC2381F0811168
:101A5000D5D7EC2FF0E0EE0FFF1FE95AFD4FA5910F
:101A6000B4918FB7F894EC91ED2BEC938FBFDF918D
:101A7000CF9108950F931F93CF93DF938C018BEF3A
:101A800098E09093EC078093EB0781E08093EF0759
:101A90008FEF8093ED078093EE071092100810925D
:101AA0000F0810920E0810920D080E941317109242
:101AB000000980910509823018F098E090930009A0
:101AC0008093030962E370E080E090E0EDD76091DD
:101AD00006098BEF98E00E94A42668EE73E080E090
:101AE00090E0E2D760E38BEF98E00E94B726CBE46A
:101AF000D6E4CE010197F1F760E38BEF98E00E9406
:101B0000B7262197F1F760E38BEF98E00E94B726A4
:101B100083E592E00197F1F760E28BEF98E00E9495
:101B2000B72690910009692F60628BEF98E00E94C0
:101B3000E22684E0809301096CE08BEF98E00E943C
:101B4000E2268BEF98E00E94262782E0809302092C
:101B500066E08BEF98E00E94E22662E08BEF98E06F
:101B60000E94E226EBE3FFE13197F1F7E091EB070A
:101B7000F091EC0788E0838760E0CF010E94A42603
:101B80008091EB079091EC070E94F22640E060E024
:101B90008091EB079091EC070E94F926B8018091A3
:101BA000EB079091EC070E943D2E68EE73E080E019
:101BB00090E07AD78091EB079091EC070E9426275E
:101BC0008FEF80930808DF91CF911F910F910895B7
:101BD000CF92DF92EF92FF920F931F93CF93DF93F9
:101BE0008C017B019091E30781E0890F8093E307EB
:101BF000C82ED12C27E0829FC00111240E94F544F9
:101C0000EC01FC01A60181E0C114D10461F0118254
:101C1000108213821282158214828683379661E0C5
:101C2000C61AD108F1CF90E04150510987E0292F21
:101C300030E0E091E107F091E2072417350784F4E2
:101C400067E0969F90011124DE01A20FB31FE20FFF
:101C5000F31F282F01900D922A95E1F79F5FE7CFA0
:101C6000309719F0CF010E948A45D093E207C093C4
:101C7000E1078091E30797E0899FC00DD11D1124F2
:101C8000279719830883FB82EA82FD82EC8281E038
:101C90008E838091E8079091E907009719F0E81684
:101CA000F90620F4F092E907E092E807DF91CF917E
:101CB0001F910F91FF90EF90DF90CF9008959F922A
:101CC000AF92BF92CF92DF92EF92FF920F931F934A
:101CD000CF93DF9300D000D0CDB7DEB7FC01968163
:101CE000992309F4BFC06B017F01915096835F0176
:101CF00082E0A80EB11CC5010E946823D70112968C
:101D0000ED91FC91139780818B3521F08B3709F48D
:101D100076C080C0F70100811181B80184E090E0B5
:101D2000F6DC009709F4A0C0DC0111961C930E9319
:101D300013961C921E9212978C016BE5C5010E94AE
:101D4000AA23882309F44AC06DE5C5010E94AA238D
:101D5000811146C086E0982E1A821982BE016F5FFB
:101D60007F4FC701ACDF8823C9F1F8016081718121
:101D700088E090E0CCDCDC01892B39F011961C92D4
:101D80001E9213961C921E921297F80122813381A3
:101D90002115310551F0F90180819181009711F0F1
:101DA0009C01F9CFB183A08303C0F801B383A28360
:101DB0001097A1F0FE0131961296892D01900D9297
:101DC0008A95E1F76DE5C5010E94AA23811108C03B
:101DD0006CE2C5010E94AA238111BECF86DC8C0172
:101DE000D8018D919C91892B11F410E033C086E0CD
:101DF00090E0F60191838083138302832AC0C70198
:101E00000E947424DC012D913C91232B71F327E077
:101E100030E01AC011E0873219F0823209F010E088
:101E2000C7010E94C823009701F3112359F022E053
:101E300030E0D60111963C932E9313969C938E938B
:101E4000129708C021E030E0F601318320839383AC
:101E5000828311E0D70116968C9116978F5F1696A4
:101E60008C9304C010E002C040DC66CF812F269620
:101E70000FB6F894DEBF0FBECDBFDF91CF911F919B
:101E80000F91FF90EF90DF90CF90BF90AF909F9019
:101E90000895FC0180819181009711F00C94EA3D36
:101EA00060E070E0CB010895CF93DF93FC012481C3
:101EB00035814217530780F4FB01DC01CD91DC91A1
:101EC00060817181CE01840F951F0E943247009777
:101ED00019F08C1B9D0B02C08FEF9FEFDF91CF910C
:101EE0000895FC0124813581232B31F421E0611513
:101EF0007105A1F0FB0108C0FC0180819181611591
:101F0000710531F421E0FC018081882339F005C09E
:101F10000E94134721E0892B09F020E0822F0895C9
:101F2000EF92FF920F931F93CF93DF93FC012481D5
:101F300035816115710511F480E018C04115510516
:101F4000A1F07B01EC018A01020F131FB801EEDB47
:101F5000882391F3288139818C819D81B701820F7B
:101F6000931F0E941C471D830C8381E0DF91CF915A
:101F70001F910F91FF90EF900895CF93DF93EC01A5
:101F800088819981009711F00E948A4519821882F0
:101F90001D821C821B821A82DF91CF910895EF92DD
:101FA000FF920F931F93CF93DF93CDB7DEB72897A0
:101FB0000FB6F894DEBF0FBECDBF7C01CB014AE067
:101FC0008E010F5F1F4FB8010E941A3EF801019069
:101FD0000020E9F73197AF01401B510BB801C70151
:101FE0009FDF811102C0C701C8DFC70128960FB665
:101FF000F894DEBF0FBECDBFDF91CF911F910F913F
:10200000FF90EF900895CF93DF93EC016115710578
:1020100059F0FB0101900020E9F73197AF01461B11
:10202000570B7EDF811102C0CE01A7DFCE01DF9109
:10203000CF910895CF93DF93EC01FB01448155814B
:10204000608171816DDF811102C0CE0196DFCE010A
:10205000DF91CF910895EF92FF920F931F93CF934B
:10206000DF93EC017B018A01BA0160DB811103C0BF
:10207000CE0183DF07C01D830C83B701888199815E
:102080000E941C47CE01DF91CF911F910F91FF90CD
:10209000EF900895CF93DF93EC016115710551F036
:1020A000FB0101900020E9F73197AF01461B570B68
:1020B000D2DF01C062DFCE01DF91CF910895CF93CF
:1020C000DF93EC01FB018617970751F06081718166
:1020D0006115710521F044815581BDDF01C04DDFDF
:1020E000CE01DF91CF910895FC01808191810C9404
:1020F0008A45EF92FF920F931F93CF93DF93CDB753
:10210000DEB7A1970FB6F894DEBF0FBECDBF7C013E
:10211000CB01BA01F701118210821382128215825B
:10212000148242E0420F8E010F5F1F4F0E94C83D94
:10213000BC01C701AFDFA1960FB6F894DEBF0FBE9A
:10214000CDBFDF91CF911F910F91FF90EF90089538
:102150000F931F93CF93DF93CDB7DEB761970FB681
:10216000F894DEBF0FBECDBF8C01CB01F801118208
:102170001082138212821582148250E0BE016F5FBA
:102180007F4F0E94393EBE016F5F7F4FC80182DFE3
:1021900061960FB6F894DEBF0FBECDBFDF91CF9131
:1021A0001F910F9108950F931F93CF93DF93CDB796
:1021B000DEB762970FB6F894DEBF0FBECDBF8C01BD
:1021C000CB01F801118210821382128215821482CF
:1021D00050E0BE016F5F7F4F0E94103EBE016F5FF7
:1021E0007F4FC80157DF62960FB6F894DEBF0FBE6F
:1021F000CDBFDF91CF911F910F9108950F931F9342
:10220000CF93DF93CDB7DEB729970FB6F894DEBF33
:102210000FBECDBF8C01862FF80111821082138270
:1022200012821582148250E0BE016F5F7F4F90E0F2
:102230000E94393EBE016F5F7F4FC8012BDF299698
:102240000FB6F894DEBF0FBECDBFDF91CF911F91C7
:102250000F910895FC01118210821382128215825F
:1022600014822DCFFC0111821082138212821582FA
:1022700014826115710549F0FB0101900020E9F716
:102280003197AF01461B570BE6CE08959F92AF9250
:10229000BF92CF92DF92EF92FF920F931F93CF9353
:1022A000DF936C017B0120911B092F5F20931B0999
:1022B000A22EB12C3CE0239FC001112402960E9463
:1022C000F544EC01A992B9928E01A114B10479F000
:1022D00067EE74E0C801C6DFF80117821682118626
:1022E0001086045F1F4FF1E0AF1AB108EECF912CBA
:1022F000292D30E080911B0990E001970091190988
:1023000010911A09281739070CF52CE0929EC0018C
:1023100011245801A80EB91E8E01080F191FB5010E
:10232000C801CDDEF50186819781F8019783868308
:10233000F50180859185F80191878087F501828577
:102340009385F801938782879394D2CF0115110565
:10235000E1F0F8013297208131814CE0429FC001C9
:10236000439F900D1124080F191FC80120911909CE
:1023700030911A090C5011098217930719F0C801FE
:10238000B3DEF3CF02970E948A45D0931A09C09317
:10239000190980911B099E014CE0849F200D311D7D
:1023A0001124C901B6010C978ADE80911909909118
:1023B0001A0920911B09FC013CE0239FE00DF11D4F
:1023C00011243C97118610861782168220911B09D2
:1023D0004CE0249F800D911D1124FC013C97F38655
:1023E000E286DF91CF911F910F91FF90EF90DF90E8
:1023F000CF90BF90AF909F900895BF92CF92DF9201
:10240000EF92FF920F931F93CF93DF937C016B01A9
:102410008A01E9012417350720F4812F8901C42F8F
:10242000D82F67EE74E0C7011DDFD60114968D9199
:102430009C91159708171907C8F48C179D0708F485
:10244000EC01D601ED91FC911197EC0FFD1FB080CE
:1024500010824D915C91BA01600F711FC7011ADEA5
:10246000D601ED91FC91EC0FFD1FB082C701DF9109
:10247000CF911F910F91FF90EF90DF90CF90BF9081
:1024800008950F931F93CF93DF93EC010E944B2E7F
:102490008C016AE174E0CE010E944B2E800F911FE7
:1024A000DF91CF911F910F910895FC01A089B1890F
:1024B0008C91A689B78982FD0FC09C91818D8F5F19
:1024C0008F73228D821749F0218DDF01A20FB11D7C
:1024D0005D969C93818F08958C910895FC01538D96
:1024E000448D252F30E0842F90E0821B930B5417EE
:1024F00010F0CF96089501970895FC01918D828D7B
:10250000981761F0828DDF01A80FB11D5D968C9147
:10251000928D9F5F9F73928F90E008958FEF9FEF52
:102520000895FC01918D828D981731F0828DE80F0E
:10253000F11D858D90E008958FEF9FEF0895FC01C8
:10254000918D228D892F90E0805C9F4F821B910995
:102550008F739927089587EA96E0F1DF21E0892BB0
:1025600009F420E0822F089584E497E0E8DF21E079
:10257000892B09F420E0822F0895FC01848DDF016E
:10258000A80FB11DA35ABF4F2C91848D90E00196E6
:102590008F739927848FA689B7892C93A089B189D5
:1025A0008C9180648C93938D848D981306C00288DF
:1025B000F389E02D80818F7D80830895EF92FF92D3
:1025C0000F931F93CF93DF93EC0181E0888F9B8D56
:1025D0008C8D981305C0E889F989808185FD23C019
:1025E000F62E0B8D10E00F5F1F4F0F731127E02E9B
:1025F0008C8DE8120BC00FB607FCFACFE889F98979
:10260000808185FFF5CFCE01B8DFF2CF8B8DFE0143
:10261000E80FF11DE35AFF4FF0820B8FEA89FB8927
:102620008081806207C0EE89FF896083E889F9892B
:1026300080818064808381E090E0DF91CF911F9161
:102640000F91FF90EF900895CF93DF93EC01888D69
:102650008823C1F0EA89FB89808185FD05C0A889AE
:10266000B9898C9186FD0EC00FB607FCF5CF80812D
:1026700085FFF2CFA889B9898C9185FFEDCFCE0176
:102680007CDFE8CFDF91CF91089580E090E0892B47
:1026900019F06ADF811120C080E090E0892B19F0E9
:1026A0005ADF81111CC080E090E0892B41F080E06E
:1026B00090E0892B21F00E940000811113C080E07E
:1026C00090E0892BA1F080E090E0892B81F00E94BE
:1026D000000081110AC008950E940000DDCF0E9411
:1026E0000000E1CF0E940000EACF0C9400000895A2
:1026F0003FB7F8948091500690915106A0915206F0
:10270000B091530626B5A89B05C02F3F19F001963E
:10271000A11DB11D3FBFBA2FA92F982F8827820F67
:10272000911DA11DB11DBC01CD0142E0660F771FB7
:10273000881F991F4A95D1F7089585ED8093BC00B5
:102740008091BC0084FDFCCF1092840608954091D6
:102750002606262F30E0240F311D21323105DCF40E
:10276000209184062430C9F4FC0180E090E08617B3
:1027700058F4309126062191DC01AC5FB94FA30FCC
:10278000B11D2C930196F3CF80912606680F6093BC
:10279000260680E0089581E0089582E00895089576
:1027A000E091100880910F08E81730F4F0E0E65C43
:1027B000FA4F808190E008958FEF9FEF08959091F8
:1027C000100880910F08981750F4E92FF0E0E65CAC
:1027D000FA4F208130E09F5F9093100802C02FEFE6
:1027E0003FEFC901089580910F0890E020911008F3
:1027F000821B91090895CF92DF92EF92FF920F937F
:102800001F93CF93DF937C01262F972F8A0180910E
:102810008506882391F0C62FD72F6E01C40ED51ED2
:10282000CC15DD0569F06991D701ED91FC9101901E
:10283000F081E02DC7011995F3CF642F822F87DF38
:10284000C801DF91CF911F910F91FF90EF90DF9022
:10285000CF900895CF93DF931F92CDB7DEB76983F2
:10286000209185062223D1F020910D08203240F0DE
:1028700021E030E0FC013383228380E090E014C04B
:1028800080910E08E82FF0E0EA57F94F9981908384
:102890008F5F80930E0880930D0804C061E0CE0125
:1028A000019655DF81E090E00F90DF91CF91089580
:1028B0000E9406471F920F920FB60F9211240BB67B
:1028C0000F922F933F934F935F936F937F938F93C9
:1028D0009F93AF93BF93EF93FF9387EA96E04DDE0C
:1028E000FF91EF91BF91AF919F918F917F916F91E8
:1028F0005F914F913F912F910F900BBE0F900FBEA4
:102900000F901F9018951F920F920FB60F921124DF
:102910000BB60F922F933F934F935F936F937F93D9
:102920008F939F93AF93BF93EF93FF9387EA96E0C4
:10293000BCDDFF91EF91BF91AF919F918F917F91FE
:102940006F915F914F913F912F910F900BBE0F9020
:102950000FBE0F901F9018951F920F920FB60F92F7
:1029600011240BB60F922F933F934F935F936F9366
:102970007F938F939F93AF93BF93EF93FF9384E4E1
:1029800097E0FBDDFF91EF91BF91AF919F918F9108
:102990007F916F915F914F913F912F910F900BBE5F
:1029A0000F900FBE0F901F9018951F920F920FB6A9
:1029B0000F9211240BB60F922F933F934F935F9377
:1029C0006F937F938F939F93AF93BF93EF93FF93F7
:1029D00084E497E06ADDFF91EF91BF91AF919F9101
:1029E0008F917F916F915F914F913F912F910F90B8
:1029F0000BBE0F900FBE0F901F90189590E0FC013A
:102A00003197E231F10508F04EC08827EE58FF4FAC
:102A10008F4F0C94D944809180008F7703C08091B0
:102A200080008F7D80938000089580918000877F53
:102A3000F9CF84B58F7702C084B58F7D84BD0895AA
:102A40008091B0008F7703C08091B0008F7D80931C
:102A5000B0000895809190008F7707C0809190001A
:102A60008F7D03C080919000877F809390000895B0
:102A70008091A0008F7707C08091A0008F7D03C058
:102A80008091A000877F8093A0000895809120010D
:102A90008F7707C0809120018F7D03C08091200136
:102AA000877F8093200108958F929F92AF92BF926B
:102AB000CF92DF92EF92FF926B017C0119DE4B0106
:102AC0005C01C114D104E104F104E9F011DEDC0180
:102AD000CB0188199909AA09BB09883E9340A10531
:102AE000B10578F321E0C21AD108E108F10888EEB7
:102AF000880E83E0981EA11CB11CC114D104E1040E
:102B0000F10421F7DECFFF90EF90DF90CF90BF90E0
:102B1000AF909F908F9008952FB7F89460914C06D6
:102B200070914D0680914E0690914F062FBF0895EB
:102B30001F920F920FB60F9211242F933F938F93F2
:102B40009F93AF93BF9380914C0690914D06A091B7
:102B50004E06B0914F0630914B0623E0230F2D37E0
:102B600020F40196A11DB11D05C026E8230F029691
:102B7000A11DB11D20934B0680934C0690934D06EA
:102B8000A0934E06B0934F06809150069091510647
:102B9000A0915206B09153060196A11DB11D8093DC
:102BA000500690935106A0935206B0935306BF91DE
:102BB000AF919F918F913F912F910F900FBE0F90EA
:102BC0001F9018951F920F920FB60F9211240BB6FB
:102BD0000F922F933F934F935F936F937F938F93B6
:102BE0009F93AF93BF93EF93FF938091B900887F3A
:102BF000803609F49CC068F5883209F45BC090F413
:102C0000803109F454C038F4882309F4F6C08830C0
:102C100009F44DC0F5C0883109F44CC0803209F484
:102C20005DC0EEC0803409F468C048F4803309F414
:102C300055C0883309F0E4C080938206D8C080353F
:102C400009F44FC0883509F45DC0883409F0D8C054
:102C5000D6C0883909F4C7C0A8F4883709F467C01A
:102C600038F4883609F463C0803709F460C0C8C0FE
:102C7000883809F4B8C0803909F45FC0803809F099
:102C8000BFC05BC0803B09F486C038F4803A09F4C9
:102C900066C0883A09F47FC0B3C0803C09F4A7C07D
:102CA000883C09F4A4C0883B09F48AC0A9C080917B
:102CB0005F0610C09091810680918006981770F58C
:102CC000E091810681E08E0F80938106F0E0E05A6A
:102CD000F94F80818093BB0085EC86C0809382068B
:102CE0008EC0E091810681E08E0F809381068091F5
:102CF000BB00F0E0E05AF94F80839091810680910B
:102D000080066EC0E091810681E08E0F809381067F
:102D10008091BB00F0E0E05AF94F808380918306F8
:102D200081116DC081E080935E0684EA61C083E01A
:102D30008093840610924A06CFCF80914A06803253
:102D400008F051C0E0914A0681E08E0F80934A0658
:102D50008091BB00F0E0E65DF94F8083BDCF85EC4C
:102D60008093BC001092840680914A06803230F431
:102D7000E0914A06F0E0E65DF94F108260914A0664
:102D800070E0E0912806F09129068AE296E0199514
:102D900010924A0635C084E080938406109227067C
:102DA00010922606E0912406F0912506199580914F
:102DB0002606811105C081E0809326061092040644
:102DC000E091270681E08E0F80932706F0E0EC5F0C
:102DD000F94F80818093BB00909127068091260651
:102DE000981708F479CF85E88093BC0009C085EC7A
:102DF0008093BC001092840603C0109282069DDC72
:102E0000FF91EF91BF91AF919F918F917F916F91C2
:102E10005F914F913F912F910F900BBE0F900FBE7E
:102E20000F901F9018951092840681E0809383067E
:102E300010925E0684E10E94150D85E10E94150D39
:102E4000E9EBF0E080818E7F808380818D7F8083BD
:102E500088E48093B80085E48093BC0008951F92B5
:102E60000F920FB60F9211240BB60F922F933F9330
:102E70004F935F936F937F938F939F93AF93BF9382
:102E8000CF93DF93EF93FF9386E08093B20080911E
:102E9000E307882309F47BC08091E6079091E70758
:102EA00001969093E7078093E6072091E807309119
:102EB000E9078217930708F46AC01092E707109297
:102EC000E6078091EA07E091E107F091E20737E039
:102ED000839FE00DF11D11248681882321F001904C
:102EE000F081E02D19953091E3076091E80770912A
:102EF000E907E091E107F091E20720E0CF01231715
:102F000061F04681442331F044815581461B570BC3
:102F1000558344832F5F3796F2CF2091EA07FC0157
:102F200047E0249FE00DF11D112442815381558318
:102F300044831092EA07FC013D9621E02317C8F470
:102F40004081442399F04091EA07EC0157E0459F06
:102F5000C00DD11D1124DF0112976D917C914C8120
:102F60005D816417750710F42093EA072F5F379689
:102F7000E5CF2091EA07FC0137E0239FE00DF11D2A
:102F80001124848195819093E9078093E807FF914C
:102F9000EF91DF91CF91BF91AF919F918F917F91F1
:102FA0006F915F914F913F912F910F900BBE0F90BA
:102FB0000FBE0F901F9018958F929F92AF92BF9265
:102FC000CF92DF92EF92FF920F931F93CF93DF93F5
:102FD000CDB7DEB727970FB6F894DEBF0FBECDBFD3
:102FE0008C017C0188E0E80EF11CD8018D919C9148
:102FF000DC01ED91FC910084F185E02D1995892B80
:1030000069F1D8018D919C91DC01ED91FC910284D4
:10301000F385E02D1995282FF8018281938100977F
:1030200051F0DC01ED91FC910190F081E02D622FD7
:103030002F8319952F812A3011F02D3021F481E052
:10304000F80187830BC029831A8241E050E0BE015A
:103050006F5F7F4FC7010E94900FC7CFF801A78015
:10306000AA2009F4E1C0B12CC80108966C01D8016E
:1030700016968C91B81608F0D0C0FCE0BF9E700187
:103080001124D8011496ED91FC911597EE0DFF1DBA
:103090002481358140E050E0B601CE010196ADD9E2
:1030A000D8011496ED91FC911597EE0DFF1D24812A
:1030B00035818D819E812817390739F5808191816D
:1030C00069817A81009719F061157105C1F4611564
:1030D000710561F02115310549F0FB018081282F30
:1030E00030E088279927821B930B0BC0009779F05B
:1030F000232B69F0DC019C91892F90E002C00E9493
:10310000134799249394892B19F0912C01C09A2C80
:10311000CE0101960E947410992009F47CC0D80158
:103120001496ED91FC911597EE0DFF1D808491840E
:103130008114910401F11C962D913C911D974481BD
:1031400055814F5F5F4FB601CE01019656D98981F7
:103150009A81009719F00E94E73D03C060E070E09B
:10316000CB01F4016083718382839383CE01019646
:103170000E94741050C082859385009709F445C061
:1031800067EE74E00E944A10D8011496ED91FC910C
:103190001597EE0DFF1D84809580BFEF8B1A9B0A5B
:1031A000F801248535858481958182169306F0F493
:1031B000D8011896ED91FC911997309729F4109247
:1031C0000306E3E0F6E002C0E80DF91D2081FC01F2
:1031D000EE0DFF1D8285938529831A8241E050E020
:1031E000BE016F5F7F4F0E94900FD7CFFC01EE0DA5
:1031F000FF1D6285738584E497E00E94602E69EA72
:1032000072E084E497E03DD906C00680F781E02DA6
:10321000309709F01995B3942ACF67EE74E0C60190
:103220000E944A10F801178227960FB6F894DEBF65
:103230000FBECDBFDF91CF911F910F91FF90EF9007
:10324000DF90CF90BF90AF909F908F9008956F9236
:103250007F928F929F92AF92BF92CF92DF92EF9226
:10326000FF920F931F93CF93DF93EC016B017A01D1
:103270008E818F5F8E83A82EB12C2CE0829FC0019F
:10328000112402960E94F544FC01A192B1928F0193
:103290004F01A114B10489F067EE74E0C4010E94EB
:1032A0003211F4011782168211861086FCE08F0E0F
:1032B000911C21E0A21AB108ECCF912C492D50E0CD
:1032C0008E8190E001972C813D81481759070CF5BC
:1032D0004CE0949E5001112439016A0C7B1CA00E15
:1032E000B11EB301C5010E945F10F3018681978171
:1032F000F50197838683F30180859185F501918798
:103300008087F30182859385F50193878287939463
:10331000D5CF21153105E1F0F901329780819181F6
:103320004CE0489F5001499FB00C1124A20EB31EDF
:10333000C5012C813D81FCE0AF1AB10882179307CB
:1033400021F0C5010E947410F3CF02970E948A45B4
:103350001D830C838E8198014CE0849F200D311DCC
:103360001124C901B6010C970E945F108C819D81C8
:103370002E81FC013CE0239FE00DF11D11243C97C0
:10338000F782E6822E81FC014CE0249FE00DF11DC6
:1033900011243C97118610862E81ECE02E9F800D23
:1033A000911D1124FC013C9713861286DF91CF9169
:1033B0001F910F91FF90EF90DF90CF90BF90AF9053
:1033C0009F908F907F906F9008956091E408709126
:1033D000E50884E497E00C94602E6DE174E084E4E9
:1033E00097E04FC88F929F92AF92BF92CF92DF9299
:1033F000EF92FF920F931F93CF93DF93CDB7DEB77A
:1034000068E274E084E497E00E94722E8E01005F0F
:103410001F4FF80161918F0170E080E090E04AE079
:103420000E94802B6AE174E084E497E00E944B2EB6
:103430006DE374E084E497E00E94722EB80184E4A6
:1034400097E01FD86EE274E084E497E00E94722E49
:103450008E01015D1F4F7E01F7E4EF0EF11CF801B4
:1034600061918F0170E080E090E04AE00E94802B43
:103470000E151F0589F46AE174E084E497E00E9468
:103480004B2ECE0140967C018E010B591F4F4E01F1
:1034900090EA890E911C07C060EC73E084E497E029
:1034A0000E94722EDCCF68E374E084E497E00E940F
:1034B000722EB701695C7F4F84E497E00E9441124D
:1034C00065E474E084E497E00E94722EF801808144
:1034D00091810E94930C67E574E084E497E00E9478
:1034E000722EF801828193810E94930C66E674E04B
:1034F00084E497E00E94722EF801848195810E94F5
:10350000930CC12CD12C5701AC0CBD1CF501E55A14
:10351000FF4F60816831B1F4F0E3EF0EF11C005D04
:103520001F4FE814F90409F0BECFDF91CF911F912E
:103530000F91FF90EF90DF90CF90BF90AF909F9052
:103540008F90089570E080E090E04AE00E94802B28
:1035500066EB74E084E497E00E94722EF501E45A71
:10356000FF4F608170E080E090E04AE00E94802B95
:103570006AE174E084E497E00E944B2E82E0C80E7A
:10358000D11C9CE0C916D10409F0BDCFC5CF8DB7C1
:103590009EB7875C91090FB6F8949EBF0FBE8DBF92
:1035A000ADB7BEB7119687ECEDE1F8E001900D9252
:1035B0008A95E1F717DF8DB79EB789539F4F0FB6F6
:1035C000F8949EBF0FBE8DBF0895CF93DF93CDB704
:1035D000DEB7C75CD1090FB6F894DEBF0FBECDBF12
:1035E000CE0101960E944B0BCE0101960E94852CC4
:1035F0008DB79EB7875C91090FB6F8949EBF0FBE3A
:103600008DBFADB7BEB7119687ECFE013196019024
:103610000D928A95E1F7E6DE0FB6F894DEBF0FBE95
:10362000CDBFC953DF4F0FB6F894DEBF0FBECDBF7D
:10363000DF91CF910895EF92FF920F931F93CF9355
:10364000DF931F92CDB7DEB70DE118E0E12CF12C2E
:10365000F80161918F01C70169830E9473436981F9
:10366000681719F0C7010E947B43FFEFEF1AFF0AAA
:1036700087ECE816F10461F70F90DF91CF911F916D
:103680000F91FF90EF9008958F929F92AF92BF920B
:10369000CF92DF92EF92FF920F931F93CF93DF931E
:1036A000CDB7DEB766970FB6F894DEBF0FBECDBFBD
:1036B00065E774E084E497E00E94722E84E5C82EEA
:1036C00088E0D82EE12CF12C90E3A92E61E874E07B
:1036D00084E497E00E94722E63E874E084E497E04B
:1036E0000E94722E86010C5D1F4FB12CF801808163
:1036F000883109F0F8C06DE874E084E497E00E9436
:10370000722E6DEB73E0CE010D960E9432116DEBBF
:1037100073E0CE0101960E943211BE016F5F7F4FB0
:10372000CE0107960E942A11B601CE0107960E948B
:103730000310BE01635F7F4F0E941A10BC0184E436
:1037400097E00E943D2ECE0107960E947410CE0194
:1037500001960E947410CE010D960E94741065E9C6
:1037600074E084E497E00E94722E6DEB73E0CE016A
:103770000D960E943211AE9C8001AF9C100D112459
:10378000035E174FF801EB5AFF4F808091806DEB7D
:1037900073E0CE0101960E943211BE016F5F7F4F30
:1037A000CE0107960E942A11B401CE0107960E940D
:1037B000CF0FBE01635F7F4F0E941A10BC0184E4EB
:1037C00097E00E943D2ECE0107960E947410CE0114
:1037D00001960E947410CE010D960E9474106FE93C
:1037E00074E084E497E00E94722E6DEB73E0CE01EA
:1037F0000D960E943211F801E95AFF4F80809180A6
:103800006DEB73E0CE0101960E943211BE016F5F35
:103810007F4FCE0107960E942A11B401CE01079670
:103820000E94CF0FBE01635F7F4F0E941A10BC0140
:1038300084E497E00E943D2ECE0107960E9474100A
:10384000CE0101960E947410CE010D960E94741054
:1038500069EA74E084E497E00E94722E6DEB73E0F5
:10386000CE010D960E943211F801E75AFF4F0081F8
:1038700011816DEB73E0CE0101960E943211BE0101
:103880006F5F7F4FCE0107960E942A11B801CE01CB
:1038900007960E94CF0FBE01635F7F4F0E941A10F0
:1038A000BC0184E497E00E943D2ECE0107960E9461
:1038B0007410CE0101960E947410CE010D960E94E4
:1038C000741064EC73E084E497E00E94722EF2E0DE
:1038D000EF16F10409F43EC060EC73E084E497E075
:1038E0000E94722E37C0BB2031F060EC73E084E49C
:1038F00097E00E94722E61E874E084E497E00E94F1
:10390000722E63EB74E084E497E00E94722EF8015B
:10391000608170E080E090E04AE00E94802B68EBDC
:1039200074E084E497E00E94722EF801618170E0F7
:1039300080E090E04AE00E94802B64EC73E084E435
:1039400097E00E94722EB3940E5F1F4FF6E0BF12F5
:10395000CDCED1CE8FEFE81AF80AE0E3CE0ED11C1F
:10396000F3E0EF16F10409F0B1CE6EEB74E084E4FD
:1039700097E00E94722E00E010E0F801E35EF74F3E
:10398000678D70E080E090E04AE00E94802B073174
:10399000110531F060EC73E084E497E00E94722E30
:1039A0000F5F1F4F0831110541F766EC74E084E4A6
:1039B00097E00E94722E6EE874E084E497E00E9423
:1039C000722E6DEB73E0CE010D960E9432116DEBFD
:1039D00073E0CE0101960E943211BE016F5F7F4FEE
:1039E000CE0107960E942A116EE178E0CE0107967B
:1039F0000E940310BE01635F7F4F0E941A10BC013A
:103A000084E497E00E943D2ECE0107960E94741038
:103A1000CE0101960E947410CE010D960E94741082
:103A200068EC74E084E497E00E94722E6DEB73E022
:103A3000CE010D960E943211F0901D086DEB73E0DF
:103A4000CE0101960E943211BE016F5F7F4FCE0101
:103A500007960E942A118E010D5E1F4F4AE0B801A1
:103A60008F2D90E00E941A3EF80101900020E9F7A6
:103A70003197AF01401B510BB801CE0107960E9450
:103A8000900F811104C0CE0107960E94BD0FBE01A8
:103A9000635F7F4FCE0107960E941A10BC0184E439
:103AA00097E00E943D2ECE0107960E947410CE0131
:103AB00001960E947410CE010D960E94741064EC61
:103AC00073E084E497E00E94411266960FB6F89482
:103AD000DEBF0FBECDBFDF91CF911F910F91FF9041
:103AE000EF90DF90CF90BF90AF909F908F90089510
:103AF000CF92DF92EF92FF920F931F93CF93DF93BA
:103B0000CDB7DEB768970FB6F894DEBF0FBECDBF56
:103B100026E0829FC00111248C010E5D1D4FF8012B
:103B2000608171816B01F5E0CF1AD108F8016281E3
:103B300073817B01F5E0EF0EF11C4AE064E670E072
:103B4000CE010D960E94D3106BED73E0CE0101966D
:103B50000E943211BE016F5F7F4FCE0107960E9417
:103B60002A11BE01635F7F4FCE0107960E941A1093
:103B7000BC0187EA96E00E94602ECE0107960E9463
:103B80007410CE0101960E947410CE010D960E9411
:103B900074104AE0B701CE0143960E94A8104AE093
:103BA000B601CE010D960E94A81067EE73E0CE011B
:103BB00001960E943211BE016F5F7F4FCE010796C2
:103BC0000E942A11BE01635F7F4FCE0107960E94BB
:103BD0001A1064EE73E00E940310BE016D5E7F4F09
:103BE0000E941A10BC0187EA96E00E94602ECE0166
:103BF00007960E947410CE0101960E947410CE01A7
:103C00000D960E947410CE0143960E947410F80124
:103C1000048115814AE0B801CE010D960E94A810DA
:103C20006BED73E0CE0101960E943211BE016F5F11
:103C30007F4FCE0107960E942A11BE01635F7F4F1E
:103C4000CE0107960E941A10BC0187EA96E00E94F6
:103C5000602ECE0107960E947410CE0101960E943C
:103C60007410CE010D960E947410B60180E090E0B1
:103C70000E945B42AB01BC0180910805909109054F
:103C80000E94BD27B70180E090E00E945B42AB013B
:103C9000BC0180910605909107050E94BD27B801DF
:103CA00080E090E00E945B42AB01BC018091040582
:103CB000909105050E94BD2768960FB6F894DEBF67
:103CC0000FBECDBFDF91CF911F910F91FF90EF906D
:103CD000DF90CF90089582E00BCF81E009CF80E0A4
:103CE00007CFEF92FF920F931F93CF93DF93CDB740
:103CF000DEB768970FB6F894DEBF0FBECDBF413078
:103D0000510541F04230510551F422E330E04AE0E0
:103D100050E009C02EE130E042EE5FEF04C020E049
:103D200030E040E050E094E6899F400D511D1124A1
:103D3000CA018D967C0194E6699F200D311D1124E6
:103D40008901095C1F4F4AE064E670E0CE010D96E0
:103D50000E94A8106BED73E0CE0101960E94321113
:103D6000BE016F5F7F4FCE0107960E942A11BE01F0
:103D7000635F7F4FCE0107960E941A10BC0187EA4D
:103D800096E00E94602ECE0107960E947410CE012C
:103D900001960E947410CE010D960E9474104AE0A4
:103DA000B801CE0143960E94A8104AE0B701CE01A7
:103DB0000D960E94A81067EE73E0CE0101960E9456
:103DC0003211BE016F5F7F4FCE0107960E942A110C
:103DD000BE01635F7F4FCE0107960E941A1064EE0A
:103DE00073E00E940310BE016D5E7F4F0E941A10A7
:103DF000BC0187EA96E00E94602ECE0107960E94E1
:103E00007410CE0101960E947410CE010D960E948E
:103E10007410CE0143960E947410B70180E090E0C8
:103E20000E945B42AB01BC0180910805909109059D
:103E30000E94BD27B80180E090E00E945B42AB0188
:103E4000BC0180910605909107050E94BD2740E0C6
:103E500050E068EC72E480910405909105050E94A1
:103E6000BD2768960FB6F894DEBF0FBECDBFDF91B9
:103E7000CF911F910F91FF90EF900895CF93E09114
:103E8000F604F091F70420E030E040E85FE365A13C
:103E900076A187A190A50E94A2430E947444C62FD8
:103EA000E091F804F091F90420E030E040E85FE3AD
:103EB00065A176A187A190A50E94A2430E947444A7
:103EC000862F40E050E06C2FCF910BCF2F923F9286
:103ED0004F925F926F927F928F929F92AF92BF921A
:103EE000CF92DF92EF92FF920F931F93CF93DF93C6
:103EF000CDB7DEB7A8970FB6F894DEBF0FBECDBF23
:103F000076EEC72E78E0D72E8AE295E09E8F8D8FD1
:103F10005C018601912CF80184819581E92CF12CBA
:103F2000E816F90618F5EE0CFF1CEE0CFF1CD80184
:103F3000ED91FC91EE0DFF1D60817181D501ED9138
:103F4000FC91828993890E943F28F80180819181A8
:103F5000FC01EE0DFF1D62817381D501ED91FC9195
:103F6000828993890E943F289394D5CF892B11F0A1
:103F700015821482095F1F4FF2E0AF0EB11C88E07A
:103F80000B3F180739F632E7E32E38E0F32E4DE108
:103F9000842E48E0942EA8E1B5E0BCA3ABA3E2E1F7
:103FA000F5E0FEA3EDA38CE095E098A78FA354E382
:103FB000252E55E0352ED70112966D917C911397E1
:103FC000072E000C880B990B0E945D426F8F78A31F
:103FD00089A39AA3F70164817581072E000C880BD1
:103FE000990B0E945D422B013C01ABA1BCA1AD909D
:103FF000BD90BCA3ABA3F70160817181072E000CBB
:10400000880B990B0E945D42AB01BC01C501B5D77D
:104010004F8D58A169A17AA1ADA1BEA18D919D91AD
:10402000BEA3ADA3AAD7B301A201EFA1F8A58191C8
:104030009191F8A7EFA3A1D7A12CB12C34016A0C60
:104040007B1CF301E55AFF4F6081683109F4DDC044
:10405000D60114968D919C911597282F2170220FCF
:10406000322F330F330F230F2F8F9695879511E043
:10407000180F4AE0CE0107960E94FE10F301E45AA1
:10408000FF4F4AE06081CE0101960E94FE108B85B1
:104090009C85019709F563EF72E0CE010D960E94B1
:1040A0003211BE01635F7F4FCE0143960E942A11F9
:1040B000BE01695F7F4FCE0143960E941A10BC017A
:1040C000CE0107960E945F10CE0143960E947410A5
:1040D000CE010D960E9474108D819E81019709F585
:1040E00063EF72E0CE010D960E943211BE01635F54
:1040F0007F4FCE0143960E942A11BE016F5F7F4F12
:10410000CE0143960E941A10BC01CE0101960E9476
:104110005F10CE0143960E947410CE010D960E944E
:104120007410BE01695F7F4FCE010D960E942A1167
:1041300066EB74E0CE010D960E940310BE016F5F26
:104140007F4F0E941A10BC01CE0143960E942A1193
:1041500082E190E00E94F5443C01AD8DBE8DED9171
:10416000FC9162897389012F2F8DAE014D5E5F4FE7
:104170000E94982A7A8E698ECE0143960E9474100E
:10418000CE010D960E9474106CE074E0CE010D9685
:104190000E94321184E190E00E94F5443C012F8D91
:1041A0002A5FAD8DBE8DED91FC9162897389AE0160
:1041B000435F5F4F0E9490297C8E6B8ECE010D96DF
:1041C0000E947410F10180819181EB8DFC8D938BA5
:1041D000828BD60114966D917C9115976F5F7F4FFE
:1041E000AE01475E5F4FC60124D4CE0101960E9406
:1041F0007410CE0107960E947410B2E0AB0EB11C91
:10420000ECE0AE16B10409F019CFF0E3EF0EF11CAB
:1042100080E3880E911CAD8DBE8D1296BE8FAD8F42
:10422000B2E02B0E311CE7E0CE0ED11CF2E0EF160F
:10423000F9E0FF0609F0BFCE8091EB079091EC0703
:1042400005D68091090890910A080E944E2DA896E3
:104250000FB6F894DEBF0FBECDBFDF91CF911F9197
:104260000F91FF90EF90DF90CF90BF90AF909F9015
:104270008F907F906F905F904F903F902F90089518
:10428000CF93DF9370915C05C0915B052DE138E021
:10429000A7E5B6E0D1E080E090E0A901480F591F02
:1042A000FA01E55AFF4F6081683151F4205D3F4FBC
:1042B000119688E02D3A380771F7DF91CF91089574
:1042C000761307C0FA01E45AFF4F4081C41301C0BE
:1042D000DC9302968C30910501F7E8CF90915D0652
:1042E000282F30E02F5F3F4F81E0890FE92FF0E06A
:1042F000E35EF74F478D50E04217530711F0982FB8
:10430000F3CF90935D0680915C06882319F081308D
:10431000A1F008956BEA969F612D11246695862F72
:10432000880F860F41E050E0981B892FDADC8091DE
:104330005C068F5F80935C06089583E00E94F90A13
:1043400088E893E10E94C22B10925C0680915D0682
:104350008F5F883119F080935D06089510925D0695
:1043600010925B06E0915A06F0E0E95AF94F10828C
:10437000089580915B06811118C0809157068111C4
:104380000AC080915806811108C08091590688237F
:1043900061F082E003C080E001C081E010925D0620
:1043A00010925C0680935A0699CF08958091560624
:1043B000E82FF0E0E35EF74F278D91E0980F211191
:1043C00002C0892FF5CF8093560690915506923002
:1043D000E9F028F4992349F0913059F00895943088
:1043E00041F108F19530B1F108958FEF820F80DB34
:1043F00007C081E00E94810A88EE93E00E94C22BF0
:10440000809155068F5F8093550608956BEA869FCD
:10441000612D11246695962F990F960F40E050E07C
:10442000891B5FDCEDCF80E00E94810A84EF91E080
:10443000E5CF6BEA869F612D11246695962F990F23
:10444000960F41E050E0891B4CDC809155068F5F50
:104450008093550683E00E94F90A88E893E10E9460
:10446000C22B10925506809156068F5F8093560698
:10447000883111F410925406089581E08093540617
:10448000109256061092550691CF809154068111D4
:104490008DDF80915B06882319F080915A061ECF2C
:1044A0000895CF93DF93FC01808191818330910542
:1044B00034F48130910564F4892BC9F131C0853021
:1044C000910524F0059761F5628128C0628132C0B0
:1044D000C281D381209759F1BE018FEC94E00E94F4
:1044E0001347892B31F188818B3221F08D3229F4E9
:1044F00091E001C090E0219601C090E060E0299138
:1045000080ED820F8A3040F4660F862F880F880F67
:10451000680F6053620FF3CF992361F061950AC071
:1045200062817381848195810E94744403C060E03C
:1045300001C061E0862FDF91CF9108950F931F9303
:10454000CF93DF938B01FC01C281D381209759F077
:104550006A817B81C8010E941347892B21F0099051
:10456000D881C02DF3CFCE01DF91CF911F910F9154
:104570000895E4DF009749F0FC012481358126305D
:10458000310519F48681978108950C94750BCF93AA
:10459000DF93D4DFFC01892B09F450C0848195811D
:1045A000833091053CF4813091057CF4009709F447
:1045B0004CC03DC0853091052CF00597C1F5668152
:1045C000778130C08681978140C0C681D78120978E
:1045D000A9F1BE018FEC94E00E941347892B89F169
:1045E00088818B3221F08D3229F491E001C090E076
:1045F000219601C090E060E070E03AE0899120ED02
:10460000280F2A3068F4369FA001379F500D1124DF
:10461000682F880F770B60537109640F751FEECFF9
:10462000992391F088279927861B970B0EC06681E6
:104630007781808591850E946F4406C080E090E07C
:1046400004C081E090E001C0CB01DF91CF910895DB
:104650000F931F93CF93DF9371DFEC01892BC1F090
:104660000C811D810130110559F46E817F81611526
:10467000710531F084ED94E00E941347892B41F0DD
:10468000015011090230110518F48E819F8102C07A
:1046900080E090E0DF91CF911F910F910895DC01B0
:1046A0001296ED91FC911397309749F061157105C1
:1046B00041F0615071090190F081E02DF5CF0C942B
:1046C000630B828193810797D1F784819581089547
:1046D000FC01A081B1818C918D3051F024F489507E
:1046E0008230B8F505C0803219F08F3219F0089584
:1046F00011962CC011968C9111978A3219F08F3235
:10470000D1F008951196B183A083A081B181CD012C
:1047100001969183808311968C9111978823C9F01B
:104720008A3299F712968C9112978F3271F71396FD
:104730000DC08A3071F2A081B181CD0101969183C3
:10474000808311968C918111F4CF03C0B183A08333
:10475000C0CF08950F931F93CF93DF931F92CDB7D0
:10476000DEB78C016983B4DFD801ED91FC9111971C
:1047700080816981861305C03196ED93FC9381E0B9
:1047800001C080E00F90DF91CF911F910F910895AC
:10479000EF92FF920F931F93CF93DF938C01DC0175
:1047A0001496CD91DC911597EA80FB808E819F81D4
:1047B000E80EF91EC80102968BDFD8011296ED9122
:1047C000FC9113979081973291F1923281F180EDB3
:1047D000890F8A3060F0892F8F7D81548A3138F0BB
:1047E0009B3229F083ED890F823008F060C0F80118
:1047F000228133812F5F3F4F338322832E813F817C
:10480000A9014F5F5F4F6C817D816417750740F090
:104810006A817B81FB01E20FF31F5F834E839083EC
:10482000D8011296ED91FC9113979081D0CF3196DB
:10483000D8011396FC93EE931297D8011296ED913E
:10484000FC9113972081222391F1AF014F5F5F4FBD
:1048500013965C934E931297291749F12C35A9F4BE
:104860002181ADEDB4E08C91882339F0821303C02F
:1048700011962C9102C01296F6CF2223C1F03296E7
:10488000D8011396FC93EE9312974E815F81BA0183
:104890006F5F7F4FEC81FD81E617F70770F2EA81C9
:1048A000FB81E40FF51F7F836E832083C6CF8E814B
:1048B0009F819C012F5F3F4F4C815D8142175307C1
:1048C00048F04A815B81FA01E80FF91F3F832E838C
:1048D000108202C0E12CF12CC701DF91CF911F9112
:1048E0000F91FF90EF9008959F92AF92BF92CF9259
:1048F000DF92EF92FF920F931F93CF93DF9300D03D
:1049000000D0CDB7DEB76C01FC0100811181B80188
:1049100084E090E00E94870B009709F474C0FC01CA
:1049200011830083138212828C017601F2E0EF0E74
:10493000F11C6BE7C7010EDF882309F460C06DE747
:10494000C70108DF811162C086E0982EC60120DF12
:104950005C01892B09F453C06AE3C701FBDE88239D
:1049600009F44DC01A821982BE016F5F7F4FC601E4
:104970000E945F0E882309F442C0B501C801DEDD44
:10498000DC01892B51F5F801608171818AE090E0AA
:104990000E94870BDC01892B39F011961C921E9224
:1049A00015961C921E921497F801228133812115CD
:1049B000310551F0F90180819181009711F09C013E
:1049C000F9CFB183A08303C0F801B383A28310970A
:1049D000B1F01396BC92AE921297FE0131961496E6
:1049E000892D01900D928A95E1F76DE7C701B2DE3E
:1049F00081110CC06CE2C701ADDE8111A7CF0E940E
:104A0000630B8C0103C00E94630B8ECFC8012696F6
:104A10000FB6F894DEBF0FBECDBFDF91CF911F91CF
:104A20000F91FF90EF90DF90CF90BF90AF909F904D
:104A30000895AF92BF92CF92DF92EF92FF920F93C1
:104A40001F93CF93DF93EC01CC80DD80C616D70691
:104A500008F054C07A018B018A819B8186179707E1
:104A600068F59B01285F3F4F8217930738F5A880B0
:104A7000B9803B832A83C901880F991F880F991F2A
:104A80000E94F54488839983D501FC0120E030E041
:104A90002C153D0581F0309749F04D915D916D9158
:104AA0007C91139740835183628373832F5F3F4FC1
:104AB00014963496EDCFC5010E948A458C819D8164
:104AC0009C01220F331F220F331F8017910798F488
:104AD000E881F981E20FF31F309749F0D7014D913A
:104AE0005D916D917C9140835183628373830196C4
:104AF0002C5F3F4FEACF1D830C8305C06C157D05ED
:104B000010F47D836C83DF91CF911F910F91FF9003
:104B1000EF90DF90CF90BF90AF900895089580E020
:104B200090E0089582E090E0089583E090E0089599
:104B300081E090E0089580E090E008950895CF939B
:104B4000DF93EC0180E492E099838883CE010C9698
:104B50000E947410CE010696DF91CF910C947410D0
:104B600028E632E0FC0131832083E9CF2EE532E0F4
:104B7000FC0131832083E3CF24E532E0FC01318363
:104B80002083DDCFCF93DF93EC018AE492E0998319
:104B900088838A899B89009739F0DC01ED91FC912B
:104BA0000280F381E02D1995CE01DF91CF91C7CF1F
:104BB000CF93DF93EC01D4DFCE01DF91CF910C9442
:104BC0008A45CF93DF93EC01D1DFCE01DF91CF9106
:104BD0000C948A45CF93DF93EC01CEDFCE01DF91B9
:104BE000CF910C948A45CF93DF93EC01CBDFCE01BC
:104BF000DF91CF910C948A45CF93DF93EC019FDF37
:104C0000CE01DF91CF910C948A450F931F93CF93E0
:104C1000DF938C01FC01C481D5812097D9F0FE017E
:104C20003297808191814CE0489F9001499F300DDF
:104C30001124C20FD31FCE01F801248135812C9796
:104C40008217930721F0CE010E947410F4CF0297CF
:104C50000E948A45C8010896DF91CF911F910F915C
:104C60000C947410CF92DF92EF92FF920F931F93E8
:104C7000CF93DF9300D000D0CDB7DEB78C017B019E
:104C80006A01FC0113821282168267EE74E00896B4
:104C90000E943211F801F182E082A60160E070E02A
:104CA000C701CCD567EE74E0CE0101960E943211A7
:104CB000F801168215821482CE0101960E947410AA
:104CC00026960FB6F894DEBF0FBECDBFDF91CF9111
:104CD0001F910F91FF90EF90DF90CF9008950F9369
:104CE0001F93CF93DF9300D000D0CDB7DEB78C01F8
:104CF000FC0113821282168267EE74E008960E940D
:104D0000321184E497E0F8019183808340E855E212
:104D100060E070E093D567EE74E0CE0101960E94EA
:104D20003211F801168215821482CE0101960E947A
:104D3000741026960FB6F894DEBF0FBECDBFDF917C
:104D4000CF911F910F910895FC01248131E03093A0
:104D500085062093A60610920E0810920D088385F2
:104D6000682B81E198E00E942A1481E0EAC50F9344
:104D70001F93CF938C01C62FE7DF6C2F6460C801AF
:104D8000E3DF6C2F6B7FC801DFDF83EC90E00197DE
:104D9000F1F7CF911F910F9108950F931F93CF9328
:104DA0008C01C62F607F6160E2DF80E1C89FB001A7
:104DB00011246160C801DBDF81E090E0CF911F9199
:104DC0000F9108950F931F93CF938C01C62F607F8F
:104DD000CEDF80E1C89FB0011124C801CF911F919F
:104DE0000F91C5CFFC016681262F226026836A6061
:104DF000E9CFCF93DF93CDB7DEB728970FB6F894FE
:104E0000DEBF0FBECDBF9C0188E0E4E3F2E0DE012F
:104E1000119601900D928A95E1F7F901808584172A
:104E200010F44FEF480FFE013196E40FF11DE40F2F
:104E3000F11D9081690F6068C90128960FB6F8943A
:104E4000DEBF0FBECDBFDF91CF91BCCF61E0BADF37
:104E50008BE39FE10197F1F70895AF92BF92DF9244
:104E6000EF92FF920F931F93CF93DF93CDB7DEB7EF
:104E70002C970FB6F894DEBF0FBECDBF8C015B013F
:104E800067EE74E0CE0101960E943211F801238D85
:104E9000348D458D568D6789708D818D928D0E94E0
:104EA000A0441816A4F17801F6E0EF0EF11CB7014A
:104EB000C8010C960E945F10BE016F5F7F4FCE014C
:104EC00007960E942A11B501CE0107960E941A107A
:104ED000BC01C7010E945F10CE0107960E947410AA
:104EE00081E0F8018383CE0101960E9474102C9614
:104EF0000FB6F894DEBF0FBECDBFDF91CF911F91EB
:104F00000F91FF90EF90DF90BF90AF900895D12C5C
:104F1000F8016789708D818D928D0E946F444AE0FF
:104F2000CE0107960E94D310EB84FC84F5018481A6
:104F30009581E81AF90ACE0107960E9474108D2D0A
:104F400090E08E159F0508F0AECFBE016F5F7F4FDA
:104F5000CE0107960E942A1163EF72E0CE010796F8
:104F60000E940310BC01CE0101960E945F10CE0189
:104F700007960E947410D394CBCFCF92DF92EF921A
:104F8000FF920F931F93CF93DF9300D000D0CDB744
:104F9000DEB78C01DC0195964D935D936D937C9308
:104FA00098979196ED91FC919297309721F04083DC
:104FB000518362837383F801E3A0F4A0E114F10448
:104FC00049F065A176A187A190A50E946F44D70101
:104FD0006D937C93D8015F96ED91FC9190973097FB
:104FE00009F01995F801C288D388E488F588C701CB
:104FF000B6010E946F44072E000C880B990B0E948B
:105000005D429B01AC01C701B6010E94A24320E0B2
:1050100030E0A9010E94574281110FC0D801959636
:105020006D917D918D919C9198970E946F444AE07B
:10503000CE0101960E94D3100AC0F80145A156A1E5
:1050400067A170A522E0CE0101960E947910BE01F1
:105050006F5F7F4FC80101DFCE0101960E9474107F
:1050600026960FB6F894DEBF0FBECDBFDF91CF916D
:105070001F910F91FF90EF90DF90CF900895AF9226
:10508000BF92CF92DF92EF92FF920F931F93CF9335
:10509000DF93EC019C8120E030E0EE24EA94FE2CCA
:1050A000291780F4EA81FB81A901440F551FE40F01
:1050B000F51F408151814617570709F479012F5F89
:1050C0003F4FEECF8FEFE816F80609F446C099235C
:1050D00011F091509C838B01CC80D12CC601880F9C
:1050E000991F0E94F5445C0150E040E0252F30E01C
:1050F000C216D306ACF02E153F0581F0220F331FE8
:10510000EA81FB81E20FF31F80819181F501E40FB9
:10511000F11DE40FF11D918380834F5F5F5FE6CF48
:105120008A819B81009711F00E948A45AA82BB82E6
:105130000115110591F0D801ED91FC910280F381E8
:10514000E02DC801DF91CF911F910F91FF90EF905B
:10515000DF90CF90BF90AF901994DF91CF911F91C6
:105160000F91FF90EF90DF90CF90BF90AF90089598
:105170000F931F93CF938C0180E192E0D8018D9320
:105180009C93C0E0F80184810280F381E02DC81770
:1051900088F4EC0FF11DEC0FF11D808191810097D7
:1051A00039F0DC01ED91FC910280F381E02D19953D
:1051B000CF5FE8CF309731F0CF01CF911F910F91A2
:1051C0000C948A45CF911F910F910895CF93DF934F
:1051D000EC01CEDFCE01DF91CF910C948A45EF92A6
:1051E000FF920F931F93CF93DF93EC017B018C0110
:1051F0000A5F1F4FB8010C960E945F10B701C801EB
:105200000E945F1081E08B83DF91CF911F910F91FE
:10521000FF90EF9008956F927F928F929F92AF923E
:10522000BF92CF92DF92EF92FF920F931F93CF9393
:10523000DF9300D000D0CDB7DEB76C014B015A012F
:10524000122F80E492E0F6019183808381E08283D3
:10525000138267EE74E0C60106960E94321167EE73
:1052600074E0C6010C960E943211F40164806394CC
:105270006482712CC301880F991F0E94F5447C0140
:1052800020E0F1E06F1A7108422F50E0F4018281B2
:1052900093814615570574F4440F551FFC01E40F24
:1052A000F51F80819181F701E40FF51F91838083C1
:1052B0002F5FEACF009711F00E948A45F401F38234
:1052C000E2828481F701E80FF11DE80FF11D3297AA
:1052D000D182C082B501CE0101960E942A11BE0181
:1052E0006F5F7F4FC6017BDFCE0101960E94741075
:1052F000F6011483058326960FB6F894DEBF0FBE21
:10530000CDBFDF91CF911F910F91FF90EF90DF9074
:10531000CF90BF90AF909F908F907F906F900895A7
:10532000CF92DF92EF92FF920F93CF93DF93CDB79F
:10533000DEB727970FB6F894DEBF0FBECDBF7C0156
:105340006B01BA01CE0101962F830E942A112F8191
:10535000AE014F5F5F4FB601C7015DDFCE01019621
:105360000E94741084E592E0F70191838083138A90
:10537000128A27960FB6F894DEBF0FBECDBFDF911D
:10538000CF910F91FF90EF90DF90CF9008954F92C3
:105390005F926F927F928F929F92AF92BF92CF92C5
:1053A000DF92EF920F93CF93DF93CDB7DEB72B97BA
:1053B0000FB6F894DEBF0FBECDBF6C013B014901B3
:1053C0005A01202F0E2D67EE74E0CE0101962B8737
:1053D0000E9432112B85AE014F5F5F4FB301C601B2
:1053E0001ADFCE0101960E9474108EE592E0F6015C
:1053F00091838083178A108E118E128E138E148ED5
:10540000158E168EC501B4010E946F446F83788794
:1054100089879A872F813885B901330F880B990BBB
:105420000E945D429B01AC01C501B4010E94A243F0
:1054300020E030E0A9010E945742811105C080E0C0
:1054400090E0A0E8BFE31AC02AE037ED43E25CE356
:10545000C501B4010E9407440E946F44CB016AE079
:1054600070E00E94A444811105C08DEC9CECACEC72
:10547000BDE304C08AE097EDA3E2BCE3F601828BB2
:10548000938BA48BB58BF60185A296A2A7A2B0A69A
:105490004288538864887588C301B2010E946F44B2
:1054A000072E000C880B990B0E945D429B01AC01FA
:1054B000C301B2010E94A24320E030E0A9010E9492
:1054C0005742811108C04AE06F817885CE0101966C
:1054D0000E94D31007C022E0B501A401CE010196BD
:1054E0000E947910BE016F5F7F4FC601B6DCCE010E
:1054F00001960E947410F601168A10A2178E12A24D
:1055000011A214A213A22B960FB6F894DEBF0FBE01
:10551000CDBFDF91CF910F91EF90DF90CF90BF90F3
:10552000AF909F908F907F906F905F904F90089575
:10553000CF92DF92EF92FF920F93CF93DF93CDB78D
:10554000DEB727970FB6F894DEBF0FBECDBF7C0144
:105550006B01BA01CE0101962F830E942A112F817F
:10556000AE014F5F5F4FB601C70155DECE01019618
:105570000E94741088E692E0F70191838083279659
:105580000FB6F894DEBF0FBECDBFDF91CF910F9164
:10559000FF90EF90DF90CF900895CF92DF92EF923F
:1055A000FF920F93CF93DF93CDB7DEB727970FB658
:1055B000F894DEBF0FBECDBF7C016B01BA01CE01F6
:1055C00001962F830E942A112F81AE014F5F5F4FFA
:1055D000B601C70120DECE0101960E9474108AE454
:1055E00092E0D7018D939C9386E090E00E94F54471
:1055F000FC0186E0DF011D928A95E9F7148215828D
:1056000088E192E091838083D7015396FC93EE93D7
:10561000529727960FB6F894DEBF0FBECDBFDF912D
:10562000CF910F91FF90EF90DF90CF90089528E1F8
:1056300032E0FC01318320839BCDCF93DF93EC01DB
:10564000F6DFCE01DF91CF910C948A45EF92FF9265
:105650000F931F93CF93DF93CDB7DEB72C970FB681
:10566000F894DEBF0FBECDBF7C0167EE74E0CE01C3
:1056700007960E943211F7012089318921153105E1
:1056800011F4128501C0122F00E00117C1F0BE0114
:10569000695F7F4FCE0101960E942A116CE274E08F
:1056A000CE0101960E940310BC01CE0107960E9414
:1056B0005F10CE0101960E9474100F5FE6CFF701D4
:1056C000458164818091EB079091EC0792DBBE01EC
:1056D000695F7F4F8091EB079091EC07CED2CE01AE
:1056E00007960E9474102C960FB6F894DEBF0FBE7A
:1056F000CDBFDF91CF911F910F91FF90EF90089553
:105700008F929F92AF92BF920F931F93CF93DF938D
:10571000CDB7DEB7A1970FB6F894DEBF0FBECDBFF1
:1057200019A2423008F44AE08E010F5D1F4F842E0B
:10573000912CA12CB12CA50194010E94B744E62F15
:10574000B901CA0101501109EA3014F4E05D01C049
:10575000E95CD801EC93232B242B252B61F7B801AE
:1057600084E497E098D2A1960FB6F894DEBF0FBEFE
:10577000CDBFDF91CF911F910F91BF90AF909F90C0
:105780008F900895CF93DF93CDB7DEB76E970FB6A6
:10579000F894DEBF0FBECDBF4AE0BC01CE0101963A
:1057A0000E94A8104AE060E070E0CE0107960E94D7
:1057B000A81068EE74E0CE0143960E943211BE013B
:1057C0006D5E7F4FCE010D960E942A11BE01695F6A
:1057D0007F4FCE010D960E941A1068ED73E00E9473
:1057E0000310BE016F5F7F4F0E941A10BC01CE01F3
:1057F00049960E942A11CE010D960E947410CE0186
:1058000043960E947410CE0107960E947410CE0138
:1058100001960E947410BE01675E7F4F87EA96E092
:105820004FD2CE0149960E9474106E960FB6F8942E
:10583000DEBF0FBECDBFDF91CF910895CF92DF9233
:10584000EF92FF920F931F93CF93DF93EC016A01C6
:105850007B01E889F98982E080834115514E610519
:105860007105B1F060E079E08DE390E0A701960169
:105870000E94B74489019A01015011092109310997
:105880003695279517950795980101151041A8F0B1
:10589000E889F989108260E874E88EE190E0A70158
:1058A00096010E94B744DA01C9010197A109B10923
:1058B000B695A795979587959C01EC85FD853083D6
:1058C000EE85FF852083188EEC89FD8986E0808334
:1058D000EA89FB89808180618083EA89FB898081F4
:1058E00088608083EA89FB89808180688083EA8977
:1058F000FB8980818F7D8083DF91CF911F910F91F4
:10590000FF90EF90DF90CF900895EF92FF920F936A
:105910001F93CF93DF937C018C01C0E0D0E0CE01D8
:105920000E947343F80181938F012196C73CD105F2
:10593000B1F7C701DF91CF911F910F91FF90EF90C9
:105940000895382F20910D089091A606213208F075
:1059500049C0809184068111FCCF42E040938406C7
:10596000309383063FEF3093820610928106209396
:105970008006A6E8B6E040E656E0FA013E2F341B6A
:10598000321718F43D913193F9CF10925F062091B0
:105990005F06990F922B90935F0690915E0691306F
:1059A00061F410925E0690915F069093BB00909117
:1059B000BC0093FDF8CF95EC01C095EE9093BC0030
:1059C000909184069230E1F3909182069F3F79F0A6
:1059D00080918206803241F080918206803331F0DE
:1059E00084E005C081E003C082E001C083E0109242
:1059F0000E0810920D081092850608951F93CF93FC
:105A0000DF93809108088F3F39F46EEE74E0809147
:105A1000EB079091EC0766D110E0E0910908F09156
:105A20000A088481181770F592818381E92FF82F75
:105A3000E10FF11DE10FF11DC081D1818B81882320
:105A4000F9F08A81811103C0CE0100DE18C02889D7
:105A500039898A859B858217930710F4CE01F6DD7C
:105A60004D816C818091EB079091EC07C2D9BE010A
:105A70006A5F7F4F8091EB079091EC07FED01B820D
:105A80001F5FCBCF4091EE076091ED078091EB0750
:105A90009091EC07DF91CF911F91ABC9FF920F93CB
:105AA0001F93CF93DF9390930A0880930908C0E077
:105AB000D1E0E0910908F0910A088481C817D0F478
:105AC00092818381E92FF82FEC0FF11DEC0FF11D6E
:105AD00080819181DC01ED91FC910480F581E02DC4
